:020000040000FA
:1000000048050020CD010000D10100007901000069
:1000100000000000000000000000000000000000E0
:10002000000000000000000000000000D5010000FA
:100030000000000000000000D7010000D90100000E
:10004000DB010000DB010000DB010000DB01000040
:10005000DB010000DB010000DB010000DB01000030
:10006000DB010000DB010000DB010000DB01000020
:1000700065640000DB010000DB010000DB01000023
:10008000DB010000DB010000DB010000DB01000000
:10009000DB010000DB010000DB010000DB010000F0
:1000A000DB010000DB010000DB010000DB010000E0
:1000B000DB010000DB010000DB010000DB010000D0
:1000C00000F002F800F048F80CA030C808382418F6
:1000D0002D18A246671EAB4654465D46AC4201D180
:1000E00000F03AF87E460F3E0FCCB646012633426A
:1000F00000D0FB1AA246AB463343184734670000D2
:1001000054670000103A02D378C878C1FAD8520771
:1001100001D330C830C101D504680C6070470000BD
:100120000023002400250026103A01D378C1FBD813
:10013000520700D330C100D50B60704710B5782945
:1001400002D100F067F810BD002010BD1FB500F00F
:100150002BF91FBD10B510BD00F062FA1146FFF774
:10016000F5FF06F0A1FA00F07AFA03B4FFF7F2FF08
:1001700003BC00F081FA000004207146084202D05E
:10018000EFF3098001E0EFF308807146004A104761
:10019000A925000030B40C490C684A68236810682F
:1001A000C0181060241D121D8C4207D28A4208D24A
:1001B0000C604A6030BC4000400870470C00DC3CDA
:1001C000F6E70A00DC3AF3E7E002002006480047C1
:1001D000FEE7FEE7FEE7FEE7FEE7FEE70348044929
:1001E000024A044B70470000C10000004803002091
:1001F00048050020480300200FB4054910B503AAA4
:10020000029800F0E1F910BC08BC04B018470000E7
:100210006400002070B504460D4621461068C046B3
:10022000C0462188090502D50F4A7A4402E00E4AE9
:100230007A440E3223460021243305E006070009E4
:10024000360F965D5E54491C0028F7D120780023B4
:10025000000705D5702D03D0002901D002231132EB
:10026000204600F059F970BDD8650000F3B504468A
:10027000002081B020622046E168884700287AD0BB
:10028000252802D06268A16871E0E1682046002557
:10029000884706460020E0610746A0612A2E0AD062
:1002A000304606F0F0F9002827D0B8000019303E9B
:1002B0000090866119E00298BA00121902C8916193
:1002C00002902046E1688847012F064617D1E06971
:1002D00000281FDA202085431CE000980A2180694D
:1002E000484300998019303888612046E168884782
:1002F000064606F0C8F90028EFD1012F0AD02E2EAD
:1003000008D12046E16888470646202005437F1C27
:10031000022FC3DBA069002803DA4042A06101205C
:100320000543E80701D010208543002E23D0304636
:100330004138192803D80120C00205432036204641
:1003400025603146029A1546FFF7F8FE00280BD0CB
:10035000012806D0ED1DE808C000083002908AE7A9
:1003600009E02D1D029586E762683046A168904736
:10037000206A401C7EE7206AFEBD00000B4A30B5B3
:1003800011460B4C60310B46DC3B0CC1372106E0BB
:10039000020C8D0012185A51064A504300190A46A1
:1003A000491E002AF4DC30BD0120E7E7800200206E
:1003B000E119D666CD0D0100002203098B422CD332
:1003C000030A8B4211D300239C464EE003460B43A5
:1003D0003CD4002243088B4231D303098B421CD307
:1003E000030A8B4201D394463FE0C3098B4201D3F9
:1003F000CB01C01A524183098B4201D38B01C01A31
:10040000524143098B4201D34B01C01A52410309A7
:100410008B4201D30B01C01A5241C3088B4201D356
:10042000CB00C01A524183088B4201D38B00C01A03
:10043000524143088B4201D34B00C01A5241411A2A
:1004400000D201465241104670475DE0CA0F00D00D
:100450004942031000D34042534000229C46030906
:100460008B422DD3030A8B4212D3FC22890112BA8C
:10047000030A8B420CD3890192118B4208D3890164
:1004800092118B4204D389013AD0921100E089097C
:10049000C3098B4201D3CB01C01A524183098B425D
:1004A00001D38B01C01A524143098B4201D34B0146
:1004B000C01A524103098B4201D30B01C01A5241A9
:1004C000C3088B4201D3CB00C01A524183088B4230
:1004D00001D38B00C01A5241D9D243088B4201D3B9
:1004E0004B00C01A5241411A00D2014663465241A4
:1004F0005B10104601D34042002B00D549427047A3
:1005000063465B1000D3404201B50020C046C046A0
:1005100002BD704770477047FFB504460D4681B075
:10052000243000902168880604D51022E0699143A8
:10053000216000E00120A84201DD471B00E0002708
:100540000498A1697A191018081AA0612078C006C9
:1005500002D42046C046C046002608E003986268E0
:10056000A168805D9047206A401C761C2062049838
:100570008642F3DB2078C0060AD52046C046C04636
:1005800006E06268A16830209047206A401C206223
:1005900038467F1E0028F4DC07E000986268A168F6
:1005A000405D9047206A401C206228466D1E00284E
:1005B000F3DC2046C046C0462078000602D5022063
:1005C00005B0F0BD0120FBE7084B70B50D467B443C
:1005D00000F013F80446284606F05CF8002802D024
:1005E0000020C04370BD204670BD0000C9600000FF
:1005F00001694A1C02610878704700B58FB002910A
:100600000021059105490193794403911146049015
:100610006846FFF72BFE0FB000BD0000E5FFFFFFAF
:10062000754600F025F8AE46050069465346C008F9
:10063000C000854618B020B5FFF7D0FD60BC00278C
:100640004908B6460026C0C5C0C5C0C5C0C5C0C59E
:10065000C0C5C0C5C0C5403D49008D46704710B5F6
:100660000446C046C0462046FFF77FFD10BD00008F
:1006700000487047E802002001491820ABBEFEE7A1
:10068000260002007047000070B5064C00235D0094
:100690005D192E19B0705B1C7170DBB26255182B9E
:1006A000F5D370BDBB01002000B50548C178012914
:1006B00005D10021C1700A460846FFF7E5FF00BDDD
:1006C00026000020F8B529484278002A2CD00525BC
:1006D0000146274E2D07274FC9780024012A06D04E
:1006E000022A22D0032A1FD101292AD033E001296E
:1006F00009D11E480022C47004700C211E4801F06C
:10070000FDFE0120B06119480178491CC9B2017091
:10071000052909D904704470686B38406863686BB8
:100720000321890208436863F8BDC4700470B46192
:100730004470686B38406863686B6863B462F462E5
:10074000F8BDC4700470B461696B39406963696B4A
:100750006963B462F4620178491CC9B20170052969
:10076000EED9047001214170C170F8BD580000201D
:1007700000420050F3F3FFF34040005070B52848AA
:10078000066B284903248A1C01250B1F0020012E1B
:1007900017D0087048701178491CC9B211703229FD
:1007A00009D310705178491CC9B251700A2902D37B
:1007B00050705C70DD701B499A78091D012A11D0B8
:1007C00014E0107050700A78521CD2B20A70322AAB
:1007D000F1D308704A78521CD2B24A700A2AEAD37E
:1007E0004870E6E798700870487088700A78521C64
:1007F000D2B20A70322A10D308704A78521CD2B290
:100800004A703C2A09D348708A78521CD2B28A7046
:100810003C2A02D388705C70DD70FFF753FF70BD17
:10082000004200505C000020F0B56849684DC8786F
:10083000684C85B0012807D0674801780A2950D252
:10084000491C017005B0F0BD0020C87020706348DD
:10085000634F00780290207802990646FFF7ACFDBE
:100860006048017048000A1870003118BB5C4819D4
:100870008370D2195378437090786854761CF0B224
:1008800020701828E7D30026574D584F2670288827
:10089000113080B22880FFF771FDFFF77BFCC0B2FA
:1008A0000A21FFF789FD524A20780A311154514A32
:1008B000012111542888113080B22880FFF75EFD95
:1008C000FFF768FCC0B21E21FFF776FD20780A31E1
:1008D0003954401CC0B220701828D8D33E48067046
:1008E000B0E700210170434F21702678B85D0028E1
:1008F0002FD0012845D0394801783046FFF75CFDFC
:10090000384801704800081835490190085C3221C8
:10091000FFF752FD81004118700030180490401913
:10092000039081702E49019840180290407832213E
:10093000FFF742FD8100411803984170029832216F
:100940008078FFF739FD8100411804982954002070
:1009500015E0224801783046FFF72EFD214801704E
:10096000480009181E48425C7000301843199A70FC
:100970001B4A89184A785A70897829540120B85539
:100980001DE01A481A4A815D491CC9B28155925D21
:10099000914214D90021144A81551088411C1180BC
:1009A000FFF7ECFCFFF7F6FBC0B20A21FFF704FDEE
:1009B0000F4822780A318154B85C401CB854207822
:1009C000401CC0B2207018288FD33BE726000020BF
:1009D000BB0100202C000020360000202A0000204F
:1009E000910000203500002024000020C1000020DC
:1009F00025010020F3000020F0B51848184BC778F7
:100A00001849194D0024194E194A012F05D02F7885
:100A1000082F0ED27F1C2F70F0BDC4701C700C709C
:100A20001470002211461046FFF72EFE2C70347011
:100A3000F0BD2C703578EF0700D1FF2414706D1CC9
:100A4000ECB23470052C03D9447804700124C470CE
:100A5000127809781878FFF717FEF0BD26000020FD
:100A60002E0000202F00002036000020F300002080
:100A7000300000200248016AC20111430162704740
:100A800000020050F3B58BB00C46FFF7F3FF0B9854
:100A900000287448016813D004221143016010201B
:100AA00000F0F0F90120C00409906F480090042084
:100AB00008906E486E49201888420ED800251DE027
:100AC00089088900491C0160012000F0DBF9002041
:100AD0000990684800900220EAE7674866492018B4
:100AE0004942884202D80125640007E0634863490F
:100AF0002018494288427DD20325A4000026F643EF
:100B0000089F22E039460098FFF756FC5C4984466E
:100B100041185C48814217D2554B02225B1C534856
:100B200061465143401C0818984209D8A14201D996
:100B3000081B00E0601AB04202D2060004920CD0FA
:100B40005148521C8242EAD97F1C212FDAD9002059
:100B50000696C0430190089E54E00999A8030843F3
:100B600001217A028902511A08430499891E084317
:100B70003C490862042000F085F9691C794300981B
:100B8000FFF71AFC049948430DB0F0BD31460098B8
:100B9000FFF712FC3A4942183A498A4231D20221FF
:100BA000324B02464A435B1CD7185B429F4224D813
:100BB000A24201D9121B00E0A21A019B9A421CD248
:100BC0000192069B0F469A4217D10999A803084340
:100BD000012172028902511A0843B91E08432149B2
:100BE0000862042000F04EF9691C71430098FFF779
:100BF000E3FB00E008E07843C6E7234A491C914242
:100C0000CED9761C212EC1D90B9800280FD01F49B0
:100C100014480162042000F035F91DA0006803901B
:100C20001048016A0013014203D00020ACE71949C3
:100C3000EEE7080301D50C4800E00E488A03A3D470
:100C40000A04920F03AB9B5CCA058904D20DC90E3E
:100C5000891C8008921C59435043FFF7ADFB80006C
:100C600092E700000002005000805101FF1E0AFAC6
:100C7000FFE0F505001BB700800F05FDC08782FE71
:100C8000FF95E7FFBF77CC00010200001844080081
:100C90000102020416400000044982070A6801D0DC
:100CA0009208920002430A60704700000002005060
:100CB00008B511A0006800901048016A00130142B5
:100CC00001D0002008BD080301D50D4800E00D4803
:100CD0008A03F7D40A04920F6B469B5CCA05890409
:100CE000D20DC90E891C8008921C59435043FFF74E
:100CF00063FB800008BD00000102020400020050F6
:100D000000805101001BB70070B502F05BFC2D485C
:100D100041682D4A114041604168032529434160E3
:100D20000120FFF7B9FF012000F0ACF800062749C9
:100D3000000E087009D10420FFF7AEFF102000F06C
:100D4000A1F80021072000F08BF8214800F046F8B8
:100D5000204C08262660304600F094F80120A06060
:100D6000606928436061A168E0018143A160A168D6
:100D70000143A16060690321090688436061052081
:100D80000007416B144A11404163416B03229202F8
:100D900011434163A06804210843A06060690721F2
:100DA000090288436061A0683043A060606909015E
:100DB0008843606105F0B2FA02490020C031086042
:100DC00070BD000040000050FCFCFFFF4D00002003
:100DD000006CDC0200020050F3F3FFF3F8B51E4C88
:100DE0000546E66810201D49064048108D4201D98D
:100DF0000D4602E0854200D20546206804273843AC
:100E00002060102000F03EF820690721084320618F
:100E1000A06900090001A06120688007800F0128F7
:100E20000ED069007804FFF72DFEE6680546102015
:100E300006400121022000F013F8002E06D008E041
:100E400069000020FFF71EFE0546F2E72068B84360
:100E500020606808F8BD00000002005080F0FA022F
:100E600010B5074A93691B091B010B439361116974
:100E7000C908C9000143116105F050FA10BD000016
:100E80000002005010B50749074A05E00B46491E0D
:100E9000002B01DC002010BDD4680346A343F5D12C
:100EA000012010BD80F5200000020050F0B5F74889
:100EB000F7498BB0C37809880891C9B20991F549FF
:100EC000012409780A9101468E79CA79002B15D13F
:100ED0008178491CC9B2817096290FD3EE49C4703C
:100EE0000C704C704C238B704123CB7038230B71EA
:100EF000099B4B710A9B8B71CE710A72837C002116
:100F0000002B09D0437C5B1CDBB243740F2B03D353
:100F10004174FF2303718174E04B1D78002D5CD078
:100F20000021DA48197084744174DD490C70C3786B
:100F3000DC48002B0178079101D1F02928D00F0758
:100F4000D8493F0F0B79069349790491072F04D0B4
:100F5000B34242D1049991423FD107990F2905D05C
:100F60000B09CA490D79AB4237D00B71CD48CE4D34
:100F7000C1780591417880783B0005F077FB102E11
:100F80000C0C1A2E304ABCF12E3A2E2EF02E822E48
:100F9000C148047002E0C0480221017044704C2135
:100FA00081704121C17038210171099941710A99FB
:100FB00068E10A2901D9FF290FD11C280DD8297011
:100FC000EC70002909D0FF2905D0A87000F0F0FAD4
:100FD000287868701AE0687828700BB0F0BD08288F
:100FE000FBD8C107F9D1B1498871B1484C7104707F
:100FF0001EE10329F1D80029EFD00828EDD80A31E5
:1010000029706970EC70A87000F0D2FAA8480470DA
:10101000E3E70B0005F02AFB06050AF315182A047E
:10102000DBE79B49002008809A490BE008990029DA
:10103000D3D00028D1D097490880FE202870EC70CA
:10104000CBE7934908800DE00899914A0029C4D064
:1010500090490880089B984204D2002010800880A4
:10106000FF2000E0FD202870EC70CFE791490028B8
:1010700005D0002008708E480470FC20DEE70C705C
:10108000F9E782480E1F027C87488B4F00783300B7
:1010900005F0ECFA0A06060909090606060606170F
:1010A000884208D00DE088420BD1089B002B08D065
:1010B000059B002B05D1754B002A02D1EC701C74E6
:1010C0003C70784E0A2988D9002886D0884207D0FB
:1010D000297069707648EC700470A87800F068FA9E
:1010E000A978B078814293D0A8707149EC700C70E7
:1010F00000F05EFA71E7654BDF7B1B7B012F9C469E
:10110000624B5B7B08930DD063480221017008217C
:101110004170042181700021C170017161464171EB
:101120008371B0E0594F0023FB734140069B059843
:101130005C4F584041400498814212D0FF202870F3
:101140005548EC7002210170082141700421817022
:101150000021C170017161464171089992E069E016
:101160004EE07F1C002001460497049B5B5C1B0241
:1011700058400023C70B03D0504F4000784000E098
:1011800040005B1CDBB280B2082BF3D3491CC9B210
:101190000429EAD361460B0208993C4F591889B2D9
:1011A0008142CBD16046000901F012FA444E307002
:1011B000387B0007000F01F00BFA7070787B000994
:1011C00001F006FAB070787B0007000F01F000FA1A
:1011D000F0703148082104704170032181700021B2
:1011E000C17001713B7B43717A7B8271BE79C6719C
:1011F000FE790672BB71FA713973797332E717E0C1
:10120000012915D0022900D0E7E62049CC730873E4
:10121000059B4B73204902240C70079D4D708C7008
:101220000024CC700C7148718B71CE710A72D4E6B7
:10123000FB2003E70D23002916D00129E4D116482D
:10124000022101701F494370097881700F49C97AE2
:10125000C170192101711221417118218171572129
:10126000C17143210172B8E60B480221017043703D
:101270004C2181704121C17038210171099941715E
:101280000A4989798171C6710272A6E611000020AF
:1012900042000020440000207800002000000020D0
:1012A0005A0000200B0000202600002050000020E3
:1012B0004B0000204C0000204A00002021100000BC
:1012C000020000204D000020F0B5AA48AA4EC378C5
:1012D000AA48AB49AB4A91B0012B5DD0AB4CAA4BAD
:1012E00025781F886378A4789E46A94B6D1C1B78CF
:1012F0000093EBB29C4673465B1CDBB2641C0D93FF
:10130000E3B20C9333461B785B1CDBB20B93009B60
:101310005B1CDBB20A9303461C78631DDBB20993A6
:101320000B461B78DD1FEDB2089515462D78AE46AD
:10133000AD1FEDB2079525460935EDB20695DD1DC9
:10134000EDB2059575462D1FEDB20495651FEDB202
:1013500003951D460835E41FEDB20295E4B2083B43
:101360007546DBB21094ED1C0193884BEDB2002F53
:1013700064461C703CD0052C0CD300241C707B1ED2
:1013800018277B439FB2834B1B889F4271D98148AA
:101390005B1C038011B0F0BD764B0024DC707B4BEE
:1013A0001C705C709C703470052373700323B370E1
:1013B000794B7A4E1C701D7874556D1CEDB21D7002
:1013C000182DF8D304700C707148147004707448B0
:1013D000754D04706F480480724804802878002896
:1013E00004D1002211461046FFF74EF92C70D1E7C8
:1013F000052CCFD300241C700D9F5F701E2F15D3BA
:101400005C700C9F9F70002F10D09C700B9B3370F2
:10141000052B0BD934705E4B0A9F1F70052F05D921
:101420001C70544F0123FB705D4F3B7036783300C6
:1014300005F01CF90604090E141A20241470099BE7
:101440000370089B0EE00C70079B1370069B0EE068
:101450000470059B0B70049B13700FE01470039BCA
:101460000370029B0B7009E00C701570109B0370E9
:1014700004E01CE00470019B0B701570464B1724B0
:101480001C70454B1D786B00EE18484BF3181C463A
:10149000203CA77F5F70E77F9F70444B647F9C5523
:1014A0006D1E2B063C4C1B0E2370EAD159E0374BC6
:1014B0000D9F5F701E2F15D35C700C9F9F70002FC7
:1014C00010D09C700B9B3370052B0BD93470304BB4
:1014D0000A9F1F70052F05D91C70264F0123FB7032
:1014E0002F4F3B703678330005F0C0F80604090E24
:1014F000141A1F231470099B0370089B0EE00C70D4
:10150000079B1370069B0EE00470059B0B70049BF9
:1015100013700EE01470039B0370029B0B7008E0C5
:101520000C701570109B037003E00470019B0B702E
:101530001570194B17241C70174B1D786B00EE1893
:101540001A4BF3181C46203CA77F5F70E77F9F7003
:10155000164B647F9C556D1E2B060F4C1B0E237083
:10156000EAD10378114883700978417011780170CD
:1015700010E7000026000020F30000202E000020CD
:101580002F0000203000002042000020C100002079
:101590003A000020460000202C00002025010020F9
:1015A00016000020480000204A000020BB01002057
:1015B000F8B50146F94800240078FA26F84D274688
:1015C0000A286FD9F7480C2202700B0005F04EF87C
:1015D0000715487FA4D9F1051400F348610061188C
:1015E000425C6A540A18491953784B70641C92780B
:1015F000E4B28A70102CF1D3F8BD05212046FEF725
:10160000DBFE002908D001290CD0022910D00329C3
:1016100012D0042918D01EE0600020182F54401961
:1016200046700FE0600020182E544019477009E002
:10163000600020182E540BE0600020182F549621D3
:1016400040194170877006E09621600020182954E7
:10165000401946708670641CE4B2102CCDD3F8BDDE
:1016600007212046FEF7A8FE00290CD0012912D040
:10167000022918D0032922D004290CD0052912D020
:10168000062908D016E0600021186E54322049194E
:10169000487088700EE0600020182E544019477082
:1016A000322106E0CEE0600020182E54322140198D
:1016B00041708170641CE4B2102CD1D3F8BD60007D
:1016C000962120182954401946708770F2E7A00728
:1016D00009D0A007800F01280CD0022810D0E043C9
:1016E000800707D013E0600020182E54401947707F
:1016F00087700CE0600020182F544019477005E0F7
:101700006000962120182954401946708670641C88
:10171000E4B2102CDBD3F8BD05212046FEF74CFEC9
:10172000002908D001290ED0022911D0032916D092
:1017300004291AD020E0600020182F544019467068
:101740003221817018E0600020182E54322110E000
:101750006000962120182954401946700BE0600063
:1017600020182E544019477005E0600020182E54B0
:101770009621401941708770641CE4B2102CCBD3C1
:10178000F8BDA00711D0A007800F012812D00228B1
:1017900018D096216000201829544019467087708F
:1017A000641CE4B2102CECD3F8BD600020182F5458
:1017B000F3E70EE0600020182F54401946703221E4
:1017C0008170EDE7600020182F5496214019417078
:1017D000E5E709212046FEF7EFFD002910D0012999
:1017E00013D0022929D0032914D004290DD00529AA
:1017F0001CD0062909D007291FD008290AD010E0DB
:10180000600020182E54322101E0962103E0401997
:10181000417010E0322160002018295440194770AF
:101820008670641CE4B2102CD3D3F8BD600020187D
:101830002F54401946708770F3E7600020182F542A
:101840009621E4E710290BD2480009185648425C5B
:101850002A700818417869708078A87001217DE0AD
:101860001039042003220B0004F000FF0D0915209D
:10187000313A437B85A0ACE6F6F40800D5E72F703B
:1018800032206E70A8709621E9702E716F71AE7162
:10189000E871287221E02F706E70AF70EE702F71BA
:1018A0006F719621A971EE712F72DEE032212E70D8
:1018B0006970AF70EE7096222A716F71AE71E97126
:1018C0002F726E72AF72EA7236490870F8BD9620B8
:1018D00028706E70AE70EF7047E032480270F8BD4D
:1018E0002E706F70AF70EF702E716F71AE71EE7100
:1018F0003FE007212046FEF75FFD002912D00129B5
:1019000009D002290ED0032914D0042903D00529B7
:1019100018D006291DD1600020182E544019477098
:10192000322115E0600021186E54322049194870A8
:1019300088700EE0600096212018295440194670E6
:10194000877006E0600020182E5432214019417043
:101950008170641CE4B2102CCBD3072111480170B4
:10196000F8BD2E706F70AF70EE702E716E71AF712A
:10197000EF712E72B1E72F706E703220A870EE708A
:1019800028716F71AE71EF7196202F726872AE720E
:10199000EF722E736873AF730521DFE72600002016
:1019A000910000202A000020D06700002F706E7088
:1019B000AF70EF702E71322068719620A871EE71B1
:1019C0002F728AE709212046FEF7F6FC002910D085
:1019D000012913D002292AD0032914D004290DD0BB
:1019E00005291DD0062909D0072920D008290AD0A9
:1019F00010E0600020182E54322101E0962103E00F
:101A00004019417011E0322160002018295440191A
:101A100047708670641CE4B2102CD3D309219DE773
:101A2000600020182F54401946708770F2E760005C
:101A300020182F549621E3E72E706F70AF70EE7070
:101A4000322129716F71AE719621E9712F726E7218
:101A5000AE720DE00EE0FFE72F706F70AE70EF70AA
:101A60002E716F71AF71EE712E726E723221A9728A
:101A7000EF7229E7084861006118425C6A540A184D
:101A8000491953784B70641C9278E4B28A700C2C1C
:101A9000F1D30C2018E70000D0670000F0B52D4806
:101AA0002D4A84790123002C05D04679851E00211A
:101AB000012E0BD016E028482038016A890104D590
:101AC000016A8402A14301629360F0BD41714170DB
:101AD0008170C1700171298016680127BF073E43DC
:101AE000166093609668F607F60FEED093602A882A
:101AF0001A4E521C92B22A80B24201D32980F0BD04
:101B00008278521CD2B282703C2A0ED38170C27885
:101B1000521CD2B2C2703C2A07D3C1700279521C47
:101B2000D2B20271182A00D301714278002AE6D19C
:101B30008278002AE3D1C278002AE0D10279002A13
:101B400005D0A242DBD102220270C171F0BD037048
:101B5000C371F0BD5000002020000140983A000001
:101B600030B5154A154800211368435493695B0446
:101B700003D4491CC9B21029F6D302240125104B05
:101B8000022906D0072910D05C709068204390602D
:101B900030BD0178FD2906D14178F02903D1807844
:101BA00007E05D7030BD5C7030BD0178FD29FAD171
:101BB000C079FE28F7D1F4E700000540810000203D
:101BC0000000002030B5124A00205478002C1DD0AF
:101BD0000021104B012C07D0022C17D11954401CA6
:101BE000C0B21028FAD310E001241470084C0B3452
:101BF0001D186D782554401CC0B20628F8D300206B
:101C00001954401CC0B21028FAD3517030BD0000E6
:101C1000000000208100002010B5204A0020147828
:101C2000002C13D01E49012C11D00023032C22D0EC
:101C3000022C0BD1FD240C60141864780C60401C3D
:101C4000C0B20828F8D3FE200860137010BDFC2332
:101C50000B604C230B6041230B6038230B60114C4D
:101C6000235C0B60401CC0B20428F9D3FE2008603E
:101C70000220107010BD1370FA220A600B600B6016
:101C80000F220A60074B1B1D1A5C0A60401CC0B281
:101C90000528F9D3FE20086010BD00007800002060
:101CA000000005400200002010B50D490B78002B04
:101CB0000ED0002201240B48012B02D0022B04D0AD
:101CC00006E00A704178017001E00A700270C47089
:101CD00000F0B6FF04F0F2FAFFF7E8F810BD0000DC
:101CE0005000002026000020F0B5284B284DD87861
:101CF0000024012805D02878032819D2401C287018
:101D0000F0BD2448DC700470234E244F0022347050
:101D10003C7011461046FEF7B7FC21482C70047049
:101D20001C48FF21017034701E483C700480F0BDD7
:101D3000002028701C4C17201C492070C5B2680078
:101D40002E1870180246203AD77F8770977F477009
:101D5000507F88556D1E2806000E2070EED10D486C
:101D6000007888700C48007848700C48007808703B
:101D70000C480188491C89B201801829D7D9002153
:101D80000180587818700120D870F0BD260000201E
:101D9000360000202E0000202F0000203000002000
:101DA000F3000020480000202C000020BB01002090
:101DB0000A492222CA604860012008610869C007F8
:101DC000FCD10868400606D5086840221043086028
:101DD0000020C043704700207047000000C0005042
:101DE00002480168012211430160704700C00050A1
:101DF00005490022CA604860012008610869C007DF
:101E0000FCD188687047000000C00050054A2123BB
:101E1000D36050609160012010611069C007FCD14F
:101E20007047000000C0005010B50124240501F0E7
:101E3000BBFBFFF7D5FF224908682022104308604A
:101E40002046FFF7D5FF1F4C60701F48FFF7D0FFFB
:101E5000A0701D48001DFFF7CBFF1C4988711A4870
:101E60000830FFF7C5FF1A49087017480C30FFF714
:101E7000BFFF1849C0B2088013481030FFF7B8FF01
:101E80001549C0B2088010481430FFF7B1FF13495C
:101E900008700D481830FFF7ABFF114908700A4869
:101EA0001C30FFF7A5FF0F49087007482030FFF7E7
:101EB0009FFF0D4908700D490020086010BD00000B
:101EC00000C0005026000020040010005000002038
:101ED0004C00002042000020440000201900002097
:101EE00017000020180000201B00002000010050F7
:101EF00070B52748012401782405012947D1002520
:101F0000057001F051FBFFF76BFF224801682022AA
:101F1000114301602046FFF74BFF1F4E20467178AA
:101F2000FFF774FF201DB178FFF770FF1C491B48B5
:101F30008979FFF76BFF19481A49001D0978FFF7E7
:101F400065FF1648184908300988FFF75FFF1348F6
:101F500016490C300988FFF759FF10481449103012
:101F60000978FFF753FF0D48124914300978FFF73D
:101F70004DFF0A48104918300978FFF747FF074816
:101F80000E491C300978FFF741FF0D48056070BD10
:101F90004B00002000C00050260000200800100068
:101FA000500000204C00002042000020440000208F
:101FB0001A00002017000020180000201B0000203D
:101FC00000010050F0B5FE48FE4FC178FF48FE4CBE
:101FD00000888BB0012909D000286CD0FC490A7810
:101FE000082A7DD2521C0A700BB0F0BD0025F449BE
:101FF0000028CD7004D0F7480078002828D02CE0C5
:10200000002211461046FEF73FFBF348F34CF44E16
:1020100005702088411C2180FEF7B0F9208811301E
:102020002080FEF7B7F8C0B21E21FEF7C5F9EA4AD4
:1020300010783154EB493D540D54401CC0B210701F
:102040001828E6D3E24832210170E74805702FE0F6
:10205000002211461046FEF717FBDD483D70057063
:10206000E24832210580E2480580E2480570E248F6
:102070000570E24825700570E148E34C0570E148C1
:1020800005702078FEF798F981004018DF49087044
:1020900060783221FEF790F981004018DC49087021
:1020A000A0783221FEF788F981004018D9490870DC
:1020B000C848057098E7C84D00202870D6480178B8
:1020C00028780446FEF778F9CE48CF4E01704800D4
:1020D0000F18F05D32210090FEF76EF9014600E026
:1020E000C6E0CA48BE19017005917078322104908B
:1020F000FEF762F9C64908700790B0783221039064
:10210000FEF75AF9C349AF4E08700746305D002804
:1021100017D0012855D002285FD0B248B04A015DDF
:10212000491CC9B20155125D914249D9002101559E
:102130006000BA4A2118881883789C46002B70D119
:1021400069E0A848A64A015D491CC9B20155125D63
:10215000914235D90021015505210098FEF72CF94F
:10216000014660002218AD4808921018029080784D
:102170000090814211D805210498FEF71DF901460F
:1021800002984078814208D805210398FEF714F997
:10219000A24A0899515C884210D9059A00999F4833
:1021A0008918029A917002994A7807995118029AEF
:1021B00051700899089A415CC9192AE001203055EC
:1021C0004EE0600022189548009B11188B70049B0C
:1021D0004B70039981540220F1E782497C4A085DE3
:1021E000401CC0B208551278904239D900200855D9
:1021F00003203055794C2088FEF7C0F82088113034
:102200002080FDF7C7FFC0B20A21FEF7D5F8744859
:102210002A78815424E04378002B02D1535C002BB0
:102220000BD0059C63461B1B83704478079BE31A05
:102230004370505CC01B505412E000273755674C68
:102240002088FEF79BF8208811302080FDF7A2FF40
:10225000C0B21E21FEF7B0F8614A287811543754F5
:102260002878401CC0B22870182800D226E7BBE6A8
:1022700000220A706A49554B0E880C214E431821E2
:102280004843089059491D88098818234A1C6D1E27
:102290005D4392B2864201D3331A02E0B54205DBB8
:1022A000AB1B52488B4201DD02809DE645485349F5
:1022B00007785648534B0078002F844654480078DE
:1022C00006905448007805900A783F484C490078B9
:1022D00009781B7802D0012F63D11AE05F00DB1967
:1022E000494FFF5C874207D8474FDF197B789342FD
:1022F00002D8BB788B4209D960442070069B3F48C6
:10230000D2180270059A3E48891810E02D49012024
:1023100046E0074617430F430BD06346C01A2070B0
:10232000069B3648D21A0270059A3548891A017000
:1023300037E02448002101705B1C3248DAB2364B8A
:1023400002701B789A420DD32A4B01701A78521CE6
:10235000D2B21A70052A05D91970194A0121D17013
:10236000254A11700078284F410040180290385CCF
:102370003221FEF721F881004018244908700298A4
:102380003221C7197878FEF717F8810040182049E4
:102390000870B8783221FEF70FF8810040181D4907
:1023A0000870089886424FD30B4800211B4A0170E1
:1023B000CBB259005D18A9184E798E700E7931E0B4
:1023C00026000020F30000202E0000204200002004
:1023D000360000204A0000202C00002024000020AD
:1023E00025010020C10000202D0000204600002013
:1023F000480000203A000020160000202F00002096
:102400003000002035000020910000203200002024
:1024100033000020340000202A000020BB010020EF
:10242000440000204E70C97851555B1CD9B2017030
:102430001729BDD32D482178C1712D4909788171A3
:102440002C4909784171CFE51727B5421DDB2A4B8E
:1024500026481F7040381D7869006E1831180A46EA
:10246000203AD77F8F70977F4F70517F81556D1EB7
:102470002906090E1970EED1217881701C4909785E
:1024800041701C4909780170AEE51B4800210170BC
:102490001649403903785A009D186A185679967083
:1024A00016795670D2784A555B1CDAB202700B2A44
:1024B000F0D3077005786A00AE1872181346203BF7
:1024C000DF7F97709F7F57705A7F8A556D1EEAB2E3
:1024D00002700B2AEED8054821782038C1700449D3
:1024E000097881700349097841707DE5FB0100207E
:1024F0002F000020300000202C000020F0B5002329
:102500000125944603272A469A400A4209D00668C4
:102510005C003A46A24096432246644694402643D5
:1025200006605B1C082BEED3F0BD0000F0B5184828
:10253000184BC778184A194D0024194E1949012F14
:1025400005D02F78082F0ED27F1C2F70F0BDC470DD
:102550001C700C701470002211461046FEF794F89F
:102560002C703470F0BD2C703578EF0700D1FF244B
:102570000C706D1CECB23470052C03D944780470D7
:102580000124C470127809781878FEF77DF8F0BD40
:10259000260000202E000020300000203600002001
:1025A000F30000202F000020044603A0FDF724FEC6
:1025B000204604F0B9F8FEE7496E204861726420B5
:1025C0004661756C742048616E646C65720A000027
:1025D0000F2801D90007000F0A2801D2303000E08F
:1025E0003730C0B270470000F0B53B4B3B4DD87858
:1025F0003B4E0024012805D0287803281BD2401C1C
:102600002870F0BD3748DC700470374F37483C7095
:102610000022047011461046FEF736F834482C703C
:1026200004703448348004802E49FF2008702F48FD
:102630003C700470F0BD002028702F480088401EB8
:1026400081B2182041433088814202D9401C308039
:10265000F0BD2A4C17202A492070C5B268002E18F8
:1026600070180246203AD77F8770977F4770507F57
:1026700088556D1E2806000E2070EED1194A1A4C9E
:10268000107888702078194D48702878087019499A
:102690001C4E08881827401C80B2088036887E436C
:1026A0008642D5D200200880114901260F78002FDC
:1026B00005D0012F09D058781870DE70F0BD107069
:1026C000FF22227028700E70F0BD10702070FF2065
:1026D000287002200870F0BD26000020360000207F
:1026E000460000202E0000202F0000203000002097
:1026F000F300002048000020420000202C000020B1
:10270000BB01002044000020F8B59348944DC178E7
:1027100092480026934C944F012905D0017808294E
:1027200042D2491C0170F8BD8B49CE708F490E70A2
:1027300006708F4806708F4806708F4806708F4865
:102740000670267020783E54401CC0B220701828B5
:10275000F8D38B480178002918D00670894C3221B3
:102760002078FDF729FE8849087060783221FDF74E
:1027700023FE86490870A0783221FDF71DFE8449AA
:1027800008708448067084480670F8BD267020786A
:102790004100421851198E70401C4E70C0B2AE54A8
:1027A00020701828F3D3D9E706707C480278734864
:1027B0000078411CC9B2012A50D018287ED278492D
:1027C0000888113080B20880FDF7D8FDFDF7E2FCE3
:1027D000C0B21821FDF7F0FD72480170785C012845
:1027E000EDD07048012100783954624943000A78DD
:1027F000C01851005118634A4319525C9A70614ADB
:1028000089184A785A70897829545C480178491C9B
:1028100001705A4801783229B7D3067055485F4A8B
:102820000178491CC9B20170127891420DD306702B
:1028300059480178491CC9B20170052905D90670AB
:1028400045490120C87053490870267020783E54CD
:10285000401CC0B220701828F8D3F8BD434A127843
:10286000002A03D0A878002848D141E018283DD29A
:102870004B490888113080B20880FDF77FFDFDF7D5
:1028800089FCC0B21821FDF797FD46480170785CBD
:102890000128EDD0434801210078395435494300DF
:1028A0000978C0184A008918364A4319525C9A7050
:1028B000344A89184A785A70897800E04AE02954E5
:1028C0002E480178491C01702C4801783229C4D364
:1028D000067026480178491C0170267020783E5405
:1028E000401CC0B220701828F8D3F8BD2348EAE78E
:1028F0006878002802D1287800281BD02670244848
:10290000214A2249007813780E78844622785000B4
:10291000111848198778521CFF1A87704778BF1B17
:102920004770685C6746C01B6854D0B22070182896
:10293000ECD3F8BD0D48067017480178491CC9B2A0
:1029400001700A29F5D90670124901200870024960
:10295000C870F8BD09485BE726000020360000205B
:10296000BB0100202B00002089010020F300002083
:102970002D00002035000020250100203B00002014
:102980004A00002091000020320000203300002087
:1029900034000020160000203A0000202A00002009
:1029A000240000202C00002010B53148018811318E
:1029B0000180811C087809283BD008DC030003F063
:1029C00055FE091D202326292C2F32351A00FB28FD
:1029D0003ED008DC0A282FD00B2830D00C2831D06C
:1029E0000D2808D131E0FC283BD0FD2833D0FE284B
:1029F0003AD0FF2832D00A20087010BDFDF754FEEF
:102A000010BD03F027FC10BDFDF70EFF10BD03F055
:102A100049FB10BDFFF778FE10BD00F0E1FD10BDD1
:102A200000F0E0FB10BD00F0F1FA10BDFFF7CAFAAC
:102A300010BD00F027F910BDFEF746FC10BD00F0F8
:102A4000D5FE10BD01F0A4FB10BD02F007FB10BDC8
:102A5000FDF7D2FF10BDFFF769FD10BD00F098FA39
:102A600010BDFFF741F910BDFFF7BEFD10BD00001E
:102A700024000020F0B53D48002104783C48012C9A
:102A800018D018214A008B183A4A00249B18DB1EE4
:102A90001E7800225B1CF50945D00125056109253A
:102AA0002F466D1EEDB2002FFAD100BF00BF00BF50
:102AB00000BF3FE04A008B182E4A9E18002335784D
:102AC0000022761CEC090CD001240461092427465D
:102AD000641EE4B2002FFAD100BF00BF00BF00BFE8
:102AE00006E0012404612746641EE4B2002FFAD1F7
:102AF00000BF00BF00BF00BF0024046118242746A8
:102B0000641EE4B2002FFAD16C06521C250ED2B21C
:102B1000082AD7D35B1CDBB2032BD0D3491CC9B224
:102B20001829C7D3F0BD012505612F466D1EEDB2F2
:102B3000002FFAD100BF00BF00BF00BF0025056114
:102B400018252F466D1EEDB2002FFAD17506521CC6
:102B50002E0ED2B2082A9ED3641CE4B2032C97D363
:102B6000491E0906090E8DD1F0BD00004C00002061
:102B700040420050BB01002070B5FEF7C5F800F0E0
:102B800021FD032125480902016001680222114349
:102B900001600124446001688022114301602048E3
:102BA00000250560032210211E48FFF7A7FC1D48E1
:102BB000012240214038FFF7A1FC1A4801221021D0
:102BC0004030FFF79BFC1848056117484038846186
:102BD000164C1E21204603F08BFC60681021084330
:102BE00060600802124908604B21C901204603F0C9
:102BF0003DFC104C01213222C906204603F00AFC9C
:102C00002168A003014321600B4921620B496162E5
:102C1000084920310A6802430A6070BD0040004044
:102C2000000100504040005040420050000005406C
:102C300000E100E000000140FF0000081BB70000B9
:102C40000E480021027A002A0BD0827B521CD2B29D
:102C50008273FA2A05D381730172094B41720122F2
:102C60001A70C27B002A07D00278521CD2B20270BE
:102C7000FA2A00D3C1737047017070471100002019
:102C80004B000020F0B5B348B34AC378B349B44809
:102C900000248AB0012B06D01378052B24D25B1CAC
:102CA00013700AB0F0BDAB4BAE4DDC702B785B1CE3
:102CB0002B70AD4BFF251C70AC4B1D7004700C705D
:102CC000AB4814700480AB48AD4D0480AA48047032
:102CD000AA4804702878002804D100221146104622
:102CE000FDF7D2FC2C70DCE700231370A54A138893
:102CF000A14A1278521CD2B204929B4A002B167839
:102D0000964A1578994A1478954A12780BD0182764
:102D10005B1E7B439FB2964B1B889F427ED9944893
:102D20005B1C0380BDE78E4B8F4F1B7806935B1CAB
:102D3000DBB207938D4B1B789E465B1EDBB209937B
:102D4000864B1B789C465B1CDBB20893069B5B1E84
:102D5000DBB2069373465B1CDBB2039363465B1ED8
:102D6000DBB20593330003F081FC0B070D141A212D
:102D7000293034393D414700FF2A01D2079A11E03A
:102D8000012237E0794A002C01D0099B12E002228F
:102D900030E0FF2D01D2089A13E003222AE0002A36
:102DA00002D0069A027035E0042223E06F4AFF2C1D
:102DB00002D2039B13702DE005221BE0002D02D0F0
:102DC000059A0A7026E0062214E0FF2DE3D30722BD
:102DD00010E0664A002CD8D108220BE0FF2ACDD3A0
:102DE000092207E0002DEBD10A2203E05F4AFF2C05
:102DF000DFD30B223A700DE0002AD2D13A705E4C3C
:102E0000049B2370052B05D92270524B0122DA70E6
:102E10005A4B1A700A780178544800E003E00078B1
:102E2000FDF732FC3DE74E4B4F4F1B7806930F33B7
:102E3000DBB209934D4B1B789E460F3BDBB20893E8
:102E4000464B1B789C460F33DBB20793069B0F3B28
:102E5000DBB2069373460F33DBB2059363460F3B39
:102E6000DBB20393330003F001FC0B070D141A21AE
:102E7000293034393D414700FF2A01D2099A11E037
:102E8000012237E0394A002C01D0089B12E00222CF
:102E900030E0FF2D01D2079A13E003222AE0002A36
:102EA00002D0069A027036E0042223E02F4AFF2C5B
:102EB00002D2059B13702EE005221BE0002D02D0EC
:102EC000039A0A7027E0062214E0FF2DE3D30722BD
:102ED00010E0264A002CD8D108220BE0FF2ACDD3DF
:102EE000092207E0002DEBD10A2203E01F4AFF2C44
:102EF000DFD30B223A700EE0002AD2D100233B70C0
:102F00001D4A049C1470052C05D91370114B012225
:102F1000DA701A4B1A701C4A172313701B4B1A4A8B
:102F200015786A00AE18F2181446203CE77F9770B7
:102F3000A77F5770627F9A556D1E2A06124C120E9B
:102F40002270ECD1094A12789A700078587008788B
:102F50001870A6E626000020360000203000002071
:102F60002F000020C1000020F30000202E000020D0
:102F700046000020480000203A00002016000020F3
:102F80004A000020420000202C000020BB0100204D
:102F9000F0B518481849C778184A194D0024194E39
:102FA000194B012F05D02F78082F0ED27F1C2F70C0
:102FB000F0BDC4701C700C701470002211461046D5
:102FC000FDF762FB2C703470F0BD2C703578EF0784
:102FD00000D1FF241C706D1CECB23470052C03D999
:102FE000447804700124C470127809781878FDF7C9
:102FF0004BFBF0BD260000202F00002030000020F9
:1030000036000020F30000202E000020F8B5604AB2
:10301000604ED1786048614C0025012906D0604996
:103020000B78082B41D25B1C0B70F8BD5D49D57045
:103030005D4B5E4F0D700878574A1D5415545C4A1D
:103040003D541554401CC0B208701828F3D354489E
:10305000322105705748257005703078FDF7ACF9BE
:103060005549087070783221FDF7A6F95349087068
:10307000B0783221FDF7A0F95149524C0870207800
:10308000002804D1002211461046FDF7FDFA4E48F3
:103090000088002807D04D4805804D4805804D48E0
:1030A00005704D4805702570F8BD0D7046490988BA
:1030B00000290AD01823491E59438FB243490B886F
:1030C0009F4202D95B1C0B80F8BD3449037801276D
:1030D0000978002B02D0012B37D105E0322901D22B
:1030E000491D04E0077030E0052902D9491F21700D
:1030F0002BE005702F48394B0178491CC9B201708B
:103100001B7899420BD3334905700B785B1CDBB2FB
:103110000B70052B03D90D70D7702F4A17700078EC
:1031200041004518705D3221FDF746F92249AD197D
:10313000087068783221FDF73FF920490870A878B7
:103140003221FDF739F91E490870164B1720244922
:103150001870C5B268002E1870180246203AD77F42
:103160008770977F4770507F88556D1E2806000E28
:103170001870EED110480278207842438A700F4AC6
:10318000127842434A700E4A127842430A70F8BDE0
:103190002600002091000020F300002031000020D4
:1031A000360000202C000020C10000202501002056
:1031B000570100203500002032000020330000209D
:1031C000340000204A000020420000204600002079
:1031D000480000203A000020160000202A000020AD
:1031E000BB010020FEB5DB49D9480F88DA49C07819
:1031F0000C78DA4901288E784D780A780FD0D848B3
:103200000078411CC9B28C46D649002F0B787DD07E
:10321000D34906287BD2084661460170FEBDCC49E1
:103220000020C87032211046FDF7C6F8CE4908705C
:10323000029032212846FDF7BFF8CC490870019072
:1032400032213046FDF7B8F8C949002F08700090C8
:1032500011D0C84900200870C749CC4E0880C74922
:103260000880C7494870C7490870C7490870317855
:10327000002932D046E0C64D0020C64E2870C0B2AC
:1032800021460746FDF798F8BA48012C017001D194
:10329000F80713D048000A18B048835C7800391842
:1032A00088198370AD4BD21853784370907870545E
:1032B0007F1CF8B228701828E1D324E002980A2174
:1032C000484379007B189919887001980A22504365
:1032D000487000985043F054EAE7AD49AD4A087091
:1032E0000B785C001C19A518A8705B1C6870DBB219
:1032F00010550B70182BF3D3A7490870A749087015
:10330000A749087030700020954901E009E059E0B4
:10331000087094490870487088709A4908709B49F1
:10332000C2E08F4F282802D261463970FEBD0021CD
:103330003970012C0AD0974897494030C2790A70F9
:10334000964982790A70417995481CE08548002B9E
:1033500006D0914B1A70914A1570914A167012E07E
:1033600081491422097851438B4A11707F491422F4
:1033700009785143894A11707D49142209785143D3
:10338000874A117001210170814B17201870814804
:103390001C78610065182A1811462039CE7F967076
:1033A0008E7F5670497F4155641E2106090E1970A3
:1033B000EED1794909788170784909784170784966
:1033C00009782AE70020087018207F1E47436A48C2
:1033D000BFB201888F4202D9491C0180FEBD6C48F2
:1033E000172101706A4800788446410040186949F5
:1033F000864641180F46203F3846FF7F8F70877FF3
:103400004F70477F634970460F546046401E000668
:103410005F49000E0870E5D15F4F5E4839788170D2
:103420005E49097841705E49097801705548017814
:103430004C48491C4078C9B2401CC0B2012C35D060
:103440004C4A1678721CD5B27200B218434E9619C7
:10345000002B54D0012BC1D1404B06289B5C3B7004
:103460004E4A737813704E4AB37813703D4A5070C9
:10347000B4D900203F4B50701D70A542AED3404CD4
:10348000187025786D1CEDB22570032DA6D920701B
:10349000107092781A703B4A052911709ED91070ED
:1034A0002B490120C87038490870FEBD2D4C002BF7
:1034B00006D00020394938700870394908701CE07E
:1034C0003A70364A1570364A16702D4A6070537835
:1034D0009842EAD900205B1CDBB260705370162B57
:1034E0000AD95070274A0529117005D9107018495A
:1034F0000120C8702449087001202070FEBD1749C2
:10350000284B8A5C3A70254972780A702449B2784F
:103510000A701A4A18261188491C89B211801B8822
:1035200073438B42EAD200211180124AA5421570E2
:1035300000D311700B4B02285870DFD959701078E6
:103540009870012018700E4801701170FEBD0000C7
:1035500026000020420000202A00002091000020C8
:1035600036000020F300002032000020330000204D
:1035700034000020350000204600002048000020D4
:10358000250100203A000020160000204A000020FB
:103590002C000020BB0100202E0000202F00002066
:1035A000300000204400002010B5592104481622A4
:1035B00088230160026003600468002CF9D010BD0C
:1035C0000001005010B559210448162288230160DB
:1035D000026003600468002CF9D010BD00010050A7
:1035E000F8B56748674EC078674F0024012805D0BA
:1035F000307805283BD2401C3070F8BD60486449E3
:10360000C4706248047002785300D3185D18AC701F
:10361000521C6C70D2B2CC540270182AF3D35D489D
:10362000624D04705C483C7004705C4834700470F7
:103630005B48322104705B4804705B480470287852
:10364000FCF7BAFE5A49087068783221FCF7B4FEDC
:1036500058490870A8783221FCF7AEFE5649087028
:10366000564804705648047056480470F8BD00204F
:10367000307045484B4905784D484B4A06784D48CF
:10368000454C07784C48097803784548127800780B
:103690002478002D04D0012D1FD0022D67D128E001
:1036A00065006519414C645D844207D83F4C2C1974
:1036B00065788D4202D8A478944208D9384C801994
:1036C00020703848C91901703748D1181DE02E48BC
:1036D000012101700021314817E030480178491C70
:1036E000C9B20170322942D300210170264802215B
:1036F0000BE005460D43154309D0294C801B207073
:103700002848C91B01702848D11A01702FE01E48B3
:10371000002101702048641CE2B22B4B02701B7820
:103720009A420DD3264A017013785B1CDBB21370EA
:10373000052B05D91170124A0121D1701F4A117051
:1037400000781A4C41004518605D3221FCF734FEC8
:1037500017492C19087060783221FCF72DFE1549A5
:103760000870A0783221FCF727FE134908700E4834
:1037700002780C4801780A480078FCF785FFF8BD0C
:103780002600002036000020F30000202C0000203E
:10379000BB010020C10000203500002025010020D1
:1037A0002E0000202F00002030000020910000207B
:1037B00032000020330000203400002016000020DA
:1037C0003A0000204A0000202A00002006498A69A9
:1037D0001202FCD408600A2804D188690002FCD4D3
:1037E0000D2008607047000000000540F8B5254E28
:1037F0000021F078244F254B254C012813D0208838
:10380000244D401C82B201202280012A15D014468A
:10381000FF3CCD3C05D005246402A24210D1022118
:103820000BE018700AE0F1702180197000223970E5
:1038300011461046FCF728FFF8BD197028700BE000
:10384000154CA24201D10321F7E7144D104CAA42B6
:1038500002D12180F07038701878002808D0012833
:1038600009D002280AD00328E6D100F0FFFAF8BDFB
:1038700000F016F8F8BD00F0C1F8F8BD00F02CFA21
:10388000F8BD0000260000201600002038000020AF
:103890003E00002039000020840D0000941100003B
:1038A000FEB54948494D01780024494E012905D00B
:1038B0002878022817D2401C2870FEBD0022047010
:1038C00011461046FCF7E0FE42482C700470424856
:1038D00004704248047042480470424804704248F0
:1038E00034700470FEBD00202870394801783C48CF
:1038F0000078401CC4B2374800290778364806785B
:10390000364805783748007802D0012953D133E092
:103910004100401835490090085C1921FCF74CFD26
:1039200001463348017001913049009840180290D7
:1039300040781921FCF740FD01462E4801700091A6
:10394000029819218078FCF737FD2B49214A08702D
:10395000019928187918117000991F4A711811706F
:103960001E49192C08701E48047024D300210170D0
:103970001748012101701EE01D4A16491278BA1A33
:103980000A701C4A14491278B21A0A701A4A13496A
:103990001278AA1A0A701249192C0C700BD3002243
:1039A0000A700B49401C0A700E4AC0B210700228FF
:1039B00001D90220087009480278074801780548B3
:1039C0000078FCF761FEFEBD3900002036000020C3
:1039D000400000202E0000202F000020300000209A
:1039E0002B000020350000203B000020910000202B
:1039F000320000203300002034000020F0B5A6483B
:103A0000A64C017885B0012920D02778A4487A1CDB
:103A10000078D5B2401CA44AC6B2A24813780078F8
:103A20005A1CD2B20192A14A411C127800925A004B
:103A30009A189F4B0292D218C9B23B0002F016FEB0
:103A400009205E9ED69ED69ED6FDFC000025057000
:103A50002A4629462846FCF717FE9148964A0570E3
:103A600094482570057001785554491CC9B20170FD
:103A70003229F8D3914805708A48057005B0F0BD29
:103A8000874A052E1670F9D30023864D1370182827
:103A90002AD2894F8A4E8B490888113080B208801B
:103AA000FCF76CFCFCF776FBC0B21821FCF784FC39
:103AB0003170785C0128EED03078012139548108CA
:103AC000794A460011704A008A18794987197E4858
:103AD0008B5C3E18B37051184A7872708978C15562
:103AE0002878401C287000E0297028783228C5D337
:103AF00020787249401C2070002075E068480A2E2A
:103B00000670BBD3002101706F48704A4030C17904
:103B1000117001916E4A81791170009140796D495F
:103B200084460870664817210170674864490B781D
:103B300059005E1831180A46203AD77F8F70977F58
:103B40004F70517F81555B1E19065D4A090E117039
:103B5000ECD101998170009941706146017057481C
:103B60000178491CC9B20170502987D30021017026
:103B70004C48257001704C4801707FE7484F142E67
:103B80003E70FAD300233B70082859D24C4B0026D4
:103B90001E704B4B1B789C46DB001B18182B0DD25C
:103BA000434E029FF75D5E009E19474BB646F618DE
:103BB000B77057787770977876469F556646761C2B
:103BC0003F4BF6B21E70032EE3D339E03549087837
:103BD0000828D2D325703448019A0270009B9A427B
:103BE00001D3002202700020087047E72C4F142EEA
:103BF0003E70C2D300233B70082821D229480170AF
:103C00002F4803702A4B029E9B5D039353780293C7
:103C1000927894460378039EDF007F1A7A00BF18DB
:103C2000294A5B1CBF18BE76029E7E766646DAB2D3
:103C30003E760270032A01E02AE004E0EAD3C5E7F9
:103C400018480170C2E7164B0A2E1E7095D3002249
:103C50001A70082814D21A4B1A701B4B184E36785B
:103C6000B446F60036187700F619F718BA707A706D
:103C70009A556646761CF6B2114F032E3E70EDD370
:103C80000848017001780829AFD325700270F5E665
:103C9000FF202070F2E600003900002040000020E4
:103CA000360000203B000020350000202A000020C4
:103CB000910000202B000020890100203700002007
:103CC0002C00002024000020BB0100202E0000203A
:103CD0002F00002030000020FEB55948594E0178D1
:103CE000594C01293FD0304605782046019500788F
:103CF0005649401CC3B256480278501CC0B2844694
:103D0000087856009219554E0092864651495248FD
:103D10009219052D237036D3082B23D3002323704B
:103D200017230B70DDB26B00EE1833181C46203CD5
:103D3000E77F9F70A77F5F70637F83556D1E2B06A3
:103D40001B0E0B70EED1454B009C41491B5D8370EF
:103D5000537843709278027060460870F44501D33E
:103D600000200870FEBD002505702A462946284619
:103D7000FCF78AFC3A4825700570354805703948CB
:103D800005703570FEBD082B46D3002323700B232E
:103D90000B70DDB22E4606235D432B181C46203CDB
:103DA000277F9F70E77E5F70A37E4355761E3306A4
:103DB0001B0E0B70EDD1294B009C254E1B5D8370B3
:103DC000537843709378037000270C78062363437D
:103DD0001B18DD7A5D719D7A1D715D7ADD70641C42
:103DE000E3B20B700B2BF0D31B48D1784030C1717C
:103DF00011798171517941711A480178491CC9B210
:103E00000170062908D3077072466046521E394673
:103E10003070944500DB317013480178491CC9B2F9
:103E200001706429AED3002101700198054A401C3D
:103E3000C0B210700528A5D30A480170FEBD00006D
:103E40003900002037000020360000202A00002022
:103E5000350000202C000020BB0100209100002034
:103E6000400000203B0000203C000020FEB5B5488B
:103E7000B54D0178002401291AD0B448B54903781A
:103E8000B348B54AB54E2F7800780978127836785D
:103E90000296B34E5B1C36780196B24E3678009689
:103EA000DEB23B0002F0E2FB052A6FADCAF96E00FC
:103EB0000022047011461046FCF7E6FBA3481921C6
:103EC0000470A9480470A94804702C70A84D287883
:103ED000FCF772FA9E49087068781921FCF76CFAB1
:103EE0009C490870A8781921FCF766FA9A4908706D
:103EF0009A4804709A4804709A48CBE0934B082E75
:103F00001E703FD31C70029E944B3018C0B21870C4
:103F1000019E934B7118C9B21970009F914BBA184A
:103F2000D2B28D4E1A70FCF7AFFB8F480178491C56
:103F3000C9B201700A2925D9047028788E4A401C1C
:103F400028708C48047089480178491CC9B20170F6
:103F50001278914200D304700078854C41004518D6
:103F6000605D1921FCF728FA79492C1908706078EE
:103F70001921FCF721FA77490870A0781921FCF77C
:103F80001BFA3070FEBD0301181A744BC0B21870D2
:103F90000B01591A724BC9B2197013019A1A714B5D
:103FA000D2B26C4E6C4F1A70FCF76EFB7148017800
:103FB000491CC9B201702829E4D9047028786E4AD6
:103FC000401C287069480178491CC9B201701278F8
:103FD000914200D304700078654C41004518605D43
:103FE0001921FCF7E9F95A492C1908706078192150
:103FF000FCF7E2F93070A0781921FCF7DDF9387090
:10400000FEBD5A48554B017848000A185849885C4B
:1040100018705218524B51781970524B92781A708E
:10402000FCF732FB53480178491CC9B20170502992
:10403000E6D904702878401C287080E0434B062E97
:104040001E70DDD31C70029E444B301AC0B2187033
:10405000019E434B711AC9B21970009E414BB21AAE
:10406000D2B21A70FCF710FB3F480178491CC9B264
:1040700001700F29C4D904702978404A491C29705D
:104080003C490C7001785454491CC9B20170322962
:10409000F8D33B480470FEBDFFE72C48052E0670A0
:1040A000F9D3047036480078182822D2354F364E9E
:1040B0003888113080B23880FCF760F9FCF76AF874
:1040C000C0B21821FCF778F92C483170405C012807
:1040D000EED02A49307801220A54410040182B4979
:1040E0004218947054700C5425480178491C017092
:1040F00002E02349401C0870214800783228CAD3C6
:1041000016482C7004701648194D04701548047038
:104110001648007841004618A85D1921FCF74CF9B3
:104120000B497519087068781921FCF745F9094998
:104130000870A8781921FCF73FF9074908700A4868
:10414000A8E70000390000204000002036000020D1
:104150003200002033000020340000202E00002018
:104160002F000020300000202B0000203500002010
:10417000910000203C0000202A000020890100203E
:104180003B000020240000202C000020BB01002068
:10419000F8B5294F0024F878284D294A294B0128E1
:1041A0000DD01888284E401C81B2012019800129A9
:1041B0000FD0CD23DB0099420DD110701AE0FC70B6
:1041C0001C801470002211461046FCF75DFA2C701A
:1041D000F8BD14700EE01D4B994201D1022108E098
:1041E0001B4B994201D1032103E01A4B994203D1A1
:1041F00004211170307006E0174E124BB14202D10B
:104200001C80F87028701078030002F02FFA050562
:10421000080B0E110400DBE700F08AF9F8BD00F08E
:104220001DF8F8BD00F0A6FAF8BD00F057FCF8BD87
:1042300000F078FEF8BD00002600002016000020E7
:10424000380000203E00002039000020520D000000
:104250006E0F000092130000581B0000F8B5A04834
:10426000A04C0178A04DA14F0026012942D0207812
:10427000401CC0B2207005287ED3267038460278D4
:104280009B48012700789B4C411CC9B2002A47D0AB
:10429000012A72D0964E182870D29749088811309A
:1042A00080B20880FCF76AF8FBF774FFC0B21821EF
:1042B000FCF782F891482170405C0128EDD08F48CE
:1042C000CCB207558E4801782046FCF775F84800B7
:1042D0000A18297060008B4923188B488D5C1C18C4
:1042E000A57051184A7862708978C1543078401CA2
:1042F0003070EEE00022067011461046FCF7C4F95B
:1043000003202870267081483E707C4A0670017830
:104310005654491CC9B201703229F8D3744855E08B
:10432000182855D274490888113080B20880FCF7EB
:1043300025F8FBF72FFFC0B21821FCF73DF86F48B6
:104340002170405C0128EDD06C4920780F54297809
:104350004A008B1842006B4982186B48CD5C1018DC
:10436000857059184B784370674889788154604844
:104370000178491C017002E029E02BE0A8E05C48CC
:104380000078322823D35948614D0178614F491C88
:1043900001702670604C58490888113080B208803E
:1043A000FBF7ECFFFBF7F6FEC0B21421FCF704F8B4
:1043B000504A10782954012121543E54401CC0B267
:1043C00010703228E7D35548067055480670F8BD7E
:1043D0004748CFE70020504E2070C0B2315C002922
:1043E0000BD0012920D04200474B00218218D3185E
:1043F00099705970444B995433E029784A008A18CF
:10440000404994468B5C410041183F4A8E468918CA
:104410008B703C4B6246D21853784B7093783A4A73
:104420007146535437541DE03A49394B0A5C521CCB
:10443000D2B20A541B5C9A4214D900220A542E4963
:104440000888113080B20880FBF798FFFBF7A2FEC6
:10445000C0B21421FBF7B0FF2D4A20781154315C13
:10446000491C31542078401CC0B220701828B4D3A5
:104470002A480178491CC9B201703229A7D9002401
:104480001A4E047034702978264B48000A181D49CA
:10449000885C18705218244B51781970234B92780D
:1044A0001A70FCF7F1F82878401CC0B22870052873
:1044B00001D9022030701548104A04700178545414
:1044C000491CC9B201703229F8D309480470F8BDFB
:1044D000317030783228FAD30449FF200870F8BDD3
:1044E0003900002036000020350000204000002068
:1044F0003B0000202C000020240000208901002027
:104500002A00002091000020BB0100202B00002089
:1045100025010020C1000020F30000203C00002005
:10452000370000202E0000202F0000203000002047
:10453000F0B5834A834887B0117800780090824FA5
:10454000824C0020012959D081490B7881490A7891
:104550008149521C0D78D2B26D1CE9B28C46591CAF
:10456000C9B20291002B70D07C490978491CC9B2AC
:1045700001917B490D786E00691CAE193D46751995
:10458000012B744BC9B21A707ED00A2A34D318702A
:104590007448BA5D0270039273486A78027002929E
:1045A000AA78724894460270714817220270034636
:1045B0001D7868002E1830190246203AD77F877080
:1045C000977F4770507FA0556D1E2806000E18700B
:1045D000EED10398A07002986070604620705F482A
:1045E000019A02700C2A07D9002202705C480170FF
:1045F000009B994200D3027007B0F0BD5C480021D7
:10460000117001700646307800990546FBF7D4FE1C
:104610005348017048000A1868002918BB5C081943
:104620008370D21953784370907860546D1CE8B24F
:1046300030701828E7D34A490020087045490870AF
:1046400043490870444936E0FFE74249142A0A709A
:10465000D2D308704349A2780A7001924249627825
:104660000A700092414925780D70414908700B7815
:104670005A009E1832195779977017795770D27867
:10468000A2555B1CDAB200E017E00A70182AEED3DC
:104690002E49019A4031CA71009A8A714D712E4992
:1046A00062460A70142AA7D308702949029A0A7030
:1046B0002B490870294908709EE70A2A9CD30020DC
:1046C00018702848BA5D0270059227486A7802700F
:1046D00004922648AA780270254803921722027095
:1046E00003461D7868002E1830190246203AD77FFD
:1046F0008770977F4770507FA0556D1E2806000E6B
:104700001870EED10598A07004986070039820701E
:104710001248019A0270052A07D900220270104837
:104720000170009B994200D302700B4861460170F2
:104730006429C1D3002101700548029901705BE72B
:10474000390000202A00002091000020BB01002039
:1047500040000020360000203C0000203B000020EC
:10476000350000202E0000202F0000203000002007
:104770002C000020F0B5CB4ACB49107889B0012835
:104780001ED00846CA4902780978C848491CCDB2EB
:10479000C84900780B780090501CC0B203905800B4
:1047A0001F18C548591C3E18CCB2002A15D0012A42
:1047B00041D0022A5ED0032A7ED00521BA4838E0D3
:1047C00000201070BB4A1070BC4A10700870B849C5
:1047D0000870BB49087009B0F0BDBA4800210170EB
:1047E000B848032100780690FBF7E6FD00290BD1BD
:1047F000B148C35D069841004218B34811188B7048
:1048000073784B70B17881540698AE49401CC0B2A1
:1048100008701828E4D3A648142D0570DBD30021B6
:104820000170A4480470009A944200D301709E481D
:1048300003990170CFE7A34800210170A14803212B
:1048400000780690FBF7B8FD01290BD19A48C35DAB
:104850000698410042189C4811188B7073784B7071
:10486000B178815406989749401CC0B20870182846
:10487000E4D3D0E7934800210170924803210078E7
:104880000690FBF799FD02290BD18B48C35D069872
:10489000410042188C4811188B7073784B70B178B6
:1048A000815406998748491CC9B201701829E4D37C
:1048B0007F48142D057000E00DE08CD300210170BD
:1048C0007C480470009A944200D301707648039AA1
:1048D00002707E48ADE779480178491CC9B2017081
:1048E0000229A7D3002101707548774C0078A17880
:1048F000420008908018704A8518002905D1617817
:10490000002902D12178002934D06B49085C192193
:10491000FBF752FD6E490746087068781921FBF7CE
:104920004BFD6C4908700590A8781921FBF744FDF0
:104930006949644E0870049000203070C0B20321B1
:104940000390FBF739FD00290ED10398410041186F
:1049500008198278D21B82704378059A9A1A42709D
:10496000625C0498101A60540398401CC0B2307006
:104970001828E3D35548007803900F283CD360797A
:10498000002805D12079002802D1E078002833D012
:10499000E8781921FBF710FD4D4907460870287982
:1049A0001921FBF709FD4B49087006906879192118
:1049B000FBF702FD4849434E087005900020307017
:1049C000C0B203210490FBF7F7FC01290ED1049833
:1049D0004100421811198B78DB1B8B704878069BBD
:1049E000C31A4B70A35C0599581AA0540498401C34
:1049F000C0B230701828E3D303981E283AD3207A27
:104A0000002805D1E079002802D1A079002839D00A
:104A1000A8791921FBF7D0FC2D4908700290E8799C
:104A20001921FBF7C9FC2B4906460870287A192181
:104A3000FBF7C2FC2849234D08700690002028701F
:104A4000C0B203210746FBF7B7FC02290DD178005D
:104A5000391808198378029A9A1A82704278921B40
:104A60004270625C0698101A60547F1CF8B228707D
:104A70001828E5D303981F2800D3ACE61348017823
:104A8000491CD6E6084900200870089A0C4BD21C35
:104A9000D2B21A70092A01D304220A700B49087095
:104AA000ECE7000039000020400000202A00002030
:104AB0003C0000203500002091000020360000203E
:104AC000F30000202C000020BB0100203B00002050
:104AD000320000203300002034000020F0B5FD48F3
:104AE000FD4D01780024FD4E8BB001292AD03046BF
:104AF0000778FB48002F00780490FA48007801906E
:104B0000F94800780290F9480378F9480178F948A3
:104B100002783ED028460678701CC0B28446EF4822
:104B20000078401CC0B20590F348012F0078069031
:104B30007ED0022F7DD0032F7CD0E849042008705E
:104B40000BB0F0BD0022047011461046FBF79CFD2F
:104B5000E94819210470E94804703470E8482C7061
:104B60000470DF480470DF480470DF480470E54CCF
:104B70002078FBF721FCDD49087060781921FBF7EC
:104B80001BFCDB490870A0781921FBF715FCD949FB
:104B9000D5E70498D24EC018C0B23070019ED14BF8
:104BA0007118C9B21970029ECF4BB218D2B21A70E6
:104BB000FBF76AFD2878401CC0B228701928BFD3C3
:104BC000C648D04E0178491C0170CB48007841009E
:104BD0004718F05D1921FBF7EFFBC449BE190870B7
:104BE00070781921FBF7E8FBC1490870B0781921EA
:104BF000FBF7E2FBBF49C54E08702C70C24DC44F95
:104C00002C70C448297844543088113080B23080E8
:104C1000FBF7B4FBFBF7BEFAC0B20A21FBF7CCFBF3
:104C200028783954401CC0B228703228E9D387E76D
:104C300001E087E004E1182E3DD2B3480470B24889
:104C4000B44D00782D5C012D2ED0B34DB04F2E5CAD
:104C5000761CF6B22E543F5CBE420FD32C54450056
:104C6000AE4E4519AE19B778FF1AB77077787F1A2C
:104C70007770AA4EA94F765DB61A7E554500461943
:104C8000A64DB4467719BE78002E0DD17E78002E41
:104C90000AD16646AD5D002D06D18F4E35786D1C6C
:104CA00035709C4E01253554401C974DC0B228707C
:104CB0001828C4D302E0884861460170864D2878E0
:104CC0003228B4D385480599017006998A48491C51
:104CD000C9B2934A01701278914200D304700078EF
:104CE000884E41004718F05D1921FBF765FB7F49AD
:104CF000BE19087070781921FBF75EFB7C490870BB
:104D0000B0781921FBF758FB7A49804E08702C7057
:104D10007D4D804F2C7028783C543088113080B203
:104D20003080FBF72BFBFBF735FAC0B20A21FBF70B
:104D300043FB774A28781154401CC0B228703228AF
:104D4000E9D3FDE66C480078450040196D4D0190AF
:104D500040190290182E47D26B4804706A486D4D76
:104D600000782D5C012D38D06B4F694D3E5C761C70
:104D7000F6B23E542D5CAE420FD34500674E451946
:104D80003C54AE19B778FF18B77077787F187770F2
:104D9000624E624F765DB6187E55450045195F4EEE
:104DA0000495AD19AC46AF78564D019EAD5DAF424E
:104DB00013D165466E78029D584F6D78AE420CD186
:104DC000049D7E5D029DAD78AE4206D1424D2E78A7
:104DD000761C2E704F4E01253554401C4A4DC0B2F2
:104DE00028701828BAD302E03B48614601703A485F
:104DF00000783228A5D339480599017041480199B6
:104E0000475C19213846FBF7D7FA384908700298F1
:104E1000192146783046FBF7CFFA354908700298D9
:104E2000192185782846FBF7C7FA324908702A48C5
:104E300004702B4807702B4806702B4805707FE6DE
:104E40000498274EC01AC0B23070019B254E591AE3
:104E5000C9B23170029B244F9A1AD2B23A70FBF752
:104E600013FC2878401CC0B228701928E7D32C7096
:104E70001B481A4D047034703C701F482C70017828
:104E8000274A491CC9B201701278914200D30470BC
:104E900000781C4C41004618A05D1921FBF78CFAE4
:104EA00012493419087060781921FBF785FA104906
:104EB0000870A0781921FBF77FFA0E490870104896
:104EC0000178491CC9B201700229B8D304202870A6
:104ED00036E60000390000203B00002040000020A2
:104EE0002E0000202F000020300000203200002083
:104EF0003300002034000020350000203600002060
:104F000037000020910000202C0000202400002009
:104F10002501002089010020C1000020BB010020E4
:104F20002A000020F8B5434800270178424C434D41
:104F3000434E012910D10022077011461046FBF79D
:104F4000A3FB40480770404807704048077040483E
:104F5000077027702F7037703B480178491CC9B221
:104F60000170032964D9077039480178491CC9B216
:104F70000170282908D9077034480178491CC9B242
:104F80000170052900D9077030480078030001F04E
:104F90006DFB06040B121921293037702078401D53
:104FA00020702878C01F13E02F703078801F307079
:104FB0002078093014E027702878C01D28703078D8
:104FC000001F15E037702078401F207028780830C7
:104FD00028700EE02F703078C01C30702078C01F11
:104FE000207006E027702878083828703078C01CB8
:104FF00030701848172101701648027850001318B5
:1050000015481818014620398F7F4770CF7F877069
:105010001148497FC154521E10060E49000E0870F7
:10502000EAD10D482178817029784170317801707A
:10503000F8BD0000390000202E0000202F000020C5
:105040003000002035000020360000204000002005
:10505000370000202C000020BB010020F8B5284EAE
:105060000024F178274B284801290CD00188274DCE
:10507000491C8AB201210280012A0DD0244FBA4274
:105080000CD1197019E0F470048000221C701146D4
:105090001046FBF7F9FAF8BD1C700EE01D4FBA423E
:1050A00001D1022008E01C4FBA4201D1032003E0E5
:1050B0001A4FBA4203D104201870297007E07D25E9
:1050C000AD01AA4203D104801548F170017018782F
:1050D000030001F0CBFA0505080B0E110400DAE716
:1050E00000F020F8F8BD00F0C5F9F8BD00F096FC1E
:1050F000F8BD00F045FDF8BD00F070FEF8BD000001
:1051000026000020380000203E000020390000204A
:10511000640A0000E614000044160000CD190000E7
:1051200016000020F0B5C448C44D017885B00129AF
:1051300026D028460778C348C14B0178C248491C8D
:105140000078C9B2401CC6B2781CC0B20290BF48F9
:10515000C04C02781546521CD0B21A780092BC4A54
:105160003B0012780392521CD2B201926A00AD1831
:10517000B94AAA1801F07AFA05185293D3FDFC0037
:1051800000240470224621462046FBF77DFAAF48F2
:105190002C700470AE480470B0480470B0480470BD
:1051A000A848047005B0F0BDA74B052E1E70F9D3BA
:1051B00000241C70AB4B17241C70AA4BA54C1E7806
:1051C000403C7300F3189C461B191C46203CE77FAB
:1051D0009F70A77F5F709F4F647F403F6346FC5482
:1051E000761E33069F4C1B0E2370E6D19A4C974BCC
:1051F000655D3C46A5705578657092782270914A3D
:1052000032291170CED3002111708C4A029C147087
:105210001870009A9042C5D31970C3E78A4B052EC7
:105220001E70BFD300261E708E4B1E708D4B1B78D8
:105230005E009C469E19874B403BF3185F799F7038
:105240001F795F70834FDB78403FBB5563465B1C23
:10525000DBB2844E172B3370E8D37F4E7B4B755DEA
:10526000E5715578A57192786271764A322911708C
:1052700098D3002111701870009A904200D31970D1
:105280006E4A7648117003785B1CDBB20370022B08
:1052900088D90170022010706D48017082E76A4B56
:1052A000052E1E70B9D300241C706E4B17241C7081
:1052B0006C4B1E787300F418664BA446403BE31811
:1052C0001C46203CE77F9F70A77F5F70614F637F24
:1052D000403F64463B55761E3306624C1B0E2370DE
:1052E000E6D15D4C594B655D3C46A57055786570BF
:1052F00092782270564C019A2270062A06D3002218
:1053000022701870009CA04200D31A704D483229B8
:105310000170C3D30021017048480299BDE74A4B90
:10532000052E1E70BAD300261E704E4B1E704D4BBC
:105330001B789C465E009B19464E403E9E1977792D
:10534000B77037797770F778424E403EF75463462E
:105350005B1CDBB2434E172B3370E8D33E4E3B4B06
:10536000755DE5715578A57192786271384A01E0F2
:105370005EE029E0019C1470062C06D30024147012
:105380001870009DA84200D31C702E4B3229197052
:1053900084D300201870294902230B70304B1C78ED
:1053A000641CE4B21C70022C00D8FBE604230B70D2
:1053B0002D492E4B08700C781855641CE4B20C7003
:1053C000322CF8D31070EDE61F48052E0670ECD392
:1053D0000025057003981E4C182827D2214E234F14
:1053E00023490888113080B20880FAF7C7FFFAF71E
:1053F000D1FEC0B21821FAF7DFFF3170785C0128C6
:10540000EED030780121395441004218114840381B
:1054100011188D704D7085542078401C2070C0B2DA
:105420003228C2D305480178491C36E70198F5E7D0
:10543000FF21024831E70000390000204000002031
:105440002A0000203C00002036000020350000200B
:105450003B000020FB01002091000020F300002011
:10546000370000202C0000202B00002089010020A4
:1054700024000020F0B5FF48FF4D017800248DB0D6
:10548000012932D02F780797FC48FE4A0178FC4862
:10549000FE4E007813783678FB4A80191278C0B235
:1054A0000B90FB480596007803901818C0B208903E
:1054B000F848491C0678C9B29019C2B2F64800787B
:1054C000431CDBB20A93F54B1B7804915B1CDBB2E7
:1054D0000693F3493B000978019101F0C7F80928C8
:1054E0004878FBF9F8F7F7F7F60000220470114648
:1054F0001046FBF7C9F8E9482C700470E9481921F7
:105500000470DE480470E84C2078FAF755FFDF4954
:10551000087060781921FAF74FFFDD490870A0780C
:105520001921FAF749FFDB4908700DB0F0BD059865
:10553000D54B81004018D249C0B2087003998A0047
:105540008918D04AC9B21170B200B218D2B21A701A
:10555000FBF79AF8D3480178491CC9B201700A29AF
:10556000E3D904702878401C2870CB4840E1C44936
:105570000B980870C34B08991970C34B1A70FBF74E
:1055800083F8C5480178491CC9B201701429CCD3ED
:1055900004702878C64E401C2870C44DC54F2C702E
:1055A000C548297844543088113080B23080FAF7E9
:1055B000E5FEFAF7EFFDC0B20A21FAF7FDFE287802
:1055C0003954401CC0B228703228E9D3ADE71828FE
:1055D0003ED2B6490C70B84A0878125C012A31D024
:1055E000B64AB44F135C5B1CDBB213543F5CBB4246
:1055F00013D3145442008318B14A9C469A189378E6
:10560000059FDF1B97705378039FDF1B5770AC4AD1
:105610006346D25CAA4F921BFA5442008318A84AF0
:105620009F18BA78002A0DD17F78A54A002F09D19A
:10563000D25C002A06D1984A13785B1C13709E4BEB
:1056400001221A54401CC0B208701828C3D302E0CB
:1056500091480A990170904800783228B6D3914851
:105660002C7004708D4806990170019A914200D304
:10567000047001788C4E48000F18F05D1921FAF77C
:105680009BFE8249BE19087070781921FAF794FEC2
:105690007F490870B0781921FAF78EFE7D490870AD
:1056A0007D48047075480499017002298ED90470F0
:1056B000032028708348804A047001785454491CA0
:1056C000C9B201703229F8D32FE795E19BE091E050
:1056D00066E0FFE7704E182860D27B4F7449088857
:1056E000113080B20880FAF749FEFAF753FDC0B2D4
:1056F0001821FAF761FE70483970405C0128EDD03E
:10570000CAB26D49012088543078401C30705A4824
:10571000654D0178491C0170584804705848047060
:1057200058480470584804705C4800784100471895
:10573000E85D1921FAF740FE54497D190870687830
:105740001921FAF739FE52490870A8781921FAF799
:1057500033FE5049087030783228B5D346480521C9
:1057600001703470514D524E524F2C70524829786E
:1057700044543088113080B23080FAF7FFFDFAF7D8
:1057800009FDC0B21421FAF717FE28780A313954FE
:10579000401CC0B228703228E8D3C6E60A98B5E7A4
:1057A00037490B9B0B703749089B0B7036491828FB
:1057B0000A7010D84448424F0078059A41004118B9
:1057C000C81983789A1882704378039A9A1842709D
:1057D000785C801978542949049808701928DCD31A
:1057E000032028702D4806990170019A9142D4D364
:1057F00004709AE6002211461046FAF745FF287811
:105800006FE0287091E6294E00203070C4B2E007A6
:105810002A48015D67D0491CC9B2264A0155125D6C
:10582000914222D90027075520460199FAF7C4FD75
:105830001A4801702448025D002A7DD04A00891868
:10584000194A8E46535C6200A1181D4A03918A18BA
:1058500094469370144A71468B185A7861464A7080
:10586000174A03999B7853540755641CE0B2307073
:1058700018282BE0390000204000002037000020CD
:105880002E0000202F0000203000002032000020D9
:1058900033000020340000203B00002035000020B1
:1058A0002A00002036000020910000202C0000205B
:1058B000240000202501002089010020C1000020D3
:1058C000BB0100202B000020F30000209ED34B489A
:1058D0000178491CC9B20170C8298AD90021017018
:1058E0000798401C8DE7491CC9B201550329BCD358
:1058F0000021015520460199FAF75EFD40480170EC
:1059000048000F183F481921C05D0590FAF754FD73
:105910003D49087002903B4819213F187878039060
:10592000FAF74AFD394908700990B87819210490AE
:10593000FAF742FD364900E048E008700146354874
:10594000005D002820D060002018334A844680186B
:105950008278059B9A4209D34778039B9F4205D3DF
:105960002D4B6746DF5D049B9F422BD2029B2A4F43
:10597000D21882704378099A9A1842706246B85CCD
:1059800040186146785470E7600022182248944617
:1059900012189778002F06D15378002B03D1634655
:1059A000C35C002B0CD0029BFB1A93705778099BA9
:1059B000FB1A53706246825C511A6246815454E766
:1059C000144816E01349002008554EE74A008F1886
:1059D0000C49114AC95D4B08610061188A1893701F
:1059E000084BFB185F787F0857709A780A4B52086B
:1059F0005A540121015538E7FF2002E73600002004
:105A000035000020910000203200002033000020EB
:105A100034000020F3000020BB010020F8B54B4902
:105A20004B4C08784B4D4C4E01280DD04B482778F5
:105A3000027828460178304600783B0000F016FED8
:105A4000061D575F67737B830020087044492070F0
:105A50000870FF2131704149287008704149434B5B
:105A60000870414908700A789854521CD2B20A70E2
:105A7000322AF8D33E490870F8BD39480178491CEC
:105A8000C9B201700529F7D30021394F0170387868
:105A9000182823D237490888113080B20880FAF7D5
:105AA0006DFCFAF777FBC0B21821FAF785FC324893
:105AB00001702E48405C0128ECD02F482B4900781B
:105AC00001220A54410041182C4833780A18937077
:105AD0002B785370214A127842543878401C387021
