:020000040000FA
:1000000048050020CD010000D10100007901000069
:1000100000000000000000000000000000000000E0
:10002000000000000000000000000000D5010000FA
:100030000000000000000000D7010000D90100000E
:10004000DB010000DB010000DB010000DB01000040
:10005000DB010000DB010000DB010000DB01000030
:10006000DB010000DB010000DB010000DB01000020
:10007000696C0000DB010000DB010000DB01000017
:10008000DB010000DB010000DB010000DB01000000
:10009000DB010000DB010000DB010000DB010000F0
:1000A000DB010000DB010000DB010000DB010000E0
:1000B000DB010000DB010000DB010000DB010000D0
:1000C00000F002F800F048F80CA030C808382418F6
:1000D0002D18A246671EAB4654465D46AC4201D180
:1000E00000F03AF87E460F3E0FCCB646012633426A
:1000F00000D0FB1AA246AB4633431847006F0000FE
:10010000206F0000103A02D378C878C1FAD852079D
:1001100001D330C830C101D504680C6070470000BD
:100120000023002400250026103A01D378C1FBD813
:10013000520700D330C100D50B60704710B5782945
:1001400002D100F067F810BD002010BD1FB500F00F
:100150002BF91FBD10B510BD00F062FA1146FFF774
:10016000F5FF06F087FE00F07AFA03B4FFF7F2FF1E
:1001700003BC00F081FA000004207146084202D05E
:10018000EFF3098001E0EFF308807146004A104761
:100190009122000030B40C490C684A68236810684A
:1001A000C0181060241D121D8C4207D28A4208D24A
:1001B0000C604A6030BC4000400870470C00DC3CDA
:1001C000F6E70A00DC3AF3E7DC02002006480047C5
:1001D000FEE7FEE7FEE7FEE7FEE7FEE70348044929
:1001E000024A044B70470000C10000004803002091
:1001F00048050020480300200FB4054910B503AAA4
:10020000029800F0E1F910BC08BC04B018470000E7
:100210006000002070B504460D4621461068C046B7
:10022000C0462188090502D50F4A7A4402E00E4AE9
:100230007A440E3223460021243305E006070009E4
:10024000360F965D5E54491C0028F7D120780023B4
:10025000000705D5702D03D0002901D002231132EB
:10026000204600F059F970BDA46D0000F3B50446B6
:10027000002081B020622046E168884700287AD0BB
:10028000252802D06268A16871E0E1682046002557
:10029000884706460020E0610746A0612A2E0AD062
:1002A000304606F0D6FD002827D0B8000019303EB1
:1002B0000090866119E00298BA00121902C8916193
:1002C00002902046E1688847012F064617D1E06971
:1002D00000281FDA202085431CE000980A2180694D
:1002E000484300998019303888612046E168884782
:1002F000064606F0AEFD0028EFD1012F0AD02E2EC3
:1003000008D12046E16888470646202005437F1C27
:10031000022FC3DBA069002803DA4042A06101205C
:100320000543E80701D010208543002E23D0304636
:100330004138192803D80120C00205432036204641
:1003400025603146029A1546FFF7F8FE00280BD0CB
:10035000012806D0ED1DE808C000083002908AE7A9
:1003600009E02D1D029586E762683046A168904736
:10037000206A401C7EE7206AFEBD00000B4A30B5B3
:1003800011460B4C60310B46DC3B0CC1372106E0BB
:10039000020C8D0012185A51064A504300190A46A1
:1003A000491E002AF4DC30BD0120E7E77C02002072
:1003B000E119D666CD0D0100002203098B422CD332
:1003C000030A8B4211D300239C464EE003460B43A5
:1003D0003CD4002243088B4231D303098B421CD307
:1003E000030A8B4201D394463FE0C3098B4201D3F9
:1003F000CB01C01A524183098B4201D38B01C01A31
:10040000524143098B4201D34B01C01A52410309A7
:100410008B4201D30B01C01A5241C3088B4201D356
:10042000CB00C01A524183088B4201D38B00C01A03
:10043000524143088B4201D34B00C01A5241411A2A
:1004400000D201465241104670475DE0CA0F00D00D
:100450004942031000D34042534000229C46030906
:100460008B422DD3030A8B4212D3FC22890112BA8C
:10047000030A8B420CD3890192118B4208D3890164
:1004800092118B4204D389013AD0921100E089097C
:10049000C3098B4201D3CB01C01A524183098B425D
:1004A00001D38B01C01A524143098B4201D34B0146
:1004B000C01A524103098B4201D30B01C01A5241A9
:1004C000C3088B4201D3CB00C01A524183088B4230
:1004D00001D38B00C01A5241D9D243088B4201D3B9
:1004E0004B00C01A5241411A00D2014663465241A4
:1004F0005B10104601D34042002B00D549427047A3
:1005000063465B1000D3404201B50020C046C046A0
:1005100002BD704770477047FFB504460D4681B075
:10052000243000902168880604D51022E0699143A8
:10053000216000E00120A84201DD471B00E0002708
:100540000498A1697A191018081AA0612078C006C9
:1005500002D42046C046C046002608E003986268E0
:10056000A168805D9047206A401C761C2062049838
:100570008642F3DB2078C0060AD52046C046C04636
:1005800006E06268A16830209047206A401C206223
:1005900038467F1E0028F4DC07E000986268A168F6
:1005A000405D9047206A401C206228466D1E00284E
:1005B000F3DC2046C046C0462078000602D5022063
:1005C00005B0F0BD0120FBE7084B70B50D467B443C
:1005D00000F013F80446284606F042FC002802D03A
:1005E0000020C04370BD204670BD0000956800002B
:1005F00001694A1C02610878704700B58FB002910A
:100600000021059105490193794403911146049015
:100610006846FFF72BFE0FB000BD0000E5FFFFFFAF
:10062000754600F025F8AE46050069465346C008F9
:10063000C000854618B020B5FFF7D0FD60BC00278C
:100640004908B6460026C0C5C0C5C0C5C0C5C0C59E
:10065000C0C5C0C5C0C5403D49008D46704710B5F6
:100660000446C046C0462046FFF77FFD10BD00008F
:1006700000487047E402002001491820ABBEFEE7A5
:10068000260002007047000070B5064C00235D0094
:100690005D192E19B0705B1C7170DBB26255182B9E
:1006A000F5D370BDB701002000B50548C178012918
:1006B00005D10021C1700A460846FFF7E5FF00BDDD
:1006C00026000020F8B529484278002A2CD00525BC
:1006D0000146274E2D07274FC9780024012A06D04E
:1006E000022A22D0032A1FD101292AD033E001296E
:1006F00009D11E480022C47004700C211E4801F06C
:1007000071FD0120B06119480178491CC9B201701E
:10071000052909D904704470686B38406863686BB8
:100720000321890208436863F8BDC4700470B46192
:100730004470686B38406863686B6863B462F462E5
:10074000F8BDC4700470B461696B39406963696B4A
:100750006963B462F4620178491CC9B20170052969
:10076000EED9047001214170C170F8BD5400002021
:1007700000420050F3F3FFF34040005070B52848AA
:10078000066B284903248A1C01250B1F0020012E1B
:1007900017D0087048701178491CC9B211703229FD
:1007A00009D310705178491CC9B251700A2902D37B
:1007B00050705C70DD701B499A78091D012A11D0B8
:1007C00014E0107050700A78521CD2B20A70322AAB
:1007D000F1D308704A78521CD2B24A700A2AEAD37E
:1007E0004870E6E798700870487088700A78521C64
:1007F000D2B20A70322A10D308704A78521CD2B290
:100800004A703C2A09D348708A78521CD2B28A7046
:100810003C2A02D388705C70DD70FFF753FF70BD17
:100820000042005058000020FEB57E4A7E4CD3782E
:100830007E4D00207E49012B06D07E4A13780A2B7C
:1008400050D25B1C1370FEBDD0707B4A08701278CA
:100850000192774E019930780090FFF7ADFD77480F
:100860004A00017000202070754889180A1897788E
:100870005378425C009880008446207861460918CD
:100880004E008E1971198A70401C4B70C0B2AF5562
:1008900020700428F1D300986549401CC0B208704C
:1008A0000628D6D300250C46664E674F2570308843
:1008B000FFF764FD308811303080FFF76BFCC0B269
:1008C0001421FFF779FD614A207811540121395430
:1008D0005F490D54401CC0B220700628E7D355482C
:1008E0000570FEBD00201070564A13885B1C1380F3
:1008F00008704F4854490678885D0190002804D05C
:10090000012829D0022826D148E04B4801783046FA
:10091000FFF752FD49484A4B017000202070480003
:100920000918C818827800924778595CB00084464C
:100930002078624612185300D218531999705F70CC
:10094000401C009BC0B2AB5420700428F0D3019926
:100950003D48491C81555BE03D493C4F8A5D521C36
:10096000D2B28A55BB5D9A4252D900228A55354E81
:100970003088411C3180FFF701FD30881130308014
:10098000FFF708FCC0B21421FFF716FD28480078D5
:1009900039542D490A5C521C0A5439E02648017822
:1009A0003046FFF709FD2548254A017000202070D8
:1009B00048000F18D05D3221FFF7FEFC810040187F
:1009C0001F49C0B27F18019078783221FFF7F4FCFC
:1009D00081004018C0B20090B8783221FFF7ECFCDB
:1009E00081004018C0B28446B1002078019F0A18E7
:1009F0005300D3185A199770009F5770401C6246D5
:100A0000C0B2EA5420700428EFD30F490020885563
:100A100007480178491CC9B20170062900D268E76D
:100A2000FEBD0000260000202C000020B7010020A1
:100A300035000020360000202A000020340000206D
:100A40008D00002024000020EF0000202101002064
:100A5000BD000020F0B51848184BC7781849194D4B
:100A60000024194E194A012F05D02F78082F0ED2D5
:100A70007F1C2F70F0BDC4701C700C7014700022AD
:100A800011461046FFF700FE2C703470F0BD2C703C
:100A90003578EF0700D1FF2414706D1CECB2347070
:100AA000052C03D9447804700124C47012780978A5
:100AB0001878FFF7E9FDF0BD260000202E00002089
:100AC0002F00002036000020EF0000203000002022
:100AD0000248016AC20111430162704700020050DE
:100AE000F3B58BB00C46FFF7F3FF0B980028744862
:100AF000016813D0042211430160102000F0F0F9C6
:100B00000120C00409906F480090042008906E48AE
:100B10006E49201888420ED800251DE089088900FA
:100B2000491C0160012000F0DBF9002009906848B1
:100B300000900220EAE76748664920184942884247
:100B400002D80125640007E0634863492018494240
:100B500088427DD20325A4000026F643089F22E0A8
:100B600039460098FFF728FC5C49844641185C48E8
:100B7000814217D2554B02225B1C534861465143B8
:100B8000401C0818984209D8A14201D9081B00E06E
:100B9000601AB04202D2060004920CD05148521C96
:100BA0008242EAD97F1C212FDAD900200696C04361
:100BB0000190089E54E00999A803084301217A0294
:100BC0008902511A08430499891E08433C49086266
:100BD000042000F085F9691C79430098FFF7ECFBCD
:100BE000049948430DB0F0BD31460098FFF7E4FB8F
:100BF0003A4942183A498A4231D20221324B0246DE
:100C00004A435B1CD7185B429F4224D8A24201D9B9
:100C1000121B00E0A21A019B9A421CD20192069B71
:100C20000F469A4217D10999A8030843012172027D
:100C30008902511A0843B91E084321490862042059
:100C400000F04EF9691C71430098FFF7B5FB00E016
:100C500008E07843C6E7234A491C9142CED9761C66
:100C6000212EC1D90B9800280FD01F4914480162CA
:100C7000042000F035F91DA0006803901048016AB7
:100C80000013014203D00020ACE71949EEE7080346
:100C900001D50C4800E00E488A03A3D40A04920F41
:100CA00003AB9B5CCA058904D20DC90E891C800860
:100CB000921C59435043FFF77FFB800092E70000EE
:100CC0000002005000805101FF1E0AFAFFE0F50506
:100CD000001BB700800F05FDC08782FEFF95E7FF70
:100CE000BF77CC0001020000184408000102020492
:100CF00016400000044982070A6801D09208920059
:100D000002430A60704700000002005008B511A0BD
:100D1000006800901048016A0013014201D00020D1
:100D200008BD080301D50D4800E00D488A03F7D43B
:100D30000A04920F6B469B5CCA058904D20DC90E4A
:100D4000891C8008921C59435043FFF735FB8000F3
:100D500008BD0000010202040002005000805101A1
:100D6000001BB70070B502F007F92D4841682D4A05
:100D70001140416041680325294341600120FFF78C
:100D8000B9FF012000F0ACF800062749000E0870FA
:100D900009D10420FFF7AEFF102000F0A1F80021D8
:100DA000072000F08BF8214800F046F8204C082678
:100DB0002660304600F094F80120A0606069284366
:100DC0006061A168E0018143A160A1680143A16065
:100DD0006069032109068843606105200007416BB3
:100DE000144A11404163416B032292021143416353
:100DF000A06804210843A0606069072109028843B4
:100E00006061A0683043A060606909018843606147
:100E100005F086FE02490020C031086070BD000068
:100E200040000050FCFCFFFF49000020006CDC0289
:100E300000020050F3F3FFF3F8B51E4C0546E668D8
:100E400010201D49064048108D4201D90D4602E090
:100E5000854200D2054620680427384320601020D0
:100E600000F03EF82069072108432061A0690009CD
:100E70000001A06120688007800F01280ED0690062
:100E80007804FFF72DFEE668054610200640012194
:100E9000022000F013F8002E06D008E069000020C0
:100EA000FFF71EFE0546F2E72068B8432060680899
:100EB000F8BD00000002005080F0FA0210B5074AA9
:100EC00093691B091B010B4393611169C908C90090
:100ED0000143116105F024FE10BD00000002005026
:100EE00010B50749074A05E00B46491E002B01DCF7
:100EF000002010BDD4680346A343F5D1012010BDE6
:100F000080F5200000020050F0B5DB48DB4985B0D9
:100F1000C3788979029101468D79CA790124002B21
:100F200013D18178491CC9B2817096290DD3D44957
:100F3000C4700C704C704C238B704123CB703623E3
:100F40000B71029B4B71CD710A72837C0021002BC7
:100F500009D0437C5B1CDBB243740F2B03D3417479
:100F6000FF2303718174C74B1E78002E63D00021CC
:100F7000C148197084744174C3490C70C178C34866
:100F80000029067801D1F02E26D0C0483707017914
:100F900001913F0F40790390072F04D0A9424AD115
:100FA0000398904247D10F2E05D0B34831090379F9
:100FB000994240D00171B5483B00C1780091417819
:100FC000807805F039FF1038151523383A3887FE38
:100FD00038443838FD385538A9484C2104704470DD
:100FE00081704121C17036210171029941713FE147
:100FF000A3480221017044704C2181704121C170CD
:101000003621017102994171002130E10A2901D98B
:10101000FF2910D11C280ED89D4D00292970EC7095
:1010200009D0FF2905D0A87000F0CEFA28786870A2
:101030001BE06878287005B0F0BD0828FBD8C10710
:10104000F9D18E49887193484C710470E2E003290C
:10105000F1D80029EFD00828EDD88D4A0A31117057
:101060005170D470907000F0AFFA8A480470E2E7D3
:1010700087480A1F854D0078130005F0DDFE0A063B
:1010800006111111060606060611814B884207D18A
:10109000794A167C002E03D1DC7014747E4A1470D9
:1010A0000A29C8D97A4E0028C5D0884207D03170A5
:1010B00071707848F4700470B07800F085FAB178F7
:1010C000A8788142B7D0B0707249F4700C7000F00B
:1010D0007BFAB0E7684BDE7B1F463B7B7F7B012EB4
:1010E000BC4640D1644F0026FE734140019E0098EB
:1010F000664F704041400398814210D06448FF2100
:101100000170C4705E480221017008214170042101
:1011100081700021C170017143716146A7E07F1C9D
:10112000002001460097009E765C36027040002643
:10113000C70B03D0594F4000784000E04000761CB8
:10114000F6B280B2082EF3D3491CC9B20429EAD3FF
:1011500019026144484E89B26746814210D04C481A
:10116000FF210170C47046480221017008214170BE
:10117000042181700021C17001714371394676E00C
:10118000180901F099F8464D2870307B0007000FD0
:1011900001F092F86870707B000901F08DF8A8707A
:1011A000707B0007000F01F087F8E87034480821D1
:1011B00004704170032181700021C170017101E050
:1011C0002DE010E0327B4271737B8371B579C5717C
:1011D000F5790572B271F371317371732C48FD2189
:1011E0000170C47041E7012914D0022900D022E720
:1011F0002149CC730873009B4B73214902240C7066
:101200004E708C700024CC700C7148718B71CD7154
:101210000A7210E71E48FB210170C4700BE70D2312
:10122000002916D00129E2D11548022101701D497B
:101230004370097881701049C97AC1701921017110
:1012400012214171182181715721C171432101720D
:10125000F1E60B480221017043704C21817041215D
:10126000C17036210171104909784171029981716B
:10127000C5710272DFE60000110000204C00002062
:101280007400002000000020560000200B00002009
:10129000260000204700002046000020211000000A
:1012A000020000204900002042000020FCB5B84B9D
:1012B000B84FD9780020B84DB84CB94A01293BD075
:1012C000B8490E78761CF6B20E70052E5FD3087002
:1012D0004E78761CF6B24E701E2E1AD348708E7859
:1012E000761C3606360E8E7013D088703E78761CCB
:1012F000F6B23E70052E0CD9AB4938700E78761CCC
:10130000F6B20E70142E04D908700121D970A74BC3
:101310001970A0490F78A2493B0009780191C91CB6
:10132000C9B200919C490E789C49097805F084FD6A
:101330000630353B41474D529649D87008709C495C
:1013400008709C499A4B1B785E009F197E18B070FC
:1013500070705B1CDBB2964EC8553370182BF1D3FE
:10136000287020709049107008709049934C087054
:1013700088498C4B4870904908700A789854A0545A
:10138000521CD2B20A70062AF7D38D490870FCBDF0
:10139000761D10702E70C91F0FE020700199891FF3
:1013A000117009360FE02870C91D21700199091FBD
:1013B0000FE0761F10702E70083121700AE0207047
:1013C00000991170F61F2E7004E028700839217002
:1013D000009911706F497B4F4E78711CC9B2330070
:1013E00005F02AFD0604223D587590AD704B38700B
:1013F00018702D78247801946E4E12788000AC46D7
:1014000000901878009C654624186700E719BC19FD
:10141000A570019D401C6570C0B2F255187004287B
:10142000EFD35C484170FCBD0226614B3E701870E2
:101430002F782478127800925E48B20094461A7889
:101440006546AD186E00AE193518AF706C70521C41
:10145000009DD2B285551A70042AF0D3E1E7012627
:10146000534B3E7018701278524894462D78247869
:10147000B20000921A78009EB6187700F7193E184D
:10148000B5707470521C6646D2B2C6551A70042AE2
:10149000F0D3C6E70526464B3E7018702D780195AF
:1014A000247844481278A446B50000921A78019C2A
:1014B000AE187700F7193E18B47064467470521C69
:1014C000009CD2B2C4551A70042AEFD3A9E70326B0
:1014D000374B3E7018702F78247812780092354878
:1014E000B20094461A786546AD186E00AE193518EC
:1014F000AF706C70521C009DD2B285551A70042AD0
:10150000F0D38EE704262A4B3E7018702D78019593
:1015100024782848A4461478B20000921A78009ED5
:10152000019DB6187700F7193E18B5706546521C34
:101530007570D2B2C4551A70042AEFD371E73870AF
:101540002878019020781B4984461078009018482C
:10155000002202701B4A127895000378019CEE1855
:101560007700F7197E18B470644674705B1C009E97
:10157000DBB2CE550370042BEFD3521C1148D2B20C
:101580000270062AE3D3034900204870FCBD000026
:1015900026000020EF0000202E0000202F00002059
:1015A00030000020BD0000203A000020160000207E
:1015B0002C000020B7010020350000202101002070
:1015C0002D0000202B000020F8B50146F94800242A
:1015D0000078FA26F84D27460A286FD9F7480C22DA
:1015E00002700B0005F028FC0715487FA4D9F1050F
:1015F0001400F34861006118425C6A540A184919E2
:1016000053784B70641C9278E4B28A70102CF1D33A
:10161000F8BD05212046FEF7CFFE002908D001299C
:101620000CD0022910D0032912D0042918D01EE0B2
:10163000600020182F54401946700FE060002018F9
:101640002E544019477009E0600020182E540BE01A
:10165000600020182F54962140194170877006E0D1
:101660009621600020182954401946708670641C29
:10167000E4B2102CCDD3F8BD07212046FEF79CFE26
:1016800000290CD0012912D0022918D0032922D018
:1016900004290CD0052912D0062908D016E06000D4
:1016A00021186E5432204919487088700EE060008D
:1016B00020182E5440194770322106E0CEE0600019
:1016C00020182E543221401941708170641CE4B2FC
:1016D000102CD1D3F8BD6000962120182954401950
:1016E00046708770F2E7A00709D0A007800F012895
:1016F0000CD0022810D0E043800707D013E0600030
:1017000020182E544019477087700CE06000201894
:101710002F544019477005E0600096212018295485
:10172000401946708670641CE4B2102CDBD3F8BDFF
:1017300005212046FEF740FE002908D001290ED0E1
:10174000022911D0032916D004291AD020E0600004
:1017500020182F54401946703221817018E0600023
:1017600020182E54322110E06000962120182954B0
:10177000401946700BE0600020182E544019477045
:1017800005E0600020182E549621401941708770A2
:10179000641CE4B2102CCBD3F8BDA00711D0A00775
:1017A000800F012812D0022818D09621600020183E
:1017B0002954401946708770641CE4B2102CECD395
:1017C000F8BD600020182F54F3E70EE060002018E9
:1017D0002F544019467032218170EDE760002018C7
:1017E0002F54962140194170E5E709212046FEF764
:1017F000E3FD002910D0012913D0022929D00329A3
:1018000014D004290DD005291CD0062909D0072998
:101810001FD008290AD010E0600020182E54322171
:1018200001E0962103E04019417010E03221600090
:1018300020182954401947708670641CE4B2102C9B
:10184000D3D3F8BD600020182F544019467087701C
:10185000F3E7600020182F549621E4E710290BD2FB
:10186000480009185648425C2A7008184178697087
:101870008078A87001217DE01039042003220B003C
:1018800005F0DAFA0D091520313A437B85A0ACE664
:10189000F6F40800D5E72F7032206E70A8709621FC
:1018A000E9702E716F71AE71E871287221E02F70AE
:1018B0006E70AF70EE702F716F719621A971EE711D
:1018C0002F72DEE032212E706970AF70EE709622BA
:1018D0002A716F71AE71E9712F726E72AF72EA7216
:1018E00036490870F8BD962028706E70AE70EF70A3
:1018F00047E032480270F8BD2E706F70AF70EF7025
:101900002E716F71AE71EE713FE007212046FEF738
:1019100053FD002912D0012909D002290ED0032934
:1019200014D0042903D0052918D006291DD1600040
:1019300020182E5440194770322115E060002118FC
:101940006E5432204919487088700EE0600096216C
:101950002018295440194670877006E0600020184E
:101960002E543221401941708170641CE4B2102C55
:10197000CBD3072111480170F8BD2E706F70AF7086
:10198000EE702E716E71AF71EF712E72B1E72F7024
:101990006E703220A870EE7028716F71AE71EF71A9
:1019A00096202F726872AE72EF722E736873AF73E7
:1019B0000521DFE7260000208D0000202A000020FE
:1019C0009C6F00002F706E70AF70EF702E71322020
:1019D00068719620A871EE712F728AE7092120465E
:1019E000FEF7EAFC002910D0012913D002292AD0E1
:1019F000032914D004290DD005291DD0062909D0AA
:101A0000072920D008290AD010E0600020182E54A1
:101A1000322101E0962103E04019417011E03221AA
:101A2000600020182954401947708670641CE4B285
:101A3000102CD3D309219DE7600020182F544019A2
:101A400046708770F2E7600020182F549621E3E774
:101A50002E706F70AF70EE70322129716F71AE71A0
:101A60009621E9712F726E72AE720DE00EE0FFE703
:101A70002F706F70AE70EF702E716F71AF71EE716D
:101A80002E726E723221A972EF7229E70848610046
:101A90006118425C6A540A18491953784B70641CE7
:101AA0009278E4B28A700C2CF1D30C2018E7000075
:101AB0009C6F0000F0B52D482D4A84790123002C3D
:101AC00005D04679851E0021012E0BD016E028484E
:101AD0002038016A890104D5016A8402A1430162A8
:101AE0009360F0BD417141708170C17001712980B6
:101AF00016680127BF073E43166093609668F60795
:101B0000F60FEED093602A881A4E521C92B22A80A9
:101B1000B24201D32980F0BD8278521CD2B28270C9
:101B20003C2A0ED38170C278521CD2B2C2703C2AB9
:101B300007D3C1700279521CD2B20271182A00D3A5
:101B400001714278002AE6D18278002AE3D1C27876
:101B5000002AE0D10279002A05D0A242DBD102227C
:101B60000270C171F0BD0370C371F0BD4C00002064
:101B700020000140983A000030B5154A1548002170
:101B80001368435493695B0403D4491CC9B21029F8
:101B9000F6D302240125104B022906D0072910D0C4
:101BA0005C7090682043906030BD0178FD2906D1BB
:101BB0004178F02903D1807807E05D7030BD5C701A
:101BC00030BD0178FD29FAD1C079FE28F7D1F4E7BC
:101BD000000005407D0000200000002030B5124AC2
:101BE00000205478002C1DD00021104B012C07D070
:101BF000022C17D11954401CC0B21028FAD310E09F
:101C000001241470084C0B341D186D782554401CA9
:101C1000C0B20628F8D300201954401CC0B21028C6
:101C2000FAD3517030BD0000000000207D0000207C
:101C300010B5204A00201478002C13D01E49012C26
:101C400011D00023032C22D0022C0BD1FD240C60D8
:101C5000141864780C60401CC0B20828F8D3FE2029
:101C60000860137010BDFC230B604C230B604123F4
:101C70000B6036230B60114C235C0B60401CC0B220
:101C80000428F9D3FE2008600220107010BD1370E4
:101C9000FA220A600B600B600F220A60074B1B1DC3
:101CA0001A5C0A60401CC0B20528F9D3FE20086007
:101CB00010BD00007400002000000540020000205C
:101CC00010B50D490B78002B0ED0002201240B48D3
:101CD000012B02D0022B04D006E00A70417801707B
:101CE00001E00A700270C47000F070FD04F0E8FEBC
:101CF000FFF70AF910BD00004C000020260000206C
:101D00000A492222CA604860012008610869C007A8
:101D1000FCD10868400606D50868402210430860D8
:101D20000020C043704700207047000000C00050F2
:101D300002480168012211430160704700C0005051
:101D400005490022CA604860012008610869C0078F
:101D5000FCD188687047000000C00050054A21236C
:101D6000D36050609160012010611069C007FCD100
:101D70007047000000C0005010B50124240501F098
:101D8000EDF8FFF7D5FF22490868202210430860CC
:101D90002046FFF7D5FF1F4C60701F48FFF7D0FFAC
:101DA000A0701D48001DFFF7CBFF1C4988711A4821
:101DB0000830FFF7C5FF1A49087017480C30FFF7C5
:101DC000BFFF1849C0B2088013481030FFF7B8FFB2
:101DD0001549C0B2088010481430FFF7B1FF13490D
:101DE00008700D481830FFF7ABFF114908700A481A
:101DF0001C30FFF7A5FF0F49087007482030FFF798
:101E00009FFF0D4908700D490020086010BD0000BB
:101E100000C0005026000020040010004C000020EC
:101E2000480000204200002044000020190000204B
:101E300017000020180000201B00002000010050A7
:101E400070B52748012401782405012947D10025D0
:101E5000057001F083F8FFF76BFF2248016820222C
:101E6000114301602046FFF74BFF1F4E204671785B
:101E7000FFF774FF201DB178FFF770FF1C491B4866
:101E80008979FFF76BFF19481A49001D0978FFF798
:101E900065FF1648184908300988FFF75FFF1348A7
:101EA00016490C300988FFF759FF104814491030C3
:101EB0000978FFF753FF0D48124914300978FFF7EE
:101EC0004DFF0A48104918300978FFF747FF0748C7
:101ED0000E491C300978FFF741FF0D48056070BDC1
:101EE0004700002000C0005026000020080010001D
:101EF0004C00002048000020420000204400002048
:101F00001A00002017000020180000201B000020ED
:101F100000010050F0B5A3490024CA7885B0012A19
:101F200044D0A14900220A70A04801789E48007858
:101F30000746FEF741FA9E489E4C017048000D1876
:101F4000605D019032210090FEF736FA06469A480D
:101F50002C190670607832210390FEF72DFA97490C
:101F600005460870A07832210290FEF725FA9449C0
:101F7000044608709348C05D8446002843D0012879
:101F80007ED002287DD09048904AC15D491CC9B2DC
:101F9000C155D25D914275D90021C1550C218C4BA0
:101FA0007943C8188278002A6DD1B9E0894ECC7087
:101FB000874F894D3470307841004118C8198470BA
:101FC00044707C542888411C2980FEF7D7F9288862
:101FD00011302880FEF7DEF8C0B21421FEF7ECF9CC
:101FE0007A4A3078115477490C5477490C54401C84
:101FF000C0B230701828DED378483221017078489A
:10200000047005B0F0BD7048704AC15D491CC9B28A
:10201000C155D25D9142BED90021C155052100981C
:10202000FEF7CAF9024638460C2148436849019038
:10203000401800908078824212D805210398FEF75C
:10204000BBF9014600984078814209D805210298E1
:10205000FEF7B2F902465E490198085C824221D936
:102060005C4800210170B80084465A4861460378F4
:10207000C81841004218564811188F78BF1903E05C
:1020800014E02DE04BE051E08F704F785B1C7F191E
:102090004F70815C09198154D8B24E4904280870E8
:1020A000E3D375E047480121C15571E0494800215B
:1020B00001704749BC000278019EA3185D005D19BC
:1020C0006B189E70039E5E70521C029BD2B24B55E1
:1020D0000270042AEFD33B496046401CC85557E0C4
:1020E00039493E4AC85D304C401CC0B2C8551278D0
:1020F00090424DD90020C85532480321364DC15574
:102100002888FEF73BF9288811302880FEF742F82E
:10211000C0B20A21FEF750F92C482278815437E0EA
:102120004078002802D1585C00281CD029480021A2
:102130000170B90018468C46264962460B78D118C2
:102140004A008A1811188F785B1CBF1B8F704F785C
:102150007F1B4F70815C091B8154D9B21D4A042931
:102160001170E9D314E0174D00241B4EEC55308854
:10217000FEF704F9308811303080FEF70BF8C0B25A
:102180001421FEF719F90848104A007811542C540C
:1021900005480178491CC9B20170062900D2C3E67E
:1021A0002FE7000026000020350000202A00002034
:1021B000340000208D00002031000020320000207B
:1021C00033000020EF000020BD000020210100208E
:1021D000B70100202C000020240000203600002041
:1021E0002D000020F0B500230125944603272A4640
:1021F0009A400A4209D006685C003A46A2409643DB
:10220000224664469440264306605B1C082BEED3AE
:10221000F0BD0000F0B51848184BC778184A194DA2
:102220000024194E1949012F05D02F78082F0ED2FE
:102230007F1C2F70F0BDC4701C700C7014700022D5
:1022400011461046FEF720FA2C703470F0BD2C7049
:102250003578EF0700D1FF240C706D1CECB23470A0
:10226000052C03D9447804700124C47012780978CD
:102270001878FEF709FAF0BD260000202E00002095
:102280003000002036000020EF0000202F0000204A
:10229000044603A0FDF7B0FF204604F02BFEFEE746
:1022A000496E2048617264204661756C74204861F3
:1022B0006E646C65720A00000F2801D90007000FD8
:1022C0000A2801D2303000E03730C0B27047000039
:1022D000F8B589480022C1788848012905D00178DD
:1022E000082936D2491C0170F8BD8349CA70844957
:1022F0000A7002708348027083480270834802703B
:1023000083480178002914D00270824C3221207851
:10231000FEF752F88049087060783221FEF74CF8D9
:102320007E490870A0783221FEF746F87C49087093
:10233000F8BD7C487C49027003785C001D196C185C
:10234000A2705B1C6270DBB24A550370182BF3D38A
:10235000DBE7027075486A4D04786C482F78017885
:10236000694D491C2E78CBB26648714975000078DA
:102370000978B4467519674E401C491CAE19C0B2A5
:10238000C9B2012C25D0002F7ED060481A2B0370D3
:102390000CD302705A48142902706548017005D99F
:1023A000027055490120C87062490870554800788C
:1023B00000286AD0420082185B485F4910180978EB
:1023C0002038C1775D49097881775D49097841777F
:1023D000F8BD4B4C002F06D0012F2BD052488378EC
:1023E000002B35D12EE04B4906284B5D52491F4644
:1023F0000B70524975780D70B37851499C460B703B
:10240000404B187002D31A7001202070454846498D
:1024100002701A7894000278A3185E009E1973184F
:102420009F705D70521C6346D2B28B550270042AB5
:10243000F1D3F8BD35482C2B0370FAD3027002207B
:102440002070F8BD4378002B02D10378002B1FD0F9
:102450003C49314C0A70324A304B127826781D784C
:1024600094460C786200A3181A189778641CBF1B56
:10247000977057787F1B5770C25C6746D21BC25457
:10248000E2B20A70182A01E00EE028E0E9D3F8BDB4
:102490002748227001701429F9D9027025490120BA
:1024A00008701549C870F8BD1A49174F4B5D22498D
:1024B00018280B70214973780B702149B3780B7081
:1024C0001049087000D271E70A706146491CC9B210
:1024D0003970A14200D33A700948012101701648B1
:1024E000017811484030C17114490978817114494B
:1024F00009784171F8BD0000260000203600002058
:10250000EF0000202D0000203400002021010020D9
:10251000460000208D000020310000203200002005
:10252000330000202C000020B70100202A000020EA
:102530003A000020160000202E0000202F0000206E
:10254000300000202B00002010B52C4801881131EC
:102550000180811C0878082835D007DC030004F0CE
:102560006BFC081A1D202326292C2F170D2839D083
:1025700008DC09282AD00A282BD00B282CD00C28BC
:1025800006D12CE0FB2830D0FD2831D0FF2832D0F6
:102590000A20087010BDFEF787F810BD04F046FA57
:1025A00010BDFEF741F910BD04F006F910BDFFF7AC
:1025B0008FFE10BD00F0EEFC10BD00F041FB10BD21
:1025C00000F026FA10BDFFF7A5FC10BD00F020F9C1
:1025D00010BDFEF76BFE10BD00F0EAFD10BD01F06E
:1025E000F7FA10BD02F046FE10BDFEF733FA10BD3B
:1025F000FFF710FE10BD00F0CDF910BD2400002043
:10260000F0B53D48002104783C48012C18D0182131
:102610004A008B183A4A00249B18DB1E1E780022C1
:102620005B1CF50945D00125056109252F466D1E66
:10263000EDB2002FFAD100BF00BF00BF00BF3FE0E6
:102640004A008B182E4A9E18002335780022761CEB
:10265000EC090CD00124046109242746641EE4B26D
:10266000002FFAD100BF00BF00BF00BF06E0012469
:1026700004612746641EE4B2002FFAD100BF00BFF8
:1026800000BF00BF0024046118242746641EE4B282
:10269000002FFAD16C06521C250ED2B2082AD7D3CD
:1026A0005B1CDBB2032BD0D3491CC9B21829C7D39A
:1026B000F0BD012505612F466D1EEDB2002FFAD148
:1026C00000BF00BF00BF00BF0025056118252F46D1
:1026D0006D1EEDB2002FFAD17506521C2E0ED2B22D
:1026E000082A9ED3641CE4B2032C97D3491E090622
:1026F000090E8DD1F0BD000048000020404200507E
:10270000B701002070B5FEF72DFB00F035FC03216A
:102710002548090201600168022211430160012479
:102720004460016880221143016020480025056053
:10273000032210211E48FFF755FD1D4801224021AC
:102740004038FFF74FFD1A48012210214030FFF7B3
:1027500049FD18480561174840388461164C1E2110
:10276000204604F0C7FA6068102108436060080240
:10277000124908604B21C901204604F079FA104C37
:1027800001213222C906204604F046FA2168A0033E
:10279000014321600B4921620B49616208492031E4
:1027A0000A6802430A6070BD00400040000100500A
:1027B00040400050404200500000054000E100E071
:1027C00000000140FF0000081BB700000E48002178
:1027D000027A002A0BD0827B521CD2B28273FA2A70
:1027E00005D381730172094B417201221A70C27BB9
:1027F000002A07D00278521CD2B20270FA2A00D303
:10280000C17370470170704711000020470000201D
:10281000F0B55548554BC57855480021554C564A9A
:1028200089B0012D06D01D78052D11D26D1C1D70AB
:1028300009B0F0BD4C4DE970FF25257011704F4A6D
:102840004F4C11702278521C227001701970EFE702
:1028500000211970484907780E78711CC9B203919C
:1028600044490D786B1ED9B20791444909784B1C35
:10287000DBB20593731EDBB206936B1CDBB20493D1
:102880004B1EDBB208933B0004F0D6FA0B070D1386
:102890001A21283035393D424700FF2E01D20398D6
:1028A00011E0012137E0002D01D0079812E002214C
:1028B00031E0324BFF2901D2059813E003212AE0D1
:1028C000002E02D00698107038E0042123E0FF2D7E
:1028D00002D20498207031E005211CE0274B00292A
:1028E00002D00898187029E0062114E0234BFF2934
:1028F000E2D307210FE0002DD7D108210BE0FF2EF6
:10290000CDD3092107E01D4B0029EAD10A2102E0BD
:10291000FF2DDED30B21017010E0002ED2D100215B
:102920000170184803785B1CDBB20370142B05D9C7
:1029300001700D490120C870134908701348002127
:1029400001700E4D1249237817782E7802785400C2
:1029500015196C18A370521C6770D2B24E550270D4
:10296000182AF3D364E70000260000203600002078
:10297000EF0000202E0000202F000020300000205B
:10298000BD0000203A000020160000202C0000208E
:10299000B7010020F0B518481849C778184A194DF2
:1029A0000024194E194B012F05D02F78082F0ED275
:1029B0007F1C2F70F0BDC4701C700C70147000224E
:1029C00011461046FDF760FE2C703470F0BD2C707F
:1029D0003578EF0700D1FF241C706D1CECB2347009
:1029E000052C03D9447804700124C4701278097846
:1029F0001878FDF749FEF0BD260000202F000020CA
:102A00003000002036000020EF0000202E000020C3
:102A1000F8B57C487C4FC2780024012A74D07B48EA
:102A2000002202707A48794D0188774CC91D0180D7
:102A30002978605C401C6054FDF7ACFBC0B20521F6
:102A4000FDF7BAFC2E78A05D81425BD20020A05534
:102A5000704801783046FDF7AFFC6F486F4F01704A
:102A600048000D18785D3221FDF7A6FC6C4904463C
:102A70000870EF1978783221FDF79EFC6949054608
:102A80000870B8783221FDF797FC674908706749EC
:102A90008A5D002A32465DD00C235A43644B964629
:102AA000D21894469378634A925D17466743BB42B7
:102AB0000CD863465B7817466F43BB4206D85C4F21
:102AC0007346FB5C5B4F424393427AD95A490022DA
:102AD0000A705749B2009446574A634616789A19C5
:102AE0005300D3185A189778761C3F1B9770577865
:102AF0007F1B5770CA5C121ACA54F2B24E4B042A9A
:102B00001A70E9D375E0FFE74B4DC470484E2C7046
:102B10002878410041188A199470547074544349BC
:102B20003C540C543A490888421C0A80FDF726FCA4
:102B3000FDF730FBC0B21921FDF73EFC3D4A287875
:102B40001A311154401CC0B228701828E0D33B48F9
:102B50000470F8BD0C235A43354B9646D218944660
:102B60009378344A925D17466743BB420CD3634661
:102B70005B7817466F43BB4206D32D4F7346FB5C11
:102B80002C4F424393421DD22B4900220A70284900
:102B9000B2009446284B62461E7892195300D3180F
:102BA0005A189778761C3F19977057787F19577085
:102BB000CA5C1218CA54F2B21F4B042A1A70E9D325
:102BC00017E00AE00120114C8855FDF7E3FAC0B286
:102BD0000A21FDF7F1FB22780AE000200B4C885512
:102BE000FDF7D8FAC0B21921FDF7E6FB22781A31B9
:102BF000B95406490878401CC0B20870062800D2B3
:102C000010E7F8BD26000020BD00002035000020A0
:102C1000240000202A000020340000208D00002025
:102C2000310000203200002033000020EF0000209F
:102C3000B7010020210100202C00002036000020D8
:102C4000F0B5B748B84A85B0C178B64D1278009251
:102C50000023B64CAF786E782A78012907D0B449A2
:102C6000087828287ED2401C087005B0F0BD0021ED
:102C7000C17032211046FDF79FFBAE4908700390EA
:102C800032213046FDF798FBAB49087002903221A3
:102C90003846FDF791FBA94908700190009801287A
:102CA00035D000202070A14C009920780190FDF7CC
:102CB00083FBA34800220170A2484B000270994A8E
:102CC000C918535C891802934A788D789446019A02
:102CD0009D4994000278029BA6187700F7197E1888
:102CE000B3706346521C7370D2B2CD550270042A81
:102CF000F0D301998D48491CC9B201700629D2D37D
:102D00008B4900200870914908708D49ACE700207C
:102D100020708C488C49854A1278D30728D000232C
:102D20000370039B32246343DBB20493029B63432F
:102D3000DBB20093019B6343DBB29C4695000378B2
:102D4000049FEC186600A6197418A770009F67709E
:102D50005B1C6446DBB28C550370042BEFD3734BC2
:102D6000521C00E025E0D2B21A70062AD3D3C7E77E
:102D700000230370039B14246343DBB20493029B80
:102D80006343DBB20093019B6343DBB29C46950037
:102D90000378049FEC186600A6197418A770009FAA
:102DA00067705B1C6446DBB28C550370042BEFD359
:102DB000D5E70B7000991846012952D06049644E3E
:102DC0000A785300D318EF5C37705B190397614D95
:102DD0005E782E7002969D785F4B521C1D70D2B2A9
:102DE00001950A70009B9A4200D30870052121705A
:102DF00054485549002202704C4A127804929200BD
:102E00009446121F00920278009B9B185C001E19CA
:102E100063469B185C0075181C196318AF789F7087
:102E20006D785D70521C8B5DD2B20B550270042A16
:102E3000E9D3049A3D4B521E1206120E1A70D9D1D4
:102E40000270D2B25300D4186318039D9D70029D86
:102E50005D70521C019BD2B20B550270042AF0D354
:102E600003E73A490B78002B45D0394B1A70394AA1
:102E70001670394A1770087005212170314832499F
:102E800000220270294A1278019292009446121F81
:102E900000920278009B9B185C001E1963469B18E9
:102EA0005C0075181C196318AF789F706D785D70A1
:102EB000521C8B5DD2B20B550270042AE9D3019BE0
:102EC0001A4A5B1E1B061B0E1370D9D1002202701A
:102ED0001F4C204B204A25781C7817780278530025
:102EE000D61873189D70521C5C70D2B28F55027048
:102EF000042AF3D3B9E60F4A142312785A43144B29
:102F00001A700D4A142312785A43124B1A700B4A46
:102F1000142312785A43104B1A7001220A70ABE73F
:102F2000260000208D0000202A000020350000200F
:102F30003600002031000020320000203300002045
:102F4000340000202C000020B7010020EF000020FA
:102F50002E0000202F0000203000002010B5592145
:102F60000448162288230160026003600468002C74
:102F7000F9D010BD0001005010B5592104481622A7
:102F800088230160026003600468002CF9D010BD42
:102F900000010050F8B56B486B4EC0786B4F0024B1
:102FA000012805D03078052837D2401C3070F8BD94
:102FB00064486849C4706648047002785300D318A6
:102FC0005D18AC70521C6C70D2B2CC540270182ACE
:102FD000F3D36148664D047060483C7004706048EB
:102FE000347004705F48322104705F4804705F4899
:102FF00004702878FDF7E0F95E490870687832219E
:10300000FDF7DAF95C490870A8783221FDF7D4F9A8
:103010005A4908705A480470F8BD4C483470077813
:103020005448514900780A78844653484F490678F5
:1030300052484A4B05784B48097800781B78002F96
:1030400004D0012F1FD0022F66D127E05F00DB19CB
:10305000474FFF5C874207D8454FDF197B78934283
:1030600002D8BB788B4208D93E4F604438703E4846
:10307000921902703D4849191DE034480121017040
:103080003748047048E036480178491CC9B20170DD
:10309000322941D304702D4802210CE00746174322
:1030A0000F430AD02F4F6346C01A38702E48921B28
:1030B00002702E48491B01702EE024485B1C0470EE
:1030C0002648D9B22F4A0170127891420DD32E4969
:1030D00004700A78521CD2B20A70062A05D90C7004
:1030E000184A0121D170294A11700078204D410001
:1030F0004618A85D3221FDF75FF91E497519087061
:1031000068783221FDF758F91B490870A8783221F8
:10311000FDF752F9194908700D48134B0470114C12
:10312000124A25780B491C78177802785300D61874
:1031300073189D70521C5C70D2B28F550270182AA1
:10314000F3D3F8BD2600002036000020EF00002059
:103150002C000020B7010020BD000020340000201A
:10316000210100202E0000202F0000203000002030
:103170008D000020310000203200002033000020AC
:10318000460000202A0000203A00002016000020FF
:1031900006498A691202FCD408600A2804D18869A9
:1031A0000002FCD40D2008607047000000000540BC
:1031B000F8B5254E0023F178244C2548012913D079
:1031C0000188244D491C8AB201210280012A16D0AF
:1031D0001746FF3FCD3F05D005277F02BA4210D1E9
:1031E000022012E0217011E0F37003801A4823706E
:1031F0000022037011461046FDF746FAF8BD237011
:1032000004E0164FBA4203D103202070297006E073
:10321000134DAA4203D103801248F1700170207847
:10322000002808D0012809D002280AD00328E5D1B7
:1032300000F040FBF8BD00F017F8F8BD00F0C6F84C
:10324000F8BD00F0CBFAF8BD2600002038000020C1
:103250003E0000203900002041000020840D0000C5
:103260009411000016000020FEB54A484A4D01782E
:1032700000244A4E012905D02878022819D2401C82
:103280002870FEBD0022047011461046FDF7FCF9BF
:1032900043482C700470434804704348047043480A
:1032A000047043480470434834700470424804700A
:1032B000FEBD00202870394801783C480078401C49
:1032C000C4B237480029077836480678364805786A
:1032D0003748007802D0012953D133E0410040182B
:1032E00036490090085C1921FDF766F8014634481C
:1032F00001700191314900984018029040781921DD
:10330000FDF75AF801462F480170009102981921E3
:103310008078FDF751F82C49214A08700199281846
:103320007918117000991F4A711811701E49192CD3
:1033300008701E48047024D3002101701748012131
:1033400001701EE01E4A16491278BA1A0A701D4A08
:1033500014491278B21A0A701B4A13491278AA1A31
:103360000A701249192C0C700BD300220A700B4BF7
:10337000401C0F49C0B21A700870022801D90220FF
:103380001870094802780748017805480078FDF769
:103390007BF9FEBD390000203600002040000020EF
:1033A0002E0000202F000020300000202B000020E5
:1033B0003400002037000020410000208D00002054
:1033C000310000203200002033000020F0B5F44826
:1033D000F44C0178F44F00258DB001292FD0F44929
:1033E000204602780978F148F24B491C00781B7896
:1033F000C9B20A91F04904930978401C4B1CDBB216
:103400000893049BC0B25B1CDBB20793531CDCB275
:10341000EA4B1E78731CDBB20593E94B1B780093D3
:103420007300F318E74E03939B190293130003F004
:1034300003FD09215BC3FDC3FDC3FDFCFB000022AE
:10344000057011461046FDF71FF9D848DE4A057091
:10345000257038463D7001785554491CC9B2017039
:103460003229F8D3D4480570D1480570D148057089
:103470000DB0F0BDCD4A05281070F9D300201070B2
:10348000CB4A0A981070032822D90023137006290A
:103490001ED23B70CB4A4B003846CB18D75C9A18EB
:1034A0005578927889008C46039202786146891893
:1034B0004B00CE18C549521C73189F705D70039B5A
:1034C0008B55D1B201700429EFD3BB480899017024
:1034D000B849079808703228CAD3B2480621047048
:1034E000BB4801700020C9E0B0490A280870BFD36A
:1034F00000200870AE480A99017003294AD30021C0
:1035000001700522B34B3A7000201870A649AF48ED
:103510000978049189008C461D78614649194A0052
:103520008E1831180A46203A977D8F70577D4F705C
:10353000117D81556D1CE9B219700429ECD30499F1
:10354000994A491E0906090E1170DDD100221A7030
:103550009F4B9C4A1B785D009C465D19535DAA18E1
:10356000567895789B4909784A008F183A189370D5
:103570005670491CC9B2974AC55511700429F1D338
:1035800061469348491CC9B20170009A914201D327
:103590000021017090490878401CC0B20870502882
:1035A0009AD3002008707F490C70834908708149C4
:1035B0000870824908705BE77C4914280870FAD3C8
:1035C0000D700521814B83483970002101707649C7
:1035D00009780A9189008C460578614649194A00A4
:1035E0008E18F1180A46203A977D8F70577D4F70DC
:1035F000117D99556D1CE9B201700429ECD30A9A2A
:103600006949521E1206120E0A70DED100210170A5
:103610006C49039A895C8C46029949780491029915
:103620008E786546027802E0B5E073E028E051004C
:1036300057186649521C7B189D70049D5D70CE55CD
:10364000D1B201700429ECD35C4805990170009A4D
:10365000914201D3002101705649079A0A70082A45
:10366000A9D3504A14700278521CD2B20270009B47
:103670009A4201D300220270002008704E4999E757
:103680004A491428087096D30D70504951483D702E
:1036900000220270444A1278944695000378EA1892
:1036A000560096197218977B9770577B5770127B4C
:1036B0008A555B1CDAB20270042AEFD36246521CB0
:1036C000394BD2B21A70052AE2D3002202703D4A69
:1036D000039BD55C029A5378927801784E008F193B
:1036E0003A4E491CBE192036B5777377C9B2327786
:1036F00001700429F1D3314905980870009A90426D
:1037000001D30020087004982A490828A8D3254826
:103710000470B1E725490A280870A1D30D7005216E
:1037200039702A492B48002202701F4A12780592EC
:10373000920094460578624652195300D6187218C2
:103740001346203B9F7D97705F7D57701A7D8A5589
:103750006D1CEAB20270042AECD3059B124A5B1E70
:103760001B061B0E1370DED10022027003785D0071
:103770005E197518AA705B1C6A70DBB28A550370FB
:10378000042BF3D30C49089808700828BED30548C9
:1037900004700A706CE60348FF21017068E60000BF
:1037A00039000020400000202B00002036000020BF
:1037B00037000020410000203B00002034000020A2
:1037C0002A0000208D00002085010020B701002084
:1037D000530100202C0000203C000020F8B52948AF
:1037E000294F0178294D0024294E01292DD0387800
:1037F000401CC0B23870082826D33C702978304667
:103800000378062933D223485D000470224C5B19EB
:10381000E55C1B1900955C789B78204AA6469C467F
:103820008F000378009CFD186E00AE19B518AC70BF
:1038300074466C705B1C6546DBB295550370042BB7
:10384000EFD31248491C0170F8BD002204701146E4
:103850001046FCF719FF12483C7004703470114890
:103860002C7004701048047010480470F8BD5B1C84
:103870002C70D8B20E49307009788842F6D3347073
:10388000F8BD000039000020360000203B00002079
:10389000340000202B0000208D000020B701002004
:1038A000400000203C000020370000205301002091
:1038B0002A000020F0B5B4480024017885B0012921
:1038C00022D0B248B94B0778B14800780390B1488C
:1038D00000780290B04800780190B0481B780678D4
:1038E000AF485D000178AF485B190278AE48B04D33
:1038F00000785D19401C0093C0B23B0003F09CFAB5
:10390000052F76B5CFFF74000022047011461046D3
:10391000FCF7BAFE9E48A54D04709E48A44E047064
:103920009D480470287841004718F05D1921FCF784
:1039300043FD9A49BE19087070781921FCF73CFDC7
:1039400097490870B0781921FCF736FD9549087041
:1039500095480470974804702C708C48CCE0924BCA
:103960000828187040D31C700398894B8019C0B286
:103970001870029D874B6918C9B21970019E864B59
:10398000B218D2B2864F874D1A70FCF77DFE894877
:103990000178491CC9B201700A2925D904707B48F5
:1039A000864A0178491C0170834804707F48017879
:1039B000491CC9B201701278914200D3047000789A
:1039C0007B4C41004618A05D1921FCF7F5FC7349BA
:1039D0003419087060781921FCF7EEFC3870A07873
:1039E0001921FCF7E9FC287005B0F0BD3001801BFF
:1039F000674BC0B218700B01591A664BC9B21970E7
:103A000013019A1A644BD2B2654D664E1A70FCF7D8
:103A10003BFE69480178491CC9B201702829E3D9E5
:103A200004705A48654A0178491C01705F48017862
:103A3000491CC9B201701278914200D30470007819
:103A40005B4C41004718E05D1921FCF7B5FC534978
:103A50003C19087060781921FCF7AEFC2870A0783A
:103A60001921FCF7A9FC3070BEE751480099494A7A
:103A7000405C4749484B087069781170AA781A7001
:103A8000FCF702FE4C480178491CC9B2017050296C
:103A9000AAD904703D480178491C017072E0424B7C
:103AA00006281870A0D31C700398394B801BC0B235
:103AB0001870029D374B691AC9B21970019D364BB7
:103AC000AA1AD2B21A70FCF7DFFD3A480178491CF5
:103AD000C9B201700F2987D92C4904700A78521C89
:103AE0000A703549364A0C7001785454491CC9B2E1
:103AF00001703229F8D33348047075E7FFE72A498B
:103B000005280870B0D30C702E490F78062F15D2F7
:103B10002848B90004708C460278614689184B0029
:103B2000CE182949521C73189C705C708C55D1B208
:103B300001700429F0D323487F1C077023480178C3
:103B4000491CC9B2017032298ED310490C7004701F
:103B50000F4804700F4804700F480470144800990F
:103B6000405C1921FCF728FC0C4908706878192181
:103B7000FCF722FC0A490870A8781921FCF71CFC04
:103B8000084908700B48B7E73900002040000020C2
:103B90002E0000202F0000203000002031000020E7
:103BA00032000020330000203600002034000020C6
:103BB0008D0000202B0000203C0000202A00002067
:103BC000850100203B000020B701002041000020BB
:103BD000F8B5284E0024F178274B284801290DD04C
:103BE0000188274D491C8AB201210280012A0ED08A
:103BF000CD27FF00BA420CD1197019E0F47004808F
:103C000000221C7011461046FCF73EFDF8BD1C70EA
:103C10000EE01C4FBA4201D1022008E01A4FBA420E
:103C200001D1032003E0194FBA4203D104201870D8
:103C3000297006E0164DAA4203D104801548F170A0
:103C400001701878030003F0F7F80505080B0E1152
:103C50000400DBE700F098F9F8BD00F01DF8F8BDAE
:103C600000F0B8FCF8BD00F02BFFF8BD01F086F9BC
:103C7000F8BD000026000020380000203E00002093
:103C800039000020520D00006E0F0000921300005A
:103C9000581B000016000020F0B5A748A74D01787A
:103CA000A74E002485B0012940D02878401CC0B21E
:103CB0002870052838D32C70304605780495A24921
:103CC000A0480B780078591C401CC9B2C0B29A00B9
:103CD00084460091002D42D0012D7DD0062B1BD2B1
:103CE0009A485D0004709A4C5B19E75C1B195C787C
:103CF00098499B7801930378D5186E00AE19751812
:103D0000AF706C705B1C019DDBB28D550370042B92
:103D1000F1D38D48009901708A49604608702828BF
:103D200002D38748FF21017005B0F0BD0022047066
:103D300011461046FCF7A8FC8748032101702C703F
:103D400082483470854A047001785454491CC9B2C1
:103D500001703229F8D37C4804707A484EE0062B73
:103D600021D27A487C4B04701B7879495E009B19FC
:103D7000CE5C591803964B78029389780191754966
:103D80000378039FD5186E00AE197518AF70029FA7
:103D90006F705B1C019DDBB28D550370042BEFD35C
:103DA0006948009901706749604608703228BBD3A2
:103DB00004996348491C017069486A4D6A4E6B4F0B
:103DC00004702888113080B22880FCF7D7FAFCF7FD
:103DD000E1F9C0B2142100E012E0FCF7EDFA604A0C
:103DE000634B10783154012119543C54401CC0B22B
:103DF00010703228E5D35F4804705F48047093E781
:103E0000574800210170564859490078095C0291D1
:103E100000294BD001296FD000214C4A4D4B117025
:103E2000870014783D196E00AE19F518A970641C4E
:103E30006970E4B299551470042CF2D34C4A1154B1
:103E400047480178491CC9B201700629DBD34948AB
:103E50000178491CC9B201703229D0D90024384DEB
:103E600004703D4E2C703078444B41004218384964
:103E7000885C18705218424B51781970414B9278F7
:103E80001A70FCF701FC3078401CC0B23070052875
:103E900001D9022028702D48304A0470017854540A
:103EA000491CC9B201703229F8D354E727490022CE
:103EB000294B0A701B78264A5C001B19D45C9A189F
:103EC000019453780093927885009446214A0B78A8
:103ED000019FEC186600A619B418A770009F6770C0
:103EE0005B1C6446DBB294550B70052BEFD3029933
:103EF0001F4A491CA3E7FFE71C491B4C0A5C184DED
:103F0000521CD2B20A54235C9A4299D900220A5414
:103F100014490888113080B20880FCF72FFAFCF7AA
:103F200039F9C0B21421FCF747FA28782154104916
:103F30000A5C521C0A5483E7390000203600002036
:103F400040000020410000203B0000202B0000200A
:103F50008D000020B70100203400002085010020E2
:103F60002C0000202400002021010020BD000020A2
:103F7000EF0000203C000020370000202E00002031
:103F80002F00002030000020F0B5F74BF7481D78D7
:103F90000478F749F74A8DB0012D2CD008460778F0
:103FA000F5480178F548491C0078CBB2401CC0B2F6
:103FB0000A90781CC0B20990002F57D0F048F14900
:103FC000057809786E00681CAE19EF4D8C46491CC7
:103FD0007519012FE84FC0B2C9B23B707ED00A2BD1
:103FE0007DD300233B7067463B0002F025FF06F9B6
:103FF000F8F7F6F5F4F300201870E44BDE4D187076
:1040000028700870E249E34D0870E14F2146387886
:104010000790FCF7D1F9DD480A460170D549002028
:104020000870D9485300D318C25C181846788078B5
:104030000390079880008446CE48634601785B1859
:104040005F00DF197B199A705E70491C039BC9B22F
:10405000EB5501700429EFD30798CD49401CC0B23D
:1040600008700628D1D30020C449A4E2C248142B0A
:10407000037034D300210170C648C74C8378237085
:104080000393C64C4378237001930378C44C9C4639
:104090002370BF4B19700020BD4910700B78BD48CC
:1040A0009D00147829194E008E1931188F7B8F705E
:1040B0004F7B4F70097B8155641CE1B2117004295C
:1040C000EFD35B1CB24CD9B221700629E3D3002197
:1040D000117014786300E3181B1801E01DE055E02F
:1040E0002033039D9D77019D5D7765461D77641C98
:1040F000E3B21370042BECD3A0480A9A0270142A7E
:1041000044D301709A48099A0270A0480170A548EA
:1041100001709C4801709A4837E00A2B36D300237F
:104120003B7067463B0002F087FE0604335C7EA1CD
:10413000C3EC974F00233B701370934A925D039238
:104140006A780492AD789A0094468A4A6346127857
:10415000039F9B185E009E198E4B521CF3189F7094
:10416000049F5F708B4BD2B29D55824B042A1A700C
:10417000EBD3BEE08348017080480A99017064293E
:1041800004D3002101707A48099901700DB0F0BD87
:104190007F4F02233B70002717707B4F9B00BE5D53
:1041A00003966E780696AD789C460895137865461A
:1041B000ED186F00ED19774F039EEF19BE70069E44
:1041C0007E70744F5B1C089EDBB27E551370042B0F
:1041D000ECD38EE0BCE199E176E153E12FE10CE113
:1041E000E2E06B4F01233B7000271770664F9B0086
:1041F000BE5D04966E780396AD789C46089513785C
:104200006546ED186F00ED19624F049EEF19BE7000
:10421000039E7E705F4F5B1C089EDBB27E55137061
:10422000042BECD365E05A4F05233B700027177031
:10423000554F584ABE5D03966E780496AD789B0044
:104240009C4608954B4B65461B78039FED186E0006
:10425000AE19B518AF70049F6F70089D95555B1C23
:10426000DBB2444D042B2B70ECD342E0484F0323C8
:104270003B7000271770444F9B00BE5D03966E781D
:104280000496AD789C46089513786546ED186F0046
:10429000ED19404F039EEF19BE70049E7E703D4F96
:1042A0005B1C089EDBB27E551370042BECD320E020
:1042B000374F04233B7000271770334F9B00BE5DC0
:1042C00004966E780396AD789C46089513786546FB
:1042D000ED186F00ED192F4F049EEF19BE70039E6D
:1042E0007E702C4F5B1C089EDBB27E551370042B36
:1042F000ECD3234AA042107000D23BE7002010709C
:1043000038E7234B0021204F1970BE5D02966E786E
:104310000496AD780195002111701D4B1D491B7845
:104320000B939B009C4613786546ED186E00AE1902
:104330007518029FAF70049F6F705B1C019DDBB20C
:104340008D551370042BEED30B99114B491CC9B238
:1043500019700629DFD30A49A042087001D3002052
:104360000870002106E70000390000202A00002024
:10437000400000202C000020360000203C000020DF
:1043800053010020EF0000208D00002034000020A9
:104390002B000020B70100202E0000202F0000205D
:1043A000300000203B000020844F00233B7013703E
:1043B000834A925D04926A780392AA7806929A00E0
:1043C0009446804A65461378049FED186E00AE1936
:1043D0007D4D5B1C7519AF70039F6F707A4F069D02
:1043E000DBB2BD551370042BEBD3784AA04210709A
:1043F00001D3002010707648C7E6704F02233B704F
:10440000002717706E4F9B00BE5D03966E78049672
:10441000AD789C46089513786546ED186F00ED1948
:10442000694F039EEF19BE70049E7E70664F5B1C41
:10443000089EDBB27E551370042BECD3D5E75F4F9B
:1044400001233B70002717705D4F5F4ABE5D0396E6
:104450006E780496AD789B009C460895594B65464E
:104460001B78039FED186E00AE19B518AF70049F4E
:104470006F70089D95555B1CDBB2524D042B2B7061
:10448000ECD3B2E74D4F05233B70002717704C4F1C
:104490009B00BE5D03966E780496AD789C460895A9
:1044A00013786546ED186F00ED19474F039EEF191D
:1044B000BE70049E7E70444F5B1C089EDBB27E552E
:1044C0001370042BECD390E73C4F03233B70002781
:1044D00017703B4F9B00BE5D03966E780496AD78D7
:1044E0009C46089513786546ED186F00ED19364F18
:1044F000039EEF19BE70049E7E70334F5B1C089EB6
:10450000DBB27E551370042BECD36EE72B4F0423E4
:104510003B70002717702A4F9B00BE5DB4466E7833
:104520000396AD78089507931378079D6646ED18B6
:104530006F00EF19244D5B1C7D19AE70039E6E70E9
:10454000214E089DDBB2F5551370042BECD34CE7DC
:104550001A4B114600271A4A1F70925D02926A7820
:104560000692AA78089200220A70144A12780492DD
:10457000920094460B786546ED186E00124AAE190B
:10458000B518029FAF70069F6F70089D95555B1C14
:10459000DAB20A70042AEDD3049A084B521CD2B244
:1045A0001A70062ADFD30949A042087001D30020FF
:1045B0000870074900200870E8E500002B00002083
:1045C0008D0000202C000020B701002053010020A6
:1045D000EF000020FEB5FE49FE4E0A780023FE489B
:1045E000012A1ED00578FE48FC4F00783C78401C1C
:1045F000C1B2FC48FC4F027800946C1CE4B2A446A3
:10460000501C54001419E219C0B2002D13D0012D12
:1046100058D0022D7ED0032D7DD0EF4905200870A3
:10462000FEBD0B70EF490B7033700370EC480370E4
:10463000EE480370FEBDEE4B00261E70ED4B1E7063
:10464000537895783C5DB2000192EA4E3678B646D2
:10465000724456009619E84AB718BC707B7095559D
:104660007646761CF6B2E34F042E3E7001D2019AD4
:10467000EBE7DF4F03263E70DE4F00223A70B200B8
:104680000192DC4A019E12789646B218560096199D
:10469000D94AB718BC707B7095557246521CD2B27D
:1046A000D44E042A3270ECD3CD4A14291170C1D3F0
:1046B0000023CC4913700870009A90423ED2C6483D
:1046C000614687E0CA4E012535700023C94EAD0012
:1046D000337053783C5D92780195C64D019E2D78DC
:1046E000AE4675196E00AE19C34D7719BC707B705C
:1046F000AA5575466D1CEDB2BE4E042D3570ECD337
:10470000BB4D04272F70BB4D00262E70BD000195B8
:10471000B84E01E014E05FE03678AD196F00EF1994
:10472000B54D761C7D19AC706B70B34DEA55F5B282
:10473000B04E042D3570B7D2019DE9E70B70BEE78E
:10474000AB4E022535700023AA4EAD00337053786E
:104750003C5D92780195A74E3678AD196F00EF1940
:10476000A54D761C7D19AC706B70A34DEA55F5B262
:10477000A04E042D357001D2019DECE79C4D05271C
:104780002F709C4D00262E70BD000195994D019E05
:104790002D78AE4675196E00AE19974D7719BC701D
:1047A0007B70AA5575466D1CEDB2924E042D357086
:1047B000ECD38B4A1429117000D23BE70021117011
:1047C000884A1070009B984200D31170824862465C
:1047D00002708A480170FEBD3078401CC0B2307053
:1047E0000228F8D300203070834882787F48007810
:1047F0000190410041187C480D18002A06D17E48DE
:104800004278002A02D10078002855D0785C19211E
:10481000FBF7D2FD7A490646087068781921FBF744
:10482000CBFD0446774819210470A878FBF7C4FD36
:104830007549024608706E4800216E4B0170197070
:10484000890000916B49009B09786B488C46591888
:104850004B00CB1819188F78BF1B8F704F783F1BF8
:104860004F70C15C891AC1546146491CC9B2614B81
:1048700004291970E6D35E490320087000235D49BE
:1048800080000B705C4900905A48009B0078844679
:1048900018184300C31858188778BF1B87704778CB
:1048A0003F1B4770C85C801AC8546046401CC0B2A9
:1048B000504B04281870E7D35048007800900F2818
:1048C0005ED34D4CA07B002805D1607B002802D12F
:1048D000207B002854D0E8781921FBF76DFD48496A
:1048E0000746087028791921FBF766FD45490646F9
:1048F000087068791921FBF75FFD014642483C4A80
:1049000001700120107000233A4A80001370029059
:104910003848029A0078844610184200821810190C
:104920008378DB1B837043789B1B4370A05C401A29
:10493000A0546046401CC0B22E4A04281070E7D331
:104940002B48042202702B48002303709000029031
:104950002848029A007884461018420082181019DC
:104960008378DB1B837043789B1B4370A05C401AE9
:10497000A0546046401CC0B21E4A04281070E7D301
:1049800000981E2879D31C4CA07E002805D1607E9B
:10499000002802D1207E002878D0A8791921FBF7C1
:1049A0000BFD174907460870E8791921FBF704FD4C
:1049B0000646144819210670287AFBF7FDFC0146CB
:1049C00011480B4A0170022010700025094B1DE0B0
:1049D0003900002036000020400000202A0000207E
:1049E0003C000020340000208D000020EF0000205B
:1049F0002B0000202C000020B70100203B000020ED
:104A000031000020320000203300002080001D70A3
:104A10008446264A60461378C0184200821810194E
:104A200085785B1CED1B85704578AD1B4570A05CDF
:104A3000401AA054D8B21D4A04281070E9D31C4A69
:104A4000052010700023194A800013708446174A0D
:104A500060461378C01842008218101985785B1CD4
:104A6000ED1B85704578AD1B4570A05C401AA054C5
:104A7000D8B20E4A04281070E9D300981F2801D339
:104A8000A9E603E00B480178491CA3E60A49002087
:104A90000870019B094ADB1CDBB21370092B01D3A0
:104AA00004220A7003490870ECE700002C00002083
:104AB0002B0000203B00002040000020EF000020E1
:104AC000F0B5FF49FF480A7885B0012A27D005785C
:104AD000FD48002D0778FD4800788446FC480078A2
:104AE0000190FC480378FC480178FC48027845D0E6
:104AF000F448FC4E0078401CC0B20290F84836786A
:104B000004780096601CC0B2012D7DD0022D7CD0AF
:104B1000032D7BD0EB490420087005B0F0BD0024C4
:104B20000C70F04DF0492C700C700470EC4822466B
:104B30000470EE4821460470ED4804702046FBF7EF
:104B4000A3FDE1480470E1480470E148047028784E
:104B5000E84C41004518605D1921FBF72DFCDD494B
:104B60002C19087060781921FBF726FCDA490870C7
:104B7000A0781921FBF720FCD849CDE7F818D24DD1
:104B8000C0B2D24B61442870C9B21970019DD04B9C
:104B9000AA18D2B2CF4C1A70FBF776FDD44D287804
:104BA000401CC0B228701928B7D3C648D14E01782E
:104BB000491C0170CB48007841004718F05D19216D
:104BC000FBF7FAFB2070BC1960781921FBF7F4FBA6
:104BD000C1490870A0781921FBF7EEFBBF490024FA
:104BE0000870BF48C54E04702C70C34DC44F2C7064
:104BF000C448297844543088113080B23080FBF7A3
:104C0000BDFBFBF7C7FA02E00EE0A4E030E1C0B262
:104C10000521FBF7D1FB2878491D3954401CC0B24F
:104C200028703228E4D378E7062C4CD2B24800240E
:104C30000470B148B34C0078245C012C3CD0B24CD9
:104C4000AF4E255C6D1CEDB22554365CB5421ED3CB
:104C500000252554AD4C257084000194AB4C019D7A
:104C60002478A4462C1965006619A94C3519AF782B
:104C7000FF1AAF706F787F1A6F70A55DAD1AA555DA
:104C80006446641CE4B2A14D042C2C70E6D30C24C1
:104C9000054665439E4C2E19B778002F0CD17678C7
:104CA000002E09D1645D002C06D18D4D2C78641C3A
:104CB0002C70944D01242C54401C8F4CC0B2207099
:104CC0000628B6D301E0864908708548017837295F
:104CD000A9D3002404707B4802990170009981488F
:104CE000491CC9B28B4A01701278914200D30470FA
:104CF0000078804D41004618A85D1921FBF75CFB48
:104D000074497519087068781921FBF755FB7249C9
:104D10000870A8781921FBF74FFB7049764D087091
:104D2000764E774F2C70774829784454308811306C
:104D300080B23080FBF722FBFBF72CFAC0B20521D2
:104D4000FBF73AFB2878491D3954401CC0B2287043
:104D50003228E8D3E1E6634D2D786E00AD19654E3B
:104D60000195AD190095062C55D2634800240470B6
:104D70006148644C0078245C012C45D0624C604E44
:104D8000255C6D1CEDB22554365CB5421ED3002562
:104D900025545E4C2570840003945C4C039D24785C
:104DA000A4462C1965006619594C3519AF78FF18BF
:104DB000AF706F787F186F70A55DAD18A55564460C
:104DC000641CE4B2514D042C2C70E6D30C244443F3
:104DD0004F4DA4466519474C019EAF78A45DA7428C
:104DE00012D1009C6D786478494EA5420CD164467E
:104DF000355D009CA478A54206D1394D2C78641C01
:104E00002C70404D01242C54401C3B4CC0B22070EF
:104E10000628ADD301E032490870314801783729BE
:104E200098D30021017027480299017031480199F7
:104E3000465C19213046FBF7BFFA01462548017050
:104E40000098192145782846FBF7B6FA0146224812
:104E500001700098192184782046FBF7ADFA1F49AC
:104E6000087019480670194805701948047054E60E
:104E7000F81A154C6346C0B2144D591A2070C9B2C5
:104E80002970019B124E9A1AD2B23270FBF7FCFBCA
:104E900017480178491CC9B201701929E7D30024C9
:104EA000047010481B4A0178491CC9B2017012787D
:104EB000914200D304700078410047180D482BE060
:104EC00039000020400000202E0000202F0000208C
:104ED000300000203100002032000020330000208C
:104EE0003B00002034000020360000203700002066
:104EF000410000208D0000202C0000202400002014
:104F00002101002085010020BD0000202B00002091
:104F1000B70100202A000020C05D1921FBF74CFAE0
:104F20000F4908700F4819213F187878FBF744FAA9
:104F30000D490870B8781921FBF73EFA0B49087043
:104F40000B480D4904702C700A48347004700A78BC
:104F5000521CD2B20A70022A89D304210170DCE506
:104F6000310000208D00002032000020330000209E
:104F70002E0000204000002037000020F0B5B1488E
:104F800000270178B04CB14DB14E89B0012912D142
:104F90000022077011461046FBF776FBAD480770FC
:104FA000AD480770AD480770AD48077027702F7087
:104FB000AC4837700770A8480178491CC9B2017025
:104FC00003296ED90770A6480178491CC9B201703F
:104FD000282908D90770A1480178491CC9B2017075
:104FE000052900D907709D480078030001F024FFCF
:104FF00006040B121921293037702078401D2070CB
:105000002878C01F13E02F703078801F3070207810
:10501000093014E027702878C01D28703078001FF0
:1050200015E037702078401F2070287808302870ED
:105030000EE02F703078C01C30702078C01F2070B8
:1050400006E027702878083828703078C01C307047
:105050008448854A01780B0001F0EEFE06042445E1
:105060006687A8C91770814A814B17702478059408
:105070002C78049434780394BC00A44614786546D4
:105080002D196E00AE19F518059FAF70049F6F7053
:10509000641C039DE4B29D551470042CEED3491C8E
:1050A000CCE0CCE0022313701A46704B92001F70C4
:1050B000247805942C78009434786D4BA4460192A2
:1050C0006A4A019D1478059F2D196E00AE19F518D6
:1050D000AF70009F6F70641C6546E4B29D551470FC
:1050E000042CEDD3DBE7012313701A465F4B9200CB
:1050F0001F7024785E4BA4462C7804943478039473
:1051000002925A4A029D147867462D196E00AE1914
:10511000F518AF70049F6F70641C039DE4B29D5539
:105120001470042CEDD3BAE7052313701A464F4BC5
:1051300092001F70247805942C7804944C4B34789A
:1051400094460394494A65461478059F2D196E00CC
:10515000AE19F518AF70049F6F70641C039DE4B224
:105160009D551470042CEDD399E7032313701A4650
:105170003E4B92001F70247805942C780494347868
:105180003B4BA4460292394A029D1478059F2D1983
:105190006E00AE19F518AF70049F6F70641C654601
:1051A000E4B29D551470042CEDD378E704231370FA
:1051B0001A462E4B92001F70247805942C78049484
:1051C0002B4B347894460394284A65461478059FFF
:1051D0002D196E00AE19F518AF70049F6F70641C26
:1051E000039DE4B29D551470042CEDD357E717705E
:1051F000237805932B7804931C493378039300227A
:105200000A70194A1278944695000B78059FEA189F
:1052100054001619164A5B1CB418A770049F6770D7
:10522000039C9455DAB20A70042AEED36246521CEB
:105230000D4BD2B21A70062AE1D30021017009B0D9
:10524000F0BD0000390000202E0000202F000020BB
:1052500030000020340000203600002040000020F4
:1052600037000020EF0000202B0000202C00002041
:10527000B7010020F8B5274E0024F178264B2748C7
:1052800001290CD00188264D491C8AB201210280D7
:10529000012A0DD0234FBA420CD1197019E0F470D5
:1052A000048000221C7011461046FBF7EDF9F8BD92
:1052B0001C700EE01C4FBA4201D1022008E01B4FC7
:1052C000BA4201D1032003E0194FBA4203D10420AE
:1052D0001870297006E0174DAA4203D104801648C1
:1052E000F17001701878030001F0A6FD0505080BA8
:1052F0000E110400DBE700F021F8F8BD00F062FBBE
:10530000F8BD00F0A9FEF8BD00F054FFF8BD01F0B3
:10531000CBF8F8BD26000020380000203E00002019
:1053200039000020640A0000E61400004416000062
:10533000CD1900003421000016000020F0B5FA4815
:10534000FA4C017800258DB001292BD02046067833
:10535000F7480278F748521C0378F7485B1CDCB228
:10536000731C0178DBB20693F44B491C1F78C9B259
:105370007B1CDBB20793F24BD2B21B7808935B1C09
:10538000DBB20493EF4B1B7800937B00FB18EE4FCE
:105390000193DB190393330001F04EFD051770F103
:1053A000EFEEED000022057011461046FBF76CF998
:1053B000E24825700570E2480570E4480570DC4855
:1053C0000570DC4805700DB0F0BD01700529FAD3F9
:1053D00000210170D648052A02703ED30170DC4AD4
:1053E00005201070DB48DC4900220270D84A127890
:1053F0000B92920094460578624652195300D618D3
:1054000072181346203B9F7D97705F7D57701A7D01
:105410008A556D1CEAB20270042AECD30B9ACC4B6D
:10542000521E1206120E1A70DED10270C64A019B7D
:10543000D25C0892039A52789446039A957802783F
:10544000089B560097197E18B3706346521C737000
:10545000D2B2CD550270042AF1D3B648322C047072
:10546000B1D300210170B148069A0270B34A07987F
:105470001070009B9842A6D31170A4E70170052913
:10548000A1D300210170AA48052A027036D3017009
:10549000AF4AB0481170B04900220270AC4A12788D
:1054A000944695000378EA18560096197218977B6F
:1054B0009770577B5770127B8A555B1CDAB202706B
:1054C000052AEFD36246521CA14BD2B21A70052AAC
:1054D000E2D3002202709C4A019BD65C039A557865
:1054E000937802785700D7197F182037BE77521C5F
:1054F0007D77D2B23B770270042AF2D38D49282CF3
:105500000C70BAD3002008708C49079A0A70009B6F
:105510009A4200D30870854A8C4910700B785B1C46
:10552000DBB20B70022BA8D90870022111708449DC
:10553000894B087086490870864A85491070097839
:105540008F0014783D196E00AE19F518A870641C10
:105550006870E4B298551470042CF2D37F4C7C4AE6
:1055600060547A4C60547E4C6154491CC9B211702D
:105570000629E1D327E705E2E0E1F9E0FFE7017062
:105580000529F7D3002101707148017070497348F3
:105590000D78415D491CC9B24155A9427ED3002115
:1055A00041556A48405D002802D0012876D151E07B
:1055B00029460C2041436A48674E405D8A194700DE
:1055C000C0199378604F0290385C83420AD35378B5
:1055D0005D4A029FBA185778BB4203D3715C927838
:1055E000914234D2584F1921FAF7E6FE5D4908700E
:1055F0000A9002981921C7197878FAF7DDFE5A49FE
:1056000008700290B8781921FAF7D6FE57498446F7
:105610000870504800210170A80008904D490A9F69
:105620000B78C01841004218911988785B1CC0198A
:1056300088704878029FC0194870B05C4549604442
:10564000B054D8B2087004285BD20898E6E73F4807
:10565000012155E028460C213F4E484381198A78A4
:10566000002A05D14978002902D1305C00283CD0BD
:105670003B48405D410047183349C85D1921FAF79E
:105680009BFE38490870304908907F1878781921B6
:10569000FAF792FE34490870099000E031E0B878DA
:1056A0001921FAF789FE31498446087029480021FA
:1056B0000170A8000390274803990378089FC81831
:1056C00041004218911988785B1CC01B887048788B
:1056D000099FC01B4870B05C6146401AB054D8B2F4
:1056E0001C4904280870E6D30BE0184800214155F6
:1056F0001B48425D521CD2B24255009B9A4200D3D5
:1057000041556D1C1248E9B20170062900D23DE7EF
:105710000848322C047000D255E60021017003497C
:10572000069808704FE60000390000204000002075
:105730003700002041000020360000203400002007
:105740003B0000202A0000208D000020EF000020F8
:105750002B0000202C000020B7010020BD000020FD
:1057600053010020310000203200002033000020CF
:1057700001700529D0D3002101708448017083494C
:1057800083480D78415D491CC9B24155A9427DD37A
:10579000002141557F48405D002802D0012875D185
:1057A00051E028460C2148437B4E844681197B48B2
:1057B0008A78405D7A4F4300C0180290385C82427C
:1057C0000AD34A780299C9194B789A4204D362469F
:1057D000B25C89788A4233D21921FAF7EDFD71491A
:1057E00008700A9002981921C7197878FAF7E4FD31
:1057F0006D4908700390B8781921FAF7DDFD6B49FF
:10580000844608706A4800210170A8000690684923
:105810000A9F0B78C01841004218911988785B1CC8
:10582000C01988704878039FC0194870B05C6049FF
:105830006044B054D8B2087004285BD20698E6E7FA
:105840005449012055E00C21534E69438819827850
:10585000002A05D14078002802D1705C00283DD094
:105860004E484F4F405D410040180290385C19216E
:10587000FAF7A2FD4B4908700A9002981921C7193E
:105880007878FAF799FD4849087000E032E0029014
:10589000B8781921FAF790FD4449844608704448C5
:1058A00000210170A800089041490A9F0B78C01898
:1058B00041004218911988785B1CC01B8870487899
:1058C000029FC01B4870B05C6146401AB054D8B209
:1058D0003749042808700DD20898E5E72D490020C3
:1058E00048552E494A5D521CD2B24A55009B9A42F5
:1058F00000D348556D1C2548E9B20170062900D235
:105900003DE72C48322C047000D25CE50021017088
:10591000294A022010702948049B0370022BF4D9F5
:105920000170042010701948254B017002789954B9
:10593000521CD2B20270322AF8D344E50170052914
:10594000E3D305700898062814D210481249057050
:10595000089A97000278BB185E009E1973189D7014
:10596000521C5D70D2B28D550270042AF2D31348D6
:10597000049901700F48322C0470C6D30E48069962
:10598000017020E5FF210C48FAE700002B00002001
:10599000BD000020EF000020B701002053010020CF
:1059A0008D00002031000020320000203300002054
:1059B0002C00002041000020400000203B0000207F
:1059C00085010020F0B5FF48FF4D01788BB001291B
:1059D0002DD0284607780897FD49FE4AFF4C0978E4
:1059E00013782678F948FC4A891900781278C9B2E8
:1059F0000091FB49401C0D78C0B25919F94BC9B24E
:105A00001C78F94B12191B7806905B1CDBB20293D1
:105A1000F648F74B00781B780193D2B23B0001F0B7
:105A20000BFA092B4B7EFDFCFBFAFAFAF900002475
:105A30000470224621462046FAF726FEEA482C70DA
:105A40000470EC4819210470EB480470EB480470B2
:105A5000DE480470EA4C2078FAF7AEFCDF490870A3
:105A600060781921FAF7A8FCDD490870A07819219F
:105A7000FAF7A2FCDB49D2E2B0003018D449C0B238
:105A80000870A9006918D34AC9B21170A200A218FF
:105A9000D14BD2B21A70FAF7F7FDD8480178491CF9
:105AA000C9B201700A2938D900210170C6480278AC
:105AB000521C0270CD4873E1C54B00981870C54B5D
:105AC0001970C54B1A70FAF7DFFDC8480178491CF8
:105AD000C9B20170142920D300250570BA48C94CF9
