:020000040000FA
:1000000000040020F1000000F5000000D500000011
:1000100000000000000000000000000000000000E0
:10002000000000000000000000000000F9000000D7
:100030000000000000000000FB000000FD000000C8
:10004000FF000000FF000000FF000000FF000000B4
:10005000FF000000FF000000FF000000FF000000A4
:10006000FF000000FF000000FF000000FF00000094
:10007000E9660000FF000000FF000000FF00000034
:10008000FF000000FF000000FF000000FF00000074
:10009000FF000000FF000000FF000000FF00000064
:1000A000FF000000FF000000FF000000FF00000054
:1000B000FF000000FF000000FF000000FF00000044
:1000C0000348854600F076F800480047F96B0000C9
:1000D0000004002004207146084202D0EFF309809A
:1000E00001E0EFF308807146004A1047A11D0000AF
:1000F00003480047FEE7FEE7FEE7FEE7FEE7FEE710
:10010000C100000030B50B4601460020202201242A
:1001100009E00D46D5409D4205D31D469540491B3B
:100120002546954040191546521E002DF1DC30BD84
:100130000549064A08685043054A80180860400887
:100140007047014908607047740000206D4EC64139
:1001500039300000F0B51FB40646002082B00546D5
:100160004024019100901BE0019922460F46304641
:1001700000F042F8049A059B801A994110D310466A
:100180001946224600F028F8361A8F410197224678
:1001900001200021009F00F01FF838184D41009009
:1001A0002046641E0028DFDC019B00982946324669
:1001B00007B0F0BD064C0125064E05E0E36807CC0C
:1001C0002B430C3C98471034B442F7D3FFF77CFF25
:1001D000586D0000786D000010B5202A04DB014640
:1001E000203A9140002010BD914020239C1A0346E4
:1001F000E3401943904010BD10B5202A04DB0846A7
:10020000203AD040002110BD0B46D340D0402024DE
:10021000A21A91400843194610BD000070B5064C63
:1002200000235D005D192E19B0705B1C7170DBB28C
:100230006255152BF5D370BDBB01002000B50548F4
:10024000C178012905D10021C1700A460846FFF78F
:10025000E5FF00BD26000020F8B529484278002AB5
:100260002CD005250146274E2D07274FC97800249D
:10027000012A06D0022A22D0032A1FD101292AD01E
:1002800033E0012909D11E480022C47004700C21FA
:100290001E4801F02FFD0120B06119480178491C6A
:1002A000C9B20170052909D904704470686B3840DF
:1002B0006863686B0321890208436863F8BDC470F2
:1002C0000470B4614470686B38406863686B68633D
:1002D000B462F462F8BDC4700470B461696B3940F3
:1002E0006963696B6963B462F4620178491CC9B2DD
:1002F00001700529EED9047001214170C170F8BD6B
:100300005400002000420050F3F3FFF3404000503F
:1003100070B52848066B284903248A1C01250B1F49
:100320000020012E17D0087048701178491CC9B2FE
:100330001170322909D310705178491CC9B251701B
:100340000A2902D350705C70DD701B499A78091D30
:10035000012A11D014E0107050700A78521CD2B2E9
:100360000A70322AF1D308704A78521CD2B24A700D
:100370000A2AEAD34870E6E79870087048708870D7
:100380000A78521CD2B20A70322A10D308704A7806
:10039000521CD2B24A703C2A09D348708A78521C47
:1003A000D2B28A703C2A02D388705C70DD70FFF78D
:1003B00053FF70BD0042005058000020F0B5824A43
:1003C000824CD378824D0020824989B0012B07D01E
:1003D000814A13780A2B52D25B1C137009B0F0BD0E
:1003E000D0707E4A0870127806927A4E069930785C
:1003F0000790FFF787FE7A484A00017000202070BE
:10040000784889180A1893789C465378425C079874
:10041000C1000F1A20783E187100761871198A7081
:100420004B70401C6146C0B2A95520700728F1D31B
:1004300007996848491CC9B201700329D5D3002522
:100440000446694E694F25703088FFF77AFE308880
:1004500011303080FFF76CFEC0B21421FFF752FE5E
:10046000634A207811540121395462490D54401CCB
:10047000C0B220700328E7D357480570AEE70020CC
:100480001070594A13885B1C1380087051485749F3
:100490000678885D0890002804D0012829D0022819
:1004A00048D148E04D4801783046FFF72BFE4C48D4
:1004B0004C4B01700020207048000918C818827841
:1004C00005924778F000595C801B8446207862468C
:1004D00012185300D218531999705F70401C059B75
:1004E000C0B2AB5420700728F0D308983F49401C95
:1004F0005FE040483E4F825D521CD2B28255BB5DE8
:100500009A4257D900228255374E3088411C31809B
:10051000FFF717FE308811303080FFF709FEC0B2B8
:100520001421FFF7EFFD2B48007839542F490A5C5E
:10053000521C0A543EE0294801783046FFF7E2FD9C
:1005400027484A0001700020207026488918009131
:10055000405C3221FFF7D6FD81004018C7B2214828
:1005600000990818009040783221FFF7CBFD8100F8
:100570004018C0B20490009832218078FFF7C2FD85
:1005800081004018C0B20390F000801B84462078A0
:10059000614609184A0089184A199770049B5370DC
:1005A000401C039AC0B26A5420700728EFD30F4949
:1005B0000020885507490878401CC0B208700328FD
:1005C00000D263E70AE70000260000202C0000208C
:1005D000BB01002035000020360000202A0000204A
:1005E000340000209100002024000020F3000020AF
:1005F00025010020C1000020F0B51848184BC7782D
:100600001849194D0024194E194A012F05D02F7889
:10061000082F0ED27F1C2F70F0BDC4701C700C70A0
:100620001470002211461046FFF7F8FD2C7034704C
:10063000F0BD2C703578EF0700D1FF2414706D1CCD
:10064000ECB23470052C03D9447804700124C470D2
:10065000127809781878FFF7E1FDF0BD2600002038
:100660002E0000202F00002036000020F300002084
:10067000300000200248016AC20111430162704744
:1006800000020050F3B58BB00C46FFF7F3FF0B9858
:1006900000287448016813D004221143016010201F
:1006A00000F0F0F90120C00409906F480090042088
:1006B00008906E486E49201888420ED800251DE02B
:1006C00089088900491C0160012000F0DBF9002045
:1006D0000990684800900220EAE7674866492018B8
:1006E0004942884202D80125640007E06348634913
:1006F0002018494288427DD20325A4000026F643F3
:10070000089F22E039460098FFF7FCFC5C498446CC
:1007100041185C48814217D2554B02225B1C53485A
:1007200061465143401C0818984209D8A14201D99A
:10073000081B00E0601AB04202D2060004920CD0FE
:100740005148521C8242EAD97F1C212FDAD900205D
:100750000696C0430190089E54E00999A8030843F7
:1007600001217A028902511A08430499891E08431B
:100770003C490862042000F085F9691C794300981F
:10078000FFF7C0FC049948430DB0F0BD3146009816
:10079000FFF7B8FC3A4942183A498A4231D202215D
:1007A000324B02464A435B1CD7185B429F4224D817
:1007B000A24201D9121B00E0A21A019B9A421CD24C
:1007C0000192069B0F469A4217D10999A803084344
:1007D000012172028902511A0843B91E08432149B6
:1007E0000862042000F04EF9691C71430098FFF77D
:1007F00089FC00E008E07843C6E7234A491C91429F
:10080000CED9761C212EC1D90B9800280FD01F49B4
:1008100014480162042000F035F91DA0006803901F
:100820001048016A0013014203D00020ACE71949C7
:10083000EEE7080301D50C4800E00E488A03A3D474
:100840000A04920F03AB9B5CCA058904D20DC90E42
:10085000891C8008921C59435043FFF753FC8000C9
:1008600092E700000002005000805101FF1E0AFACA
:10087000FFE0F505001BB700800F05FDC08782FE75
:10088000FF95E7FFBF77CC00010200001844080085
:100890000102020416400000044982070A6801D0E0
:1008A0009208920002430A60704700000002005064
:1008B00008B511A0006800901048016A00130142B9
:1008C00001D0002008BD080301D50D4800E00D4807
:1008D0008A03F7D40A04920F6B469B5CCA0589040D
:1008E000D20DC90E891C8008921C59435043FFF752
:1008F00009FC800008BD0000010202040002005053
:1009000000805101001BB70070B502F0AFF82D4810
:1009100041682D4A114041604168032529434160E7
:100920000120FFF7B9FF012000F0ACF800062749CD
:10093000000E087009D10420FFF7AEFF102000F070
:10094000A1F80021072000F08BF8214800F046F8BC
:10095000204C08262660304600F094F80120A06064
:10096000606928436061A168E0018143A160A168DA
:100970000143A16060690321090688436061052085
:100980000007416B144A11404163416B03229202FC
:1009900011434163A06804210843A06060690721F6
:1009A000090288436061A0683043A0606069090162
:1009B0008843606105F0F4FD02490020C031086001
:1009C00070BD000040000050FCFCFFFF490000200B
:1009D000006CDC0200020050F3F3FFF3F8B51E4C8C
:1009E0000546E66810201D49064048108D4201D991
:1009F0000D4602E0854200D20546206804273843B0
:100A00002060102000F03EF8206907210843206193
:100A1000A06900090001A06120688007800F0128FB
:100A20000ED069007804FFF72DFEE6680546102019
:100A300006400121022000F013F8002E06D008E045
:100A400069000020FFF71EFE0546F2E72068B84364
:100A500020606808F8BD00000002005080F0FA0233
:100A600010B5074A93691B091B010B439361116978
:100A7000C908C9000143116105F092FD10BD0000D5
:100A80000002005010B50749074A05E00B46491E11
:100A9000002B01DC002010BDD4680346A343F5D130
:100AA000012010BD80F5200000020050F0B5DB48A9
:100AB000DB4985B0C3788979029101468D79CA797D
:100AC0000124002B13D18178491CC9B28170962969
:100AD0000DD3D449C4700C704C704C238B704123DF
:100AE000CB7035230B71029B4B71CD710A72837CE5
:100AF0000021002B09D0437C5B1CDBB243740F2B1D
:100B000003D34174FF2303718174C74B1E78002EF9
:100B100063D00021C148197084744174C3490C70BA
:100B2000C178C3480029067801D1F02E26D0C048EC
:100B30003707017901913F0F40790390072F04D0C7
:100B4000A9424AD10398904247D10F2E05D0B3480D
:100B500031090379994240D00171B5483B00C17811
:100B600000914178807805F0B7FE103815152338CC
:100B70003A3887FE38443838FD385538A9484C2172
:100B80000470447081704121C17035210171029956
:100B900041713FE1A3480221017044704C218170F2
:100BA0004121C1703521017102994171002130E16B
:100BB0000A2901D9FF2910D11C280ED89D4D0029E2
:100BC0002970EC7009D0FF2905D0A87000F080FAD8
:100BD000287868701BE06878287005B0F0BD082898
:100BE000FBD8C107F9D18E49887193484C710470C4
:100BF000E2E00329F1D80029EFD00828EDD88D4A8A
:100C00000A3111705170D470907000F061FA8A4806
:100C10000470E2E787480A1F854D0078130005F04D
:100C20005BFE0A0606111111060606060611814B27
:100C3000884207D1794A167C002E03D1DC701474E7
:100C40007E4A14700A29C8D97A4E0028C5D0884235
:100C500007D0317071707848F4700470B07800F08B
:100C600037FAB178A8788142B7D0B0707249F47081
:100C70000C7000F02DFAB0E7684BDE7B1F463B7B23
:100C80007F7B012EBC4640D1644F0026FE7341405D
:100C9000019E0098664F704041400398814210D0F9
:100CA0006448FF210170C4705E4802210170082170
:100CB0004170042181700021C1700171437161464E
:100CC000A7E07F1C002001460097009E765C36025C
:100CD00070400026C70B03D0594F4000784000E019
:100CE0004000761CF6B280B2082EF3D3491CC9B27C
:100CF0000429EAD319026144484E89B26746814209
:100D000010D04C48FF210170C47046480221017088
:100D100008214170042181700021C170017143716B
:100D2000394676E0180901F04FF8464D2870307BBF
:100D30000007000F01F048F86870707B000901F0AF
:100D400043F8A870707B0007000F01F03DF8E870D1
:100D50003448082104704170032181700021C17062
:100D6000017101E02DE010E0327B4271737B8371F1
:100D7000B579C571F5790572B271F371317371731B
:100D80002C48FD210170C47041E7012914D00229CB
:100D900000D022E72149CC730873009B4B73214993
:100DA00002240C704E708C700024CC700C71487151
:100DB0008B71CD710A7210E71E48FB210170C4705F
:100DC0000BE70D23002916D00129E2D11548022195
:100DD00001701D494370097881701049C97AC1704A
:100DE0001921017112214171182181715721C1719D
:100DF00043210172F1E60B480221017043704C213E
:100E000081704121C170352101711049097841710A
:100E100002998171C5710272DFE6000011000020A5
:100E20004C00002078000020000000205600002028
:100E30000B00002026000020470000204600002074
:100E40002110000002000020490000204200002084
:100E5000FCB5914D914FEB7800209149914A924C0D
:100E6000012B3BD0914B1E78761CF6B21E70052EDE
:100E70005FD318705E78761CF6B25E701E2E1AD3A1
:100E800058709E78761C3606360E9E7013D0987079
:100E90003E78761CF6B23E70052E0CD9844B387025
:100EA0001E78761CF6B21E70142E04D91870012319
:100EB000EB70804D2B70794B1F787B4B1B78019327
:100EC000DB1CDBB20093764B1E78764B1D783B0023
:100ED00005F002FD0630353B41474D526F4BE8703F
:100EE0001870754B1870754B734D2D786E00AF19D7
:100EF000FE18B07070706D1CEDB26F4ED855357025
:100F0000152DF1D308701070694920700870694977
:100F10006C4C08706149654B4870694908700A78E3
:100F20009854A054521CD2B20A70032AF7D36649CF
:100F30000870FCBD761D20700E70ED1F0FE0107064
:100F4000019B9B1F237009360FE00870ED1D157083
:100F5000019B1B1F0FE0761F20700E700835157067
:100F60000AE01070009B2370F61F0E7004E00870FA
:100F7000083D1570009B2370484B5E78731CDDB2F2
:100F8000524B002E2CD0012E49D0022E65D0187065
:100F90000978019111780091217847488C46002109
:100FA0004A4A017012784549D3009D1A0378019F7F
:100FB000EC186600A6197418A770009F67705B1C78
:100FC0006446DBB28C550370072BEFD3521C3F49AC
:100FD000D2B20A70032AE2D3304900204870FCBD27
:100FE0001870354B354E18700978019111788C4680
:100FF00021780091C1000A1AC0B214186700E719DD
:10100000BC190199A17061466170401C009CC0B27E
:10101000F45518700728EFD320484570FCBD022610
:101020001E70254B1870087801901078844620783F
:101030000090F000821B1978019E50184400071997
:101040001E48491C3C18A67066466670009CC45534
:10105000C8B218700728EED3DEE701261E70164BC3
:10106000187009780191117814488C46F1002278A3
:10107000891B00911978009C019E64186700E7198C
:101080003C18A6706646491C6670C9B2C2551970F4
:101090000729EFD3C0E7000026000020F30000205E
:1010A0002E0000202F00002030000020C100002072
:1010B0003A000020160000202C000020BB01002078
:1010C00035000020250100202D0000202B000020ED
:1010D000F8B50146F94800240078FA26F84D27466D
:1010E0000A286FD9F7480C2202700B0005F0F4FBB8
:1010F0000715487FA4D9F1051400F3486100611871
:10110000425C6A540A18491953784B70641C9278EF
:10111000E4B28A70102CF1D3F8BD05212046FEF709
:10112000F1FF002908D001290CD0022910D0032991
:1011300012D0042918D01EE0600020182F54401946
:1011400046700FE0600020182E544019477009E0E7
:10115000600020182E540BE0600020182F549621B8
:1011600040194170877006E09621600020182954CC
:10117000401946708670641CE4B2102CCDD3F8BDC3
:1011800007212046FEF7BEFF00290CD0012912D00E
:10119000022918D0032922D004290CD0052912D005
:1011A000062908D016E0600021186E543220491933
:1011B000487088700EE0600020182E544019477067
:1011C000322106E0CEE0600020182E543221401972
:1011D00041708170641CE4B2102CD1D3F8BD600062
:1011E000962120182954401946708770F2E7A0070D
:1011F00009D0A007800F01280CD0022810D0E043AE
:10120000800707D013E0600020182E544019477063
:1012100087700CE0600020182F544019477005E0DB
:101220006000962120182954401946708670641C6D
:10123000E4B2102CDBD3F8BD05212046FEF762FF97
:10124000002908D001290ED0022911D0032916D077
:1012500004291AD020E0600020182F54401946704D
:101260003221817018E0600020182E54322110E0E5
:101270006000962120182954401946700BE0600048
:1012800020182E544019477005E0600020182E5495
:101290009621401941708770641CE4B2102CCBD3A6
:1012A000F8BDA00711D0A007800F012812D0022896
:1012B00018D0962160002018295440194670877074
:1012C000641CE4B2102CECD3F8BD600020182F543D
:1012D000F3E70EE0600020182F54401946703221C9
:1012E0008170EDE7600020182F549621401941705D
:1012F000E5E709212046FEF705FF002910D0012966
:1013000013D0022929D0032914D004290DD005298E
:101310001CD0062909D007291FD008290AD010E0BF
:10132000600020182E54322101E0962103E040197C
:10133000417010E032216000201829544019477094
:101340008670641CE4B2102CD3D3F8BD6000201862
:101350002F54401946708770F3E7600020182F540F
:101360009621E4E710290BD2480009185648425C40
:101370002A700818417869708078A87001217DE092
:101380001039042003220B0005F0A6FA0D091520E0
:10139000313A437B85A0ACE6F6F40800D5E72F7020
:1013A00032206E70A8709621E9702E716F71AE7147
:1013B000E871287221E02F706E70AF70EE702F719F
:1013C0006F719621A971EE712F72DEE032212E70BD
:1013D0006970AF70EE7096222A716F71AE71E9710B
:1013E0002F726E72AF72EA7236490870F8BD96209D
:1013F00028706E70AE70EF7047E032480270F8BD32
:101400002E706F70AF70EF702E716F71AE71EE71E4
:101410003FE007212046FEF775FE002912D0012982
:1014200009D002290ED0032914D0042903D005299C
:1014300018D006291DD1600020182E54401947707D
:10144000322115E0600021186E543220491948708D
:1014500088700EE0600096212018295440194670CB
:10146000877006E0600020182E5432214019417028
:101470008170641CE4B2102CCBD307211148017099
:10148000F8BD2E706F70AF70EE702E716E71AF710F
:10149000EF712E72B1E72F706E703220A870EE706F
:1014A00028716F71AE71EF7196202F726872AE72F3
:1014B000EF722E736873AF730521DFE726000020FB
:1014C000910000202A000020206D00002F706E7017
:1014D000AF70EF702E71322068719620A871EE7196
:1014E0002F728AE709212046FEF70CFE002910D052
:1014F000012913D002292AD0032914D004290DD0A0
:1015000005291DD0062909D0072920D008290AD08D
:1015100010E0600020182E54322101E0962103E0F3
:101520004019417011E032216000201829544019FF
:1015300047708670641CE4B2102CD3D309219DE758
:10154000600020182F54401946708770F2E7600041
:1015500020182F549621E3E72E706F70AF70EE7055
:10156000322129716F71AE719621E9712F726E72FD
:10157000AE720DE00EE0FFE72F706F70AE70EF708F
:101580002E716F71AF71EE712E726E723221A9726F
:10159000EF7229E7084861006118425C6A540A1832
:1015A000491953784B70641C9278E4B28A700C2C01
:1015B000F1D30C2018E70000206D0000F0B52D4895
:1015C0002D4A84790123002C05D04679851E0021FF
:1015D000012E0BD016E028482038016A890104D575
:1015E000016A8402A14301629360F0BD41714170C0
:1015F0008170C1700171298016680127BF073E43C1
:10160000166093609668F607F60FEED093602A880E
:101610001A4E521C92B22A80B24201D32980F0BDE8
:101620008278521CD2B282703C2A0ED38170C2786A
:10163000521CD2B2C2703C2A07D3C1700279521C2C
:10164000D2B20271182A00D301714278002AE6D181
:101650008278002AE3D1C278002AE0D10279002AF8
:1016600005D0A242DBD102220270C171F0BD03702D
:10167000C371F0BD4C00002020000140983A0000EA
:1016800030B5154A154800211368435493695B042B
:1016900003D4491CC9B21029F6D302240125104BEA
:1016A000022906D0072910D05C7090682043906012
:1016B00030BD0178FD2906D14178F02903D1807829
:1016C00007E05D7030BD5C7030BD0178FD29FAD156
:1016D000C079FE28F7D1F4E7000005408100002022
:1016E0000000002030B5124A00205478002C1DD094
:1016F0000021104B012C07D0022C17D11954401C8B
:10170000C0B21028FAD310E001241470084C0B3436
:101710001D186D782554401CC0B20628F8D300204F
:101720001954401CC0B21028FAD3517030BD0000CB
:10173000000000208100002010B5204A002014780D
:10174000002C13D01E49012C11D00023032C22D0D1
:10175000022C0BD1FD240C60141864780C60401C22
:10176000C0B20828F8D3FE200860137010BDFC2317
:101770000B604C230B6041230B6035230B60114C35
:10178000235C0B60401CC0B20428F9D3FE20086023
:101790000220107010BD1370FA220A600B600B60FB
:1017A0000F220A60074B1B1D1A5C0A60401CC0B266
:1017B0000528F9D3FE20086010BD00007800002045
:1017C000000005400200002010B50D490B78002BE9
:1017D0000ED0002201240B48012B02D0022B04D092
:1017E00006E00A704178017001E00A700270C4706E
:1017F00000F0A6FD04F0A4FEFFF758F910BD0000AC
:101800004C000020260000200A492222CA604860BD
:10181000012008610869C007FCD10868400606D5A8
:1018200008684022104308600020C0437047002031
:101830007047000000C000500248016801221143B7
:101840000160704700C0005005490022CA6048602E
:10185000012008610869C007FCD188687047000052
:1018600000C00050054A2123D360506091600120E0
:1018700010611069C007FCD17047000000C0005023
:1018800010B50124240501F0E3F8FFF7D5FF224944
:1018900008682022104308602046FFF7D5FF1F4C40
:1018A00060701F48FFF7D0FFA0701D48001DFFF7B4
:1018B000CBFF1C4988711A480830FFF7C5FF1A4949
:1018C000087017480C30FFF7BFFF1849C0B20880F6
:1018D00013481030FFF7B8FF1549C0B20880104810
:1018E0001430FFF7B1FF134908700D481830FFF7A7
:1018F000ABFF114908700A481C30FFF7A5FF0F49DC
:10190000087007482030FFF79FFF0D4908700D4908
:101910000020086010BD000000C00050260000201C
:10192000040010004C00002048000020420000206D
:10193000440000201900002017000020180000209B
:101940001B0000200001005070B5274801240178D9
:101950002405012947D10025057001F079F8FFF72A
:101960006BFF224801682022114301602046FFF7E7
:101970004BFF1F4E20467178FFF774FF201DB17892
:10198000FFF770FF1C491B488979FFF76BFF194867
:101990001A49001D0978FFF765FF164818490830F5
:1019A0000988FFF75FFF134816490C300988FFF7D5
:1019B00059FF1048144910300978FFF753FF0D48BC
:1019C000124914300978FFF74DFF0A4810491830C2
:1019D0000978FFF747FF07480E491C300978FFF7E1
:1019E00041FF0D48056070BD4700002000C0005059
:1019F00026000020080010004C00002048000020B5
:101A000042000020440000201A000020170000209F
:101A1000180000201B00002000010050F0B5A54870
:101A20000024C27885B0012A45D0A3480022027064
:101A3000A2480178A04800780746FEF763FBA0485B
:101A4000A04C017048000D18605D0190322100909B
:101A5000FEF758FB9C49064608702C196078322125
:101A60000390FEF74FFB0546984832210570A07899
:101A70000290FEF747FB9649044608709548C05D02
:101A80008446002844D001287ED002287DD0924987
:101A9000924AC85D401CC0B2C855D25D904275D90B
:101AA0000020C855384615218D4B4843C1188A7807
:101AB000002A6CD1BBE08B4EC470894F8A4D3470C4
:101AC000307841004118C819847044707C542888CB
:101AD000411C2980FEF735FB288811302880FEF74D
:101AE00027FBC0B21421FEF70DFB7C4A307811545D
:101AF00078490C5478490C54401CC0B230701528F9
:101B0000DED37A48322101707948047005B0F0BD07
:101B10007149724AC85D401CC0B2C855D25D90423E
:101B2000BDD90020C85505210098FEF7EBFA014603
:101B30003846152250436A4A0190801800908078F8
:101B4000814212D805210398FEF7DCFA014600987D
:101B50004078814209D805210298FEF7D3FA02465F
:101B60005F490198085C824222D95E4800210170D9
:101B7000F800C01B84465B4861460378C8184100E2
:101B800042185748111803E016E030E04EE054E0E8
:101B90008F785B1CBF198F704F787F194F70815CF5
:101BA00009198154D8B24F4907280870E3D377E068
:101BB00048480121C15573E04A4800210170484955
:101BC000FA00D41B0278019EA3185D005D196B1802
:101BD0009E70039E5E70521C029BD2B24B550270E7
:101BE000072AEFD33B496046401CC85558E03A48A5
:101BF0003E4AC15D304D491CC9B2C155127891426F
:101C00004ED90021C15533480321374CC155208896
:101C1000FEF797FA208811302080FEF789FAC0B2CB
:101C20000A21FEF76FFA2D482A78815438E0497866
:101C3000002902D1185C00281DD02A48002101701B
:101C4000F900C91B18468C46264962460B78D11804
:101C50004A008A1811188F785B1CBF1B8F704F7851
:101C60007F1B4F70815C091B8154D9B21D4A072923
:101C70001170E9D314E0174D00241B4EEC55308849
:101C8000FEF75FFA308811303080FEF751FAC0B2AB
:101C90001421FEF737FA0848104A007811542C54E2
:101CA00005480178491CC9B20170032900D2BFE67A
:101CB0002CE7000026000020350000202A0000202C
:101CC000340000209100002031000020320000206C
:101CD00033000020F3000020C10000202501002077
:101CE000BB0100202C000020240000203600002032
:101CF0002D000020F0B500230125944603272A4635
:101D00009A400A4209D006685C003A46A2409643CF
:101D1000224664469440264306605B1C082BEED3A3
:101D2000F0BD0000F0B51848184BC778184A194D97
:101D30000024194E1949012F05D02F78082F0ED2F3
:101D40007F1C2F70F0BDC4701C700C7014700022CA
:101D500011461046FEF762FA2C703470F0BD2C70FC
:101D60003578EF0700D1FF240C706D1CECB2347095
:101D7000052C03D9447804700124C47012780978C2
:101D80001878FEF74BFAF0BD260000202E00002048
:101D90003000002036000020F30000202F0000203B
:101DA000044603A004F088FD204604F065FFFEE72A
:101DB000496E2048617264204661756C74204861E8
:101DC0006E646C65720A00000F2801D90007000FCD
:101DD0000A2801D2303000E03730C0B2704700002E
:101DE000FEB5A148A149C2780020012A05D00A7891
:101DF000082A36D2521C0A70FEBD9B4AD0709C4AFB
:101E0000107008709B4908709B4908709B490870C6
:101E10009B490A78002A14D008709A4C3221207805
:101E2000FEF770F99849087060783221FEF76AF978
:101E300096490870A0783221FEF764F99449087039
:101E4000FEBD9449944A08700B785C001D19AC18CB
:101E5000A0705B1C6070DBB250550B70152BF3D378
:101E6000DBE708708D49834A0F7801978349127820
:101E70000978521C491CCBB28949D4B209787E4DED
:101E8000491CCAB27A492D7809786E00AE190095BE
:101E90007C4D8C4601217519012F67461FD0002FFC
:101EA0007BD0764C1D2B23700BD3714B2070187098
:101EB0007B4B142A1A7004D96B4A1870D170794A76
:101EC00011706C4A1478784A230004F005FD0D94D3
:101ED0008E91AAAEB0B4B8BCBEC2C6CA9400002FE0
:101EE00006D0012F2DD06C4B9C78002C38D131E0DE
:101EF000644A032C935D6D4A137000936C4A6B78AF
:101F000013706C4AAD7815705A4A9C46147002D30F
:101F1000574B107019705F49087012785E48D300F3
:101F20009C1A0A78009BA6187700F7193E18B37020
:101F30006346521C7370D2B2C5550A70072AF0D39B
:101F4000FEBD4E492F2B0B70FAD308704848022172
:101F50000170FEBD5C78002C02D11C78002C1DD0D5
:101F60005549494C08704A48484A007825781678FF
:101F700084460C7860002218D0188778641C7F1B78
:101F800087704778BF1B4770985C6746C01B9854A2
:101F9000E0B208701528ECD3FEBD0BE0344B142AD8
:101FA00018703F4B1A70F7D918703E4801702E48D0
:101FB000C170F1E7334B304A9E5D3C4B152C1E70CF
:101FC0003B4B6E781E703B4BAD781D70294B1C70DF
:101FD00000D276E71870009B5B1CDBB21370019C8B
:101FE000A34200D31070224A6AE71070062001E075
:101FF0001170052050702D481178047848000B1896
:1020000025482B4D19188C702D784D702949097869
:10201000C15452785300D21813189C705D708154CB
:10202000BAE7022010700420E4E703201AE007203A
:1020300010700D20DEE7082010700C20DAE7092070
:1020400010700B20D6E70A200CE00E201070142030
:10205000D0E70F2010701320CCE710201070122052
:10206000C8E711201070C5E72600002036000020C8
:10207000F30000202D000020340000202501002066
:102080004600002091000020310000203200002096
:10209000330000202C000020BB0100202A0000207B
:1020A0003A00002016000020890100202E000020A8
:1020B0002F000020300000202B00002010B52C48FD
:1020C000018811310180811C0878082835D007DC8F
:1020D000030004F001FC081A1D202326292C2F17C9
:1020E0000D2839D008DC09282AD00A282BD00B2843
:1020F0002CD00C2806D12CE0FB2830D0FD2831D084
:10210000FF2832D00A20087010BDFEF797F810BDE6
:1021100004F0CCF910BDFEF751F910BD04F088F8B9
:1021200010BDFFF75DFE10BD00F0AEFC10BD00F06D
:1021300043FB10BD00F026FA10BDFFF76FFC10BD89
:1021400000F020F910BDFEF783FE10BD00F0AAFDDF
:1021500010BD01F069FB10BD02F06AFD10BDFEF775
:102160004BFA10BDFFF7DEFD10BD00F0CDF910BD3C
:1021700024000020F0B53D48002104783C48012CA3
:1021800018D015214A008B183A4A00249B18DB1EF0
:102190001E7800225B1CF50945D001250561092543
:1021A0002F466D1EEDB2002FFAD100BF00BF00BF59
:1021B00000BF3FE04A008B182E4A9E180023357856
:1021C0000022761CEC090CD0012404610924274666
:1021D000641EE4B2002FFAD100BF00BF00BF00BFF1
:1021E00006E0012404612746641EE4B2002FFAD100
:1021F00000BF00BF00BF00BF0024046118242746B1
:10220000641EE4B2002FFAD16C06521C250ED2B225
:10221000082AD7D35B1CDBB2032BD0D3491CC9B22D
:102220001529C7D3F0BD012505612F466D1EEDB2FE
:10223000002FFAD100BF00BF00BF00BF002505611D
:1022400018252F466D1EEDB2002FFAD17506521CCF
:102250002E0ED2B2082A9ED3641CE4B2032C97D36C
:10226000491E0906090E8DD1F0BD0000480000206E
:1022700040420050BB01002070B5FEF745FB00F066
:10228000F5FB032125480902016001680222114380
:1022900001600124446001688022114301602048EC
:1022A00000250560032210211E48FFF723FD1D486D
:1022B000012240214038FFF71DFD1A48012210215C
:1022C0004030FFF717FD1848056117484038846112
:1022D000164C1E21204604F04DFA60681021084378
:1022E00060600802124908604B21C901204604F0D1
:1022F000FFF9104C01213222C906204604F0CCF926
:102300002168A003014321600B4921620B496162EE
:10231000084920310A6802430A6070BD004000404D
:102320000001005040400050404200500000054075
:1023300000E100E000000140FF0000081BB70000C2
:102340000E480021027A002A0BD0827B521CD2B2A6
:102350008273FA2A05D381730172094B41720122FB
:102360001A70C27B002A07D00278521CD2B20270C7
:10237000FA2A00D3C1737047017070471100002022
:1023800047000020F0B55548554BC5785548002109
:10239000554C564A89B0012D06D01D78052D11D215
:1023A0006D1C1D7009B0F0BD4C4DE970FF25257006
:1023B00011704F4A4F4C11702278521C22700170DC
:1023C0001970EFE700211970484907780E78711CE1
:1023D000C9B2039144490D786B1ED9B207914449A3
:1023E00009784B1CDBB20593731EDBB206936B1CA2
:1023F000DBB204934B1EDBB208933B0004F06CFA93
:102400000B070D131A21283035393D424700FF2EA6
:1024100001D2039811E0012137E0002D01D0079887
:1024200012E0022131E0324BFF2901D2059813E07E
:1024300003212AE0002E02D00698107038E0042113
:1024400023E0FF2D02D20498207031E005211CE02A
:10245000274B002902D00898187029E0062114E0C3
:10246000234BFF29E2D307210FE0002DD7D108210C
:102470000BE0FF2ECDD3092107E01D4B0029EAD147
:102480000A2102E0FF2DDED30B21017010E0002EA7
:10249000D2D100210170184803785B1CDBB20370B5
:1024A000142B05D901700D490120C870134908701B
:1024B0001348002101700E4D1249237817782E78A9
:1024C0000278540015196C18A370521C6770D2B2B0
:1024D0004E550270152AF3D364E700002600002051
:1024E00036000020F30000202E0000202F000020E6
:1024F00030000020C10000203A000020160000201B
:102500002C000020BB010020F0B518481849C778FE
:10251000184A194D0024194E194B012F05D02F7858
:10252000082F0ED27F1C2F70F0BDC4701C700C7071
:102530001470002211461046FDF770FE2C703470A6
:10254000F0BD2C703578EF0700D1FF241C706D1C96
:10255000ECB23470052C03D9447804700124C470A3
:10256000127809781878FDF759FEF0BD2600002092
:102570002F0000203000002036000020F300002053
:102580002E000020F8B57D497D4FCA780024012A2D
:1025900075D07C4900220A707B487A4D0188784CBE
:1025A000C91D01802978605C401C6054FDF7C0FDA6
:1025B000C0B20521FDF7A6FD2E78A05D81425CD258
:1025C0000020A055714801783046FDF79BFD70480A
:1025D000704F017048000D18785D3221FDF792FDB3
:1025E0006D4904460870EF1978783221FDF78AFDAD
:1025F0006A4905460870B8783221FDF783FD6849BD
:10260000087068498A5D002A5FD0324615235A4314
:10261000654B9646D21894469378644A925D174665
:102620006743BB420CD863465B7817466F43BB4297
:1026300006D85D4F7346FB5C5C4F424393427CD9A6
:102640005B4900220A70F2005749921B9446584A8F
:10265000634616789A195300D3185A189778761C3F
:102660003F1B977057787F1B5770CA5C121ACA5469
:10267000F2B24F4B072A1A70E9D376E0FFE74C4DD0
:10268000CC70494E2C702878410041188A199470FA
:102690005470745443493C540C543B490888421CC0
:1026A0000A80FDF74EFDFDF743FDC0B21921FDF78D
:1026B00029FD3E4A28781A311154401CC0B22870B6
:1026C0001528E0D33B480470F8BD15227243364B01
:1026D0009646D21894469378344A925D17466743DB
:1026E000BB420CD363465B7817466F43BB4206D3AD
:1026F0002D4F7346FB5C2D4F424393421ED22C4913
:1027000000220A70F2002849921B9446284A634628
:1027100016789A195300D3185A189778761C3F19CF
:10272000977057787F195770CA5C1218CA54F2B262
:102730001F4B072A1A70E9D317E00AE00120114C59
:102740008855FDF7F5FCC0B20A21FDF7DBFC2278C5
:102750000AE000200B4C8855FDF7EAFCC0B21921B5
:10276000FDF7D0FC22781A31B95406480178491C8B
:10277000C9B20170032900D20EE7F8BD260000207F
:10278000C100002035000020240000202A00002085
:102790003400002091000020310000203200002091
:1027A00033000020F3000020BB01002025010020A1
:1027B0002C00002036000020F0B59649984A8BB0D6
:1027C000CB78964812780092934F964C857846784D
:1027D0000278012B07D094490B78282B77D25B1C09
:1027E0000B700BB0F0BD0023CB7032211046FDF70B
:1027F00089FC8E490870049032213046FDF782FC36
:102800008B490646087032212846FDF77BFC0546B9
:1028100038700098012838D0864800210170854C16
:10282000009920780790FDF76DFC83480022017025
:102830007C484B000270794AC918535C891806938A
:102840004A788D789446079A7C49D3009C1A02787E
:10285000069BA6187700F7197E18B3706346521CC2
:102860007370D2B2CD550270072AF0D30798714920
:10287000401CC0B208700328D1D36B4900200870F7
:102880006F4908706C490870ABE700202070C0B237
:1028900007460099FDF736FC67480170F807049871
:1028A00016D03221484379007A18644932235118EE
:1028B00088703046584348702846194648435F4957
:1028C0007F1C8854F8B220701528E0D3D5E70DE0BE
:1028D0000A21484379007A1858490A235118887008
:1028E00030465843487028461946E7E700230B70E6
:1028F0000099544B012954D04F49534E0A78550042
:102900005519475D37702818049745781D70019553
:1029100083784E48521C0370D0B202930870009A1C
:10292000904201D3002008704248022101704348C0
:10293000002121703F490A78511ECB000A91591A93
:102940000991D100891A8C462178099A52185300AE
:10295000D6186246521853003518D3181A18AF7893
:1029600097706D785570491C825DC9B2C254217050
:102970000729E9D30A992F4A0906090E1170D7D100
:102980002170C9B24A008B181A18049D9570019DD8
:102990005570491C029AC9B2C25421700729F0D35C
:1029A0001FE727480178002906D027490A702749E0
:1029B0001E700D7000210FE01C491422097851434C
:1029C000214A11701A491422097851431970397833
:1029D00051431E4A117001210170142020701748C4
:1029E000257869006E1831180A46203AD77F8F7013
:1029F000977F4F70517F81556D1E2906090E2170FA
:102A0000EED1114909788170197841700F49097820
:102A10000170E6E62600002033000020910000202F
:102A20002A0000202C000020360000203100002069
:102A3000320000203500002034000020BB010020BF
:102A4000F30000202F0000202E0000203000002086
:102A500010B55921044816228823016002600360E2
:102A60000468002CF9D010BD0001005010B55921A8
:102A70000448162288230160026003600468002C69
:102A8000F9D010BD00010050F8B56B486B4EC0780E
:102A90006B4F0024012805D03078052837D2401C20
:102AA0003070F8BD64486849C470664804700278A4
:102AB0005300D3185D18AC70521C6C70D2B2CC5459
:102AC0000270152AF3D36148664D047060483C706B
:102AD00004706048347004705F48322104705F48AD
:102AE00004705F4804702878FDF70CFB5E4908709D
:102AF00068783221FDF706FB5C490870A87832211E
:102B0000FDF700FB5A4908705A480470F8BD4C485C
:102B1000347007785448514900780A7884465348FD
:102B20004F49067852484A4B05784B480978007857
:102B30001B78002F04D0012F1FD0022F66D127E071
:102B40005F00DB19474FFF5C874207D8454FDF190D
:102B50007B78934202D8BB788B4208D93E4F6044C1
:102B600038703E48921902703D4849191DE03448BA
:102B7000012101703748047048E036480178491C4B
:102B8000C9B20170322941D304702D4802210CE0F2
:102B9000074617430F430AD02F4F6346C01A3870B9
:102BA0002E48921B02702E48491B01702EE02448CB
:102BB0005B1C04702648D9B22F4A017012789142EA
:102BC0000DD32E4904700A78521CD2B20A70062A1C
:102BD00005D90C70184A0121D170294A117000786A
:102BE000204D41004618A85D3221FDF78BFA1E49A1
:102BF0007519087068783221FDF784FA1B4908704E
:102C0000A8783221FDF77EFA194908700D48134B58
:102C10000470114C124A25780B491C7817780278F9
:102C20005300D61873189D70521C5C70D2B28F5529
:102C30000270152AF3D3F8BD2600002036000020CC
:102C4000F30000202C000020BB010020C100002068
:102C500034000020250100202E0000202F0000203D
:102C600030000020910000203100002032000020C0
:102C700033000020460000202A0000203A000020F7
:102C80001600002006498A691202FCD408600A284E
:102C900004D188690002FCD40D2008607047000050
:102CA00000000540F8B5254E0023F178244C254856
:102CB000012913D00188244D491C8AB201210280C8
:102CC000012A16D01746FF3FCD3F05D005277F02CA
:102CD000BA4210D1022012E0217011E0F37003809B
:102CE0001A4823700022037011461046FDF796FA29
:102CF000F8BD237004E0164FBA4203D103202070C0
:102D0000297006E0134DAA4203D103801248F170E6
:102D100001702078002808D0012809D002280AD0A4
:102D20000328E5D100F0B6FBF8BD00F017F8F8BDB8
:102D300000F0C6F8F8BD00F015FBF8BD2600002035
:102D4000380000203E000020390000204100002013
:102D5000840D00009411000016000020FEB54A48C2
:102D60004A4D017800244A4E012905D028780228CE
:102D700019D2401C2870FEBD002204701146104676
:102D8000FDF74CFA43482C700470434804704348E4
:102D9000047043480470434804704348347004701E
:102DA00042480470FEBD00202870394801783C4834
:102DB0000078401CC4B237480029077836480678A6
:102DC000364805783748007802D0012953D133E0DE
:102DD0004100401836490090085C1921FDF792F92E
:102DE0000146344801700191314900984018029021
:102DF00040781921FDF786F901462F4801700091AE
:102E0000029819218078FDF77DF92C49214A087034
:102E1000019928187918117000991F4A71181170BA
:102E20001E49192C08701E48047024D3002101701B
:102E30001748012101701EE01E4A16491278BA1A7D
:102E40000A701D4A14491278B21A0A701B4A1349B3
:102E50001278AA1A0A701249192C0C700BD300228E
:102E60000A700B4B401C0F49C0B21A700870022840
:102E700001D90220187009480278074801780548EE
:102E80000078FDF7CBF9FEBD3900002036000020A8
:102E9000400000202E0000202F00002030000020E5
:102EA0002B000020340000203700002041000020CB
:102EB000910000203100002032000020330000206B
:102EC000F0B5FE48FE4C0178FE4DFF4E00278DB058
:102ED000012930D0FD4A204613780178FC4A30465B
:102EE000007812785B1C0392DAB20692F94A401C11
:102EF00012780892521CD2B20A92039AC0B2521CA3
:102F0000D2B204924A1CD2B20992F34A13785A1CE4
:102F1000D2B20592F14A127807925A009A18F04BF1
:102F20000192D4180B0003F0D7FC091D95FEFDFE9D
:102F3000FDFEFDFCFB000022077011461046FDF768
:102F40006DF93770E7482770077001786F54491C96
:102F5000C9B201703229F8D3DE480770DB48077028
:102F6000DB48F3E13070052870D300203070D7497A
:102F700006980127087003283CD900220A70089897
:102F8000D4490C2836D20A980870030003F0A4FC38
:102F90000D0E080B3E4244484C5052565A5F0E00EC
:102FA0002A70062101E02F7005216970401EC117AB
:102FB000890F08188005C849000E087041004218A2
:102FC000C748C94B815C10181970C84A4378137000
:102FD0008278C7480270287844000619C54834181A
:102FE000A170637082556C78650064192518A9700A
:102FF0006B700255B64904980870322826D3B04841
:10300000BD4907700620087000203EE102212970AA
:103010000421CAE703211BE0072129700D21C4E721
:10302000082129700C21C0E7092129700B21BCE778
:103030000A210DE00E2129701421B6E70F21297015
:103040001321B2E7102129701221AEE76CE01121A3
:103050002970AAE730700A286FD3002030709B488F
:1030600006990170032950D300219E4A0170117006
:10307000A1499B4809780C914A0089180A1895784B
:103080005478435C97489B4A017815208C4641430D
:103090008818067AC672C67986728679467246792B
:1030A000019606720679C671C778B6468771019E89
:1030B000867376464673077386784671477807713C
:1030C000BE46575CC770467477460774565CC67335
:1030D0008370447055540375C47461468574491CEB
:1030E000C8B2804903280870CCD37A480A99017085
:1030F00004290AD3002101700C9A7F48521CD2B2D5
:103100000270079B9A4200D301707C490878401CEA
:10311000C0B20870502810D300200870684904E03D
:1031200016E1B4E066E00AE007E0099A0A7069492E
:10313000087067490870684908700DB0F0BD3070BC
:103140001428FAD367493770022008706C4869491F
:1031500000220270634A12780B92D3009A1A9446A6
:103160000578624652195300D61872181346203B50
:103170005F7B97701F7B5770DA7A8A556D1CEAB2B5
:103180000270072AECD30B9B564A5B1E1B061B0ED4
:103190001370DDD100220270514A01986378155CEA
:1031A000A67857480278540017197C18A570521C4D
:1031B0006370D2B2CE550270072AF2D34648059901
:1031C0000170079A914201D300210170404A04998D
:1031D00011700829B1D33A49099B0B700178491C39
:1031E000C9B20170079B994201D3002101700020F0
:1031F00010704AE0307014289FD33A4937700F702E
:103200003F483C4900220270364A1278D300944667
:103210009D1A0378EA18560096197218D77D977090
:10322000977D5770527D8A555B1CDAB20270072A6F
:10323000EFD363465B1C2B4ADBB21370022BE1D346
:1032400000270770264A01986378155CA4782C4AF9
:10325000107846008619761820363573401CF372B4
:10326000C0B2B47210700728F1D31B4905980870DA
:10327000079A904200D30F70039815490828A9D3E4
:103280000F48099A027038460F70124954E730709F
:103290000A289FD313483770164B077011480178DE
:1032A00015200A464143C818047AC472C47984724E
:1032B0008479447246790672057923E0390000204A
:1032C0004000002089010020360000203700002047
:1032D000410000203B000020340000202A00002094
:1032E000910000202B0000202E0000202F00002045
:1032F00030000020BB010020570100203C000020CE
:103300002C000020C571C4788471867345730473E2
:1033100085784571447804715E5CC67045740474A8
:103320005C5CC473877047705F540775C77487749B
:10333000521CD0B2084903280870AFD307480A9935
:10334000017008299BD30649099A0A700770F4E6B0
:103350000348FF210170F0E62B0000203B00002015
:1033600040000020F8B53F483F4D01783F4E002413
:103370003F4F01291AD02878401CC0B22870082875
:1033800042D32C703078394609780C2860D2401C22
:10339000C2B232703748130003F09EFA0D20191C98
:1033A000373B3D4145494B4F5357200000220470A5
:1033B00011461046FCF732FF2F482C7004702F483E
:1033C00004702F48347004702E48047048E0047074
:1033D000062202E001220270052242704A008D1886
:1033E0000178294B4C000C1928495A5D6618B270B7
:1033F000ED186B787370AD780D5540784400001966
:103400004418A27063700D54F8BD022202700422A9
:10341000E3E703221AE0072202700D22DDE708220B
:1034200002700C22D9E7092202700B22D5E70A228A
:103430000CE00E2202701422CFE70F22027013223A
:10344000CBE7102202701222C7E711220270C4E7F4
:10345000491CC8B234700E49387009788842D3D3F9
:103460003C70F8BD39000020360000203B000020F1
:103470005701002089010020400000203400002076
:103480003C0000203700002091000020BB010020FC
:103490002A000020F0B5D24885B00178012923D058
:1034A000D048D94B0778D048D64C00780390CF4805
:1034B00000780290CE4800780190CE481B780678BC
:1034C000CD485D000178CD485B190278CC48CF4DDE
:1034D00000785D19401C0093C0B23B0003F0FCF97A
:1034E000053279B9D6FE3000002404702246214608
:1034F0002046FCF793FEBC48C34D0470BB48C34E46
:103500000470BB480470297848000F18F05D192139
:10351000FCF7F8FDB749BE19087070781921FCF75F
:10352000F1FDB5490870B0781921FCF7EBFDB349FE
:103530000870B3480470B6480470AA482C70047030
:1035400005B0F0BDAE4B08281870F9D300241C70EC
:103550000398A54B8019C0B21870029EA34B711836
:10356000C9B21970019FA24BBA18D2B2A24DA34E94
:103570001A70FCF753FEA6480178491CC9B20170C5
:103580000A29DDD904709748A34A0178491C0170C3
:10359000A04804709C480178491CC9B20170127897
:1035A000914200D304700078984C41004718E05DC8
:1035B0001921FCF7A7FD8F493C1908706078192183
:1035C000FCF7A0FD2870A0781921FCF79BFD307056
:1035D000B6E73001801B844BC0B218700B01591A3A
:1035E000824BC9B2197013019A1A814BD2B2824C24
:1035F000824D1A70FCF712FE86480178491CC9B248
:10360000017028299CD9002101707648824B0278EC
:10361000521C02707C480278521CD2B202701B7895
:103620009A4200D301700078784E41004718F05D4F
:103630001921FCF767FD6F49BE19087070781921D0
:10364000FCF760FD2070B0781921FCF75BFD287055
:1036500076E76E480099654A405C6349644B0870A0
:1036600069781170AA781A70FCF7D8FD694801785A
:10367000491CC9B201705029AAD9002101705948CA
:103680000278521C02706248017059E75C4B0628B0
:1036900018709DD300251D700398534B801BC0B23A
:1036A0001870029E514B711AC9B21970019E504B8D
:1036B000B21AD2B21A70FCF7B1FD55480178491C14
:1036C000C9B201700F29C3D9464905700A78521C46
:1036D0000A7050490D700178655400E007E0491CFC
:1036E000C9B201703229F6D34C48057028E7444925
:1036F00005280870ACD3002648480E7001780C29C4
:1037000023D2491CC9B201700B0003F0E5F80D0F7C
:10371000080B45494B4F5357595D61650F002670A3
:10372000062002E001202070052060702078410012
:1037300041183B480A1896705670465461784A0002
:103740008A1811188E704E70865436480178491CBC
:10375000C9B20170322998D322490E7006702248EE
:103760000670224806702248067028480099405C7E
:103770001921FCF7C7FC1F49087068781921FCF76C
:10378000C1FC1D490870A8781921FCF7BBFC1B4936
:1037900008701F480670D3E6022020700420C4E79A
:1037A00003201AE0072020700D20BEE708202070BB
:1037B0000C20BAE7092020700B20B6E70A200CE0A5
:1037C0000E2020701420B0E70F2020701320ACE7EB
:1037D000102020701220A8E711202070A5E700001B
:1037E00039000020400000202E0000202F00002083
:1037F0003000002031000020320000203300002083
:1038000036000020890100203400002091000020B3
:103810002B0000203C0000202A0000203B0000205C
:10382000BB01002041000020F8B5284E0024F178AB
:10383000274B284801290DD00188274D491C8AB201
:1038400001210280012A0ED0CD27FF00BA420CD1FF
:10385000197019E0F470048000221C7011461046A3
:10386000FCF7DCFCF8BD1C700EE01C4FBA4201D125
:10387000022008E01A4FBA4201D1032003E0194F99
:10388000BA4203D104201870297006E0164DAA42EE
:1038900003D104801548F17001701878030003F01B
:1038A0001BF80505080B0E110400DBE700F022FAF7
:1038B000F8BD00F01DF8F8BD00F07CFCF8BD00F08C
:1038C0004BFEF8BD01F0AAF8F8BD0000260000206C
:1038D000380000203E00002039000020520D00007A
:1038E0006E0F000092130000581B0000160000200D
:1038F000F0B5EC4803250178EB4F0026EB4C85B082
:10390000012924D03878401CC0B2387005287DD3F6
:103910003E70E748E8490378E6480F780078791C5C
:10392000401C0A22C9B2C0B2002B28D0012B6ED095
:10393000E14B0C2F6CD219700B0002F0CDFF0DFD86
:10394000FCFBFAF9F8F7F6F5F4F3F2F1FD000022CA
:10395000067011461046FCF761FCD8480570D44843
:103960003E700670D648067001786654491CC9B28C
:1039700001703229F8D3D0480670CE4875E0CE4B9E
:103980000C2F4DD219700B0002F0A6FF0D25080B6D
:103990001014171B1F2372767A7E250026700621CD
:1039A00002E0012121700521617014E002212170E3
:1039B0000421F9E7257065700DE0072121700D21C4
:1039C000F2E7082121700C21EEE7092121700B217B
:1039D000EAE722706270B949BB4D09784A008B183A
:1039E000B84AD15C29709A18B84D53782B70B84DED
:1039F00092782A7025786F00ED19B64FEF19B970DB
:103A00007B70B44F7A556478650002E02EE03EE0AA
:103A100023E164193D466519A9706B7039460A5552
:103A2000A4493228087021D3A1480125AA4C057069
:103A3000AA4F26703888113080B23880FCF781FB9D
:103A4000FCF776FBC0B21421FCF75CFBA44A20789B
:103A50001154A4490D54A4490E54401CC0B2207006
:103A60003228E7D3A1480670A148067005B0F0BD22
:103A70000E212170142197E70F212170132193E764
:103A80001021217012218FE7112121708CE79248BB
:103A900000210170904893490078095C0391002946
:103AA0005FD001297ED00021854AC3001B1A117006
:103AB0009C46157863465B195E009F19854B6D1C0B
:103AC000FE18B1707170D955EBB21370072BF0D39B
:103AD000844A115480480178491CC9B201700329F5
:103AE000D8D382480178491CC9B201703229BDD9A6
:103AF00000256F4F0570714E3D703078724B41005C
:103B000042187049885C18705218704B51781970BF
:103B10006F4B92781A70FCF781FB3078401C0CE0F8
:103B2000BEE0B9E0B4E0AFE0ACE0A7E0A2E09DE029
:103B30006DE068E062E05EE06BE0C0B230700528E6
:103B400001D9022038705E48057001786554491C1F
:103B5000C9B201703229F8D357480570554805702D
:103B600084E757490022554B0A701B78554A5D007F
:103B70005B19D55C9A18029553780193927800925C
:103B8000C300544A1B1A9C460B786546ED186E001C
:103B9000AE19B518029FAF70019F6F70009D9555CB
:103BA0005B1C00E008E0DBB20B70072BECD3039A40
:103BB0004C49521C0A548DE74B49494E0A5C464D0C
:103BC000521CD2B20A54335C9A4283D900220A545E
:103BD00042490888113080B20880FCF7B2FAFCF73D
:103BE000A7FAC0B21421FCF78DFA28783D4A315467
:103BF000115C491C6DE72670062202E0012222704A
:103C00000522627005E0022222700422F9E7257085
:103C10006570491ECA17920F51188905274A090E67
:103C200011704A008B182749274DCA5C59182A7011
:103C3000264B4D781D708B7825490B7021784E00EE
:103C40008F1924497E18B2707570CB556478660060
:103C5000A4196618B27075700B551649282808709B
:103C600000D203E71248FF210170FFE6072222700D
:103C70000D22C6E7082222700C22C2E70922227018
:103C80000B22BEE72270BCE70E2222701422B8E796
:103C90000F2222701322B4E7102222701222B0E702
:103CA0001122EFE7390000203600002089010020B2
:103CB00040000020410000203B0000203400002094
:103CC0002B000020910000202E0000202F0000205B
:103CD00030000020BB0100202C0000202400002028
:103CE00025010020F3000020C10000203C0000203E
:103CF00037000020F0B5FE4AFE4811780478FE4BEC
:103D0000FE4887B0012961D019460F78FC497A1C1A
:103D10000B78FC495B1C0978DBB2491CC9B20191E4
:103D2000D1B20091002F7DD0F84DF7492D78097858
:103D3000AC466D1CEEB24D004A1C4D19F449D2B28E
:103D40006918012FEE4F3B706DD00A2B3CD3002336
:103D50003B706346002B67D0012B66D0022B77D0D7
:103D6000EC4B0026EA4F1E707D5D03954D78029561
:103D70008978019100210170E64BE7491B78009397
:103D8000DD00EB1A9C4603786546ED186E00AE190F
:103D90007518039FAF70029F6F705B1C019DDBB2B3
:103DA0008D550370072BEED3009BDA495B1CDBB209
:103DB0000B70032BDED3D448A242027001D3002142
:103DC0000170D2490020087007B0F0BD00211170C9
:103DD000D24ACB4D117029701970CE4BCE4D19704F
:103DE000CC4E214630780090FCF78CF9CB4800226D
:103DF0000170C2484B000270C54AC918535C89184B
:103E000002934A78019200988B78C100081A844680
:103E1000BA4862460178029F5218560096197219E4
:103E2000977003E015E069E027E14BE1019F491C31
:103E30005770C9B2AB5501700729E9D30099B5484D
:103E4000491CC9B201700329CAD30020AD49BAE7A1
:103E50007CE1AB49142B0B70B6D300220A70AE493B
:103E6000AF4C8B7823700393AE4C4B782370029346
:103E70000B78AD4C9C462370A64B1A700022027042
:103E8000A44A1378DA00D51A04782A19560096192C
:103E90007218D77D9770977D5770527D8A55641C34
:103EA000E2B20270072AEFD35B1C9A4ADBB21370AE
:103EB000022BE3D3002202700478039D6300E31811
:103EC0005B1820331D73029DDD7265469D72641C74
:103ED000E3B20370072BEFD38A48019901701429CC
:103EE000BAD302708448009901708C4802708F48E0
:103EF0000270864802708448027065E70A2BFCD382
:103F000000233B706346002B42D0012B66D0022B6E
:103F10007ED0804E00237E4F33707D5D05954D78B9
:103F2000049589780391002101707A4B7A491B78B6
:103F30000293DD00EB1A9C4603786546ED186E008F
:103F4000AE197518059FAF70049F6F705B1C039DC1
:103F5000DBB28D550370072BEED3029B6D495B1CC2
:103F6000DBB20B70032BDED36748A242027001D391
:103F700000210170654800210170624901980870B4
:103F80006428BAD3002008705B48009901701BE7D1
:103F9000604F00233B7003705D48405D049048789B
:103FA000039088780290D800C01A8446534960462E
:103FB0000978049F40184300C5185748491C2B181E
:103FC0009F70039F5F70029B4355C8B24B490728FF
:103FD0000870EBD34AE04D480670CEE74D4F022300
:103FE0003B70002707704A4F7D5D04954D7803951F
:103FF00089780291D900C91A8C46017863465B180A
:104000005F00DB19444F049DDF19BD70039D00E084
:1040100009E07D70404F491C029DC9B2FD540170FA
:104020000729EAD322E03B4F01233B7000270770AA
:104030003748405D04904878039088780290D80013
:10404000C01A84462D4960460978049F40184300F1
:10405000C5183148491C2B189F70039F5F70029B45
:104060004355C8B2254907280870EBD32648A24219
:104070000270B0D300210170ADE7264F00233B70E2
:10408000234F03707D5D02954D78019589780091ED
:10409000D900C91A8C46017863465B185F00DB19AA
:1040A0001D4F029DDF19BD70019D7D701A4F491C87
:1040B000009DC9B2FD5401700729ECD369E0134893
:1040C000067081E6134F02233B7000270770104FE4
:1040D0007D5D02954D78019589780091D900C91AC6
:1040E0008C46017863465B185F00DB190A4F1FE0BE
:1040F000390000202A000020400000202C00002071
:10410000360000203C00002057010020F300002072
:10411000910000202B000020BB0100203400002073
:104120002E0000202F000020300000203B00002047
:10413000DF19029DBD70019D7D70194F491C009DC6
:10414000C9B2FD5401700729CBD322E0154F0123DA
:104150003B7000270770144F11487D5D02954D7824
:10416000019589780091D900C91A8C460F49634698
:104170000978029F5B185D005D192B189F70019FE5
:104180005F70009B4355491CC9B2084B0729197041
:10419000ECD30748A242027091D3002101708EE750
:1041A000BB0100202B000020910000202C000020EB
:1041B00057010020F0B5D94AD94910788BB00128B1
:1041C0001DD008460678D848D64A00781378401C97
:1041D000C1B2D648721C0478D54F6500601C6519C1
:1041E000D44CC0B22C19D2B2002E15D0012E43D01F
:1041F000022E6AD0032E7DD00521C9489BE0002005
:104200001070CA4A1070CC4A10700870C649087005
:10421000CA4908700BB0F0BD00263E70C84F3E7012
:10422000C44F7D5D019565780395A4780794F400EB
:10423000A41BA446C24C65462478019F2D196E002C
:10424000AE19C04D641C7519AF70039F6F70BD4FE0
:10425000079DBD55E4B2BA4D072C2C70EAD3B24C81
:1042600014292170D6D30025B049257008709842D2
:1042700029D2AB480270CDE701263E70B646B04E5B
:1042800000273770AB4F76467D5D079565780695BC
:10429000A478A446F400A41B0394A94C039D24789D
:1042A000079F2E1975007619A64D641C7519AF70FD
:1042B000069F6F70A34F6546BD55E4B2A04D072C15
:1042C0002C70EAD3CBE70D70D3E702263E70B646DA
:1042D0009B4E00273770974F76467D5D0795657832
:1042E000A4780494F400A41BAC460394944C039E5D
:1042F000247800E021E036197700F719914E079DE8
:10430000BE19B570654675708E4D049EEE55641CE1
:10431000E4B28B4D072C2C70E8D3834C1429217008
:10432000A9D300212170814C9842207000D32170C4
:104330007B480270844801706CE77F480178491C13
:10434000C9B20170022996D3002404707848047021
:104350007C48827879480078069041004118754879
:104360000D18002A06D177484278002A02D1007839
:10437000002834D06F48405C1921FBF7C3FE734915
:104380000870089068781921FBF7BCFE7049087026
:104390000790A8781921FBF7B5FE6E49844608708E
:1043A000674900200870E000001B03900E78089F0A
:1043B000801942008418634A761CA3189878C01BA1
:1043C00098705878079FC01B5870105D6346C01ADC
:1043D0001055F0B20870072801D20398E6E75A4852
:1043E000007802900F283FD3564CE07D002805D17D
:1043F000A07D002802D1607D002835D0E878192101
:10440000FBF780FE51490870099028791921FBF7C4
:1044100079FE4F490870019068791921FBF772FE07
:104420004C498446087042490120087044490022E2
:104430000A70C200101A07900E78099F8019420076
:1044400083181A199078761CC01B90705078019FC1
:10445000C01B5070E05C6246801AE054F0B20870F5
:10446000072801D20798E7E702981E283ED335486F
:104470002030017B002905D1C17A002902D1807A40
:1044800000283BD0A8791921FBF73CFE2F49087082
:104490000190E8791921FBF735FE2D490870049049
:1044A000287A1921FBF72EFE2A4902230870204999
:1044B00000220B702249DC000A70224AE31A9C4653
:1044C0000D7863465B195C001C19A3189F78019E48
:1044D0006D1CBE1B9E705F78049EBE1B5E70135DDC
:1044E0001B1A1355EBB20B70072BE9D302981F2848
:1044F00000D38FE614480178491C1CE708490020C6
:104500000870069B0D4ADB1CDBB21370092B01D32C
:1045100004220A700C490870ECE700003900002002
:10452000400000202A0000203C0000203400002031
:104530002B0000209100002036000020F300002016
:104540002C000020BB0100203B0000203100002097
:104550003200002033000020F0B5FF48FF49027808
:1045600085B0012A28D008460578FD48002D077837
:10457000FC4800788446FC4800780190FB480378AA
:10458000FB480178FB48027845D0F448FB4E0078A0
:10459000401CC0B20290F848367800780096441C5F
:1045A000E4B2012D7ED0022D7DD0032D7CD0EB49CD
:1045B0000420087005B0F0BD00240470EF4DF048F1
:1045C0002C700470EC480C700470EE4822460470A5
:1045D000ED48214604702046FBF720FEE0480470B9
:1045E000E0480470E04804702878E84C4100451821
:1045F000605D1921FBF786FDDC492C190870607895
:104600001921FBF77FFDDA490870A0781921FBF723
:1046100079FDD849CDE7F818D14DC0B2D14B6144EE
:104620002870C9B21970019DCF4BAA18D2B2CF4CD5
:104630001A70FBF7F3FDD44E3078401CC0B23070D6
:104640001928B7D3C548D14D0178491C0170CB4812
:10465000007841004718E85D1921FBF753FD2070F1
:104660007C1960781921FBF74DFDC1490870A078CD
:104670001921FBF747FDBF4900250870BE48C44C0F
:1046800005703570C34EC44F2570C4482178455419
:104690003088113080B23080FBF753FDFBF748FDC6
:1046A000C0B202E00DE0A4E031E10521FBF72AFDF4
:1046B0002078491D3954401CC0B220703228E4D300
:1046C00078E703284DD2B24800240470B048B34CB8
:1046D0000078245C012C3DD0B14CAF4E255C6D1CA4
:1046E000EDB22554365CB5421FD300252554AD4CA0
:1046F0002570C400241A0194AA4C019D2478A44674
:104700002C1965006619A84C3519AF78FF1AAF70DF
:104710006F787F1A6F70A55DAD1AA5556446641C4D
:10472000E4B2A04D072C2C70E6D315240546654352
:104730009D4C2E19B778002F0CD17678002E09D118
:10474000645D002C06D18C4D2C78641C2C70934D2C
:1047500001242C54401C8E4CC0B220700328B5D3C9
:1047600001E085480470844801783729A8D30024E3
:1047700004707A480299017000998048491CC9B2B6
:104780008A4A01701278914200D3047000787F4DFC
:1047900041004618A85D1921FBF7B4FC734975194F
:1047A000087068781921FBF7ADFC71490870A8788A
:1047B0001921FBF7A7FC6F49754D0870754E764FB0
:1047C0002C707648297844543088113080B230807B
:1047D000FBF7B7FCFBF7ACFCC0B20521FBF792FC82
:1047E0002878491D3954401CC0B228703228E8D3BB
:1047F000E0E6624D2D786E00AD19644E0195AD195D
:104800000095032856D26248002404706048634C27
:104810000078245C012C46D0614C5F4E255C6D1CF9
:10482000EDB22554365CB5421FD3002525545D4CAE
:104830002570C400241A03945A4C039D2478A4467E
:104840002C1965006619584C3519AF78FF18AF70F0
:104850006F787F186F70A55DAD18A5556446641C10
:10486000E4B2504D072C2C70E6D3152444434E4D32
:10487000A4466519454C019EAF78A45DA74212D1AC
:10488000009C6D786478484EA5420CD16446355D35
:10489000009CA478A54206D1374D2C78641C2C705E
:1048A0003E4C01252554401C394CC0B220700328D1
:1048B000ACD301E0304804702F480178372997D3F2
:1048C0000021017025480299017030480199455C2A
:1048D00019212846FBF716FC014624480170009870
:1048E000192146783046FBF70DFC0146204801703F
:1048F0000098192184782046FBF704FC1D490870B4
:1049000017480570174806701748047052E6F81AE1
:10491000134C6346C0B2134D591A2070C9B22970A6
:10492000019B114E9A1AD2B23270FBF777FC1648EF
:104930000178491CC9B201701929E7D30024047019
:104940000E481A4A0178491CC9B201701278914286
:1049500000D3047000782BE03900002040000020D4
:104960002E0000202F000020300000203100002009
:1049700032000020330000203B00002034000020E3
:104980003600002037000020410000209100002068
:104990002C00002024000020250100208901002097
:1049A000C10000202B000020BB0100202A000020B5
:1049B0004100471812481921C05DFBF7A3FB1149BC
:1049C00008700F4819213F187878FBF79BFB0E49B8
:1049D0000870B8781921FBF795FB0C490E4A08704E
:1049E0000B4804702C700B48347004701178491C0B
:1049F000C9B21170022989D304210170DAE50000DF
:104A000091000020310000203200002033000020FF
:104A10002E0000204000002037000020FEB578481E
:104A200000270178774C784D784E012912D1002269
:104A3000077011461046FBF7F1FB75480770754883
:104A40000770754807707548077027702F70744895
:104A5000377007706F480178491CC9B2017003298B
:104A600076D907706D480178491CC9B201702829B0
:104A700008D9077068480178491CC9B20170052936
:104A800000D9077064480078030001F025FF060490
:104A90000B121921293037702078401D207028789A
:104AA000C01F13E02F703078801F307020780930DD
:104AB00014E027702878C01D28703078001F15E09A
:104AC00037702078401F20702878083028700EE05A
:104AD0002F703078C01C30702078C01F207006E026
:104AE00027702878083828703078C01C30704C48FF
:104AF0004D4A01784B4800292BD0012946D0022984
:104B000060D01770217801912978009131788C4616
:104B10000021454A017012784449D3009D1A037858
:104B2000019FEC186600A6197418A770009F6770A3
:104B30005B1C6446DBB28C550370072BEFD3521C11
:104B40003949D2B20A70032AE2D3354900200870ED
:104B5000FEBD1770077022782D7833780093FB0024
:104B6000DB1B9C46047863461B195E009F192F4B84
:104B7000641CFE18B2707570009EDE55E3B20370BF
:104B8000072BEFD32648491C0170FEBD022313708A
:104B90001A46077023782C7835780095D500AA1A24
:104BA0009446057862465219560097191F4A6D1CA3
:104BB000BE18B3707470009ED655EAB20270072A10
:104BC000EFD3DFE7012313700770247801942C786A
:104BD000164AA446DC003578E31A00930378009E59
:104BE000019CF6187700F719BE18B47064465B1C78
:104BF0007470DBB2D5550370072BEFD3C2E700000A
:104C0000390000202E0000202F000020300000205E
:104C10003400002036000020400000203700002033
:104C2000F30000202C0000202B000020BB010020FE
:104C3000F8B5274E0024F178264B274801290CD0DF
:104C40000188264D491C8AB201210280012A0DD01B
:104C5000234FBA420CD1197019E0F470048000227D
:104C60001C7011461046FBF7D9FAF8BD1C700EE017
:104C70001C4FBA4201D1022008E01B4FBA4201D1B9
:104C8000032003E0194FBA4203D1042018702970A1
:104C900006E0174DAA4203D104801648F170017056
:104CA0001878030001F018FE0505080B0E1104002A
:104CB000DBE700F021F8F8BD00F0A4FBF8BD00F040
:104CC000F3FEF8BD00F0CAFFF8BD01F001F9F8BD30
:104CD00026000020380000203E000020390000207F
:104CE000640A0000E614000044160000CD1900001C
:104CF0003421000016000020F0B5F848F84C017887
:104D000000268DB001292DD020460278F548037881
:104D1000F5485B1C0478F548DBB201780893531C16
:104D2000DBB20693F24B641C1B78E5B25C1CE4B268
:104D30000794F04C5F0024780994641CE4B2049456
:104D4000ED4CDB192478EE4F0293DB19491C0094DB
:104D50000193C9B2E94C130001F0BEFD051770F5CF
:104D6000F3F2F1000022067011461046FBF756FAE6
:104D7000DF4826700670DF480670E2480670D948A2
:104D80000670D94806700DB0F0BD01700529FAD340
:104D900000210170D3480899017005293DD30022F4
:104DA0000270D94902200870D84800210170D64A03
:104DB000D74912780B92D3009A1A94460478624627
:104DC00012195300D61872181346203B5F7B977058
:104DD0001F7B5770DA7A8A55641CE2B20270072A88
:104DE000ECD30B9AC84B521E1206120E1A70DCD16D
:104DF0000270C34A029BD75C019A54789278944619
:104E000002785300D61873189F705C70521C63466A
:104E1000D2B28B550270072AF2D3B348322D0570F7
:104E2000B1D300210170AE48069A0270B048079ACB
:104E30000270009B9A42A6D30170A4E70170052975
:104E4000A1D300210170A74808990170052938D322
:104E500000210170AC4AAD4811700021AA4A0170CE
:104E60001278AB49D30094469C1A0378E218560096
:104E700096197218D77D9770977D5770527D8A5515
:104E80005B1CDAB20270072AEFD363465B1C9E4AB2
:104E9000DBB21370022BE0D300220270984A029B0F
:104EA000D65C019A5478937802785700D7197F1806
:104EB00020373E73521CFC72D2B2BB720270072ABA
:104EC000F2D38949282D0D70B7D300200870884986
:104ED000079A0A70009B9A4200D30870804B894958
:104EE00018700A78521CD2B20A70022AA5D908702A
:104EF000022119707F49844A08708449844B1070DC
:104F0000814A08701278D400A71A0C783D196E00F7
:104F1000AE19F518A870641C6870E4B298550C704E
:104F2000072CF2D37B4D784CA854764DA8547A4D7B
:104F3000AA54521CD2B22270032AE1D323E744E2DE
:104F4000EEE1FBE0FFE701700529F7D300210170D6
:104F50006D4801706C496F480C78015D491CC9B2FD
:104F60000155A14257D3002101556648005D002834
:104F700002D001284FD153E0204615214843644E0A
:104F80008446811964488A78005D5D4F4300C018EB
:104F90000290385C82420AD34A780299C9194B7848
:104FA0009A4204D36246B25C89788A4234D219218B
:104FB000FBF7A8F859490870079002981921C719FA
:104FC0007878FBF79FF8564908700490B878192153
:104FD000FBF798F85349844608704C48002101704B
:104FE000E000001B0890494808990378079FC818FB
:104FF00041004218911988785B1CC0198870487864
:10500000049FC0194870B05C40496044B054D8B2A5
:1050100008700728E7D359E03A480121015555E0C7
:1050200015203B4E604381198A78002A05D14978C2
:10503000002902D1305C00283CD03748304F005D59
:10504000410040180390385C1921FBF75BF83349A5
:105050000870029003981921C7197878FBF752F865
:105060002F4908700A90B8781921FBF74BF82D49A1
:1050700084460870254800210170E000001B09905B
:105080002249029F0B78C018410042189119887874
:105090005B1CC01B887048780A9FC01B4870B05CBE
:1050A0006146401AB054D8B21849072808700DD28A
:1050B0000998E5E713490020085517490A5D521C75
:1050C000D2B20A55009B9A4200D30855641C0E4880
:1050D000E1B20170032927D23CE70000390000202B
:1050E0004000002037000020410000203600002052
:1050F000340000203B0000202A000020890100200D
:1051000091000020F30000202B0000202C00002044
:10511000BB010020C1000020570100203100002009
:105120003200002033000020A948322D057000D243
:1051300029E600210170A74806997DE6017005293E
:10514000F6D300210170A4480170A348A349067852
:10515000885D401CC0B28855B0425ED3002088559F
:105160009F48805D002802D0012856D159E0304682
:10517000152148439B4F8446C3199B489978805D0D
:1051800042008018994A0390105C81420BD35A78F0
:105190009649039B59184B789A4204D36246BA5CED
:1051A00089788A423AD21921FAF7ACFF90490870FF
:1051B0000A908E4903984018029040781921FAF716
:1051C000A1FF8C4908700990029819218078FAF79C
:1051D00099FF894908700290884800210170F00009
:1051E000801B08908548089900780A9A8446081818
:1051F00041004118C81983789A1882704378099A37
:105200009A1842707A5C0298101878546046401CD4
:10521000C0B27A4907280870E4D35EE070490120E3
:105220005AE0304615216F4F4843C1198A78002A49
:1052300005D14978002902D1385C002841D06A485C
:10524000805D4100401869490290085C1921FAF715
:1052500059FF674908700A90644902984018029003
:1052600040781921FAF74EFF6249087009900298B8
:1052700019218078FAF746FF5F49087008905F4867
:1052800000210170F000801B07905C4807990078AE
:105290000A9A8446081841004118C81983789A1A56
:1052A00082704378099A9A1A42707A5C0898101AA8
:1052B00078546046401CC0B2504907280870E4D3B7
:1052C0000BE047490020885547498A5D521CD2B2FD
:1052D0008A55009B9A4200D38855761C3E49F0B20D
:1052E0000870032800D230E73948322D057000D20B
:1052F00049E500210170374A022010704048049BA4
:105300000370022BF4D90170042010703248017030
:105310000278A154521CD2B20270322AF8D332E57C
:1053200001700529E4D306700998354A05210C2837
:1053300026D204981070030001F0CEFA0D13080B6A
:105340000F282A2E3236383C40441300267006209F
:1053500006E001202070617003E00220207004202C
:1053600060702078420083181E481A189670567094
:10537000C65462785300D3181A1896705670C654E3
:105380001348322D0570B3D3124855E503201AE0B7
:10539000072020700D20E3E7082020700C20DFE7B5
:1053A000092020700B20DBE70A200CE00E20207083
:1053B0001420D5E70F2020701320D1E71020207093
:1053C0001220CDE711202070CAE7FF21DCE70000A2
:1053D00041000020400000202B000020C1000020E0
:1053E000F3000020BB0100205701002091000020A5
:1053F0003100002032000020330000202C0000206B
:105400003B000020F0B5F848F84D01788BB0012939
:105410002DD0284607780897F649F94C0B78F448C0
:105420002678F549F54A00789B1909781278DBB29D
:105430000093F44B401C1D78F34BC0B21C78F34B27
:1054400049191B7806905B1CDBB20293F048F14BC4
:1054500000781B7812190193C9B2D2B23B0001F057
:105460003BFA092B4B7EFDFCFBFAFAFAF90000240B
:105470000470224621462046FAF7D0FEE3482C70FD
:105480000470E54819210470E4480470E44804708D
:10549000D7480470E34C2078FAF734FED8490870F6
:1054A00060781921FAF72EFED6490870A0781921E4
:1054B000FAF728FED449D8E2B0003018CD49C0B27E
:1054C0000870A9006918CC4AC9B21170A200A218CC
:1054D000CA4BD2B21A70FAF7A1FED1480178491C22
:1054E000C9B201700A2938D900210170BF48027879
:1054F000521C0270C64874E1BE4B00981870BE4B37
:105500001970BE4B1A70FAF789FEC1480178491C20
:10551000C9B20170142920D300250570B348C24CCC
:105520000178C24E491C0170C14F2570C1482178D5
:1055300045543088113080B23080FAF702FEFAF715
:10554000F7FDC0B20521FAF7DDFD2078491D395479
:10555000401CC0B220703228E8D30BB0F0BD032845
:105560004CD2B14800210170AF48B2490078095CC3
:1055700001293CD0B049AE4B0A5C521CD2B20A544D
:105580001B5C9A421FD300220A54AC490A70C10026
:10559000091A0991A949099A09788C4651184A00B3
:1055A0008B18A7495A189778BF1B977057787F1B9D
:1055B0005770CA5C121BCA546146491CC9B29F4A43
:1055C00007291170E6D315219D4A41438B189F7816
:1055D000002F0CD15B78002B09D1515C002906D13A
:1055E0008B490A78521C0A70924A01211154401CBE
:1055F0008D49C0B208700328B6D302E08449401C2C
:105600000870834E30783728A7D38348002404706D
:1056100076480470824804707C4802990170019AAF
:10562000914200D3047000787E4F41004518785DA8
:105630001921FAF767FD7249ED1908706878192188
:10564000FAF760FD6F490870A8781921FAF75AFD3A
:105650006D4904E00BE2F7E0BBE082E016E0087081
:105660003470634806990170022900D875E7047008
:105670005E490320087071486E4A047001785454E2
:10568000491CC9B201703229F8D366E7604C03287F
:1056900065D2684F654D6B4E2888113080B22880E6
:1056A000FAF74FFDFAF744FDC0B20321FAF72AFDDD
:1056B0003170785C0128EFD00120C9B2785420788D
:1056C000401C2070494800250178564E491C017045
:1056D00047480570474805704748057047480570BA
:1056E0004A48017848000F18F05D1921FAF70AFDC1
:1056F0004349BE19087070781921FAF703FD414932
:105700000870B0781921FAF7FDFC3F49087042484B
:105710000178491CC9B201703229B6D33349052238
:105720000A7005702570404C404F414E257041482D
:10573000217845543888113080B23880FAF701FD5D
:10574000FAF7F6FCC0B21421FAF7DCFC20780A3133
:105750003154401CC0B220703228E8D3FDE604204A
:10576000AFE7244B009F1F70234B03281970234978
:105770000A701ED83148002101703249304809783A
:10578000CA00511A8C462D4A61461378C9184A003E
:105790008A1811188F785B1CBF198F704F787F198A
:1057A0004F70815C09198154D9B2244A07291170BC
:1057B000E9D30F49069808701928CFD30B49032065
:1057C0000870124802990170019A9142C6D30021D3
:1057D00007E0002211461046FAF720FD0348017841
:1057E000491C0170B9E6000039000020400000208B
:1057F000370000202E0000202F0000203000002065
:10580000310000203200002033000020340000204E
:105810003B0000202A000020410000203C00002026
:1058200036000020910000202C00002024000020E1
:105830002501002089010020C10000202B0000204C
:10584000BB010020F30000208A4800210170894834
:10585000032100780446FAF755FC87480129015DC9
:1058600032D0491CC9B2854A0155125D91427DD999
:105870000025055520460199FAF744FC804801703F
:105880008048005D0990002871D07F4800227F4B3E
:105890004D0002704D19E9188E7807964F78E10097
:1058A0007B4A5D5D091B8C46017863465B185E0090
:1058B0009E19B3189D705F70491C079BC9B2935520
:1058C00001700729F0D393E0491CC9B2015503299F
:1058D0004CD30021015520460199FAF713FC684882
:1058E0006A4D017048000F18E85D19210290FAF71F
:1058F00009FC064667487F190670787819210490DC
:10590000FAF700FC0546644819210570B878074687
:10591000FAF7F8FB6149024608705A48005D002812
:1059200035D020461521484359498446401883788C
:1059300002998B4208D341780498554B814203D396
:105940006046185CB84253D24F4800210170E00015
:10595000001B05904C480599007884466144480036
:105960000B184B4819188F78BF1901E069E042E025
:105970008F704F787F194F70C15C8918C154604691
:10598000401CC0B2404907280870E3D359E01520F5
:105990003F4F6043C1198B78002B05D1497800290E
:1059A00002D1385C00281FD0374800210170E00088
:1059B000001B099034480999007884460818410072
:1059C0004318334819188F78BF1B8F704F787F1B8F
:1059D0004F70C15C891AC1546046401CC1B22A484C
:1059E00007290170E6D32CE026480121015528E063
:1059F0000020244924E02448244A4B000570C9189B
:105A0000535C89185B0807934A78897852084908DB
:105A1000944605911E49E200151B0278079BAE18BB
:105A20007700F7197E18B37063467370521C059B9C
:105A3000D2B2CB550270072AEFD309981149401C06
:105A40000855641C0B49E0B20870032800D2FEE63A
:105A500013480178491CC9B20170C82900D87CE5F7
:105A60000021017008980F49401C087075E5FF215E
:105A70000C48B6E62C000020C100002025010020C3
:105A800034000020F30000202B00002091000020B3
:105A9000BB01002031000020320000203300002034
:105AA0003600002040000020F8B56049604D0878BD
:105AB000604C614E01280DD060482F780278304646
:105AC00001785F483B00007800F006FF061F8088E1
:105AD000919DA5AE002008705A49287008705A4957
