:020000040000FA
:1000000000040020F1000000F5000000D500000011
:1000100000000000000000000000000000000000E0
:10002000000000000000000000000000F9000000D7
:100030000000000000000000FB000000FD000000C8
:10004000FF000000FF000000FF000000FF000000B4
:10005000FF000000FF000000FF000000FF000000A4
:10006000FF000000FF000000FF000000FF00000094
:10007000A9660000FF000000FF000000FF00000074
:10008000FF000000FF000000FF000000FF00000074
:10009000FF000000FF000000FF000000FF00000064
:1000A000FF000000FF000000FF000000FF00000054
:1000B000FF000000FF000000FF000000FF00000044
:1000C0000348854600F076F800480047B96B000009
:1000D0000004002004207146084202D0EFF309809A
:1000E00001E0EFF308807146004A10479D1D0000B3
:1000F00003480047FEE7FEE7FEE7FEE7FEE7FEE710
:10010000C100000030B50B4601460020202201242A
:1001100009E00D46D5409D4205D31D469540491B3B
:100120002546954040191546521E002DF1DC30BD84
:100130000549064A08685043054A80180860400887
:100140007047014908607047740000206D4EC64139
:1001500039300000F0B51FB40646002082B00546D5
:100160004024019100901BE0019922460F46304641
:1001700000F042F8049A059B801A994110D310466A
:100180001946224600F028F8361A8F410197224678
:1001900001200021009F00F01FF838184D41009009
:1001A0002046641E0028DFDC019B00982946324669
:1001B00007B0F0BD064C0125064E05E0E36807CC0C
:1001C0002B430C3C98471034B442F7D3FFF77CFF25
:1001D000186D0000386D000010B5202A04DB0146C0
:1001E000203A9140002010BD914020239C1A0346E4
:1001F000E3401943904010BD10B5202A04DB0846A7
:10020000203AD040002110BD0B46D340D0402024DE
:10021000A21A91400843194610BD000070B5064C63
:1002200000235D005D192E19B0705B1C7170DBB28C
:100230006255152BF5D370BDBB01002000B50548F4
:10024000C178012905D10021C1700A460846FFF78F
:10025000E5FF00BD26000020F8B529484278002AB5
:100260002CD005250146274E2D07274FC97800249D
:10027000012A06D0022A22D0032A1FD101292AD01E
:1002800033E0012909D11E480022C47004700C21FA
:100290001E4801F02DFD0120B06119480178491C6C
:1002A000C9B20170052909D904704470686B3840DF
:1002B0006863686B0321890208436863F8BDC470F2
:1002C0000470B4614470686B38406863686B68633D
:1002D000B462F462F8BDC4700470B461696B3940F3
:1002E0006963696B6963B462F4620178491CC9B2DD
:1002F00001700529EED9047001214170C170F8BD6B
:100300005400002000420050F3F3FFF3404000503F
:1003100070B52848066B284903248A1C01250B1F49
:100320000020012E17D0087048701178491CC9B2FE
:100330001170322909D310705178491CC9B251701B
:100340000A2902D350705C70DD701B499A78091D30
:10035000012A11D014E0107050700A78521CD2B2E9
:100360000A70322AF1D308704A78521CD2B24A700D
:100370000A2AEAD34870E6E79870087048708870D7
:100380000A78521CD2B20A70322A10D308704A7806
:10039000521CD2B24A703C2A09D348708A78521C47
:1003A000D2B28A703C2A02D388705C70DD70FFF78D
:1003B00053FF70BD0042005058000020F0B5824A43
:1003C000824CD378824D0020824989B0012B07D01E
:1003D000814A13780A2B52D25B1C137009B0F0BD0E
:1003E000D0707E4A0870127806927A4E069930785C
:1003F0000790FFF787FE7A484A00017000202070BE
:10040000784889180A1893789C465378425C079874
:10041000C1000F1A20783E187100761871198A7081
:100420004B70401C6146C0B2A95520700728F1D31B
:1004300007996848491CC9B201700329D5D3002522
:100440000446694E694F25703088FFF77AFE308880
:1004500011303080FFF76CFEC0B21421FFF752FE5E
:10046000634A207811540121395462490D54401CCB
:10047000C0B220700328E7D357480570AEE70020CC
:100480001070594A13885B1C1380087051485749F3
:100490000678885D0890002804D0012829D0022819
:1004A00048D148E04D4801783046FFF72BFE4C48D4
:1004B0004C4B01700020207048000918C818827841
:1004C00005924778F000595C801B8446207862468C
:1004D00012185300D218531999705F70401C059B75
:1004E000C0B2AB5420700728F0D308983F49401C95
:1004F0005FE040483E4F825D521CD2B28255BB5DE8
:100500009A4257D900228255374E3088411C31809B
:10051000FFF717FE308811303080FFF709FEC0B2B8
:100520001421FFF7EFFD2B48007839542F490A5C5E
:10053000521C0A543EE0294801783046FFF7E2FD9C
:1005400027484A0001700020207026488918009131
:10055000405C3221FFF7D6FD81004018C7B2214828
:1005600000990818009040783221FFF7CBFD8100F8
:100570004018C0B20490009832218078FFF7C2FD85
:1005800081004018C0B20390F000801B84462078A0
:10059000614609184A0089184A199770049B5370DC
:1005A000401C039AC0B26A5420700728EFD30F4949
:1005B0000020885507490878401CC0B208700328FD
:1005C00000D263E70AE70000260000202C0000208C
:1005D000BB01002035000020360000202A0000204A
:1005E000340000209100002024000020F3000020AF
:1005F00025010020C1000020F0B51848184BC7782D
:100600001849194D0024194E194A012F05D02F7889
:10061000082F0ED27F1C2F70F0BDC4701C700C70A0
:100620001470002211461046FFF7F8FD2C7034704C
:10063000F0BD2C703578EF0700D1FF2414706D1CCD
:10064000ECB23470052C03D9447804700124C470D2
:10065000127809781878FFF7E1FDF0BD2600002038
:100660002E0000202F00002036000020F300002084
:10067000300000200248016AC20111430162704744
:1006800000020050F3B58BB00C46FFF7F3FF0B9858
:1006900000287448016813D004221143016010201F
:1006A00000F0F0F90120C00409906F480090042088
:1006B00008906E486E49201888420ED800251DE02B
:1006C00089088900491C0160012000F0DBF9002045
:1006D0000990684800900220EAE7674866492018B8
:1006E0004942884202D80125640007E06348634913
:1006F0002018494288427DD20325A4000026F643F3
:10070000089F22E039460098FFF7FCFC5C498446CC
:1007100041185C48814217D2554B02225B1C53485A
:1007200061465143401C0818984209D8A14201D99A
:10073000081B00E0601AB04202D2060004920CD0FE
:100740005148521C8242EAD97F1C212FDAD900205D
:100750000696C0430190089E54E00999A8030843F7
:1007600001217A028902511A08430499891E08431B
:100770003C490862042000F085F9691C794300981F
:10078000FFF7C0FC049948430DB0F0BD3146009816
:10079000FFF7B8FC3A4942183A498A4231D202215D
:1007A000324B02464A435B1CD7185B429F4224D817
:1007B000A24201D9121B00E0A21A019B9A421CD24C
:1007C0000192069B0F469A4217D10999A803084344
:1007D000012172028902511A0843B91E08432149B6
:1007E0000862042000F04EF9691C71430098FFF77D
:1007F00089FC00E008E07843C6E7234A491C91429F
:10080000CED9761C212EC1D90B9800280FD01F49B4
:1008100014480162042000F035F91DA0006803901F
:100820001048016A0013014203D00020ACE71949C7
:10083000EEE7080301D50C4800E00E488A03A3D474
:100840000A04920F03AB9B5CCA058904D20DC90E42
:10085000891C8008921C59435043FFF753FC8000C9
:1008600092E700000002005000805101FF1E0AFACA
:10087000FFE0F505001BB700800F05FDC08782FE75
:10088000FF95E7FFBF77CC00010200001844080085
:100890000102020416400000044982070A6801D0E0
:1008A0009208920002430A60704700000002005064
:1008B00008B511A0006800901048016A00130142B9
:1008C00001D0002008BD080301D50D4800E00D4807
:1008D0008A03F7D40A04920F6B469B5CCA0589040D
:1008E000D20DC90E891C8008921C59435043FFF752
:1008F00009FC800008BD0000010202040002005053
:1009000000805101001BB70070B502F0B5F82D480A
:1009100041682D4A114041604168032529434160E7
:100920000120FFF7B9FF012000F0ACF800062749CD
:10093000000E087009D10420FFF7AEFF102000F070
:10094000A1F80021072000F08BF8214800F046F8BC
:10095000204C08262660304600F094F80120A06064
:10096000606928436061A168E0018143A160A168DA
:100970000143A16060690321090688436061052085
:100980000007416B144A11404163416B03229202FC
:1009900011434163A06804210843A06060690721F6
:1009A000090288436061A0683043A0606069090162
:1009B0008843606105F0D4FD02490020C031086021
:1009C00070BD000040000050FCFCFFFF490000200B
:1009D000006CDC0200020050F3F3FFF3F8B51E4C8C
:1009E0000546E66810201D49064048108D4201D991
:1009F0000D4602E0854200D20546206804273843B0
:100A00002060102000F03EF8206907210843206193
:100A1000A06900090001A06120688007800F0128FB
:100A20000ED069007804FFF72DFEE6680546102019
:100A300006400121022000F013F8002E06D008E045
:100A400069000020FFF71EFE0546F2E72068B84364
:100A500020606808F8BD00000002005080F0FA0233
:100A600010B5074A93691B091B010B439361116978
:100A7000C908C9000143116105F072FD10BD0000F5
:100A80000002005010B50749074A05E00B46491E11
:100A9000002B01DC002010BDD4680346A343F5D130
:100AA000012010BD80F5200000020050F0B5DB48A9
:100AB000DB4985B0C3788979029101468D79CA797D
:100AC0000124002B13D18178491CC9B28170962969
:100AD0000DD3D449C4700C704C704C238B704123DF
:100AE000CB7034230B71029B4B71CD710A72837CE6
:100AF0000021002B09D0437C5B1CDBB243740F2B1D
:100B000003D34174FF2303718174C74B1E78002EF9
:100B100063D00021C148197084744174C3490C70BA
:100B2000C178C3480029067801D1F02E26D0C048EC
:100B30003707017901913F0F40790390072F04D0C7
:100B4000A9424AD10398904247D10F2E05D0B3480D
:100B500031090379994240D00171B5483B00C17811
:100B600000914178807805F097FE103815152338EC
:100B70003A3887FE38443838FD385538A9484C2172
:100B80000470447081704121C17034210171029957
:100B900041713FE1A3480221017044704C218170F2
:100BA0004121C1703421017102994171002130E16C
:100BB0000A2901D9FF2910D11C280ED89D4D0029E2
:100BC0002970EC7009D0FF2905D0A87000F07EFADA
:100BD000287868701BE06878287005B0F0BD082898
:100BE000FBD8C107F9D18E49887193484C710470C4
:100BF000E2E00329F1D80029EFD00828EDD88D4A8A
:100C00000A3111705170D470907000F05FFA8A4808
:100C10000470E2E787480A1F854D0078130005F04D
:100C20003BFE0A0606111111060606060611814B47
:100C3000884207D1794A167C002E03D1DC701474E7
:100C40007E4A14700A29C8D97A4E0028C5D0884235
:100C500007D0317071707848F4700470B07800F08B
:100C600035FAB178A8788142B7D0B0707249F47083
:100C70000C7000F02BFAB0E7684BDE7B1F463B7B25
:100C80007F7B012EBC4640D1644F0026FE7341405D
:100C9000019E0098664F704041400398814210D0F9
:100CA0006448FF210170C4705E4802210170082170
:100CB0004170042181700021C1700171437161464E
:100CC000A7E07F1C002001460097009E765C36025C
:100CD00070400026C70B03D0594F4000784000E019
:100CE0004000761CF6B280B2082EF3D3491CC9B27C
:100CF0000429EAD319026144484E89B26746814209
:100D000010D04C48FF210170C47046480221017088
:100D100008214170042181700021C170017143716B
:100D2000394676E0180901F04DF8464D2870307BC1
:100D30000007000F01F046F86870707B000901F0B1
:100D400041F8A870707B0007000F01F03BF8E870D5
:100D50003448082104704170032181700021C17062
:100D6000017101E02DE010E0327B4271737B8371F1
:100D7000B579C571F5790572B271F371317371731B
:100D80002C48FD210170C47041E7012914D00229CB
:100D900000D022E72149CC730873009B4B73214993
:100DA00002240C704E708C700024CC700C71487151
:100DB0008B71CD710A7210E71E48FB210170C4705F
:100DC0000BE70D23002916D00129E2D11548022195
:100DD00001701D494370097881701049C97AC1704A
:100DE0001921017112214171182181715721C1719D
:100DF00043210172F1E60B480221017043704C213E
:100E000081704121C170342101711049097841710B
:100E100002998171C5710272DFE6000011000020A5
:100E20004C00002078000020000000205600002028
:100E30000B00002026000020470000204600002074
:100E40002110000002000020490000204200002084
:100E5000FCB5904D904FEB7800209049904A914C12
:100E6000012B3BD0904B1E78761CF6B21E70052EDF
:100E70005FD318705E78761CF6B25E701E2E1AD3A1
:100E800058709E78761C3606360E9E7013D0987079
:100E90003E78761CF6B23E70052E0CD9834B387026
:100EA0001E78761CF6B21E70142E04D91870012319
:100EB000EB707F4D2B70784B1F787A4B1B7801932A
:100EC000DB1CDBB20093754B1E78754B1D783B0025
:100ED00005F0E2FC0630353B41474D526E4BE87061
:100EE0001870744B1870744B724D2D786E00AF19DA
:100EF000FE18B07070706D1CEDB26E4ED855357026
:100F0000152DF1D308701070684920700870684979
:100F10006B4C08706049644B4870684908700A78E7
:100F20009854A054521CD2B20A70032AF7D36549D0
:100F30000870FCBD761D20700E70ED1F0FE0107064
:100F4000019B9B1F237009360FE00870ED1D157083
:100F5000019B1B1F0FE0761F20700E700835157067
:100F60000AE01070009B2370F61F0E7004E00870FA
:100F7000083D1570009B2370474B5F78524B7E1CD9
:100F8000F5B2002F2CD0012F48D0022F63D018705B
:100F90000978019111780091217846488C4600210A
:100FA000494A017012784449D3009D1A0378019F81
:100FB000EC186600A6197418A770009F67705B1C78
:100FC0006446DBB28C550370072BEFD3521C3E4BAB
:100FD000D1B219700329E2D32F4900204870FCBD1B
:100FE00002271F70334B18700E78217832488C46D8
:100FF000F9001278C91B00911978009C64186700E9
:10100000E7193C18A6706270491C6446C9B2C45501
:1010100019700729F0D320484570FCBD1870254B86
:10102000254E18700978019111788C46217800912D
:10103000C1000A1AC0B214186700E719BC19019957
:10104000A17061466170401C009CC0B2F4551870DC
:101050000728EFD3DFE701261E70164B18700878BB
:10106000844610780190F0002278801B0090197857
:10107000009866464018440007190F48491C3C1860
:10108000A670019E6670C255C8B218700728EED3CC
:10109000C1E7000026000020F30000202E00002001
:1010A0002F00002030000020C10000203A00002066
:1010B000160000202C000020BB010020350000207D
:1010C000250100202D0000202B000020F8B501464E
:1010D000F94800240078FA26F84D27460A286FD9E7
:1010E000F7480C2202700B0005F0D6FB0715487F6D
:1010F000A4D9F1051400F34861006118425C6A54F8
:101100000A18491953784B70641C9278E4B28A70BB
:10111000102CF1D3F8BD05212046FEF7F3FF00297E
:1011200008D001290CD0022910D0032912D004299B
:1011300018D01EE0600020182F54401946700FE0B0
:10114000600020182E544019477009E060002018F4
:101150002E540BE0600020182F5496214019417046
:10116000877006E0962160002018295440194670C7
:101170008670641CE4B2102CCDD3F8BD0721204644
:10118000FEF7C0FF00290CD0012912D0022918D087
:10119000032922D004290CD0052912D0062908D011
:1011A00016E0600021186E5432204919487088708A
:1011B0000EE0600020182E5440194770322106E0DE
:1011C000CEE0600020182E54322140194170817009
:1011D000641CE4B2102CD1D3F8BD60009621201815
:1011E0002954401946708770F2E7A00709D0A0077C
:1011F000800F01280CD0022810D0E043800707D0D0
:1012000013E0600020182E544019477087700CE0DE
:10121000600020182F544019477005E060009621A7
:1012200020182954401946708670641CE4B2102CB2
:10123000DBD3F8BD05212046FEF764FF002908D066
:1012400001290ED0022911D0032916D004291AD061
:1012500020E0600020182F54401946703221817020
:1012600018E0600020182E54322110E06000962112
:1012700020182954401946700BE0600020182E54A5
:101280004019477005E0600020182E54962140193F
:1012900041708770641CE4B2102CCBD3F8BDA0075A
:1012A00011D0A007800F012812D0022818D0962153
:1012B000600020182954401946708770641CE4B2FD
:1012C000102CECD3F8BD600020182F54F3E70EE08B
:1012D000600020182F544019467032218170EDE7CC
:1012E000600020182F54962140194170E5E709212C
:1012F0002046FEF707FF002910D0012913D002294C
:1013000029D0032914D004290DD005291CD0062981
:1013100009D007291FD008290AD010E06000201842
:101320002E54322101E0962103E04019417010E073
:101330003221600020182954401947708670641CBF
:10134000E4B2102CD3D3F8BD600020182F544019FC
:1013500046708770F3E7600020182F549621E4E769
:1013600010290BD2480009185648425C2A70081808
:10137000417869708078A87001217DE010390420DF
:1013800003220B0005F088FA0D091520313A437B42
:1013900085A0ACE6F6F40800D5E72F7032206E7019
:1013A000A8709621E9702E716F71AE71E871287284
:1013B00021E02F706E70AF70EE702F716F719621FB
:1013C000A971EE712F72DEE032212E706970AF705C
:1013D000EE7096222A716F71AE71E9712F726E7282
:1013E000AF72EA7236490870F8BD962028706E70A8
:1013F000AE70EF7047E032480270F8BD2E706F702B
:10140000AF70EF702E716F71AE71EE713FE007211A
:101410002046FEF777FE002912D0012909D00229C3
:101420000ED0032914D0042903D0052918D0062989
:101430001DD1600020182E5440194770322115E04C
:10144000600021186E5432204919487088700EE0EF
:10145000600096212018295440194670877006E0D4
:10146000600020182E543221401941708170641C94
:10147000E4B2102CCBD3072111480170F8BD2E70B7
:101480006F70AF70EE702E716E71AF71EF712E7262
:10149000B1E72F706E703220A870EE7028716F71F6
:1014A000AE71EF7196202F726872AE72EF722E736A
:1014B0006873AF730521DFE726000020910000204C
:1014C0002A000020E06C00002F706E70AF70EF708B
:1014D0002E71322068719620A871EE712F728AE702
:1014E00009212046FEF70EFE002910D0012913D055
:1014F00002292AD0032914D004290DD005291DD092
:10150000062909D0072920D008290AD010E0600058
:1015100020182E54322101E0962103E04019417039
:1015200011E032216000201829544019477086705C
:10153000641CE4B2102CD3D309219DE7600020186D
:101540002F54401946708770F2E7600020182F541E
:101550009621E3E72E706F70AF70EE703221297123
:101560006F71AE719621E9712F726E72AE720DE0DD
:101570000EE0FFE72F706F70AE70EF702E716F711D
:10158000AF71EE712E726E723221A972EF7229E77D
:10159000084861006118425C6A540A184919537876
:1015A0004B70641C9278E4B28A700C2CF1D30C203E
:1015B00018E70000E06C0000F0B52D482D4A847952
:1015C0000123002C05D04679851E0021012E0BD069
:1015D00016E028482038016A890104D5016A84028E
:1015E000A14301629360F0BD417141708170C1708F
:1015F0000171298016680127BF073E43166093607A
:101600009668F607F60FEED093602A881A4E521CA1
:1016100092B22A80B24201D32980F0BD8278521C56
:10162000D2B282703C2A0ED38170C278521CD2B2E0
:10163000C2703C2A07D3C1700279521CD2B2027127
:10164000182A00D301714278002AE6D18278002A54
:10165000E3D1C278002AE0D10279002A05D0A24263
:10166000DBD102220270C171F0BD0370C371F0BD05
:101670004C00002020000140983A000030B5154A87
:10168000154800211368435493695B0403D4491C33
:10169000C9B21029F6D302240125104B022906D025
:1016A000072910D05C7090682043906030BD0178AD
:1016B000FD2906D14178F02903D1807807E05D70DB
:1016C00030BD5C7030BD0178FD29FAD1C079FE28AB
:1016D000F7D1F4E700000540810000200000002061
:1016E00030B5124A00205478002C1DD00021104B38
:1016F000012C07D0022C17D11954401CC0B210285D
:10170000FAD310E001241470084C0B341D186D78C6
:101710002554401CC0B20628F8D300201954401CA0
:10172000C0B21028FAD3517030BD00000000002074
:101730008100002010B5204A00201478002C13D01E
:101740001E49012C11D00023032C22D0022C0BD1D6
:10175000FD240C60141864780C60401CC0B208288A
:10176000F8D3FE200860137010BDFC230B604C23DF
:101770000B6041230B6034230B60114C235C0B6026
:10178000401CC0B20428F9D3FE200860022010706B
:1017900010BD1370FA220A600B600B600F220A6002
:1017A000074B1B1D1A5C0A60401CC0B20528F9D308
:1017B000FE20086010BD00007800002000000540F9
:1017C0000200002010B50D490B78002B0ED000222E
:1017D00001240B48012B02D0022B04D006E00A7032
:1017E0004178017001E00A700270C47000F0AEFD33
:1017F00004F086FEFFF75AF910BD00004C000020EF
:10180000260000200A492222CA604860012008619F
:101810000869C007FCD10868400606D50868402260
:10182000104308600020C04370470020704700004C
:1018300000C0005002480168012211430160704756
:1018400000C0005005490022CA60486001200861BC
:101850000869C007FCD188687047000000C00050CC
:10186000054A2123D3605060916001201061106906
:10187000C007FCD17047000000C0005010B5012423
:10188000240501F0EBF8FFF7D5FF22490868202274
:10189000104308602046FFF7D5FF1F4C60701F48BB
:1018A000FFF7D0FFA0701D48001DFFF7CBFF1C49BC
:1018B00088711A480830FFF7C5FF1A4908701748A1
:1018C0000C30FFF7BFFF1849C0B208801348103032
:1018D000FFF7B8FF1549C0B2088010481430FFF771
:1018E000B1FF134908700D481830FFF7ABFF1149DD
:1018F00008700A481C30FFF7A5FF0F490870074819
:101900002030FFF79FFF0D4908700D490020086047
:1019100010BD000000C00050260000200400100090
:101920004C0000204800002042000020440000201D
:101930001900002017000020180000201B000020C4
:101940000001005070B527480124017824050129C1
:1019500047D10025057001F081F8FFF76BFF2248A1
:1019600001682022114301602046FFF74BFF1F4E04
:1019700020467178FFF774FF201DB178FFF770FFE4
:101980001C491B488979FFF76BFF19481A49001D4C
:101990000978FFF765FF1648184908300988FFF7EE
:1019A0005FFF134816490C300988FFF759FF1048AC
:1019B000144910300978FFF753FF0D4812491430CD
:1019C0000978FFF74DFF0A48104918300978FFF7EA
:1019D00047FF07480E491C300978FFF741FF0D48C3
:1019E000056070BD4700002000C0005026000020A8
:1019F000080010004C000020480000204200002099
:101A0000440000201A0000201700002018000020C9
:101A10001B00002000010050F0B5A5480024C2784A
:101A200085B0012A45D0A34800220270A24801785F
:101A3000A04800780746FEF765FBA048A04C01705F
:101A400048000D18605D019032210090FEF75AFBAE
:101A50009C49064608702C19607832210390FEF7E5
:101A600051FB0546984832210570A0780290FEF798
:101A700049FB9649044608709548C05D8446002895
:101A800044D001287ED002287DD09249924AC85D78
:101A9000401CC0B2C855D25D904275D90020C855CF
:101AA000384615218D4B4843C1188A78002A6CD1DD
:101AB000BBE08B4EC470894F8A4D34703078410042
:101AC0004118C819847044707C542888411C2980AE
:101AD000FEF737FB288811302880FEF729FBC0B2BB
:101AE0001421FEF70FFB7C4A3078115478490C54CE
:101AF00078490C54401CC0B230701528DED37A48A7
:101B0000322101707948047005B0F0BD7149724A04
:101B1000C85D401CC0B2C855D25D9042BDD90020FE
:101B2000C85505210098FEF7EDFA01463846152202
:101B300050436A4A0190801800908078814212D800
:101B400005210398FEF7DEFA0146009840788142AD
:101B500009D805210298FEF7D5FA02465F49019897
:101B6000085C824222D95E4800210170F800C01B47
:101B700084465B4861460378C818410042185748BC
:101B8000111803E016E030E04EE054E08F785B1C63
:101B9000BF198F704F787F194F70815C091981547C
:101BA000D8B24F4907280870E3D377E048480121AD
:101BB000C15573E04A48002101704849FA00D41B1E
:101BC0000278019EA3185D005D196B189E70039E3C
:101BD0005E70521C029BD2B24B550270072AEFD3A3
:101BE0003B496046401CC85558E03A483E4AC15DF2
:101BF000304D491CC9B2C155127891424ED90021CD
:101C0000C15533480321374CC1552088FEF799FA56
:101C1000208811302080FEF78BFAC0B20A21FEF72F
:101C200071FA2D482A78815438E04978002902D188
:101C3000185C00281DD02A4800210170F900C91B3A
:101C400018468C46264962460B78D1184A008A18F5
:101C500011188F785B1CBF1B8F704F787F1B4F70E4
:101C6000815C091B8154D9B21D4A07291170E9D33F
:101C700014E0174D00241B4EEC553088FEF761FA36
:101C8000308811303080FEF753FAC0B21421FEF7CD
:101C900039FA0848104A007811542C540548017844
:101CA000491CC9B20170032900D2BFE62CE700002D
:101CB00026000020350000202A00002034000020EB
:101CC000910000203100002032000020330000206D
:101CD000F3000020C100002025010020BB010020EE
:101CE0002C00002024000020360000202D000020C1
:101CF000F0B500230125944603272A469A400A425C
:101D000009D006685C003A46A240964322466446E3
:101D10009440264306605B1C082BEED3F0BD000008
:101D2000F0B51848184BC778184A194D0024194EB9
:101D30001949012F05D02F78082F0ED27F1C2F7044
:101D4000F0BDC4701C700C70147000221146104657
:101D5000FEF764FA2C703470F0BD2C703578EF0704
:101D600000D1FF240C706D1CECB23470052C03D92B
:101D7000447804700124C470127809781878FEF74A
:101D80004DFAF0BD260000202E000020300000207B
:101D900036000020F30000202F000020044603A09E
:101DA00004F06AFD204604F047FFFEE7496E204834
:101DB000617264204661756C742048616E646C6564
:101DC000720A00000F2801D90007000F0A2801D26B
:101DD000303000E03730C0B270470000FEB5A54893
:101DE000A549C2780020012A05D00A78082A36D2EF
:101DF000521C0A70FEBD9F4AD070A04A1070087035
:101E00009F4908709F4908709F4908709F490A7848
:101E1000002A14D008709E4C32212078FEF772F907
:101E20009C49087060783221FEF76CF99A49087075
:101E3000A0783221FEF766F998490870FEBD9849EE
:101E4000984A08700B785C001D19AC18A0705B1CD8
:101E50006070DBB250550B70152BF3D3DBE70870C5
:101E60009149884D0F78884901970A788449521C16
:101E70000978D3B2491CCCB28C492D7809786E0010
:101E8000491CCAB27D49AE1909780095804D8C462F
:101E900001217519012F67461FD0002F7CD07A4C85
:101EA0001D2B23700BD3754B207018707F4B142A99
:101EB0001A7004D96F4A1870D1707D4A1170704A37
:101EC00014787C4A230004F0E7FC0E9A8F9A949AC7
:101ED000B79ABD9AC39AC99ACF9A002F06D0012FFC
:101EE0002CD0704B9C78002C37D130E0684A032C02
:101EF000935D714A1F461370704A6B781370704A75
:101F0000AD7815705E4AAC46147002D35B4C10700D
:101F100021706349087012786248D400A51A0A78C3
:101F2000AC186600A6193418A7706370521C64467A
:101F3000D2B284550A70072AF1D3FEBD52492F2B25
:101F40000B70FAD308704D4802210170FEBD5C7819
:101F5000002C02D11C78002C1FD05A494D4C08701F
:101F60004D4824784D4A00940078167884460C78C1
:101F7000009D60002218D0188778641C7F1B877032
:101F8000477865467F1B4770985C801B9854E0B289
:101F900008701528EBD3FEBD0BE0384B142A1870DF
:101FA000424B1A70F7D91870414801703148C1701E
:101FB000F1E7374B334A9E5D3F4B152C1E703F4B6C
:101FC0006E781E703E4BAD781D702D4B1C7000D28C
:101FD00075E71870009B5B1CDBB21370019CA34279
:101FE00000D31070254A69E71170082050700F2047
:101FF00004E00220107009205070102090702E48CC
:102000001378017858001D1826482C4C2B1899700D
:1020100024785C702A4B1B78435555786E00AE19B6
:102020003518A9706C70835592785500521915189F
:10203000A9706C708354AEE7032010700A205070B2
:102040001120DBE7042010700B2050701220D5E720
:10205000052010700C2050701320CFE70620107060
:102060000D2050701420C9E71070072050700E200A
:10207000C4E700002600002036000020F300002006
:102080002D00002034000020250100204600002003
:102090009100002031000020320000203300002099
:1020A0002C000020BB0100202A0000203A00002064
:1020B00016000020890100202E0000202F000020A3
:1020C000300000202B00002010B52C480188113171
:1020D0000180811C0878082835D007DC030004F053
:1020E000DBFB081A1D202326292C2F170D2839D099
:1020F00008DC09282AD00A282BD00B282CD00C2841
:1021000006D12CE0FB2830D0FD2831D0FF2832D07A
:102110000A20087010BDFEF791F810BD04F0A6F972
:1021200010BDFEF74BF910BD04F062F810BDFFF7CB
:1021300055FE10BD00F0AEFC10BD00F043FB10BD1D
:1021400000F026FA10BDFFF767FC10BD00F020F983
:1021500010BDFEF77DFE10BD00F0AAFD10BD01F020
:102160004FFB10BD02F03CFD10BDFEF745FA10BD5F
:10217000FFF7D6FD10BD00F0CDF910BD2400002002
:10218000F0B53D48002104783C48012C18D01521B9
:102190004A008B183A4A00249B18DB1E1E78002246
:1021A0005B1CF50945D00125056109252F466D1EEB
:1021B000EDB2002FFAD100BF00BF00BF00BF3FE06B
:1021C0004A008B182E4A9E18002335780022761C70
:1021D000EC090CD00124046109242746641EE4B2F2
:1021E000002FFAD100BF00BF00BF00BF06E00124EE
:1021F00004612746641EE4B2002FFAD100BF00BF7D
:1022000000BF00BF0024046118242746641EE4B206
:10221000002FFAD16C06521C250ED2B2082AD7D351
:102220005B1CDBB2032BD0D3491CC9B21529C7D321
:10223000F0BD012505612F466D1EEDB2002FFAD1CC
:1022400000BF00BF00BF00BF0025056118252F4655
:102250006D1EEDB2002FFAD17506521C2E0ED2B2B1
:10226000082A9ED3641CE4B2032C97D3491E0906A6
:10227000090E8DD1F0BD0000480000204042005002
:10228000BB01002070B5FEF73FFB00F0F5FB03211A
:1022900025480902016001680222114301600124FE
:1022A00044600168802211430160204800250560D8
:1022B000032210211E48FFF71BFD1D48012240216B
:1022C0004038FFF715FD1A48012210214030FFF772
:1022D0000FFD18480561174840388461164C1E21CF
:1022E000204604F027FA6068102108436060080265
:1022F000124908604B21C901204604F0D9F9104C5D
:1023000001213222C906204604F0A6F92168A00363
:10231000014321600B4921620B4961620849203168
:102320000A6802430A6070BD00400040000100508E
:1023300040400050404200500000054000E100E0F5
:1023400000000140FF0000081BB700000E480021FC
:10235000027A002A0BD0827B521CD2B28273FA2AF4
:1023600005D381730172094B417201221A70C27B3D
:10237000002A07D00278521CD2B20270FA2A00D387
:10238000C1737047017070471100002047000020A2
:10239000F0B55548554BC57855480021554C564A1F
:1023A00089B0012D06D01D78052D11D26D1C1D7030
:1023B00009B0F0BD4C4DE970FF25257011704F4AF2
:1023C0004F4C11702278521C227001701970EFE787
:1023D00000211970484907780E78711CC9B2039121
:1023E00044490D786B1ED9B20791444909784B1CBA
:1023F000DBB20593731EDBB206936B1CDBB2049356
:102400004B1EDBB208933B0004F046FA0B070D139A
:102410001A21283035393D424700FF2E01D203985A
:1024200011E0012137E0002D01D0079812E00221D0
:1024300031E0324BFF2901D2059813E003212AE055
:10244000002E02D00698107038E0042123E0FF2D02
:1024500002D20498207031E005211CE0274B0029AE
:1024600002D00898187029E0062114E0234BFF29B8
:10247000E2D307210FE0002DD7D108210BE0FF2E7A
:10248000CDD3092107E01D4B0029EAD10A2102E042
:10249000FF2DDED30B21017010E0002ED2D10021E0
:1024A0000170184803785B1CDBB20370142B05D94C
:1024B00001700D490120C8701349087013480021AC
:1024C00001700E4D1249237817782E780278540047
:1024D00015196C18A370521C6770D2B24E55027059
:1024E000152AF3D364E70000260000203600002000
:1024F000F30000202E0000202F00002030000020DC
:10250000C10000203A000020160000202C0000200E
:10251000BB010020F0B518481849C778184A194D72
:102520000024194E194B012F05D02F78082F0ED2F9
:102530007F1C2F70F0BDC4701C700C7014700022D2
:1025400011461046FDF76AFE2C703470F0BD2C70F9
:102550003578EF0700D1FF241C706D1CECB234708D
:10256000052C03D9447804700124C47012780978CA
:102570001878FDF753FEF0BD260000202F00002044
:102580003000002036000020F30000202E00002044
:10259000F8B57D497D4FCA780024012A75D07C4961
:1025A00000220A707B487A4D0188784CC91D018051
:1025B0002978605C401C6054FDF7BAFDC0B205216B
:1025C000FDF7A0FD2E78A05D81425CD20020A055D1
:1025D000714801783046FDF795FD7048704F0170E5
:1025E00048000D18785D3221FDF78CFD6D490446D9
:1025F0000870EF1978783221FDF784FD6A490546A5
:102600000870B8783221FDF77DFD68490870684987
:102610008A5D002A5FD0324615235A43654B9646A1
:10262000D21894469378644A925D17466743BB423A
:102630000CD863465B7817466F43BB4206D85D4FA4
:102640007346FB5C5C4F424393427CD95B4900225A
:102650000A70F2005749921B9446584A634616780E
:102660009A195300D3185A189778761C3F1B977005
:1026700057787F1B5770CA5C121ACA54F2B24F4B7C
:10268000072A1A70E9D376E0FFE74C4DCC70494E2B
:102690002C702878410041188A1994705470745431
:1026A00043493C540C543B490888421C0A80FDF7BE
:1026B00048FDFDF73DFDC0B21921FDF723FD3E4A5F
:1026C00028781A311154401CC0B228701528E0D364
:1026D0003B480470F8BD15227243364B9646D2181B
:1026E00094469378344A925D17466743BB420CD3B5
:1026F00063465B7817466F43BB4206D32D4F734644
:10270000FB5C2D4F424393421ED22C4900220A709B
:10271000F2002849921B9446284A634616789A1973
:102720005300D3185A189778761C3F19977057782A
:102730007F195770CA5C1218CA54F2B21F4B072A8D
:102740001A70E9D317E00AE00120114C8855FDF713
:10275000EFFCC0B20A21FDF7D5FC22780AE0002088
:102760000B4C8855FDF7E4FCC0B21921FDF7CAFCFB
:1027700022781A31B95406480178491CC9B201704F
:10278000032900D20EE7F8BD26000020C10000207A
:1027900035000020240000202A0000203400002002
:1027A0009100002031000020320000203300002082
:1027B000F3000020BB010020250100202C00002098
:1027C00036000020F0B59649984A8BB0CB789648F1
:1027D00012780092934F964C857846780278012BB8
:1027E00007D094490B78282B77D25B1C0B700BB069
:1027F000F0BD0023CB7032211046FDF783FC8E49DB
:102800000870049032213046FDF77CFC8B49064667
:10281000087032212846FDF775FC0546387000988F
:10282000012838D0864800210170854C0099207815
:102830000790FDF767FC8348002201707C484B003D
:102840000270794AC918535C891806934A788D78C2
:102850009446079A7C49D3009C1A0278069BA618D6
:102860007700F7197E18B3706346521C7370D2B2AA
:10287000CD550270072AF0D307987149401CC0B2A9
:1028800008700328D1D36B49002008706F49087085
:102890006C490870ABE700202070C0B20746009971
:1028A000FDF730FC67480170F807049816D0322114
:1028B000484379007A1864493223511888703046A9
:1028C000584348702846194648435F497F1C88543E
:1028D000F8B220701528E0D3D5E70DE00A2148436F
:1028E00079007A1858490A2351188870304658439D
:1028F000487028461946E7E700230B700099544BAF
:10290000012954D04F49534E0A7855005519475D57
:1029100037702818049745781D70019583784E48C4
:10292000521C0370D0B202930870009A904201D3F7
:1029300000200870424802210170434800212170A4
:102940003F490A78511ECB000A91591A0991D100CA
:10295000891A8C462178099A52185300D618624673
:10296000521853003518D3181A18AF7897706D782D
:102970005570491C825DC9B2C25421700729E9D340
:102980000A992F4A0906090E1170D7D12170C9B2D0
:102990004A008B181A18049D9570019D5570491CAA
:1029A000029AC9B2C25421700729F0D31FE7274801
:1029B0000178002906D027490A7027491E700D703A
:1029C00000210FE01C49142209785143214A11705B
:1029D0001A491422097851431970397851431E4A13
:1029E00011700121017014202070174825786900AA
:1029F0006E1831180A46203AD77F8F70977F4F7034
:102A0000517F81556D1E2906090E2170EED11149A5
:102A100009788170197841700F4909780170E6E6EC
:102A20002600002033000020910000202A00002012
:102A30002C00002036000020310000203200002051
:102A40003500002034000020BB010020F3000020EE
:102A50002F0000202E0000203000002010B559214A
:102A60000448162288230160026003600468002C79
:102A7000F9D010BD0001005010B5592104481622AC
:102A800088230160026003600468002CF9D010BD47
:102A900000010050F8B56B486B4EC0786B4F0024B6
:102AA000012805D03078052837D2401C3070F8BD99
:102AB00064486849C4706648047002785300D318AB
:102AC0005D18AC70521C6C70D2B2CC540270152AD6
:102AD000F3D36148664D047060483C7004706048F0
:102AE000347004705F48322104705F4804705F489E
:102AF00004702878FDF706FB5E490870687832217B
:102B0000FDF700FB5C490870A8783221FDF7FAFA5E
:102B10005A4908705A480470F8BD4C483470077818
:102B20005448514900780A78844653484F490678FA
:102B300052484A4B05784B48097800781B78002F9B
:102B400004D0012F1FD0022F66D127E05F00DB19D0
:102B5000474FFF5C874207D8454FDF197B78934288
:102B600002D8BB788B4208D93E4F604438703E484B
:102B7000921902703D4849191DE034480121017045
:102B80003748047048E036480178491CC9B20170E2
:102B9000322941D304702D4802210CE00746174327
:102BA0000F430AD02F4F6346C01A38702E48921B2D
:102BB00002702E48491B01702EE024485B1C0470F3
:102BC0002648D9B22F4A0170127891420DD32E496E
:102BD00004700A78521CD2B20A70062A05D90C7009
:102BE000184A0121D170294A11700078204D410006
:102BF0004618A85D3221FDF785FA1E49751908703F
:102C000068783221FDF77EFA1B490870A8783221D6
:102C1000FDF778FA194908700D48134B0470114CF0
:102C2000124A25780B491C78177802785300D61879
:102C300073189D70521C5C70D2B28F550270152AA9
:102C4000F3D3F8BD2600002036000020F30000205A
:102C50002C000020BB010020C10000203400002017
:102C6000250100202E0000202F0000203000002031
:102C700091000020310000203200002033000020AD
:102C8000460000202A0000203A0000201600002004
:102C900006498A691202FCD408600A2804D18869AE
:102CA0000002FCD40D2008607047000000000540C1
:102CB000F8B5254E0023F178244C2548012913D07E
:102CC0000188244D491C8AB201210280012A16D0B4
:102CD0001746FF3FCD3F05D005277F02BA4210D1EE
:102CE000022012E0217011E0F37003801A48237073
:102CF0000022037011461046FDF790FAF8BD2370CC
:102D000004E0164FBA4203D103202070297006E078
:102D1000134DAA4203D103801248F170017020784C
:102D2000002808D0012809D002280AD00328E5D1BC
:102D300000F09AFBF8BD00F017F8F8BD00F0C6F8F7
:102D4000F8BD00F0F5FAF8BD26000020380000209C
:102D50003E0000203900002041000020840D0000CA
:102D60009411000016000020FEB54A484A4D017833
:102D700000244A4E012905D02878022819D2401C87
:102D80002870FEBD0022047011461046FDF746FA79
:102D900043482C700470434804704348047043480F
:102DA000047043480470434834700470424804700F
:102DB000FEBD00202870394801783C480078401C4E
:102DC000C4B237480029077836480678364805786F
:102DD0003748007802D0012953D133E04100401830
:102DE00036490090085C1921FDF78CF901463448FA
:102DF00001700191314900984018029040781921E2
:102E0000FDF780F901462F480170009102981921C1
:102E10008078FDF777F92C49214A08700199281824
:102E20007918117000991F4A711811701E49192CD8
:102E300008701E48047024D3002101701748012136
:102E400001701EE01E4A16491278BA1A0A701D4A0D
:102E500014491278B21A0A701B4A13491278AA1A36
:102E60000A701249192C0C700BD300220A700B4BFC
:102E7000401C0F49C0B21A700870022801D9022004
:102E80001870094802780748017805480078FDF76E
:102E9000C5F9FEBD390000203600002040000020AA
:102EA0002E0000202F000020300000202B000020EA
:102EB0003400002037000020410000209100002055
:102EC000310000203200002033000020F0B5FE4821
:102ED000FE4C0178FE4DFF4E00278DB0012930D009
:102EE000FD4A204613780178FC4A30460078127873
:102EF0005B1C0492DAB20A92F94A401C12780392DF
:102F0000521CD2B20992049AC0B2521CD2B2079299
:102F10004A1CD2B20592F34A13785A1CD2B20692D6
:102F2000F14A127800925A009B18F04A02939C18BA
:102F30000B0003F0B1FC091D89F3F1F3F1F3F1F09B
:102F4000EF000022077011461046FDF767F9377051
:102F5000E7482770077001786F54491CC9B20170A7
:102F60003229F8D3DE480770DB480770DB487BE185
:102F7000307005287ED33770D7480A990126017032
:102F8000032938D907700398D549072833D20998FF
:102F90000870030003F080FC080F050A3A40464C15
:102FA000520F2F70072068700E2003E02E7008204B
:102FB00068700F20A8702978CC484A008A18CD493B
:102FC000447A53189C70847A5C70C37A8B546A7804
:102FD000047B5300D3185A189470447B5470827B3E
:102FE000CA54AA78C47B5300D21853189C70047C2E
:102FF0005C70407C8854B94907980870322839D3EE
:10300000B248BD490670062008702CE102202870E5
:10301000092068701020CDE7032028700A2068700E
:103020001120C7E7042028700B2068701220C1E728
:10303000052028700C2068701320BBE7062028703C
:103040000D2068701420B5E730700A2812D30020D4
:103050003070A1480A990170032949D300210170F9
:10306000A3480170A44800780290A44C0620207068
:10307000A04900E0ACE09E480278D000801A844667
:103080002578604640194300C61870180346203B57
:10309000DF7F87709F7F4770587F88556D1E280699
:1030A000000E2070ECD1029815264300C4188F4BF7
:1030B00010461D5D70434618B570E3185C78747057
:1030C0009B780B54521C8A4FD0B238700328CCD353
:1030D00083480999017007290AD300210170029AD7
:1030E0008548521CD2B20270009B9A4200D30170F4
:1030F00083490878401CC0B20870502868D300206B
:1031000008707249059A0A70754908707349087009
:1031100074495CE005E1A9E05CE0FFE73070142849
:1031200056D37349377002200870744871490022E1
:1031300002706F4A12780B92D3009A1A944605785F
:10314000624652195300D61872181346203B5F7B13
:1031500097701F7B5770DA7A8A556D1CEAB202703D
:10316000072AECD30B9A624B521E1206120E1A70EB
:10317000DDD102705D4A029BA678D55C6378027847
:10318000540017197C18A570521C6370D2B2CE552A
:103190000270072AF3D3534806990170009A9142AE
:1031A00001D3002101704D49079A0A70082A0FD3F4
:1031B000464A059B13700278521CD2B20270009BE3
:1031C0009A4201D30022027000200870444908701E
:1031D0000DB0F0BD30701428FAD3454937700F7028
:1031E0004648444900220270414A1278D30094466E
:1031F0009D1A0378EA18560096197218D77D9770B1
:10320000977D5770527D8A555B1CDAB20270072A8F
:10321000EFD363465B1C364ADBB21370022BE1D35B
:1032200000270770314A029BD55C6378A478027846
:1032300056009619761820363573521CF372D2B2A6
:10324000B4720270072AF2D3264806990170009AD8
:10325000914200D30770049920480829B8D31B492C
:10326000059A0A7007701E480770B1E730700A2887
:10327000AED300201E4930700870204A1D48062138
:1032800011701B490B78D900C91A8C461578614614
:1032900049194C000E1931180C46203CE77F8F70FD
:1032A000A77F4F70617F81556D1E2906090E117031
:1032B000ECD119461526714300240E18B4707470B1
:1032C0000B4D44545B1C1DE03900002040000020E1
:1032D0008901002036000020370000204100002036
:1032E0003B000020340000202A0000209100002034
:1032F0002B000020BB010020570100202C000020E3
:103300003C000020D9B229700329B8D30648099996
:1033100001700829A9D30549059A0A700021017096
:1033200056E7FF210148FAE73B000020400000205B
:10333000F8B54148414D0178414E0024414F0129E3
:1033400017D02878401CC0B2287008284AD32C70A7
:10335000307839460978072863D2401CC2B23270EF
:103360003948130003F098FA0821161B3F454B51CA
:1033700057210022047011461046FCF74FFF3348D6
:103380002C70047032480470324834700470324833
:1033900004704EE00470072242700E2204E0012205
:1033A0000270082242700F2282704A008E18017843
:1033B0002A4C4B00CD182A49A25D6B189A70361919
:1033C00074785C70B3784B5545786E00AE197518FB
:1033D000AA706C708B558078450040194518AA700A
:1033E0006C700B54F8BD0222027009224270102248
:1033F000DAE7032202700A2242701122D4E7042283
:1034000002700B2242701222CEE7052202700C22BB
:1034100042701322C8E7062202700D224270142265
:10342000C2E7491CC8B234700E4938700978884226
:10343000D8D33C70F8BD00003900002036000020D1
:103440003B0000205701002089010020400000209F
:10345000340000203C0000203700002091000020B4
:10346000BB0100202A000020F0B5D34885B00178C8
:10347000012923D0D148DA4B0778D148D74C0078BE
:103480000390D04800780290CF4800780190CF4850
:103490001B780678CE485D000178CE485B1902782B
:1034A000CD48D04D00785D19401C0093C0B23B0060
:1034B00003F0F2F9053279B9D6FE30000024047029
:1034C000224621462046FCF7A9FEBD48C44D0470A3
:1034D000BC48C44E0470BC480470297848000F18DA
:1034E000F05D1921FCF70EFEB849BE19087070781E
:1034F0001921FCF707FEB6490870B0781921FCF7CE
:1035000001FEB4490870B4480470B7480470AB4871
:103510002C70047005B0F0BDAF4B08281870F9D3BB
:1035200000241C700398A64B8019C0B21870029E2C
:10353000A44B7118C9B21970019FA34BBA18D2B22B
:10354000A34DA44E1A70FCF769FEA7480178491CE8
:10355000C9B201700A29DDD904709848A44A0178DB
:10356000491C0170A14804709D480178491CC9B2EA
:1035700001701278914200D304700078994C410098
:103580004718E05D1921FCF7BDFD90493C19087012
:1035900060781921FCF7B6FD2870A0781921FCF796
:1035A000B1FD3070B6E73001801B854BC0B218709A
:1035B0000B01591A834BC9B2197013019A1A824B25
:1035C000D2B2834C834D1A70FCF728FE87480178ED
:1035D000491CC9B2017028299CD900210170774883
:1035E000834B0278521C02707D480278521CD2B282
:1035F00002701B789A4200D301700078794E410026
:103600004718F05D1921FCF77DFD7049BE1908705F
:1036100070781921FCF776FD2070B0781921FCF73D
:1036200071FD287076E76F480099664A405C6449EE
:10363000654B087069781170AA781A70FCF7EEFD76
:103640006A490878401CC0B208705028AAD90020E6
:1036500008705A490A78521C0A706349087059E781
:103660005D4B062818709DD300251D700398544BA0
:10367000801BC0B21870029E524B711AC9B21970E9
:10368000019E514BB21AD2B21A70FCF7C7FD5648D0
:103690000178491CC9B201700F29C3D94749057087
:1036A0000A78521C0A7051490D700178655400E087
:1036B00007E0491CC9B201703229F6D34D480570A4
:1036C00028E7454905280870ACD300260E70494903
:1036D000087807282BD2401CC0B20870030003F002
:1036E000DBF80810050A4D53595F65102670072056
:1036F00060700E2004E001202070082060700F2010
:10370000A0702078410041183B480A189670567006
:10371000465461784A008A1811188E704E7086548B
:10372000A1784A008A1811188E704E70865433485A
:103730000178491CC9B20170322990D31F490E701B
:1037400006701F4806701F4806701F4806702548FF
:103750000099405C1921FCF7D5FC1C490870687879
:103760001921FCF7CFFC1A490870A8781921FCF739
:10377000C9FC184908701C480670CBE6022020706E
:10378000092060701020BBE7032020700A206070C1
:103790001120B5E7042020700B2060701220AFE7E5
:1037A000052020700C2060701320A9E706202070EF
:1037B0000D2060701420A3E7390000204000002095
:1037C0002E0000202F0000203000002031000020BB
:1037D0003200002033000020360000208901002044
:1037E00034000020910000202B0000203C0000202D
:1037F0002A0000203B000020BB01002041000020E7
:10380000F8B5284E0024F178274B284801290DD01F
:103810000188274D491C8AB201210280012A0ED05D
:10382000CD27FF00BA420CD1197019E0F470048062
:1038300000221C7011461046FCF7F0FCF8BD1C700D
:103840000EE01C4FBA4201D1022008E01A4FBA42E2
:1038500001D1032003E0194FBA4203D104201870AC
:10386000297006E0164DAA4203D104801548F17074
:1038700001701878030003F00FF80505080B0E110E
:103880000400DBE700F026FAF8BD00F01DF8F8BDF3
:1038900000F080FCF8BD00F033FEF8BD01F092F8B6
:1038A000F8BD000026000020380000203E00002067
:1038B00039000020520D00006E0F0000921300002E
:1038C000581B000016000020F0B5EE4803270178D1
:1038D000ED4D0026ED4C85B0012920D02878401C04
:1038E000C0B2287005287DD3E9482E700378E948D6
:1038F0000278E948521C0178D5B2481CC0B2002BAE
:1039000025D0012B6FD0E44A0C296DD21070030032
:1039100002F0C2FF08FDFCFBFAF9F8F7F6FD002201
:10392000067011461046FCF779FCDC480770D84851
:103930002E700670DA48067001786654491CC9B2C8
:1039400001703229F8D3D4480670D24862E0D24AD6
:10395000072936D21070030002F09EFF0810050AF6
:103960005F656A7076102670072060700E2004E094
:1039700001202070082060700F20A070C748C94C3B
:10398000007841004318C7481C19C15CBF48007843
:1039900042008718C4483A18917063785370A2782F
:1039A000BA4CC25567787C003F193C18A17063700F
:1039B000B64CC255A4786700E4192718B9707B701B
:1039C0000255B448322D057025D3B1480125B74CB6
:1039D0000570B74F26703888113080B23880FCF7F8
:1039E000B0FB02E017E035E026E1FCF7A1FBC0B236
:1039F0001421FCF787FBAF4A20781154AE490D54CF
:103A0000AE490E54401CC0B220703228E3D3AC48FB
:103A10000670AC48067005B0F0BD02202070092089
:103A200060701020A9E727700A2060701120A4E7B9
:103A3000042020700B20607012209EE7052020706B
:103A40000C206070132098E7062020700D20607015
:103A5000142092E795480021017094489649007817
:103A6000095C039100295AD001297DD000218C4A9C
:103A7000C3001B1A11709C46157863465B195E00E3
:103A80009F19894B6D1CFE18B1707170D955EBB23E
:103A90001370072BF0D3884A115484480178491CCD
:103AA000C9B201700329D8D385480178491CC9B22D
:103AB00001703229AFD90025754F0570774E3D70E2
:103AC0003078784A41004118505C7F4B8A18187052
:103AD0007E4B517819707E4B92781A70FCF79EFBE2
:103AE0003078401CC0B23070052801D902203870EF
:103AF0006B490D7008782554401CC0B2087007E06F
:103B0000BAE0B3E0ACE0A6E09FE057E051E05BE054
:103B10003228EFD3604805705E4805707BE7604946
:103B20000022C5000A705D4B2D1A02951B785D4A74
:103B30005D005D19AB189E7801965B780093525D2D
:103B400094460B78029A6546D21856009719564A41
:103B50005B1CBE18B570009D7570019DD555DAB21D
:103B60000A70072AEDD300E003E00399524A491C8A
:103B700092E752494F4D0A5C4C4E521CD2B20A5445
:103B80002B5C9A4289D900220A544949088811308D
:103B900080B20880FCF7D5FAFCF7CAFAC0B214214B
:103BA000FCF7B0FA3078295443490A5C521C0A5495
:103BB00073E72670072060700E2004E0012020705B
:103BC000082060700F20A070277807213846FCF786
:103BD00099FA410040187900324E7B18324F325C1E
:103BE000D9198A70801942784A708078F8546078C0
:103BF00007210090FCF786FA410042180098B35C58
:103C000041004118C8198370921953784370907815
:103C10007854A47807212046FCF774FA1F490870ED
:103C20004100411860002018735CC2199370891913
:103C30004B785370897839541648282D057000D276
:103C4000E9E61348FF210170E5E602202070092013
:103C500060701020B7E727700A2060701120B2E76B
:103C6000042020700B2060701220ACE7052020702B
:103C70000C2060701320A6E7062020700D206070D5
:103C80001420A0E739000020360000208901002020
:103C900040000020410000203B00002034000020B4
:103CA0002B00002091000020BB0100202C000020F0
:103CB0002400002025010020F3000020C100002086
:103CC0003C000020370000202E0000202F000020A4
:103CD00030000020F0B5FE4BFE4819780478FE4A0B
:103CE000FE4887B0012961D011460F78FC497A1C43
:103CF0000B78FC495B1C0978DBB2491CC9B2019105
:103D0000D1B20091002F7DD0F84DF7492D78097878
:103D1000AC466D1CEEB24D004A1C4D19F449D2B2AE
:103D20006918012FEE4F3B706DD00A2B3CD3002356
:103D30003B706346002B67D0012B66D0022B76D0F8
:103D4000EC4E0023EA4F33707D5D03954D7802956C
:103D50008978019100210170E64BE7491B780093B7
:103D6000DD00EB1A9C4603786546ED186E00AE192F
:103D70007518039FAF70029F6F705B1C019DDBB2D3
:103D80008D550370072BEED3009BDA495B1CDBB229
:103D90000B70032BDED3D448A242027001D3002162
:103DA0000170D2490020087007B0F0BD00211970E1
:103DB000D24BCB4D197029701170CE4ACE4D117077
:103DC000CC4F214638780090FCF79CF9CB480A4646
:103DD0000170C24800210170C5495300D318CA5C64
:103DE00059184E78897800980191C100081A8446C4
:103DF000BA48634601785B185F00DF197B199A7037
:103E00005E7003E014E068E026E14BE1491C019B91
:103E1000C9B2EB5501700729EAD30098B549401C97
:103E2000C0B208700328CBD30020AE49BBE77DE1C8
:103E3000AB49142B0B70B7D300220A70AE49B04CBB
:103E40008B7823700393AF4C4B78237002930B78DD
:103E5000AD4C9C462370A74B1A7000220270A54AF5
:103E60001378DA00D51A04782A19560096197218B0
:103E7000D77D9770977D5770527D8A55641CE2B24A
:103E80000270072AEFD35B1C9A4CDAB22270022A26
:103E9000E3D3002202700478039D6300E3185B18EB
:103EA00020331D73029DDD7265469D72641CE3B272
:103EB0000370072BEFD38B48019901701429BAD3F3
:103EC00002708548009901708C4802708F4802701A
:103ED000864802708448027066E70A2BFCD30023F0
:103EE0003B706346002B42D0012B67D0022B7DD064
:103EF000804E00237E4F33707D5D05954D7804958F
:103F000089780391002101707A4B7B491B780293D9
:103F1000DD00EB1A9C4603786546ED186E00AE197D
:103F20007518059FAF70049F6F705B1C039DDBB21B
:103F30008D550370072BEED3029B6E495B1CDBB2E1
:103F40000B70032BDED36848A242027001D300211C
:103F50000170664900200870624801990170642967
:103F6000BAD3002101705C48009901701CE7614FD1
:103F700002233B70002707705D48405D049048783D
:103F8000039088780290D800C01A8446534863464C
:103F90000178049F58184300C5185748491C2B182E
:103FA0009F70039F5F70029B4355C8B24B4907281F
:103FB0000870EBD349E04D480670CDE74D4F002324
:103FC0003B704B4F03707D5D04954D780395897868
:103FD0000291D900C91A8C46017863465B185F00CC
:103FE000DB19454F049DDF19BD7000E00AE0039D19
:103FF0007D70414F491C029DC9B2FD5401700729D3
:10400000EAD322E03B4F01233B700027077038487A
:10401000405D04904878039088780290D800C01AD8
:1040200084462E4863460178049F58184300C518FB
:104030003148491C2B189F70039F5F70029B4355AA
:10404000C8B2264907280870EBD32748A24202705D
:10405000B1D300210170AEE7264F02233B70002749
:104060000770234F7D5D02954D7801958978009109
:10407000D900C91A8C46017863465B185F00DB19CA
:104080001D4F029DDF19BD70019D7D701A4F491CA7
:10409000009DC9B2FD5401700729ECD369E01348B3
:1040A000067081E6134F00233B7003701048405D9B
:1040B00002904878019088780090D800C01A844611
:1040C00006496046097840184300C5180A481FE0B1
:1040D000390000202A000020400000202C00002091
:1040E000360000203C00002057010020F300002093
:1040F000910000202B000020BB0100203400002094
:104100002E0000202F000020300000203B00002067
:104110002B18029F9F70019F5F70009B4355491CA5
:10412000C8B2174907280870CAD322E0154F0123E7
:104130003B7000270770144F14487D5D02954D7841
:10414000019589780091D900C91A8C460C496346BB
:104150000978029F5B185D005D192B189F70019F05
:104160005F70009B4355491CC9B2054B0729197064
:10417000ECD30748A242027091D3002101708EE770
:104180002C0000202B00002091000020BB0100200B
:1041900057010020F0B5CB4900230A78CA488BB0FC
:1041A000012A21D00678CA48C84A00781278401CF3
:1041B000C1B2C8480078401CC0B2002E20D0C24C0A
:1041C000C54F2478641CE4B20994C24C247865007D
:1041D0006519C24C2C19012E20D0022E4FD0032E6F
:1041E0007ED00521B84817E00B70BA490B70BC4966
:1041F0000B700370B6480370BA4803700BB0F0BD83
:10420000B34C14292170F9D3B2492370087090423D
:1042100000D30B70AC4801210170EFE701263E701E
:10422000B14B00271F70AD4FF3007D5D079565789A
:104230000695A4789B1BA4460493AB4C049B24785E
:10424000079F1B195D005E19A84B641CF518AF7021
:10425000069F6F7065469D55E3B2A34C072B2370F4
:10426000EBD39B4B14291970C8D3002499491C70B7
:104270000870904200D30C7093480999CCE702264D
:104280003E70994B00271F70944FF3007D5D07959A
:1042900065780695A4789B1B9C460594924C6346D2
:1042A0002478079F1B195D005E19904B641CF5185C
:1042B000AF70069F6F70059D9D55E3B28A4C072B2A
:1042C0002370EBD3824B1429197097D300211970F6
:1042D000804B9042187000D319707B48099A00E017
:1042E00002E00270824897E77D480178491CC9B214
:1042F0000170022982D30026067077487B4C067035
:104300007848A1780078029042008018734A851896
:10431000002905D16178002902D12178002934D003
:104320006E49085C1921FBF7EDFE72490870019097
:1043300068781921FBF7E6FE6F4908700490A878A9
:104340001921FBF7DFFE6D4984460870664800219D
:1043500001700246F000801B08901678019F8019BA
:104360004100431819198878761CC71B8F7048784C
:10437000049FC71B4F70E05C6146401AE054F0B2E6
:104380001070072801D20898E7E759480078039091
:104390000F283ED3E07D002805D1A07D002802D162
:1043A000607D002835D0E8781921FBF7ABFE514934
:1043B0000870099028791921FBF7A4FE4E4908706E
:1043C000019068791921FBF79DFE4C4984460870DD
:1043D000414901200870444900220A70C200101AA5
:1043E00004900E78099F8019420083181A1990785A
:1043F000761CC71B97705078019FC71B5770E05CF5
:104400006246801AE054F0B20870072801D204987E
:10441000E7E703981E283DD334482030017B00296C
:1044200005D1C17A002902D1807A00283AD0A87932
:104430001921FBF767FE2F4908700190E8791921CF
:10444000FBF760FE2C4908700490287A1921FBF7CD
:1044500059FE2A49022208701F4900230A70224986
:104460000B70D3009A1A94460D7862465219530085
:10447000D3181A199778019E6D1CBE1B9670577839
:10448000049EBE1B5670E25C121AE254EAB20A7035
:10449000072AE9D303981F2800D3AFE61448017810
:1044A000491CB9E6084900200870029A0D4BD21C3D
:1044B000D2B21A70092A01D304220A700C4908707A
:1044C000ECE7000039000020400000202A00002016
:1044D0003C000020340000202B0000209100002030
:1044E00036000020F30000202C000020BB0100203B
:1044F0003B0000203100002032000020330000206B
:10450000F0B5FF48FF49027885B0012A28D0084657
:104510000578FD48002D0778FC4800788446FC4863
:1045200000780190FB480378FB480178FB4802784B
:1045300045D0F448FB4E0078401CC0B20290F848C9
:10454000367800780096441CE4B2012D7ED0022D0E
:104550007DD0032D7CD0EB490420087005B0F0BD60
:1045600000240470EF4DF0482C700470EC480C707F
:104570000470EE4822460470ED482146047020463F
:10458000FBF74CFEE0480470E0480470E04804701B
:104590002878E84C41004518605D1921FBF7B2FD11
:1045A000DC492C19087060781921FBF7ABFDDA495A
:1045B0000870A0781921FBF7A5FDD849CDE7F818B8
:1045C000D14DC0B2D14B61442870C9B21970019D60
:1045D000CF4BAA18D2B2CF4C1A70FBF71FFED44EA5
:1045E0003078401CC0B230701928B7D3C548D14DBF
:1045F0000178491C0170CB48007841004718E85DFC
:104600001921FBF77FFD20707C1960781921FBF7D9
:1046100079FDC1490870A0781921FBF773FDBF49E6
:1046200000250870BE48C44C05703570C34EC44F99
:104630002570C448217845543088113080B23080CC
:10464000FBF77FFDFBF774FDC0B202E00DE0A4E0D4
:1046500031E10521FBF756FD2078491D3954401CF6
:10466000C0B220703228E4D378E703284DD2B24894
:1046700000240470B048B34C0078245C012C3DD079
:10468000B14CAF4E255C6D1CEDB22554365CB54285
:104690001FD300252554AD4C2570C400241A019465
:1046A000AA4C019D2478A4462C1965006619A84CD3
:1046B0003519AF78FF1AAF706F787F1A6F70A55DEC
:1046C000AD1AA5556446641CE4B2A04D072C2C70AD
:1046D000E6D31524054665439D4C2E19B778002F67
:1046E0000CD17678002E09D1645D002C06D18C4D5A
:1046F0002C78641C2C70934D01242C54401C8E4C3F
:10470000C0B220700328B5D301E085480470844806
:1047100001783729A8D3002404707A4802990170DF
:1047200000998048491CC9B28A4A017012789142A6
:1047300000D3047000787F4D41004618A85D192110
:10474000FBF7E0FC73497519087068781921FBF7CD
:10475000D9FC71490870A8781921FBF7D3FC6F497F
:10476000754D0870754E764F2C70764829784454F4
:104770003088113080B23080FBF7E3FCFBF7D8FCC7
:10478000C0B20521FBF7BEFC2878491D3954401CF6
:10479000C0B228703228E8D3E0E6624D2D786E0072
:1047A000AD19644E0195AD190095032856D26248A3
:1047B000002404706048634C0078245C012C46D0CF
:1047C000614C5F4E255C6D1CEDB22554365CB542E4
:1047D0001FD3002525545D4C2570C400241A039472
:1047E0005A4C039D2478A4462C1965006619584C30
:1047F0003519AF78FF18AF706F787F186F70A55DAF
:10480000AD18A5556446641CE4B2504D072C2C70BD
:10481000E6D3152444434E4DA4466519454C019EEC
:10482000AF78A45DA74212D1009C6D786478484EA1
:10483000A5420CD16446355D009CA478A54206D102
:10484000374D2C78641C2C703E4C01252554401C9F
:10485000394CC0B220700328ACD301E0304804705A
:104860002F480178372997D30021017025480299F4
:10487000017030480199455C19212846FBF742FC3C
:104880000146244801700098192146783046FBF70C
:1048900039FC01462048017000981921847820468F
:1048A000FBF730FC1D490870174805701748067063
:1048B0001748047052E6F81A134C6346C0B2134D01
:1048C000591A2070C9B22970019B114E9A1AD2B29E
:1048D0003270FBF7A3FC16480178491CC9B201707D
:1048E0001929E7D3002404700E481A4A0178491C9C
:1048F000C9B201701278914200D3047000782BE0A5
:1049000039000020400000202E0000202F00002051
:104910003000002031000020320000203300002051
:104920003B0000203400002036000020370000202B
:1049300041000020910000202C00002024000020D5
:104940002501002089010020C10000202B0000204B
:10495000BB0100202A0000204100471812481921FD
:10496000C05DFBF7CFFB114908700F4819213F18B4
:104970007878FBF7C7FB0E490870B8781921FBF768
:10498000C1FB0C490E4A08700B4804702C700B4890
:10499000347004701178491CC9B21170022989D38E
:1049A00004210170DAE500009100002031000020B0
:1049B00032000020330000202E00002040000020A4
:1049C00037000020FEB57A4800270178794C7A4DEF
:1049D0007A4E012912D10022077011461046FBF7CA
:1049E0001DFC77480770774807707748077077484D
:1049F000077027702F7076483770077071480178FC
:104A0000491CC9B20170032976D907706F48017833
:104A1000491CC9B20170282908D907706A48017871
:104A2000491CC9B20170052900D907706648007891
:104A3000030001F031FF06040B12192129303770F1
:104A40002078401D20702878C01F13E02F70307828
:104A5000801F30702078093014E027702878C01D3E
:104A600028703078001F15E037702078401F2070C4
:104A70002878083028700EE02F703078C01C307015
:104A80002078C01F207006E027702878083828702A
:104A90003078C01C30704E484F4A01784D4800298C
:104AA0002BD001294AD0022964D0177021780191B6
:104AB0002978009131788C460021474A017012789C
:104AC0004649D3009D1A0378019FEC186600A61989
:104AD0007418A770009F67705B1C6446DBB28C552E
:104AE0000370072BEFD3521C3B49D2B20A70032A42
:104AF000E2D3374900200870FEBD022313701A4626
:104B0000077023789C462B78019333780093D30069
:104B10009D1A047863462A19560097192F4A641C77
:104B2000BE18B370019B7370009ED655E2B202703E
:104B3000072AEED32648491C0170FEBD1770077086
:104B4000237801932B78254A9C46FB003578DB1BA4
:104B500000930478009E019B36197700F719BE1860
:104B6000B37063467370641CE3B2D5550370072BB2
:104B7000EFD3DFE7012313700770247801942C78BA
:104B8000164AA44634780094DC00E51A0378019CA8
:104B9000EE187700F719BE18B470644674705B1C89
:104BA000009CDBB2D4550370072BEFD3C2E70000A3
:104BB000390000202E0000202F00002030000020AF
:104BC0003400002036000020400000203700002084
:104BD000F30000202C0000202B000020BB0100204F
:104BE000F8B5274E0024F178264B274801290CD030
:104BF0000188264D491C8AB201210280012A0DD06C
:104C0000234FBA420CD1197019E0F47004800022CD
:104C10001C7011461046FBF701FBF8BD1C700EE03E
:104C20001C4FBA4201D1022008E01B4FBA4201D109
:104C3000032003E0194FBA4203D1042018702970F1
:104C400006E0174DAA4203D104801648F1700170A6
:104C50001878030001F020FE0505080B0E11040072
:104C6000DBE700F021F8F8BD00F0A4FBF8BD00F090
:104C7000F3FEF8BD00F0CEFFF8BD01F005F9F8BD78
:104C800026000020380000203E00002039000020CF
:104C9000640A0000E614000044160000CD1900006C
:104CA0003421000016000020F0B5F848F84C0178D7
:104CB00000258DB001292BD020460778F5480378D0
:104CC000F5485B1C0278F548521CD4B27A1C017876
:104CD000D2B20692F24ADEB21278491C531CDBB201
:104CE0000793F04BC9B21B7808935B1CDBB20493AB
:104CF000ED4B1B7800935300D318EC4A02939A189B
:104D000001923B0001F0C8FD051772F5F3F2F100C6
:104D10000022057011461046FBF780FAE048257026
:104D20000570E0480570E2480570DA480570DA4819
:104D300005700DB0F0BD01700529FAD30021017096
:104D4000D448052E067040D300220270D94B0220B1
:104D50001870D948D94900220270D64A12780B92AD
:104D6000D3009A1A94460578624652195300D61811
:104D700072181346203B5F7B97701F7B5770DA7A5F
:104D80008A556D1CEAB20270072AECD30B9AC94B04
:104D9000521E1206120E1A70DDD10270C34A029B17
:104DA000D25C0892019A52789446019A95780278DA
:104DB000089B560097197E18B3706346521C737097
:104DC000D2B2CD550270072AF1D3B348322C047009
:104DD000AFD300210170AE4A06981070B04A079810
:104DE0001070009B9842A4D31170A2E701700529AE
:104DF0009FD300210170A748052E067037D301709C
:104E0000AC4AAD4811700021AA4A01701278AB4932
:104E1000D30094469D1A0378EA1856009619721822
:104E2000D77D9770977D5770527D8A555B1CDAB29B
:104E30000270072AEFD36246521C9E4BD2B21A7000
:104E4000022AE0D300220270984A029BD65C019AA3
:104E50005578937802785700D7197F1820373E731A
:104E6000521CFD72D2B2BB720270072AF2D38A4979
:104E7000282C0C70B9D3002008708949079A0A7051
:104E8000009B9A4200D30870814A894910700B78C0
:104E90005B1CDBB20B70022BA7D9087002211170CA
:104EA0008049844A08708449844B1070814A087094
:104EB0001278D400A71A0C783D196E00AE19F518B7
:104EC000A870641C6870E4B298550C70072CF2D37B
:104ED0007B4D784CA854764DA8547A4DAA54521C58
:104EE000D2B22270032AE1D323E745E2E5E1FCE0F8
:104EF000FFE701700529F7D3002101706D480170AB
:104F00006C496F480D780222415D521B491CC9B2A1
:104F1000415591425ADB002141556548405D0028CA
:104F200002D0012852D152E015206843634E8446D6
:104F3000811964488A78405D5C4F4300C018039033
:104F4000385C82420AD34A780399C9194B789A424D
:104F500004D36246B25C89788A4234D21921FBF7C5
:104F6000D1F859490870029003981921C719787827
:104F7000FBF7C8F8554908700A90B8781921FBF773
:104F8000C1F85349844608704B4800210170E8007D
:104F9000401B03904849029F0B78C01841004218FB
:104FA000911988785B1CC019887048780A9FC019CD
:104FB0004870B05C40496044B054D8B208700728CB
:104FC0005CD20398E6E73A490120485556E0284666
:104FD00015213A4E484381198A78002A05D149782B
:104FE000002902D1305C00283CD036482F4F405D6C
:104FF000410040180290385C1921FBF783F83249D0
:105000000870079002981921C7197878FBF77AF889
:105010002E4908700A90B8781921FBF773F82C49CB
:1050200084460870244800210170E800401B049069
:105030002149079F0B78C0184100421891198878C0
:105040005B1CC01B887048780A9FC01B4870B05C0E
:105050006146401AB054D8B21749072808700DD2DB
:105060000498E5E71248002216494255485D401C65
:10507000C0B24855009B984200D34A556D1C0D495B
:10508000E8B20870032825D23AE700003900002072
:1050900040000020370000204100002036000020A2
:1050A000340000203B0000202A0000209100002056
:1050B000F30000202B0000202C000020BB0100206A
:1050C000C1000020570100203100002032000020E4
:1050D00033000020A948322C047000D229E60021B8
:1050E0000170A7480699017023E601700529F5D3E0
:1050F00000210170A3480170A249A3480D78022243
:10510000415D521B491CC9B2415591425BDB0021F4
:105110009E4F4155785D002802D0012853D153E0BD
:10512000152068439A4E844681199A488A78405DD2
:105130004300C018984B0390185C82420BD34A7806
:105140009549039B59184B789A4204D36246B25C46
:1051500089788A4235D2904F1921FAF7D3FF8F49C7
:105160000870029003981921C7197878FAF7CAFFD6
:105170008B4908700890B8781921FAF7C3FF89495C
:1051800084460870884900200870E800401B06909B
:105190008549029F0B78C018410042189119887800
:1051A0005B1CC01988704878089FC0194870B05CB3
:1051B0007D496044B054D8B20870072859D2069887
:1051C000E6E70120785554E028461521704E484303
:1051D00081198A78002A05D14978002902D1305CEA
:1051E00000283BD06B48405D410047186A49C85DC4
:1051F0001921FAF787FF6949087067490A907F18F3
:1052000078781921FAF77EFF654908700990B87817
:105210001921FAF777FF6349844608706248002134
:105220000170E800401B07905F490A9F0B78C01887
:1052300041004218911988785B1CC01B887048781F
:10524000099FC01B4870B05C6146401AB054D8B288
:105250005549072808700CD20798E5E700214D4A08
:105260007955505D401CC0B25055009B984200D308
:1052700051556D1C4349E8B20870032800D23BE742
:105280003E48322C047000D253E5002101703C4BA3
:10529000022018704548049A0270022AF4D901705D
:1052A000042018703748424B017002789954521C00
:1052B000D2B20270322AF8D33BE501700529E3D35C
:1052C00005700898394A052107282DD204981070D6
:1052D000030001F0E1FA0812050B2F363D444A1293
:1052E00033480722057042700E2205E03048012243
:1052F0000270082242700F2282702D4A10784300FB
:10530000C618234833189D705D70855553785E002C
:105310009E1933189D705D70855592785300D3188F
:105320001A1895705570C5541448322C0470ABD3BC
:105330001348D8E61E480222027009224270102249
:10534000DAE71B48032202700A2242701122D3E7D7
:105350001748042202700B2242701222CCE7144834
:105360000C22017042701322C6E711480622027017
:105370000D2242701422BFE7FF21D9E7410000202F
:10538000400000202B000020C1000020F30000207E
:10539000BB010020570100209100002031000020B7
:1053A00032000020330000202C0000203B000020B1
:1053B00089010020F0B5F848F84D01788BB001293B
:1053C0002DD0284607780897F649F94C0B78F44811
:1053D0002678F549F54A00789B1909781278DBB2EE
:1053E0000093F44B401C1D78F34BC0B21C78F34B78
:1053F00049191B7806905B1CDBB20293F048F14B15
:1054000000781B7812190193C9B2D2B23B0001F0A7
:1054100043FA092B4B7EFDFCFBFAFAFAF900002453
:105420000470224621462046FAF7F8FEE3482C7025
:105430000470E54819210470E4480470E4480470DD
:10544000D7480470E34C2078FAF75CFED84908701E
:1054500060781921FAF756FED6490870A07819210C
:10546000FAF750FED449D8E2B0003018CD49C0B2A6
:105470000870A9006918CC4AC9B21170A200A2181C
:10548000CA4BD2B21A70FAF7C9FED1480178491C4A
:10549000C9B201700A2938D900210170BF480278C9
:1054A000521C0270C64874E1BE4B00981870BE4B87
:1054B0001970BE4B1A70FAF7B1FEC1480178491C49
:1054C000C9B20170142920D300250570B348C24C1D
:1054D0000178C24E491C0170C14F2570C148217826
:1054E00045543088113080B23080FAF72AFEFAF73E
:1054F0001FFEC0B20521FAF705FE2078491D395478
:10550000401CC0B220703228E8D30BB0F0BD032895
:105510004CD2B14800210170AF48B2490078095C13
:1055200001293CD0B049AE4B0A5C521CD2B20A549D
:105530001B5C9A421FD300220A54AC490A70C10076
:10554000091A0991A949099A09788C4651184A0003
:105550008B18A7495A189778BF1B977057787F1BED
:105560005770CA5C121BCA546146491CC9B29F4A93
:1055700007291170E6D315219D4A41438B189F7866
:10558000002F0CD15B78002B09D1515C002906D18A
:105590008B490A78521C0A70924A01211154401C0E
:1055A0008D49C0B208700328B6D302E08449401C7C
:1055B0000870834E30783728A7D3834800240470BE
:1055C00076480470824804707C4802990170019A00
:1055D000914200D3047000787E4F41004518785DF9
:1055E0001921FAF78FFD7249ED19087068781921B1
:1055F000FAF788FD6F490870A8781921FAF782FD3B
:105600006D4904E00BE2F7E0BBE082E016E00870D1
:105610003470634806990170022900D875E7047058
:105620005E490320087071486E4A04700178545432
:10563000491CC9B201703229F8D366E7604C0328CF
:1056400065D2684F654D6B4E2888113080B2288036
:10565000FAF777FDFAF76CFDC0B20321FAF752FDB5
:105660003170785C0128EFD00120C9B278542078DD
:10567000401C2070494800250178564E491C017095
:10568000474805704748057047480570474805700A
:105690004A48017848000F18F05D1921FAF732FDE9
:1056A0004349BE19087070781921FAF72BFD41495A
:1056B0000870B0781921FAF725FD3F490870424873
:1056C0000178491CC9B201703229B6D33349052289
:1056D0000A7005702570404C404F414E257041487E
:1056E000217845543888113080B23880FAF729FD86
:1056F000FAF71EFDC0B21421FAF704FD20780A3132
:105700003154401CC0B220703228E8D3FDE604209A
:10571000AFE7244B009F1F70234B032819702349C8
:105720000A701ED83148002101703249304809788A
:10573000CA00511A8C462D4A61461378C9184A008E
:105740008A1811188F785B1CBF198F704F787F19DA
:105750004F70815C09198154D9B2244A072911700C
:10576000E9D30F49069808701928CFD30B490320B5
:105770000870124802990170019A9142C6D3002123
:1057800007E0002211461046FAF748FD0348017869
:10579000491C0170B9E600003900002040000020DB
:1057A000370000202E0000202F00002030000020B5
:1057B000310000203200002033000020340000209F
:1057C0003B0000202A000020410000203C00002077
:1057D00036000020910000202C0000202400002032
:1057E0002501002089010020C10000202B0000209D
:1057F000BB010020F30000208A4800210170894885
:10580000032100780446FAF77DFC87480129015DF1
:1058100032D0491CC9B2854A0155125D91427DD9E9
:105820000025055520460199FAF76CFC8048017067
:105830008048005D0990002871D07F4800227F4B8E
:105840004D0002704D19E9188E7807964F78E100E7
:105850007B4A5D5D091B8C46017863465B185E00E0
:105860009E19B3189D705F70491C079BC9B2935570
:1058700001700729F0D393E0491CC9B201550329EF
:105880004CD30021015520460199FAF73BFC6848AA
:105890006A4D017048000F18E85D19210290FAF76F
:1058A00031FC064667487F19067078781921049004
:1058B000FAF728FC0546644819210570B8780746B0
:1058C000FAF720FC6149024608705A48005D00283A
:1058D00035D02046152148435949844640188378DD
:1058E00002998B4208D341780498554B814203D3E7
:1058F0006046185CB84253D24F4800210170E00066
:10590000001B05904C480599007884466144480086
:105910000B184B4819188F78BF1901E069E042E075
:105920008F704F787F194F70C15C8918C1546046E1
:10593000401CC0B2404907280870E3D359E0152045
:105940003F4F6043C1198B78002B05D1497800295E
:1059500002D1385C00281FD0374800210170E000D8
:10596000001B0990344809990078844608184100C2
:105970004318334819188F78BF1B8F704F787F1BDF
:105980004F70C15C891AC1546046401CC1B22A489C
:1059900007290170E6D32CE026480121015528E0B3
:1059A0000020244924E02448244A4B000570C918EB
:1059B000535C89185B0807934A788978520849082C
:1059C000944605911E49E200151B0278079BAE180C
:1059D0007700F7197E18B37063467370521C059BED
:1059E000D2B2CB550270072AEFD309981149401C57
:1059F0000855641C0B49E0B20870032800D2FEE68B
:105A000013480178491CC9B20170C82900D87CE547
:105A10000021017008980F49401C087075E5FF21AE
:105A20000C48B6E62C000020C10000202501002013
:105A300034000020F30000202B0000209100002003
:105A4000BB01002031000020320000203300002084
:105A50003600002040000020F8B56249624C08780A
:105A6000624E634D01280DD062482778027828469F
:105A7000017861483B00007800F00EFF061F848C1F
:105A800095A1A9B2002008705C49207008705C499B
:105A9000594A0870FF2111705649287008705949F9
:105AA0000870594908700A78B054521CD2B20A7072
:105AB000322AF8D355490870F8BD504B1D786D1C3B
:105AC000EDB21D70052DF7D300251D704F4B1F78CB
:105AD000072F2ED27F1CFFB21F703B0000F0DCFEB0
