:020000040000FA
:1000000020040020F1000000F5000000D5000000F1
:1000100000000000000000000000000000000000E0
:10002000000000000000000000000000F9000000D7
:100030000000000000000000FB000000FD000000C8
:10004000FF000000FF000000FF000000FF000000B4
:10005000FF000000FF000000FF000000FF000000A4
:10006000FF000000FF000000FF000000FF00000094
:1000700015620000FF000000FF000000FF0000000C
:10008000FF000000FF000000FF000000FF00000074
:10009000FF000000FF000000FF000000FF00000064
:1000A000FF000000FF000000FF000000FF00000054
:1000B000FF000000FF000000FF000000FF00000044
:1000C0000348854600F076F8004800475D67000069
:1000D0002004002004207146084202D0EFF309807A
:1000E00001E0EFF308807146004A1047412100000B
:1000F00003480047FEE7FEE7FEE7FEE7FEE7FEE710
:10010000C100000030B50B4601460020202201242A
:1001100009E00D46D5409D4205D31D469540491B3B
:100120002546954040191546521E002DF1DC30BD84
:100130000549064A08685043054A80180860400887
:1001400070470149086070477C0000206D4EC64131
:1001500039300000F0B51FB40646002082B00546D5
:100160004024019100901BE0019922460F46304641
:1001700000F042F8049A059B801A994110D310466A
:100180001946224600F028F8361A8F410197224678
:1001900001200021009F00F01FF838184D41009009
:1001A0002046641E0028DFDC019B00982946324669
:1001B00007B0F0BD064C0125064E05E0E36807CC0C
:1001C0002B430C3C98471034B442F7D3FFF77CFF25
:1001D000C0680000E068000010B5202A04DB01467A
:1001E000203A9140002010BD914020239C1A0346E4
:1001F000E3401943904010BD10B5202A04DB0846A7
:10020000203AD040002110BD0B46D340D0402024DE
:10021000A21A91400843194610BD000070B5064C63
:1002200000235D005D192E1970705B1C6155DBB2F7
:10023000B2701E2BF5D370BDC301002000B5054878
:10024000C178012905D10021C1700A460846FFF78F
:10025000E5FF00BD2A000020F8B529484278002AB1
:100260002CD005250146274E2D07274FC97800249D
:10027000012A06D0022A22D0032A1FD101292AD01E
:1002800033E0012909D11E480022C47004700C21FA
:100290001E4801F0FFFE0120B06119480178491C99
:1002A000C9B20170052909D904704470686B3840DF
:1002B0006863686B0321890208436863F8BDC470F2
:1002C0000470B4614470686B38406863686B68633D
:1002D000B462F462F8BDC4700470B461696B3940F3
:1002E0006963696B6963B462F4620178491CC9B2DD
:1002F00001700529EED9047001214170C170F8BD6B
:100300005C00002000420050F3F3FFF34040005037
:1003100070B52848C669284903248A1C01250B1F8B
:100320000020012E17D0087048701178491CC9B2FE
:100330001170322909D310705178491CC9B251701B
:100340000A2902D350705C70DD701B499A78091D30
:10035000012A11D014E0107050700A78521CD2B2E9
:100360000A70322AF1D308704A78521CD2B24A700D
:100370000A2AEAD34870E6E79870087048708870D7
:100380000A78521CD2B20A70322A10D308704A7806
:10039000521CD2B24A703C2A09D348708A78521C47
:1003A000D2B28A703C2A02D388705C70DD70FFF78D
:1003B00053FF70BD0042005060000020F0B5684956
:1003C000684DC878684C85B0012807D06748017827
:1003D0000A2950D2491C017005B0F0BD0020C87038
:1003E00020706348634F007800902078009906469B
:1003F000FFF788FE6048017048000A187000311845
:10040000BB5C48194370D21953786B549178817052
:10041000761CF0B220701E28E7D30026574D584FA7
:1004200026702888113080B22880FFF78AFEFFF7F7
:100430007FFEC0B20A21FFF765FE524A20780A31DA
:100440001154514A012111542888113080B228805A
:10045000FFF777FEFFF76CFEC0B21E21FFF752FEDA
:1004600020780A313954401CC0B220701E28D8D3DD
:100470003E480670B0E700210170434F2170267896
:10048000B85D00282FD0012845D039480178304682
:10049000FFF738FE384801704800081835490190C8
:1004A000085C3221FFF72EFE8100411870003018E1
:1004B00004904019039041702E4901984018029011
:1004C00040783221FFF71EFE81004118049829541C
:1004D000029832218078FFF715FE810041180398B9
:1004E0008170002015E0224801783046FFF70AFEAF
:1004F00021480170480009181E48435C70003018FC
:10050000421953701B4BC9184B782B548878907044
:100510000120B8551DE01A481A4A815D491CC9B22C
:100520008155925D914214D90021144A8155108859
:10053000411C1180FFF705FEFFF7FAFDC0B20A214A
:10054000FFF7E0FD0F4822780A318154B85C401C67
:10055000B8542078401CC0B220701E288FD33BE7CF
:100560002A000020C3010020300000203A000020B3
:100570002E000020990000203900002028000020D3
:10058000C90000202D010020FB000020F0B5184814
:10059000184BC7781849194D0024194E194A012FD4
:1005A00005D02F78082F0ED27F1C2F70F0BDC4709D
:1005B0001C700C701470002211461046FFF72EFEBE
:1005C0002C703470F0BD2C703578EF0700D1FF240B
:1005D00014706D1CECB23470052C03D9447804708F
:1005E0000124C470127809781878FFF717FEF0BD5F
:1005F0002A00002032000020330000203A000020B2
:10060000FB000020340000200248016AC2011143AF
:100610000162704700020050F3B58BB00C46FFF743
:10062000F3FF0B9800287448016813D0042211438B
:100630000160102000F0F0F90120C00409906F481B
:100640000090042008906E486E49201888420ED809
:1006500000251DE089088900491C0160012000F087
:10066000DBF900200990684800900220EAE767481B
:10067000664920184942884202D80125640007E0F3
:10068000634863492018494288427DD20325A4006B
:100690000026F643089F22E039460098FFF732FD16
:1006A0005C49844641185C48814217D2554B02226E
:1006B0005B1C534861465143401C0818984209D8B6
:1006C000A14201D9081B00E0601AB04202D2060024
:1006D00004920CD05148521C8242EAD97F1C212F2F
:1006E000DAD900200696C0430190089E54E009998B
:1006F000A803084301217A028902511A0843049988
:10070000891E08433C490862042000F085F9691CF1
:1007100079430098FFF7F6FC049948430DB0F0BD0B
:1007200031460098FFF7EEFC3A4942183A498A42AE
:1007300031D20221324B02464A435B1CD7185B423E
:100740009F4224D8A24201D9121B00E0A21A019BA9
:100750009A421CD20192069B0F469A4217D10999E0
:10076000A8030843012172028902511A0843B91EE5
:10077000084321490862042000F04EF9691C7143C6
:100780000098FFF7BFFC00E008E07843C6E7234A83
:10079000491C9142CED9761C212EC1D90B98002834
:1007A0000FD01F4914480162042000F035F91DA044
:1007B000006803901048016A0013014203D0002032
:1007C000ACE71949EEE7080301D50C4800E00E48F4
:1007D0008A03A3D40A04920F03AB9B5CCA05890465
:1007E000D20DC90E891C8008921C59435043FFF753
:1007F00089FC800092E70000000200500080510157
:10080000FF1E0AFAFFE0F505001BB700800F05FD8B
:10081000C08782FEFF95E7FFBF77CC000102000092
:10082000184408000102020416400000044982072F
:100830000A6801D09208920002430A6070470000E3
:100840000002005008B511A0006800901048016A2D
:100850000013014201D0002008BD080301D50D4856
:1008600000E00D488A03F7D40A04920F6B469B5CA4
:10087000CA058904D20DC90E891C8008921C5943EF
:100880005043FFF73FFC800008BD00000102020456
:100890000002005000805101001BB70070B502F04B
:1008A0004FFD2D4841682D4A1140416041680325A4
:1008B000294341600120FFF7B9FF012000F0ACF8A7
:1008C00000062749000E087009D10420FFF7AEFF8B
:1008D000102000F0A1F80021072000F08BF821483B
:1008E00000F046F8204C08262660304600F094F8C8
:1008F0000120A060606928436061A168E001814334
:10090000A160A1680143A1606069032109068843D1
:10091000606105200007416B144A11404163416B3F
:100920000322920211434163A06804210843A0609E
:1009300060690721090288436061A0683043A060B4
:10094000606909018843606105F0C0FB024900202D
:10095000C031086070BD000040000050FCFCFFFF8B
:1009600051000020006CDC0200020050F3F3FFF3A2
:10097000F8B51E4C0546E66810201D490640481093
:100980008D4201D90D4602E0854200D2054620681D
:10099000042738432060102000F03EF8206907212A
:1009A00008432061A06900090001A0612068800758
:1009B000800F01280ED069007804FFF72DFEE6684D
:1009C0000546102006400121022000F013F8002EF9
:1009D00006D008E069000020FFF71EFE0546F2E79A
:1009E0002068B84320606808F8BD0000000200508D
:1009F00080F0FA0210B5074A93691B091B010B43EB
:100A000093611169C908C9000143116105F05EFBDA
:100A100010BD00000002005010B50749074A05E06C
:100A20000B46491E002B01DC002010BDD468034694
:100A3000A343F5D1012010BD80F520000002005035
:100A4000F0B5F748F7498BB0C37809880891C9B267
:100A50000991F549012409780A9101468E79CA79EC
:100A6000002B15D18178491CC9B2817096290FD30A
:100A7000EE49C4700C704C704C238B704123CB70CA
:100A800037230B71099B4B710A9B8B71CE710A72D4
:100A9000837C0021002B09D0437C5B1CDBB24374B8
:100AA0000F2B03D34174FF2303718174E04B1D7836
:100AB000002D5CD00021DA48197084744174DD493E
:100AC0000C70C378DC48002B0178079101D1F02924
:100AD00028D00F07D8493F0F0B7906934979049125
:100AE000072F04D0B34242D1049991423FD10799D4
:100AF0000F2905D00B09CA490D79AB4237D00B71CC
:100B0000CD48CE4DC1780591417880783B0005F005
:100B100095FC102E0C0C1A2E304ABCF12E3A2E2EBB
:100B2000F02E822EC148047002E0C04802210170FC
:100B300044704C2181704121C170372101710999A4
:100B400041710A9968E10A2901D9FF290FD11C28AE
:100B50000DD82970EC70002909D0FF2905D0A870A4
:100B600000F0EEFA287868701AE0687828700BB008
:100B7000F0BD0828FBD8C107F9D1B1498871B14847
:100B80004C7104701EE10329F1D80029EFD0082828
:100B9000EDD80A3129706970EC70A87000F0D0FAB5
:100BA000A8480470E3E70B0005F048FC06050AF3CB
:100BB00015182A04DBE79B49002008809A490BE0BE
:100BC00008990029D3D00028D1D097490880FE2069
:100BD0002870EC70CBE7934908800DE00899914AA2
:100BE0000029C4D090490880089B984204D2002074
:100BF00010800880FF2000E0FD202870EC70CFE717
:100C00009149002805D0002008708E480470FC200F
:100C1000DEE70C70F9E782480E1F027C87488B4F95
:100C20000078330005F00AFC0A06060909090606E1
:100C300006060617884208D00DE088420BD1089BB3
:100C4000002B08D0059B012B05D1754B002A02D142
:100C5000EC701C743C70784E0A2988D9002886D024
:100C6000884207D0297069707648EC700470A878C3
:100C700000F066FAA978B078814293D0A8707149E3
:100C8000EC700C7000F05CFA71E7654BDF7B1B7B4E
:100C9000012F9C46624B5B7B08930DD06348022179
:100CA000017008214170042181700021C17001711F
:100CB000614641718371B0E0594F0023FB7341409D
:100CC000069B05985C4F584041400498814212D0E1
:100CD000FF2028705548EC700221017008214170F6
:100CE000042181700021C170017161464171089930
:100CF00092E069E04EE07F1C002001460497049BCF
:100D00005B5C1B0258400023C70B03D0504F4000D0
:100D1000784000E040005B1CDBB280B2082BF3D3CC
:100D2000491CC9B20429EAD361460B0208993C4F19
:100D3000591889B28142CBD16046000901F014FAFA
:100D4000444E3070387B0007000F01F00DFA7070D0
:100D5000787B000901F008FAB070787B0007000F7B
:100D600001F002FAF070314808210470417003214B
:100D700081700021C17001713B7B43717A7B82716C
:100D8000BE79C671FE790672BB71FA7139737973D7
:100D900032E717E0012915D0022900D0E7E6204903
:100DA000CC730873059B4B73204902240C70079D7C
:100DB0004D708C700024CC700C7148718B71CE71A9
:100DC0000A72D4E6FB2003E70D23002916D001297F
:100DD000E4D11648022101701F49437009788170DF
:100DE0000F49C97AC170192101711221417118216D
:100DF00081715721C17143210172B8E60B4802216C
:100E0000017043704C2181704121C1703721017103
:100E1000099941710A4989798171C6710272A6E600
:100E20001400002046000020480000208000002020
:100E3000030000205E0000200E0000202A00002099
:100E4000540000204F000020500000204E000020E1
:100E5000211000000500002051000020F0B5A94835
:100E6000A94EC378A948AA49AA4A8EB0012B5BD0E3
:100E7000A94B1F88A94B1D785C789B78641C9E4603
:100E8000A74BE4B21B780D947446641CE4B20C9436
:100E9000344624785B1C641CDBB2E4B20A930B94E6
:100EA00003461C786D1C631DDBB209930B46EDB243
:100EB0001B78AC46DD1FEDB2089515462D78AE4681
:100EC000AD1FEDB2079525460935EDB20695DD1D3E
:100ED000EDB2059575462D1FEDB20495651FEDB277
:100EE00003951D460835EDB20295E41F083BDBB2C1
:100EF0007546E4B20093ED1C0194884B6446EDB254
:100F0000002F1C703CD0052C0CD300241C707B1EC1
:100F10001E277B439FB2834B1B889F4271D9814818
:100F20005B1C03800EB0F0BD764B0024DC707B4B65
:100F30001C705C709C703470052373700323B37055
:100F4000794B7A4E1C701D7874556D1CEDB21D7076
:100F50001E2DF8D304700C7071481470047074481E
:100F6000754D04706F48048072480480287800280A
:100F700004D1002211461046FFF750F92C70D1E73A
:100F8000052CCFD300241C700D9F5F701E2F15D32E
:100F90005C700C9F9F70002F10D09C700B9B337067
:100FA000052B0BD934705E4B0A9F1F70052F05D996
:100FB0001C70544F0123FB705D4F3B70367833003B
:100FC00005F03CFA0604090E141A20241470099B3B
:100FD0000370089B0EE00C70079B1370069B0EE0DD
:100FE0000470059B0B70049B13700FE01470039B3F
:100FF0000370029B0B7009E00C701570019B03706D
:1010000004E01DE00470009B0B701570464B1D241E
:101010001C704A4B444C247865006619A446F518A8
:101020002C46203C677F9F55A67F6E70E47FAC7096
:101030006446641E24063C4D240E2C70EAD15AE00E
:10104000364B0D9F5F701E2F15D35C700C9F9F70E9
:10105000002F10D09C700B9B3370052B0BD9347074
:101060002F4B0A9F1F70052F05D91C70254F012398
:10107000FB702F4F3B703678330005F0DFF9060424
:10108000090E141A1F231470099B0370089B0EE0AD
:101090000C70079B1370069B0EE00470059B0B7091
:1010A000049B13700EE01470039B0370029B0B7083
:1010B00008E00C701570019B037003E00470009B46
:1010C0000B701570184B1D241C701C4B164C24788B
:1010D00065006619A446F5182C46203C677F9F558D
:1010E000A67F6E70E47FAC706446641E24060E4DCD
:1010F000240E2C70EAD10078587008781870107897
:1011000098700FE72A000020FB000020320000202A
:10111000330000203400002046000020C9000020D9
:101120003E0000204A000020300000202D01002059
:10113000190000204C0000204E000020C3010020B8
:10114000F8B50146FA4800240078FA26F94D2746FA
:101150000A2878D9F84A0C2010700B0005F06EF9B7
:1011600007154C7DA2D6FF051400F44861006118F4
:10117000425C6A540A18491953784B70641C92787F
:10118000E4B28A70102CF1D3F8BD05212046FEF799
:10119000B9FF002908D001290CD0022910D0032959
:1011A00016D004291CD022E0600020182F544019CA
:1011B000467013E0600020182E54401947700DE06F
:1011C0006100C8206118685449194E7088700EE09B
:1011D000600020182F54962140194170877006E056
:1011E0006000962120182954401946708670641CAE
:1011F000E4B2102CC9D3F8BD07212046FEF782FFC8
:1012000000290CD0012912D0022908D003291BD0B3
:1012100004290CD0052902D0062908D00EE0600070
:1012200020182E54322140194170642105E06000DD
:1012300020182E544019477032218170641CE4B28A
:10124000102CD9D3F8BDC3E06000642120182954C4
:10125000C821401941708770F0E7A00709D0A007A6
:10126000800F01280CD0022810D0E043800707D05F
:1012700013E0600020182E544019477087700CE06E
:10128000600020182F544019477005E06000962137
:1012900020182954401946708670641CE4B2102C42
:1012A000DBD3CFE705212046FEF72CFF002908D02D
:1012B00001290ED0022911D0032917D0042920D0EA
:1012C0001AE0600020182F544019467032218170B6
:1012D00012E0600020182E54322104E060006421E6
:1012E00020182954C8214019417004E060002018DA
:1012F0002E54401947708770641CE4B2102CD1D36F
:10130000A0E7600020182E549621ECE7A00712D029
:10131000A007800F012815D002281BD0600064218F
:1013200020182954C821401941708770641CE4B208
:10133000102CEBD386E7600020182F54401946701C
:10134000F3E70CE0600020182F544019467032215A
:101350008170EBE7600020182F549621E3E7092104
:101360002046FEF7CFFE002910D0012913D0022914
:1013700029D0032914D004290DD005291CD0062911
:1013800009D007291FD008290AD010E060002018D2
:101390002E54322101E0642103E04019417010E035
:1013A0003221600020182954401947708670641C4F
:1013B000E4B2102CD3D345E7600020182F54401915
:1013C00046708770F3E7600020182F549621E4E7F9
:1013D00010290BD2480009185848425C2A70081896
:1013E000417869708078A870012175E01039042077
:1013F00003220B0005F022F80D091622333E497C2A
:1014000087A4B1EBFBF908001CE72F7032206E7047
:101410006421A870E970C8232B716F71AE71E871F7
:10142000297224E02F706E70AF70EE702F716F71A3
:101430006421A971C821E9712F72E1E032212E7077
:101440006970AF70EE7096222A716F71AE71E9719A
:101450002F726E72AF72EE7237490870F2E6962004
:1014600028706E70AE70EF702E716E7147E032486A
:101470000270E7E62E706F70AF70EF702E716F71B3
:10148000C820A871EE712872F1E707212046FEF707
:1014900039FE00290CD0012912D0022908D00329D5
:1014A0001DD004290CD0052902D0062908D00EE051
:1014B000600020182E54322140194170642105E04B
:1014C000600020182E544019477032218170641C2E
:1014D000E4B2102CD9D3072117480170B2E660009E
:1014E000642120182954C821401941708770EEE703
:1014F0002E706F70AF70C820E8702E716871AF7178
:10150000EF712E72B3E72F706E703220A870EE70FC
:1015100028716F71AE71EF712F7264206872C820EC
:10152000A872EF7296202E736873AF730521D3E70C
:101530002A000020990000202E000020886800006A
:101540002F706E70AF70EF702E7132206871642052
:10155000A871C820E8712F7289E709212046FEF79B
:10156000D1FD002910D0012913D002292AD0032946
:1015700014D004290DD005291DD0062909D007292A
:1015800020D008290AD010E0600020182E54322103
:1015900001E0642103E04019417011E03221600054
:1015A00020182954401947708670641CE4B2102C2E
:1015B000D3D3092050E7600020182F5440194670FB
:1015C0008770F2E7600020182F549621E3E72E7011
:1015D0006F70AF70EE70322129716F71AE7196210C
:1015E000E9712F726E72AE720DE00EE0FFE72F70A0
:1015F0006F70AE70EF702E716F71AF71EE712E72F1
:101600006E723221A972EF7226E7084861006118F4
:10161000425C6A540A18491953784B70641C9278DA
:10162000E4B28A700C2CF1D30C2015E78868000016
:10163000F0B52D482D4A84790123002C05D0467938
:10164000851E0021012E0BD016E028482038016AA3
:10165000890104D5016A8402A14301629360F0BD4F
:10166000417141708170C170017129801668012734
:10167000BF073E43166093609668F607F60FEED0FC
:1016800093602A881A4E521C92B22A80B24201D329
:101690002980F0BD8278521CD2B282703C2A0ED3CF
:1016A0008170C278521CD2B2C2703C2A07D3C1707A
:1016B0000279521CD2B20271182A00D30171427809
:1016C000002AE6D18278002AE3D1C278002AE0D14C
:1016D0000279002A05D0A242DBD102220270C17138
:1016E000F0BD0370C371F0BD540000202000014024
:1016F000983A000030B5154A154800211368435444
:1017000093695B0403D4491CC9B21029F6D302249F
:101710000125104B022906D0072910D05C70906873
:101720002043906030BD0178FD2906D14178F02931
:1017300003D1807807E05D7030BD5C7030BD01780A
:10174000FD29FAD1C079FE28F7D1F4E70000054061
:10175000890000200300002030B5124A0020547890
:10176000002C1DD00021104B012C07D0022C17D1CA
:101770001954401CC0B21028FAD310E00124147090
:10178000084C0B341D186D782554401CC0B2062837
:10179000F8D300201954401CC0B21028FAD351705D
:1017A00030BD0000030000208900002010B5204A51
:1017B00000201478002C13D01E49012C11D00023D6
:1017C000032C22D0022C0BD1FD240C601418647859
:1017D0000C60401CC0B20828F8D3FE2008601370CB
:1017E00010BDFC230B604C230B6041230B6037239F
:1017F0000B60114C235C0B60401CC0B20428F9D371
:10180000FE2008600220107010BD1370FA220A60DA
:101810000B600B600F220A60074B1B1D1A5C0A60ED
:10182000401CC0B20528F9D3FE20086010BD00009E
:1018300080000020000005400500002010B500F0E9
:1018400081FE0D490B78002B0ED0002201240B489D
:10185000012B02D0022B04D006E00A7041780170FF
:1018600001E00A700270C47001F0AAF804F0FEFBF7
:10187000FFF7E6F810BD0000540000202A00002009
:10188000F0B5284B284DD8780024012805D02878B9
:10189000032819D2401C2870F0BD2448DC70047065
:1018A000234E244F002234703C7011461046FEF740
:1018B000B5FC21482C7004701C48FF210170347065
:1018C0001E483C700480F0BD002028701C4C1D2078
:1018D0001C492070C5B268002E1870180246203AC4
:1018E000977F4770577F8F55D27F82706D1E280675
:1018F000000E2070EED10D48007848700C4800783A
:1019000008700C48007888700C480188491C89B21E
:1019100001801E29D7D90021018058781870012034
:10192000D870F0BD2A0000203A00002032000020CC
:101930003300002034000020FB0000204C00002079
:1019400030000020C30100200A492222CA604860FA
:10195000012008610869C007FCD10868400606D567
:1019600008684022104308600020C04370470020F0
:101970007047000000C00050024801680122114376
:101980000160704700C0005005490022CA604860ED
:10199000012008610869C007FCD188687047000011
:1019A00000C00050054A2123D3605060916001209F
:1019B00010611069C007FCD17047000000C00050E2
:1019C00010B50124240501F0ADFCFFF7D5FF224935
:1019D00008682022104308602046FFF7D5FF1F4CFF
:1019E00060701F48FFF7D0FFA0701D48001DFFF773
:1019F000CBFF1C4988711A480830FFF7C5FF1A4908
:101A0000087017480C30FFF7BFFF1849C0B20880B4
:101A100013481030FFF7B8FF1549C0B208801048CE
:101A20001430FFF7B1FF134908700D481830FFF765
:101A3000ABFF114908700A481C30FFF7A5FF0F499A
:101A4000087007482030FFF79FFF0D4908700D49C7
:101A50000020086010BD000000C000502A000020D7
:101A60000400100054000020500000204600002018
:101A7000480000201C0000201A0000201B0000204D
:101A80001E0000200001005070B527480124017895
:101A90002405012947D10025057001F043FCFFF71B
:101AA0006BFF224801682022114301602046FFF7A6
:101AB0004BFF1F4E20467178FFF774FF201DB17851
:101AC000FFF770FF1C491B488979FFF76BFF194826
:101AD0001A49001D0978FFF765FF164818490830B4
:101AE0000988FFF75FFF134816490C300988FFF794
:101AF00059FF1048144910300978FFF753FF0D487B
:101B0000124914300978FFF74DFF0A481049183080
:101B10000978FFF747FF07480E491C300978FFF79F
:101B200041FF0D48056070BD4F00002000C000500F
:101B30002A0000200800100054000020500000205F
:101B400046000020480000201D0000201A00002050
:101B50001B0000201E00002000010050F0B5FE48D0
:101B6000FE4FC178FF48FE4C00888BB0012909D098
:101B700000286CD0FC490A78082A7DD2521C0A70D1
:101B80000BB0F0BD0025F4490028CD7004D0F74813
:101B90000078002828D02CE0002211461046FEF7DD
:101BA0003DFBF348F34CF44E05702088411C218026
:101BB000FEF7C7FA208811302080FEF7B9FAC0B2CC
:101BC0001E21FEF79FFAEA4A10783154EB493D5442
:101BD0000D54401CC0B210701E28E6D3E2483221DA
:101BE0000170E74805702FE0002211461046FEF70D
:101BF00015FBDD483D700570E24832210580E24862
:101C00000580E2480570E2480570E24825700570DD
:101C1000E148E34C0570E14805702078FEF772FA60
:101C200081004118DF48017060783221FEF76AFABE
:101C300081004018DC490870A0783221FEF762FA72
:101C400081004018D9490870C848057098E7C84D08
:101C500000202870D648017828780446FEF752FA0A
:101C6000CE48CF4E017048000F18F05D3221009031
:101C7000FEF748FACB4900E0C4E00870BE190590B1
:101C8000707832210490FEF73DFAC749087007903A
:101C9000B07832210390FEF735FAC449AF4E087090
:101CA0000746305D002817D0012856D00228B348D7
:101CB000015D5ED0491CC9B2AF4A0155125D914227
:101CC00047D9002101556000BA4A21188818437885
:101CD0009C46002B6FD168E0A848A74A015D491CCB
:101CE000C9B20155125D914233D900210155052138
:101CF0000098FEF707FA024660002118AD480891E7
:101D00000818029040780090824211D8052104986A
:101D1000FEF7F8F90246A7480899405C824207D8C6
:101D200005210398FEF7EEF902998978884211D9C6
:101D3000059A00999F488918029A51700899425C47
:101D400007995118089A8154029802998078C0190D
:101D500088704FE0012030554CE060002118954814
:101D6000009B0A185370049B435403989070022000
:101D7000F1E7491CC9B27C4A01551278914239D920
:101D800000210155032030557A4C2088FEF7D9F9FF
:101D9000208811302080FEF7CBF9C0B20A21FEF76F
:101DA000B1F975482A78815424E0535C002B02D1A4
:101DB0008378002B0BD0059C63461B1B4370545C3F
:101DC000079BE31A53548178C91B817012E00027E6
:101DD0003755684C2088FEF7B4F9208811302080F0
:101DE000FEF7A6F9C0B21E21FEF78CF9624A2878E8
:101DF000115437542878401CC0B228701E2800D2D5
:101E000028E7BDE600220A706B49564B09880A0193
:101E1000561A1E21484308905A491D8809881E23D6
:101E20004A1C6D1E5D4392B2864201D3331A02E012
:101E3000B54205DBAB1B53488B4201DD02809FE6B8
:101E40004648544907785748544B0078002F844639
:101E50005548007806905548007805900A78404823
:101E60004D49007809781B7802D0012F64D11BE01E
:101E70005F00DB194A4FFF5C874207D8484FDF19E4
:101E80007B78934202D8BB788B420AD96044207099
:101E9000069B4048D2180270059A3F488918017085
:101EA0004AE02E49012046E0074617430F430BD076
:101EB0006346C01A2070069B3648D21A02700598F5
:101EC000354A081A107037E02448002101705B1C65
:101ED0003248DAB2364B02701B789A420DD32B4A45
:101EE000017013785B1CDBB21370052B05D91170E0
:101EF000194A0121D170264A11700178284F4800F3
:101F000008180290385C3221FEF7FCF88100401876
:101F10002449087002983221C7197878FEF7F2F840
:101F20008100401820490870B8783221FEF7EAF89D
:101F3000810040181D490870089886424FD30C480C
:101F400000211C4A0170CBB259005D18A9180E7906
:101F50004E70CE78565531E02A000020FB0000205C
:101F600032000020460000203A0000204E000020F1
:101F700030000020280000202D010020C900002092
:101F8000310000204A0000204C0000203E000020CC
:101F90001900002033000020340000203900002008
:101FA0009900002036000020370000203800002073
:101FB0002E000020C3010020480000204D798D70C4
:101FC0005B1CD9B201701D29BDD32E482178017642
:101FD0002D490978C1752D4909784176D0E51D272D
:101FE000B5421DDB2A4B27481F7040381D78690019
:101FF0006E1831180A46203A977F4F70577F8755E1
:10200000D27F8A706D1E2906090E1970EED12178D3
:1020100041701D49097801701C4909788170AFE54C
:102020001B48002101701749403903785A009D1858
:102030006A1816795670D6784E55557995705B1C8E
:10204000DAB202700E2AF0D3077005786A00AE1873
:1020500072181346203B9F7F57705F7F8F55DB7F41
:1020600093706D1EEAB202700E2AEED805482178F0
:102070002038C172044909788172044909780173D2
:102080007EE5000003020020330000203400002021
:1020900030000020F0B500230125944603272A468E
:1020A0009A400A4209D006685C003A46A24096432C
:1020B000224664469440264306605B1C082BEED300
:1020C000F0BD0000F0B51848184BC778184A194DF4
:1020D0000024194E1949012F05D02F78082F0ED250
:1020E0007F1C2F70F0BDC4701C700C701470002227
:1020F00011461046FEF792F82C703470F0BD2C702B
:102100003578EF0700D1FF240C706D1CECB23470F1
:10211000052C03D9447804700124C470127809781E
:102120001878FEF77BF8F0BD2A000020320000206E
:10213000340000203A000020FB0000203300002083
:10214000044603A004F06AF9204604F049FBFEE7C8
:10215000496E2048617264204661756C7420486144
:102160006E646C65720A00000F2801D90007000F29
:102170000A2801D2303000E03730C0B2704700008A
:10218000F0B53B4B3B4DD8783B4E0024012805D0A1
:10219000287803281BD2401C2870F0BD3748DC701B
:1021A0000470374F37483C700022047011461046C7
:1021B000FEF734F834482C700470344834800480BE
:1021C0002E49FF2008702F483C700470F0BD00209D
:1021D00028702F480088401E81B21E20414330885D
:1021E000814202D9401C3080F0BD2A4C1D202A4972
:1021F0002070C5B268002E1870180246203A977FEA
:102200004770577F8F55D27F82706D1E2806000E53
:102210002070EED1194A1A4C107848702078194D68
:1022200008702878887019491C4E08881E27401CA1
:1022300080B2088036887E438642D5D2002008804E
:10224000114901260F78002F05D0012F09D05878A9
:102250001870DE70F0BD1070FF22227028700E70B2
:10226000F0BD10702070FF20287002200870F0BDB3
:102270002A0000203A0000204A00002032000020FE
:102280003300002034000020FB0000204C00002020
:102290004600002030000020C3010020480000203C
:1022A000F8B59448954DC17893480026944C954FC5
:1022B000012905D00178082942D2491C0170F8BDD6
:1022C0008C49CE7090490E70067090480670904808
:1022D00006709048067090480670267020783E542C
:1022E000401CC0B220701E28F8D38C480178002909
:1022F00018D006708A4C32212078FDF703FF8949F7
:10230000087060783221FDF7FDFE87490870A078DB
:102310003221FDF7F7FE854908708548067085482B
:102320000670F8BD267020784100421851194E7091
:10233000401CAE54C0B28E7020701E28F3D3D9E773
:1023400006707D48027874480178481CC0B2012AA2
:102350002CD01E2974D279490888113080B20880A7
:10236000FDF7EFFEFDF7E4FEC0B21E21FDF7CAFE49
:1023700073480170785C0128EDD071480121007824
:102380003954634943000A78C01851005118644A0F
:102390004319525C5A70624A89184A782A548878DC
:1023A00098705D480178491C01707EE0564A1278A9
:1023B000002A03D06878002849D142E01E292AD299
:1023C0005E490888113080B20880FDF7BAFEFDF73B
:1023D000AFFEC0B21E21FDF795FE59480170785C32
:1023E0000128EDD05648012100783954484943006E
:1023F0000978C0184A008918494A4319525C5A7032
:10240000474A89184A782A5488789870424801784F
:10241000491C017001E0404908703F4801783229A9
:1024200000D27EE7067038480178491C017026709A
:1024300020783E54401CC0B220701E28F8D3F8BD4E
:1024400031E02878002802D1A87800281BD0267017
:102450003648344A3449007813780E788446227816
:102460005000111848194778521CFF1A47706F5CCA
:10247000BF1B6F5481786746C91B8170D0B2207032
:102480001E28ECD3DBE7204806702A480178491C57
:10249000C9B201700A29D2D90670254901200870F5
:1024A0001449C870CBE71C4908701B4801783229D1
:1024B000C5D306701648204A0178491CC9B201707C
:1024C000127891420DD306701A480178491CC9B29E
:1024D0000170052905D9067006490120C870144904
:1024E0000870267020783E54401CC0B220701E2810
:1024F000F8D3A4E72A0000203A000020C3010020FE
:102500002F00002091010020FB000020310000205E
:10251000390000202D0100203F0000204E00002047
:1025200099000020360000203700002038000020ED
:10253000190000203E0000202E000020280000206E
:102540003000002070B51E491E4C0A7826780125FF
:102550000020012A07D0022A04D10870002E01D0E1
:102560002070E57070BD0870164A0B215278164B2A
:10257000002E10D01D70A678761CF6B2A670062E1E
:102580000AD9521CD2B2A070627022700D2A03D9EF
:102590006170207010E0227060780B2806D00C2843
:1025A00004D00D2802D0617021701D70A07806281B
:1025B00002D90620A0701D70A078FEF7C1FDD0E7FB
:1025C000020000202A0000204F0000200E48436B2C
:1025D0000E4801220178002B02D000290CD00FE018
:1025E000002908D14178491CC9B24170462902D955
:1025F00002700221817070474178012900D98270F0
:10260000002141700170704700420050000000201E
:1026100010B53148018811310180811C08780928E2
:102620003BD008DC030003F009FF091D2023262905
:102630002C2F32351A00FB283ED008DC0A282FD078
:102640000B2830D00C2831D00D2808D131E0FC28DF
:102650003BD0FD2833D0FE283AD0FF2832D00A20C4
:10266000087010BDFDF7EAFD10BD03F0CBFC10BDF6
:10267000FDF7A4FE10BD03F0E3FB10BDFFF710FE55
:1026800010BD00F06BFE10BD00F06CFC10BD00F042
:102690007DFB10BDFFF762FA10BD00F0B3F910BD6D
:1026A000FEF7DCFB10BD00F05FFF10BD01F040FC49
:1026B00010BD02F0A7FB10BDFDF768FF10BDFFF7CE
:1026C00001FD10BD00F024FB10BDFFF7D9F810BDCF
:1026D000FFF756FD10BD000028000020F0B581482E
:1026E0000021047801238048002C3AD01E214A00A2
:1026F0008C187E4A0025A418E41E22785608002271
:10270000641CF70903617DD000BF00BF00BF00BF9C
:1027100000BF00BF00BF00BF00BF00BF00BF00BFC1
:1027200000BF00BF00BF00BF00BF00BF00BF00BFB1
:1027300000BF00BF00BF00BF00BF00BF00BF00BFA1
:1027400000BF00BF00BF00BF00BF00BF00BF00BF91
:1027500000BF00BF00BF00BF00BF00BF0027076170
:102760009BE000224B00CC18604BE6180024337825
:102770005D080023761CEF092DD00127076100BFFB
:1027800000BF00BF00BF00BF00BF00BF00BF00BF51
:1027900000BF00BF00BF00BF00BF00BF00BF00BF41
:1027A00000BF00BF00BF00BF00BF00BF00BF00BF31
:1027B00000BF00BF00BF00BF00BF00BF00BF00BF21
:1027C00000BF00BF00BF00BF00BF00BF00BF00BF11
:1027D00000BF026122E00127076100BF00BF00BF08
:1027E00000BF00BF00BF026100BF00BF00BF00BF4D
:1027F00000BF00BF00BF00BF00BF00BF00BF00BFE1
:1028000000BF00E029E000BF00BF00BF00BF00BF65
:1028100000BF00BF00BF00BF00BF00BF00BF00BFC0
:1028200000BF00BF00BF00BF00BF00BF00BF00BFB0
:1028300000BF00BF00BF00BF00BF00BF6D065B1C34
:102840002D0EDBB2082B96D3641CE4B2032C8ED37E
:10285000491C89B21E2985D340E000BF00BF00BFDC
:1028600000BF00BF00BF0027076100BF00BF00BF5F
:1028700000BF00BF00BF00BF00BF00BF00BF00BF60
:1028800000BF00BF00BF00BF00BF00BF00BF00BF50
:1028900000BF00BF00BF00BF00BF00BF00BF00BF40
:1028A00000BF00BF00BF00BF00BF00BF00BF00BF30
:1028B00000BF00BF00BF00BF00BF7606521C360E2F
:1028C000D2B2082A00D21CE76D1CEDB2032D00D253
:1028D00013E7491E0904090C00D008E70021016133
:1028E000F0BD00005000002040420050C301002015
:1028F00070B5FDF7D3FF00F023FD0321274809023F
:1029000001600168022211430160012444600168F2
:10291000802211430160224800250560214E0322D8
:1029200080213046FFF7B6FB1E48032220214030AD
:10293000FFF7B0FB012240213046FFF7ABFB1948FF
:10294000012210218030FFF7A5FB174805611648CA
:1029500040388461154C1E21204603F0A1FC6068BC
:102960001021084360600802114908604B21C90129
:10297000204603F053FCB40032227103204603F0DA
:1029800021FC2168A003014321600A4921620A4910
:1029900061620A490A6802430A6070BD0040004053
:1029A000000100500040005040420050000005402F
:1029B00000E100E0FF0000081BB70000200001401C
:1029C0000E480021027A002A0BD0827B521CD2B220
:1029D0008273FA2A05D381730172094B4172012275
:1029E0001A70C27B002A07D00278521CD2B2027041
:1029F000FA2A00D3C1737047017070471400002099
:102A00004F000020F0B5B348B34AC378B349B44887
:102A100000248AB0012B06D01378052B24D25B1C2E
:102A200013700AB0F0BDAB4BAE4DDC702B785B1C65
:102A30002B70AD4BFF251C70AC4B1D7004700C70DF
:102A4000AB4814700480AB48AD4D0480AA480470B4
:102A5000AA4804702878002804D1002211461046A4
:102A6000FDF7DCFB2C70DCE700231370A54A13880C
:102A7000A14A1278521CD2B204929B4A002B1678BB
:102A8000964A1578994A1478954A12780BD01E27E1
:102A90005B1E7B439FB2964B1B889F427ED9944816
:102AA0005B1C0380BDE78E4B8F4F1B7806935B1C2E
:102AB000DBB207938D4B1B789E465B1EDBB20993FE
:102AC000864B1B789C465B1CDBB20893069B5B1E07
:102AD000DBB2069373465B1CDBB2039363465B1E5B
:102AE000DBB20593330003F0A9FC0B070D141A2188
:102AF000293034393D414700FF2A01D2079A11E0BD
:102B0000012237E0794A002C01D0099B12E0022211
:102B100030E0FF2D01D2089A13E003222AE0002AB8
:102B200002D0069A027036E0042223E06F4AFF2C9E
:102B300002D2039B13702EE005221BE0002D02D071
:102B4000059A0A7027E0062214E0FF2DE3D307223E
:102B500010E0664A002CD8D108220BE0FF2ACDD322
:102B6000092207E0002DEBD10A2203E05F4AFF2C87
:102B7000DFD30B223A700EE0002AD2D100243C7041
:102B80005D4B049A1A70052A05D91C70514B01221D
:102B9000DA705A4B1A700A78017800E004E0534862
:102BA0000078FDF73BFB3CE74D4B4F4F1B780693FE
:102BB0000F33DBB209934D4B1B789E460F3BDBB2C4
:102BC0000893464B1B789C460F33DBB20793069B5A
:102BD0000F3BDBB2069373460F33DBB205936346BC
:102BE0000F3BDBB20393330003F028FC0B070D14FB
:102BF0001A21293034393D414700FF2A01D2099A70
:102C000011E0012237E0394A002C01D0089B12E084
:102C1000022230E0FF2D01D2079A13E003222AE0BE
:102C2000002A02D0069A027035E0042223E02F4ADF
:102C3000FF2C02D2059B13702DE005221BE0002D16
:102C400002D0039A0A7026E0062214E0FF2DE3D397
:102C5000072210E0254A002CD8D108220BE0FF2AD9
:102C6000CDD3092207E0002DEBD10A2203E01F4A51
:102C7000FF2CDFD30B223A700DE0002AD2D13A703C
:102C80001D4B049C1C70052C05D91A70114B012298
:102C9000DA701A4B1A701C4A1D2313701B4B1A4A08
:102CA00015786A00AE18F2181446203CA77F5770BA
:102CB000677F9F55E47F94706D1E2A06124C120E9A
:102CC0002270ECD1094A12785A700078187008788E
:102CD0009870A6E62A0000203A0000203400002068
:102CE00033000020C9000020FB000020320000203B
:102CF0004A0000204C0000203E0000201900002067
:102D00004E0000204600002030000020C3010020BB
:102D1000F0B518481849C778184A194D0024194EBB
:102D2000194B012F05D02F78082F0ED27F1C2F7042
:102D3000F0BDC4701C700C70147000221146104657
:102D4000FDF76CFA2C703470F0BD2C703578EF07FD
:102D500000D1FF241C706D1CECB23470052C03D91B
:102D6000447804700124C470127809781878FDF74B
:102D700055FAF0BD2A000020330000203400002066
:102D80003A000020FB00002032000020F8B5604A25
:102D9000604ED1786048614C0025012906D0604919
:102DA0000B78082B41D25B1C0B70F8BD5D49D570C8
:102DB0005D4B5E4F0D700878574A1D5415545C4AA0
:102DC0003D541554401CC0B208701E28F3D354481B
:102DD000322105705748257005703078FDF792F95B
:102DE0005549087070783221FDF78CF95349087005
:102DF000B0783221FDF786F95149524C087020789D
:102E0000002804D1002211461046FDF707FA4E486B
:102E10000088002807D04D4805804D4805804D4862
:102E200005704D4805702570F8BD0D70464909883C
:102E300000290AD01E23491E5943444B8FB21988DA
:102E40008F4202D9491C1980F8BD34490378012703
:102E50000978002B02D0012B37D105E0322901D2AD
:102E6000491D04E0077030E0052902D9491F21708F
:102E70002BE005702F48394B0178491CC9B201700D
:102E80001B7899420BD3334B05701978491CC9B292
:102E90001970052903D91D70D7702F4A1770007853
:102EA00041004518705D3221FDF72CF92249AD191A
:102EB000087068783221FDF725F920490870A87854
:102EC0003221FDF71FF91E490870164B1D202449B9
:102ED0001870C5B268002E1870180246203A977F05
:102EE0004770577F8F55D27F82706D1E2806000E67
:102EF0001870EED110480278207842434A700F4A89
:102F0000127842430A700E4A127842438A70F8BD22
:102F10002A00002099000020FB000020350000203E
:102F20003A00002030000020C90000202D010020C0
:102F30005F0100203900002036000020370000200B
:102F4000380000204E000020460000204A000020EB
:102F50004C0000203E000020190000202E00002020
:102F6000C3010020FEB5D948DA4FC178D8480129FD
:102F70000688D9480478D94880780090D7484078A6
:102F80000290D64800780CD0D5490A78511CCBB2B3
:102F9000D449002E0D78D2497ED0062A7DD20B70FE
:102FA000FEBDCA4A0021D1703221FDF7ABF8CE49EF
:102FB0000870019032210298FDF7A4F8CB490870FF
:102FC000029032210098FDF79DF8C949002E087043
:102FD000009011D0C74900200870C749CB4E088027
:102FE000C6490880C6494870C6490870C649087075
:102FF0003178002932D046E0C54D002028703E4689
:10300000C0B221460746FDF77DF8BA48012C017091
:1030100001D1F80713D048000918B048435C780084
:10302000381882195370AD4BC9184B7833548878CF
:1030300090707F1CF8B228701E28E1D324E001981C
:103040000A214843790079188B19587002980A228E
:1030500050437054009850439870EAE7AC493A46A0
:1030600008700B785C001C19A51868705B1C105563
:10307000DBB2A8700B701E2BF3D3A6490870A649CB
:103080000870A6490870307095490020087095496D
:1030900008704870887001E004E056E099490870B3
:1030A0009A49C0E0282A00D279E700220A70012C50
:1030B00029D0884897494030027E0A709649C27DDF
:1030C0000A70417E95480170914B1D20187038465A
:1030D0001C78610065182A18114620398E7F5670B9
:1030E0004E7F4655C97F9170641E2106090E1970E6
:1030F000EED188490978417087490978017087497C
:103100000978B970FEBD7749002D09D0814B187040
:10311000814B029818708148009B03700A70D3E7B6
:1031200071481422007850437A4A10706F48142274
:1031300000785043784A10706D481422007850434C
:10314000764A107001200870BEE700220A701E2126
:10315000761E4E436849B3B20A88934202D9521C84
:103160000A80FEBD6A491D220A703A4668490978FC
:103170004B00CE188C46B318194620398F7F5F70EC
:103180004F7F9755C97F99706146491E0906604B6C
:10319000090E1970EAD15F4B604E197851705E4983
:1031A000097811703178917056490A784D49521C4E
:1031B0004978D2B2491CC9B29446012C35D04D4849
:1031C00002785700501CD719444AC0B2BA18002DD3
:1031D00055D0012DC5D1414D0629ED5D1D704E4BD9
:1031E00055781D70927832703E4A5170B9D90021DD
:1031F000404B51701870A042B3D341481970047805
:10320000641CE4B20470032CABD901701170907887
:1032100018703C4862460270052AA2D901702B49F9
:103220000120C87038490870FEBD2E4A002D05D017
:10323000002039491870087030701EE01870364B45
:1032400002981870009830702D4851704378994258
:10325000EAD900215B1CDBB2517043701C2B0BD9E7
:103260004170284863460370052B05D90170174942
:103270000120C8702449087001201070FEBD174D50
:10328000ED5D1D70244B55781D7092781B4B32708C
:103290001A88234D521C92B21A802D881E2675431F
:1032A0009542EBD200221A80124BA042187000D334
:1032B0001A700C4802294170E0D942701978817067
:1032C000012101700E4802701A70FEBD2A00002014
:1032D00046000020C30100202E000020990000209D
:1032E0003A000020FB0000203600002037000020BC
:1032F00038000020390000204A0000204C00002047
:103300002D0100203E000020190000204E0000206A
:103310003000002032000020330000203400002064
:103320004800002010B55921044816228823016066
:10333000026003600468002CF9D010BD0001005049
:1033400010B55921044816228823016002600360E9
:103350000468002CF9D010BD00010050F8B5674892
:10336000674EC078674F0024012805D030780528C3
:103370003BD2401C3070F8BD60486449C47062485C
:10338000047002785300D5186B185C70521C4C55B1
:10339000D2B29C7002701E2AF3D35D48624D047055
:1033A0005C483C7004705C48347004705B483221A7
:1033B00004705B4804705B4804702878FCF7A2FE38
:1033C0005A49087068783221FCF79CFE5849087009
:1033D000A8783221FCF796FE5649087056480470CA
:1033E0005648047056480470F8BD002030704548B7
:1033F0004B4904784D480A7806784D484949077882
:103400004C48444B05784548097800781B78002CD7
:1034100004D0012C1FD0022C67D128E05C001C19BD
:10342000414B1B5D834207D83F4BE3185C789442C5
:1034300002D89B788B4208D9384B801918703848CD
:10344000D2190270374849191DE02E480121017038
:103450000021314817E030480178491CC9B2017099
:10346000322942D300210170264802210BE0044694
:1034700014430C4309D0294B801B18702848D21BD9
:1034800002702848491B01702FE01E48002101707E
:103490005B1C2048DAB22B4B02701B789A420DD38A
:1034A000264A017013785B1CDBB21370052B05D91B
:1034B0001170124A0121D1701F4A117000781A4C04
:1034C00041004518605D3221FCF71CFE17492C199C
:1034D000087060783221FCF715FE15490870A07855
:1034E0003221FCF70FFE134908700E4802780C4891
:1034F00001780A480078FCF791FEF8BD2A00002008
:103500003A000020FB00002030000020C301002012
:10351000C9000020390000202D01002032000020C9
:1035200033000020340000209900002036000020E5
:103530003700002038000020190000203E00002045
:103540004E0000202E00002006498A691202FCD499
:1035500008600A2804D188690002FCD40D200860A4
:103560007047000000000540F8B5254E0021F078B6
:10357000244F254B254C012813D02088244D401C76
:1035800082B201202280012A15D01446FF3CCD3C96
:1035900005D005246402A24210D102210BE018706C
:1035A0000AE0F1702180197000223970114610462E
:1035B000FCF734FEF8BD197028700BE0154CA242E0
:1035C00001D10321F7E7144D104CAA4202D121800A
:1035D000F07038701878002808D0012809D0022827
:1035E0000AD00328E6D100F011FBF8BD00F016F870
:1035F000F8BD00F0C1F8F8BD00F03EFAF8BD0000DB
:103600002A000020190000203C0000204200002079
:103610003D000020840D000094110000FEB54948D3
:10362000494D01780024494E012905D02878022807
:1036300017D2401C2870FEBD0022047011461046AF
:10364000FCF7ECFD42482C7004704248047042487C
:103650000470424804704248047042483470047058
:10366000FEBD00202870394801783C480078401C95
:10367000C4B23748002907783648067836480578B6
:103680003748007802D0012953D133E04100401877
:1036900035490090085C1921FCF734FD0146334898
:1036A000017001913049009840180290407819212A
:1036B000FCF728FD01462E4801700091029819215F
:1036C0008078FCF71FFD2B49214A087001992818C2
:1036D0007918117000991F4A711811701E49192C20
:1036E00008701E48047024D300210170174801217E
:1036F00001701EE01D4A16491278BA1A0A701C4A57
:1037000014491278B21A0A701A4A13491278AA1A7E
:103710000A701249192C0C700BD300220A700B4945
:10372000401C0A700E4AC0B21070022801D9022053
:103730000870094802780748017805480078FCF7C6
:103740006DFDFEBD3D0000203A0000204400002039
:103750003200002033000020340000202F00002021
:10376000390000203F000020990000203600002092
:103770003700002038000020F0B5AF48AF4C01788A
:1037800085B0012920D02778AD487A1C0078D5B2C1
:10379000401CAD4AC6B2AB48137800785A1CD2B26E
:1037A0000192AA4A411C127800925A009A18A84B1A
:1037B0000292D218C9B23B0002F040FE09205E9D81
:1037C000D99DD99DD9FDFC00002505702A462946C2
:1037D0002846FCF723FD9A489F4A05709D482570AE
:1037E000057001785554491CC9B201703229F8D3CB
:1037F0009A4805709348057005B0F0BD904A052EB3
:103800001670F9D300238F4D13701E282AD2924FC1
:10381000934E94490888113080B20880FCF791FCDF
:10382000FCF786FCC0B21E21FCF76CFC3170785CA2
:103830000128EED03078012139548108824A4600AF
:1038400011704A008A188249871987488B5C3E1894
:10385000737051184A78C2558878B0702878401C27
:10386000287000E0297028783228C5D320787B4959
:10387000401C2070002078E071480A2E0670BBD3EF
:10388000002101707848794A4030017E1170019121
:10389000774AC17D11700091407E76498446087058
:1038A0006F481D21017070486D490B7859005E18F2
:1038B00031180A46203A977F4F70577F8755D27F3D
:1038C0008A705B1E1906664A090E1170ECD10199C7
:1038D0004170009901706146817060480178491C0F
:1038E000C9B20170502987D3002101705548257055
:1038F0000170554875E0524B142E1E70B5D300264A
:103900001E70062821D2564B1E70554B06261B787A
:103910009C4673431B1803931E2B0FD24C4B029EE5
:103920009F5D039B5E009E194F4BF3189E465F7090
:103930004D4B57789F55967873469E706646761C19
:10394000474BF6B21E70052EDFD33E48017001468C
:103950000878082889D325703B48019A0270009B9B
:103960009A4201D3002202700020087044E7344BD1
:10397000142E1E70FAD30026062832481E700170DD
:1039800021D2374E002030703148029BC05C03903A
:10399000507802909078844630460278062353434C
:1039A0005B1A5F00DF19304B039EFB18DE74029E2A
:1039B0009E7401E03DE016E0521C6646D2B21E75D0
:1039C0000270052AE9D31F4801780829CED3257053
:1039D0001D49019A0A70009B9A4201D300220A7085
:1039E0000021017008E7164B0A2E1E70BED300227C
:1039F0001A70062815D21A4B1A701B4B184E3778BE
:103A00000626BC4677433E187700F619F7187A70F9
:103A10009A55BA7067467F1CFEB2114F052E3E7054
:103A2000ECD308480170017808299FD325700270F3
:103A3000E2E6FF202070DFE63D0000204400002089
:103A40003A0000203F000020390000202E00002016
:103A5000990000202F000020910100203B00002051
:103A60003000002028000020C30100203200002088
:103A70003300002034000020FEB55948594E01782B
:103A8000594C01293FD030460578204601950078F1
:103A90005649401CC3B256480278501CC0B28446F6
:103AA000087856009219554E009286465149524860
:103AB0009219052D237036D3082B23D300232370AE
:103AC0001D230B70DDB26B00EE1833181C46203C32
:103AD000A77F5F70677F8755E47F9C706D1E2B0604
:103AE0001B0E0B70EED1454B009C41491B5D437092
:103AF000537803709278827060460870F44501D361
:103B000000200870FEBD002505702A46294628467B
:103B1000FCF784FB3A482570057035480570394834
:103B200005703570FEBD082B46D3002323700E238D
:103B30000B70DDB22E4606235D432B181C46203C3D
:103B4000E77E5F70A77E4755247F9C70761E330604
:103B50001B0E0B70EDD1294B009C254E1B5D437055
:103B6000537803709378837000270C78062363439F
:103B70001B189D7A1D715D7ADD70DD7A5D71641CA4
:103B8000E3B20B700E2BF0D31B48D1784030017696
:103B90001179C175517941761A480178491CC9B229
:103BA0000170062908D3077072466046521E3946D6
:103BB0003070944500DB317013480178491CC9B25C
:103BC00001706429AED3002101700198054A401CA0
:103BD000C0B210700528A5D30A480170FEBD0000D0
:103BE0003D0000203B0000203A0000202E00002075
:103BF0003900002030000020C3010020990000207F
:103C0000440000203F00002040000020FEB5B548E1
:103C1000B54D0178002401291AD0B448B54903787C
:103C2000B348B54AB54E2F780078097812783678BF
:103C30000296B34E5B1C36780196B24E36780096EB
:103C4000DEB23B0002F0FAFB052A6FADCAF96E0046
:103C50000022047011461046FCF7E0FAA34819212F
:103C60000470A9480470A94804702C70A84D2878E5
:103C7000FCF748FA9E49087068781921FCF742FA67
:103C80009C490870A8781921FCF73CFA9A490870F9
:103C90009A4804709A4804709A48CBE0934B082ED7
:103CA0001E703FD31C70029E944B3018C0B2187027
:103CB000019E934B7118C9B21970009F914BBA18AD
:103CC000D2B28D4E1A70FCF7A9FA8F480178491CC0
:103CD000C9B201700A2925D9047028788E4A401C7F
:103CE00028708C48047089480178491CC9B2017059
:103CF0001278914200D304700078854C4100451839
:103D0000605D1921FCF7FEF979492C19087060787B
:103D10001921FCF7F7F977490870A0781921FCF709
:103D2000F1F93070FEBD0301181A744BC0B218705F
:103D30000B01591A724BC9B2197013019A1A714BBF
:103D4000D2B26C4E6C4F1A70FCF768FA7148017869
:103D5000491CC9B201702829E4D9047028786E4A38
:103D6000401C287069480178491CC9B2017012785A
:103D7000914200D304700078654C41004518605DA5
:103D80001921FCF7BFF95A492C19087060781921DC
:103D9000FCF7B8F93070A0781921FCF7B3F9387046
:103DA000FEBD5A48554A017848000B185849C85C6E
:103DB00010705A18524B51781970524B92781A70F1
:103DC000FCF72CFA53480178491CC9B201705029FC
:103DD000E6D904702878401C287080E0434B062EFA
:103DE0001E70DDD31C70029E444B301AC0B2187096
:103DF000019E434B711AC9B21970009E414BB21A11
:103E0000D2B21A70FCF70AFA3F480178491CC9B2CD
:103E100001700F29C4D904702978404A491C2970BF
:103E20003C490C7001785454491CC9B201703229C4
:103E3000F8D33B480470FEBDFFE72C48052E067002
:103E4000F9D30470364800781E2822D2354E364FFA
:103E50003088113080B23080FCF773F9FCF768F9D4
:103E6000C0B21E21FCF74EF92C483970405C012885
:103E7000EED02A49387801220A54410042182B49D1
:103E8000501844708C54847025480178491C017086
:103E900002E02349401C0870214800783228CAD328
:103EA00016482C7004701648194D0470154804709B
:103EB0001648007841004618A85D1921FCF722F940
:103EC0000B497519087068781921FCF71BF9094925
:103ED0000870A8781921FCF715F9074908700A48F5
:103EE000A8E700003D000020440000203A00002028
:103EF000360000203700002038000020320000206B
:103F000033000020340000202F0000203900002062
:103F100099000020400000202E0000209101002088
:103F20003F0000202800002030000020C3010020B6
:103F3000F8B5294F0024F878284D294A294B012843
:103F40000DD01888284E401C81B20120198001290B
:103F50000FD0CD23DB0099420DD110701AE0FC7018
:103F60001C801470002211461046FCF757F92C7083
:103F7000F8BD14700EE01D4B994201D1022108E0FA
:103F80001B4B994201D1032103E01A4B994203D103
:103F900004211170307006E0174E124BB14202D16D
:103FA0001C80F87028701078030002F047FA0505AD
:103FB000080B0E110400DBE700F088F9F8BD00F0F3
:103FC0001DF8F8BD00F0A6FAF8BD00F057FCF8BDEA
:103FD00000F07CFEF8BD00002A000020190000203F
:103FE0003C000020420000203D000020520D000057
:103FF0006E0F000092130000581B0000F8B59F4898
:104000009F4C01789F4E00279F4D012947D0207873
:10401000401CC0B22070052840D39C48277002780D
:10402000284601789A4C481CC0B2002A4ED0012A7A
:104030007ED01E292BD2974F3888113080B238801D
:10404000FCF77FF8FCF774F8C0B21E21FCF75AF8B1
:1040500091482170405C0128EED08F4924780120DE
:1040600008558E4801782046FCF74CF848000B189C
:10407000317061008A4862188A49C65C54186670BB
:10408000181843788B548078A0702878401C2870CA
:10409000C0B2322802D37D48FF210170F8BD002252
:1040A000077011461046FCF7B9F8032030707748C6
:1040B000277007707C48784A077001785754491C6C
:1040C000C9B201703229F8D32F70F8BD1E2927D24A
:1040D00070490888113080B20880FCF732F8FCF78C
:1040E00027F8C0B21E21FCF70DF86B482170405C28
:1040F0000128EDD0684A207801211154327851000E
:10410000521867498E5C4100411866480B185E7072
:10411000634E921956784654907898702878401CCF
:104120002870C0B23228D0D358480178491C00E02A
:1041300021E0017027705D4D5D4E5E4C5549088849
:10414000113080B20880FBF7FCFFFBF7F1FFC0B233
:104150001421FBF7D7FF4E4A10782954012121542E
:104160003754401CC0B210703228E7D35248077051
:1041700052480770F8BD00204E4F2070C0B2395C25
:1041800000290ED0012925D042008218454B00217C
:104190009446D21896465170624699547246917070
:1041A00035E031784A008A183D4994468B5C4100DD
:1041B0003C4A41188A1853709646394B6246D218C9
:1041C00094465378374A53546246917872469170B8
:1041D00001211CE03649354B0A5C521CD2B20A540C
:1041E0001B5C9A4214D900220A542A4908881130CB
:1041F00080B20880FBF7A5FFFBF79AFFC0B214213D
:10420000FBF780FF294A20781154395C491C395446
:104210002078401CC0B220701E28AFD326480178F9
:10422000491CC9B201703229A4D90024174F047067
:104230003C703078224B410042181949885C187054
:104240005218204B517819701F4B92781A70FBF757
:10425000E5FF3078401CC0B23070052801D902203B
:10426000387011480C4A047001785454491CC9B282
:1042700001703229F8D32C70F8BD00003D000020F9
:104280003A000020390000203F00002044000020B8
:104290003000002028000020910100202E00002086
:1042A00099000020C30100202F0000202D010020D4
:1042B000C9000020FB000020400000203B0000203F
:1042C000320000203300002034000020F0B5844884
:1042D0008449027887B0844F0978844C0091012A80
:1042E0005AD08348844902780B7882485B1CD9B243
:1042F00000788C46511C401CC9B2C0B20291002A01
:1043000072D07E490978491CC9B201917C490B7869
:104310005E00591C9E193B46F318012A754AC9B222
:1043200010707DD00A2835D3002010707548BA5D12
:104330000270039274485A78027002929A78734815
:104340009446027072481D22027003461D78680070
:104350002E1830190246203A977F4770577FA7558D
:10436000D27F82706D1E2806000E1870EED1039861
:104370006070029820706046A0706048019A0270D8
:104380000C2A07D9002202705D480170009B9942F7
:1043900000D3027007B0F0BD002101705C480170CD
:1043A0000646307800990546FBF7ACFE544801708C
:1043B00048000A1868002918BB5C08194370D21914
:1043C00053786354917881706D1CE8B230701E2868
:1043D000E7D34B49002008704649087044490870EB
:1043E00045490870D6E7FFE7424914280870D1D341
:1043F00000220A7043486178017000914248217898
:1044000001704248A378037041480F460270027859
:104410005100551829190E794E70CE78665500E076
:104420001AE04D798D70521CD1B201701E29EED365
:104430002E48009940300176C77543762E48614674
:1044400001701429A6D3002101702948029A027034
:104450002B480170294840E00A289BD300201070A7
:104460002848BA5D0270059227485A780270049273
:1044700026489A780270264803921D22027003464D
:104480001D7868002E1830190246203A977F477031
:10449000577FA755D27F82706D1E2806000E1870B8
:1044A000EED105986070049820700398A0701348AE
:1044B000019A0270052A07D9002202701048017083
:1044C000009B994200D302700B4861460170642939
:1044D00088D3002101700648029901705AE7000054
:1044E0003D0000202E00002099000020C301002084
:1044F000440000203A000020400000203F0000203F
:104500003900002032000020330000203400002059
:1045100030000020F0B5CB4ACB49107889B0012893
:104520001ED00846CA4902780978C848491CCDB24D
:10453000C84900780B780090501CC0B20390580016
:104540001F18C548591C3E18CCB2002A15D0012AA4
:1045500041D0022A5ED0032A7ED00521BA4838E035
:1045600000201070BB4A1070BC4A10700870B84927
:104570000870BB49087009B0F0BDBA48002101704D
:10458000B848032100780690FBF7BCFD00290BD149
:10459000B148C35D069841004118B3480A185370EA
:1045A00073784354B07890700698AE49401CC0B2FE
:1045B00008701E28E4D3A648142D0570DBD3002113
:1045C0000170A4480470009A944200D301709E4880
:1045D00003990170CFE7A34800210170A14803218E
:1045E00000780690FBF78EFD01290BD19A48C35D38
:1045F0000698410041189C480A1853707378435438
:10460000B078907006999748491CC9B201701E296C
:10461000E4D3D0E793480021017092480321007849
:104620000690FBF76FFD02290BD18B48C35D0698FE
:10463000410041188C480A18537073784354B0787D
:10464000907006998748491CC9B201701E29E4D3AD
:104650007F48142D057000E00DE08CD3002101701F
:104660007C480470009A944200D301707648039A03
:1046700002707E48ADE779480178491CC9B20170E3
:104680000229A7D3002101707548774C0078617822
:10469000420008908018704A8518002905D12178B9
:1046A000002902D1A178002934D06B49085C192176
:1046B000FBF728FD6E490746087068781921FBF75B
:1046C00021FD6C4908700590A8781921FBF71AFDA7
:1046D0006949644E0870049000203070C0B2032114
:1046E0000390FBF70FFD00290ED1039841004118FC
:1046F00008194278D21B4270635C059A9A1A625478
:1047000082780499511A81700398401CC0B23070AD
:104710001E28E3D35548007803900F283CD3207916
:10472000002805D1E078002802D16079002833D034
:10473000E8781921FBF7E6FC4D49087007902879C5
:104740001921FBF7DFFC4B490746087068791921EE
:10475000FBF7D8FC4849434E0870059000203070A4
:10476000C0B203210490FBF7CDFC01290ED10498BF
:10477000079B4100421811194878C31A4B70A35C7B
:10478000DB1BA3548A780598101A88700498401C83
:10479000C0B230701E28E3D303981E283AD3E079C4
:1047A000002805D1A079002802D1207A002839D02C
:1047B000A8791921FBF7A6FC2D4908700290E87929
:1047C0001921FBF79FFC2B4906460870287A19210E
:1047D000FBF798FC2849234D0870069000202870AC
:1047E000C0B203210746FBF78DFC02290DD17800EA
:1047F000391808194378029A9A1A4270625C921B1F
:10480000625482780699511A81707F1CF8B2287020
:104810001E28E5D303981F2800D3ACE6134801787F
:10482000491CD6E6084900200870089B0C4ADB1C8E
:10483000DBB21370092B01D304220A700B490870F4
:10484000ECE700003D000020440000202E00002086
:104850004000002039000020990000203A0000208C
:10486000FB00002030000020C30100203F0000209A
:10487000360000203700002038000020F0B5FF4847
:10488000FF4D01780024FF4E8BB001292AD030461D
:104890000778FD48002F00780490FC4800780190CC
:1048A000FB4800780290FB480378FB480178FB48FE
:1048B00002783ED028460678701CC0B28446F14883
:1048C0000078401CC0B20590F548012F0078069092
:1048D0007ED0022F7DD0032F7CD0EA4904200870BF
:1048E0000BB0F0BD0022047011461046FBF796FC99
:1048F000EB4819210470EB4804703470EA482C70BE
:104900000470E1480470E1480470E1480470E74C29
:104910002078FBF7F7FBDF49087060781921FBF777
:10492000F1FBDD490870A0781921FBF7EBFBDB49AF
:10493000D5E70498D44EC018C0B23070019ED34B56
:104940007118C9B21970029ED14BB218D2B21A7046
:10495000FBF764FC2878401CC0B228701928BFD32C
:10496000C848D24E0178491C0170CD4800784100FA
:104970004718F05D1921FBF7C5FBC649BE19087041
:1049800070781921FBF7BEFBC3490870B078192174
:10499000FBF7B8FBC149C74E08702C70C44DC64F19
:1049A0002C70C648297844543088113080B2308049
:1049B000FBF7C7FBFBF7BCFBC0B20A21FBF7A2FB6E
:1049C00028783954401CC0B228703228E9D387E7D0
:1049D00001E089E009E11E2E3FD2B5480470B448D9
:1049E000B64D00782D5C012D30D0B54DB24F2E5C08
:1049F000761CF6B22E543F5CBE4211D32C544500B7
:104A0000B04E4519AF197E78BC46F61A7E70AD4E91
:104A1000AC4F765D761A7E556746BD78AD1ABD708F
:104A200045004619A74DB44677197E78002E0DD162
:104A30006646AD5D002D09D1BD78002D06D1904DA3
:104A40002E78761C2E709D4E01253554401C984DB5
:104A5000C0B228701E28C2D302E0894861460170A6
:104A6000874D28783228B2D3864805990170069977
:104A70008B48491CC9B2944A01701278914200D304
:104A800004700078894E41004718F05D1921FBF74A
:104A900039FB8049BE19087070781921FBF732FB89
:104AA0007D490870B0781921FBF72CFB7B49814EBA
:104AB00008702C707E4D814F2C7028783C543088C3
:104AC000113080B23080FBF73CFBFBF731FBC0B20A
:104AD0000A21FBF717FB784A28781154401CC0B212
:104AE00028703228E9D3FBE66D480078450040196C
:104AF0006E4D0190401902901E2E49D26C480470F0
:104B00006B486E4D00782D5C012D3AD06C4F6A4D8C
:104B10003E5C761CF6B23E542D5CAE4211D345008D
:104B2000684E3C544519AF197E78BC46F6187E7025
:104B3000644E644F765D76187E556746BD78AD1835
:104B4000BD70450046195F4DB446751903956F78E1
:104B5000564D019EAD5DAF4213D15A4E6546765D0E
:104B6000029D6D78AE420CD1039DAE78029DAD786A
:104B7000AE4206D1424D2E78761C2E704F4E012546
:104B80003554401C4A4DC0B228701E28B8D302E0EC
:104B90003B48614601703A4800783228A3D339492E
:104BA0000598087041480199475C19213846FBF780
:104BB000A9FA384908700298192146783046FBF75F
:104BC000A1FA354908700298192185782846FBF723
:104BD00099FA014631480170294804702A48077043
:104BE0002A4806702A4805707AE60498264EC01AAC
:104BF000C0B23070019B254F591AC9B23970029B5F
:104C0000234E9A1AD2B23270FBF708FB2878401C68
:104C1000C0B228701928E7D32C701B48194D0470B6
:104C20003C7034701E482C700178274A491CC9B268
:104C300001701278914200D3047000781B4C41003F
:104C40004618A05D1921FBF75DFA12493419087066
:104C500060781921FBF756FA0F490870A0781921DE
:104C6000FBF750FA0D4908700F480178491CC9B28A
:104C700001700229B8D30420287031E63D000020DD
:104C80003F000020440000203200002033000020BC
:104C900034000020360000203700002038000020BB
:104CA000390000203A0000203B000020990000203D
:104CB00030000020280000202D010020910100205C
:104CC000C9000020C30100202E000020F8B5434891
:104CD00000270178424C434D434E012910D1002258
:104CE000077011461046FBF799FA40480770404894
:104CF0000770404807704048077027702F70377062
:104D00003B480178491CC9B20170032964D9077076
:104D100039480178491CC9B20170282908D907709F
:104D200034480178491CC9B20170052900D90770BF
:104D300030480078030001F081FB06040B121921B2
:104D4000293037702078401D20702878C01F13E06C
:104D50002F703078801F30702078093014E0277071
:104D60002878C01D28703078001F15E03770207833
:104D7000401F20702878083028700EE02F7030789F
:104D8000C01C30702078C01F207006E02770287883
:104D9000083828703078C01C307018481D21017008
:104DA0001748164909784A008B188C461A1811467C
:104DB00020394F7FC7548B7F5370C97F91706146F4
:104DC000491E09060D4A090E1170EAD12178417079
:104DD0002978017031788170F8BD00003D00002015
:104DE0003200002033000020340000203900002071
:104DF0003A000020440000203B000020300000204A
:104E0000C3010020F8B5284E0024F178274B28482C
:104E100001290CD00188274D491C8AB2012102804A
:104E2000012A0DD0244FBA420CD1197019E0F47048
:104E3000048000221C7011461046FBF7EFF9F8BD04
:104E40001C700EE01D4FBA4201D1022008E01C4F39
:104E5000BA4201D1032003E01A4FBA4203D1042021
:104E60001870297007E07D25AD01AA4203D10480A6
:104E70001548F17001701878030001F0DFFA05059C
:104E8000080B0E110400DAE700F020F8F8BD00F07E
:104E9000BDF9F8BD00F08CFCF8BD00F03BFDF8BD9D
:104EA00000F068FEF8BD00002A0000203C00002051
:104EB000420000203D000020640A0000E6140000CB
:104EC00044160000CD19000019000020F0B5C048BC
:104ED000C04D01788BB0012926D028460778C04DF7
:104EE000BE4829780078491CCEB2401CC1B2781C5B
:104EF000C0B20390BB48B84B02781B780093BA4B02
:104F0000501C1B7809935B1CDBB206935300D2182C
:104F1000B74B0492D218C0B2B44C3B0001F08EFAE9
:104F200005184F90CFFDFC00002404702246214656
:104F30002046FBF773F9AB482C700470AA48047044
:104F4000AC480470AC480470A44804700BB0F0BDC9
:104F50002E70052EFAD300232B70A84C1D2323702E
:104F6000A24B403BA54C247865006619A446F51871
:104F70002C46203CA77F6F70677F9F55E47FAC7005
:104F80006446641E24069D4D240E2C70EAD1984D73
:104F9000049E944CAD5D5D7055781D7092789A704A
:104FA0008E4A32291170D1D300211170894A039B96
:104FB00013702070009A9042C8D32170C6E72E70FB
:104FC000052EC3D300232B708C4D2B708B4B1B787D
:104FD0005D009C465D19854B403BEB181E795E7069
:104FE000824EDF78403E77555D799D7063465B1C4D
:104FF000DBB2824D1D2B2B70E8D37D4D049E794B87
:10500000AD5D25765578E57592786276734A3229DA
:1050100011709BD3002111701870009A904200D338
:1050200019706C4A7348117003785B1CDBB2037013
:10503000022B8BD90170022010706B48017085E73C
:105040002E70052E82D300232B706C4B1D241C70F8
:105050006A4B664D1B78403D5C001E199C467419D6
:105060002346203B9F7F67705F7FAF55DB7FA37038
:1050700063465B1E1B06614C1B0E2370E8D15C4C23
:10508000049D584B655D594C403C657055782570C2
:105090009278A270544A069C1470062C06D3002401
:1050A00014701870009A904200D31C704B4832293B
:1050B0000170C4D30021017046480399BEE72E70E9
:1050C000052EBCD300232B704C4E484D3370403D11
:1050D0004A4B1B785E009C469E1973191F795F70BE
:1050E000DF78AF555E799E7063465B1CDBB2434E42
:1050F0001D2B3370ECD33E4D049E3A4BAD5D2576AF
:105100005578E57592786276374A069C1470062CBD
:1051100009D30024147001E057E023E01870009DCB
:10512000A84200D31C702D4B3229197087D3002060
:105130001870284B0221304C19702178491CC9B2D3
:105140002170022900D801E7042119702C492D4C47
:1051500008700B78E0545B1CDBB20B70322BF8D379
:105160001070F3E62E70052EEDD300262E700998F0
:105170001D4C1E2827D2214D224F2349088811306B
:1051800080B20880FAF7DDFFFAF7D2FFC0B21E2125
:10519000FAF7B8FF2970785C0128EED02878012151
:1051A0003954410042181148403811184E70865445
:1051B0008E702078401C2070C0B23228C3D30548BE
:1051C0000178491C3AE70698F5E7FF21014835E7E1
:1051D0003D000020440000202E0000204000002060
:1051E0003A000020390000203F0000200302002088
:1051F00099000020FB0000203B0000203000002030
:105200002F0000209101002028000020F0B5FF4869
:10521000FF4D017800248DB0012932D02F78FD4850
:1052200007970178FC48FF4E03783678FB48FC4A24
:105230009B1900781278DBB20B93FB4B05961B7819
:105240000393C018C0B20890F848491C0678C9B248
:105250009019C2B2F6480078431CDBB20A93F54BB2
:105260001B7804915B1CDBB20693F3493B00097881
:10527000019101F0E3F809284878FCFAF9F8F8F808
:10528000F7000022047011461046FAF7C7FFE948FC
:105290002C700470E94819210470DE480470E84C51
:1052A0002078FAF72FFFDF49087060781921FAF7A4
:1052B00029FFDD490870A0781921FAF723FFDB499F
:1052C00008700DB0F0BD0598D54B81004018D2494B
:1052D000C0B2087003998A008918D04AC9B2117007
:1052E000B200B218D2B21A70FAF798FFD348017818
:1052F000491CC9B201700A29E3D904702878401CFE
:105300002870CB4841E1C4490B980870C34B0899F9
:105310001970C34B1A70FAF781FFC5480178491C10
:10532000C9B201701429CCD304702878C64E401C31
:105330002870C44DC54F2C70C54829784454308816
:10534000113080B23080FAF7FCFEFAF7F1FEC0B2FD
:105350000A21FAF7D7FE28783954401CC0B22870C9
:105360003228E9D3ADE71E283FD2B6490C70B84ABF
:105370000878125C012A32D0B64AB44F135C5B1C29
:10538000DBB213543F5CBB4214D314544200B24B03
:105390008218D718BC467F78059BFB1A67467B703E
:1053A000AD4B9F5C039BFB1AAB4FBB546746BA786F
:1053B000921BBA7042008318A74A9F187A78002A75
:1053C0000DD1A54AD25C002A09D1BA78002A06D1AB
:1053D000974A13785B1C13709D4B01221A54401C92
:1053E000C0B208701E28C2D302E091480A99017029
:1053F0008F4800783228B5D390482C7004708D48BF
:1054000006990170019A914200D3047001788C4E84
:1054100048000F18F05D1921FAF774FE8149BE1992
:10542000087070781921FAF76DFE7F490870B0781E
:105430001921FAF767FE7D4908707D4875490470A7
:105440000498087002288DD90C70032083492870B5
:105450007F4A0C7008781454401CC0B2087032287F
:10546000F8D32EE792E19BE091E066E0FFE7704E13
:105470001E2860D27A4F74490888113080B20880A3
:10548000FAF75FFEFAF754FEC0B21E21FAF73AFEB1
:105490006F483970405C0128EDD0CAB26C490120D8
:1054A00088543078401C30705948654D0178491C4B
:1054B000017058480470584804705848047058489F
:1054C00004705C48007841004718E85D1921FAF73C
:1054D00019FE54497D19087068781921FAF712FEEF
:1054E00051490870A8781921FAF70CFE4F49087045
:1054F00030783228B5D34649052008703470514DB4
:10550000514E524F2C70524928780C54308811302B
:1055100080B23080FAF715FEFAF70AFEC0B2142105
:10552000FAF7F0FD28780A313954401CC0B22870CF
:105530003228E8D3C5E60A98B5E737490B9B0B70CC
:105540003649089B0B7036491E280A7010D844480B
:10555000059B017848000A183F4811184F78FB183E
:105560004B70875C039BFB18835488788019887084
:105570002849049808701928DCD3032028702D4886
:1055800006990170019A9142D4D3047099E60022E1
:1055900011461046FAF742FE28786EE0287090E631
:1055A000284E00203070C4B2E0072A48015D66D062
:1055B000491CC9B2254A0155125D914221D90027E3
:1055C000075520460199FAF79DFD1A4801702448B5
:1055D000005D00287ED048000B1819481E49C25CA7
:1055E0006000201884464018154942705B188646B2
:1055F00019495A7860460A5499787046817018485B
:105600000755641CE0B230701E282BE03D000020DE
:10561000440000203B000020320000203300002026
:105620003400002036000020370000203800002021
:105630003F000020390000202E0000203A0000200A
:105640009900002030000020280000202D010020BB
:1056500091010020C9000020C30100202F0000207C
:10566000FB0000209FD34A480178491CC9B2017051
:10567000C8298BD9002101700798401C8EE7491C6E
:10568000C9B201550329BCD3002101552046019917
:10569000FAF738FD3F48017048000F183E481921BD
:1056A000C05D0590FAF72EFD3C49087002903A481B
:1056B00019213F1878780390FAF724FD38490870CB
:1056C0000990B87819210490FAF71CFD354907466E
:1056D000087000E046E03448005D00281FD06000FC
:1056E00020183249844640184378059A934208D3DB
:1056F0006246895C039A914203D38178049A91426D
:105700002CD20299294A591841706146515C099B73
:10571000CB18614653548178C919817071E76000D4
:105720002218224810184378002B06D11F49895CA3
:10573000002902D1817800290CD002995B1A4370AC
:105740001A49099B895CCB1A1146184A535481782F
:10575000C91BE2E714480121015552E71249002014
:1057600008554EE7480009180B48104B405C4208AA
:1057700060002018C7187A70074A89184A785308B9
:105780000A4A135488784008B870E3E7FF2005E719
:105790003A00002039000020990000203600002047
:1057A0003700002038000020FB000020C30100204B
:1057B000F8B54B494B4C08784B4D4C4E01280DD059
:1057C0004B482778027828460178304600783B001D
:1057D00000F034FE061D575F67737B83002008705E
:1057E000444920700870FF213170414928700870C9
:1057F0004149434B0870414908700A789854521C3B
:10580000D2B20A70322AF8D33E490870F8BD39483E
:105810000178491CC9B201700529F7D30021394F1D
:10582000017038781E2823D237490888113080B299
:105830000880FAF786FCFAF77BFCC0B21E21FAF763
:1058400061FC324801702E48405C0128ECD02F48A2
:105850002B49007801220A54410041182C48337822
:105860000A1853702B784354214800789070387888
:10587000401C3870C0B23228C8D32078401C207039
:10588000F8BDFF2901D20F311AE002211BE029786F
:1058900010E0002801D00F381AE003201BE0307818
:1058A00008E0134BFF2A02D20F321A7001E00422E3
:1058B00022701A78FAF7B2FCF8BD002902D00F392D
:1058C0002970E4E705212170E1E7FF2802D20F30BB
:1058D0003070E4E706202070E1E7FF20CFE700000A
:1058E0003D00002044000020330000203200002052
:1058F000340000203A0000203B0000202F00002050
:10590000910100203F0000202800002030000020EE
:10591000C3010020F0B58749874C087889B0012879
:105920001DD08648217800780A46401CC0B20590F8
:105930008348491C037883481D4600780090C8B20C
:1059400069006E185B1C8149DFB203907E487518B0
:10595000130000F073FD050F3C6886B8EC000020D2
:105960000870774920700870794908707349087089
:1059700009B0F0BD00210170734803210078069042
:10598000FAF7C0FB00290BD17048835D06984100EF
:10599000411870480A1853706B784354A878907077
:1059A00006986949401CC0B208701E28E4D36349B8
:1059B000059808703228DBD30020087060490F700A
:1059C000009A97422DD308702BE02070D0E7002179
:1059D00001705D48032100780690FAF793FB0129D6
:1059E0000BD15A48835D06984100411859480A185E
:1059F00053706B784354A878907006985249401CB5
:105A0000C0B208701E28E4D34C49059808703228AB
:105A1000AED300224A480A70077000998F4200D323
:105A200002700398D1E700210170474803210078F4
:105A30000690FAF767FB02290BD14448835D06986C
:105A40004100411843480A1853706B784354A878B2
:105A5000907006993C48491CC9B201701E29E4D3D4
:105A6000D2E73A4F3C49B85D08703C4A69781170FA
:105A70003B4BAA781A70FAF7D1FB30480178491CE1
:105A8000C9B201703229A1D3002505702C480078D5
:105A900041004618B85D1921FAF734FB3149F6196F
:105AA000087070781921FAF72DFB2F490870B0782B
:105AB0001921FAF727FB2D4908702078401C207027
:105AC0002B48057054E7244926480A780078101AB4
:105AD000C0B20870214A244913780978591AC9B20A
