:020000040000FA
:10000000C8030020F1000000F5000000D50000004A
:1000100000000000000000000000000000000000E0
:10002000000000000000000000000000F9000000D7
:100030000000000000000000FB000000FD000000C8
:10004000FF000000FF000000FF000000FF000000B4
:10005000FF000000FF000000FF000000FF000000A4
:10006000FF000000FF000000FF000000FF00000094
:1000700059590000FF000000FF000000FF000000D1
:10008000FF000000FF000000FF000000FF00000074
:10009000FF000000FF000000FF000000FF00000064
:1000A000FF000000FF000000FF000000FF00000054
:1000B000FF000000FF000000FF000000FF00000044
:1000C0000348854600F076F800480047695E000066
:1000D000C803002004207146084202D0EFF30980D3
:1000E00001E0EFF308807146004A10473D1D000013
:1000F00003480047FEE7FEE7FEE7FEE7FEE7FEE710
:10010000C100000030B50B4601460020202201242A
:1001100009E00D46D5409D4205D31D469540491B3B
:100120002546954040191546521E002DF1DC30BD84
:100130000549064A08685043054A80180860400887
:100140007047014908607047780000206D4EC64135
:1001500039300000F0B51FB40646002082B00546D5
:100160004024019100901BE0019922460F46304641
:1001700000F042F8049A059B801A994110D310466A
:100180001946224600F028F8361A8F410197224678
:1001900001200021009F00F01FF838184D41009009
:1001A0002046641E0028DFDC019B00982946324669
:1001B00007B0F0BD064C0125064E05E0E36807CC0C
:1001C0002B430C3C98471034B442F7D3FFF77CFF25
:1001D000C85F0000E85F000010B5202A04DB01467C
:1001E000203A9140002010BD914020239C1A0346E4
:1001F000E3401943904010BD10B5202A04DB0846A7
:10020000203AD040002110BD0B46D340D0402024DE
:10021000A21A91400843194610BD000030B5064CA3
:1002200000235D005D1960552D195B1C6970DBB200
:10023000AA70032BF5D330BDBF01002000B50548DF
:10024000C178012905D10021C1700A460846FFF78F
:10025000E5FF00BD26000020F8B529484278002AB5
:100260002CD005250146274E2D07274FC97800249D
:10027000012A06D0022A22D0032A1FD101292AD01E
:1002800033E0012909D11E480022C47004700C21FA
:100290001E4801F0FDFC0120706319480178491CDB
:1002A000C9B20170052909D904704470686B3840DF
:1002B0006863686B0321890208436863F8BDC470F2
:1002C000047074634470686B38406863686B68637B
:1002D000B462F462F8BDC47004707463696B394031
:1002E0006963696B6963B462F4620178491CC9B2DD
:1002F00001700529EED9047001214170C170F8BD6B
:100300005800002000420050F3F3FFF3404000503B
:1003100070B52848066B284903248A1C01250B1F49
:100320000020012E17D0087048701178491CC9B2FE
:100330001170322909D310705178491CC9B251701B
:100340000A2902D350705C70DD701B499A78091D30
:10035000012A11D014E0107050700A78521CD2B2E9
:100360000A70322AF1D308704A78521CD2B24A700D
:100370000A2AEAD34870E6E79870087048708870D7
:100380000A78521CD2B20A70322A10D308704A7806
:10039000521CD2B24A703C2A09D348708A78521C47
:1003A000D2B28A703C2A02D388705C70DD70FFF78D
:1003B00053FF70BD004200505C000020FEB57A4A39
:1003C0007A4CD3787A4D00217A48012B06D07A4AAC
:1003D00013780A2B4DD25B1C1370FEBDD170774A87
:1003E000017012780092734F009938780646FFF733
:1003F00089FE73484A0001700020207071488918F6
:100400000A189378415C9C4653782078321857003C
:10041000D219A9545219401C5370674600069770B0
:10042000000E2070F1D0761C6249F0B208700328EB
:10043000D9D300250C46644E644F25703088FFF7F1
:1004400080FE308811303080FFF772FEC0B2142178
:10045000FFF758FE5E4A20781154012139545D4956
:100460000D54401CC0B220700328E7D352480570D9
:10047000FEBD0023544913700A88521C0A80037081
:100480004C4952480E78805D0090002804D0012825
:1004900025D002287ED144E0484801783046FFF755
:1004A00031FE47484A0001700020207045488918F5
:1004B0000A1893789C465378425C207831184F0094
:1004C000C9196A544919401C4B70674600068F7061
:1004D000000E2070F1D000983C49401C59E03D4886
:1004E0003B4F825D521CD2B28255BB5D9A4251D9BC
:1004F00000228255344E3088411C3180FFF721FEA6
:10050000308811303080FFF713FEC0B21421FFF79E
:10051000F9FD2848007839542C490A5C521C0A54C9
:1005200038E0264801783046FFF7ECFD2448254A9C
:10053000017000202070480008180090105C3221E3
:10054000FFF7E0FD81004018C7B21E49009840182F
:10055000019040783221FFF7D5FD81004018C0B2EC
:100560000090019832218078FFF7CCFD810040187F
:10057000C1B2207832185300D218AF545219009BE0
:10058000401C537000069170000E2070F1D00F498E
:100590000020885507480178491CC9B20170032919
:1005A00000D26DE7FEBD0000260000202C000020D8
:1005B000BF01002035000020360000202A00002066
:1005C000340000209500002024000020F7000020C7
:1005D00029010020C5000020F0B51848184BC77845
:1005E0001849194D0024194E194A012F05D02F78AA
:1005F000082F0ED27F1C2F70F0BDC4701C700C70C1
:100600001470002211461046FFF708FE2C7034705B
:10061000F0BD2C703578EF0700D1FF2414706D1CED
:10062000ECB23470052C03D9447804700124C470F2
:10063000127809781878FFF7F1FDF0BD2600002048
:100640002E0000202F00002036000020F7000020A0
:10065000300000200248016AC20111430162704764
:1006600000020050F3B58BB00C46FFF7F3FF0B9878
:1006700000287448016813D004221143016010203F
:1006800000F034FA0120C00409906F480090042063
:1006900008906E486E49201888420ED800251DE04B
:1006A00089088900491C0160012000F01FFA002020
:1006B0000990684800900220EAE7674866492018D8
:1006C0004942884202D80125640007E06348634933
:1006D0002018494288427DD20325A4000026F64313
:1006E000089F22E039460098FFF70CFD5C498446DC
:1006F00041185C48814217D2554B02225B1C53487B
:1007000061465143401C0818984209D8A14201D9BA
:10071000081B00E0601AB04202D2060004920CD01E
:100720005148521C8242EAD97F1C212FDAD900207D
:100730000696C0430190089E54E00999A803084317
:1007400001217A028902511A08430499891E08433B
:100750003C490862042000F0C9F9691C79430098FB
:10076000FFF7D0FC049948430DB0F0BD3146009826
:10077000FFF7C8FC3A4942183A498A4231D202216D
:10078000324B02464A435B1CD7185B429F4224D837
:10079000A24201D9121B00E0A21A019B9A421CD26C
:1007A0000192069B0F469A4217D10999A803084364
:1007B000012172028902511A0843B91E08432149D6
:1007C0000862042000F092F9691C71430098FFF759
:1007D00099FC00E008E07843C6E7234A491C9142AF
:1007E000CED9761C212EC1D90B9800280FD01F49D5
:1007F00014480162042000F079F91DA000680390FC
:100800001048016A0013014203D00020ACE71949E7
:10081000EEE7080301D50C4800E00E488A03A3D494
:100820000A04920F03AB9B5CCA058904D20DC90E62
:10083000891C8008921C59435043FFF763FC8000D9
:1008400092E700000002005000805101FF1E0AFAEA
:10085000FFE0F505001BB700800F05FDC08782FE95
:10086000FF95E7FFBF77CC000102000018440800A5
:100870000102020416400000044982070A6801D000
:100880009208920002430A60704700000002005084
:1008900008B511A0006800901048016A00130142D9
:1008A00001D0002008BD080301D50D4800E00D4827
:1008B0008A03F7D40A04920F6B469B5CCA0589042D
:1008C000D20DC90E891C8008921C59435043FFF772
:1008D00019FC800008BD0000010202040002005063
:1008E00000805101001BB70070B502F0B5F8384820
:1008F0004168384A114041604168032529434160FD
:100900000120FFF7B9FF012000F0F0F8000632499E
:10091000000E087009D10420FFF7AEFF102000F090
:10092000E5F80021072000F0A7F82C4800F062F855
:100930002B4C08262660304600F0D8F80120A06035
:10094000606928436061A168E0018143A160A168FA
:100950000143A160606903210906884360610525A0
:100960002D07686B1F4908406863686B0321890283
:1009700008436863A06804210843A06060690721F8
:10098000090288436061A0683043A0606069090182
:1009900088436061A068E1020843A060A068890004
:1009A0000843A0600022C9010F4800F077F8002238
:1009B00020210E4800F072F8286B0D490843286387
:1009C00004F026FF02490020C031086070BD00001D
:1009D00040000050FCFCFFFF4C000020006CDC02DB
:1009E00000020050F3F3FFF31400C0A7160040E626
:1009F000F0F00000F8B51E4C0546E66810201D49D1
:100A0000064048108D4201D90D4602E0854200D2D1
:100A100005462068042738432060102000F066F85F
:100A20002069072108432061A06900090001A06135
:100A300020688007800F01280ED069007804FFF736
:100A400011FEE6680546102006400121022000F054
:100A500013F8002E06D008E069000020FFF702FE20
:100A60000546F2E72068B84320606808F8BD00003A
:100A70000002005080F0FA0210B5074A93691B0982
:100A80001B010B4393611169C908C900014311613E
:100A900004F0BEFE10BD00000002005070B5430E11
:100AA0001B070DD043009B0F0F4C9B001C192368A4
:100AB000C5002D0FC601F60EB540AB430B432360B6
:100AC000840A2106090E0DD00103074B890F890006
:100AD0000833CB1819688005E4B2C00E8440A143E6
:100AE0001143196070BD00001002005010B5074995
:100AF000074A05E00B46491E002B01DC002010BD13
:100B0000D4680346A343F5D1012010BD80F5200031
:100B100000020050F0B5DB48DB4985B0C378897925
:100B2000029101468D79CA790124002B13D1817875
:100B3000491CC9B2817096290DD3D449C4700C7078
:100B40004C704C238B704123CB7032230B71029B72
:100B50004B71CD710A72837C0021002B09D0437C3C
:100B60005B1CDBB243740F2B03D34174FF2303716F
:100B70008174C74B1E78002E63D00021C1481970C4
:100B800084744174C3490C70C178C3480029067845
:100B900001D1F02E26D0C0483707017901913F0FCF
:100BA00040790390072F04D0A9424AD1039890427C
:100BB00047D10F2E05D0B34831090379994240D06F
:100BC0000171B5483B00C17800914178807804F00C
:100BD000BBFF1038151523383A3887FE38443838AB
:100BE000FD385538A9484C2104704470817041216A
:100BF000C17032210171029941713FE1A348022184
:100C0000017044704C2181704121C1703221017109
:100C100002994171002130E10A2901D9FF2910D13F
:100C20001C280ED89D4D00292970EC7009D0FF2991
:100C300005D0A87000F02AFA287868701BE0687860
:100C4000287005B0F0BD0828FBD8C107F9D18E493E
:100C5000887193484C710470E2E00329F1D80029AF
:100C6000EFD00828EDD88D4A0A3111705170D47038
:100C7000907000F00BFA8A480470E2E787480A1F78
:100C8000854D0078130004F05FFF0A06061111116C
:100C9000060606060611814B884207D1794A167C62
:100CA000002E03D1DC7014747E4A14700A29C8D94E
:100CB0007A4E0028C5D0884207D0317071707848CC
:100CC000F4700470B07800F0E1F9B178A87881424E
:100CD000B7D0B0707249F4700C7000F0D7F9B0E77B
:100CE000684BDE7B1F463B7B7F7B012EBC4640D1A1
:100CF000644F0026FE734140019E0098664F70408D
:100D000041400398814210D06448FF210170C470B3
:100D10005E48022101700821417004218170002188
:100D2000C170017143716146A7E07F1C002001463C
:100D30000097009E765C360270400026C70B03D0F9
:100D4000594F4000784000E04000761CF6B280B277
:100D5000082EF3D3491CC9B20429EAD3190261440D
:100D6000484E89B26746814210D04C48FF2101703D
:100D7000C47046480221017008214170042181702D
:100D80000021C17001714371394676E0180900F005
:100D9000E9FF464D2870307B0007000F00F0E2FFAE
:100DA0006870707B000900F0DDFFA870707B0007A1
:100DB000000F00F0D7FFE87034480821047041703C
:100DC000032181700021C170017101E02DE010E06C
:100DD000327B4271737B8371B579C571F579057288
:100DE000B271F371317371732C48FD210170C470BD
:100DF00041E7012914D0022900D022E72149CC7310
:100E00000873009B4B73214902240C704E708C7048
:100E10000024CC700C7148718B71CD710A7210E78F
:100E20001E48FB210170C4700BE70D23002916D06A
:100E30000129E2D11548022101701D49437009784A
:100E400081701049C97AC170192101711221417153
:100E5000182181715721C17143210172F1E60B48BC
:100E60000221017043704C2181704121C1703221F7
:100E7000017110490978417102998171C57102723D
:100E8000DFE6000011000020500000207C00002060
:100E9000000000205A0000200B0000202600002047
:100EA0004700002046000020211000000200002022
:100EB0004C00002042000020F0B5664F664DFB78E4
:100EC00000206649664A674C85B0012B3BD0664BD3
:100ED0001E78761CF6B21E70052E5DD318705E78F3
:100EE000761CF6B25E701E2E1AD358709E78761C51
:100EF0003606360E9E7013D098702B785B1CDBB2D2
:100F00002B70052B0CD9594B28701E78761CF6B225
:100F10001E70142E04D918700123554EFB703370C7
:100F20004D4B1F784F4B1B780093DB1CDBB20393B8
:100F30004A4B1E784A4B1D783B0004F005FE062FF5
:100F4000343A40464C51F870434B4A4F18704A4B64
:100F500038703D786E00AE199855F6186D1C70709B
:100F6000EDB2B0703D70032DF3D3087010703F499F
:100F7000207008703E49424C087037493A4B48701F
:100F80003E4908700A789854A054521CD2B20A7094
:100F9000032AF7D33B49087005B0F0BD761D2070D9
:100FA0000E70ED1F0FE01070009B9B1F2370093621
:100FB0000FE00870ED1D1570009B1B1F0FE0761FE2
:100FC00020700E70083515700AE01070039B2370B6
:100FD000F61F0E7004E00870083D1570039B237027
:100FE0001D4B5D78002D18D0012D1FD0022D27D06C
:100FF000254800250570204D0E7812782778017855
:101000004C000C192E556419491C6270C9B2A770A6
:1010100001700329F3D3002010E01748097801700C
:101020001178417021788170012007E01248097819
:1010300081711178C1712178017202205870ABE77B
:101040000D480978C1701178017121784171032030
:10105000F4E7000026000020F70000202E0000200A
:101060002F00002030000020C50000203A000020A2
:10107000160000202C000020BF01002035000020B9
:10108000290100202D0000202B000020F8B501468A
:10109000F94800240078FA26F84D27460A286FD927
:1010A000F7480C2202700B0004F04EFD0715487F34
:1010B000A4D9F1051400F34861006118425C6A5438
:1010C0000A18491953784B70641C9278E4B28A70FC
:1010D000102CF1D3F8BD05212046FFF713F80029A5
:1010E00008D001290CD0022910D0032912D00429DC
:1010F00018D01EE0600020182F54401946700FE0F1
:10110000600020182E544019477009E06000201834
:101110002E540BE0600020182F5496214019417086
:10112000877006E096216000201829544019467007
:101130008670641CE4B2102CCDD3F8BD0721204684
:10114000FEF7E0FF00290CD0012912D0022918D0A7
:10115000032922D004290CD0052912D0062908D051
:1011600016E0600021186E543220491948708870CA
:101170000EE0600020182E5440194770322106E01E
:10118000CEE0600020182E54322140194170817049
:10119000641CE4B2102CD1D3F8BD60009621201855
:1011A0002954401946708770F2E7A00709D0A007BC
:1011B000800F01280CD0022810D0E043800707D010
:1011C00013E0600020182E544019477087700CE01F
:1011D000600020182F544019477005E060009621E8
:1011E00020182954401946708670641CE4B2102CF3
:1011F000DBD3F8BD05212046FEF784FF002908D087
:1012000001290ED0022911D0032916D004291AD0A1
:1012100020E0600020182F54401946703221817060
:1012200018E0600020182E54322110E06000962152
:1012300020182954401946700BE0600020182E54E5
:101240004019477005E0600020182E54962140197F
:1012500041708770641CE4B2102CCBD3F8BDA0079A
:1012600011D0A007800F012812D0022818D0962193
:10127000600020182954401946708770641CE4B23D
:10128000102CECD3F8BD600020182F54F3E70EE0CB
:10129000600020182F544019467032218170EDE70C
:1012A000600020182F54962140194170E5E709216C
:1012B0002046FEF727FF002910D0012913D002296C
:1012C00029D0032914D004290DD005291CD00629C2
:1012D00009D007291FD008290AD010E06000201883
:1012E0002E54322101E0962103E04019417010E0B4
:1012F0003221600020182954401947708670641C00
:10130000E4B2102CD3D3F8BD600020182F5440193C
:1013100046708770F3E7600020182F549621E4E7A9
:1013200010290BD2480009185648425C2A70081848
:10133000417869708078A87001217DE0103904201F
:1013400003220B0004F000FC0D091520313A437B09
:1013500085A0ACE6F6F40800D5E72F7032206E7059
:10136000A8709621E9702E716F71AE71E8712872C4
:1013700021E02F706E70AF70EE702F716F7196213B
:10138000A971EE712F72DEE032212E706970AF709C
:10139000EE7096222A716F71AE71E9712F726E72C2
:1013A000AF72EA7236490870F8BD962028706E70E8
:1013B000AE70EF7047E032480270F8BD2E706F706B
:1013C000AF70EF702E716F71AE71EE713FE007215B
:1013D0002046FEF797FE002912D0012909D00229E4
:1013E0000ED0032914D0042903D0052918D00629CA
:1013F0001DD1600020182E5440194770322115E08D
:10140000600021186E5432204919487088700EE02F
:10141000600096212018295440194670877006E014
:10142000600020182E543221401941708170641CD4
:10143000E4B2102CCBD3072111480170F8BD2E70F7
:101440006F70AF70EE702E716E71AF71EF712E72A2
:10145000B1E72F706E703220A870EE7028716F7136
:10146000AE71EF7196202F726872AE72EF722E73AA
:101470006873AF730521DFE7260000209500002088
:101480002A000020905F00002F706E70AF70EF7028
:101490002E71322068719620A871EE712F728AE742
:1014A00009212046FEF72EFE002910D0012913D075
:1014B00002292AD0032914D004290DD005291DD0D2
:1014C000062909D0072920D008290AD010E0600099
:1014D00020182E54322101E0962103E0401941707A
:1014E00011E032216000201829544019477086709D
:1014F000641CE4B2102CD3D309219DE760002018AE
:101500002F54401946708770F2E7600020182F545E
:101510009621E3E72E706F70AF70EE703221297163
:101520006F71AE719621E9712F726E72AE720DE01D
:101530000EE0FFE72F706F70AE70EF702E716F715D
:10154000AF71EE712E726E723221A972EF7229E7BD
:10155000084861006118425C6A540A1849195378B6
:101560004B70641C9278E4B28A700C2CF1D30C207E
:1015700018E70000905F0000F0B52D482D4A8479EF
:101580000123002C05D04679851E0021012E0BD0A9
:1015900016E028482038016A890104D5016A8402CE
:1015A000A14301629360F0BD417141708170C170CF
:1015B0000171298016680127BF073E4316609360BA
:1015C0009668F607F60FEED093602A881A4E521CE2
:1015D00092B22A80B24201D32980F0BD8278521C97
:1015E000D2B282703C2A0ED38170C278521CD2B221
:1015F000C2703C2A07D3C1700279521CD2B2027168
:10160000182A00D301714278002AE6D18278002A94
:10161000E3D1C278002AE0D10279002A05D0A242A3
:10162000DBD102220270C171F0BD0370C371F0BD45
:101630005000002020000140983A000030B5154AC3
:10164000154800211368435493695B0403D4491C73
:10165000C9B21029F6D302240125104B022906D065
:10166000072910D05C7090682043906030BD0178ED
:10167000FD2906D14178F02903D1807807E05D701B
:1016800030BD5C7030BD0178FD29FAD1C079FE28EB
:10169000F7D1F4E70000054085000020000000209D
:1016A00030B5124A00205478002C1DD00021104B78
:1016B000012C07D0022C17D11954401CC0B210289D
:1016C000FAD310E001241470084C0B341D186D7807
:1016D0002554401CC0B20628F8D300201954401CE1
:1016E000C0B21028FAD3517030BD000000000020B5
:1016F0008500002010B5204A00201478002C13D05B
:101700001E49012C11D00023032C22D0022C0BD116
:10171000FD240C60141864780C60401CC0B20828CA
:10172000F8D3FE200860137010BDFC230B604C231F
:101730000B6041230B6032230B60114C235C0B6068
:10174000401CC0B20428F9D3FE20086002201070AB
:1017500010BD1370FA220A600B600B600F220A6042
:10176000074B1B1D1A5C0A60401CC0B20528F9D348
:10177000FE20086010BD00007C0000200000054035
:101780000200002010B50D490B78002B0ED000226E
:1017900001240B48012B02D0022B04D006E00A7072
:1017A0004178017001E00A700270C47000F0DEFD43
:1017B00003F0FEFFFFF7AEF910BD0000500000205F
:1017C000260000200A492222CA60486001200861E0
:1017D0000869C007FCD10868400606D508684022A1
:1017E000104308600020C04370470020704700008D
:1017F00000C0005002480168012211430160704797
:1018000000C0005005490022CA60486001200861FC
:101810000869C007FCD188687047000000C000500C
:10182000054A2123D3605060916001201061106946
:10183000C007FCD17047000000C0005010B5012463
:10184000240501F0FBF8FFF7D5FF224908682022A4
:10185000104308602046FFF7D5FF1F4C60701F48FB
:10186000FFF7D0FFA0701D48001DFFF7CBFF1C49FC
:1018700088711A480830FFF7C5FF1A4908701748E1
:101880000C30FFF7BFFF1849C0B208801348103072
:10189000FFF7B8FF1549C0B2088010481430FFF7B1
:1018A000B1FF134908700D481830FFF7ABFF11491D
:1018B00008700A481C30FFF7A5FF0F490870074859
:1018C0002030FFF79FFF0D4908700D490020086088
:1018D00010BD000000C000502600002004001000D1
:1018E000500000204B000020420000204400002057
:1018F0001900002017000020180000201B00002005
:101900000001005070B52748012401782405012901
:1019100047D10025057001F091F8FFF76BFF2248D1
:1019200001682022114301602046FFF74BFF1F4E44
:1019300020467178FFF774FF201DB178FFF770FF24
:101940001C491B488979FFF76BFF19481A49001D8C
:101950000978FFF765FF1648184908300988FFF72E
:101960005FFF134816490C300988FFF759FF1048EC
:10197000144910300978FFF753FF0D48124914300D
:101980000978FFF74DFF0A48104918300978FFF72A
:1019900047FF07480E491C300978FFF741FF0D4803
:1019A000056070BD4700002000C0005026000020E8
:1019B00008001000500000204B00002042000020D2
:1019C000440000201A00002017000020180000200A
:1019D0001B00002000010050F0B59D490024CA788A
:1019E0008BB0012A43D09B4900220A709A480178A3
:1019F000984800780446FEF785FB9848984D01709A
:101A000048000E18A85D009032210590FEF77AFB81
:101A10009449074608707519687832210490FEF7DA
:101A200071FB914906460870A87832210390FEF7B1
:101A300069FB8E49054608708D48015D002943D039
:101A400001297DD002298B497BD0085D8A4A401C40
:101A5000C0B20855125D7F4B904273D900200855E3
:101A60006000864920180A5C002A6CD1B0E0844EE0
:101A7000CC70844D804F34703078410041187F48DD
:101A800044540818447084702888411C2980FEF74B
:101A900058FB288811302880FEF74AFBC0B2142179
:101AA000FEF730FB3078395471490C5471490C54AD
:101AB000401CC0B230700328DED373493220087056
:101AC000724804700BB0F0BD6A486B4A015D491C56
:101AD000C9B20155125D9142BFD9002101550521BE
:101AE0000598FEF70FFB024660002018634900903E
:101AF000085C824213D805210498FEF703FB0146D7
:101B00005E48009A101800904078814207D805215D
:101B10000398FEF7F7FA0099897888421ED9584849
:101B200000210170554856490B78E1184A00891880
:101B3000425CD219425409184A7892194A7003E05B
:101B40000FE026E043E04AE08A7852198A705B1C75
:101B500019064B4A090E1170E5D06FE04448012187
:101B600015E0474800220270444A0378009EE518B9
:101B70006F00ED195655AD18049E6E705B1C039EE8
:101B80001B06AE701B0E0370EFD03948491C01557F
:101B900054E0085D3C4A401CC0B2085512782D4DF7
:101BA00090424BD900200855314803210155354C4E
:101BB0002088FEF7C6FA208811302080FEF7B8FA98
:101BC000C0B20A21FEF79EFA2B482A78815435E0EC
:101BD00042185078002802D19278002A19D028485B
:101BE00000220270084626490B78E1184A0089183D
:101BF000425CD21B425409184A78921B4A708A7878
:101C0000521B8A705B1C19061D4A090E1170EAD01E
:101C100014E0174E002535551A4C1F462088FEF754
:101C200090FA208811302080FEF782FAC0B2142189
:101C3000FEF768FA104A387811543554054801788F
:101C4000491CC9B20170032900D2CFE63AE700006F
:101C500026000020350000202A000020340000204B
:101C600095000020310000203200002033000020C9
:101C7000F7000020C500002029010020BF0100203E
:101C80002C00002024000020360000202D00002021
:101C9000F0B500230125944603272A469A400A42BC
:101CA00009D006685C003A46A24096432246644644
:101CB0009440264306605B1C082BEED3F0BD000069
:101CC000F0B51848184BC778184A194D0024194E1A
:101CD0001949012F05D02F78082F0ED27F1C2F70A5
:101CE000F0BDC4701C700C701470002211461046B8
:101CF000FEF794FA2C703470F0BD2C703578EF0735
:101D000000D1FF240C706D1CECB23470052C03D98B
:101D1000447804700124C470127809781878FEF7AA
:101D20007DFAF0BD260000202E00002030000020AB
:101D300036000020F70000202F000020044603A0FA
:101D400003F0F2FE204604F0CFF8FEE7496E20488B
:101D5000617264204661756C742048616E646C65C4
:101D6000720A00000F2801D90007000F0A2801D2CB
:101D7000303000E03730C0B270470000FEB5884810
:101D80008849C2780020012A05D00A78082A36D26C
:101D9000521C0A70FEBD824AD070834A10700870CF
:101DA00082490870824908708249087082490A781D
:101DB000002A14D00870814C32212078FEF7A2F955
:101DC0007F49087060783221FEF79CF97D490870E0
:101DD000A0783221FEF796F97B490870FEBD7B4959
:101DE0007B4B08700A78540014191855E418521CDB
:101DF0006070D2B2A0700A70032AF3D3DBE70870D8
:101E000074496A4A0F7801976A4912780978521C16
:101E1000491CCBB27049D4B20978654D491CCAB28D
:101E200061492D7809786E00AE190095634D8C4696
:101E300001217519012F67461BD0002F7DD05D4C05
:101E40002F2B23700BD3584B20701870624B142A21
:101E50001A7004D9524A1870D170604A1170534AEE
:101E600013785F4A002B7DD0012B7CD0022B7BD1D5
:101E700093E0002F06D0012F27D0554B1C78002C63
:101E800032D12BE04D4A032C935D564A1370564ACB
:101E90006F781770554AAD781570444A147002D3A4
:101EA000414C10702170494908701478C2B2A018D2
:101EB0004600861946488355301847708570521C75
:101EC0001006000E0870F1D0FEBD3A492F2B0B70A2
:101ED000FAD30870344802210170FEBD5C78002CF2
:101EE00002D19C78002C1CD04149354B0870354AF2
:101EF00035481F78157804780A785000131834484C
:101F0000521CC65CF61BC654181843785B1B437002
:101F100083781B1B8370D0B208700328ECD3FEBDFE
:101F20000BE0214B142A18702B4B1A70F7D918703C
:101F30002A4801701A48C170F1E7204B1C4A9E5D87
:101F4000284B032C1E70284B6E781E70274BAD78E3
:101F50001D70164B1C7082D31870009B5B1CDBB28B
:101F6000137002E007E008E008E0019CA34200D300
:101F700010700D4A72E7107000E011701948037874
:101F80001078194A41004118114843540818127832
:101F90001649427009788170C1E70220EBE7000022
:101FA0002600002036000020F70000202D00002031
:101FB0003400002029010020460000209500002068
:101FC0003100002032000020330000202C000020CF
:101FD000BF0100202A0000203A0000201600002047
:101FE0008D0100202E0000202F0000203000002056
:101FF0002B00002010B52C48018811310180811C74
:102000000878082835D007DC030003F09DFD081A86
:102010001D202326292C2F170D2839D008DC09284C
:102020002AD00A282BD00B282CD00C2806D12CE043
:10203000FB2830D0FD2831D0FF2832D00A2008708C
:1020400010BDFEF7FBF810BD03F070FB10BDFEF7EE
:10205000B5F910BD03F03EFA10BDFFF78FFE10BDBD
:1020600000F008FD10BD00F0B1FB10BD00F0A0FABB
:1020700010BDFFF7B1FC10BD00F09AF910BDFEF7DE
:102080001BFF10BD00F004FE10BD01F047FA10BDAB
:1020900002F04EF910BDFEF79FFA10BDFFF710FEDB
:1020A00010BD00F047FA10BD24000020F0B5012259
:1020B0005D4800215300D4185C4BE61800243578A5
:1020C0000023761CEF0970D00127076100BF00BF15
:1020D00000BF00BF00BF00BF00BF00BF00BF00BF08
:1020E00000BF00BF00BF00BF016100BF00BF00BF55
:1020F00000BF00BF00BF00BF00BF00BF00BF00BFE8
:1021000000BF00BF00BF00BF00BF00BF00BF00BFD7
:1021100000BF00BF00BF00BF00BF00BF00BF00BFC7
:1021200000BF00BF00BF00BF00BF6D065B1C2D0ECF
:10213000DBB2082BC6D3641CE4B2032CBFD3521C01
:10214000D2B2032AB6D3394B394A3A485D78567829
:102150000403002D4FD0012E06D001265670866B49
:1021600001277F033E438663A563314E1D78367891
:10217000002D48D0012E06D001261670866B01274F
:102180007F023E438663A5629D78294B002D9B7894
:1021900041D0012B06D001219170816B01221203E5
:1021A000114381636563F0BDFFE70127076100BF4D
:1021B00000BF00BF00BF00BF00BF00BF00BF00BF27
:1021C00000BF00BF00BF00BF00BF00BF00BF00BF17
:1021D00000BF00BF00BF00BF00BF00BF00BF00BF07
:1021E00000BF00BF00BF00BF00BF00BF00BF00BFF7
:1021F00000BF016191E7002EB7D05170856B0E4E84
:1022000035408563B1E7002EBED01170856B0B4E53
:1022100035408563B8E7002BC5D09170816B084AC3
:1022200011408163BFE7000040420050BF01002021
:102230004800002040000440DFDFFFFFFDFDFFFFFE
:10224000EFEFFFFF70B5FEF74FFB00F005FC032139
:10225000294809020160016802221143016001243A
:102260004460016880221143016024480025056014
:10227000234E032210213046FFF70AFD01222021C0
:102280003046FFF705FD1E480122E0214038FFF7E8
:10229000FFFC1B48012210214030FFF7F9FC1948D0
:1022A0000561184840384463174C1E21204603F04E
:1022B00099FB6068102108436060080213490860B8
:1022C0004B21C901204603F04BFB114C3222710512
:1022D000204603F019FB2168A003014321600D494A
:1022E00021620D4961620A4920310A6802430A608D
:1022F00000F014F870BD00000040004000010050E4
:1023000040400050404200500000054000E100E025
:1023100000000140FF0000081BB700000F480E49F5
:1023200001600F49416081680E4A11438160FF21BD
:10233000C1600161C161016200214162816241634A
:10234000816306494031CA6933231A43CA618168EF
:10235000054A1143816070473B003B000000044088
:102360003300330088008800110011000E4800215E
:10237000027A002A0BD0827B521CD2B28273FA2AD4
:1023800005D381730172094B417201221A70C27B1D
:10239000002A07D00278521CD2B20270FA2A00D367
:1023A000C173704701707047110000204700002082
:1023B000F0B55548554BC57855480021554C564AFF
:1023C00089B0012D06D01D78052D11D26D1C1D7010
:1023D00009B0F0BD4C4DE970FF25257011704F4AD2
:1023E0004F4C11702278521C227001701970EFE767
:1023F00000211970484907780E78711CC9B2039101
:1024000044490D786B1ED9B20791444909784B1C99
:10241000DBB20593731EDBB206936B1CDBB2049335
:102420004B1EDBB208933B0003F08EFB0B070D1332
:102430001A21283035393D424700FF2E01D203983A
:1024400011E0012137E0002D01D0079812E00221B0
:1024500031E0324BFF2901D2059813E003212AE035
:10246000002E02D00698107038E0042123E0FF2DE2
:1024700002D20498207031E005211CE0274B00298E
:1024800002D00898187029E0062114E0234BFF2998
:10249000E2D307210FE0002DD7D108210BE0FF2E5A
:1024A000CDD3092107E01D4B0029EAD10A2102E022
:1024B000FF2DDED30B21017010E0002ED2D10021C0
:1024C0000170184803785B1CDBB20370142B05D92C
:1024D00001700D490120C87013490870134800218C
:1024E00001700E4E23781249157834780278560020
:1024F00096198B557618521C7570D2B2B470027052
:10250000032AF3D364E700002600002036000020F1
:10251000F70000202E0000202F00002030000020B7
:10252000C50000203A000020160000202C000020EA
:10253000BF010020F0B518481849C778184A194D4E
:102540000024194E194B012F05D02F78082F0ED2D9
:102550007F1C2F70F0BDC4701C700C7014700022B2
:1025600011461046FDF75AFE2C703470F0BD2C70E9
:102570003578EF0700D1FF241C706D1CECB234706D
:10258000052C03D9447804700124C47012780978AA
:102590001878FDF743FEF0BD260000202F00002034
:1025A0003000002036000020F70000202E00002020
:1025B000F8B57749774FCA780024012A6DD076495B
:1025C00000220A707548744C0188724DC91D018043
:1025D0002078295C491C2954FDF7AAFDC0B20521C9
:1025E000FDF790FD2478285D814255D200202855C2
:1025F0006B4801782046FDF785FD6A486A4F0170F7
:1026000048000E18B85D3221FDF77CFD674905468C
:102610000870F71978783221FDF774FD6449064691
:102620000870B8783221FDF76DFD62490870624983
:10263000095D002957D061006118604A604F8C46DF
:10264000525C395D0B466B439A420CD85B4A0F468D
:10265000624453787743BB4205D892784E4B584F2B
:1026600041438A427ED9574900220A705349554A4C
:102670001778E2195300D2188B5C5B1B8B545218ED
:1026800053789B1B537093781B1A93707F1C3A06E8
:102690004C4B120E1A70EAD071E04A4DCC70474E86
:1026A0002C70287841004118745489194C708C7032
:1026B00041493C540C5439490888421C0A80FDF7B2
:1026C00040FDFDF735FDC0B21921FDF71BFD3C4A69
:1026D00028781A311154401CC0B228700328E0D366
:1026E00039480470F8BD61006118344A344F8C4693
:1026F000525C395D0B466B439A420CD32F4A0F460E
:10270000624453787743BB4205D39278224B2C4FD7
:1027100041438A421AD22B4A002111702749294A83
:102720001778E2195300D2188B5C5B198B5452183E
:1027300053789B19537093781B1893707F1C3A063B
:10274000204B120E1A70EAD019E00BE01A48012152
:102750001D460155FDF7ECFCC0B20A21FDF7D2FC85
:1027600028780BE0144900201D460855FDF7E0FCD1
:10277000C0B21921FDF7C6FC28781A313954064831
:102780000178491CC9B20170032900D21AE7F8BDCB
:1027900026000020C5000020350000202400002075
:1027A0002A00002034000020950000203100002085
:1027B0003200002033000020F7000020BF0100207D
:1027C000290100202C00002036000020FEB58C4995
:1027D0008D4ACB788B48127800928C4C8C4F857840
:1027E00046780278012B06D08A490B78282B7DD2B7
:1027F0005B1C0B70FEBD0023CB7032211046FDF731
:1028000081FC85490870019032213046FDF77AFC41
:1028100082490646087032212846FDF773FC80493C
:10282000054608700098012830D07E4900200870C5
:102830007C4E009930780446FDF764FC7A48734A70
:102840000170002010706F484B00C918435C0818D5
:102850004578877811786018460086196C4883554A
:10286000301845708770491C0806000E1070F1D0B2
:10287000641C6C49E0B208700328D9D36549002074
:1028800008706A49087068490870FEBD0020207011
:10289000C0B207460099FDF735FC63480170F807A0
:1028A000019815D03221484379007A1858493223CB
:1028B0008854304658435118487028461A465043A9
:1028C00088707F1CF8B220700328E1D3D6E70DE0B2
:1028D0000A21484379007A184D490A238854304622
:1028E00058435118487028461A46E8E700230B70F1
:1028F00000994F4B012949D04B4D2A78510051186E
:10290000465C1E70081802964A4943780B7081781D
:102910004948521C0170D0B20191287000999C4620
:10292000884201D3002028703E48022101703846B9
:10293000002121703B490B78257859194A008E18DF
:102940003218114620394F7F87558E7F5670C97FC8
:1029500091706D1C2906090E2170EDD05B1E314966
:102960001A06120E0A70E3D100212170CAB251007A
:102970005118029B4354091863464B70019B8B709E
:10298000521C1106090E2170F0D0FEBD27480178B7
:10299000002906D027491A700E7027490D700021B2
:1029A00010E01D4914220978514319701B49097818
:1029B0005143204A11701A491422097851431E4A82
:1029C00011700121017002202070384625786900BD
:1029D0006E183218114620394F7F87558E7F5670FA
:1029E000C97F91706D1E2906090E2170EED11978EC
:1029F00001701049097841700F4909788170FEBD56
:102A000026000020950000202A0000202C00002035
:102A1000BF010020360000203100002032000020DD
:102A2000330000203500002034000020F700002093
:102A30002E0000202F0000203000002010B559216A
:102A40000448162288230160026003600468002C99
:102A5000F9D010BD0001005010B5592104481622CC
:102A600088230160026003600468002CF9D010BD67
:102A700000010050F8B56B486B4DC0786B4E0024D8
:102A8000012805D02878052837D2401C2870F8BDC9
:102A900064486849C4706648047002785300D318CB
:102AA000CC545B18521C5C70D2B29C700270032A2A
:102AB000F3D3614832210470604834700470604878
:102AC0002C7004705F48624D04705F4804705F486A
:102AD00004702878FDF716FB5E490870687832218B
:102AE000FDF710FB5C490870A8783221FDF70AFB5E
:102AF0005A4908705A480470F8BD4C482C70077841
:102B00005448514900780A78844653484F4906781A
:102B100052484A4B05784B48097800781B78002FBB
:102B200004D0012F1FD0022F66D127E05F00DB19F0
:102B3000474FFF5C874207D8454FDF197B789342A8
:102B400002D8BB788B4208D93E4F604438703E486B
:102B5000921902703D4849191DE034480121017065
:102B60003748047048E036480178491CC9B2017002
:102B7000322941D304702D4802210CE00746174347
:102B80000F430AD02F4F6346C01A38702E48921B4D
:102B900002702E48491B01702EE024485B1C047013
:102BA0002648D9B22F4A0170127891420DD32E498E
:102BB00004700A78521CD2B20A70062A05D90C7029
:102BC000184A0121D170294A11700078204D410026
:102BD0004618A85D3221FDF795FA1E49751908704F
:102BE00068783221FDF78EFA1B490870A8783221E7
:102BF000FDF788FA194908700D48134B0470114C01
:102C0000124A1E780B49257813780278540014195B
:102C10000D556418521C6670D2B2A3700270032A5C
:102C2000F3D3F8BD2600002036000020F700002076
:102C30002C000020BF010020C5000020340000202F
:102C4000290100202E0000202F000020300000204D
:102C500095000020310000203200002033000020C9
:102C6000460000202A0000203A0000201600002024
:102C700006498A691202FCD408600A2804D18869CE
:102C80000002FCD40D2008607047000000000540E1
:102C9000F8B5254E0023F178244C2548012913D09E
:102CA0000188244D491C8AB201210280012A16D0D4
:102CB0001746FF3FCD3F05D005277F02BA4210D10E
:102CC000022012E0217011E0F37003801A48237093
:102CD0000022037011461046FDF7A0FAF8BD2370DC
:102CE00004E0164FBA4203D103202070297006E099
:102CF000134DAA4203D103801248F170017020786D
:102D0000002808D0012809D002280AD00328E5D1DC
:102D100000F0A2FAF8BD00F017F8F8BD00F0C6F810
:102D2000F8BD00F041FAF8BD260000203800002070
:102D30003E0000203900002041000020840D0000EA
:102D40009411000016000020FEB54A484A4D017853
:102D500000244A4E012905D02878022819D2401CA7
:102D60002870FEBD0022047011461046FDF756FA89
:102D700043482C700470434804704348047043482F
:102D8000047043480470434834700470424804702F
:102D9000FEBD00202870394801783C480078401C6E
:102DA000C4B237480029077836480678364805788F
:102DB0003748007802D0012953D133E04100401850
:102DC00036490090085C1921FDF79CF9014634480A
:102DD0000170019131490098401802904078192102
:102DE000FDF790F901462F480170009102981921D2
:102DF0008078FDF787F92C49214A08700199281835
:102E00007918117000991F4A711811701E49192CF8
:102E100008701E48047024D3002101701748012156
:102E200001701EE01E4A16491278BA1A0A701D4A2D
:102E300014491278B21A0A701B4A13491278AA1A56
:102E40000A701249192C0C700BD300220A700B4B1C
:102E5000401C0F49C0B21A700870022801D9022024
:102E60001870094802780748017805480078FDF78E
:102E7000D5F9FEBD390000203600002040000020BA
:102E80002E0000202F000020300000202B0000200A
:102E90003400002037000020410000209500002071
:102EA000310000203200002033000020F0B5B0488F
:102EB000B04C0178B04F00268BB001292DD0AF4A1D
:102EC000204601781278AE4B384600781B78521CA9
:102ED000D2B20A920493AB4A5B1C12780992521C3C
:102EE000D2B20892DAB203924A1CD5B2A64A401C6A
:102EF0001378C0B25A1CD2B20192A44A14785A0074
:102F00009A18A34B0692D2180B0002F01DFE091E60
:102F10004991D391D391D3FEFD0000220670114652
:102F20001046FDF77BF93E709A4826709A4A067063
:102F300001785654491CC9B201703229F8D391481E
:102F400006708E4806708E4827E03870052825D315
:102F50003E708A480A990170032912D906700998AF
:102F6000884A03280DD24100401889498B4B0C5CDC
:102F70001C5441184C78C0184470897881700898A6
:102F800010707F4903980870322807D379480121CF
:102F900001708348062101707A4806700BB0F0BDBD
:102FA00038700A28FAD30020387074480A990170E2
:102FB00003292CD300210170764802210170754845
:102FC000764902785000161873181F46203F787F04
:102FD0008855B87F5870F87F9870521E10066D495A
:102FE000000E0870EBD16E48694A037859005E18EC
:102FF000975D6A49B2180F7056784E7092788A7051
:103000005B1CD9B20170A14201D300210170654956
:103010000878401CC0B208705028BFD30020087048
:1030200054490D70574908705549087056493FE09A
:1030300038701428B2D3002038705648022101702D
:103040005448564B0078410046188446F11808460B
:103050002038477F9F55837F4B70C07F88706046C4
:10306000401E00064B49000E0870E9D14849069BF6
:103070004548CB5C49490B7053784B7092788A7005
:1030800001990170A14201D3002101703C49039ACA
:103090000A70082A82D3374A15700278521CD2B2BD
:1030A0000270A24201D3002202700020087035494C
:1030B000087073E738701428FBD300203549387046
:1030C000087034483549037858001E187018C778BE
:1030D0008F5501794170417981705B1CD8B22D49BF
:1030E00002280870EDD32A48069B2749C35C2B4869
:1030F00083715378C3719278027201980870A0426C
:1031000001D30020087001E02DE006E004981C497E
:103110000828CED317480570C7E738700A28C8D3E7
:10312000002038701B4B022018701C481C7861006E
:1031300066183218114620394F7F87558E7F56709A
:10314000C97F9170641E2106090E1970EED10170BD
:10315000417081700B4A089810700828A9D305485F
:10316000057011701AE70348FF21017016E700008F
:1031700039000020400000203600002037000020E9
:10318000410000203B000020340000202A000020E5
:10319000950000202B0000208D010020BF010020A1
:1031A0005B0100203C000020F8B52048204D01784C
:1031B000204E0024204F01291CD02878401CC0B28A
:1031C0002870082815D32C703078394609780328E0
:1031D00022D24A008A1819494300C4188D5C184B42
:1031E00051181D55E2184D78557089789170401C22
:1031F0003070F8BD0022047011461046FDF70EF83D
:1032000010482C7004703C700F48347004700F48E4
:1032100004700F480470F8BD491CC8B234700D49E1
:10322000387009788842F6D33C70F8BD3900002028
:10323000360000203B0000203400002095000020D4
:10324000BF010020400000203C000020370000208B
:103250005B0100202A000020F0B59E480024017880
:1032600085B0012922D09C48A34B07789B48007861
:1032700003909B48007802909A48007801909A4801
:103280001B78067899485D00017899485B190278A7
:1032900098489A4D00785D19401C0093C0B23B00DD
:1032A00002F052FC052F6D97B1E06B000022047014
:1032B00011461046FCF7B2FF88488F4D04708848CD
:1032C0008E4E047087480470287841004718F05DDE
:1032D0001921FCF717FF8449BE190870707819216D
:1032E000FCF710FF81490870B0781921FCF70AFF3C
:1032F0007F4908707F480470814804702C707648BC
:10330000AEE07C4B0828187037D31C700398734BC1
:103310008019C0B21870029E714B7118C9B2197031
:10332000019F704BBA18D2B2704D714E1A70FCF7F3
:1033300075FF73480178491CC9B201700A291CD96C
:10334000047065480178491C01706E48047035E0CE
:1033500000786A4C41004718E05D1921FCF7D2FE65
:1033600061493C19087060781921FCF7CBFE287080
:10337000A0781921FCF7C6FE307005B0F0BD300111
:10338000801B564BC0B218700B01591A544BC9B26E
:10339000197013019A1A534BD2B2544D544E1A70ED
:1033A000FCF73CFF57480178491CC9B20170282935
:1033B000E3D9047048480178491C01704E48524ACC
:1033C0000178491CC9B2017012789142C0D30470CF
:1033D000BEE74A480099424A405C4049414B087068
:1033E00069781170AA781A70FCF718FF45480178BF
:1033F000491CC9B201705029BFD904703648017800
:10340000491C017064E03B4B06281870B5D31C7052
:103410000398324B801BC0B21870029D304B691A62
:10342000C9B21970019D2F4BAA1AD2B21A70FCF7BB
:10343000F5FE33480178491CC9B201700F299CD9A7
:10344000254904700A78521C0A702E492F4A0C70C4
:1034500001785454491CC9B201703229F8D32C4860
:1034600004708AE723490528087086D30C70284920
:103470000878032808D24200264B82189C54D218A0
:1034800054709470401C087023480178491CC9B2DC
:1034900001703229E5D310490C7004700F48047094
:1034A0000F4804700F48047014480099405C1921BB
:1034B000FCF728FE0C49087068781921FCF722FEF9
:1034C0000A490870A8781921FCF71CFE0849087001
:1034D0000B48C5E739000020400000202E000020E6
:1034E0002F0000203000002031000020320000209A
:1034F000330000203600002034000020950000201A
:103500002B0000203C0000202A0000208D0100201C
:103510003B000020BF01002041000020F8B5284EEC
:103520000024F178274B284801290DD00188274D28
:10353000491C8AB201210280012A0ED0CD27FF004A
:10354000BA420CD1197019E0F470048000221C708A
:1035500011461046FCF762FEF8BD1C700EE01C4FD1
:10356000BA4201D1022008E01A4FBA4201D1032029
:1035700003E0194FBA4203D104201870297006E005
:10358000164DAA4203D104801548F17001701878D5
:10359000030002F0D9FA0505080B0E110400DBE761
:1035A00000F048F9F8BD00F01DF8F8BD00F0AEFAE3
:1035B000F8BD00F0DFFBF8BD00F004FEF8BD000030
:1035C00026000020380000203E00002039000020A6
:1035D000520D00006E0F000092130000581B0000F7
:1035E00016000020F8B57F487F4D01787F4E0024FB
:1035F00001292DD02878401CC0B22870052826D378
:10360000002028707B49304607780D787848691C7F
:103610000078CBB2794E6900401C6A18764C91193B
:10362000C0B2002F2DD0012F63D0724F032D07D2CF
:10363000A55CB554121954784C7092788A703B701E
:103640006B492828087002D36848FF210170F8BD33
:103650000022047011461046FCF7E0FD6848032183
:1036600001702C7067483470674A047001785454B4
:10367000491CC9B201703229F8D35E4804705C4815
:1036800035E0032D0CD25E4D2D786F00ED19675D8E
:10369000B7542A1954784C7092788A7055490B7037
:1036A000534932280870D2D350490120574D087031
:1036B0000024574E574F2C7057490888113080B25C
:1036C0000880FCF73EFDFCF733FDC0B21421FCF787
:1036D00019FD524A28781154012139543454401CA0
:1036E000C0B228703228E7D34D4804704D480470AA
:1036F000F8BD464D0020474F2870C0B2395C002904
:1037000009D0012917D0420000218218B154921922
:10371000517091702CE03A4909784A008A18A35CEC
:103720004100411873541219537889194B709278DB
:103730008A7001211CE0364B38491A5C521CD2B207
:103740001A54095C8A4214D9002119543249088854
:10375000113080B20880FCF7F4FCFCF7E9FCC0B241
:103760001421FCF7CFFC2D4A28781154395C491CF0
:1037700039542878401CC0B228700328BDD328488B
:103780000178491CC9B201703229B1D90025174FFF
:1037900005701B4E3D703078234A41004118605C33
:1037A00010700A19214B51781970214B92781A70B8
:1037B000FCF734FD3078401CC0B23070052801D9C8
:1037C000022038700F48104A057001785554491C82
:1037D000C9B201703229F8D3064805700448057053
:1037E000F8BD000039000020360000204000002015
:1037F000410000203B00002095000020BF01002078
:10380000340000202B0000208D0100202C0000201F
:10381000C5000020F700002024000020290100201E
:103820003C000020370000202E0000202F00002048
:1038300030000020F0B5A649A6480D780478A64BC4
:10384000A64A85B0012D4CD018460778A448A54952
:1038500000780B78401CC1B25B1CD8B28446781C3F
:10386000C0B2A14B0090002F61D018469F4E057842
:10387000367801966E00681CAE199D4DC0B2751960
:10388000012F974F39707DD00A2928D30021397034
:103890000199002977D0012976D0022975D0954960
:1038A00000270F70924FBE5D00966E78AF78B446D9
:1038B0000B78009E5D005D195655AD1866465B1C81
:1038C0006E70DBB2AF700B70032BF1D38649A04250
:1038D000087001D30020087084490020087005B0EA
:1038E000F0BD0020087084497D4D08702870814D1E
:1038F00018707F4F2870C0B221460646FCF702FCC4
:103900007D48017048000A1870003118BB5C73488C
:10391000D219435453780818437091788170761CFB
:10392000F0B228700328E6D300206E49D6E76C4831
:1039300014290170D3D300270770704910780870DC
:1039400003906F495078087002906E499078087023
:10395000019068480770047861006518A918CE784E
:1039600056550D794D704D798D70641CE1B2017022
:103970000229F0D3039890710298D07101981072C7
:10398000584803E012E075E084E092E0614601707F
:103990001429A4D307705048009901705648077045
:1039A00059480770514807701F7098E70A2996D345
:1039B00000213970019900292ED001293BD002291C
:1039C00049D04C4900270F70494FBA5D02926A787E
:1039D0000192AF780B78029E5A009D183F4A5B1CFB
:1039E0005655AA18019E56709770DAB20A70032ACB
:1039F000F0D33D49A042087001D3002008703B4934
:103A0000002008703748614601706429CDD3002139
:103A10000170314800993BE03549A042895D117041
:103A200069785170A9789170187001D300201870CE
:103A30002E4801210DE02E49A042895D91716978DF
:103A4000D171A9781172187001D30020187027481D
:103A500002210170D6E72649A042895DD1706978BC
:103A60001171A9785171187001D3002018701F4886
:103A70000321EEE71E49A042895D117069785170FB
:103A8000A9789170187001D300201870174801218F
:103A9000017024E71649A042895D91716978D1715E
:103AA000A9781172187001D3002018700F480221F4
:103AB000EEE70F49A042895DD17069781171A9784C
:103AC0005171187001D30020187008480321DFE7F6
:103AD000390000202A00002040000020BF01002003
:103AE000360000203C0000205B010020F700002091
:103AF000950000202B000020340000202E00002024
:103B00002F000020300000203B000020F0B58C4941
:103B100000200A788B4C89B0012A18D08B498A4D35
:103B200009782678491CCAB289492D780B785F003C
:103B3000591CDF19874BC9B2FB18002E11D0012E7A
:103B400025D0022E37D0032E4CD005201CE0087063
:103B50007F490870804908707C49207008707F494F
:103B60003EE07C4E142AF75D7D4E37705F787770AB
:103B70009B78B370754B1A7007D3754A1870117023
:103B8000A94200D310700120207009B0F0BD714E21
:103B9000142AF75D724EF7705F7837719B787371F6
:103BA0006A4B1A70F1D36A4A18701170A94200D397
:103BB00010700220E8E7674E142AF75D684EB7716F
:103BC0005F78F7719B783372604B1A70DDD3604A6F
:103BD00018701170A94200D310700321217061493F
:103BE0000870D2E75C490A78521CD2B20A70022AE5
:103BF000CBD3002008705A4802780592477886781F
:103C00005648007807904100411852480D18002A84
:103C100003D1002F01D1002E20D04E48405C192145
:103C2000FCF770FA02465048192102700492687835
:103C3000FCF768FA02464D48192102700392A878F1
:103C4000FCF760FA4A490870059B049A44499A1A9D
:103C50000A70039ABA1A4A70301A8870414800787C
:103C600008900F2829D33E48C178059107794679F5
:103C7000002903D1002F01D1002E1ED0E878192190
:103C8000FCF740FA38490870049028791921FCF7AC
:103C900039FA36490870039068791921FCF732FA2D
:103CA000024633482E490270059B0498181AC870C2
:103CB0000398381A0871B01A487108981E2828D33A
:103CC000274881790491C779067A002903D1002F0A
:103CD00001D1002E26D0A8791921FCF713FA224928
:103CE00008700090E8791921FCF70CFA1F49044686
:103CF0000870287A1921FCF705FA1D490246087058
:103D0000049B00981649181A8871381BC871B01A9C
:103D1000087208981F2800D337E712480178491C19
:103D2000017032E700202070079A0C49D21CD2B2F1
:103D30000A70092A01D3042121700A490870ECE7AE
:103D400039000020400000202A0000203C00002014
:103D5000340000209500002036000020F7000020ED
:103D6000BF0100203B000020310000203200002075
:103D700033000020F0B5FE4900240A78FD488BB0DE
:103D8000012A28D00778FC48002F00788446FB4899
:103D900000780090FA4800780690FA480378FA48CC
:103DA0000178FA48027844D0F248FA4E0078401C74
:103DB000C0B20590F648367800780996451CEDB2F9
:103DC000012F7CD0022F7BD0032F7AD0E949042029
:103DD00008700BB0F0BD0C70EE4DEF492C700C70FC
:103DE0000470EB4800220470EC4811460470EC4863
:103DF00004701046FCF712FADF480470DF480470C4
:103E0000DF4804702878E74C41004518605D1921AF
:103E1000FCF778F9DB492C19087060781921FCF758
:103E200071F9D9490870A0781921FCF76BF9D749C5
:103E3000CEE76046D04EC018C0B23070009ECF4B67
:103E40007118C9B21970069ECD4BB218D2B2CD4DC1
:103E50001A70FCF7E3F9D2480178491CC9B2017025
:103E60001929B6D3C348CF4E0178491C0170C948FF
:103E7000017848000F18F05D1921FCF743F928700C
:103E8000BD1968781921FCF73DF9BF490870A87879
:103E90001921FCF737F9BD49C34D0870BC48C34E22
:103EA0000470BF48C24F04702C70C2482978445433
:103EB0003088113080B23080FCF743F902E010E026
:103EC00092E00AE1FCF734F9C0B20521FCF71AF9D7
:103ED0002878491D3954401CC0B228703228E4D3D8
:103EE00077E7032839D2B0480470AF48B14D007865
:103EF0002D5C012D2AD0B04DAD4F2E5C761CF6B254
:103F00002E543F5CBE420DD32C5445004619AB4D98
:103F1000AF5DFF1AAF5575196E78761A6E70AE7870
:103F2000B61AAE7045004619A44DAF5D002F0DD1F5
:103F300075196E78002E09D1AD78002D06D1944DFB
:103F40002E78761C2E709B4E01253554401C964DC4
:103F5000C0B228700328C8D301E08D4805708C4892
:103F600001783729BCD304708248059901700999FA
:103F70008848491CC9B2924A01701278914200D314
:103F800004700078874D41004618A85D1921FCF7A0
:103F9000B9F87C497519087068781921FCF7B2F8EE
:103FA00079490870A8781921FCF7ACF877497E4D5B
:103FB00008707E4E7E4F2C707E482978445430889D
:103FC000113080B23080FCF7BCF8FCF7B1F8C0B219
:103FD0000521FCF797F82878491D3954401CC0B2D8
:103FE00028703228E8D3F4E66A4E36787700F6195E
:103FF0006C4F0196F6190696032843D26A4804705E
:1040000069486C4D00782D5C012D34D06A4F684DA5
:104010003E5C761CF6B23E542D5CAE420DD33C5451
:104020004500664F45197E5DF6187E55ED196E7890
:1040300076186E70AE78B618AE70450046195F4DB2
:10404000B446AF5D574D019EAD5DAF4213D15B4DA0
:1040500066467719069D7E786D78AE420BD1069D37
:10406000BE78AD78AE4206D1494D2E78761C2E70C2
:10407000504E01253554401C4B4DC0B228700328CA
:10408000BED301E042480570414801783729AAD3E0
:10409000047038480599017042480199445C19211F
:1040A0002046FCF72FF80146364801700698192182
:1040B00046783046FCF726F83349087006981921EF
:1040C00085782846FCF71EF8304908702A480470A5
:1040D0002A4806702A4805707BE66046264DC01ABD
:1040E000C0B22870009B254D591AC9B22970069B91
:1040F000234E9A1AD2B23270FCF790F82848017811
:10410000491CC9B201701929E6D3047021482C4A10
:104110000178491CC9B201701278914200D3047031
:104120000078410047181F481921C05DFBF7EAFFDE
:10413000144908701B4819213F187878FBF7E2FFF3
:1041400011490870B8781921FBF7DCFF0F49087096
:104150000948124904702C700648347004700A78BB
:10416000521CD2B20A70022AB6D30421017030E682
:1041700039000020400000202E0000202F000020E9
:1041800030000020310000203200002033000020E9
:104190003B000020340000203600002037000020C3
:1041A00041000020950000202C0000202400002069
:1041B000290100208D010020C5000020BF01002042
:1041C0002A000020F8B54F48002701784E4C4F4D8B
:1041D0004F4E012912D10022077011461046FCF7FC
:1041E0001DF84C4807704C4807704C4807704C4805
:1041F000077027702F704B4837700770464801785A
:10420000491CC9B20170032972D90770444801786A
:10421000491CC9B20170282908D907703F480178A4
:10422000491CC9B20170052900D907703B480078C4
:10423000030001F089FC06040B12192129303770A4
:104240002078401D20702878C01F13E02F70307830
:10425000801F30702078093014E027702878C01D46
:1042600028703078001F15E037702078401F2070CC
:104270002878083028700EE02F703078C01C30701D
:104280002078C01F207006E0277028780838287032
:104290003078C01C3070234923480A78002A17D090
:1042A000012A1DD0022A24D0204A002313702F781F
:1042B0002478357813785E009E19845536185B1C77
:1042C0007770DBB2B5701370032BF3D300200EE0D0
:1042D000227802702A78427032788270012006E0DB
:1042E000227882712A78C2713278027202200870B4
:1042F000F8BD2278C2702A780271327842710320A8
:10430000F5E70000390000202E0000202F000020DB
:104310003000002034000020360000204000002043
:1043200037000020F7000020BF0100202B000020F4
:10433000F8B5274E0024F178264B274801290CD0E8
:104340000188264D491C8AB201210280012A0DD024
:10435000234FBA420CD1197019E0F4700480002286
:104360001C7011461046FBF759FFF8BD1C700EE09B
:104370001C4FBA4201D1022008E01B4FBA4201D1C2
:10438000032003E0194FBA4203D1042018702970AA
:1043900006E0174DAA4203D104801648F17001705F
:1043A0001878030001F0D0FB0505080B0E1104007E
:1043B000DBE700F021F8F8BD00F0DCFAF8BD00F012
:1043C000B5FDF8BD00F04CFEF8BD00F035FFF8BDBE
:1043D00026000020380000203E0000203900002088
:1043E000640A0000E614000044160000CD19000025
:1043F0003421000016000020F0B5FD48FD4D017885
:1044000000278BB001292AD0FB482A780378FB4883
:104410005B1C0478FA48DBB201780993531CDBB2C9
:104420000693F84B491C1E78641C731CDBB208937E
:10443000F54BC9B21B7807935B1CDBB20593F34BBA
:10444000E4B21B7800937300F318F14E03939E19A6
:10445000130001F079FB051754ABFDFCFB000022B3
:10446000077011461046FBF7D9FEE6482F7007701B
:10447000E5480770E7480770DF480770DF480770B6
:104480000BB0F0BD01700529FAD300210170DA48A4
:1044900009990170052922D300210170DE4902200B
:1044A0000870DE48DC4909784A008B188C461A18D7
:1044B000114620394F7FC7548B7F5370C97F91704D
:1044C0006146491E0A06D449120E0A70EAD1D04943
:1044D000039A895C017071784170B1788170C74826
:1044E000322C0470CCD30022027006982870C54884
:1044F00008990170009B9942C2D30270C0E7017015
:104500000529BDD300210170BB4809990170052917
:104510001DD300210170C04AC0481170BE490A78FD
:10452000510053181918CF78C7540B794B704B7939
:104530008B70521CD1B2B84A02291170EED3B44923
:10454000039A895C81717178C171B1780172AB484D
:10455000282C047094D300210170AA48089A027094
:10456000009B9A4200D30170AA4E29703078401CFB
:10457000C0B23070022883D9317002202870A2485E
:10458000A54B0170A64DA54AA64F19701878440096
:1045900004191155A4186170A1702954315438546C
:1045A000401CC0B218700328F0D369E701700529D8
:1045B000A4D30021984F0170397099483E78815DED
:1045C000491CC9B28155B14256D300238355914845
:1045D000805D002802D001284ED14EE070003018D6
:1045E0008E490590095C8F480391805D42008018D8
:1045F000874A0790105C81420FD38849059A511869
:104600008C464B788249079A521851788B4204D3D2
:1046100061468978927891422BD21921FBF772FD7D
:104620008149087002907A490798401808904078AC
:104630001921FBF767FD7D4908700790089819213B
:104640008078FBF75FFD0346794802E07CE164E196
:104650006FE00370039A029970485118059A8154CB
:10466000059909184A780798101848708A78D01860
:1046700042E06848012181554BE0700030186749DD
:104680000890085C0390002808D16448089908182D
:104690004178002902D1807800282FD06148805DC0
:1046A000410040185A490590085C1921FBF72AFD82
:1046B0005D49087002905649059840180590407869
:1046C0001921FBF71FFD594908700790059819211A
:1046D0008078FBF717FD034655480370039A02994B
:1046E0004E48511A089A8154089909184A7807982F
:1046F000101A48708A78D01A88700AE045488355A5
:104700004848815D491CC9B28155009A914200D345
:104710008355761CF0B23870032800D24DE7374835
:10472000322C047000D2ABE600210170069828708C
:10473000A6E601700529F6D30021374F01703970C4
:1047400037483E78815D491CC9B28155B14271D369
:10475000002181552F48805D002802D0012869D1B1
:104760006DE0700031182D480691415C2D48039191
:10477000805D42008018264A0790105C81420FD36A
:104780002649069A51188C464B782149079A5218A7
:1047900051788B4204D361468978927891424AD20B
:1047A0001921FBF7AFFC20490870029018490798BF
:1047B0004018089040781921FBF7A4FC1B490870A9
:1047C0000790089819218078FBF79CFC034618484D
:1047D0000370039A029911485118069A8154069958
:1047E00009184A780798101848708A78D01865E038
:1047F0003900002040000020370000204100002048
:1048000036000020340000203B0000202A00002059
:1048100095000020F70000202B000020BF010020A1
:10482000C50000205B010020310000203200002084
:104830003300002050E04548012181554CE07000D4
:104840003018434A0790105C0390002808D1404874
:10485000079A10184278002A02D1807800282FD0B9
:104860003C48805D410040183B490690085C192196
:10487000FBF748FC39490870029037490698401800
:10488000069040781921FBF73DFC354908700890E7
:10489000069819218078FBF735FC324903460870E9
:1048A000039A02992A48511A079A815407990918BC
:1048B0004A780898101A48708A78D01A88700BE0E5
:1048C0000B46224923488B55815D491CC9B281554D
:1048D000009A914200D38355761CF0B238700328B9
:1048E00000D22DE72049322C0C7000D2C8E5002000
:1048F0000870022129701D49059A0A70022AF5D90B
:104900000870042129701A4A387039785054491CAB
:10491000C9B239703229F8D3B2E501700529E5D35F
:10492000077007981149032808D2420082180848E6
:104930008754101847708770059808700A48322C01
:104940000470D3D30520F2E6FF20F0E6F700002044
:10495000BF0100205B0100209500002031000020F5
:104960003200002033000020410000203B000020E6
:104970008D010020F0B5FF48FF4D017800248BB079
:1049800001292FD02E78FE4907960B78FD49FB4868
:104990000F78FD4900780A78FC49401C0978C0B2BC
:1049A0005B18DBB20993FA4B1B780093FB18DBB260
:1049B0000893F84BF94F1B780293D218F64BD2B2FA
:1049C0001B7803905B1CDBB20693F54B38781B78A1
:1049D0000193330001F0B8F8092C4C7CFCFAF9F88B
:1049E000F8F8F7000022047011461046FBF716FC99
:1049F000E9482C700470EB4819210470EA480470EF
:104A0000EA480470DD480470E94C2078FBF77AFB33
:104A1000DE49087060781921FBF774FBDC490870E7
:104A2000A0781921FBF76EFBDA4908700BB0F0BDD6
:104A300088000818D249C0B2087000998A00891805
:104A4000D04AC9B21170029B9A009A18CE4BD2B2CA
:104A50001A70FBF7E3FBD5480178491CC9B2017015
:104A60000A29E3D904702878401C28703C70DDE7DF
:104A7000C34909980870C34B08991970C24B1A7042
:104A8000FBF7CCFB3978491CC9B239701429CDD356
:104A90003C702878C84E401C2870C64DC74F2C70FB
:104AA000C748297844543088113080B23080FBF7F1
:104AB00048FBFBF73DFBC0B20521FBF723FB287841
:104AC000491D3954401CC0B228703228E8D3ADE7E4
:104AD000032839D2B74A1470B94B10781B5C012BEC
:104AE0002CD0B84BB54F1E5C761CF6B21E543F5C02
:104AF000BE420FD31C544300C618B34B9F5D7F1AB0
:104B00009F55F3185F78009EBE1B5E709F78029ED3
:104B1000BE1B9E704300C618AB4B9F5D002F0DD18E
:104B2000F6187378002B09D1B378002B06D19B4B74
:104B30001E78761C1E70A24E01233354401CC0B256
:104B400010700328C8D302E09449401C08709348B1
:104B5000007837288BD39348047094482C700470E5
:104B60008D4806990170019A914200D30470007833
:104B70008F4E41004718F05D1921FBF7C3FA8349B6
:104B8000BE19087070781921FBF7BCFA80490870CB
:104B9000B0781921FBF7B6FA7E4908707F48047097
:104BA000764803990170022991D904700320287076
:104BB0008648834A047001785454491CC9B2017074
:104BC0003229F8D332E79EE1A0E096E06BE0FFE700
:104BD0003E46032865D27E4F77490888113080B25F
:104BE0000880FBF7AEFAFBF7A3FAC0B20321FBF78C
:104BF00089FA73483970405C0128EDD0CAB2704917
:104C0000012088543078401C30705B48684D017832
:104C1000491C01705948047059480470594804707F
:104C2000594804705C48017848000F18E85D192164
:104C3000FBF768FA55497D19087068781921FBF768
:104C400061FA53490870A8781921FBF75BFA5149BA
:104C5000087054480178491CC9B201703229B1D397
:104C6000454905220A7004703470524D524E534F1C
:104C70002C705348297844543088113080B23080E9
:104C8000FBF75FFAFBF754FAC0B21421FBF73AFACC
:104C900028780A313954401CC0B228703228E8D331
:104CA000C4E60420B0E7364B099E1E70354B089EC3
:104CB0001E70354B03281A7010D845480078420002
:104CC00082184148835C5918815410184278009921
:104CD00051184170827802995118817027490398C0
:104CE00008701928DCD3032028702B48069901701E
:104CF000019A9142D4D3047098E6002211461046DE
:104D0000FBF78CFA287877E028708FE6294E002090
:104D10003070C0B203210446FBF7F4F92948012999
:104D2000015D6BD0491CC9B2244A0155125D914204
:104D300053D90027075520460199FBF7E3F9164898
:104D400001702348025D002A7ED04A008A18184963
:104D500094468B5C610061181B4A8E46535414497B
:104D60006246521894465378174A714689184B7018
:104D700062462FE03900002040000020370000206C
:104D80002E0000202F0000203000002031000020E5
:104D90003200002033000020340000203B000020BF
:104DA0002A000020410000203C00002036000020A6
:104DB000950000202C000020240000202901002064
:104DC0008D010020C5000020BF0100202B00002025
:104DD000F700002092788A700755641CE0B23070AA
:104DE000032896D349480178491CC9B20170C829E3
:104DF0008BD9002101700798401C85E7491CC9B276
:104E000001550329E9D30021015520460199FBF7FB
:104E100079F93F48017048000F183E481921C05DDC
:104E20000590FBF76FF93C49087002903948192149
:104E30003F1878780490FBF765F901463748017010
:104E40000891B878192100E047E00390FBF75AF980
:104E5000334908703349095D00291FD06100324A87
:104E60006118525C059B9A420BD32F4BCB189C4682
:104E70005F78049B9F4204D363469B78039FBB42A9
:104E800027D2029F284BD2195A54C9184B78089A36
:104E90009A184A708A78101888709EE76100224A32
:104EA0006118535C002B06D18F187A78002A02D142
:104EB000BA78002A0BD0029F1B4ADB1B5354891877
:104EC0004B78089A9A1A4A708A78101AE4E71548BB
:104ED00016E01449002008557FE74A008F180D4955
:104EE000114AC95D4B08610061185354094ABF1843
:104EF0007A7853080C4A89184B70BA7852088A702D
:104F00000121015569E7FF20FEE600003600002080
:104F100034000020950000203100002032000020E5
:104F200033000020F7000020BF010020F8B5404901
:104F3000404C0878404E414D01280DD0404827781C
:104F4000027830460178284600783B0000F0FCFDEE
:104F5000061F4149515D656D002008703949207078
:104F6000087039493B4B0870FF2129703449307073
:104F7000087036490870364908700A789854521CEF
:104F8000D2B20A70322AF8D333490870F8BD2D4BDB
:104F90001D786D1CEDB21D70052DF7D300252E4E2A
:104FA0001D703378032B09D25E002C4F9E19B85523
:104FB000F0194170827028485B1C03702248017808
:104FC000491CC9B201703229E0D30570012020705C
:104FD000F8BDFF2901D20F311AE002211BE0317820
:104FE00010E0002801D00F381AE003201BE02878D9
:104FF00008E0134BFF2A02D20F321A7001E004229C
:1050000022701A78FBF70AF9F8BD002902D00F398F
:105010003170E4E705212170E1E7FF2802D20F306B
:105020002870E4E706202070E1E7FF20CFE70000CA
:1050300039000020400000202F0000202E0000201A
:105040003000002036000020410000203700002002
:105050002B0000208D0100203B000020BF0100201C
:10506000F8B56649664C0878012815D06548674B45
:1050700000781D78401CC1B263482778027853003D
:10508000501CD618624AC0B2B2183B0000F05CFD5A
:10509000050E24394E80B400002008705A49207053
:1050A00008705C49087057490870F8BD584F564B56
:1050B000BF5D594E32293770577877709278B27049
:1050C000504A1170F1D3002111701870A84200D31A
:1050D000197001202070F8BD4D4F4B4BBF5D4E4EF7
:1050E0003229F7705778377192787271454A11708A
:1050F000F1D3002111701870A84200D3197002205A
:10510000E8E7434F404BBF5D434E3229B7715778B4
:10511000F771927832723B4A1170DCD30021117022
:105120001870A84200D319700320D3E7384D3B49CB
:10513000A85D08703A4B517819703A4B9278324F0B
:105140001A70FBF76BF82F480178491CC9B201703F
:105150003229C0D300260670387841004718E85D30
:105160001921FAF7CFFF30497D19087068781921A5
:10517000FAF7C8FF2D490870A8781921FAF7C2FF7D
:105180002B4908702078401C20702A480670F8BD12
:10519000224925480A780078101AC0B20870204ABF
:1051A000224913780978591AC9B211701D4B204A47
:1051B0001D781278AA1AD2B21A70FBF72FF81D4880
:1051C0000178491CC9B201701929E0D3002101708E
:1051D0000D48217002780D4B521CD2B202701B7820
:1051E0009A4200D301700B480178491CC9B2017082
:1051F0000329CCD905206DE7FF206BE7390000209B
:105200004000002037000020340000202A00002049
:105210009500002036000020BF0100202E00002055
:105220002F0000203000002031000020320000203C
:10523000330000203B000020F8B5954AFF23167884
:10524000944D95490020954C012E0DD00A461278B8
:105250002F78521C0126D2B2002F1FD0012F50D020
:10526000022F7DD02B70F8BD10708D4A2870107001
:1052700008708C4908708C490B708C4908708C49F7
:1052800008708C4908700A78A054521CD2B20A7077
:10529000322AF8D388490870884930E00A70052A14
:1052A000E1D30020844F0870387803280ED27E495D
:1052B0000B784100421882498B547C4B51181B7863
:1052C0007B4A4B7012788A70401C38707B49087892
:1052D000401CC0B208703228C5D300200870704945
:1052E0002E700E70774908704E70724908700A78F7
:1052F000A054521CD2B20A70082AF8D36949087027
:10530000F8BD0A70052AFBD300276E480F7000789D
:10531000654A410043186C49C85C10705A18634BC9
:1053200051781970624B92781A70FAF777FF6748D4
:1053300039460770C9B2625C032A17D2614B5B78A9
:105340005F00DB19604F9C46FB5C5700D2195C4F35
:10535000BB545D4F6346DB199C465B78584F00E0B9
:1053600046E0D219537063469B789370491CC9B2CA
:1053700001700829DED32178491CC9B2217029297E
:1053800001D32921217007210170C9B26218203A86
:10539000D27F6254491E0906090E0170F5D1E179E8
:1053A0002929ADD347494A4B4A78521CD2B24A7098
:1053B0001F78BA4200D34E7000220378E2545B1C7F
:1053C000DBB20370082BF8D3364803785B1CDBB2E2
:1053D0000370032B94D302702878401C28704878FF
:1053E0000870401CC0B24870B84289D34E70F8BDF6
:1053F0000A70052AFBD300220A7034483149027032
:105400004A78264B01785C5C032C11D25300D318E8
:105410002D4F9C46FF5C6300E418294B1F552A4F13
:10542000E3186744BC467F785F706746BC789C7021
:10543000491CC9B201700829E3D318490B785B1CD9
:10544000DBB20B70292B01D329230B7007230370C8
:10545000DBB2CC18203CE47FCC545B1E1B061B0E39
:105460000370F5D1CB79292BC1D3164B521CD2B284
:10547000174C5A702478A24200D35E700022037841
:10548000CA545B1CDBB20370082BF8D32E70F8BD36
:105490003900002040000020360000208D0100204F
:1054A00034000020370000202E0000202F000020B4
:1054B000300000202B0000203B0000204100002095
:1054C000BF0100205B010020950000202C0000207F
:1054D0002A000020FEB5864A0020D3788549012B9A
:1054E0005DD0854A1378002B7ED01070834A1388D4
:1054F0005B1C138008707F4981480C78814A015DEC
:10550000491CC9B20155125D914240D90026065589
:105510007D4801782046FAF7F5FD7C487D4B017007
:10552000480009187A48425C09181A707A484D7880
:1055300005707A488F7807707948005D02900028DE
:105540007ED0784800210170CBB2E1184E008E1950
:1055500075498A5571184D708F705B1C1906090EBC
:105560000170F1D06E49002008556449614D0888EA
:10557000113080B20880FAF7E4FDFAF7D9FDC0B225
:105580001421FAF7BFFD5F482A780A31815459483F
:105590000178491CC9B201700329ACD3FEBDD0709B
:1055A000594A087012785F4C01925248019900786C
:1055B0000546FAF7A7FD55484A0001700020207003
:1055C00053488F18C05D3221FAF79CFD14214843DF
:1055D000C6B24F4832213F187878FAF793FD14216C
:1055E0004843C0B2009000E046E0B8783221FAF7B4
:1055F00089FD14214843C2B24B4821786B185F00E3
:10560000DB19C6541B18009F491C5F7009069A706D
:10561000090E2170F1D06D1C3649E8B208700328DC
:10562000C3D300260D46364F344C2E702088411CC3
:105630002180FAF786FDFAF77BFDC0B20A2100E06F
:105640001DE0FAF75FFD287839542088411C21803D
:10565000FAF777FDFAF76CFDC0B21421FAF752FDA4
:10566000284A28780A311154401CC0B228700328F7
:10567000DCD321480670FEBD01201070FEBD30460F
:10568000284E032130701046FAF73CFD0190284661
:105690000321FAF737FD009038460321FAF732FD6F
:1056A0002149024633780198E5186F00ED194855F5
:1056B0006D18009868705B1C1806AA70000E307098
:1056C000F0D002981649401C08550C49094D08882D
:1056D000113080B20880FAF734FDFAF729FDC0B224
:1056E0000A21FAF70FFD07482A78891C4EE70000C7
:1056F0002600002035000020360000202400002075
:10570000C5000020290100202A00002034000020CC
:10571000950000202E0000202F00002030000020E7
:10572000F70000202C000020BF010020F8B5194927
:10573000C87801282DD10020C87017490870174873
:1057400000780090144E009930780446FAF7DAFC9D
:105750001348002201701348027013484A00891848
:10576000435C0818457887780E480278A1184E00E7
:105770008E190E498B5571184D708F70521C110681
:10578000090E0170F0D0641C0348E1B201700329D6
:10579000D8D3F8BD26000020350000202A000020C4
:1057A000340000202C00002095000020BF010020C4
:1057B00012480021027C012A15D041704279012A49
:1057C00010D141710E4A012111700E4A032111704E
:1057D0000D4A0E4913780B7092784A708279CA701C
:1057E000C0790871704741714278521CD2B2427040
:1057F000962AF7D94170017470470000110000200B
:10580000460000207C00002026000020060000202A
:10581000F8B520A00068204E0090316A30131F4C6C
:105820001F4F014201D0002016E0080301D5204699
:1058300000E038468A030FD40A04920F6B469B5C43
:10584000CA058904D20DC90E891C8008921C5943CF
:105850005043FAF757FC8000124D28603169490720
:10586000490F12D0022902D0032910D02046B16975
:105870000907090F491CFAF745FC0B4968604A10F3
:105880008018FAF73FFCA860F8BD3846EFE70748F4
:10589000EDE7000001020204000200500080510107
:1058A000001BB7006C00002040420F0010270000D2
:1058B0000F4A10499042486901D1000A00E0000BEC
:1058C0004007400F06D001280ED002280ED00A480B
:1058D0000068704708688007800F012802D0012007
:1058E000C003704705487047054870470548EFE713
:1058F000000001400002005068000020001BB700BB
:105900001027000070000020F8B513460F46064629
:10591000FFF7CEFF044600254008984201D202203E
:1059200010E0012149068C4202D30325A40805E0BA
:10593000012109068C4201D301250446194620465F
:10594000FAF7E0FB2F43376070606D1C6843014637
:105950002046FAF7D7FBF8BD10B5FBF76FFE10BD78
:1059600070B51C4E0D460446716900208901032262
:10597000890F2063E2602022A26000291FD0012944
:105980001FD0022901D314480068B1690905090F25
:10599000491CFAF7B7FB0646002D19D06808801994
:1059A0002946FAF7AFFB0D49801E88420CD9E80062
:1059B00080192946FAF7A6FB0009801E07E008486F
:1059C000E3E7FAF765FFE0E70321090708436062B0
:1059D00070BD00000002005068000020FFFF0000C2
:1059E000001BB700026A120A12020A4302624168EF
:1059F0000122D2021143416070470000094A0A495E
:105A0000002013680B5493695B0403D4401CC0B29C
:105A10001028F6D3002002460A54401CC0B21028B9
:105A2000FAD370470000054085000020F8B5FBF769
:105A300005FF384C0A23A27A1C2137480026374F2D
:105A40000125AA2A17D043708170354906228A7130
:105A5000A6713449E67130220A704A708A70CA70A1
:105A60002672AA21A17266723D700370C5701C2057
:105A7000FBF70CFBF8BD4278002A01D00D2A01D9B2
:105A800043703D7042780270C57082781C2A01D93B
:105A900081703D7020488078FBF7F8FA20488179C2
:105AA000082901D8C90701D086713D704571C571BB
:105AB000E07A002816D1207A002804D0552804D096
:105AC000AA2806D00EE0552000E0AA2060723D70A2
:105AD00008E0A671E671667226720F483D70FD21DE
