:020000040000FA
:10000000E0030020F1000000F5000000D500000032
:1000100000000000000000000000000000000000E0
:10002000000000000000000000000000F9000000D7
:100030000000000000000000FB000000FD000000C8
:10004000FF000000FF000000FF000000FF000000B4
:10005000011B0000FF000000FF000000FF00000087
:10006000FF000000FF000000FF000000FF00000094
:100070009D550000FF000000FF000000FF00000091
:10008000FF000000FF000000FF000000FF00000074
:10009000FF000000FF000000FF000000FF00000064
:1000A000FF000000FF000000FF000000FF00000054
:1000B000FF000000FF000000FF000000FF00000044
:1000C0000348854600F076F800480047C95A00000A
:1000D000E003002004207146084202D0EFF30980BB
:1000E00001E0EFF308807146004A1047111C000040
:1000F00003480047FEE7FEE7FEE7FEE7FEE7FEE710
:10010000C100000030B50B4601460020202201242A
:1001100009E00D46D5409D4205D31D469540491B3B
:100120002546954040191546521E002DF1DC30BD84
:100130000549064A08685043054A80180860400887
:100140007047014908607047880000206D4EC64125
:1001500039300000F0B51FB40646002082B00546D5
:100160004024019100901BE0019922460F46304641
:1001700000F042F8049A059B801A994110D310466A
:100180001946224600F028F8361A8F410197224678
:1001900001200021009F00F01FF838184D41009009
:1001A0002046641E0028DFDC019B00982946324669
:1001B00007B0F0BD064C0125064E05E0E36807CC0C
:1001C0002B430C3C98471034B442F7D3FFF77CFF25
:1001D000405C0000605C000010B5202A04DB014692
:1001E000203A9140002010BD914020239C1A0346E4
:1001F000E3401943904010BD10B5202A04DB0846A7
:10020000203AD040002110BD0B46D340D0402024DE
:10021000A21A91400843194610BD000010B5044CC5
:10022000207004480170044802700448037010BD37
:1002300056000020570000205800002059000020E0
:100240000749C878012809D10020C87005490870FD
:100250000549087005490870054908707047000095
:1002600030000020560000205700002058000020D9
:1002700059000020F8B52B484278002A30D00525D7
:100280000146294E2D07294FC9780024012A0AD09A
:10029000022A26D0032A23D1254A1278012A1FD008
:1002A00001292AD033E0012909D11E480022C47057
:1002B00004700C211F4801F050FC012030631948E4
:1002C0000178491CC9B20170052909D9047044702C
:1002D000686B38406863686B032189020843686370
:1002E000F8BDC470047034634470686B3840686350
:1002F000686B6863B462F462F8BDC4700470346300
:10030000696B39406963696B6963B462F46201784F
:10031000491CC9B201700529EED904700121417050
:10032000C170F8BD6600002000420050F3F3FFF3F7
:10033000060000204040005070B528484669284912
:1003400003248A1C01250B1F0020012E17D00870E2
:1003500048701178491CC9B21170322909D3107044
:100360005178491CC9B251700A2902D350705C708F
:10037000DD701B499A78091D012A11D014E0107014
:1003800050700A78521CD2B20A70322AF1D3087027
:100390004A78521CD2B24A700A2AEAD34870E6E779
:1003A00098700870487088700A78521CD2B20A702F
:1003B000322A10D308704A78521CD2B24A703C2AB2
:1003C00009D348708A78521CD2B28A703C2A02D370
:1003D00088705C70DD70FFF74DFF70BD40420050CB
:1003E0006A000020F8B5464A464ED3783088464920
:1003F000464D0024464F012B05D00A780A2A26D202
:10040000521C0A70F8BDD4700A220A702C7041493F
:100410006C700C7040493C70404A0B781370404A35
:100420004B7813703F4A8B781370CA783E490A7034
:10043000FFF787FE308811303080FFF779FEC0B2B9
:100440001E21FFF75FFE3948491D0170F8BD0C7091
:100450002978364A491CC9B22970127891423BD991
:100460002C492C700978002902D0012934D113E0DD
:100470002A490C702A490C702A490C702A490C70C0
:10048000FFF75FFE30881130308028480470214823
:100490000178491C01701FE039788B001E49CA5C45
:1004A0001E490A701C491E4A59184B7813701D4A80
:1004B0008B781370CA781C490A70FFF742FE3088A7
:1004C00011303080FFF734FEC0B21E21FFF71AFE54
:1004D000164801700F480470154800780128B5D0FF
:1004E0006978491CC9B26970FA29AFD96C7039783A
:1004F000491CC9B239708142A8D33C70F8BD0000D4
:10050000300000202E00002041000020E5000020E7
:100510004000002017010020A50000205600002008
:1005200057000020580000205900002049010020F9
:1005300036000020F0B51A481A4FC3781A491B4DEF
:1005400000241B4E1B4A012B05D02B78082B0FD201
:100550005B1C2B70F0BDC4703C700C7000231470D9
:100560001A4619461846FFF759FE2C703470F0BD34
:100570002C703378DD0700D1FF245B1CDBB21470D4
:100580003370052B03D9437803700123C3700A48E5
:10059000E2B2037809783878FFF740FEF0BD00003A
:1005A000300000203A0000203B00002041000020E5
:1005B000170100203C000020340000200248016A9E
:1005C000C20111430162704700020050F3B58BB0C5
:1005D0000C46FFF7F3FF0B9800287448016813D00E
:1005E000042211430160102000F042FA0120C004EF
:1005F00009906F480090042008906E486E492018BA
:1006000088420ED800251DE089088900491C016038
:10061000012000F02DFA0020099068480090022087
:10062000EAE76748664920184942884202D801250E
:10063000640007E0634863492018494288427DD23C
:100640000325A4000026F643089F22E039460098BF
:10065000FFF758FD5C49844641185C48814217D237
:10066000554B02225B1C534861465143401C0818FD
:10067000984209D8A14201D9081B00E0601AB04293
:1006800002D2060004920CD05148521C8242EAD990
:100690007F1C212FDAD900200696C0430190089EC6
:1006A00054E00999A803084301217A028902511AEA
:1006B00008430499891E08433C490862042000F05D
:1006C000D7F9691C79430098FFF71CFD049948434A
:1006D0000DB0F0BD31460098FFF714FD3A494218BD
:1006E0003A498A4231D20221324B02464A435B1CCC
:1006F000D7185B429F4224D8A24201D9121B00E0C6
:10070000A21A019B9A421CD20192069B0F469A4262
:1007100017D10999A8030843012172028902511ACD
:100720000843B91E084321490862042000F0A0F9DB
:10073000691C71430098FFF7E5FC00E008E078438E
:10074000C6E7234A491C9142CED9761C212EC1D935
:100750000B9800280FD01F4914480162042000F0B4
:1007600087F91DA0006803901048016A0013014238
:1007700003D00020ACE71949EEE7080301D50C4887
:1007800000E00E488A03A3D40A04920F03AB9B5CDB
:10079000CA058904D20DC90E891C8008921C5943D0
:1007A0005043FFF7AFFC800092E7000000020050CA
:1007B00000805101FF1E0AFAFFE0F505001BB7009B
:1007C000800F05FDC08782FEFF95E7FFBF77CC0055
:1007D0000102000018440800010202041640000053
:1007E000044982070A6801D09208920002430A6015
:1007F000704700000002005008B511A0006800908A
:100800001048016A0013014201D0002008BD08030E
:1008100001D50D4800E00D488A03F7D40A04920F71
:100820006B469B5CCA058904D20DC90E891C8008E1
:10083000921C59435043FFF765FC800008BD00003F
:10084000010202040002005000805101001BB700A9
:1008500070B502F05FF838484168384A114041608D
:1008600041680325294341600120FFF7B9FF0120BA
:1008700000F0FEF800063249000E087009D104208D
:10088000FFF7AEFF102000F0F3F80021072000F082
:10089000B5F82C4800F070F82B4C0826266030463E
:1008A00000F0E6F80120A060606928436061A1685B
:1008B000E0018143A160A1680143A1606069032157
:1008C00009068843606105252D07686B1F490840AC
:1008D0006863686B0321890208436863A068042188
:1008E0000843A06060690721090288436061A0682D
:1008F0003043A0606069090188436061A068E1023B
:100900000843A060A06889000843A0600022C901D4
:100910000F4800F085F8002220210E4800F080F8F2
:10092000286B0D490843286304F094FD0249002018
:10093000C031086070BD000040000050FCFCFFFFAB
:100940005B000020006CDC0200020050F3F3FFF3B8
:100950001400C0A7160040E6F0F00000044904208F
:10096000086104480168C0221143016030BF70472C
:1009700000ED00E000020050F8B51E4C0546E668A8
:1009800010201D49064048108D4201D90D4602E055
:10099000854200D205462068042738432060102095
:1009A00000F066F82069072108432061A06900096A
:1009B0000001A06120688007800F01280ED0690027
:1009C0007804FFF703FEE668054610200640012183
:1009D000022000F013F8002E06D008E06900002085
:1009E000FFF7F4FD0546F2E72068B8432060680889
:1009F000F8BD00000002005080F0FA0210B5074A6E
:100A000093691B091B010B4393611169C908C90054
:100A10000143116104F01EFD10BD000000020050F2
:100A200070B5430E1B070DD043009B0F0F4C9B006E
:100A30001C192368C5002D0FC601F60EB540AB4347
:100A40000B432360840A2106090E0DD00103074BD6
:100A5000890F89000833CB1819688005E4B2C00EED
:100A60008440A1431143196070BD00001002005082
:100A700010B50749074A05E00B46491E002B01DC6B
:100A8000002010BDD4680346A343F5D1012010BD5A
:100A900080F5200000020050F0B5DB48DB4985B04E
:100AA000C3788979029101468D79CA790124002B96
:100AB00013D18178491CC9B2817096290DD3D449CC
:100AC000C4700C704C704C238B704123CB7042234C
:100AD0000B71029B4B71CD710A72837C0021002B3C
:100AE00009D0437C5B1CDBB243740F2B03D34174EE
:100AF000FF2303718174C74B1E78002E63D0002141
:100B0000C148197084744174C3490C70C178C348DA
:100B10000029067801D1F02E26D0C0483707017988
:100B200001913F0F40790390072F04D0A9424AD189
:100B30000398904247D10F2E05D0B348310903796D
:100B4000994240D00171B5483B00C178009141788D
:100B5000807804F01BFE1038151523383A3887FECC
:100B600038443838FD385538A9484C210470447051
:100B700081704121C17042210171029941713FE1AF
:100B8000A3480221017044704C2181704121C17041
:100B90004221017102994171002130E10A2901D9F4
:100BA000FF2910D11C280ED89D4D00292970EC700A
:100BB00009D0FF2905D0A87000F0F2F928786870F4
:100BC0001BE06878287005B0F0BD0828FBD8C10785
:100BD000F9D18E49887193484C710470E2E0032981
:100BE000F1D80029EFD00828EDD88D4A0A311170CC
:100BF0005170D470907000F0D3F98A480470E2E725
:100C000087480A1F854D0078130004F0BFFD0A06CF
:100C100006111111060606060611814B884207D1FE
:100C2000794A167C002E03D1DC7014747E4A14704D
:100C30000A29C8D97A4E0028C5D0884207D0317019
:100C400071707848F4700470B07800F0A9F9B17848
:100C5000A8788142B7D0B0707249F4700C7000F07F
:100C60009FF9B0E7684BDE7B1F463B7B7F7B012E05
:100C7000BC4640D1644F0026FE734140019E00985F
:100C8000664F704041400398814210D06448FF2174
:100C90000170C4705E480221017008214170042176
:100CA00081700021C170017143716146A7E07F1C12
:100CB000002001460097009E765C360270400026B8
:100CC000C70B03D0594F4000784000E04000761C2D
:100CD000F6B280B2082EF3D3491CC9B20429EAD374
:100CE00019026144484E89B26746814210D04C488F
:100CF000FF210170C4704648022101700821417033
:100D0000042181700021C17001714371394676E080
:100D1000180900F091FF464D2870307B0007000F46
:100D200000F08AFF6870707B000900F085FFA870F2
:100D3000707B0007000F00F07FFFE8703448082147
:100D400004704170032181700021C170017101E0C4
:100D50002DE010E0327B4271737B8371B579C571F0
:100D6000F5790572B271F371317371732C48FD21FD
:100D70000170C47041E7012914D0022900D022E794
:100D80002149CC730873009B4B73214902240C70DA
:100D90004E708C700024CC700C7148718B71CD71C9
:100DA0000A7210E71E48FB210170C4700BE70D2387
:100DB000002916D00129E2D11548022101701D49F0
:100DC0004370097881701049C97AC1701921017185
:100DD00012214171182181715721C1714321017282
:100DE000F1E60B480221017043704C2181704121D2
:100DF000C1704221017110490978417102998171D4
:100E0000C5710272DFE600001A0000205E000020BB
:100E10008C00002009000020680000201400002041
:100E20003000002051000020500000202110000060
:100E30000B0000205B0000204C000020FCB54B4E56
:100E40004B49F77800204B4A4B4C4C4D4C4B012FF3
:100E50003AD00F787F1CFFB20F70052F4AD308706D
:100E60004F787F1CFFB24F701E2F1AD348708F78B7
:100E70007F1C3F063F0E8F7013D088701978491C75
:100E8000C9B2197005290CD93E4918700F787F1C1A
:100E9000FFB20F70142F04D908700121F1703A4E7F
:100EA000317037490F7835493B0009780191C91CE9
:100EB000C9B200912F490E782F49097804F066FCD9
:100EC000061B20262C32383DF070087048701870D0
:100ED0002C49587008702C4908702C4908702C490E
:100EE00008702C4908702C490870107020702B492C
:100EF00028700870FCBD761D28701670C91F0FE0A1
:100F000020700199891F297009360FE01070C91DE2
:100F100021700199091F0FE0761F287016700831A3
:100F200021700AE0207000992970F61F167004E005
:100F30001070083921700099297011494B78002BE5
:100F400004D0052B10D05B1C4B70FCBD0F481178F2
:100F500001700F48217801700E48297801700F4800
:100F600001780D480170FCBD4870FCBD30000020C8
:100F7000E50000203A0000203B0000203C0000205B
:100F800017010020450000201F000020560000200F
:100F90005700002058000020590000203400002095
:100FA000F8B50146FE4800240078FA26FD4D274694
:100FB0000A2870D9FC4A0C2010700B0004F0E6FBE4
:100FC00007164A799FD0F5051500F849A0000A5C7C
:100FD0002A54421840195378437093788370641CE4
:100FE000D278E4B2C270102CF0D3F8BD05212046AF
:100FF000FFF788F8002908D001290BD002290ED06C
:10100000032912D0042918D01FE0A0002F54401942
:1010100046700FE0A0002E54401947700AE0A0006F
:101020002F544019477087700EE0A0002F5496216E
:10103000401941708770C77007E03221A000295421
:101040004019417064218170C670641CE4B2102C98
:10105000CCD3F8BD07212046FFF754F8002921D052
:10106000012919D002291DD0032908D0042913D041
:10107000052917D006290FD008E0817005E09621D8
:10108000A0002954401946708770C770641CE4B2F0
:10109000102CDFD3F8BDBEE0A0002E5440194770DD
:1010A0003221EAE7A0002E54322140194170642118
:1010B000E3E7A00709D0A007800F012814D0022879
:1010C00009D0E04380070FD014E0A0002E5440194F
:1010D000477087700DE03221A000295440194170FB
:1010E00064218170C67005E0A0002F54401947703C
:1010F0008670C770641CE4B2102CDAD3CAE70521ED
:101100002046FEF7FFFF002908D001290DD0022953
:101110000FD0032913D0042916D01CE0A0002F54AF
:10112000401946703221817014E0A0002E54322103
:101130000DE09621A00029544019467009E0A00056
:101140002E544019477004E0A0002E5496214019F7
:1011500041708770C770641CE4B2102CCFD399E73C
:10116000A00711D0A007800F012810D0022815D0A9
:101170009621A0002954401946708770641CE4B27F
:10118000C770102CECD385E7A0002F54F3E7A00024
:101190002F544019467032218170EFE7A0002F5480
:1011A000962140194170E8E7FFE709212046FEF744
:1011B000A9FF002910D0012925D0022925D0032913
:1011C00027D004291FD0052918D006291BD00729AC
:1011D0001BD008291DD00CE0A0002E54322140194C
:1011E0004170877004E0A000295440194770867050
:1011F000C770641CE4B2102CD7D34BE7A0002F5467
:1012000040194670EDE76421EDE7A0002F549621C8
:10121000E5E73221E7E7102912D2644889000B186C
:10122000425C59789878DE78A300EA545B195970CB
:10123000641C9870E4B2DE70102CF5D301217BE0C1
:101240001039042003220B0004F0A0FA0D09182520
:101250003A48558692B2C1FBF1F008001AE72F70A8
:101260006E703220A870EF70962129716E71AF7187
:10127000EF712E7268726420A872A6E02F706E70F3
:10128000AF70EF702E716F71AF71EF71962129728F
:101290006E72AF72F1E032212E706970AF70EF7034
:1012A0002E7196226A71AF71EF712E726972AF72F0
:1012B000EF722E736F73AE73EF733B490870E9E6FC
:1012C0003220287068706420A870EE702F716E71E3
:1012D000AE71EF7148E034480270DBE62E706F703B
:1012E000AF70EF702F716E71AF71EF712F726F72FF
:1012F000AF72EE72EFE707212046FEF703FF0029E9
:1013000023D001291BD002291FD0032908D004298A
:1013100015D0052919D0062911D008E0817005E003
:101320009621A0002954401946708770C770641C2C
:10133000E4B2102CDFD307211B480170AAE6A000FD
:101340002E54401947703221E8E7A0002E54322174
:10135000401941706421E1E72E706F70AF70EF703B
:101360002F716F71AF71EE712F726F72AE722CE0D0
:101370002F706E703220A870EF702E716871AF718F
:10138000EF712E726F72AF729620EF7228736E73C8
:10139000AF73EF732E746874AF74EF740521CBE7ED
:1013A00030000020A500002036000020F85B00007F
:1013B0002F706E70AF70EF702F716E713220A87148
:1013C000EF71962028726E72AF72EF7283E7092177
:1013D0002046FEF797FE002910D0012929D00229C6
:1013E00029D003292BD0042923D0052919D0062977
:1013F0001FD007291FD0082921D00CE0A0002E54AF
:10140000322140194170877004E0A000295440192E
:1014100047708670C770641CE4B2102CD7D30921C2
:101420008AE7A0002F5440194670ECE72BE019E042
:1014300007E06421E9E7A0002F549621E1E732217B
:10144000E3E72E706F70AF70EF702E71322169710B
:10145000AF71EF712E7296216972AF72EF722E73B7
:101460006E730EE02F706F70AE70EF702F716E7133
:10147000AF71EF712F726E72AE72EF722E733221F6
:101480006973AF7318E70948A100425C6A540A18EF
:10149000491953784B7093788B70641CD278E4B2FE
:1014A000CA700C2CF0D30C2007E70000F85B00009A
:1014B000F0B52D482D4A84790123002C05D04679BA
:1014C000851E0021012E0BD016E028482038016A25
:1014D000890104D5016A8402A14301629360F0BDD1
:1014E000417141708170C1700171298016680127B6
:1014F000BF073E43166093609668F607F60FEED07E
:1015000093602A881A4E521C92B22A80B24201D3AA
:101510002980F0BD8278521CD2B282703C2A0ED350
:101520008170C278521CD2B2C2703C2A07D3C170FB
:101530000279521CD2B20271182A00D3017142788A
:10154000002AE6D18278002AE3D1C278002AE0D1CD
:101550000279002A05D0A242DBD102220270C171B9
:10156000F0BD0370C371F0BD5E000020200001409B
:10157000983A000010B50C480378002B0DD00B49A9
:101580000A780021012A09D00124094A012B07D039
:10159000022B02D101701170D47010BD017010BD0A
:1015A000017050781070F7E75E0000200600002000
:1015B0003000002030B5154A154800211368435407
:1015C00093695B0403D4491CC9B21029F6D30224E1
:1015D0000125104B022906D0072910D05C709068B5
:1015E0002043906030BD0178FD2906D14178F02973
:1015F00003D1807807E05D7030BD5C7030BD01784C
:10160000FD29FAD1C079FE28F7D1F4E700000540A2
:10161000950000200900002030B5124A00205478BF
:10162000002C1DD00021104B012C07D0022C17D10B
:101630001954401CC0B21028FAD310E001241470D1
:10164000084C0B341D186D782554401CC0B2062878
:10165000F8D300201954401CC0B21028FAD351709E
:1016600030BD0000090000209500002010B5204A80
:1016700000201478002C13D01E49012C11D0002317
:10168000032C22D0022C0BD1FD240C60141864789A
:101690000C60401CC0B20828F8D3FE20086013700C
:1016A00010BDFC230B604C230B6041230B604223D5
:1016B0000B60114C235C0B60401CC0B20428F9D3B2
:1016C000FE2008600220107010BD1370FA220A601C
:1016D0000B600B600F220A60074B1B1D1A5C0A602F
:1016E000401CC0B20528F9D3FE20086010BD0000E0
:1016F0008C000020000005400B00002010B500F019
:1017000091FBFFF737FF00F0A7FD03F073FEFFF733
:10171000C3F910BD0A492222CA604860012008614D
:101720000869C007FCD10868400606D50868402251
:10173000104308600020C04370470020704700003D
:1017400000C0005002480168012211430160704747
:1017500000C0005005490022CA60486001200861AD
:101760000869C007FCD188687047000000C00050BD
:10177000054A2123D36050609160012010611069F7
:10178000C007FCD17047000000C0005010B5012414
:10179000240501F0B1F8FFF7D5FF2249086820229F
:1017A000104308602046FFF7D5FF1F4C60701F48AC
:1017B000FFF7D0FFA0701D48001DFFF7CBFF1C49AD
:1017C00088711A480830FFF7C5FF1A490870174892
:1017D0000C30FFF7BFFF1849C0B208801348103023
:1017E000FFF7B8FF1549C0B2088010481430FFF762
:1017F000B1FF134908700D481830FFF7ABFF1149CE
:1018000008700A481C30FFF7A5FF0F490870074809
:101810002030FFF79FFF0D4908700D490020086038
:1018200010BD000000C00050300000200400100077
:101830005E0000205A0000204C0000204E000020D6
:101840002200002020000020210000202400002091
:101850000001005070B527480124017824050129B2
:1018600047D10025057001F047F8FFF76BFF2248CC
:1018700001682022114301602046FFF74BFF1F4EF5
:1018800020467178FFF774FF201DB178FFF770FFD5
:101890001C491B488979FFF76BFF19481A49001D3D
:1018A0000978FFF765FF1648184908300988FFF7DF
:1018B0005FFF134816490C300988FFF759FF10489D
:1018C000144910300978FFF753FF0D4812491430BE
:1018D0000978FFF74DFF0A48104918300978FFF7DB
:1018E00047FF07480E491C300978FFF741FF0D48B4
:1018F000056070BD5100002000C000503000002085
:10190000080010005E0000205A0000204C0000205B
:101910004E00002023000020200000202100002095
:101920002400002000010050FEB56548654EC178D6
:10193000654F0024012905D0307805282DD2401CA0
:101940003070FEBDC4706148654D0470604832213E
:10195000047060480470604804706048047028781F
:10196000FEF7D0FB5F49087068783221FEF7CAFBAA
:101970005D490870A8783221FEF7C4FB5B49087006
:10198000E8783221FEF7BEFB5949087059483C708F
:101990000470594834700470FEBD002030704A480D
:1019A0004B4907784F48007886464F4800780090AA
:1019B0004E480C78474900780B78844646494C4895
:1019C0000A78057845494148097800788E000191E8
:1019D00043497118002F15D0012F36D001462143FD
:1019E0003A4E3B4F194311433FD07146401A307075
:1019F00000993848611A39706146591A01703648A1
:101A0000511B20E0364FBE5D304F760886420BD822
:101A10004E787608A64207D88E7876089E4203D87C
:101A2000C978490891420CD9704438700099284807
:101A300061180170274861465918017026485119EC
:101A400001E0214801210170FEBD2548825D1F484B
:101A500002701F484A7802701E488A7802701E4839
:101A6000C978017018480221EDE71748002101707C
:101A7000019A1A48521CD2B2204B02701B789A422B
:101A800000D301700078164C8500605D3221FEF7AE
:101A900039FB14492C19087060783221FEF732FBAB
:101AA00011490870A0783221FEF72CFB0F4908700D
:101AB000E0783221FEF726FB0D490870FEBD0000DC
:101AC00030000020410000201701002056000020B7
:101AD000570000205800002059000020400000203E
:101AE000A50000203D0000203E0000203F00002017
:101AF00035000020E50000203900002036000020DD
:101B000010B50648016A202211430162052100F048
:101B100009F803490020087010BD00004040005043
:101B200006000020826901238B409A438261C269CA
:101B3000024B8B409A43C2617047000001000100D4
:101B400010B58369140E8C4023438361C36912026C
:101B5000120A8A401343C36110BDF0B5002301256A
:101B6000944603272A469A400A4209D006685C0038
:101B70003A46A24096432246644694402643066075
:101B80005B1C082BEED3F0BDF0B51A481A4FC37892
:101B90001A4A1B4D00241B4E1B49012B05D02B78E4
:101BA000082B0FD25B1C2B70F0BDC4703C700C7006
:101BB000002314701A4619461846FEF72FFB2C70A6
:101BC0003470F0BD2C703378DD0700D1FF245B1C2E
:101BD000DBB20C703370052B03D9437803700123FB
:101BE000C3700A4812780378E1B23878FEF716FB22
:101BF000F0BD0000300000203A0000203C00002032
:101C000041000020170100203B000020340000208C
:101C1000044603A003F0AAFD204603F099FFFEE767
:101C2000496E2048617264204661756C7420486179
:101C30006E646C65720A00000F2801D90007000F5E
:101C40000A2801D2303000E03730C0B270470000BF
:101C5000F8B561486149C2786148624D0024012AA3
:101C600005D00A78082A31D2521C0A70F8BD5A4AA7
:101C7000604ED47004705C480C7004705B48322174
:101C800004705B4804703078FEF73CFA5A490870DB
:101C900070783221FEF736FA58490870B078322150
:101CA000FEF730FA56490870F0783221FEF72AFA2A
:101CB0005449087054480178002905D153482C70C4
:101CC00004705348047053480470F8BD0C70474BBF
:101CD00051491F780978514A464BBE001278F318D3
:101CE0008C4601291AD042490878401CC0B20870BD
:101CF000012865D03228E8D90C707F1C3B48F9B226
:101D000001706145E1D304704448142ADDD90470A0
:101D100031490120C87042490870F8BD324907783E
:101D20000978491CC9B2002F23D0012F33D0374D79
:101D30002C492F78364D09782E78364D0B4639438D
:101D40002D78314329432DD02B4926480978591A3B
:101D500001702A492D480978791A017028492C48C0
:101D60000978711A017027492A480978691A01709F
:101D7000F8BD1D4A01291170FAD11E49895D2970EB
:101D800022495A780A7022499A780A702149DA78E9
:101D90000A700121EBE7144A31291170E8D9147057
:101DA0000221E4E70470521C1C48D1B201701429CE
:101DB000DED904701A49012008700749C870F8BDBF
:101DC0000C48805D28701148597801701048997846
:101DD0000170D9780F48CAE7300000204100002088
:101DE000170100205600002039000020400000208C
:101DF00049010020A50000203D0000203E000020F9
:101E00003F00002035000020500000205700002037
:101E10005800002059000020360000204500002016
:101E20001F000020F8B53B483C4C07783A4A23781D
:101E30003B4900250126012F02D0022F2FD034E08C
:101E4000057036480B274078002B11D00E70A37810
:101E50005B1CDBB2A370062B0CD9401CC0B2A57072
:101E6000607020700D2805D967702570167011E01C
:101E70002070157060780B2806D00C2804D00D282F
:101E800002D0677027700E70A078062802D906204D
:101E9000A0700E70A078FFF783F8E670F8BD0570AB
:101EA000002B02D02570E67016701E480278012AB9
:101EB000F4D105701C4FFD20BD71FD717D723D7226
:101EC0000E702070E6702846FFF7B6FE174C2070A3
:101ED000B8790007000FFFF7AFFE6070F8790009CE
:101EE000FFF7AAFEA070F8790007000FFFF7A4FE25
:101EF000E0700F484C210670467081704121C1701E
:101F00004221017145718571B979C171F979017207
:101F1000F8BD000004000020060000203000002072
:101F200051000020050000201A0000200B000020B6
:101F30008C00002030B51748456B1848164C0378C4
:101F400000210122002D04D08170C170002B19D016
:101F50001CE02170002B08D143785B1CDBB243707E
:101F6000462B02D9027002230371C378002B08D1DB
:101F700083785B1CDBB28370FA2B02D38170C27052
:101F8000427130BD4378012B00D90271417001705C
:101F9000227030BD004200500700002000000020E9
:101FA00010B52C48018811310180811C087808285F
:101FB00035D007DC030003F0E9FB081A1D202326B7
:101FC000292C2F170D2839D008DC09282AD00A28F7
:101FD0002BD00B282CD00C2806D12CE0FB2830D09D
:101FE000FD2831D0FF2832D00A20087010BDFEF73E
:101FF00027F910BD03F0DEF910BDFEF7F3F910BDAF
:1020000003F00EF910BDFFF723FE10BD00F090FCA9
:1020100010BD00F09BFB10BD00F04CFA10BDFFF7A7
:1020200083FC10BD00F03AF910BDFEF707FF10BDAC
:1020300000F0A6FD10BD01F005FA10BD02F030F869
:1020400010BDFEF777FA10BDFFF79EFD10BD00F042
:10205000EDF910BD2E000020F0B52F4900220846F2
:1020600046782E484D7901230403002D32D0012EED
:1020700004D04B70866B87153E4386636562264E9F
:102080000D793678002D2ED0012E05D00B70866B81
:1020900001277F023E438663A5621F4E8D79B67885
:1020A000002D28D0012E05D08B70866B01273F03B1
:1020B0003E4386636563184DCE79ED78002E22D0BD
:1020C000012D05D0CB70816B012252031143816336
:1020D000A663F0BD002ED2D04A70856BFF26023673
:1020E000B5438563CBE7002ED7D00A70856B0C4EC5
:1020F00035408563D1E7002EDDD08A70856B094EAF
:1021000035408563D7E7002DE3D0CA70816B064A5E
:1021100011408163F0BD00005200002040000440E7
:10212000FDFDFFFFEFEFFFFFDFDFFFFF70B5FEF705
:102130008FFB00F0EFFB03212B48090201600168CF
:10214000022211430160012444600168802211438E
:102150000160264900200860254D224610212846AE
:10216000FFF7FBFC22480122F0214038FFF7F5FC85
:102170001F48032220214030FFF7EFFC00222021DE
:102180002846FFF7EAFC012205212846FFF7D8FC84
:10219000042003F009FB17480463174C1E21204656
:1021A00003F042FA60681021084360600C2003F0DD
:1021B000FBFA4B21C901204603F0F4F90F4C3222FF
:1021C0006905204603F0C2F92168A003014321609C
:1021D0000B4921620B496162084920310A680243B8
:1021E0000A6000F011F870BD00400040000100508E
:1021F00040400050004200500000054000000140F7
:10220000FF0000081BB700000F480E4901600F498E
:10221000416081680E4A11438160FF21C160016104
:10222000C1610162002141628162416381630649AB
:102230004031CA6933231A43CA618168054A114390
:10224000816070473B003B000000044033003300D6
:1022500088008800110011000E480021027A002A2F
:102260000BD0827B521CD2B28273FA2A05D38173BF
:102270000172094B417201221A70C27B002A07D0F9
:102280000278521CD2B20270FA2A00D3C17370478E
:10229000017070471A00002051000020F0B5554829
:1022A000554CC57855485649564A002386B0012DED
:1022B00006D02578052D1BD26D1C257006B0F0BD0B
:1022C0004C4DFF26EB70504D534F2E704F4D2B70E1
:1022D0004F4D2B704F4D2B703D786D1C3D70037032
:1022E0004E48167003704E480B7003702370E5E77C
:1022F00000232370494B07781E78731CDBB20593CB
:10230000404B1D786B1EDBB204933D4B1C78631C65
:10231000DBB20393731EDBB202936B1CDBB201933F
:10232000631EDBB200933B0003F030FA0B070E1480
:102330001A21282F33373C404500384BFF2E01D25D
:10234000059846E0012334E0002D01D0049811E007
:1023500002232EE0FF2C01D2039812E0032328E091
:102360002E4B002E01D0029833E0042321E0FF2DF4
:1023700002D2019810702DE005231AE0002C02D043
:102380000098087026E0062313E0FF2CE4D307230F
:102390000FE0002DDAD108230BE0204BFF2ECFD326
:1023A000092306E0002CEBD10A2302E0FF2DE0D345
:1023B0000B2303700EE0194B002ED4D100230370C1
:1023C00018480478142C05D903700A4B0120D870E2
:1023D000154B18700C4812780270104802780B48A0
:1023E00002700B48097801700D48017809480170A6
:1023F00064E70000300000204100002017010020A9
:102400003C0000203A000020560000205700002029
:102410005800002059000020E50000203B0000206B
:1024200034000020450000201F000020F0B51A48AD
:102430001A49C3781A4A1B4D00241B4E1B4F012B0F
:1024400005D02B78082B0FD25B1C2B70F0BDC4700D
:102450003C700C70002314701A4619461846FDF79C
:10246000DDFE2C703470F0BD2C703378DD0700D1A8
:10247000FF245B1CDBB23C703370052B03D943781F
:1024800003700123C3700A48127803780978E0B218
:10249000FDF7C4FEF0BD0000300000203B0000202E
:1024A0003C00002041000020170100203A000020DD
:1024B00034000020FEB5944A9449D3780888944C9F
:1024C000944D954E012B48D0113080B20880FDF715
:1024D00038FE924F3878401C3870FDF729FEC0B2A4
:1024E0000521FDF70FFE3878814235D200203946AC
:1024F00008708B488B4F00788B49002838780A7811
:10250000034664D08949534309788B4212D3884BE0
:1025100027781B784343BB420CD3864B2F781B781C
:102520004343BB4206D3844B7E4F1B7858433378DA
:10253000984276D27D48891A01707D4821780078CA
:10254000081A20707B4829780078081A28707A4881
:1025500031780078081A307080E00027D770734A0D
:10256000177027702F706D4D37706D4A2F70177070
:102570000C46FDF7E6FD208811302080FDF7D8FDE0
:10258000C0B21921FDF7BEFD66481A3101706B48D3
:102590006B4C077020783221FDF7B4FD624908705A
:1025A00060783221FDF7AEFD61490870A0783221D4
:1025B000FDF7A8FD5F490870E0783221FDF7A2FD24
:1025C0005D4908706F705F48AF700770FEBD574976
:1025D000534309788B4212D8554B27781B784343D5
:1025E000BB420CD8534B2F781B784343BB4206D8D1
:1025F000514B4C4F1B7858433378984212D94B4873
:10260000891801704A4821780078081820704948D4
:102610002978007808182870474831780078081819
:1026200099E710E03E4801210170384908881130CF
:1026300080B20880FDF785FDFDF77AFDC0B20A2162
:10264000FDF760FD09E0364900200870FDF770FDD8
:10265000C0B21921FDF756FD1A3139703A48007899
:102660000128B3D02D484178491CC9B24170642972
:10267000ACD9002747708178491CC9B28170042900
:10268000A4D9224987700888113080B20880FDF7EC
:1026900058FD2A482C4A0178491CC9B201701278A9
:1026A000914200D307700078322187002448C05D32
:1026B000FDF728FD1C4908700290214832213F187F
:1026C0007878FDF71FFD1A4908700190B87832211B
:1026D000FDF718FD174908700090F8783221FDF7D2
:1026E00011FD0146144832220170029850430F4AEE
:1026F0001070019832225043207000985043287087
:1027000051433170FEBD0000300000202E0000203B
:10271000570000205800002059000020E50000204C
:1027200017010020490100203D0000205600002034
:102730003E0000203F000020350000204000002027
:10274000A50000204100002036000020FEB55C4BB3
:102750005C4DDC785C4E5D4900205D4A012C1BD04D
:102760000B785B1CDBB20B70282B52D9087010461B
:102770000478601CC0B20090564823000778564881
:102780000278564801785648007802F0FFFF072982
:102790003343513329514200D870087051491070A9
:1027A000087028705049307008705049504C0870BB
:1027B00020783221FDF7A6FC464908706078322166
:1027C000FDF7A0FC44490870A0783221FDF79AFC7F
:1027D00042490870E0783221FDF794FC40495CE002
:1027E0000A235F432F705A4332703F4A5943117096
:1027F000194608E014235F432F705A4332703A4A57
:1028000059431170194648433849087030480099B7
:102810000170FEBD32235F432F705A433270324A3B
:102820005943117031495843087029480321EFE793
:102830002C48304A0178491CC9B201701278914283
:1028400001D3002101700806870D29483221C05D9F
:10285000FDF758FC1F4908700290254832213F18A7
:102860007878FDF74FFC1C4908700190B878322148
:10287000FDF748FC194908700090F8783221FDF7FF
:1028800041FC1749032C0870114908D0002028701A
:10289000154A30701070154A10700870FEBD029A0B
:1028A00032235A432A70019A5A433270009A5A438B
:1028B0000D4B1A70322250430C4A10700420ECE782
:1028C000300000205600002057000020E5000020C6
:1028D000170100203D0000203E0000203F000020A6
:1028E0003500002040000020580000205900002042
:1028F000A50000203600002010B5592104481622FA
:1029000088230160026003600468002CF9D010BDC8
:102910000001005010B55921044816228823016097
:10292000026003600468002CF9D010BD0001005063
:10293000F8B57448754AC1787348012904D0017804
:10294000052938D2491CDBE06E490024CC7070495F
:102950007A4D0C706F490C706F490C706F490C7098
:102960006F490C706F4914700C7004706E483221FE
:1029700004706E4804706E4804706E4804706E48AF
:1029800004702878FDF7BEFB6D4908706878322125
:10299000FDF7B8FB6B490870A8783221FDF7B2FB50
:1029A00069490870E8783221FDF7ACFB6749087087
:1029B00067480470F8BD0021017054485C490478F0
:1029C0005F480B7800785B4984465E480A78077850
:1029D0005D4859490078534D86465C480978067829
:1029E00052482D780078002C04D0012C24D0022CE1
:1029F00077D12DE0AC00514D2D5D85420AD84F4D69
:102A0000641965789D4205D8A578954202D8E47886
:102A10008C420BD9454D604428704548DB19037042
:102A20004448724402704448891923E03748012120
:102A3000017000213C481DE03B480178491CC9B2A7
:102A4000017032294DD3002101703048022111E07C
:102A500004461C4314430C430ED0344D6446001B03
:102A600028703348DB1B037032487346D21A027059
:102A70003148891B017034E0244800210170294845
:102A80006D1CEAB2334B02701B789A420DD3324A66
:102A9000017013785B1CDBB21370062B05D9117023
:102AA000184A0121D1702D4A11700078234C8500FD
:102AB000605D3221FDF726FB21492C1908706078F2
:102AC0003221FDF71FFB1F490870A0783221FDF766
:102AD00019FB1D490870E0783221FDF713FB1B49F3
:102AE0000870124801780A480170114801780948B5
:102AF000017010480178084801700F4801780748B4
:102B00000170F8BD300000204100002017010020B6
:102B100056000020570000205800002059000020D7
:102B2000E500002040000020490100203A0000207C
:102B30003B0000203C00002034000020A5000020C5
:102B40003D0000203E0000203F0000203500002016
:102B50005000002036000020450000201F0000200B
:102B600006498A691202FCD408600A2804D18869DF
:102B70000002FCD40D2008607047000000000540F2
:102B8000F8B5264E0023F178254C2648012913D0AC
:102B90000188254D491C8AB201210280012A17D0E3
:102BA0001746FF3FCD3F05D005277F02BA4211D11E
:102BB000022013E0217012E0F37003801B482370A1
:102BC000037000231A4619461846FDF727FBF8BD87
:102BD000237004E0164FBA4203D1032020702970FD
:102BE00006E0144DAA4203D103801348F17001702E
:102BF0002078002808D0012809D002280AD003280C
:102C0000E5D100F061FAF8BD00F018F8F8BD00F069
:102C1000E5F8F8BD00F008FAF8BD0000300000202B
:102C20004300002048000020440000204B0000200A
:102C3000840D0000941100001F000020F0B55748DB
:102C4000574D01780024574E85B0012906D02878C9
:102C500002281DD2401C287005B0F0BD002304706E
:102C60001A4619461846FDF7D9FA4F4804704F48DE
:102C70002C7004704E4804704E4804704E48047026
:102C80004E4804704E48347004704E480470E3E7B8
:102C90000020287043484C4F017847480078401C7A
:102CA000C4B2414800290078029040480078009062
:102CB0003F4806783F4805784048007802D001290F
:102CC00061D13BE0800041490390085C1921FDF788
:102CD00019FA387001903D490398471878781921FE
:102CE000FDF710FA3A4908700490B8781921FDF7F9
:102CF00009FA384908700390F8781921FDF702FAAB
:102D000035492A4A08700146009B0198181810702E
:102D10000498274A301810700398264A2818107013
:102D2000029B214A581810702348192C04702AD38A
:102D3000002101701B480121017024E03B78009ABA
:102D40001A49D21A0A70224A19491278224BB21A29
:102D50000A70204A17491278AA1A0A701B78029A38
:102D60001149D21A0A701449192C0C700BD3002285
:102D70000A700C49401C0A70104AC0B21070022838
:102D800001D902200870084803780A4802780848E8
:102D9000017806480078FDF741FA5DE7440000201D
:102DA000410000204A000020340000203A000020AA
:102DB0003B0000203C0000203700002040000020A5
:102DC000420000204B0000203D000020A500002014
:102DD0003E0000203F00002035000020F0B5814873
:102DE000814E0178814D002489B0012927D0804986
:102DF00028460A787F49377800780978521C049170
:102E0000D1B205910499401C491CC9B203917A4979
:102E1000C0B20B78591CC9B20791791CC9B2029192
:102E200076490A789900764B0891C9183B0002F060
:102E3000ADFC091F41769E769E769EBFD50000238D
:102E400004701A4619461846FDF7E8F92C706D48CB
:102E500034706D4A047001785454491CC9B2017031
:102E60003229F8D36948047061480470614853E01E
:102E70002870052851D32C705D48059901700329ED
:102E80000DD904705E48624902780A70614942783F
:102E90000A70614982780A70C178604801705549AA
:102EA00003980870322838D3012030705C4806211E
:102EB00001707BE028700A282FD32C704C480599AC
:102EC0000170032919D304705548514D01784C48BD
:102ED0008B00C75C18182F704E4B45781D704E4BF9
:102EE00085781D70C3784D48491C0370C8B24C49A1
:102EF0009042087001D3084604704A480178491C82
:102F0000C9B20170502908D30470022030703F48C4
:102F10000470384804703848047009B0F0BD287057
:102F20001428FAD32C70364B089D33485D5D384B1E
:102F30001D70384B4D781D70374B8D781D70CB78D8
:102F400036490B7007990170914200D30470294BE8
:102F5000039919700829E0D3029931700178491C4E
:102F6000C9B20170914200D304701C701EE0287039
:102F70001428D2D32C70224B089D1F485D5D244B32
:102F80001D70244B4D781D70234B8D781D70CB78B0
:102F900022490B7007990170914200D30470049983
:102FA00014480829B9D30299317004701748B3E75F
:102FB00028700A28B1D316482C7004701548047084
:102FC000154804701548047010480178491CC9B2AE
:102FD00001700829A1D3092131709DE7FF203070CD
:102FE0009BE70000440000204A0000204100002030
:102FF000420000204B00002040000020360000204E
:10300000A500002037000020AD0100204600002070
:1030100056000020570000205800002059000020D2
:103020007B0100204700002070B51A481A4D017836
:1030300000241A4E012918D02878401CC0B22870EC
:10304000082811D33078164980000A5C154B4018C7
:103050001A70154A41781170144A81781170144918
:10306000C07808700120287070BD002304701A46D3
:1030700019461846FDF7D2F80E482C7004700E4819
:10308000347004700D4804700D4804700D480470CD
:1030900070BD0000440000204100002040000020DE
:1030A000A5000020560000205700002058000020F6
:1030B000590000204A000020460000204700002060
:1030C000420000207B010020F0B5C74885B00178A0
:1030D000012926D0C548CD4B0778C548C949007895
:1030E0000490C448C84A00780390C348CA4D007889
:1030F0000290C248007801901E78C54BC0481B78EA
:1031000000785B1CDCB2C34B09781B7812789B00FB
:103110005D1900933B0002F039FB05388AD4F6F4C0
:103120008800002404702346224621462046FDF7ED
:1031300075F8AF48B74D0470AE48B74E0470AE484E
:1031400019210470AD48047028788700F05DFCF701
:10315000D9FFAB49BE19087070781921FCF7D2FF6E
:10316000A8490870B0781921FCF7CCFFA64908706F
:10317000F0781921FCF7C6FFA4490870A448047030
:10318000A64804702C7099482CE1A14B082C1C70A7
:103190004BD300241C70049D954B2818C0B21870A6
:1031A000039D944B6918C9B21970029D924BAA18DD
:1031B000D2B21A70019B914D9B19DBB2934F2B70C9
:1031C000FDF72CF895480178491CC9B201700A290D
:1031D0002BD904708548934A0178491C01709048A6
:1031E00004708C480178491CC9B201701278914270
:1031F00000D304700078884C8500605D1921FCF7CD
:1032000081FF7F492C19087060781921FCF77AFF3B
:103210007C490870A0781921FCF774FF7A4908707E
:10322000E0781921FCF76EFF387005B0F0BD03019E
:10323000181A6F4BC0B218700B01591A6D4BC9B2F6
:10324000197013019A1A6C4BD2B21A7033019B1B7E
:103250006A4EDBB26C4C6D4D3370FCF7DFFF70488B
:103260000178491CC9B201702829DED900210170FA
:103270005E486C4B0278521C027066480278521C01
:10328000D2B202701B789A4200D301700078624E6D
:103290008700F05D1921FCF735FF5949BE19087008
:1032A00070781921FCF72EFF56490870B078192163
:1032B000FCF728FF2070F0781921FCF723FF287015
:1032C000B3E7554800994B4A405C49494A4B08705E
:1032D00069781170AA781A70484CEB782370FCF763
:1032E0009DFF4F480178491CC9B2017050299CD9F3
:1032F000002101703D480278521C0270474801705D
:1033000093E734E0FFE7424B062C1C708DD300247A
:103310001C70049D364B281AC0B21870039D354BA3
:10332000691AC9B21970029D334BAA1AD2B21A7027
:10333000019B324D9B1BDBB22B70FCF76FFF3748B4
:103340000178491CC9B201700F29B9D92749047005
:103350000A78521C0A703249334A0C70017854546E
:10336000491CC9B201703229F8D330483AE02848E4
:10337000052C0470A4D3002404702D4804702D483B
:1033800004702D4804702D4804702D480178491CA4
:10339000C9B20170322993D314490C7004701448D7
:1033A000047014480470144804701B480099405C71
:1033B0001921FCF7A7FE1249087068781921FCF75B
:1033C000A1FE10490870A8781921FCF79BFE0E4950
:1033D00008700A4819210470E878FCF793FE0B493D
:1033E00008700E48047020E7440000204A000020C6
:1033F0003A0000203B0000203C0000203400002068
:103400003D0000203E0000203F000020350000204D
:103410004100002040000020A500002037000020CF
:103420004700002036000020AD01002046000020AB
:1034300056000020570000205800002059000020AE
:103440004B000020F8B5284E0024F178274B28487F
:1034500001290DD00188274D491C8AB20121028023
:10346000012A0FD0CD27FF00BA420DD119701AE002
:10347000F47004801C7000231A4619461846FCF7A5
:10348000CDFEF8BD1C700EE01B4FBA4201D10220E8
:1034900008E01A4FBA4201D1032003E0184FBA42A4
:1034A00003D104201870297006E0164DAA4203D1FA
:1034B00004801548F17001701878030002F066F975
:1034C0000505080B0E110400DBE700F035F9F8BD27
:1034D00000F01CF8F8BD00F015FAF8BD00F010FB84
:1034E000F8BD00F03BFDF8BD300000204300002097
:1034F0004800002044000020520D00006E0F000024
:1035000092130000581B00001F000020F8B57248FD
:10351000724D0178724F0024012928D02878401C70
:10352000C0B22870052821D36E482C7000786F4EE9
:10353000401CC1B26E483B7800786B4D82009019F8
:10354000002B2ED0012B5FD06A48327902706A4876
:10355000727902706948B27902706948F279027032
:1035600060482829017001D3FF203870F8BD00237E
:1035700004701A4619461846FCF750FE5C480321B1
:1035800001702C705F483C705F4A0470017854549D
:10359000491CC9B201703229F8D35C480470514803
:1035A00030E0B35C534A32291370534A43781370A6
:1035B000524A83781370C2785148027049480170AA
:1035C000D4D301203870524E524F534D3470388846
:1035D000113080B23880FCF7B4FDFCF7A9FDC0B211
:1035E0001421FCF78FFD4D4A307811543E4A0121D9
:1035F00011542C54401CC0B230703228E7D34848D4
:10360000047048480470F8BD2978002938D0012991
:1036100044D038480470384804703848047038483A
:1036200004702C703E480178491CC9B201703229DF
:10363000E9D904702E4D3C7028783B4A8100705CBB
:1036400010708B19394A59781170394E9A78327046
:10365000384EDB783370FCF7E1FD2878401CC0B2AF
:103660002870052801D9022038702648264A04709F
:1036700001785454491CC9B201703229F8D38CE73F
:103680001C49B25C0A701C4942780A701B49827856
:103690000A70C1781A48017001201AE01E481F4ABA
:1036A0000178491CC9B2017012789142BAD91949FE
:1036B00004700888113080B20880FCF742FDFCF7E6
:1036C00037FDC0B21421FCF71DFD144801702878A5
:1036D000401C2870A6E700004400002041000020A4
:1036E0004A0000204B00002017010020A500002008
:1036F0004000002056000020570000205800002005
:103700005900002037000020AD01002046000020B5
:10371000380000202E000020E50000204901002094
:1037200047000020420000203A0000203B0000201B
:103730003C00002034000020F8B5644C6448217837
:10374000644B654A01292BD019460F786449634CB4
:103750000B7864495B1C09782578491CC9B2DBB237
:103760000091002F30D0604909788C46491CCCB2BA
:103770005E4909784E1CF2B28E0001467118012F85
:10378000574F3B704BD00A2B7ED300233B706746CC
:103790003B0001F0FBFF07857C857C8585859100DA
:1037A0000021217011704E4A11701970504A03782F
:1037B0001370504A437813704F4A83781370C2785D
:1037C0004E48027047485EE0454C142B23705DD391
:1037D000002121701378464E9C00075D2018377039
:1037E000444C46782670444C86782670C47843480A
:1037F0005B1C0470D8B21070A84200D31170394815
:10380000009B0370142B41D30170324801230370D5
:103810003B481170017034480170344833E00A2B82
:1038200034D300233B7067463B0001F0AFFF070E27
:10383000050E050E0E0E1A002C48AA42027001D386
:10384000002101702848047014E0825D284802704D
:1038500028484A78027028488A780270C978274830
:10386000EFE72248AA42027001D3002101701E48EE
:10387000002101701B4800990170642906D30021C2
:1038800001701448022100E000E00170F8BD174803
:10389000AA42027001D30021017013480470F8BDE0
:1038A000825D1348027013484A78027012488A7881
:1038B0000270C9781148EFE70C48AA42027001D3A0
:1038C00000210170084900200870F8BD4400002064
:1038D000A50000204A000020400000203600002003
:1038E0004100002047000020170100207B0100203C
:1038F00056000020570000205800002059000020EA
:1039000046000020F0B56D4A002013786C4987B05E
:10391000012B17D06C4A6B4D12780E78521CD4B222
:103920006A4A2D781278531C9700694ADBB2BA189C
:10393000002E11D0012E2AD0022E41D0032E5AD0B3
:10394000052021E01070614A1070624A1070087002
:103950005D490870604917E05D4E142CF75D5F4EBD
:1039600037705F4E577837705E4E97783770D678DD
:103970005D4A1670544A147007D31070534AAB4214
:10398000137000D310700120087007B0F0BD504EC6
:10399000142CF75D514E3770514E57783770514E99
:1039A00097783770D678504A1670474A1470ECD31F
:1039B0001070464AAB42137000D310700220E3E748
:1039C000434E142CF75D454E3770454E577837708F
:1039D000444E97783770D678434A16703A4A147036
:1039E000D3D31070394AAB42137000D31070032246
:1039F0000A703E49C8E7374A13785B1CDBB2137084
:103A0000022BC2D3394C1070227805921E2A42D361
:103A1000324A334B127804921B7801931A43314B8C
:103A20001B7803931A43304B1B7802931A432A4B9B
:103A30001B7838D0264899000F18387A1921FCF7DE
:103A400061FB2B4905460870787A1921FCF75AFB6F
:103A50000146284801700091B87A1921FCF752FB01
:103A6000254906460870F87A1921FCF74BFB2349D3
:103A70000246087004981949401B0870019B009980
:103A80001748591A017003981649801B0870029B49
:103A90001549981A087005981F2800D375E72078F3
:103AA000401C207071E7DB1C0B4ADBB208701370FE
:103AB000092B01D304220A702070F0E74400002093
:103AC0004A0000203600002047000020400000206F
:103AD000A500002041000020170100205600002012
:103AE0005700002058000020590000204600002008
:103AF0003D0000203E0000203F0000203500002057
:103B0000F0B5FC48FC49027889B0012A3AD0084651
:103B10000578FA48002D00780890F9480078079059
:103B2000F84800780390F84800780290F748077842
:103B3000F74800788446F74800780190F648007806
:103B4000009056D0F548F8490078F64E401CC0B2B7
:103B50000490F348F74C0078401CC0B206900B78F4
:103B6000F24930780A78F249247809780594012DD1
:103B70007ED0022D7DD0032D7CD0DF49042008703B
:103B800009B0F0BD00240470EA4DEB482C700470BD
:103B9000E3480C700470E94823460470E848224664
:103BA000047021462046FCF739FBD44819210470E3
:103BB000D3480470D3480470D34804702878E14C8B
:103BC0008500605DFCF79EFAD0492C19087060787A
:103BD0001921FCF797FACE490870A0781921FCF753
:103BE00091FACC490870E0781921FCF78BFACA49A0
:103BF000C5E70898C149C019C0B20870079B614663
:103C0000BF4A5918C9B21170019C039ABD4B1219D1
:103C1000D2B21A70009D029BBB4C5B19DBB2BE4E48
:103C20002370FCF7FBFAC64C2078401CC0B2207011
:103C30001928A5D3B048C34D0178491C0170BD486F
:103C4000192100788700E85DFCF75CFAAF497D191F
:103C5000087068781921FCF755FAAD490870A87802
:103C60001921FCF74FFAAB490870E878192102E0F6
:103C700024E08BE0E2E0FCF745FA3070A84800252C
:103C800005702570B04CB14EB14F2570B148217808
:103C900045543088113080B23080FCF752FAFCF77E
:103CA00047FAC0B20521FCF72DFA2078491D395496
:103CB000401CC0B220703228E8D361E704461C43A0
:103CC00014430C435FD0954C049D2570052D0FD3F4
:103CD00000252570C01B3070934864461B1B037081
:103CE000019B9248D21A0270009A9148891A017079
:103CF0008B4801783729E0D3002404707E480221E4
:103D0000017005998B48491CC9B2934A0170127819
:103D1000914200D3047000788A4D8600A85D192175
:103D2000FCF7F0F979497519087068781921FCF7E2
:103D3000E9F977490870A8781921FCF7E3F9754982
:103D40000870E8781921FCF7DDF973497E4D087099
:103D50007E4E7F4F2C707F48297844543088113034
:103D600080B23080FCF7EDF9FCF7E2F9C0B2052132
:103D7000FCF7C8F92878491D3954401CC0B2287096
:103D80003228E8D3FCE666480699B0E76D4DA400FA
:103D90002D5D6C4E0295A419854208D865789D4228
:103DA00005D8A578954202D8E5788D4243D95B4D78
:103DB000049E2E70052E0FD300262E70594DC0196B
:103DC0002870594863440370019B5848D218027008
:103DD000009A574889180170514801783729D1D382
:103DE0000021017044480321017019210298FCF759
:103DF00089F946490870667819213046FCF782F93E
:103E000043490870A57819212846FCF77BF94149F8
:103E10000870E47819212046FCF774F901463E4801
:103E200001703948354904700298087034480670AA
:103E300034480570A4E63A480699CCE708982F491B
:103E4000C01BC0B20870079963462D4AC91AC9B28F
:103E50001170019B039A2B4DD21AD2B22A70009C8A
:103E6000029B294E1B1BDBB23370FCF7D7F9344899
:103E70000178491CC9B201701929DBD300240470F0
:103E80002C48354A0178491CC9B201701278914218
:103E900000D304700078192187002A48C05DFCF720
:103EA00031F91A490870274819213F187878FCF72A
:103EB00029F917490870B8781921FCF723F9154931
:103EC00008700E48192104700D4804702C7034706D
:103ED000F878FCF717F9104908700748174904707B
:103EE0000A78521CD2B20A70022AA3D304210170AC
:103EF00046E60000440000204A0000203A0000206E
:103F00003B0000203C000020340000203D00002049
:103F10003E0000203F00002035000020E50000208A
:103F200046000020560000205700002058000020C6
:103F300059000020400000204100002042000020E5
:103F40004B000020A5000020380000202E0000209B
:103F500049010020AD01002036000020F8B542489C
:103F600000270178414C424D424E012915D10023D2
:103F700007701A4619461846FCF750F93E48077074
:103F80003E4807703E4807703E4807703E4807703D
:103F900027702F703D483770077039480178491CE9
:103FA000C9B2017003294DD9077037480178491CFF
:103FB000C9B20170282908D9077032480178491C14
:103FC000C9B20170052900D907702E480078030096
:103FD00001F0DCFB06040B12192129303770207820
:103FE000401D20702878C01F13E02F703078801F8C
:103FF00030702078093014E027702878C01D2870B0
:104000003078001F15E037702078401F2070287826
:10401000083028700EE02F703078C01C3070207887
:10402000C01F207006E02770287808382870307884
:10403000C01C307015480178002904D0052910D023
:10404000491C0170F8BD1249207808701149287880
:1040500008701149307808700748104900780870D6
:10406000F8BD0770F8BD0000440000203A000020B1
:104070003B0000203C0000203400002040000020D5
:10408000410000204A0000204200002017010020CB
:104090005600002057000020580000205900002042
:1040A000F8B5284E0024F178274B284801290CD078
:1040B0000188274D491C8AB201210280012A0ED0B5
:1040C000244FBA420DD119701AE0F47004801C70AC
:1040D00000231A4619461846FCF7A0F8F8BD1C70D4
:1040E0000EE01D4FBA4201D1022008E01B4FBA4238
:1040F00001D1032003E01A4FBA4203D10420187003
:10410000297006E0174DAA4203D104801648F170C9
:1041100001701878030001F039FB0505080B0E113A
:104120000400DBE700F022F8F8BD00F089FAF8BDE2
:1041300000F01CFDF8BD00F0BBFDF8BD00F0CCFEAA
:10414000F8BD00003000002043000020480000209F
:1041500044000020640A0000E61400004416000039
:10416000CD190000342100001F000020F0B5FC48EC
:10417000FC4D01788BB0012941D0FC4928460A78D2
:10418000FB4900780B78FB49521C09785B1C491CE1
:10419000C9B20191D1B20A91D9B20291F649F24C59
:1041A0000A78511CC9B2099121780491F34992000F
:1041B0000978491CC9B20891F1490B78F14900937B
:1041C00009780D461943F04B1F78F04B39431E78A0
:1041D00031430791EE490B78591CC9B20691ED495C
:1041E000097805919900EC4B0391CC1819465118A8
:1041F000030001F0CBFA05194486FDFCFB00002406
:1042000004702346224621462046FCF707F8DA4888
:104210002C700470E1480470DE480470D3480470C8
:10422000D34804700BB0F0BDD24C01982070052823
:10423000F8D300232370CD4C0A98207005280DD3A5
:10424000D5482370825CCF480270CD484A7802700E
:10425000CD488A780270CD48C9780170C448029967
:1042600001703229DED30370BE4801210170C248BB
:1042700009990170049A9142D4D30370D2E7BD4BDF
:10428000019818700528CDD300201870B74C0A9BF0
:104290002370052B0DD3C04B20709B5CB94A137063
:1042A000B74A4B781370B84A8B781370CA78B749FD
:1042B0000A70AF49029A0A70282AB3D30870AE492F
:1042C000099A0A70049B9A4200D30870A54AB14922
:1042D0001070059B5B1CDBB20B70022BA2D908701F
:1042E00002211170AD490870A4490870A8490870EE
:1042F000A4490870A2490870A3490870A34908702E
:1043000090E79C490198087005288BD3002008701D
:104310009A4908980870022844D30020087005992B
:104320009C4B002902D001297BD13CE09A4803999B
:10433000405CA84209D8627800998A4205D8A178E1
:10434000B94202D8E178B1422AD91921FBF7DAFE45
:1043500093490870049060781921FBF7D3FE9149C6
:1043600008700190A0781921FBF7CCFE8E490870E7
:104370000390E0781921FBF7C5FE8C49814A08704B
:104380000146049828181070009B01987C4A181860
:10439000107003987C4A381810707C4A701836E008
:1043A000012119703DE00799002932D07A4803991C
:1043B000405C1921FBF7A6FE7949087004906078EB
:1043C0001921FBF79FFE774908700190A078192109
:1043D000FBF798FE744908700390E0781921FBF709
:1043E00091FE7249674A0870014602E011E1F9E066
:1043F00023E00498281A1070009B0198604A181A4C
:1044000010700398604A381A1070604A701A107061
:1044100007E018705E49069A0A70049B9A4200D31E
:104420000870534802990170322900D2FAE600213F
:1044300001704C4803210170F4E64E480199017067
:104440000529F3D3002101704C490898087002280F
:104450007FD30020087005994E4B002902D0012916
:1044600077D13CE04C480399405CA84209D8627877
:1044700000998A4205D8A178B94202D8E178B142C0
:104480002AD91921FBF73EFE45490870049060784F
:104490001921FBF737FE434908700190A0781921D4
:1044A000FBF730FE404908700390E0781921FBF7D4
:1044B00029FE3E49334A08700146049828181070B6
:1044C000009B01982E4A1818107003982E4A38182D
:1044D00010702E4A701832E00121197039E00799E6
:1044E00000292ED02C480399405C1921FBF70AFEC5
:1044F0002B490870049060781921FBF703FE2949C5
:1045000008700190A0781921FBF7FCFD264908707E
:104510000390E0781921FBF7F5FD2449194A08704A
:1045200001460498281A1070009B0198144A181A22
:1045300010700398144A381A1070144A701A1070C8
:1045400007E018701249069A0A70049B9A4200D339
:104550000870074902980870322829D262E60000E4
:10456000440000204A0000203600002042000020C5
:104570004B0000204100002040000020E50000200A
:10458000570000205600002058000020590000204D
:104590007B01002017010020A5000020460000201C
:1045A0003D0000203E0000203F000020350000209C
:1045B00000200870184A0221117018490B785B1C02
:1045C000DBB20B70022BC9D9087004211170144999
:1045D000144B08700A789854521CD2B20A70322ACE
:1045E000F8D31FE61049019808700528B6D30020BB
:1045F00008700E4908700E4908700E4908700E497F
:1046000008700E49029808703228A7D30248052185
:1046100011E7FF2100480EE74A0000204600002075
:1046200037000020AD01002041000020560000208E
:104630005700002058000020590000204B000020A7
:10464000F0B5FF48FF4F017895B001294DD03846AD
:1046500002780C92FC48FE4B01781D78FB48FD4B1C
:10466000FE4E00781C783678FB4B80191B78C0B260
:104670000E90FB480896007807902818C0B20D905D
:10468000F848491C007806902018C0B20A90F648F5
:10469000C9B2007805901818C0B20990F348F54BDC
:1046A0000778F3481E780078F34B044638431D78AA
:1046B000304328430B90F148F14B00781B7812935C
:1046C0005B1CDBB21093EF4B401C1B780F910493E3
:1046D000ED49C0B209781391130001F057F809357C
:1046E0005E96FCFAF9F8F8F8F70000240470234607
:1046F000224621462046FBF791FDE14EE34D3078FE
:10470000192180004019C078FBF7FCFCD6490870DD
:104710003C70DF4834700470DE4819210470DE48B4
:104720000470C94804702878FBF7ECFCCB4908708A
:1047300068781921FBF7E6FCC9490870A8781921A7
:10474000FBF7E0FCC7494AE1089881004018BF49DF
:10475000C0B2087007998A008918BD4AC9B21170A1
:10476000069A9300D218BB4BD2B21A70059B9C00DC
:104770001B19B94CDBB22370FBF750FDC64801781A
:10478000491CC9B201700A293DD900210170AD4808
:104790000278521C0270BC482CE1AC490E9808709B
:1047A000AB4A0D991170AB4B0A9A1A70AA4C099B2F
:1047B0002370FBF733FDB4480178491CC9B201707E
:1047C000142920D3002505709E48B44C0178B44EBE
:1047D000491C0170B34F2570B34821784554308887
:1047E000113080B23080FBF7ACFCFBF7A1FCC0B20B
:1047F0000521FBF787FC2078491D3954401CC0B2C5
:1048000020703228E8D315B0F0BD0B99974A994B28
:10481000002914D099490528087014D30020087085
:1048200008999348611A01700798381A1070069910
:104830009148711A19700599691A017003E013986B
:104840009149401C0870904800783728DBD3904885
:10485000002404707B4D90482C7004708848109997
:104860000170049A914200D304700078874E87004B
:10487000F05D1921FBF746FC7849BE190870707885
:104880001921FBF73FFC76490870B0781921FBF736
:1048900039FC74490870F0781921FBF733FC724930
:1048A00008707948047068480F9901700229AAD9E4
:1048B0000470032028707D487B4A047001785454AA
:1048C000491CC9B201703229F8D39CE73AE193E060
:1048D00087E053E0FFE75B4C042020705A4900203A
:1048E00008705A49694E087059490870594908704A
:1048F00059490870129819218700BD19E878FBF70B
:1049000001FC59490870F05D1921FBF7FBFB534985
:10491000087068781921FBF7F5FB51490870A878F1
:104920001921FBF7EFFB4F49087059480178491CE2
:10493000C9B201703229C8D3052121700024047046
:104940005148564D0470564E564F2C705648297893
:1049500044543088113080B23080FBF7F2FBFBF713
:10496000E7FBC0B21421FBF7CDFB28780A3139549C
:10497000401CC0B228703228E8D344E733480E996F
:10498000017033480D99017032480A99017032481C
:104990000999017013983C4901280FD8089A3448A6
:1049A000A2180270079A3148BA180270069A314864
:1049B000B2180270059A3048AA180270224A0F985D
:1049C00010701928D9D31F4A0320107002200870D4
:1049D0002B4910980870049A9042CED3002008709A
:1049E00011E700231A4619461846FBF717FC15482D
:1049F0000178A3E0017006E72049032808707CD302
:104A0000002008702148192100780D90FBF77AFBEF
:104A1000124908700A901D48192140780990FBF747
:104A200071FB0F4908700890184819218078079089
:104A3000FBF768FB0B49087006901448C07837E014
:104A4000440000204A000020420000203A000020DC
:104A50003B0000203C000020340000203D000020EE
:104A60003E0000203F0000203500002057000020BD
:104A7000560000205800002059000020E5000020CA
:104A8000400000203600002046000020A500002045
:104A90004B0000204700002041000020380000208B
:104AA0002E00002049010020AD0100203700002029
:104AB00019210590FBF726FB2449087024490A7840
:104AC000002A1BD00D9B234AA34208D8099BBB4256
:104AD00005D8079BB34202D8059BAB4230D90A994F
:104AE00061181170089A1C49BA180A70069A1B4975
:104AF000B2180A701A49281813E013E00B9B154AE4
:104B0000002B0DD00A99611A1170089A1249BA1A2D
:104B10000A70069A1149B21A0A701149281A00E05F
:104B2000012008700F480178491CC9B20170C829DA
:104B300000D868E6002101700B480C99491C59E720
:104B40000020EEE7FF21084854E700003500002070
:104B500017010020560000205700002058000020B8
:104B600059000020410000204A000020F8B54049CB
:104B7000404E0878404C414D01280DD040483778D0
:104B8000027820460178284600783B0000F0FEFDC0
:104B900006213F48515E666E00200870394930702A
:104BA000087039493C4B0870FF2129703449207046
:104BB00008703649087036490870364908700A7816
:104BC0009854521CD2B20A70322AF8D33349087072
:104BD000F8BD2C4C23785B1CDBB22370052BF7D37C
:104BE000002323702E4C20702E4801702E482F4930
:104BF000027026480078087023480178491CC9B221
:104C000001703229E4D3037001203070F8BDFF2910
:104C100001D20F311DE002211EE00023217812E0B5
:104C2000002801D00F381CE003201DE00023287865
:104C300009E0134CFF2A02D20F32227001E0042255
:104C4000327000232278FBF7E9FAF8BD002902D080
:104C50000F392170E1E705213170DEE7FF2802D22C
:104C60000F302870E2E706203070DFE7FF20CCE746
:104C7000440000204A0000203B0000203A000020B1
:104C80003C000020410000204B00002034000020A8
:104C90004200002037000020AD0100204600002027
:104CA0005600002057000020580000205900002026
:104CB000F8B57549754C0878012814D07448764BBE
:104CC00000781F78401CC1B27248744B0278267875
:104CD000501C9200D518C0B2330000F057FD050EED
:104CE00029435D97D200002008706A49207008703F
:104CF0006B49087066490870F8BD684B654E9B5C4F
:104D0000684A32291370684A6B781370674AAB7827
:104D10001370674AEB7813705D4A1170ECD300236F
:104D200013703070B84200D3337001202070F8BD8A
:104D30005A4B584E9B5C5B4A322913705A4A6B7827
:104D400013705A4AAB781370594AEB781370504A73
:104D50001170ECD3002313703070B84200D333705D
:104D60000220E3E74D4B4B4E9B5C4E4A32291370B9
:104D70004D4A6B7813704D4AAB7813704C4AEB7800
:104D80001370434A1170D2D3002313703070B842AD
:104D900000D333700320C9E7404E4649B05C087029
:104DA000454A69781170454BAA781A70EB78444DE2
:104DB000384F2B70FBF732FA35480178491CC9B2DD
:104DC00001703229B3D30025057038781921870086
:104DD000F05DFBF797F93B49BE190870707819210F
:104DE000FBF790F938490870B0781921FBF78AF978
:104DF00036490870F0781921FBF784F934490870B6
:104E00002078401C207033480570F8BD29492D4892
:104E10000A780078101AC0B20870274A2A49137815
:104E20000978591AC9B21170244B284A1D78127892
:104E3000AA1AD2B21A70224D254B2E781B78F31A7B
:104E4000DBB22B70FBF7EAF922490878401CC0B2AC
:104E500008701928D9D3002008700E4920700A78EC
:104E60000D4B521CD2B20A701B789A4200D30870C4
:104E70000B480178491CC9B201700329C5D9052026
:104E800054E7FF2052E70000440000204A000020C1
:104E9000420000204000002036000020A500002035
:104EA000410000205600002057000020580000203C
:104EB000590000203A0000203B0000203C00002068
:104EC000340000203D0000203E0000203F00002074
:104ED0003500002046000020F8B5954A954D13781E
:104EE00095490020954C012B0FD00A4612782F7857
:104EF000521CD3B2924A0126002F23D0012F4ED04C
:104F0000022F7DD0FF202870F8BD10708D4A2870C8
:104F1000107008708C498D4A0870FF2111708C49FF
:104F200008708C4908708C4908708C4908700A78A0
:104F3000A054521CD2B20A70322AF8D388490870A1
:104F400088492AE00B70052BDED308707F490B7867
:104F500085490B707E490B7884490B707D490B782D
:104F600083490B707C490B7882490B707D490B7823
:104F70005B1CDBB20B70322BC6D3087071492E70EC
:104F80000E7010707549567008700A78A054521C43
:104F9000D2B20A70082AF8D36B490870F8BD0B70BA
:104FA000052BFBD300200870654873490078674BD8
:104FB0008200885C18705318654A59781170654FE3
:104FC0009A783A70644FDB783B70FBF727F96B48AF
:104FD000002101705A49684A49788C46890000913D
:104FE00089180278A35C0A2B0FD2634B009FDF5D08
:104FF0005D4B1F705D4B4F781F708F785C4B00E0EE
:1050000045E01F705B4BCF781F70521CD2B202700C
:10501000082AE6D32178491CC9B22170292901D375
:105020002921217007210170C9B26218203AD27F6C
:105030006254491E0906090E0170F5D1E17929294A
:10504000ACD362463E49521CD2B24D4B4A701F78D7
:10505000BA4200D34E7000220378E2545B1CDBB2EC
:105060000370082BF8D3384803785B1CDBB203705D
:10507000032B93D302702878401C2870487808705E
:10508000401CC0B24870B84288D34E70F8BD0B7057
:10509000052BFBD300230B7038482949037049784E
:1050A000354A8C468900009189180278A35C0A2B46
:1050B0000DD2314B009FDF5D2B4B1F702B4B4F7878
:1050C0001F702B4B8F781F702A4BCF781F70521C8C
:1050D000D2B20270082AE8D32178491CC9B22170E3
:1050E000292901D32921217007210170C9B2621831
:1050F000203AD27F6254491E0906090E0170F5D18B
:10510000E1792929C2D362460D49521CD2B21C4B07
:105110004A701B789A4200D34E7000210278A15445
:10512000521CD2B20270082AF8D32E70F8BD0000CB
:10513000440000204A00002041000020AD01002072
:105140007B01002040000020420000203A000020A7
:105150003B0000203C0000203400002037000020ED
:10516000460000204B000020560000205700002081
:105170005800002059000020A50000203800002021
:1051800036000020F8B51F48002600781E4C002885
:1051900029D12078002826D06078002823D0A07854
:1051A0000127401CC0B2A07003281ED005281BD9BF
:1051B0001648A670016A20221143016201220521CE
:1051C000FCF7BEFC5920124D162188222860296068
:1051D0002A602B68002BF9D0FBF7C0FB2E602078EB
:1051E000002808D00BE0A670F8BD0A480221017023
:1051F00009480770F8BD0748077007480770074857
:105200004771F8BD300000200600002040400050EB
:105210000001005067000020690000205E000020AF
:10522000F8B55748574FC178574D584E012929D0E6
:1052300030460178491CC9B2017038460078814275
:1052400076D9002031460870524B51491F78524B95
:1052500009781E78514B2A4612781C78002944D0D0
:105260009100511829704B49BA00BA180A704A497E
:10527000B200B2180A70A2001946A2180A70444976
:1052800008704CE00024C47045480470454801781B
:105290002970404942780A703F4982780A70C17883
:1052A0003E48414D01702888411C2980FAF749FF8A
:1052B000FAF73EFFC0B20A21FAF724FF31702888BE
:1052C000411C2980FAF73DFFFAF732FFC0B21421E2
:1052D000FAF718FF0A3139707C70347074702C48FA
:1052E000B470047031480470F8BD05211046FAF717
:1052F00009FF287005213846FAF704FF2549264F93
:10530000087005213046FAF7FDFE38700521234E5E
:105310002046FAF7F7FE30701D4801210170FAF7B8
:1053200007FFC0B21421FAF7EDFE16480A310170EA
:105330001F480378012BD7D014498878401CC0B28D
:105340008870FA28D0D9002215488A700478641C25
:10535000E4B204709C4200D30270007883001148CC
:10536000C45C18182C700B4B44781C700A4B847862
:105370001C70C37809480370054802700A70F8BDB4
:10538000300000204901002056000020E5000020E8
:10539000170100205700002058000020590000206D
:1053A00040000020A50000202E0000204100002029
:1053B000360000200948C17801290ED10021C170B2
:1053C0000748084A01781170074A41781170074A66
:1053D000817811700649C07808707047300000204D
:1053E000A500002056000020570000205800002093
:1053F0005900002012480021027C012A15D041707A
:105400004279012A10D141710E4A012111700E4AD0
:10541000032111700D4A0E4913780B7092784A706F
:105420008279CA70C0790871704741714278521C04
:10543000D2B24270962AF7D94170017470470000C9
:105440001A000020500000208C00002030000020B6
:105450000F000020F8B520A00068204E0090316AAF
:1054600030131F4C1F4F014201D0002016E00803EB
:1054700001D5204600E038468A030FD40A04920F73
:105480006B469B5CCA058904D20DC90E891C800835
:10549000921C59435043FAF735FE8000124D2860A4
:1054A00031694907490F12D0022902D0032910D0CF
:1054B0002046B1690907090F491CFAF723FE0B4979
:1054C00068604A108018FAF71DFEA860F8BD3846DB
:1054D000EFE70748EDE70000010202040002005078
:1054E00000805101001BB7007C00002040420F00EB
:1054F000102700000F4A10499042486901D1000A64
:1055000000E0000B4007400F06D001280ED0022813
:105510000ED00A480068704708688007800F01288D
:1055200002D00120C0037047054870470548704706
:105530000548EFE70000014000020050780000201D
:10554000001BB7001027000080000020F8B51346AC
:105550000F460646FFF7CEFF044600254008984256
:1055600001D2022010E0012149068C4202D303251A
:10557000A40805E0012109068C4201D30125044657
:1055800019462046FAF7BEFD2F43376070606D1C48
:10559000684301462046FAF7B5FDF8BD10B5FCF7A3
:1055A00009F810BD70B51C4E0D4604467169002007
:1055B00089010322890F2063E2602022A260002972
:1055C0001FD001291FD0022901D314480068B169F6
:1055D0000905090F491CFAF795FD0646002D19D05B
:1055E000680880192946FAF78DFD0D49801E88420A
:1055F0000CD9E80080192946FAF784FD0009801EBD
:1056000007E00848E3E7FBF7F7F8E0E703210907BD
:105610000843606270BD0000000200507800002066
:10562000FFFF0000001BB700026A120A12020A43C1
:10563000026241680122D2021143416070470000BA
:10564000094A0A49002013680B5493695B0403D488
:10565000401CC0B21028F6D3002002460A54401C59
:10566000C0B21028FAD37047000005409500002012
:10567000F8B5FCF78BF8384C0A23A27A1C2137487E
:105680000026374F0125AA2A17D04370817035496B
:1056900006228A71A6713449E67130220A704A7076
:1056A0008A70CA702672AA21A17266723D70037058
:1056B000C5701C20FBF774FCF8BD4278002A01D0AD
:1056C0000D2A01D943703D7042780270C57082780E
:1056D0001C2A01D981703D7020488078FBF760FC5E
:1056E00020488179082901D8C90701D086713D7009
:1056F0004571C571E07A002816D1207A002804D0BF
:10570000552804D0AA2806D00EE0552000E0AA2093
:1057100060723D7008E0A671E671667226720F48ED
:105720003D70FD210170C570A0790009FCF784FA75
:105730000D4D2870A0790007000FFCF77DFA687006
:10574000E0790009FCF778FAA870E0790007000F0B
:10575000FCF772FAE870F8BD1A0000203000002053
:10576000510000205E0000200B0000200FB410B597
:1057700003A9044B044A029800F032F810BC08BC9C
:1057800004B01847BD5A00007400002030B47446BD
:10579000641E2578641CAB4200D21D46635D5B002D
:1057A000E31830BC18470000002805DBC106C90E0D
:1057B00001208840014908607047000000E100E0D6
:1057C00002E008C8121F08C1002AFAD170477047CA
:1057D000002001E001C1121F002AFBD17047000028
:1057E000FFB58FB00F460446002606E025280AD0F4
:1057F000129A11999047641C761C20780028F5D1E4
:10580000304613B0F0BD00250121A14A009500E00B
:105810000543641C23780846203B98401042F7D18A
:1058200020782E2815D1042005436078641C2A288E
:105830000AD101CF641C00900BE000990A22514369
:1058400030394018641C009020780146303909290D
:10585000F3D920786C280ED004DC4C2813D06A28A9
:1058600012D104E074280ED07A280DD10BE001206B
:105870004005054307E00121090562780D43824296
:1058800001D16D18641C641C2078864669284AD0B2
:1058900008DC0028B4D058286DD0632810D06428C4
:1058A00008D140E070286BD0732812D0752860D0E2
:1058B000782860D0129A704611999047761CE5E0DE
:1058C0003878694608720020487202A801900120C9
:1058D00003E0386801900020C0433F1D69070CD5E4
:1058E000002500E06D1C00998D420FDA8542F9DB3E
:1058F0000199495D0029F5D108E0002500E06D1C03
:105900008542FCDB0199495D0029F8D1761907E051
:10591000019801990078491C0191129A11999047B8
:105920006D1EF5D2B2E00A20029000216802400FFD
:10593000039102280CD001CFC117844600290DDA4B
:105940006246084652420021814194462D2008E0DB
:10595000FF1DFF08FF0003CF8446EFE7280504D5AD
:105960002B206A46107401203CE0E8073AD0202042
:10597000F7E70A2000E0102000210391029007E0E1
:10598000102002900021042005430820039100907C
:105990006802400F022810D001CF00218446002069
:1059A0000D9028071FD5704670280CD0029A102041
:1059B000039B42401A430CD015E0FF1DFF08FF0077
:1059C00003CF8446EBE740206A46107401200D9017
:1059D0000CE06046084306D030206A4610747046DA
:1059E000507402200D907046582804D029A00190D0
:1059F0000DA80E900DE02CA0F9E76046039B029ADB
:105A0000FAF7A8FB019B84469B5C0E9A521E0E92ED
:105A1000137060460843F0D10E9805A9081A20308B
:105A20000190680701D5009801E0012000900199DC
:105A3000884203DD01460198081A00E00020002595
:105A4000009006E004A8129A405D119990476D1CE1
:105A5000761C0D988542F5DB04E0129A30201199EE
:105A60009047761C0099481E00900029F5DC08E05C
:105A70000E980E990078491C0E91129A1199904730
:105A8000761C0199481E01900029F1DC641CB4E6E3
:105A90000928010030313233343536373839616204
:105AA00063646566000000003031323334353637C8
:105AB00038394142434445460000000000B50346E2
:105AC000FDF74EF8184600BD1D4D28680126410718
:105AD0001C480027002901DA067000E00770FCF777
