:020000040000FA
:1000000008090020CD010000D101000079010000A5
:1000100000000000000000000000000000000000E0
:10002000000000000000000000000000D5010000FA
:100030000000000000000000D7010000D90100000E
:10004000DB010000DB010000DB010000DB01000040
:10005000DB010000DB010000DB010000DB01000030
:10006000DB010000DB010000DB010000DB01000020
:100070003D6D0000DB010000DB010000DB01000042
:10008000DB010000DB010000DB010000DB01000000
:10009000DB010000DB010000DB010000DB010000F0
:1000A000DB010000DB010000DB010000DB010000E0
:1000B000DB010000DB010000DB010000DB010000D0
:1000C00000F002F800F048F80CA030C808382418F6
:1000D0002D18A246671EAB4654465D46AC4201D180
:1000E00000F03AF87E460F3E0FCCB646012633426A
:1000F00000D0FB1AA246AB4633431847D86F000026
:10010000F86F0000103A02D378C878C1FAD85207C5
:1001100001D330C830C101D504680C6070470000BD
:100120000023002400250026103A01D378C1FBD813
:10013000520700D330C100D50B60704710B5782945
:1001400002D100F067F810BD002010BD1FB500F00F
:100150002BF91FBD10B510BD00F062FA1146FFF774
:10016000F5FF06F0F1FE00F07AFA03B4FFF7F2FFB4
:1001700003BC00F081FA000004207146084202D05E
:10018000EFF3098001E0EFF308807146004A104761
:10019000B921000030B40C490C684A682368106823
:1001A000C0181060241D121D8C4207D28A4208D24A
:1001B0000C604A6030BC4000400870470C00DC3CDA
:1001C000F6E70A00DC3AF3E79C0600200648004701
:1001D000FEE7FEE7FEE7FEE7FEE7FEE70348044929
:1001E000024A044B70470000C100000008070020CD
:1001F00008090020080700200FB4054910B503AA1C
:10020000029800F0E1F910BC08BC04B018470000E7
:100210006400002070B504460D4621461068C046B3
:10022000C0462188090502D50F4A7A4402E00E4AE9
:100230007A440E3223460021243305E006070009E4
:10024000360F965D5E54491C0028F7D120780023B4
:10025000000705D5702D03D0002901D002231132EB
:10026000204600F059F970BD7C6E0000F3B50446DD
:10027000002081B020622046E168884700287AD0BB
:10028000252802D06268A16871E0E1682046002557
:10029000884706460020E0610746A0612A2E0AD062
:1002A000304606F040FE002827D0B8000019303E46
:1002B0000090866119E00298BA00121902C8916193
:1002C00002902046E1688847012F064617D1E06971
:1002D00000281FDA202085431CE000980A2180694D
:1002E000484300998019303888612046E168884782
:1002F000064606F018FE0028EFD1012F0AD02E2E58
:1003000008D12046E16888470646202005437F1C27
:10031000022FC3DBA069002803DA4042A06101205C
:100320000543E80701D010208543002E23D0304636
:100330004138192803D80120C00205432036204641
:1003400025603146029A1546FFF7F8FE00280BD0CB
:10035000012806D0ED1DE808C000083002908AE7A9
:1003600009E02D1D029586E762683046A168904736
:10037000206A401C7EE7206AFEBD00000B4A30B5B3
:1003800011460B4C60310B46DC3B0CC1372106E0BB
:10039000020C8D0012185A51064A504300190A46A1
:1003A000491E002AF4DC30BD0120E7E73C060020AE
:1003B000E119D666CD0D0100002203098B422CD332
:1003C000030A8B4211D300239C464EE003460B43A5
:1003D0003CD4002243088B4231D303098B421CD307
:1003E000030A8B4201D394463FE0C3098B4201D3F9
:1003F000CB01C01A524183098B4201D38B01C01A31
:10040000524143098B4201D34B01C01A52410309A7
:100410008B4201D30B01C01A5241C3088B4201D356
:10042000CB00C01A524183088B4201D38B00C01A03
:10043000524143088B4201D34B00C01A5241411A2A
:1004400000D201465241104670475DE0CA0F00D00D
:100450004942031000D34042534000229C46030906
:100460008B422DD3030A8B4212D3FC22890112BA8C
:10047000030A8B420CD3890192118B4208D3890164
:1004800092118B4204D389013AD0921100E089097C
:10049000C3098B4201D3CB01C01A524183098B425D
:1004A00001D38B01C01A524143098B4201D34B0146
:1004B000C01A524103098B4201D30B01C01A5241A9
:1004C000C3088B4201D3CB00C01A524183088B4230
:1004D00001D38B00C01A5241D9D243088B4201D3B9
:1004E0004B00C01A5241411A00D2014663465241A4
:1004F0005B10104601D34042002B00D549427047A3
:1005000063465B1000D3404201B50020C046C046A0
:1005100002BD704770477047FFB504460D4681B075
:10052000243000902168880604D51022E0699143A8
:10053000216000E00120A84201DD471B00E0002708
:100540000498A1697A191018081AA0612078C006C9
:1005500002D42046C046C046002608E003986268E0
:10056000A168805D9047206A401C761C2062049838
:100570008642F3DB2078C0060AD52046C046C04636
:1005800006E06268A16830209047206A401C206223
:1005900038467F1E0028F4DC07E000986268A168F6
:1005A000405D9047206A401C206228466D1E00284E
:1005B000F3DC2046C046C0462078000602D5022063
:1005C00005B0F0BD0120FBE7084B70B50D467B443C
:1005D00000F013F80446284606F0ACFC002802D0D0
:1005E0000020C04370BD204670BD00006969000056
:1005F00001694A1C02610878704700B58FB002910A
:100600000021059105490193794403911146049015
:100610006846FFF72BFE0FB000BD0000E5FFFFFFAF
:10062000754600F025F8AE46050069465346C008F9
:10063000C000854618B020B5FFF7D0FD60BC00278C
:100640004908B6460026C0C5C0C5C0C5C0C5C0C59E
:10065000C0C5C0C5C0C5403D49008D46704710B5F6
:100660000446C046C0462046FFF77FFD10BD00008F
:1006700000487047A406002001491820ABBEFEE7E1
:100680002600020070470000F0B50023094D7226D5
:1006900000245E4375196600A719EE197070641C7A
:1006A000E955E4B2B270262CF5D35B1CDBB2072B04
:1006B000ECD3F0BD9F020020F0B51049C8780028A7
:1006C0001BD00020C8700E4F0E49387008703E785D
:1006D0000D4A722373439A180B785C001D19541944
:1006E00060705B1C5055DBB2A0700B70262BF3D3EF
:1006F000761CF2B23A70062AE8D9F0BD2C00002030
:100700003A000020280000209F020020F8B52A4867
:100710004378002B2ED005250146284E2D07284F63
:10072000CA780024012B08D024494039022B22D05A
:10073000032B1FD1012A2AD033E0012A09D11E48F8
:100740000022C47004700C211E4801F0DFFC01205F
:10075000706319480178491CC9B20170052909D98B
:1007600004704470686B38406863686B03218902C9
:1007700008436863F8BDC470047074634470686BA8
:1007800038406863686B68638C62CC62F8BDC47083
:10079000047074636A6B3A406A636A6B6A638C6262
:1007A000CC620178491CC9B201700529EED90470E8
:1007B00001214170C170F8BD580000204042005036
:1007C000F3F3FFF34040005070B52848066B28490A
:1007D00003248A1C01250B1F0020012E17D008704E
:1007E00048701178491CC9B21170322909D31070B0
:1007F0005178491CC9B251700A2902D350705C70FB
:10080000DD701B499A78091D012A11D014E010707F
:1008100050700A78521CD2B20A70322AF1D3087092
:100820004A78521CD2B24A700A2AEAD34870E6E7E4
:1008300098700870487088700A78521CD2B20A709A
:10084000322A10D308704A78521CD2B24A703C2A1D
:1008500009D348708A78521CD2B28A703C2A02D3DB
:1008600088705C70DD70FFF751FF70BD4042005032
:100870005C000020FEB5974D9948EE780078009016
:100880009549964C0020974A012E7DD00D786D1C1D
:10089000EDB20D700A2D7BD90870214609788C467F
:1008A000002973D0012973D110708F480021017085
:1008B0008C4804782620214641438C480818019032
:1008C0007220214641438A480D18874901980F78C4
:1008D0000099C65D3046FFF76FFD8648864B017074
:1008E000480008187200195CB218AE187170C01870
:1008F0004178A9548078B0707F1CF8B27A490328F7
:100900000870E2D3641C7748E1B201700529CCD9A4
:100910007A48002101701A46754F152115785478D0
:1009200093784901027856009619F619761875736E
:10093000521C3473D2B2B3730270072AF2D36749E0
:100940000020684C0870694F674D6D4E2070002084
:1009500028703088411C3180FFF710FDFFF71AFC2A
:100960002621FFF733FD207826225043C21928782C
:100970001154401CC0B228700328EAD32078401CD0
:10098000C0B22070052802E003E001E068E0DED993
:10099000FEBDE8705B4E10704F4D11786854605486
:1009A000594D70546854491CC9B211700529F3D9C6
:1009B00010705249002008704A484D49047826209A
:1009C000224642434948101801907220604346185D
:1009D0004A48009900780546FFF7EEFC454801704B
:1009E00048000B1844486900C75C6A18B1184F707A
:1009F00018184378B35480788870019900204855BE
:100A00006D1CE8B23D49394F08702628E0D3641CBC
:100A10003448E1B201700529CBD9324C0020324D67
:100A2000374E2070002028703088411C3180FFF73D
:100A3000A5FCFFF7AFFB2621FFF7C8FC2078262294
:100A40005043C21928781154401CC0B228700328A2
:100A5000EAD32078401CC0B220700528E2D9FEBD40
:100A6000214E10701F4930700978204B26240A4609
:100A70006243D71872230A465A431D4BD218337863
:100A8000FC5C5B1C65006519541960705055DBB245
:100A9000A0703370032BF2D3491C124AC9B21170F3
:100AA0000529DFD91549124A152308705B010C7816
:100AB00065006519AD18ED186873641C2873E4B2FD
:100AC000A8730C70072CF2D304486146491C0170CE
:100AD000FEBD00002C000020C1000020F30000201B
:100AE000300000203A00002031000020BB0100202F
:100AF0009F020020390000209100002028000020E3
:100B00002A0000208901002057010020F0B5184874
:100B1000184BC7781849194D0024194E194A012F4E
:100B200005D02F78082F0ED27F1C2F70F0BDC47017
:100B30001C700C701470002211461046FFF7A4FDC3
:100B40002C703470F0BD2C703578EF0700D1FF2485
:100B500014706D1CECB23470052C03D94478047009
:100B60000124C470127809781878FFF78DFDF0BD64
:100B70002C00002033000020340000203B00002027
:100B8000F3000020350000200248016AC201114331
:100B90000162704700020050F3B58BB00C46FFF7BE
:100BA000F3FF0B9800287448016813D00422114306
:100BB0000160102000F0F0F90120C00409906F4896
:100BC0000090042008906E486E49201888420ED884
:100BD00000251DE089088900491C0160012000F002
:100BE000DBF900200990684800900220EAE7674896
:100BF000664920184942884202D80125640007E06E
:100C0000634863492018494288427DD20325A400E5
:100C10000026F643089F22E039460098FFF7CCFBF8
:100C20005C49844641185C48814217D2554B0222E8
:100C30005B1C534861465143401C0818984209D830
:100C4000A14201D9081B00E0601AB04202D206009E
:100C500004920CD05148521C8242EAD97F1C212FA9
:100C6000DAD900200696C0430190089E54E0099905
:100C7000A803084301217A028902511A0843049902
:100C8000891E08433C490862042000F085F9691C6C
:100C900079430098FFF790FB049948430DB0F0BDED
:100CA00031460098FFF788FB3A4942183A498A4290
:100CB00031D20221324B02464A435B1CD7185B42B9
:100CC0009F4224D8A24201D9121B00E0A21A019B24
:100CD0009A421CD20192069B0F469A4217D109995B
:100CE000A8030843012172028902511A0843B91E60
:100CF000084321490862042000F04EF9691C714341
:100D00000098FFF759FB00E008E07843C6E7234A64
:100D1000491C9142CED9761C212EC1D90B980028AE
:100D20000FD01F4914480162042000F035F91DA0BE
:100D3000006803901048016A0013014203D00020AC
:100D4000ACE71949EEE7080301D50C4800E00E486E
:100D50008A03A3D40A04920F03AB9B5CCA058904DF
:100D6000D20DC90E891C8008921C59435043FFF7CD
:100D700023FB800092E70000000200500080510138
:100D8000FF1E0AFAFFE0F505001BB700800F05FD06
:100D9000C08782FEFF95E7FFBF77CC00010200000D
:100DA00018440800010202041640000004498207AA
:100DB0000A6801D09208920002430A60704700005E
:100DC0000002005008B511A0006800901048016AA8
:100DD0000013014201D0002008BD080301D50D48D1
:100DE00000E00D488A03F7D40A04920F6B469B5C1F
:100DF000CA058904D20DC90E891C8008921C59436A
:100E00005043FFF7D9FA800008BD00000102020438
:100E10000002005000805101001BB70070B502F0C5
:100E2000C9FB2D4841682D4A1140416041680325A6
:100E3000294341600120FFF7B9FF012000F0ACF821
:100E400000062749000E087009D10420FFF7AEFF05
:100E5000102000F0A1F80021072000F08BF82148B5
:100E600000F046F8204C08262660304600F094F842
:100E70000120A060606928436061A168E0018143AE
:100E8000A160A1680143A16060690321090688434C
:100E9000606105200007416B144A11404163416BBA
:100EA0000322920211434163A06804210843A06019
:100EB00060690721090288436061A0683043A0602F
:100EC000606909018843606105F094FE02490020D1
:100ED000C031086070BD000040000050FCFCFFFF06
:100EE0004D000020006CDC0200020050F3F3FFF321
:100EF000F8B51E4C0546E66810201D49064048100E
:100F00008D4201D90D4602E0854200D20546206897
:100F1000042738432060102000F03EF820690721A4
:100F200008432061A06900090001A06120688007D2
:100F3000800F01280ED069007804FFF72DFEE668C7
:100F40000546102006400121022000F013F8002E73
:100F500006D008E069000020FFF71EFE0546F2E714
:100F60002068B84320606808F8BD00000002005007
:100F700080F0FA0210B5074A93691B091B010B4365
:100F800093611169C908C9000143116105F032FE7E
:100F900010BD00000002005010B50749074A05E0E7
:100FA0000B46491E002B01DC002010BDD46803460F
:100FB000A343F5D1012010BD80F5200000020050B0
:100FC000F0B5DB48DB4985B0C378897902910146E9
:100FD0008D79CA790124002B13D18178491CC9B2BB
:100FE000817096290DD3D449C4700C704C704C2379
:100FF0008B704123CB7043230B71029B4B71CD71DE
:101000000A72837C0021002B09D0437C5B1CDBB27D
:1010100043740F2B03D34174FF2303718174C74BB7
:101020001E78002E63D00021C14819708474417469
:10103000C3490C70C178C3480029067801D1F02E4D
:1010400026D0C0483707017901913F0F40790390BE
:10105000072F04D0A9424AD10398904247D10F2EBE
:1010600005D0B34831090379994240D00171B548A0
:101070003B00C17800914178807805F047FF103837
:10108000151523383A3887FE38443838FD38553836
:10109000A9484C210470447081704121C1704321E2
:1010A0000171029941713FE1A3480221017044702E
:1010B0004C2181704121C17043210171029941711C
:1010C000002130E10A2901D9FF2910D11C280ED8AE
:1010D0009D4D00292970EC7009D0FF2905D0A8701A
:1010E00000F014FA287868701BE06878287005B062
:1010F000F0BD0828FBD8C107F9D18E498871934803
:101100004C710470E2E00329F1D80029EFD00828DF
:10111000EDD88D4A0A3111705170D470907000F082
:10112000F5F98A480470E2E787480A1F854D007880
:10113000130005F0EBFE0A0606111111060606065D
:101140000611814B884207D1794A167C002E03D1C3
:10115000DC7014747E4A14700A29C8D97A4E0028AB
:10116000C5D0884207D0317071707848F47004702F
:10117000B07800F0CBF9B178A8788142B7D0B070E0
:101180007249F4700C7000F0C1F9B0E7684BDE7B77
:101190001F463B7B7F7B012EBC4640D1644F00261F
:1011A000FE734140019E0098664F70404140039895
:1011B000814210D06448FF210170C4705E48022152
:1011C000017008214170042181700021C1700171FA
:1011D00043716146A7E07F1C002001460097009EF6
:1011E000765C360270400026C70B03D0594F400092
:1011F000784000E04000761CF6B280B2082EF3D3AF
:10120000491CC9B20429EAD319026144484E89B283
:101210006746814210D04C48FF210170C470464897
:101220000221017008214170042181700021C170E8
:1012300001714371394676E0180900F0D1FF464D3F
:101240002870307B0007000F00F0CAFF6870707BC9
:10125000000900F0C5FFA870707B0007000F00F0C8
:10126000BFFFE87034480821047041700321817089
:101270000021C170017101E02DE010E0337B43716A
:10128000727B8271B579C571F5790572B371F271AE
:10129000317371732C48FD210170C47041E701293D
:1012A00014D0022900D022E72149CC730873009B97
:1012B0004B73214902240C704E708C700024CC704A
:1012C0000C7148718B71CD710A7210E71E48FB21B9
:1012D0000170C4700BE70D23002916D00129E2D15B
:1012E0001548022101701D49437009788170104929
:1012F000C97AC170192101711221417118218171BE
:101300005721C17143210172F1E60B48022101709E
:1013100043704C2181704121C170432101711049FA
:101320000978417102998171C5710272DFE600008E
:10133000140000205000002078000020030000204E
:101340005A0000200E0000202C0000204B0000203E
:101350004A00002021100000050000204D00002060
:1013600046000020F0B55E4D5E4EEF785E4B5F4C60
:101370005F4A6049002085B0012F32D037787F1C4A
:10138000FFB23770052F53D3307077787F1CFFB2D0
:1013900077701E2F13D370701E78761CF6B21E70F5
:1013A000052E0CD9544E187037787F1CFFB2377059
:1013B000142F04D930700126EE70504D2E701F7816
:1013C0004C4B1B780093DB1CDBB20393474B1E781E
:1013D000474B1D783B0005F099FD062D32383E4401
:1013E0004A4FE870187020701070087030704249D1
:1013F00070700870414901220A70414A41491070D9
:10140000174608703E78404A722373439A180B7847
:101410005C001D19541960705B1C5055DBB2A07044
:101420000B70262BF3D3761CF3B23B70052BE8D957
:1014300005B0F0BD761D08702670ED1F0FE010702E
:10144000009B9B1F0B7009360FE02070ED1D15707F
:10145000009B1B1F0FE0761F087026700835157063
:101460000AE01070039B0B70F61F267004E02070DA
:10147000083D1570039B0B70214F002038702578B4
:1014800014780B782048397872260A467143091877
:1014900060310D74CC734B74521CD1B23970052974
:1014A000F1D9002139701748002101703A781649A6
:1014B000722353435B1804786100651859190E793B
:1014C0004E70CE785E554D798D70641CE1B201701E
:1014D0002529F0D3521CD0B238700528E3D9A7E7EC
:1014E0002C000020C1000020F30000203300002069
:1014F00034000020350000203F00002019000020AB
:101500003A000020280000209F020020F8B5014684
:10151000F94800240078FA26F84D27460A2874D99D
:10152000F74A0C2010700B0005F0F0FC07154D8BEE
:10153000B2E7FB051400F349600020180A5C2A5446
:10154000431840195A784270641C9A78E4B2827049
:10155000102CF1D3F8BD05212046FEF72DFF002900
:1015600008D001290CD0022910D0032916D0042953
:101570001CD023E0600020182F544019467013E05F
:10158000600020182E54401947700DE06100C820FB
:10159000611868544919487088700FE0600020187D
:1015A0002F54962140194170877007E06000642134
:1015B00020182954C821401941708170641CE4B27C
:1015C000102CC8D3F8BD07212046FEF7F5FE0029F0
:1015D0000CD0012911D0022918D003291DD00429CB
:1015E00023D0052912D006291FD025E0600021183C
:1015F0006E5432204919487005E0600020182E54BE
:1016000041194F703220887016E0D8E06000201831
:101610002E543221401941700DE0600096212018AF
:10162000295440194670877006E0600020182E5437
:101630004019477032218170641CE4B2102CC2D36F
:10164000F8BDA00709D0A007800F012815D00228F7
:101650000AD0E043800710D015E0600020182E5417
:101660004019477087700EE06000642120182954EB
:10167000C82140194170817005E0600020182F5486
:10168000401947708670641CE4B2102CD9D3F8BDA1
:1016900005212046FEF790FE002908D001290ED032
:1016A000022911D0032916D004291AD020E06000A5
:1016B00020182F54401946703221817018E06000C4
:1016C00020182E54322110E0600096212018295451
:1016D000401946700BE0600020182E5440194770E6
:1016E00005E0600020182E54962140194170877043
:1016F000641CE4B2102CCBD3F8BDA00712D0A00715
:10170000800F012813D0022819D06100962061189B
:101710006854481946708770641CE4B2102CECD3EE
:10172000F8BD13E0600020182F544019F2E7600064
:1017300020182F544019467032218170ECE7600068
:1017400020182F54962140194170E4E709212046C2
:10175000FEF732FE002910D0012913D0022929D02A
:10176000032914D004290DD005291CD0062909D03D
:1017700007291FD008290AD010E0600020182E5435
:10178000322101E0962103E04019417010E032213E
:10179000600020182954401947708670641CE4B218
:1017A000102CD3D3BCE7600020182F54401946708A
:1017B0008770F3E7600020182F549621E4E7102982
:1017C0000BD2480009184F48425C2A70081841782B
:1017D00069708078A870012170E01039042003221C
:1017E0000B0005F093FB0D09131E2F3B467E91A4C1
:1017F000B0EAFAF8080093E72F7032206E70A870F4
:101800009621E9702E716F71AE712FE02F706E709E
:10181000AF70EE702F716F719621A971EE712F72FA
:10182000E4E032212E706970AF70EE7096222A715A
:101830006F71AE71E9712F726E72AF72EA723049D8
:1018400008706DE764202870C8206870A870EF7079
:101850002E716E714CE02A48027061E72E706F7035
:10186000AF70EF702E716F71C820A871E871287287
:10187000F1E707212046FEF79FFD002929D0012925
:1018800009D002290ED003291BD0042903D0052931
:101890001FD006290DD1600020182E544019477022
:1018A000322105E0600020182E5432214019417089
:1018B0008170641CE4B2102CDBD307211048017046
:1018C0002EE7600096212018295440194670877031
:1018D000EFE7600021186E54322049194870887073
:1018E000E7E72E706F70AF70C820E87028716871DC
:1018F000AF71EF712E72AEE72C0000209100002036
:1019000030000020747000002F706E703220A870BC
:10191000EE7028716F71AE71EF7196202F72687240
:10192000AE72EF722E736873AF730521C6E72F7026
:101930006E70AF70EF702E71322068719620A871B2
:10194000EE712F7287E709212046FEF735FD002949
:1019500010D0012913D002292AD0032914D0042938
:101960000DD005291DD0062909D0072920D0082926
:101970000AD010E0600020182E54322101E0962198
:1019800003E04019417011E0322160002018295411
:10199000401947708670641CE4B2102CD3D309211F
:1019A0008CE7600020182F54401946708770F2E7CA
:1019B000600020182F549621E3E72E706F70AF70EF
:1019C000EE70322129716F71AE719621E9712F721B
:1019D0006E72AE720DE00EE0FFE72F706F70AE70AA
:1019E000EF702E716F71AF71EE712E726E723221C7
:1019F000A972EF7223E7084861006118425C6A54DB
:101A00000A18491953784B70641C9278E4B28A70B2
:101A10000C2CF1D30C2012E774700000F0B52D48A7
:101A20002D4A84790123002C05D04679851E00219A
:101A3000012E0BD016E028482038016A890104D510
:101A4000016A8402A14301629360F0BD417141705B
:101A50008170C1700171298016680127BF073E435C
:101A6000166093609668F607F60FEED093602A88AA
:101A70001A4E521C92B22A80B24201D32980F0BD84
:101A80008278521CD2B282703C2A0ED38170C27806
:101A9000521CD2B2C2703C2A07D3C1700279521CC8
:101AA000D2B20271182A00D301714278002AE6D11D
:101AB0008278002AE3D1C278002AE0D10279002A94
:101AC00005D0A242DBD102220270C171F0BD0370C9
:101AD000C371F0BD5000002020000140983A000082
:101AE00030B5154A154800211368435493695B04C7
:101AF00003D4491CC9B21029F6D302240125104B86
:101B0000022906D0072910D05C70906820439060AD
:101B100030BD0178FD2906D14178F02903D18078C4
:101B200007E05D7030BD5C7030BD0178FD29FAD1F1
:101B3000C079FE28F7D1F4E70000054081000020BD
:101B40000300002030B5124A00205478002C1DD02C
:101B50000021104B012C07D0022C17D11954401C26
:101B6000C0B21028FAD310E001241470084C0B34D2
:101B70001D186D782554401CC0B20628F8D30020EB
:101B80001954401CC0B21028FAD3517030BD000067
:101B9000030000208100002010B5204A00201478A6
:101BA000002C13D01E49012C11D00023032C22D06D
:101BB000022C0BD1FD240C60141864780C60401CBE
:101BC000C0B20828F8D3FE200860137010BDFC23B3
:101BD0000B604C230B6041230B6043230B60114CC3
:101BE000235C0B60401CC0B20428F9D3FE200860BF
:101BF0000220107010BD1370FA220A600B600B6097
:101C00000F220A60074B1B1D1A5C0A60401CC0B201
:101C10000528F9D3FE20086010BD000078000020E0
:101C2000000005400500002010B500F091FC0D49B2
:101C30000B78002B0ED0002201240B48012B02D080
:101C4000022B04D006E00A704178017001E00A70AE
:101C50000270C47001F0E0F804F09CFFFFF7B0F9E7
:101C600010BD0000500000202C0000200A49222254
:101C7000CA604860012008610869C007FCD1086893
:101C8000400606D508684022104308600020C04383
:101C9000704700207047000000C0005002480168F3
:101CA000012211430160704700C000500549002225
:101CB000CA604860012008610869C007FCD18868D3
:101CC0007047000000C00050054A2123D3605060D7
:101CD0009160012010611069C007FCD170470000BD
:101CE00000C0005010B50124240501F055FCFFF799
:101CF000D5FF224908682022104308602046FFF7DC
:101D0000D5FF1F4C60701F48FFF7D0FFA0701D4823
:101D1000001DFFF7CBFF1C4988711A480830FFF7F8
:101D2000C5FF1A49087017480C30FFF7BFFF184964
:101D3000C0B2088013481030FFF7B8FF1549C0B291
:101D4000088010481430FFF7B1FF134908700D48A0
:101D50001830FFF7ABFF114908700A481C30FFF735
:101D6000A5FF0F49087007482030FFF79FFF0D4976
:101D700008700D490020086010BD000000C0005030
:101D80002C00002004001000500000204C00002017
:101D900046000020480000201C0000201A000020FF
:101DA0001B0000201E0000200001005070B52748D5
:101DB000012401782405012947D10025057001F08F
:101DC000EBFBFFF76BFF2248016820221143016003
:101DD0002046FFF74BFF1F4E20467178FFF774FF38
:101DE000201DB178FFF770FF1C491B488979FFF768
:101DF0006BFF19481A49001D0978FFF765FF16485F
:101E0000184908300988FFF75FFF134816490C305E
:101E10000988FFF759FF1048144910300978FFF777
:101E200053FF0D48124914300978FFF74DFF0A4857
:101E3000104918300978FFF747FF07480E491C3052
:101E40000978FFF741FF0D48056070BD4B00002089
:101E500000C000502C00002008001000500000209E
:101E60004C00002046000020480000201D000020FB
:101E70001A0000201B0000201E000020000100505E
:101E8000FEB57948794AC37879497A4F7A4D00246A
:101E9000012B16D010460078784A0290127800285C
:101EA0004AD001287ED002280AD1521C7348D1B2F0
:101EB000734A01701278914200D904706B48047023
:101EC000FEBDC4706F4B704E3C7038780C54145487
:101ED0001C543454401CC0B238700528F5D93C70ED
:101EE0002C703E78694872217143081829784A009D
:101EF0008B18C2185470491CC454C9B2947029700C
:101F00002629F3D3761CF0B238700528E8D9604D45
:101F100032212878FEF750FA5E490870687832213D
:101F2000FEF74AFA5C490870A8783221FEF744FAB5
:101F30005A4908705148C2E74C494878262803D3CB
:101F40004C708878401C887048782870431C4B700F
:101F50008B78052B02D98C70012022E03B70722512
:101F60006B435100494D541849495B1945000A5DBE
:101F700040191D186A7061184C781C548E78AE7028
:101F800032211046FEF718FA4249087032212046E5
:101F9000FEF712FA4049087032213046FEF70CFA7B
:101FA0003E4900E001E00870FEBD4878BE2801D23D
:101FB000401C4870002028702D48262440780521B8
:101FC000FEF7FAF9201A01902B490B7898422FDC82
:101FD00058002E49181842185478002C05D10C5C72
:101FE000002C02D19278002A22D000223A70294C8B
:101FF000294D2478294A00942C781278A4469646D4
:10200000397872240A466143204C009D0C1921182E
:102010004E78521C751B4D70255C6646AD1B2554D1
:102020008C787546641B8C70D1B239700529E7D95C
:102030005B1C1148D9B20170262901D20198C3E76F
:10204000124841780029AFD101780029ACD18078BD
:102050000028A9D102980549401C0870002048704A
:10206000887003494870FEBD2C000020F30000205A
:10207000C10000203A000020280000203900002084
:102080003000002089010020570100209F0200201D
:10209000910000203600002037000020380000208A
:1020A00070B5184C03222021204600F02FF8154D62
:1020B000032280351021284600F028F80122202133
:1020C000284600F023F80F480122F021403800F0A4
:1020D0001DF80C4801223021403000F017F8012291
:1020E0001021204600F012F80749002008614861DD
:1020F0008861C861044A4032506110610863012060
:10210000506370BD4040005000420050F0B50023C5
:102110000125944603272A469A400A4209D00668B8
:102120005C003A46A24096432246644694402643C9
:1021300006605B1C082BEED3F0BD0000F0B518481C
:10214000184BC778184A194D0024194E1949012F08
:1021500005D02F78082F0ED27F1C2F70F0BDC470D1
:102160001C700C701470002211461046FEF78CFA99
:102170002C703470F0BD2C703578EF0700D1FF243F
:102180000C706D1CECB23470052C03D944780470CB
:102190000124C470127809781878FEF775FAF0BD3A
:1021A0002C00002033000020350000203B000020E0
:1021B000F300002034000020044603A0FEF71CF8C2
:1021C000204604F003FFFEE7496E20486172642058
:1021D0004661756C742048616E646C65720A00001B
:1021E0000F2801D90007000F0A2801D2303000E083
:1021F0003730C0B270470000FEB5C449C448CA7841
:10220000C44BC54E0025C54CC54F012A05D00178E9
:10221000082958D2491C0170FEBDCD703D70C14DDA
:10222000BB4A387800211154BA4A26231154BE4AB9
:102230003154115402465A4321705319227899544B
:10224000521CD2B22270262AF8D3401CC0B2387079
:102250000528E5D9B548017800291AD00021017078
:10226000B34C32212078FEF7A7F8B24908706078A5
:102270003221FEF7A1F8B0490870A0783221FEF7AC
:102280009BF8AE490870A34900204870AC4908701B
:10229000FEBD0020387020703E78AA497222724339
:1022A000511822785300D5184B195870521C4855B4
:1022B000D2B298702270262AF3D3761CF1B239700C
:1022C0000529E8D9CCE7A0490570924A0978127827
:1022D00001293FD0062A7DD23D708F4D3878285C89
:1022E000262878D2994E3088411C3180FEF746F876
:1022F000FDF750FFC0B22621FEF75EF82170387856
:1023000026225043874A8018405C0028EBD1387859
:10231000295C491C2954844909784A008E1884494B
:1023200072228B5D01465143864A8A1821788C4679
:102330004D00491955186B707D4BF3185E78565453
:102340009978A970262148437649012240186146B0
:102350004254ADE05978002904D07A494A78002ADD
:102360005DD156E0062A46D23D706B4E3878305C1F
:10237000262836D2754A1088411C1180FDF7FEFFD1
:10238000FDF708FFC0B22621FEF716F82170387855
:1023900026225043634A8018405C0028EAD13878EE
:1023A0007222315C491C315461490B78014651431A
:1023B000644A891822789446560092198E187370D0
:1023C0005B4B5B788B545A4926228978B170012186
:1023D000504301E074E067E0524A8018624681543D
:1023E00003E04C480178491C01703878401CC0B2A9
:1023F00038700528B9D952480178491CC9B2017012
:10240000322900D244E7057042484178491C4170A6
:10241000FEBD0A78002A02D18A78002A2DD04548CC
:102420003D70454A00780190444B10780090187830
:10243000844600203A4920700978424872224A4373
:1024400010182578019E6A00AB18C21857786D1CC9
:10245000BE1B5670C75C009EBE1BC6549378664672
:102460009B1B9370EAB22270262AEAD3491C2C4A9D
:10247000C8B210700528DCD9FEBD2A4B3D703878F3
:10248000244935540D54262141432570CA1821781A
:102490005554491CC9B221702629F8D3401CC0B23A
:1024A00038700528EBD9FEBD1A480178491C017027
:1024B0003878401CC0B23870052800D80DE7FEBD42
:1024C0004278521CD2B242700C2AF8D94570164894
:1024D0000278521CD2B202708A4200D30570114BAE
:1024E0003D7038780B4935540D54262141432570F1
:1024F000CA1821785554491CC9B221702629F8D32D
:10250000401CC0B238700528EBD9FEBD2C0000205D
:10251000C1000020F30000208901002028000020D5
:102520003A000020BB010020570100204A00002093
:1025300091000020360000203700002038000020E5
:10254000320000209F020020300000202A000020DE
:1025500070B51E491E4C0A78267801250020012AF4
:1025600007D0022A04D10870002E01D02070E57037
:1025700070BD0870164A0B215278164B002E10D0F1
:102580001D70A678761CF6B2A670062E0AD9521CCB
:10259000D2B2A070627022700D2A03D961702070CF
:1025A00010E0227060780B2806D00C2804D00D288B
:1025B00002D0617021701D70A078062802D9062013
:1025C000A0701D70A078FEF7A1FFD0E702000020E8
:1025D0002C0000204B0000200E48436B0E480122C7
:1025E0000178002B02D000290CD00FE0002908D17F
:1025F0004178491CC9B24170462902D902700221B2
:10260000817070474178012900D9827000214170A2
:1026100001707047004200500000002070B5384C37
:10262000608811306080201D017808294CD007DCBB
:102630000B0004F06BFC083134373A3D4043461739
:102640000D2950D008DC092941D00A2942D00B2994
:1026500043D00C2906D143E0FB2947D0FD2948D0BF
:10266000FF2949D00A210170002026492070152534
:102670006D01084660302378067C5A009A1852187B
:1026800052195673467C1673C67B96735B1CDAB27E
:102690002270062AEFD370BDFEF70EF8E4E704F0CF
:1026A00033FAE1E7FEF7E6F8DEE704F0B1F8DBE73E
:1026B000FFF7A2FDD8E700F08BFFD5E700F0DEFDC5
:1026C000D2E700F0C5FCCFE7FFF7DAFBCCE700F07C
:1026D000C5FBC9E7FEF746FEC6E701F0A7F8C3E76A
:1026E00001F040FEC0E702F027FFBDE7FEF70EFA5B
:1026F000BAE7FFF723FDB7E700F06CFCB4E7000092
:10270000280000209F020020F8B5FE4C64200146FE
:10271000401EC0B20029FAD10027FB4D3E4620786A
:102720000321641CFDF748FE00220121C309296131
:102730002BD000BF00BF00BF00BF00BF00BF00BF65
:1027400000BF00BF00BF00BF00BF00BF00BF00BF91
:1027500000BF00BF00BF00BF00BF00BF00BF00BF81
:1027600000BF00BF00BF00BF00BF00BF00BF00BF71
:1027700000BF00BF00BF00BF00BF00BF00BF00BF61
:1027800000BF00BF00BF2E6126E000BF00BF00BF3A
:1027900000BF00BF00BF2E6100BF00BF00BF00BF71
:1027A00000BF00BF00BF00BF00BF00BF00BF00BF31
:1027B00000BF00BF00BF00BF00BF00BF00BF00BF21
:1027C00000BF00BF00BF00BF00BF00BF00BF00BF11
:1027D00000BF00BF00BF00BF00BF00BF00BF00BF01
:1027E00000BF00BF00BF00BF4006521C000ED2B2A7
:1027F000082A9BD37F1CFFB2722F90D3632002461E
:10280000401EC0B2002AFAD1002720780321641CA0
:10281000FDF7D2FD00220121C30969612BD000BF61
:1028200000BF00BF00BF00BF00BF00BF00BF00BFB0
:1028300000BF00BF00BF00BF00BF00BF00BF00BFA0
:1028400000BF00BF00BF00BF00BF00BF00BF00BF90
:1028500000BF00BF00BF00BF00BF00BF00BF00BF80
:1028600000BF00BF00BF00BF00BF00BF00BF00BF70
:1028700000BF6E6126E000BF00BF00BF00BF00BF09
:1028800000BF6E6100BF00BF00BF00BF00BF00BF40
:1028900000BF00BF00BF00BF00BF00BF00BF00BF40
:1028A00000BF00BF00BF00BF00BF00BF00BF00BF30
:1028B00000BF00BF00BF00BF00BF00BF00BF00BF20
:1028C00000BF00BF00BF00BF00BF00BF00BF00BF10
:1028D00000BF00BF4006521C000ED2B2082A9BD394
:1028E0007F1CFFB2722F90D363200246401EC0B2FD
:1028F000002AFAD1002720780321641CFDF75CFD33
:1029000000210122C309AA612BD000BF00BF00BF74
:1029100000BF00BF00BF00BF00BF00BF00BF00BFBF
:1029200000BF00BF00BF00BF00BF00BF00BF00BFAF
:1029300000BF00BF00BF00BF00BF00BF00BF00BF9F
:1029400000BF00BF00BF00BF00BF00BF00BF00BF8F
:1029500000BF00BF00BF00BF00BF00BF00BFAE612F
:1029600026E000BF00BF00BF00BF00BF00BFAE61D8
:1029700000BF00BF00BF00BF00BF00BF00BF00BF5F
:1029800000BF00BF00BF00BF00BF00BF00BF00BF4F
:1029900000BF00BF00BF00BF00BF00BF00BF00BF3F
:1029A00000BF00BF00BF00BF00BF00BF00BF00BF2F
:1029B00000BF00BF00BF00BF00BF00BF00BF00BF1F
:1029C0004006491C000EC9B208299BD37F1CFFB2E8
:1029D000722F90D363200146401EC0B20029FAD165
:1029E000002720780321641CFDF7E6FC002101226A
:1029F000C309EA612BD000BF00BF00BF00BF00BF0A
:102A000000BF00BF00BF00BF00BF00BF00BF00BFCE
:102A100000BF00BF00BF00BF00BF00BF00BF00BFBE
:102A200000BF00BF00BF00BF00BF00BF00BF00BFAE
:102A300000BF00BF00BF00BF00BF00BF00BF00BF9E
:102A400000BF00BF00BF00BF00BFEE6126E000BFB7
:102A500000BF00BF00BF00BF00BFEE6100BF00BFEE
:102A600000BF00BF00BF00BF00BF00BF00BF00BF6E
:102A700000BF00BF00BF00BF00BF00BF00BF00BF5E
:102A800000BF00BF00BF00BF00BF00BF00BF00BF4E
:102A900000BF00BF00BF00BF00BF00BF00BF00BF3E
:102AA00000BF00BF00BF00BF00BF00BF4006491C01
:102AB000000EC9B208299BD37F1CFFB2722F90D39E
:102AC000002720780321641CFDF776FC00210122F9
:102AD000C3090E4B5A6132D000BF00BF00BF00BF18
:102AE00000BF00BF00BF00BF00BF00BF00BF00BFEE
:102AF00000BF00BF00BF00BF00BF00BF00BF00BFDE
:102B000000BF05E09F0200200042005040420050FC
:102B100000BF00BF00BF00BF00BF00BF00BF00BFBD
:102B200000BF00BF00BF00BF00BF00BF00BF00BFAD
:102B300000BF00BF00BF00BF00BF5E6126E000BF56
:102B400000BF00BF00BF00BF00BF5E6100BF00BF8D
:102B500000BF00BF00BF00BF00BF00BF00BF00BF7D
:102B600000BF00BF00BF00BF00BF00BF00BF00BF6D
:102B700000BF00BF00BF00BF00BF00BF00BF00BF5D
:102B800000BF00BF00BF00BF00BF00BF00BF00BF4D
:102B900000BF00BF00BF00BF00BF00BF4006491C10
:102BA000000EC9B2082993D37F1CFFB2722F88D3BD
:102BB00063200146401EC0B20029FAD100272078C8
:102BC0000321641CFDF7F8FB00220121C3096B4BB4
:102BD00019612FD000BF00BF00BF00BF00BF00BF02
:102BE00000BF00BF00BF00BF00BF00BF00BF00BFED
:102BF00000BF00BF00BF00BF00BF00BF00BF00BFDD
:102C000000BF00BF00BF00BF00BF00BF00BF00BFCC
:102C100000BF00BF00BF00BF00BF00BF00BF00BFBC
:102C200000BF00BF00BF00BF00BF00BF00BF00BFAC
:102C30001E6126E000BF00BF00BF00BF00BF00BF95
:102C40001E6100BF00BF00BF00BF00BF00BF00BFCC
:102C500000BF00BF00BF00BF00BF00BF00BF00BF7C
:102C600000BF00BF00BF00BF00BF00BF00BF00BF6C
:102C700000BF00BF00BF00BF00BF00BF00BF00BF5C
:102C800000BF00BF00BF00BF00BF00BF00BF00BF4C
:102C900000BF4006521C000ED2B2082A96D37F1CF9
:102CA000FFB2722F8BD363200246401EC0B2002AAF
:102CB000FAD1002023780022641CDF09296323D085
:102CC00000BF00BF00BF00BF00BF00BF00BF00BF0C
:102CD00000BF00BF00BF00BF00BF00BF00BF00BFFC
:102CE00000BF00BF00BF00BF00BF00BF00BF00BFEC
:102CF00000BF00BF00BF00BF00BF00BF00BF00BFDC
:102D000000BF00BF2E6326E000BF00BF00BF00BFB2
:102D100000BF00BF00BF00BF00BF00BF00BF00BFBB
:102D200000BF00BF2E6300BF00BF00BF00BF00BFD9
:102D300000BF00BF00BF00BF00BF00BF00BF00BF9B
:102D400000BF00BF00BF00BF00BF00BF00BF00BF8B
:102D500000BF00BF00BF00BF00BF00BF00BF00BF7B
:102D600000BF00BF00BF5B06521C1B0ED2B2082A78
:102D7000A3D3401CC0B212289CD3F8BD40420050DF
:102D800010B5FEF74BF800F015FC03211B480902B3
:102D90000160016802221143016001214160016864
:102DA000802211430160164900200860FFF778F97E
:102DB000144C1E21204604F007F8606810210843D7
:102DC00060600802104908604B21C901204603F0E9
:102DD000B9FF0E4C01213222C906204603F086FFBE
:102DE0002168A00301432160094921620949616208
:102DF000064920310A6802430A6010BD00400040C5
:102E0000000100500000054000E100E0000001402A
:102E1000FF0000081BB700000E480021027A002ABC
:102E20000BD0827B521CD2B28273FA2A05D38173F3
:102E30000172094B417201221A70C27B002A07D02D
:102E40000278521CD2B20270FA2A00D3C1737047C2
:102E500001707047140000204B000020F0B5544C66
:102E6000544BE5785449554A0020012D05D01C7873
:102E7000052C26D2641C1C70F0BDE0700870107028
:102E80004F49514A08704F491746087018704F490A
:102E9000107008703E784E4A722373439A180B786C
:102EA0005C001D19541960705B1C5055DBB2A0709A
:102EB0000B70262BF3D3761CF2B23A70052AE8D9B0
:102EC000F0BD002018703D480E780478330020468D
:102ED0000F30C7B23A4805783A48007804F016F83F
:102EE00007050910171E26622C00FF2C20D3012095
:102EF00021E03348FF2D01D20F3513E002201AE004
:102F0000002C02D00F3C147016E0032013E02D4B70
:102F1000FF2801D20F3049E004200CE02848002DA2
:102F200002D00F3D057007E0052004E0FF2C01D220
:102F3000177001E006200870234F002038702148E8
:102F40001F49037815780C782148397872260A468B
:102F50007143091860310D74CC734B74521CD1B29B
:102F600039700529F1D90021397018480021017004
:102F70003A781749722353435B1804786100651847
:102F800059190E794E70CE785E554D798D70641C4E
:102F9000E1B201702529F0D3521CD0B23870052857
:102FA000E3D9F0BD074B0028A1D00F381870C3E754
:102FB0002C000020C1000020F3000020360000207B
:102FC00037000020380000203A00002028000020B0
:102FD0009F020020F0B518481849C778184A194DC3
:102FE0000024194E194B012F05D02F78082F0ED22F
:102FF0007F1C2F70F0BDC4701C700C701470002208
:1030000011461046FDF740FB2C703470F0BD2C705B
:103010003578EF0700D1FF241C706D1CECB23470C2
:10302000052C03D9447804700124C47012780978FF
:103030001878FDF729FBF0BD2C000020340000209B
:10304000350000203B000020F3000020330000206A
:10305000FEB579487949C278097800917849794B69
:103060000024012A19D00878002862D000200870B6
:103070001846047874487849077874480A780678BE
:103080007348764905787348754B007809781B7842
:10309000002C51D0012C76D168E0C4707148724E7A
:1030A0006F4D047002788C549C54B454AC54521C30
:1030B000D2B20270052AF5D96C4D047069482C70A3
:1030C00000786B4972220190504347182878009984
:1030D0000646FDF771F967480170700031187818DD
:1030E00044707C548470761CF0B228702628EDD38E
:1030F00001985C49401CC0B208700528DED95E4DBD
:1031000019212878FDF758F94F4908706878192176
:10311000FDF752F94D490870A8781921FDF74CF9CF
:103120004B4908704B4804704B4804704B4804707E
:10313000FEBD01200870FEBD5C001C194E4B1B5DDE
:10314000834207D84C4BE3185C78944202D89B78B2
:103150008B4208D93F4BC01918703F489219027032
:103160003E4849190EE0374801210BE0044614435C
:103170000C4309D0374BC01B18703748921B0270A4
:103180003648491B017021E02E4800210170344867
:103190005B1CDAB20270009B9A4200D30170007887
:1031A000354C41004518605D1921FDF705F92649A8
:1031B0002C19087060781921FDF7FEF82349087072
:1031C000A0781921FDF7F8F821490870254F00264D
:1031D0003E702049204A21480D78147803783878C9
:1031E0007221024648432249521C4018603005743F
:1031F000C4734374D0B238700528F0D91B483E70B0
:10320000002101703A781A49722353435B180478FD
:103210006100651859190E794E70CE785E554D795A
:103220008D70641CE1B201702529F0D3521CD1B21B
:1032300039700529E4D9FEBD2C00002030000020A3
:10324000C1000020F30000203600002037000020DD
:10325000380000203300002034000020350000201A
:10326000570100203A00002089010020280000209A
:103270009F0200203900002091000020F0B5B449E1
:10328000B448CA7800249BB0012A06D001780529E9
:103290004AD2491C01701BB0F0BDCC70AE49AF4E94
:1032A000AF4AB04B0C70054608782C541454345473
:1032B0001C54401CC0B208700528F5D9AA4E0C70E9
:1032C000A54834700078A94A262141438F18A8499F
:1032D00072224243521831784B00CD1853195C705A
:1032E00054559C707C54491CC9B231702629F2D3C4
:1032F000401C9949C0B208700528E1D99D4D322182
:103300002878FDF759F89C49087068783221FDF754
:1033100053F89A490870A8783221FDF74DF898497A
:10332000087098480470B6E700210170964832246E
:10333000037891480293027890485443017890486A
:10334000E4B20078119432244C43E4B21094322455
:103350004443E4B20F942B245443E4B20E942B2440
:103360004C43E4B20D942B244443E4B20C94242443
:103370005443E4B20B9424244C43E4B21594242423
:103380004443E4B208941D245443E4B207941D243A
:103390004C43E4B206941D244443E4B20A94162438
:1033A0005443E4B2059416244C43E4B21794162413
:1033B0004443E4B204941401A41AE4B214940C013A
:1033C000641AE4B216940401241AE4B21394D406E5
:1033D000240E1894CC06240E0994C406240E1994C5
:1033E0005F4C6B4D2778694C6A4E012B07D03B0030
:1033F00003F08CFD080D161F28313A43537A3B0029
:1034000003F084FD08050E172029323B4572119800
:103410002070109828700F9830705148012134E0C6
:103420000E9820700D9828700C9830704C4802212E
:103430002BE00B9820701598287008983070484839
:10344000032122E007982070069828700A983070AF
:103450004348042119E005982070179828700498B3
:1034600030703F48052110E014982070169828709D
:10347000139830703A48062107E018982070099890
:103480002870199830703648072101702CE022709E
:10349000297030700020324925E022702970307088
:1034A0002F48002101702F480278521CD2B20270BE
:1034B000029B9A4200D301700078410047182D48C2
:1034C0003221C05DFCF778FF2B4908702948322172
:1034D0003F187878FCF770FF28490870B8783221D7
:1034E000FCF76AFF264908701B4F002038702378CC
:1034F0002C7835781E4EC0B202467221484380199E
:1035000060300374C4734574521CD0B238700528FF
:10351000F1D9002038701448002101703A7814491C
:10352000722353435B1804786100651859190E79AA
:103530004E70CE785E554D798D70641CE1B201708D
:103540002529F0D3521CD1B239700529E4D9A2E65D
:103550002C000020C10000203A000020890100203A
:10356000F30000205701002028000020BB010020AC
:103570009F0200209100002036000020370000202C
:10358000380000204A0000203000002033000020D6
:10359000340000203500002010B5592104481622BF
:1035A00088230160026003600468002CF9D010BD1C
:1035B0000001005010B559210448162288230160EB
:1035C000026003600468002CF9D010BD00010050B7
:1035D000F8B57A487A4AC1787A4B0024012905D097
:1035E000107805284FD2401C1070F8BD7649C47081
:1035F000764D774E0C70087814541C542C54345467
:10360000401CC0B208700528F5D9724E0C706E4887
:1036100034700078704A262141438F186F49722216
:103620004243521831784B00CD1853195C705455F1
:103630009C707C54491CC9B231702629F2D3401CBD
:103640006149C0B208700528E1D96548654D04702C
:1036500028783221FCF7B0FE63490870687832217F
:10366000FCF7AAFE61490870A8783221FCF7A4FE95
:103670005F4908705F4804705F4804705F480470D9
:103680005F480470F8BD4F481470077856485A498F
:1036900000780A7884465548584906785448504B73
:1036A00005785448097800781B78002F04D0012F42
:1036B0001FD0022F59D127E05F00DB19494FFF5C73
:1036C000874207D8474FDF197B78934202D8BB78EF
:1036D0008B4208D9474B60441870474892190270D2
:1036E000464849191DE037480121017045480470DA
:1036F0003BE044480178491CC9B20170322934D3F7
:103700000470304802210CE0074617430F430AD0EB
:10371000384B6746C01B18703748921B02703748F9
:10372000491B017021E027485B1C04702C48D9B26A
:10373000354A01701278914200D304700078294D07
:1037400041004618A85D3221FCF736FE264975195E
:10375000087068783221FCF72FFE24490870A87899
:103760003221FCF729FE224908701749214A0C70C2
:10377000214C1278214B0092227816481F789446EB
:10378000002101701049154A097872234B439A1899
:103790000378009C5D005E1995196C7064465B1C93
:1037A0009455DBB2AF700370262BF1D3491C064A47
:1037B000C9B211700529E3D9F8BD00002C00002022
:1037C000C1000020F30000203A0000208901002001
:1037D0005701002028000020BB0100209F0200208C
:1037E0003900002091000020360000203700002022
:1037F0003800002033000020340000203500002075
:103800004A000020250100203000002006498A6976
:103810001202FCD408600A2804D188690002FCD492
:103820000D2008607047000000000540F8B5244EE8
:103830000024F178234B2448012913D00188234D1B
:10384000491C8AB201210280012A14D01746FF3F89
:10385000CD3F05D005277F02BA420ED1022010E0ED
:1038600019700FE0F470048000221C70114610469D
:10387000FCF70AFFF8BD1C7004E0154FBA4203D1F3
:1038800003201870297006E0124DAA4203D104806B
:103890001148F17001701878002808D0012809D06B
:1038A00002280AD00328E5D100F0C2FBF8BD00F0E1
:1038B00015F8F8BD00F0C0F8F8BD00F08FFAF8BDBB
:1038C0002C0000203D000020420000203E0000208F
:1038D000840D00009411000019000020FEB5494835
:1038E000494D01780024494E012905D02878022845
:1038F00017D2401C2870FEBD0022047011461046ED
:10390000FCF7C2FE42482C700470424804704248E2
:103910000470424804704248047042483470047095
:10392000FEBD00202870394801783C480078401CD2
:10393000C4B23748002907783648067836480578F3
:103940003748007802D0012953D133E041004018B4
:1039500035490090085C1921FCF72EFD01463348DB
:103960000170019130490098401802904078192167
:10397000FCF722FD01462E480170009102981921A2
:103980008078FCF719FD2B49214A08700199281805
:103990007918117000991F4A711811701E49192C5D
:1039A00008701E48047024D30021017017480121BB
:1039B00001701EE01D4A16491278BA1A0A701C4A94
:1039C00014491278B21A0A701A4A13491278AA1ABC
:1039D0000A701249192C0C700BD300220A700B4983
:1039E000401C0A700E4AC0B21070022801D9022091
:1039F0000870094802780748017805480078FCF704
:103A000043FEFEBD3E0000203B000020440000209D
:103A10003300002034000020350000203100002059
:103A200039000020400000209100002036000020D6
:103A30003700002038000020F0B5D748D74E017875
:103A4000D74D00248FB0012923D030460678284670
:103A50000078731C401CC2B2D248DBB200780693D7
:103A6000D14B411C1F78C9B27B1CDBB20993CF4BF1
:103A70001B7800937B00FB18CD4F0893DB1907934D
:103A8000330003F043FA091C68C4FDC4FDC4FDFC07
:103A9000FB000022047011461046FCF7F5FD2C7067
:103AA000C4483470C44A047001785454491CC9B2E3
:103AB00001703229F8D3C1480470BA4867E12A700E
:103AC000052A7DD300222A70262842D2BA4DBC4E48
:103AD000BC4C3088113080B23080FCF74FFCFCF7D2
:103AE00059FBC0B22621FCF767FC2170685C0128F5
:103AF000EFD00120CAB2A854AB488B080370AD4880
:103B000000220270AA4A5C001B19D55C9A185478EE
:103B100097784A008B18017872260A467143AA4E9C
:103B2000521C8E19F1184D70F4548F70D1B201707F
:103B30000729F0D39B480178491C01709948007807
:103B4000322862D395480178491C017000209B49B6
:103B5000ABE09448F1E72A700A2A56D39A482C70B1
:103B600060309A49027C0A7004929949C27B0A70BB
:103B70000292417C97488C46017092482521017041
:103B80008C48002101708F490D7869006C1803780A
:103B90007222194651438C4A5B1C8E1831190A4611
:103BA000203A977F4F70577F3755D27F8A70D9B2AE
:103BB00001700729EBD36D1E2A068249120E00E020
:103BC00023E00A70DDD100217F4C0170027872255C
:103BD00013466A431519049E6E70029EA6546246EF
:103BE000AA705B1CDAB20270072AEFD3734802781E
:103BF000521CD2B20270502A07D301706748069A4D
:103C0000027068480170684801700FB0F0BD2A70FA
:103C1000142AFAD300222A70082835D2654A0023D4
:103C20001370644A12789446D2001318262B20D2BF
:103C3000694A002414705E4C089D645D0D94079CD5
:103C400064780594079CA47804945C001C1913788C
:103C500072261D4675435C4E0D9FAD192E19777067
:103C6000059F2F555B1C049DDBB2B5701370072BAD
:103C7000EDD363465B1C4F4ADBB202E089E053E0C0
:103C800015E01370052BCCD34BE046490878082883
:103C9000BBD34248069A02704348099A0270009BBF
:103CA0009A4201D30022027000200870ADE72A700A
:103CB000142AAAD300222A70082832D23948414A4D
:103CC0000170002010703B480078C000401A0C9032
:103CD00008308446604626281BDA3F4800210170E0
:103CE0003349089A8E5C079902460C984F788D7874
:103CF000410044181078722301465843324B491C46
:103D0000C0180019467607768576C8B21070072865
:103D1000F0D32C480178491CC9B201700529D9D3C8
:103D2000B3E720480170B0E72A700A2ABED32C708E
:103D3000082824D21F4A14701E4A12789446D200D2
:103D40001218262A14D2244B1F4D1C705300D3186E
:103D5000214A7227127816467E437619F7187C702E
:103D6000F454521CD2B21C4EBC703270072AEFD3EE
:103D700063465B1C0F4ADBB21370052BDCD309488A
:103D800001700178082991D30449069A0A700470D9
:103D90003BE7FF21014837E73E00002044000020B8
:103DA0003B000020400000203900002030000020AF
:103DB0009100002031000020890100203C000020FB
:103DC0002A000020280000209F020020330000204D
:103DD00034000020350000203A000020F0B588486B
:103DE000884E0178884C8BB001295ED0304605782A
:103DF0000795874920460E780078711C834AC9B21E
:103E000005911178009171007118401C834E039147
:103E1000C0B2804A804F8919052D207056D30828DA
:103E200052D30025257025201070384600220270DC
:103E3000784A127853009446D518027872231446B3
:103E40005A43774B641CD61872191346203B9F7F48
:103E500057705F7F7755DB7F9370E2B20270072A5D
:103E6000EBD363465B1E6B4A1B061B0E1370DDD142
:103E700000220270694A039B4C78D75C8D78684BAE
:103E8000017872260A467143CE1877705C54521C32
:103E9000D1B2B57001700729F2D35D480599017060
:103EA000009A914210D30021A8E0002505702A460F
:103EB00029462846FCF7E8FB5A4825700570544807
:103EC00005705948057035700BB0F0BD08287DD3DA
:103ED00000252570122010703846002202704D4ACD
:103EE000137806229C465343027872241546624397
:103EF0004B4C6D1C1619F2181446203CE77E577087
:103F0000A77EF754247F9470EAB20270072AEBD39D
:103F100063465B1E3F4A1B061B0E1370DDD1002259
:103F200002703E4A039B4D78D75C8A7894463C4A9F
:103F3000037872261C4673439E187770D5546346E7
:103F4000B370641CE3B20370072BF1D3314C002330
:103F50002370002303702F4B1C78062325465D43F6
:103F60000678722373439B185B199F7A1F715F7ADF
:103F7000DF70DF7A5F71761CF3B20370072BEFD32B
:103F8000641C244BE4B21C70122CE2D30023037097
:103F9000CE780C794D79017872270B4679438918D0
:103FA00060310E74CC734D745B1CD9B2017007295B
:103FB000F1D31D480178491CC9B2017006290BD301
:103FC0000022027012480599017000E004E0009B95
:103FD0005B1E994200DB027014480178491CC9B28B
:103FE0000170642900D26FE7002101700798054A2B
:103FF000401CC0B210700528F5D30B48017063E770
:104000003E0000203C0000203B000020300000204B
:1040100039000020280000203A00002091000020F4
:104020009F020020440000204000002041000020AA
:10403000FEB5B848B84D0178002401291AD0B74818
:10404000B8490378B648B84AB84E2F78007809784E
:10405000127836780296B64E5B1C36780196B54ECD
:1040600036780096DEB23B0002F050FF052A6AA8BF
:10407000C5F4A7000022047011461046FCF704FBAB
:10408000A64819210470AC480470AC4804702C7028
:10409000AB4D2878FCF790F9A14908706878192190
:1040A000FCF78AF99F490870A8781921FCF784F970
:1040B0009D4908709D4804709D4804709D48C6E065
:1040C000964B082E1E7078D31C70029E974B3018AA
:1040D000C0B21870019E964B7118C9B21970009E3B
:1040E000944BB218D2B2904F1A70FCF7CDFA9248A6
:1040F0000178491CC9B201700A295ED90470287878
:10410000914A401C28708F4804708C480178491CE3
:10411000C9B201701278914200D304700078884CC3
:1041200041004518605D1921FCF746F97C492C19BE
:10413000087060781921FCF73FF97A49087037E078
:104140000301181A794BC0B218700B01591A784B39
:10415000C9B2197013019A1A764BD2B2714E724FCE
:104160001A70FCF791FA77480178491CC9B20170BE
:10417000282922D904702878734A401C28706F4877
:104180000178491CC9B201701278914200D30470C1
:1041900000786B4C41004518605D1921FCF70CF963
:1041A0005F492C19087060781921FCF705F9307007
:1041B000A0781921FCF700F93870FEBD5F48604A0D
:1041C000007841004318D05C58499A180870584B41
:1041D00051781970574B92781A70FCF755FA594874
:1041E0000178491CC9B201705029E6D904702878B9
:1041F000401C28708CE0494B062E1E70DDD31C70CD
:10420000029E4A4B301AC0B21870019E484B711A78
:10421000C9B21970009E474BB21AD2B21A70FCF79D
:1042200033FA45480178491CC9B201700F29C4D935
:1042300004702978454A491C297042490C7001785C
:104240005454491CC9B201703229F8D34048047053
:10425000FEBDFFE73148052E0670F9D304703C48D7
:10426000007826282ED23B4F3B4E3888113080B242
:104270003880FCF783F8FBF78DFFC0B22621FCF7EE
:104280009BF832483170405C0128EED02F48012263
:10429000CBB2C2543148324B4A0004708A180178BC
:1042A00072270E467E43F618B7187C70491CB4542A
:1042B000C9B2BC7001700729F1D325480178491CA7
:1042C000017002E02249401C087021480078322821
:1042D000BED316482C7004701548194D047015484B
:1042E00004701648007841004618A85D1921FCF7B3
:1042F00063F80B497519087068781921FCF75CF8A8
:1043000008490870A8781921FCF756F80649087082
:1043100009489CE73E000020440000203B000020AC
:104320003600002037000020380000203300002035
:10433000340000203500002031000020390000202A
:104340009100002041000020300000208901002061
:10435000400000202A000020280000203A00002011
:104360009F020020F8B5284E0024F178274B2848FA
:1043700001290DD00188274D491C8AB201210280F4
:10438000012A0ED0CD27FF00BA420CD1197019E0D6
:10439000F470048000221C7011461046FCF774F97A
:1043A000F8BD1C700EE01C4FBA4201D1022008E09B
:1043B0001A4FBA4201D1032003E0194FBA4203D188
:1043C00004201870297006E0164DAA4203D104801B
:1043D0001548F17001701878030002F097FD05058B
:1043E000080B0E110400DBE700F0D2F9F8BD00F075
:1043F0001DF8F8BD00F056FBF8BD00F095FDF8BDC6
:1044000000F0DEFFF8BD00002C0000203D00002081
:10441000420000203E000020520D00006E0F000000
:1044200092130000581B000019000020FEB5C3487D
:10443000C34D0178C34E0024012952D02878401C76
:10444000C0B2287005287DD32C7030460278BE4853
:104450000178481CC0B2002A5AD0012A73D02629FC
:1044600072D2BA4FBA4EBB490888113080B2088068
:10447000FBF784FFFBF78EFEC0B22621FBF79CFF03
:104480003170785C0D460128EDD00120C9B2785416
:10449000B14801782846FBF78FFFB0480B46017002
:1044A000AF48B04904705C001B19CE5C59184C78B9
:1044B0008978AD4A8C4669006B18017872270D46E1
:1044C0007D43AD18EF187E70EC54491C6546C9B2A7
:1044D000BD7001700729F0D39B480178491C017019
:1044E00022E10022047011461046FCF7CDF89B48EB
:1044F000032101702C709D483470944A0470017837
:104500005454491CC9B201703229F8D38E4869E06D
:1045100026293ED28D4F8F4E8D4D3088113080B27E
:104520003080FBF72BFFFBF735FEC0B22621FBF7EF
:1045300043FF2970785C0128EFD00120CAB2B8543B
:10454000874802E04FE04FE0ECE0844B04701B78BA
:10455000844A5D005B19D55C9A180095537895786C
:104560004A009C468A18017872270E467E437E4F89
:10457000009BF719BE1873706346491CBB54C9B23F
:10458000B57001700729EED36F480178491C01709E
:1045900001E06D4908706C480078322823D36948DF
:1045A0006B4D0178724E491C01706A4F2C7038882F
:1045B000113080B23880FBF7E1FEFBF7EBFDC0B2B3
:1045C0001421FBF7F9FE6B4A28781154012131546C
:1045D00069490C54401CC0B228703228E7D36748A0
:1045E000047067480470FEBD5948002101705848A6
:1045F0005F490078095C019100294DD0012972D0F2
:104600000021574A584D43001170C418137872277F
:104610001E467E437619371979705B1C3155DBB223
:10462000B9701370072BF1D3514A115448480178DF
:10463000491CC9B201702629D9D350480178491CB8
:10464000C9B201703229CED900243E4E0470434DC8
:10465000347028784B4B410042184249885C1870EE
:104660005218494B51781970484B92781A70FCF7E0
:104670000BF82878401CC0B22870052801D9022008
:1046800030703A48314A047001785454491CC9B218
:1046900001703229F8D339E7314900222F4B0A70D3
:1046A0001B78304A5C001B19D45C9A18009455782A
:1046B00092789446420084180A78722713467A4307
:1046C000294F009ED7193A1956703D556646967087
:1046D0005B1CDAB20A70072AEED3019A2449521CF5
:1046E0000A54A3E7FFE7244A224C115C184D491CE9
:1046F000C9B21154235C994298D90021115415492B
:104700000888113080B20880FBF738FEFBF742FDC5
:10471000C0B21421FBF750FE2878154A2154115CD1
:10472000491C82E70849087007480078322800D2FF
:1047300059E70448FF210170FEBD00003E00002043
:104740003B000020440000204000002089010020A0
:10475000280000202A00002030000020390000201E
:104760003A000020910000209F020020310000202C
:10477000F300002025010020C1000020410000209E
:104780003C000020330000203400002035000020D1
:10479000F0B5B649B6488FB00A780078009000208E
:1047A000012A7BD0B349B54A0C781278B249521C21
:1047B000D2B209789446621CD2B2491C0792B04A20
:1047C000B04BB14FC9B2002C67D0B04D2D786D1CE5
:1047D000EDB20695AE4D2E78751CEDB205953546B9
:1047E0007600AE19AB4D7519012CA34C21707DD00C
:1047F0000A294FD32070A7482521805D10700790AB
:10480000687818700290A87838708446A2480170C1
:10481000A24A00201070A048057868002C18137870
:104820007220194641439E485B1C0E183019014600
:1048300020398F7F47704F7F3755C97F8170D8B23D
:1048400010700728EBD36D1E93482906090E0170DE
:10485000DED192490022924B0A70087872260446F3
:104860004643F018079D4570029D9D55654685702D
:10487000641CE0B208700728EFD3844806990170E1
:104880000C2907D90270824805990170009B994252
:1048900000D302700FB0F0BD00E03AE008707E492E
:1048A0007F4C08707C4E009930780690FBF784FDB1
:1048B00077480022017079484B000270754AC91888
:1048C000555C89184B7889788C4606994A008A1875
:1048D000017872270E467E433619B7187D70B3549F
:1048E0006646491CBE70C9B2017000E061E007294C
:1048F000EED306986849401CC0B208702628D1D370
:104900006349002008705C4908705A4908705B4987
:104910004DE0594C14292170BCD3614920704C786A
:10492000147004940A781A7002928A783A7001928C
:10493000594A107059480021574A01701578584952
:104940006A00AC18037872225A4356183219177944
:104950005770D7783755567996705B1CDAB202706B
:10496000072AEFD36D1C4C4AE8B210702628E1D319
:104970004A4A002010701478722363435B18603336
:10498000049D1D74029DDD73019D5D74641CE3B282
:104990001370072BEFD3394962460A70142ABBD330
:1049A00008703449079A0A70394908703749087005
:1049B00070E70A29FCD337492070895D117009918D
:1049C000697819700291A9783970019132492522CC
:1049D0000A70324A002010702F48057868002C18A1
:1049E00013787220194641432D485B1C0E1830196C
:1049F000014620398F7F47704F7F3755C97F8170BF
:104A0000D8B210700728EBD36D1E23492806000E7C
:104A10000870DED121490022214C0A7008787225E5
:104A2000034668430519099E6E70029E265401983C
:104A3000A8705B1CD8B208700728EFD313490698FA
:104A40000870052807D90A70114805990170009B64
:104A5000994200D302700948614601706429A7D3C6
:104A6000027004480799017014E700003E0000201E
:104A700030000020440000203B00002041000020C6
:104A800033000020340000203500002040000020CA
:104A90003900002091000020280000203A0000206A
:104AA0009F020020F0B5FF49FF4B0C780020FF4A21
:104AB0008FB0012C20D01146FE4A09781278FC4DA7
:104AC000521CD2B20892FC4A1678721CD4B22A78D0
:104AD00000924A1CD2B20A927200B218F74D0792A5
:104AE0005519002911D0012951D002297ED003295E
:104AF0007DD00521ED4847E00870EF490870187037
:104B0000EC4910700870EE49C9E0EE4800210170D0
:104B1000EC48032100780990FBF74EFC00291ED1D8
:104B2000E9480170E549079A895C0C91697805911B
:104B3000A9788C4609994A008A18017872260B4692
:104B40007343E24E0C9F9B199E187770059F9F54EC
:104B5000491C6346C9B2B37001700729EDD30998A7
:104B6000D849401CC0B208702628D1D3D149089832
:104B70000870142809D30022CF480A7004700099E5
:104B80008C4246D3027044E001700FB0F0BDCD48B6
:104B900000210170CB48032100780990FBF70CFC41
:104BA00001291FD1C84800210170C449079A895CB6
:104BB0000C9169780591A9788C4609994A008A1860
:104BC000017872260B467343C04E0C9F9B199E18AA
:104BD0007770059F9F54491C6346C9B2B37001703A
:104BE0000729EDD30999B748491C01E014E058E0C2
:104BF000C9B201702629CDD3AE4A08981070142886
:104C0000C3D30021AC4811700470009A944200D3C1
:104C10000170A6480A99B7E7AA4800210170A9487F
:104C2000032100780990FBF7C7FB02291FD1A64892
:104C300000210170A149079A895C0C9169788C4622
:104C4000A978049109994A008A18017872270E46BA
:104C50007E439E4F0C9BF719BE1873706346BB547E
:104C6000491C049BC9B2B37001700729EDD309999F
:104C70009448491CC9B201702629D0D38D4908989F
:104C80000870142881D3002008708B490C70009A9A
:104C9000944200D3087085490A9A0A708C490870BA
:104CA00073E71978491CC9B219700229F8D300209A
:104CB0001870864842788248007805904100411873
:104CC0007E480C18002A06D180480278002A02D1BA
:104CD0008078002844D07948405C1921FBF76CFBB0
:104CE0007C490870089060781921FBF765FB7A49C8
:104CF00008700290A0781921FBF75EFB77490870D5
:104D000006907048002101706E48032100780790DA
:104D1000FBF752FB00291CD16B48017007994A0030
:104D20008918037872221D465543684A089EAD18BB
:104D30006A1857785B1CBE1B56706F5C029EBE1BC8
:104D40006E549678069D751B9570DAB20270072A2C
:104D5000E7D307985B49401CC0B208702628D3D31C
:104D60005B48007802900F284FD3584800790028FC
:104D700006D15648C178002902D14079002844D094
:104D8000E0781921FBF718FB52490870049020794C
:104D90001921FBF711FB504908700890607919211F
:104DA000FBF70AFB4D490870069046480021017048
:104DB0004448032100780790FBF7FEFA01291DD132
:104DC00041480021017007994A008918037872222E
:104DD0001D4655433D4A049EAD186A1857785B1C22
:104DE000BE1B56706F5C089EBE1B6E549678069D67
:104DF000751B9570DAB20270072AE7D3079831491C
:104E0000401CC0B208702628D2D302981E286ED348
:104E10002E48C079002806D12C488179002902D17A
:104E2000007A00286BD0A0791921FBF7C5FA29492F
:104E300008700590E0791921FBF7BEFA2649087041
:104E40000490207A1921FBF7B7FA24490446087028
:104E50001C48002101701B48032100780790FBF7D4
:104E6000ABFA02291CD118490020087007984200AB
:104E700082180878722305465D43144B059EED1891
:104E8000AB185F78401CBE1B5E70AF5C049EC0B266
:104E9000BE1BAE549D782D1B9D7008700728E8D36B
:104EA00008491EE03E0000203B0000204400002096
:104EB0003000002041000020390000209100002037
:104EC000F3000020280000203A0000209F0200206C
:104ED000400000203600002037000020380000206D
:104EE00005E00798401CC0B208702628B3D302988A
:104EF0001F2800D349E609480178491C44E60849BF
:104F000000200870059B074ADB1CDBB21370092BDD
:104F100001D304220A7001490870ECE74000002028
:104F200044000020F3000020F0B5FE48FE4C01785C
:104F3000FE4E8BB0012929D030460678FC48002E61
:104F400000788446FB4800780590FB480078049080
:104F5000FA480378FA480178FA4802783ED0F34FCD
:104F600020463F7800787F1CFFB20897F64F451C1B
:104F70003F78EDB20397012E7ED0022E7DD0032E16
:104F80007CD0EA49042008700BB0F0BD0025057004
:104F90002A4629462846FBF777FBEB48192105707E
:104FA000EA4805703570EA4825700570E048E94C1C
:104FB0000570E0480570E04805702078FBF7FCF9C3
:104FC000DE49087060781921FBF7F6F9DC490870B2
:104FD000A0781921FBF7F0F9DA49D4E76046D44EFE
:104FE000C018C0B23070059ED24B7118C9B219708A
:104FF000049ED14BB218D2B2D04D1A70FBF744FBCD
:105000002078401CC0B220701928BDD3C748D14EAB
:105010000178491C0170CC48007841004718F05DC8
:105020001921FBF7C9F92870BD1968781921FBF718
:10503000C3F9C3490870A8781921FBF7BDF9C14924
:10504000002508702570C44CC44EC54F2570C54856
:10505000217845543088113080B23080FBF78EF9CA
:10506000FBF798F8C0B20A21FBF7A6F9207839546B
:10507000401CC0B2207002E004E098E023E1322836
:10508000E5D381E726284AD2B34800240470B24809
:10509000B44C0078245C012C3AD0B34DB04E2C5C5B
:1050A000641CE4B22C54365CB4421DD300242C544E
:1050B000AE4D2C7044000519AC4C72262478A446E1
:1050C0006643AB4C361974196778FF1A6770775DC1
:1050D0007F1A7755A678B61AA6706446641CE4B2A7
:1050E000A24E072C3470E7D344000519A04C2E19AA
:1050F0007778002F0CD1645D002C09D1B478002C96
:1051000006D1894C25786D1C2570964D01242C54B0
:10511000401C914CC0B220702628B8D301E08248D0
:105120000570814C20783228ABD3804808990170F3
:1051300003998548491CC9B28E4A01701278914280
:1051400001D300210170C8B241004618814D1921D8
:10515000A85DFBF731F9794975190870687819214C
:10516000FBF72AF976490870A8781921FBF724F98A
:105170007449002508702570774C784E794F25705A
:1051800020783D543088113080B23080FBF7F6F83B
:10519000FBF700F8C0B20A21FBF70EF9704A20783D
:1051A0001154401CC0B220703228E9D3ECE6664CA2
:1051B00024786600A419674E0594A419099426283A
:1051C00055D26548002404706348664C0078245C1E
:1051D000012C45D0644C624E255C6D1CEDB225540B
:1051E000365CB5421DD300252554604C2570440023
:1051F00005195E4C72262478A44666435C4C361929
:1052000074196778FF186770775D7F187755A678EF
:10521000B618A6706446641CE4B2544E072C347071
:10522000E7D344000519524CAC462D1900956F7810
:10523000484D059EAD5DAF4212D16546655D099C46
:105240006478A5420CD1009CA578099CA478A5425D
:1052500006D1354C25786D1C2570424D01242C5407
:10526000401C3D4CC0B220702628ADD301E02E4832
:1052700005702D4C2078322898D32C48089901705D
:1052800034480599475C19213846FBF795F80146E3
:105290002A4801700998192146783046FBF78CF8A6
:1052A000274908700998192185782846FBF784F862
:1052B00024490870002020701D4807701D480670A2
:1052C0001D48057060E66046194FC01AC0B23870BC
:1052D000059B184D591AC9B22970049B164E9A1A8B
:1052E000D2B23270FBF7D0F92078401CC0B22070E7
:1052F0001928E7D300202070387028700B4C3070CC
:10530000114920700A781B4B521CD2B20A701B78CC
:105310009A4200D3087008780E4D41004618A85DE7
:10532000192129E03E000020400000204400002018
:10533000330000203400002035000020360000201B
:105340003700002038000020390000203B000020FA
:105350003C00002091000020280000202A000020AE
:105360002501002089010020C10000203A00002012
:105370009F02002030000020FBF71EF80C49751931
:10538000087068781921FBF717F80A490870A8789F
:105390001921FBF711F80849087008480178491CE1
:1053A000C9B2017002298DD304202070ECE5000001
:1053B0003600002037000020380000203C0000208C
:1053C000F8B55248524F01780026524C524D0129EF
:1053D00010D10022067011461046FBF755F94F48D0
:1053E00006704F4806704F483E70067026704E4853
:1053F0002E7006704A480178491CC9B20170032911
:105400007ED9067047480178491CC9B20170282925
:1054100007D906703878401CC0B23870052800D90A
:105420003E703878030001F071FD06040C141C2551
:105430002E363D4806702078401D20702878C01F09
:1054400016E039482E700178891F017020780930E4
:1054500017E026702878C01D287033480178091F8E
:1054600018E0314806702078401F207028780830F6
:10547000287010E02C482E700178C91C017020782B
:10548000C01F207007E0267028780838287026484A
:105490000178C91C0170254806702548002101705B
:1054A000224909784A008C468B18017872260A46F0
:1054B0007143204E521C8E19F118CF78F7540E7993
:1054C0004E704E798E70D1B201700729EDD36146CE
:1054D000491C164AC9B211702529DFD30021017079
:1054E00011492E78134B24780D78017872270A46DB
:1054F0007943C91860310C74CE734D74521C00E0AE
:1055000003E0D1B201700729EFD3F8BD3E000020BF
:105510004400002033000020340000203900002027
:105520003B0000203C000020350000202800002027
:105530003A0000209F020020F8B5284E0024F178A0
:10554000274B284801290CD00188274D491C8AB2D5
:1055500001210280012A0DD0244FBA420CD11970CA
:1055600019E0F470048000221C7011461046FBF70D
:105570008BF8F8BD1C700EE01D4FBA4201D102201D
:1055800008E01C4FBA4201D1032003E01A4FBA428F
:1055900003D104201870297007E07D25AD01AA42CF
:1055A00003D104801548F17001701878030001F0F0
:1055B000ADFC0505080B0E110400DAE700F020F839
:1055C000F8BD00F02DFAF8BD00F05CFDF8BD00F06C
:1055D00021FEF8BD00F080FFF8BD00002C00002087
:1055E0003D000020420000203E000020640A000030
:1055F000E614000044160000CD1900001900002038
:10560000F0B5F748F74D017800248DB0012927D077
:1056100028460578F548F64900780A78401CC0B25B
:105620000690681CC0B20890F248EF4B0078521CFC
:10563000471CFFB207971B780093EF4B25261F7876
:10564000D2B27B1CDBB209934300C018EB4B039032
:10565000C0182B0001F05AFC051766BEFEFDFC00C9
:105660000022047011461046FBF70EF8E1482C703A
:105670000470E1480470E2480470E2480470DB48BA
:1056800004700DB0F0BD0A70052AFAD30C70DE4923
:105690000E70DE4900220A70DB4A127853009446ED
:1056A000D5180A78722314465A43D94B641CD6186D
:1056B00072191346203B9F7F57705F7F7755DB7FC2
:1056C0009370E2B20A70072AEBD36246521ECE4BA9
:1056D0001206120E1A70DDD10A70C84A039B447874
:1056E000D75C8578CA4B0878722602467043C61884
:1056F00077701C54501CC0B2B57008700728F2D3E4
:10570000BA49069808703228BBD300220A70B548FF
:1057100008990170B74907980870009B9842B0D368
:105720000A70AEE70A70052AABD30C70B6490C704C
:10573000B64900220A70B44A15786A00AC180B7892
:1057400072221E465643B24A5B1CB61832191779AC
:105750005770D778375556799670DAB20A70072A9B
:10576000EDD36D1CA84AE9B211702529E0D3A749F1
:1057700000220A70A14A039B4478D65C8578A44B2A
:105780000878722702467843C01860300674C473E4
:105790004574501CC0B208700728F1D3934906988D
:1057A00008703228BDD300200870924A0799117002
:1057B000009B994200D310708A4A914910700B786F
:1057C0005B1CDBB20B70022BABD90870022111708D
:1057D0008949FDE00A70052AA3D30C708A498B4CD5
:1057E0000E7000228849227009784A008C468D1874
:1057F000237872211A464A4385495B1C5618711951
:105800000A46203A977F4F70577F7755D27F8A702C
:10581000D9B221700729EBD36146491E7A4A09069D
:10582000090E1170DDD100222270744B039A2146BB
:105830009D5C44788678764B0878722702467843D8
:10584000C7187D701C54521CBE70D0B2087002E0A4
:10585000C2E084E01AE00728EED367480999017096
:10586000062908D300220270624807990170009B44
:10587000994200D302705D4806990170322991D394
:1058800000210170574808990170FAE60A70052A4C
:10589000FBD30C705C495D4B0C7000225A491A70A6
:1058A0000D7869006C181A78722116464E435849D3
:1058B000521C761831190F794F70CF7837554E79C1
:1058C0008E70D1B219700729EDD36D1C4E49EAB222
:1058D0000A70252AE1D300221A701946474A039B11
:1058E0004478D65C85784A4B08787227024678431C
:1058F000C01860300674C4734574501CC0B2087080
:105900000728F1D33C4A09981070062808D30020D4
:105910001070384B07991970009CA14200D3187081
:105920003249069808703228AFD3002008702D4BFA
:105930000221197033490C78641CE4B20C70022CFB
:10594000A3D9042119703349334C08700B78E05403
:105950005B1CDBB20B70322BF8D3107091E60A702F
:10596000052A92D3244D0C70262F33D22A4F264E6F
:105970002A490888113080B20880FAF7FFFCFAF74C
:1059800009FCC0B22621FAF717FD3170785C0128B6
:10599000EED00120CAB2B8541C481D4A4B00047016
:1059A000CB18017872270E467E43B618F7187C7024
:1059B000491CF454C9B2BC7001700729F1D328788E
:1059C000401C2870C0B23228C8D306490878401C51
:1059D000087056E60998F4E7FF21024854E70000F2
:1059E0003E00002044000020300000204100002044
:1059F0003B000020390000204000002091000020E2
:105A0000F30000203C000020280000203A00002085
:105A10009F02002031000020890100202A00002080
:105A2000F0B5FF48FF4D01788DB0012931D02846EF
:105A30000678FD4807960378FC48FF4C0178FC483F
:105A400025780278FB4849190078C9B20B91FB49C7
:105A50005B1C0978DBB25218D2B20392F84A147870
:105A60000019C2B2F7480078471CFFB20A97F64FF8
:105A70003F7808937F1CFFB2F44B09971B78019382
:105A8000330001F043FA0927477AFDFCFBFAFAFAE2
:105A9000F90000240470224621462046FAF7F4FD5E
:105AA000E9482C700470EA4819210470DE4804703B
:105AB000E84C2078FAF780FCDF49087060781921FB
:105AC000FAF77AFCDD490870A0781921FAF774FC1E
:105AD000DB490CE2A8002818D44AC0B210708A0032
