:03000000020CDA15
:0C0CDA00787FE4F6D8FD75817F020D21C3
:10113C001211D4120E6712121330CFFDC2CF120F40
:10114C0031120BAE1201FA12000E1211FD12120E18
:02115C0080E72A
:1011D40053A87F1210621211BC12115E1211144333
:0311E400A88022BE
:101062007F107E2775C7AA75C755439780E59620DE
:10107200E70BEF4E6007EF1F70F31E80F0D3EF9483
:1010820000EE9400401375C7AA75C7557596027590
:10109200C7AA75C7555397DF2275C7AA75C7555397
:0210A20096FCBA
:0110A4002229
:1011BC00E4F572F5B175B2FF7580FF53B5B043B667
:0711CC004F43A04743A008B8
:0111D30022F9
:10115E00758902438E08758A38758C38D2A94388F2
:10116E0010E4F5C875C9A075CAEF75CBD8D2CA22DE
:1011140053B5CF53B6CF43A03075F85043C4805372
:10112400C4BF53C4F875C6FF75C59843C40843FECD
:081134000143FF01439C01226D
:04121300E4F5562286
:03007B0002101A56
:10101A00C0E0C0F0C083C082C0D075D000C000C09C
:10102A0001C002C003C004C005C006C00730F805ED
:10103A00C2F81210E130F905C2F9755600D007D08E
:10104A0006D005D004D003D002D001D000D0D0D031
:08105A0082D083D0F0D0E03217
:1010E100AF9AE56A700BEF64FD7027756A01F549E7
:1010F10022E56AB4011CBFFE04756A0222E549C3F8
:1011010094064004756A0322AE490549744B2EF8D2
:02111100A6072F
:0111130022B9
:100F3100E56A7003F54A22E56AB4010F054AE54AFC
:100F4100D394644039E4F54AF56A22E56AB4030BA7
:100F51007F06784BE4F608DFFC8020E56A640270C6
:100F61001D756901FF744B2FF8E6FE74632FF8A617
:0E0F710006744B2FF8E4F60FBF06EAE4F56AAB
:010F7F00224F
:100BAE00E4F572E555700AF556F560755F01F5616D
:100BBE0022E555640170387FFC1211F37F4C12113F
:100BCE00F37F411211F37F311211F37FFE1211F3F5
:100BDE00755502755F01E4F560F561F57274572580
:100BEE0072F8E4F60572E572B408F275570122E563
:100BFE005564027046E55F64017022F55F7FFD1259
:100C0E0011F3E4F57274572572F8E6FF1211F3052D
:100C1E0072E572C3940840ED7FFE0211F30560E5A4
:100C2E0060C394024006E4F560F555220561E56166
:0B0C3E00C3940A4006E4F561755F01F5
:010C49002288
:0A11F300E55670FC8F9A7556012234
:06000300017E00017FFFF9
:100E6700E4FF1212078F277F011212078F297F02D3
:100E77001212078F7185277B85297C85717DE52770
:100E8700D394085004E5277009752708757B081265
:100E97000DE9852726752A01E527B408037528017A
:100EA700E5296005D3940F4009752907757C07125A
:100EB7000DE9AF29120280E571D394085005E57159
:0F0EC70030E008E4F571F57D120DE97570012238
:0601FA0012117E02081044
:10117E00E56B601AE56BB40108E4F56B85272680F4
:0F118E000AE56BB40208E4F56BF526752A012219
:10081000E4FFE5697003020921E4F569E563B4F0DA
:1008200008E57E700475550122E56354F0FE657F8E
:1008300070030209218E7FE563540FFEBE0113751C
:1008400055028563577F0174572FF8E4F60FBF08F0
:10085000F622EE6402702775550285635785275886
:1008600085295985715AE5267004F55B8003755B0F
:10087000017F0574572FF8E4F60FBF08F622E563F1
:10088000540FFEBE0E137555028563577F017463C6
:100890002FF8E4F60FBF08F622EE64037034E56427
:1008A0007004F5268008E564B4FF07852726752ABD
:1008B0000122E564D39408400375640885642785A4
:1008C0002726752A01E527B4080375280185277BAB
:1008D000804CE563540F64047021E5646043D39455
:1008E0000F503E85642985297CAF29120280752A24
:1008F00001E527B408037528018023E563540FFF41
:10090000BF051EE565D394085017E56520E0127514
:100910002B01752A0185657175700185717D120D38
:01092000E9ED
:0109210022B3
:10028000E4FEEE75F003A4240EF87600087600086C
:1002900076000EBE06ECEF14B40F00400302056BAF
:1002A0009002AE75F003A4C58325F0C583730202E6
:1002B000DB0202F702031302034A020366020395FC
:1002C0000203C40203FB020417020447020477027C
:1002D00004A70204D7020506020535750E00750F46
:1002E00000751044751400751500751645751A00D3
:1002F000751B00751C4622750E00750F00751033B6
:10030000751400751500751634751A00751B007587
:100310001C3522750E00750F00751044751100759F
:100320001200751333751400751500751645751791
:1003300000751800751934751A00751B00751C4678
:10034000751D00751E00751F3522750E00750F0096
:10035000751041751400751500751642751A0075F3
:100360001B00751C4322750E00750F007510447537
:10037000110075120075134175140075150075167E
:1003800045751700751800751942751A00751B0020
:10039000751C46805C750E00750F00751033751165
:1003A000007512007513417514007515007516342B
:1003B000751700751800751942751A00751B0075C0
:1003C0001C35802D750E00750F00751044751100D9
:1003D0007512007513417514007515007516457575
:1003E0001700751800751934751A00751B00751CF7
:1003F00035751D00751E00751F4322750E00750FA3
:100400000075103E75140075150075163F751A00BD
:10041000751B00751C4022750E00750F0075104489
:1004200075110075120075133E7514007515007571
:10043000164575170075180075193F751A00751B5C
:1004400000751C46020562750E00750F00751033AD
:1004500075110075120075133E7514007515007541
:10046000163475170075180075193F751A00751B3D
:1004700000751C35020562750E00750F007510447D
:1004800075110075120075133E7514007515007511
:100490001645751700751800751934751A00751B07
:1004A00000751C35020562750E00750F0075104150
:1004B00075110075120075133E75140075150075E1
:1004C000164275170075180075193F751A00751BCF
:1004D00000751C43020562750E00750F007510440F
:1004E00075110075120075133E75140075150075B1
:1004F0001645751700751800751942751A00751B99
:1005000000751C43805C750E00750F0075104175F9
:10051000110075120075133E7514007515007516DF
:1005200042751700751800751934751A00751B008F
:10053000751C35802D750E00750F007510447511F2
:100540000075120075133E7514007515007516348C
:1005500075170075180075193F751A00751B007521
:0B0560001C43751D00751E00751F4038
:01056B00226D
:100DE90053A87F75C7AA75C755439F0175C7AA75CB
:100DF900C75543A50175AF2275A702E4F5A675AEDF
:100E0900FF75C7AA75C75543A40175AF2175A70218
:100E1900F5A6857BAE75C7AA75C75543A40175AFFD
:100E29002175A70275A601857CAE75C7AA75C75538
:100E390043A40175AF2175A70275A602857DAE751C
:100E4900C7AA75C75543A40175C7AA75C75553A540
:0E0E5900FE75C7AA75C755539FFE43A8802299
:07120700EF90020093FF22AB
:03000B00020AFBEB
:040AFB00C0E0C0D0C7
:100AFF00C28D0508E508D394634003750800E50827
:100B0F00C395445004C2828002D282E508C3954542
:100B1F005004C2858002D285E508C395465004C2B1
:100B2F00A28002D2A2E508C395335004C28180028D
:100B3F00D281E508C395345004C2878002D287E57D
:100B4F0008C395355004C2A18002D2A1E508C39510
:100B5F00415004C2838002D283E508C395425004FA
:100B6F00C2868002D286E508C395435004C2A08096
:100B7F0002D2A0E508C3953E5004C2808002D28005
:100B8F00E508C3953F5004C2848002D284E508C3B0
:0A0B9F0095405004C2A68002D2A6C1
:050BA900D0D0D0E032C5
:05120E00AF26020ED620
:100ED6008F72E52BB40103020C4A053DE53D700215
:100EE600053CE572B40800503E900EF6F8282873CB
:100EF600020F0E020F11020F14020F1A020F210227
:100F06000F24020F27020F2A0211E70210A57D28DF
:100F16007F1E80047D507F280206C2020A16020543
:0B0F26006C02092202007E120D662200
:10119D00E4FF74442FF8E4F674332FF8E4F6744149
:0E11AD002FF8E4F6743E2FF8E4F60FBF03E4CB
:0111BB002211
:100C4A00E52AB40108E4F52AF52DF53622052DE545
:100C5A002DC3940F4005E4F52D0536E53614602CB6
:100C6A0014600A14602614604224047062E4FF745B
:100C7A00442FF8E4F674332FF8E4F674412FF8E4BD
:100C8A00F6743E2FF8E4F60FBF03E422E4FF74443F
:100C9A002FF8766474332FF8766474412FF87664EB
:100CAA00743E2FF876640FBF03E422E4FF74442FE6
:100CBA00F8E4F674332FF8E4F674412FF8E4F67486
:0F0CCA003E2FF8E4F60FBF03E4E4F52B752A0183
:010CD90022F8
:0C11E700E52AB40106E4F52A12119D224D
:1010A500E4FFE52A64017033F52A12119DE4FFEF90
:1010B50075F003A4240EF8860308E6FA08E64A4B01
:1010C5006015EF75F003A4240EF8860308E6FA0808
:0B10D500E6F97464120FBB0FBF06D4D5
:0110E00022ED
:0406C2008F748D752F
:1006C600E4F576E52A64017072F52A12119D8574A7
:1006D6002DE4F52EF536F509F576E57675F003A4E5
:1006E600240EF8860308E6FA08E64A4B6016E57615
:1006F60075F003A4240EF8860308E6FA08E6F974F2
:1007060064120FBB0576E576B406CFE4F576053DB3
:10071600E53DAE3C7002053C14FF12100F120FCDE2
:10072600EF8574F084E57525F0FF74362576F8A616
:10073600070576E576C3940640D422E4F576E57699
:1007460075F003A4240EF8860308E6FA08E64A4B79
:10075600604974362576F8E6FF742D2576F8E606A8
:10076600D39F4037742D2576F8E4F6120FCDEF852A
:1007760074F084E57525F0FF74362576F8A607E54E
:100786007675F003A4240EF8860308E6FA08E6F95F
:10079600120F80FFC374649F120FBB0576E576C304
:1007A6009406409AE4F576E57675F003A4240EF8EF
:1007B600860308E6FA08E64A4B6016E57675F00306
:1007C600A4240EF8860308E6FA08E6F9120F8070EC
:1007D600380576E576B406CFE50975F003A4240E50
:1007E600F8860308E6FA08E6F9120F807004050990
:1007F60080E6AB0EAA0FA9107464120FBB0509E5BB
:0908060009D394054003E4F5094F
:01080F0022C6
:100A1600E4FFE52A6401705DF52A12119DE4FF7476
:100A26002D2FF8E4F674362FF8E4F60FBF06F0AF74
:100A36003DAE3C12100F120FCDEF75F0648485F0B9
:100A46002CE4FFEF75F003A4240EF8860308E6FAFB
:100A560008E64A4B601AEF75F005A4FEEF75F00341
:100A6600A4240EF8860308E6FA08E6F9EE120FBB90
:100A76000FBF06CF22E4FFEF75F003A4240EF8861D
:100A86000308E6FA08E64A4B6064742D2FF80674EC
:100A96002D2FF8E6D394024055E4F674362FF8E687
:100AA600146026047048EF75F003A4240EF886033C
:100AB60008E6FA08E6F9120F80C39464500474013C
:100AC600802174362FF8068025EF75F003A4240ED6
:100AD600F8860308E6FA08E6F9120F80D394004078
:100AE6000774FF120F99800674362FF8E4F60FEF9D
:040AF600640670839F
:010AFA0022D9
:10056C00E4F574E52A6401706CF52A12119DE4F52A
:10057C002DF52EF536F537F574E57475F003A424D6
:10058C000EF8860308E6FA08E64A4B6016E5747521
:10059C00F003A4240EF8860308E6FA08E6F974645E
:1005AC00120FBB0574E574B406CFAF3DAE3C121010
:1005BC000F120FCDEF75F01E84E5F0241EF52CAF55
:1005CC003DAE3C12100F120FCDEF75F00A84E5F022
:1005DC002402F50A22052DE52DD3950A50030206B7
:1005EC00C1E4F52DE53614605F0460030206C1AB6F
:1005FC000EAA0FA910120F80C3952C5035E4F57478
:10060C00E57475F003A4240EF8860308E6FA08E6F0
:10061C004A4B6016E57475F003A4240EF8860308A3
:10062C00E6FA08E6F97401120F990574E574B4063C
:10063C00CF220536AF3DAE3C12100F120FCDEF7529
:10064C00F01E8485F02C805BAB0EAA0FA910120F44
:10065C0080D3952C4035E4F574E57475F003A4242F
:10066C000EF8860308E6FA08E64A4B6016E5747540
:10067C00F003A4240EF8860308E6FA08E6F974FFE2
:10068C00120F990574E574B406CF22E4F536AF3D2C
:10069C00AE3C12100F120FCDEF75F04684E5F0242E
:1006AC001EF52CAF3DAE3C12100F120FCDEF75F0B6
:0506BC00038485F00A33
:0106C1002216
:10092200E4FFE52A6401703CF52A12119DE4F52DDD
:10093200F52EF536F537FFEF75F003A4240EF88691
:100942000308E6FA08E64A4B6015EF75F003A424A3
:100952000EF8860308E6FA08E6F97464120FBB0F74
:10096200BF06D422E536146055046003020A150559
:100972002DE52DD394025003020A15E4F52DAB0E9A
:10098200AA0FA910120F80D39400402FE4FFEF7535
:10099200F003A4240EF8860308E6FA08E64A4B6040
:1009A20015EF75F003A4240EF8860308E6FA08E6AC
:1009B200F974FF120F990FBF06D422053622E537CC
:1009C20075F003A4240EF8860308E6FA08E6F97423
:1009D20064120FBB052EE52ED394144036E4F52E97
:1009E2000537E537D394054002801DE53775F003DE
:1009F200A4240EF8860308E6FA08E64A4B700E05B0
:100A020037E537D3940540E3E4F53780DEE5377008
:030A120002F536B4
:010A150022BE
:10007E00E4F574E52A64017077F52A12119DE4F512
:10008E0074742D2574F8E4F674362574F8E4F605C8
:10009E003DE53DAE3C7002053C14FF12100F120FF1
:1000AE00CDEF75F01E84E5F02402FF74202574F860
:1000BE00A6070574E574C3940640C6E4F574E574AA
:1000CE0075F003A4240EF8860308E6FA08E64A4BF8
:1000DE006016E57475F003A4240EF8860308E6FA9C
:1000EE0008E6F97464120FBB0574E574B406CF22EA
:1000FE00E4F574E57475F003A4240EF8860308E69F
:10010E00FA08E64A4B70030201ED742D2574F806C9
:10011E0074202574F8E6FF742D2574F8E6D39F50ED
:10012E00030201EDE4F6120FCDEF75F01E84E5F03B
:10013E002402FF74202574F8A60774362574F8E699
:10014E001460500460030201EDE57475F003A424FD
:10015E000EF8860308E6FA08E6F9120F80D394002B
:10016E004029E57475F003A4240EF8860308E6FA18
:10017E0008E64A4B6069E57475F003A4240EF88610
:10018E000308E6FA08E6F974F6804874362574F822
:10019E0006804CE57475F003A4240EF8860308E679
:1001AE00FA08E6F9120F80C39464502CE57475F0CA
:1001BE0003A4240EF8860308E6FA08E64A4B601FED
:1001CE00E57475F003A4240EF8860308E6FA08E633
:1001DE00F9740A120F99800774362574F8E4F6053F
:0B01EE0074E574C39406500302010185
:0101F90022E3
:100D6600E4F573E528B4010EE4F528F50CF50D75E8
:100D76000B01752A0122050CE50CD394C7401EE42D
:100D8600F50C050DE50DD394044012E4F50D752A16
:100D960001050BE50BD394074003750B01E50BB476
:100DA6000800503E900DB1F8282873020DC9020DB7
:100DB600CC020DCF020DD5020DDC020DDF020DE2D5
:100DC600020DE50211E70210A57D287F1E80047D35
:100DD600507F280206C2020A1602056C0209221278
:020DE600007E8D
:010DE80022E8
:10000E00E5716065E570B4010BE4F570F56CF56DA6
:10001E00F56EF56F056CE56CC394644024E4F56CE5
:10002E00056DE56D943C4019E4F56D056EE56E9435
:10003E003C400EE4F56E056FE56F94184003E4F551
:10004E006FE56C7010E56D700CE56E7008E56F7005
:10005E0004756B0122E56C7010E56D700CE56E7029
:0A006E0008E56FB57103756B0222FF
:0A11FD00E5267003C2A322D2A3224C
:100CE60002113CE493A3F8E493A34003F68001F2D7
:100CF60008DFF48029E493A3F85407240CC8C3330F
:100D0600C4540F4420C8834004F456800146F6DFDD
:100D1600E4800B0102040810204080900003E47E6A
:100D2600019360BCA3FF543F30E509541FFEE493D2
:100D3600A360010ECF54C025E060A840B8E493A399
:100D4600FAE493A3F8E493A3C8C582C8CAC583CAC4
:100D5600F0A3C8C582C8CAC583CADFE9DEE780BE7C
:0100090000F6
:100F8000BB010689828A83E0225002E722BBFE026F
:090F9000E32289828A83E49322A2
:100F9900BB010989828A83F8E028F022500327F7E8
:100FA90022BBFE05F8E328F3228A838982F8E493B9
:020FB9002822EC
:100FBB00BB010689828A83F0225002F722BBFE0115
:020FCB00F3220F
:100FCD00AC77AD78AE79AF7A7810EC4D4E4F7004AA
:100FDD007CA57DA5C3EC13FCED13FDEE13FEEF1305
:100FED00FF5010EC64CCFCED644CFDEE644EFEEF56
:100FFD0064CEFFD8DF8C778D788E798F7AEE547F23
:0D100D00FE228E778F7874A5F579F57A2292
:00000001FF
