:0300000002187F64
:0C187F00787FE4F6D8FD7581C60218C61B
:03000B000201BC33
:1001BC00C0E0C0F0C083C082C0D075D000C000C009
:1001CC0001C002C003C004C005C006C007C28D1226
:1001DC001FEA12000ED007D006D005D004D003D0F1
:1001EC0002D001D000D0D0D082D083D0F0D0E03279
:101F1D0012211B120F801201FC30CFFDC2CF75C7ED
:101F2D00AA75C75543AA40121D311221B4121A5673
:101F3D00121C911217EF12201D12207A12190B127A
:041F4D0010B880D573
:10201D0020A61578C606E6D3944B4022E4F618E6C2
:10202D00701C76011876022278C5E6700B08E6D38F
:0F203D009400400478C47601E478C5F608F622D2
:101C9100E53D1212681CB8001CBB011CBE021CC32E
:101CA100031CC80B1CCB0C1CCE0D1CD1FB1CD4FD82
:101CB1001CD7FF00001CDA0221C6022190E4FF02BA
:101CC100197BE4FF0214220216C0021584021622B7
:101CD100021B8C021BE3021C3A753E01753D012279
:101B8C00E540B40117E4F54078A0F618F618F6F520
:101B9C0077F576F575787FF67891F622787FE6C33F
:101BAC00940450020622E4787FF67891E620E00651
:101BBC00789E76FF8004E4789EF6789106E6D394BE
:101BCC00054006853E3D75400178A0E6F57718E6A0
:071BDC00F57618E6F575220D
:101BE300E540B40117E4F54078A0F618F618F6F5C9
:101BF30077F576F575787FF67891F622787FE6C3E8
:101C0300940450020622E4787FF67891E620E006F9
:101C1300789F76FF8004E4789FF6789106E6D39464
:101C2300054006853E3D75400178A0E6F57718E648
:071C3300F57618E6F57522B5
:101C3A00E540B40117E4F54078A0F618F618F6F571
:101C4A0077F576F575787FF67891F622787FE6C390
:101C5A00940450020622E4787FF67891E620E006A2
:101C6A0078A076FF8004E478A0F6789106E6D3940B
:101C7A00054006853E3D75400178A0E6F57718E6F1
:071C8A00F57618E6F575225E
:0F21C600E540B40109E4F540F577F576F57522AB
:10219000E540B4010CE4F540852577852676852752
:0221A0007522A6
:1021A200E4F577F576F575788376640876640876D3
:0221B2006422A5
:10216500E4F577F576F5757883F608F608F678914F
:06217500F608F608F62250
:10197B00E540B40106E4F5400221A2E5256464606C
:10198B0003BF0118788306E6FEB45D05E4F57780A6
:10199B000BEEB46707757764E47883F6E526646429
:1019AB006003BF0118788406E6FEB46705E4F5769C
:1019BB00800BEEB47707757664E47884F6E52764DC
:1019CB00646003BF0117788506E6FFB47704E4F57E
:0E19DB007522EFB48507757564E47885F622F1
:10142200E540B40106E4F540022165E52564646007
:1014320005EF6401702F788306E6C394034026E427
:10144200F67891E67010E577C394645004057780CE
:1014520014789106800FE577D394004004157780C5
:1014620004E47891F6E52664646005EF6401702F68
:10147200788406E6C394044026E4F67892E6701077
:10148200E576C39464500405768014789206800F42
:10149200E576D39400400415768004E47892F6E56C
:1014A2002764646005EF6401702C788506E6C394B6
:1014B200054023E4F67893E6700EE575C394645014
:1014C2000305752278930622E575D394004003152F
:0714D2007522E47893F62275
:1016C000E540B4011DE4F5407896F6788AF608F610
:1016D000E5627006756201756401E4F577F576F5EB
:1016E0007522788B06E618700106788AE6FE08E611
:1016F000FF64014E7006789676018024BE0109BF12
:10170000CC06789676028018E4B5070AEEB40A068D
:1017100078967603800ABE0D0DBF840A789676040B
:10172000789A7601800FBE110CBF9409E4788AF68E
:1017300008F67540017896E6146010146010146085
:10174000101460102404700F0221C6021F510212EF
:081750008E021F8412135B22BC
:101F5100789AE6B4010AE4F6788FF608F60221A22F
:101F6100C37890E6945618E6941350077F0112192E
:101F71007B8007E4F577F576F575789006E61870BD
:031F810001062234
:10128E00789AE6B4010CE4F6122165E4788FF6083C
:10129E00F622788FE6FC08E6FDC394DCEC9405504C
:1012AE00087F01121422021352BC0505BDDC028018
:1012BE0072788FE6FC08E6FDC394B8EC940B5002EE
:1012CE008072BC0B0CBDB809E4787FF67889F68085
:1012DE0073788FE6FE08E6FFC39494EE9411503DAA
:1012EE00787F06E69432405CE4F67889E6FD75F088
:1012FE0003A42425F8E6F577ED75F003A42426F86B
:10130E00E6F5767889E675F003A42427F8E6F575F8
:10131E00788906E6C39407402BE4F68027BE1108B1
:10132E00BF94051221A2801CC37890E6948818E61B
:10133E00941350077F0112197B8009E478A0F67888
:0D134E009EF608F6789006E618700106225B
:101F8400789AE6B4010AE4F6788FF608F60221A2FC
:101F9400C37890E6946218E6941150077F011219F1
:101FA4007B8007E4F577F576F575789006E618708A
:031FB40001062201
:10135B00789AE6B4010CE4F6122165E4788FF6086E
:10136B00F622788FE6FC08E6FDC394E8EC94035074
:10137B00087F01121422021419BC030DBDE80AE404
:10138B007883F67889F6021419C37890E694DC1802
:10139B00E69405503D788306E694C84071E4F678F0
:1013AB0089E6FF75F003A42425F8E6F577EF75F0D1
:1013BB0003A42426F8E6F5767889E675F003A424D1
:1013CB0027F8E6F575788906E6C394074040E4F6FE
:1013DB00803C788306E6C3941E4033E4F67889E6B6
:1013EB00FF75F003A42425F8E6F577EF75F003A459
:1013FB002426F8E6F5767889E675F003A42427F819
:10140B00E6F575788906E6C394074002E4F6789012
:07141B0006E618700106222D
:10158400E540B40119E4F5407896F6788AF608F651
:10159400E562600302162175620175640122788B8D
:1015A40006E618700106788AE6FE08E6FF64014E36
:1015B400700678967601802EBE0609BF6806789676
:1015C40076028022BE0D09BF5206789676038016F5
:1015D400BE0F09BF6E0678967604800ABE130DBF4F
:1015E400920A78967604789A7601800FBE1B0CBF17
:1015F4005809E4788AF608F67540017896E614608E
:10160400101460101460101460102404700F022170
:0E161400C6021B29020DFA0207D9120C56223B
:101B2900789AE6B4012BE4F6F577F576F575788FB2
:101B3900F608F67883F6E52575F03284789DF6E5A2
:101B49002675F032847899F6E52775F0328418F60F
:101B590022788306E6D394144028E4F6E5779525A0
:101B6900400CE57695264006E57595275014789D35
:101B7900E62577F5777899E62576F57618E62575D9
:031B8900F57522CD
:100DFA00789AE6B4012BE4F67891F67883F678804F
:100E0A00F6788FF608F6E52575F03284789DF6E5D2
:100E1A002675F032847899F6E52775F0328418F64B
:100E2A0022788FE6FE08E6FFC394C8EE9400503994
:100E3A00788306E694145003020F77E4F6E5779573
:100E4A0025400FE57695264009E57595274003026A
:100E5A000F77789DE62577F5777899E62576F57602
:100E6A0018E62575F575020F77EF64C84E700F788E
:100E7A0083F6789BF67889F67886F6020F77788F6C
:100E8A00E6FE08E6FFC39498EE9408505C78830661
:100E9A00E6940A5003020F77E4F6788606E6FD64C4
:100EAA000170297889E6FC75F003A42425F8E6F593
:100EBA0077EC75F003A42426F8E6F5767889E675CA
:100ECA00F003A42427F8E6F575020F77EDD39432E0
:100EDA005003020F77E47886F6788906E69407507D
:100EEA0003020F77E4F6020F77EF64987003EE645B
:100EFA000870457883F67889E6FF75F003A42425FF
:100F0A00F8E6F577EF75F003A42426F8E6F5767887
:100F1A0089E675F003A42427F8E6F575E57775F0F8
:100F2A003284789DF6E57675F032847899F6E5751F
:100F3A0075F0328418F68035788306E6D394034038
:100F4A002CE4F6E575D39400500CE577940050062E
:100F5A00E57694004017C3E577789D96F577C3E563
:100F6A0076789996F576C3E5751896F575789006AC
:060F7A00E61870010622DA
:1007D900789AE6B4012BE4F6788FF608F67883F672
:1007E9007891F67880F6E52575F03284789DF6E5FE
:1007F9002675F032847899F6E52775F0328418F673
:1008090022788FE6FE08E6FFC394F4EE940150596E
:10081900EF94C1EE9401400C853777853876853998
:1008290075020A127C007D281211DDED4C6003026D
:100839000A127880E6FF75F003A42425F8E6F57717
:10084900EF75F003A42426F8E6F5767880E675F0CE
:1008590003A42427F8E6F575788006E6C3940750C3
:1008690003020A12E4F6020A12788FE6FC08E6FD92
:10087900C394DCEC940550087F0112197B020A121B
:10088900BC0527BDDC24E47891F67883F6E5377555
:10089900F03284789DF6E53875F032847899F6E57A
:1008A9003975F0328418F6020A12C37890E694D8A2
:1008B90018E6940E40030209D27891E6B40A004082
:1008C90003020A129008D4F82828730208F20209D0
:1008D9005B0208F202095B0208F202095B0208F2F4
:1008E90002095B0208F20209AA789DE6FF2577F55D
:1008F900777899E6FD2576F57618E6FC2575F57580
:10090900EF75F032A465777002E5F06003020A1210
:10091900ED75F032A4FFE5766F7002E5F060030231
:100929000A12EC75F032A465757002E5F0600302F5
:100939000A127891067894E6FE08E6FF121DC212A3
:100949001D807C007D14121232ED240578A0F60278
:100959000A12789DE6FFC3E5779FF5777899E6FD5A
:10096900C3E5769DF57618E6F9C3E57599F57578C9
:10097900A0E6FCEF8CF0A465777002E5F060030255
:100989000A12ED8CF0A465767002E5F0707BE6FF43
:10099900E98FF0A465757002E5F0706D78910680B5
:1009A90068C3E577789D96F577C3E576789996F5E6
:1009B90076C3E5751896F575E577704DE576704956
:1009C900E57570457891F68040C37890E6940418EF
:1009D900E694105034788306E69404402CE4F6E556
:1009E90077D394004007E577789D96F577E576D338
:1009F90094004007E577789996F577E575D39400E3
:100A09004007E577789896F577789006E6187001AB
:020A19000622B3
:100C5600789AE66401702EF6F577F576F575E52552
:100C660075F03284789DF6E52675F032847899F62B
:100C7600E52775F0328418F6E4788FF608F678835F
:100C8600F67880F622788FE6FE08E6FFC394B0EE8B
:100C960094045024788306E6941E5003020DF1E472
:100CA600F6E5779528400FE5769529407EE575951A
:100CB6002A4003020DF18073BE0510BF140DE478BF
:100CC60080F67891F67883F6020DF1788FE6FE08C5
:100CD600E6FFC39494EE94114003020DAD788306AB
:100CE600E694035003020DF1E4F67891E614605899
:100CF600046003020DF17880E6FD75F003A4242557
:100D0600F8E6FCE577C39C4022ED75F003A42426A3
:100D1600F8E6FDE576C39D40127880E675F003A4FB
:100D26002427F8E6FDE575C39D5017789DE62577DF
:100D3600F5777899E62576F57618E62575F5750240
:100D46000DF1789106020DF1788406E4F577F576D3
:100D5600F575E6D3940A5003020DF1E4F67891F6A0
:100D6600F577F576F575788006E694074002E4F6A1
:100D76007880E6FD75F003A42425F8E675F0328444
:100D8600789DF6ED75F003A42426F8E675F0328416
:100D96007899F67880E675F003A42427F8E675F0CE
:100DA60032847898F68044C3EF94B0EE941D500CCC
:100DB60078A0A63718A63818A639802F788FB61DC2
:100DC6000F08B6B00B853777853876853975801B61
:100DD600E577D3940040021577E576D39400400278
:100DE6001576E575D3940040021575789006E618D9
:040DF6007001062260
:10162200E540B40119E4F5407896F6788AF608F6B2
:10163200E56260030216BF75620175640122788B50
:1016420006E618700106788AE6FE08E6FF64014E97
:10165200700678967601802EBE0A09BF64067896D7
:1016620076028022BE1409BFE606789676038016BB
:10167200BE1609BF440678967604800ABE190DBFCD
:10168200CD0A78967604789A7601800FBE1F0CBF39
:101692004009E4788AF608F67540017896E6146007
:1016A200101460101460101460102404700F0221D2
:0E16B200C602007E020A1B0214D91205922203
:10007E00789AE6B40124E4F6F577F576F575788F7F
:10008E00F608F67880F67883F6789BF67889F67817
:10009E0091F6788676067882F622788FE6FE08E666
:1000AE00FFC394DCEE940540030201447883067985
:1000BE0083E778869650030201B3E47883F678914D
:1000CE00E614604C0460030201B37889E6FD75F016
:1000DE0003A42425F8E6FCF577ED75F003A4242699
:1000EE00F8E6FDF5767889E675F003A42427F8E6A0
:1000FE00FBF575EC75F03284789DF6ED75F0328473
:10010E007899F6EB75F0328418F67891060201B301
:10011E00E577D394005077E57694005071E57594A9
:10012E000040028069E47891F6788906E6C3940768
:10013E004073E4F6806FBE052CBFDC29E47883F6AD
:10014E00757764757664757564E57775F0328478C5
:10015E009DF6E57675F032847899F6E57575F03290
:10016E008418F68040C37890E694D018E694075031
:10017E0034788306E69409402CE4F6E577D39400B0
:10018E00500CE57694005006E57594004017C3E5D3
:10019E0077789D96F577C3E576789996F576C3E5EB
:0E01AE00751896F575789006E6187001062211
:100A1B00789AE664017030F6F577F576F575788F90
:100A2B00F608F67880F67891F67883F6E52575F07A
:100A3B003284789DF6E52675F032847899F6E527B1
:100A4B0075F0328418F622788FE6FE08E6FFC39421
:100A5B00D0EE94074003020B35788306E6940250E0
:100A6B0003020C4DE4F67891E66063146003020C0C
:100A7B004DE577D39400500CE57694005006E57560
:100A8B0094004003020C36E47891F6788006E6D3A6
:100A9B009405400276067880E6FD75F003A42425C4
:100AAB00F8E675F03284789DF6ED75F003A42426F4
:100ABB00F8E675F032847899F67880E675F003A441
:100ACB002427F8E675F032847898F6020C4D78807E
:100ADB00E6FD75F003A42425F8E6FCE577C39C40FE
:100AEB0023ED75F003A42426F8E6FDE576C39D40BF
:100AFB00137880E6FD75F003A42427F8E6FCE57572
:100B0B00C39C5017789DE62577F5777899E625767F
:100B1B00F57618E62575F575020C4DEDC394064078
:100B2B0003020C4D789106020C4DBE0721BFD01E5F
:100B3B00E47883F67891F6E53775F03284789DF694
:100B4B00E53875F032847899F6E539020C10C378E4
:100B5B0090E694C418E694094003020BE6788306EA
:100B6B00E6941E5003020C4DE4F67891E614604AAD
:100B7B00046003020C4D789DE675F032A4F577788E
:100B8B0099E675F032A4F57618E675F032A4F57592
:100B9B007891067894E6FE08E6FF121DC2789574EC
:100BAB001126F618E436F6121D807C007D14121205
:100BBB0032ED240578A0F6020C4D78A0E6FF789D67
:100BCB00E68FF0A4F5777899E68FF0A4F57618E622
:100BDB008FF0A4F575E47891F68067788FB6092DC0
:100BEB0008B6C429E47883F6853777853876853956
:100BFB0075E57775F03284789DF6E57675F032847D
:100C0B007899F6E57575F0328418F6803578830699
:100C1B00E6D39407402CE4F6E577D39400500CE52B
:100C2B007694005006E57594004017C3E577789DE0
:100C3B0096F577C3E576789996F576C3E5751896AC
:0B0C4B00F575789006E618700106228F
:1014D900789AE664017034F68537778538768539E8
:1014E90075E57775F03284789DF6E57675F0328486
:1014F9007899F6E57575F0328418F6E4788FF60870
:10150900F67880F67891F67883F622788FE6FE08E9
:10151900E6FFC394E8EE9403503C788306E6941EF4
:101529004050E4F6788006E694074002E4F67880B5
:10153900E6FD75F003A42425F8E6F577ED75F003CB
:10154900A42426F8E6F5767880E675F003A4242726
:10155900F8E6F575801CBE0308BFE8051221A280D4
:1015690011C37890E694B818E6940B50057F0112E0
:0B157900197B789006E618700106222E
:10059200789AE664017033F6F577F576F575E52518
:1005A20075F03284789DF6E52675F032847899F6F6
:1005B200E52775F0328418F6E4788FF608F678832A
:1005C200F67891F67880F6022165788FE6FC08E6E7
:1005D200FDC394E8EC940350057F010207CDBC03F0
:1005E20016BDE813E47880F685257785267685277B
:1005F200757883F60207D0788FE6FE08E6FFC3948B
:10060200B8EE940B5040788306E6943C5003020700
:10061200D0E4F6788006E694074002E4F67880E6B5
:10062200FD75F003A42425F8E6F577ED75F003A433
:100632002426F8E6F5767880E675F003A42427F8F8
:10064200E6F5750207D0EF64B87003EE640B704CE8
:100652007889F6F577F576F575E6FF75F003A4244B
:1006620025F8E675F03284789DF6EF75F003A42440
:1006720026F8E675F032847899F67889E675F00303
:10068200A42427F8E675F032847898F6E47891F697
:100692007883F6787FF6789BF60207D0788FE6FEAD
:1006A20008E6FFC39494EE941140030207BD787FDD
:1006B20006E6940550030207D0E4F67891E614604A
:1006C200580460030207477889E6FD75F003A42405
:1006D20025F8E6C313FCE577C39C4026ED75F003CD
:1006E200A42426F8E6C313FDE576C39D4014788959
:1006F200E675F003A42427F8E6C313FDE575C39D50
:10070200503D789DE62577F5777899E62576F5765A
:1007120018E62575F5750207D07889E6FD75F003B0
:10072200A42425F8E6F577ED75F003A42426F8E66F
:10073200F5767889E675F003A42427F8E6F575784E
:1007420091060207D0E577D39400500CE576940029
:100752005006E57594004019C3E577789D96F577C4
:10076200C3E576789996F576C3E5751896F57580A2
:100772005DE47891F6788906E6C394074002E4F6D0
:100782007889E6FD75F003A42425F8E675F0328435
:10079200789DF6ED75F003A42426F8E675F0328410
:1007A2007899F67889E675F003A42427F8E675F0BF
:1007B20032847898F6E47891F68013C3EF9494EE3D
:1007C20094117F01500512197B8003121422789034
:0707D20006E6187001062283
:10211B0053A87F121E17122134121EA812217B12F4
:09212B001EE61221D543A8802212
:101E17007F107E2775C7AA75C755439780E596201B
:101E2700E70BEF4E6007EF1F70F31E80F0D3EF94C0
:101E370000EE9400401675C7AA75C75575960275CA
:101E4700C7AA75C7555397DF757C012275C7AA7551
:081E5700C7555396FCE4F57C2D
:011E5F002260
:1021340053B5F043B60F53A0F053B11B43B2E4536D
:09214400801B43B54053B6BF22D5
:101EA800758902538EF7E57CD394004008758ABE85
:101EB800758CBE8006758A48758C48D2A9438810EF
:101EC800E4F5C875C9A0E57CD39400400875CAF04C
:0E1ED80075CBD88006E4F5CA75CB94D2CA2229
:10217B0043B10853B2F775E80375E121E4F5E27555
:05218B00F20ED2EE226D
:101EE60053B5CF53B6CF43A03075F85043C4805393
:101EF600C4BF53C4F8E57CD39400400875C6FF758B
:101F0600C5CC800675C6FF75C57043C40843FE017F
:071F160043FF01439C01227F
:0A21D50075C7AA75C75575AAC32285
:0A20A600085A01030206040C0809A1
:10000E00E562606878C306E6D394144002E4F6789D
:10001E00C3E6C3940F503378C1E6FF245AF8E6FEC8
:10002E001392A0EE5402C31324FF92A1745A2FF818
:10003E00E6FF54041313543F24FF92A2EF54081307
:10004E001313541F24FF92A38008C2A0C2A1C2A200
:10005E00C2A378C00679C0E7D378C296400EE47882
:0D006E00C0F60806E6D394074002E4F6222F
:10207A00E56464017025F564E5627009C2A0C2A135
:10208A00C2A2C2A322E478C1F6E56224FE60030478
:0C209A00800578C276232278C27650229E
:1017EF00E4FF121DCDEFD394FC5006EFC3940150CC
:1017FF0006C282E4F57D2278BBE6FE7019EFD39422
:10180F008C4008EE7005D282757D01EFC394805035
:10181F0005C282E4F57DEFC394015010757D02EE91
:10182F00700878BB760178BF7601C28278BBE66418
:10183F0001703C78BFE6B40109E4F678BCF608F60F
:10184F0008F678BC06E6C394324024E4F60806E6B0
:10185F00943C401BE4F60806E6943C4012E4F6EF95
:0F186F009405500408760122E478BBF6757D03DA
:01187E002247
:101DCD00E4FFF56D79FFFEFDFCD2EE30EFFDAEC305
:101DDD00EFD394004014E56D9E50028E6DE9D39EB5
:101DED004002A906EE2DFDE43CFC0FBF0BDBE56DBB
:101DFD0029FFE433FEC3ED9FFDEC9EFCEDAE0478B0
:091E0D0003CEC313CE13D8F9FF74
:011E160022A9
:0401FC00E4F54422C0
:03007B00021E6002
:101E6000C0E0C0F0C083C082C0D075D000C000C048
:101E700001C002C003C004C005C006C00730F80599
:101E8000C2F8121FB730F905C2F9754400D007D067
:101E900006D005D004D003D002D001D000D0D0D0DD
:081EA00082D083D0F0D0E032C3
:101FB700AF9AE555700BEF64FD7027755501F54134
:101FC70022E555B4011CBFFE0475550222E541C345
:101FD7009406400475550322AE41054174B12EF8AD
:021FE700A6074B
:011FE90022D5
:101D3100E5557003F54222E555B4010F0542E54230
:101D4100D394644039E4F542F55522E555B4030BCB
:101D51007F0678B1E4F608DFFC8020E55564027067
:101D61001D754D01FF74B12FF8E6FE744F2FF8A6D3
:0E1D71000674B12FF8E4F60FBF06EAE4F5554C
:011D7F002241
:101A5600E4F56DE5436062E543640170337FFC1293
:101A660021DF7F4C1221DF7F411221DF7F311221DE
:101A7600DFE4F56D7456256DF8E6FF1221DF056D7E
:101A8600E56DC3940440ED7FFE1221DF754302220B
:101A9600E543640270237FFD1221DFE4F56D744592
:101AA600256DF8E6FF1221DF056DE56DC39408404C
:091AB600ED7FFE1221DFE4F5438F
:011ABF002204
:0A21DF00E54470FC8F9A754401225C
:1020B000180D640000640000006400646400000007
:1020C00064640064006464646464010900010CFFDA
:100F80007F0612000378A1EFF664AA603E753E0169
:100F9000753F07756B06756301E478A4F608F6756E
:100FA000563075573075583075593078A2F6187626
:100FB000AA78A7F6757E01753D017540017562013D
:100FC000756401756A01AF3F0219E9E4FF1200037D
:100FD0008F3EE53E6012D394034006E53E940B40FD
:100FE00007E53ED3940D4006753E01757E01853EB2
:100FF0003D7540017F011200038F3FE53FD3940709
:101000004006753F07757E01AF3F1219E97F021256
:1010100000038F6BE56BD394085005E56B30E00659
:10102000756B06757E01756A01756C017F0712008C
:10103000038F63E563D394024006756301757E01F7
:101040008563627564017F0312000378A2A6077F9F
:101050000412000378A4A6077F0512000378A5A652
:101060000778A2E6FF700678A776558008EFB4559A
:101070000978A776AA757E018019EFB4AA15E478DD
:10108000A4F608F678A7F678A2F6757E01753DFD00
:1010900075400178A41220FB8F5678A4E6540FFF08
:1010A0001221008F5778A51220FB8F5878A5E6549F
:0810B0000FFF1221008F5922ED
:1021B400121758121AC01220D112204C12214D02AB
:0221C400028097
:1017580078C4E6FF70030217EEEF6401707178A990
:10176800760178AE760178C4F6754001E53D701FC4
:10177800853E3D856362756401E53F6005D3940746
:101788004006753F07757E01AF3F1219E9803BE5BA
:101798003DD3940A401C053E853E3DE53ED3940D5D
:1017A8004025E4F53DF562756401753E01753F011C
:1017B8008015753E01053FE53FD394074006753F08
:1017C80001753E0B853E3D757E01AF3F0219E978F4
:1017D800C4E6B40211E4F6E53D600BE4F53D75405E
:0717E80001F56275640122A6
:101AC000E57D6003B4010AE478ACF608F678A9F67F
:101AD00022E57D6402703878A9E66401702678AE4C
:101AE000E6B40107E4F678ACF608F678AC06E6C38F
:101AF0009432401BE4F60806E694144012E4F678AB
:101B0000A9F6800BE4F53D754001F562756401E5C9
:101B10007DB40314E4F57DE56CB4010C853E3D75A0
:091B200040018563627564012235
:10204C0078A2E6601478A606E6C394FA400BE4F690
:10205C0078A2F678A7F6757E0178AFE6600C0508D5
:0D206C00E508C394FA4006E4F622E4F50806
:012079002244
:10214D0078B0E6B4010E0509E509D394964008E48C
:07215D00F509F622E4F50983
:012164002258
:1020D100E5656025E565B4010EE4F565853E3D7570
:1020E1004001856362800FE565B4020DE4F565F595
:0A20F1003D754001F562756401229F
:10028000E4F56DF56EE50B702A050AE50AC39432B4
:100290004021750B0175430175450175464C754745
:1002A00041754831856249853F4A78A4E6F54B0897
:1002B000E6F54C78A3E6601178A806E6C3941940E9
:1002C00008E4F6750CFF78A3F6E54D70030205917E
:1002D000E4F54D78A3760178A8F6E50B700DE54FAF
:1002E000B4F008750B01754301805AE54F540FFFB8
:1002F00064076013E55378A4666003020591E55432
:1003000008666003020591E54F640F600FE54FC476
:10031000540FFE650C70030205918E0CEF121268EB
:10032000034201034202035A03039E0403B405047B
:100330002F07051D0803D20A054F0D04030F000007
:10034000059175430275450175464C7547417548E1
:1003500031856249853F4A020567E550D3940340E1
:1003600008E550F46003020591E551D3940740037A
:1003700002059185503D754001E53D04600814700B
:100380000FE4F5628006853E3D8563627564012257
:1003900085513FAF3F1219E9853D3E02050085506A
:1003A00063E563D3940240037563028563627564F9
:1003B00001020500E551D394084003020591E5517F
:1003C00030E00302059185516B756A01757E01026B
:1003D0000522E550D394034003020591E5507003D4
:1003E000020591E551D394084003020591E550249C
:1003F0000AF53DF53E754001753F07AF3F1219E91B
:10040000020500E550D3940A5003020591E53D70C2
:10041000030205916550700302059185503D85509A
:100420003E754001757E01753F077F070219E97827
:10043000AFE664016003020504F6E55065516552BC
:10044000655365546020753DFF7540017543027525
:100450004508754604E4F547F54878AAE6F54908E5
:10046000E6F54A0205677B007A007950121CE18E9E
:100470006D8F6E78AAE6FDFE08E6FC7A002400FF88
:10048000EA3EFEEF656E7003EE656D601B753DFF25
:10049000754001754302754508754604E4F547F556
:1004A000488D498C4A02056778AA1220FB8F56783E
:1004B000AAE6540FFF1221008F5778AB1220FB8F52
:1004C0005878ABE6540FFF1221008F597543017520
:1004D0004508754603E4F547F54878AAE6FFF5496F
:1004E00008E6FEF54A78A4E6F54B08E6F54C18A6B2
:1004F0000708A606E478AAF608F6753DFD754001E2
:10050000757E0122754302754508754604E4F5477A
:10051000F54878AAE6F54908E6F54A804AE550B478
:100520000107753DFB75400122E550640270627859
:10053000AF760178AAA65108A652754302854F45A9
:10054000754602F547F54885514985524A8018E5B8
:1005500050701E75430275450D75464C75474175C3
:100560004831F549856B4A78A4E6F54B08E6F54C29
:1005700022E550B4011B75430275450D857C46E4A8
:10058000F547754819754910754A18754B57754CDC
:010590004327
:010591002247
:061CE1008B6F8A7089710F
:101CE700E4F572F573FDAB6FAA70A9718D827583E8
:101CF700001211B0FEEE6272E4FCE57230E713E504
:101D07007325E0FFE572336410F572EF6421F57314
:101D1700800BE57325E0F573E57233F5720CBC08AB
:091D2700D90DBD04C1AE72AF7309
:011D30002290
:1019E900E4FEE53DD3940A4042E4EE75F003A424F5
:1019F90010F8E6FDEE75F003A42425F8A605EE75AA
:101A0900F003A42411F8E6FDEE75F003A42426F8EA
:101A1900A605EE75F003A42412F8E6FDEE75F003B1
:101A2900A42427F8A6050EBE07C022EF75F003A46B
:101A3900240DF8E6F525EF75F003A4240EF8E6F574
:0C1A490026EF75F003A4240FF8E6F52743
:011A5500226E
:0520FB00E6C4540FFFD4
:10210000EFD3940F400353070FEFC3940A5005EF2A
:0B2110002430FF2274F62F2441FF2230
:1010B800E57E70030211AFE4F57E53A87F75C7AAD9
:1010C80075C755439F0175C7AA75C75543A50175CF
:1010D800AF2275A702F5A675AEFF75C7AA75C755E5
:1010E80043A40175AF2175A702F5A6853EAE75C765
:1010F800AA75C75543A40175AF2175A70275A60146
:10110800853FAE75C7AA75C75543A40175AF21754C
:10111800A70275A602856BAE75C7AA75C75543A405
:101128000175AF2175A70275A60378A7E6F5AE7518
:10113800C7AA75C75543A40175AF2175A70275A63F
:101148000478A4E6F5AE75C7AA75C75543A401751A
:10115800AF2175A70275A60578A5E6F5AE75C7AAED
:1011680075C75543A40175AF2175A70275A6067802
:10117800A1E6F5AE75C7AA75C75543A40175AF2199
:1011880075A70275A6078563AE75C7AA75C75543C7
:10119800A40175C7AA75C75553A5FE75C7AA75C713
:0811A80055539FFE43A880226D
:07000300EF90020093FF22C1
:101FEA000574E574C3947D4003E4F574E574C39500
:101FFA00775004D2878002C287E574C3957550046E
:10200A00D2858002C285E574C395765003D28622B2
:02201A00C2867C
:01201C0022A1
:10190B00E56B606BE56AB4010BE4F56AF566F567A8
:10191B00F568F5690566E566C394324024E4F5661F
:10192B000567E567943C4019E4F5670568E568943D
:10193B003C400EE4F5680569E56994184003E4F54D
:10194B0069E5667013E567700FE568700BE5697004
:10195B0007756501756C0122E5667013E567700FFD
:10196B00E568700BE569B56B06756502E4F56C22ED
:10188B00021F1DE493A3F8E493A34003F68001F237
:10189B0008DFF48029E493A3F85407240CC8C3335E
:1018AB00C4540F4420C8834004F456800146F6DF2D
:1018BB00E4800B01020408102040809020A6E47EF7
:1018CB00019360BCA3FF543F30E509541FFEE49322
:1018DB00A360010ECF54C025E060A840B8E493A3E9
:1018EB00FAE493A3F8E493A3C8C582C8CAC583CA14
:1018FB00F0A3C8C582C8CAC583CADFE9DEE780BECC
:0120D000000F
:1011B000BB010CE58229F582E5833AF583E02250F4
:1011C00006E92582F8E622BBFE06E92582F8E2223E
:0D11D000E58229F582E5833AF583E4932258
:1011DD00BC000BBE0029EF8DF084FFADF022E4CCF6
:1011ED00F875F008EF2FFFEE33FEEC33FCEE9DECBF
:1011FD00984005FCEE9DFE0FD5F0E9E4CEFD22ED05
:10120D00F8F5F0EE8420D21CFEADF075F008EF2F4E
:10121D00FFED33FD4007985006D5F0F222C398FD3F
:05122D000FD5F0EA22DC
:10123200C2D5EC30E709B2D5E4C39DFDE49CFCEED7
:1012420030E715B2D5E4C39FFFE49EFE1211DDC361
:10125200E49DFDE49CFC80031211DD30D507C3E45C
:061262009FFFE49EFE2246
:10126800D083D082F8E4937012740193700DA3A315
:1012780093F8740193F5828883E473740293686029
:06128800EFA3A3A380DF29
:101D8000AC78AD79AE7AAF7B7810EC4D4E4F7004E5
:101D90007CA57DA5C3EC13FCED13FDEE13FEEF1344
:101DA000FF5010EC64CCFCED644CFDEE644EFEEF95
:101DB00064CEFFD8DF8C788D798E7A8F7BEE547F5E
:0D1DC000FE228E788F7974A5F57AF57B22CE
:00000001FF
