:030000000218A83B
:0C18A800787FE4F6D8FD7581D30218EFBC
:03000B000201BD32
:1001BD00C0E0C0F0C083C082C0D075D000C000C008
:1001CD0001C002C003C004C005C006C007C28D1225
:1001DD00218F12000ED007D006D005D004D003D049
:1001ED0002D001D000D0D0D082D083D0F0D0E03278
:1020520012228E12007E12234330CFFDC2CF75C7EB
:10206200AA75C75543AA40121E9D12230E121B6E5B
:10207200121DFD1217761220C01221F0121A23121D
:0720820010BB1219AD80D262
:091DA90001D10001D30001D200B8
:1020C00078A8E66401602E20A61578D306E6D3949E
:1020D0004B4022E4F618E6701C760118760222784E
:1020E000D2E6700B08E6D39400400478D17601E480
:0620F00078D2F608F6228A
:101DFD00E53D12126B1E24001E27011E2A021E2F06
:101E0D00031E340B1E370C1E3A0D1E3DFB1E40FDEE
:101E1D001E43FF00001E460223200222EAE4FF02B9
:101E2D001A93E4FF02142502181002163A0216D86E
:101E3D00021CA4021CFB021D52753E01753D0122C0
:101CA400E540B40117E4F54078A0F618F618F6F507
:101CB40077F576F575787FF67891F622787FE6C326
:101CC400940450020622E4787FF67891E620E00638
:101CD400789E76FF8004E4789EF6789106E6D394A5
:101CE400054006853E3D75400178A0E6F57718E687
:071CF400F57618E6F57522F4
:101CFB00E540B40117E4F54078A0F618F618F6F5B0
:101D0B0077F576F575787FF67891F622787FE6C3CE
:101D1B00940450020622E4787FF67891E620E006E0
:101D2B00789F76FF8004E4789FF6789106E6D3944B
:101D3B00054006853E3D75400178A0E6F57718E62F
:071D4B00F57618E6F575229C
:101D5200E540B40117E4F54078A0F618F618F6F558
:101D620077F576F575787FF67891F622787FE6C377
:101D7200940450020622E4787FF67891E620E00689
:101D820078A076FF8004E478A0F6789106E6D394F2
:101D9200054006853E3D75400178A0E6F57718E6D8
:071DA200F57618E6F5752245
:0F232000E540B40109E4F540F577F576F575224F
:1022EA00E540B4010CE4F5408525778526768527F7
:0222FA0075224B
:1022FC00E4F577F576F57578837664087664087678
:02230C00642249
:1022BF00E4F577F576F5757883F608F608F67891F4
:0622CF00F608F608F622F5
:101A9300E540B40106E4F5400222FCE525646460F8
:101AA30003BF0118788306E6FEB45D05E4F577808D
:101AB3000BEEB46707757764E47883F6E526646410
:101AC3006003BF0118788406E6FEB46705E4F57683
:101AD300800BEEB47707757664E47884F6E52764C3
:101AE300646003BF0117788506E6FFB47704E4F565
:0E1AF3007522EFB48507757564E47885F622D8
:10142500E540B40106E4F5400222BFE525646460A9
:1014350005EF6401702F788306E6C394034026E424
:10144500F67891E67010E577C394645004057780CB
:1014550014789106800FE577D394004004157780C2
:1014650004E47891F6E52664646005EF6401702F65
:10147500788406E6C394044026E4F67892E6701074
:10148500E576C39464500405768014789206800F3F
:10149500E576D39400400415768004E47892F6E569
:1014A5002764646005EF6401702C788506E6C394B3
:1014B500054023E4F67893E6700EE575C394645011
:1014C5000305752278930622E575D394004003152C
:0714D5007522E47893F62272
:10181000E540B4011DE4F5407896F6788AF608F6BE
:10182000E5627006756201756401E4F577F576F599
:101830007522788B06E618700106788AE6FE08E6BF
:10184000FF64014E7006789676018024BE0109BFC0
:10185000CC06789676028018E4B5070AEEB40A063C
:1018600078967603800ABE0D0DBF840A78967604BA
:10187000789A7601800FBE110CBF9409E4788AF63D
:1018800008F67540017896E6146010146010146034
:10189000101460102404700F0223200220F602129C
:0818A0009102212912135E22BE
:1020F600789AE6B4010AE4F6788FF608F60222FC2E
:10210600C37890E6945618E6941350077F01121A86
:10211600938007E4F577F576F575789006E61870FE
:032126000106228D
:10129100789AE6B4010CE4F61222BFE4788FF608DE
:1012A100F622788FE6FC08E6FDC394DCEC94055049
:1012B100087F01121425021355BC0505BDDC02800F
:1012C10072788FE6FC08E6FDC394B8EC940B5002EB
:1012D1008072BC0B0CBDB809E4787FF67889F68082
:1012E10073788FE6FE08E6FFC39494EE9411503DA7
:1012F100787F06E69432405CE4F67889E6FD75F085
:1013010003A42425F8E6F577ED75F003A42426F867
:10131100E6F5767889E675F003A42427F8E6F575F5
:10132100788906E6C39407402BE4F68027BE1108AE
:10133100BF94051222FC801CC37890E6948818E6BD
:10134100941350077F01121A938009E478A0F6786C
:0D1351009EF608F6789006E6187001062258
:10212900789AE6B4010AE4F6788FF608F60222FCFA
:10213900C37890E6946218E6941150077F01121A49
:10214900938007E4F577F576F575789006E61870CB
:032159000106225A
:10135E00789AE6B4010CE4F61222BFE4788FF60810
:10136E00F622788FE6FC08E6FDC394E8EC94035071
:10137E00087F0112142502141CBC030DBDE80AE4FB
:10138E007883F67889F602141CC37890E694DC18FC
:10139E00E69405503D788306E694C84071E4F678ED
:1013AE0089E6FF75F003A42425F8E6F577EF75F0CE
:1013BE0003A42426F8E6F5767889E675F003A424CE
:1013CE0027F8E6F575788906E6C394074040E4F6FB
:1013DE00803C788306E6C3941E4033E4F67889E6B3
:1013EE00FF75F003A42425F8E6F577EF75F003A456
:1013FE002426F8E6F5767889E675F003A42427F816
:10140E00E6F575788906E6C394074002E4F678900F
:07141E0006E618700106222A
:10163A00E540B40119E4F5407896F6788AF608F69A
:10164A00E56260030216D775620175640122788B20
:10165A0006E618700106788AE6FE08E6FF64014E7F
:10166A00700678967601802EBE0609BF68067896BF
:10167A0076028022BE0D09BF52067896760380163E
:10168A00BE0F09BF6E0678967604800ABE130DBF98
:10169A00920A78967604789A7601800FBE1B0CBF60
:1016AA005809E4788AF608F67540017896E61460D7
:1016BA00101460101460101460102404700F0223B8
:0E16CA0020021C41020DF70207D6120C53221B
:101C4100789AE6B4012BE4F6F577F576F575788F99
:101C5100F608F67883F6E52575F03284789DF6E589
:101C61002675F032847899F6E52775F0328418F6F6
:101C710022788306E6D394144028E4F6E577952587
:101C8100400CE57695264006E57595275014789D1C
:101C9100E62577F5777899E62576F57618E62575C0
:031CA100F57522B4
:100DF700789AE6B4012BE4F67891F67883F6788052
:100E0700F6788FF608F6E52575F03284789DF6E5D5
:100E17002675F032847899F6E52775F0328418F64E
:100E270022788FE6FE08E6FFC394C8EE9400503997
:100E3700788306E694145003020F74E4F6E5779579
:100E470025400FE57695264009E57595274003026D
:100E57000F74789DE62577F5777899E62576F57608
:100E670018E62575F575020F74EF64C84E700F7894
:100E770083F6789BF67889F67886F6020F74788F72
:100E8700E6FE08E6FFC39498EE9408505C78830664
:100E9700E6940A5003020F74E4F6788606E6FD64CA
:100EA7000170297889E6FC75F003A42425F8E6F596
:100EB70077EC75F003A42426F8E6F5767889E675CD
:100EC700F003A42427F8E6F575020F74EDD39432E6
:100ED7005003020F74E47886F6788906E694075083
:100EE70003020F74E4F6020F74EF64987003EE6464
:100EF7000870457883F67889E6FF75F003A4242502
:100F0700F8E6F577EF75F003A42426F8E6F576788A
:100F170089E675F003A42427F8E6F575E57775F0FB
:100F27003284789DF6E57675F032847899F6E57522
:100F370075F0328418F68035788306E6D39403403B
:100F47002CE4F6E575D39400500CE5779400500631
:100F5700E57694004017C3E577789D96F577C3E566
:100F670076789996F576C3E5751896F575789006AF
:060F7700E61870010622DD
:1007D600789AE6B4012BE4F6788FF608F67883F675
:1007E6007891F67880F6E52575F03284789DF6E501
:1007F6002675F032847899F6E52775F0328418F676
:1008060022788FE6FE08E6FFC394F4EE9401505971
:10081600EF94C1EE9401400C85377785387685399B
:1008260075020A0F7C007D281211E0ED4C60030270
:100836000A0F7880E6FF75F003A42425F8E6F5771D
:10084600EF75F003A42426F8E6F5767880E675F0D1
:1008560003A42427F8E6F575788006E6C3940750C6
:1008660003020A0FE4F6020A0F788FE6FC08E6FD9B
:10087600C394DCEC940550087F01121A93020A0F08
:10088600BC0527BDDC24E47891F67883F6E5377558
:10089600F03284789DF6E53875F032847899F6E57D
:1008A6003975F0328418F6020A0FC37890E694D8A8
:1008B60018E6940E40030209CF7891E6B40A004088
:1008C60003020A0F9008D1F82828730208EF0209DC
:1008D600580208EF0209580208EF0209580208EF09
:1008E6000209580208EF0209A7789DE6FF2577F569
:1008F600777899E6FD2576F57618E6FC2575F57583
:10090600EF75F032A465777002E5F06003020A0F16
:10091600ED75F032A4FFE5766F7002E5F060030234
:100926000A0FEC75F032A465757002E5F0600302FB
:100936000A0F7891067894E6FE08E6FF121F2E123B
:100946001EEC7C007D14121235ED240578A0F6020B
:100956000A0F789DE6FFC3E5779FF5777899E6FD60
:10096600C3E5769DF57618E6F9C3E57599F57578CC
:10097600A0E6FCEF8CF0A465777002E5F060030258
:100986000A0FED8CF0A465767002E5F0707BE6FF49
:10099600E98FF0A465757002E5F0706D78910680B8
:1009A60068C3E577789D96F577C3E576789996F5E9
:1009B60076C3E5751896F575E577704DE576704959
:1009C600E57570457891F68040C37890E6940418F2
:1009D600E694105034788306E69404402CE4F6E559
:1009E60077D394004007E577789D96F577E576D33B
:1009F60094004007E577789996F577E575D39400E6
:100A06004007E577789896F577789006E6187001AE
:020A16000622B6
:100C5300789AE66401702EF6F577F576F575E52555
:100C630075F03284789DF6E52675F032847899F62E
:100C7300E52775F0328418F6E4788FF608F6788362
:100C8300F67880F622788FE6FE08E6FFC394B0EE8E
:100C930094045024788306E6941E5003020DEEE478
:100CA300F6E5779528400FE5769529407EE575951D
:100CB3002A4003020DEE8073BE0510BF140DE478C5
:100CC30080F67891F67883F6020DEE788FE6FE08CB
:100CD300E6FFC39494EE94114003020DAA788306B1
:100CE300E694035003020DEEE4F67891E61460589F
:100CF300046003020DEE7880E6FD75F003A424255D
:100D0300F8E6FCE577C39C4022ED75F003A42426A6
:100D1300F8E6FDE576C39D40127880E675F003A4FE
:100D23002427F8E6FDE575C39D5017789DE62577E2
:100D3300F5777899E62576F57618E62575F5750243
:100D43000DEE789106020DEE788406E4F577F576DC
:100D5300F575E6D3940A5003020DEEE4F67891F6A6
:100D6300F577F576F575788006E694074002E4F6A4
:100D73007880E6FD75F003A42425F8E675F0328447
:100D8300789DF6ED75F003A42426F8E675F0328419
:100D93007899F67880E675F003A42427F8E675F0D1
:100DA30032847898F68044C3EF94B0EE941D500CCF
:100DB30078A0A63718A63818A639802F788FB61DC5
:100DC3000F08B6B00B853777853876853975801B64
:100DD300E577D3940040021577E576D3940040027B
:100DE3001576E575D3940040021575789006E618DC
:040DF3007001062263
:1016D800E540B40119E4F5407896F6788AF608F6FC
:1016E800E562600302177575620175640122788BE3
:1016F80006E618700106788AE6FE08E6FF64014EE1
:10170800700678967601802EBE0A09BF6406789620
:1017180076028022BE1409BFE60678967603801604
:10172800BE1609BF440678967604800ABE190DBF16
:10173800CD0A78967604789A7601800FBE1F0CBF82
:101748004009E4788AF608F67540017896E6146050
:10175800101460101460101460102404700F022319
:0E17680020020F7D020A1802158F12058F2233
:100F7D00789AE6B40124E4F6F577F576F575788F71
:100F8D00F608F67880F67883F6789BF67889F67809
:100F9D0091F6788676067882F622788FE6FE08E658
:100FAD00FFC394DCEE940540030210437883067969
:100FBD0083E778869650030210B2E47883F6789131
:100FCD00E614604C0460030210B27889E6FD75F0FA
:100FDD0003A42425F8E6FCF577ED75F003A424268B
:100FED00F8E6FDF5767889E675F003A42427F8E692
:100FFD00FBF575EC75F03284789DF6ED75F0328465
:10100D007899F6EB75F0328418F67891060210B2E5
:10101D00E577D394005077E57694005071E575949B
:10102D000040028069E47891F6788906E6C394075A
:10103D004073E4F6806FBE052CBFDC29E47883F69F
:10104D00757764757664757564E57775F0328478B7
:10105D009DF6E57675F032847899F6E57575F03282
:10106D008418F68040C37890E694D018E694075023
:10107D0034788306E69409402CE4F6E577D39400A2
:10108D00500CE57694005006E57594004017C3E5C5
:10109D0077789D96F577C3E576789996F576C3E5DD
:0E10AD00751896F575789006E6187001062203
:100A1800789AE664017030F6F577F576F575788F93
:100A2800F608F67880F67891F67883F6E52575F07D
:100A38003284789DF6E52675F032847899F6E527B4
:100A480075F0328418F622788FE6FE08E6FFC39424
:100A5800D0EE94074003020B32788306E6940250E6
:100A680003020C4AE4F67891E66063146003020C12
:100A78004AE577D39400500CE57694005006E57566
:100A880094004003020C33E47891F6788006E6D3AC
:100A98009405400276067880E6FD75F003A42425C7
:100AA800F8E675F03284789DF6ED75F003A42426F7
:100AB800F8E675F032847899F67880E675F003A444
:100AC8002427F8E675F032847898F6020C4A788084
:100AD800E6FD75F003A42425F8E6FCE577C39C4001
:100AE80023ED75F003A42426F8E6FDE576C39D40C2
:100AF800137880E6FD75F003A42427F8E6FCE57575
:100B0800C39C5017789DE62577F5777899E6257682
:100B1800F57618E62575F575020C4AEDC39406407E
:100B280003020C4A789106020C4ABE0721BFD01E68
:100B3800E47883F67891F6E53775F03284789DF697
:100B4800E53875F032847899F6E539020C0DC378EA
:100B580090E694C418E694094003020BE3788306F0
:100B6800E6941E5003020C4AE4F67891E614604AB3
:100B7800046003020C4A789DE675F032A4F5777894
:100B880099E675F032A4F57618E675F032A4F57595
:100B98007891067894E6FE08E6FF121F2E78957481
:100BA8001126F618E436F6121EEC7C007D1412129B
:100BB80035ED240578A0F6020C4A78A0E6FF789D6A
:100BC800E68FF0A4F5777899E68FF0A4F57618E625
:100BD8008FF0A4F575E47891F68067788FB6092DC3
:100BE80008B6C429E47883F6853777853876853959
:100BF80075E57775F03284789DF6E57675F0328480
:100C08007899F6E57575F0328418F680357883069C
:100C1800E6D39407402CE4F6E577D39400500CE52E
:100C28007694005006E57594004017C3E577789DE3
:100C380096F577C3E576789996F576C3E5751896AF
:0B0C4800F575789006E6187001062292
:10158F00789AE664017034F6853777853876853931
:10159F0075E57775F03284789DF6E57675F03284CF
:1015AF007899F6E57575F0328418F6E4788FF608B9
:1015BF00F67880F67891F67883F622788FE6FE0833
:1015CF00E6FFC394E8EE9403503C788306E6941E3E
:1015DF004050E4F6788006E694074002E4F67880FF
:1015EF00E6FD75F003A42425F8E6F577ED75F00315
:1015FF00A42426F8E6F5767880E675F003A4242770
:10160F00F8E6F575801CBE0308BFE8051222FC80C2
:10161F0011C37890E694B818E6940B50057F011229
:0B162F001A93789006E618700106225E
:10058F00789AE664017033F6F577F576F575E5251B
:10059F0075F03284789DF6E52675F032847899F6F9
:1005AF00E52775F0328418F6E4788FF608F678832D
:1005BF00F67891F67880F60222BF788FE6FC08E68F
:1005CF00FDC394E8EC940350057F010207CABC03F6
:1005DF0016BDE813E47880F685257785267685277E
:1005EF00757883F60207CD788FE6FE08E6FFC39491
:1005FF00B8EE940B5040788306E6943C5003020704
:10060F00CDE4F6788006E694074002E4F67880E6BB
:10061F00FD75F003A42425F8E6F577ED75F003A436
:10062F002426F8E6F5767880E675F003A42427F8FB
:10063F00E6F5750207CDEF64B87003EE640B704CEE
:10064F007889F6F577F576F575E6FF75F003A4244E
:10065F0025F8E675F03284789DF6EF75F003A42443
:10066F0026F8E675F032847899F67889E675F00306
:10067F00A42427F8E675F032847898F6E47891F69A
:10068F007883F6787FF6789BF60207CD788FE6FEB3
:10069F0008E6FFC39494EE941140030207BA787FE3
:1006AF0006E6940550030207CDE4F67891E6146050
:1006BF00580460030207447889E6FD75F003A4240B
:1006CF0025F8E6C313FCE577C39C4026ED75F003D0
:1006DF00A42426F8E6C313FDE576C39D401478895C
:1006EF00E675F003A42427F8E6C313FDE575C39D53
:1006FF00503D789DE62577F5777899E62576F5765E
:10070F0018E62575F5750207CD7889E6FD75F003B6
:10071F00A42425F8E6F577ED75F003A42426F8E672
:10072F00F5767889E675F003A42427F8E6F5757851
:10073F0091060207CDE577D39400500CE57694002F
:10074F005006E57594004019C3E577789D96F577C7
:10075F00C3E576789996F576C3E5751896F57580A5
:10076F005DE47891F6788906E6C394074002E4F6D3
:10077F007889E6FD75F003A42425F8E675F0328438
:10078F00789DF6ED75F003A42426F8E675F0328413
:10079F007899F67889E675F003A42427F8E675F0C2
:1007AF0032847898F6E47891F68013C3EF9494EE40
:1007BF0094117F015005121A93800312142578901B
:0707CF0006E6187001062286
:031DB200017C00B1
:10228E0053A87F121F831222461220141222D51237
:09229E00208912232F43A880229D
:101F83007F107E2775C7AA75C755439780E59620AE
:101F9300E70BEF4E6007EF1F70F31E80F0D3EF9453
:101FA30000EE9400401675C7AA75C755759602755D
:101FB300C7AA75C7555397DF757C012275C7AA75E4
:081FC300C7555396FCE4F57CC0
:011FCB0022F3
:1022460053B5F043B60F53A0F053B11B43B2E4535A
:10225600801B43B54053B6BF53B1FD43B202438022
:082266000243B11053B2EF2254
:10201400758902538EF7E57CD394004008758ABE17
:10202400758CBE8006758A48758C48D2A943881081
:10203400E4F5C875C9A0E57CD39400400875CAF0DE
:0E20440075CBD88006E4F5CA75CB94D2CA22BB
:1022D50043B10853B2F775E80375E121E4F5E275FA
:0522E500F20ED2EE2212
:1020890053B5CF53B6CF43A03075F85043C48053EE
:10209900C4BF53C4F8E57CD39400400875C6FF75E6
:1020A900C5CC800675C6FF75C57043C40843FE01DB
:0720B90043FF01439C0122DB
:0A232F0075C7AA75C75575AAC32229
:101DB50001CF0001D00001CD0001CE00085A01037A
:061DC5000206040C0809EF
:10000E00E562606878D006E6D394144002E4F67890
:10001E00D0E6C3940F503378CEE6FF245AF8E6FEAE
:10002E001392A0EE5402C31324FF92A1745A2FF818
:10003E00E6FF54041313543F24FF92A2EF54081307
:10004E001313541F24FF92A38008C2A0C2A1C2A200
:10005E00C2A378CD0679CDE7D378CF96400EE4785B
:0D006E00CDF60806E6D394074002E4F62222
:1021F000E56464017025F564E5627009C2A0C2A1BE
:10220000C2A2C2A322E478CEF6E56224FE600304F3
:0C221000800578CF76232278CF7650220C
:0B1DCB0003C900000001C80001CC00AB
:10177600E4FF78A8E66401700302180F121F39EF20
:10178600D394FC5006EFC394015006C282E4F57D63
:101796002278C8E6FE7019EFD3948C4008EE7005E7
:1017A600D282757D01EFC394805005C282E4F57D37
:1017B600EFC394015010757D02EE700878C876016B
:1017C60078CC7601C28278C8E66401703C78CCE6B3
:1017D600B40109E4F678C9F608F608F678C906E60B
:1017E600C394324024E4F60806E6943C401BE4F633
:1017F6000806E6943C4012E4F6EF94055004087699
:091806000122E478C8F6757D03A7
:01180F0022B6
:101F3900E4FFF56D79FFFEFDFCD2EE30EFFDAEC397
:101F4900EFD394004014E56D9E50028E6DE9D39E47
:101F59004002A906EE2DFDE43CFC0FBF0BDBE56D4D
:101F690029FFE433FEC3ED9FFDEC9EFCEDAE047842
:091F790003CEC313CE13D8F9FF07
:011F8200223C
:04234300E4F5442257
:03007B00021FCC95
:101FCC00C0E0C0F0C083C082C0D075D000C000C0DB
:101FDC0001C002C003C004C005C006C00730F8052C
:101FEC00C2F812215C30F905C2F9754400D007D053
:101FFC0006D005D004D003D002D001D000D0D0D070
:08200C0082D083D0F0D0E03255
:10215C00AF9AE555700BEF64FD7027755501F5418D
:10216C0022E555B4011CBFFE0475550222E541C39E
:10217C009406400475550322AE41054174BE2EF8F9
:02218C00A607A4
:01218E00222E
:101E9D00E5557003F54222E555B4010F0542E542C3
:101EAD00D394644039E4F542F55522E555B4030B5E
:101EBD007F0678BEE4F608DFFC8020E555640270ED
:101ECD001D754D01FF74BE2FF8E6FE744F2FF8A659
:0E1EDD000674BE2FF8E4F60FBF06EAE4F555D2
:011EEB0022D4
:101B6E00E4F56DE5436062E543640170337FFC127A
:101B7E0023397F4C1223397F411223397F311223AF
:101B8E0039E4F56D7456256DF8E6FF122339056DAF
:101B9E00E56DC3940440ED7FFE1223397543022296
:101BAE00E543640270237FFD122339E4F56D74451D
:101BBE00256DF8E6FF122339056DE56DC3940840D7
:091BCE00ED7FFE122339E4F5431A
:011BD70022EB
:0A233900E54470FC8F9A7544012200
:101DD60001A80001AA00180D640000640000006458
:101DE6000064640000006464006400646464646405
:061DF600010900010CFFD1
:10007E0020A60478A876017F0612000378A1EFF679
:10008E0064AA603E753E01753F07756B0675630188
:10009E00E478A4F608F675563075573075583075F5
:1000AE00593078A2F61876AA78A7F6757E01753DB6
:1000BE0001754001756201756401756A01AF3F02F9
:1000CE001B01E4FF1200038F3EE53E6012D3940342
:1000DE004006E53E940B4007E53ED3940D40067571
:1000EE003E01757E01853E3D7540017F0112000384
:1000FE008F3FE53FD394074006753F07757E01AFEE
:10010E003F121B017F021200038F6BE56BD3940825
:10011E005005E56B30E006756B06757E01756A015C
:10012E00756C017F071200038F63E563D394024061
:10013E0006756301757E018563627564017F031226
:10014E00000378A2A6077F0412000378A4A6077FF7
:10015E000512000378A5A60778A2E6FF700678A719
:10016E0076558008EFB4550978A776AA757E01807A
:10017E0019EFB4AA15E478A4F608F678A7F678A2D3
:10018E00F6757E01753DFD75400178A412226E8FC5
:10019E005678A4E6540FFF1222738F5778A51222B9
:0F01AE006E8F5878A5E6540FFF1222738F5922D7
:10230E001214DC121BD812221C1221C21222A70296
:02231E0002803B
:1014DC0078A8E6B40116D282E478D1F678AA06E6AA
:1014EC00D394FA4007E4F6C28278A8F678D1E6FFE6
:1014FC00700302158EEF6401707178AB760178B0D1
:10150C00760178D1F6754001E53D701F853E3D852D
:10151C006362756401E53F6005D394074006753F2F
:10152C0007757E01AF3F121B01803BE53DD3940A4A
:10153C00401C053E853E3DE53ED3940D4025E4F52B
:10154C003DF562756401753E01753F018015753E70
:10155C0001053FE53FD394074006753F01753E0BEF
:10156C00853E3D757E01AF3F021B0178D1E6B4028A
:10157C0011E4F6E53D600BE4F53D754001F562754F
:03158C00640122D5
:101BD800E57D6003B4010AE478AEF608F678ABF662
:101BE80022E57D6402703878ABE66401702678B02F
:101BF800E6B40107E4F678AEF608F678AE06E6C372
:101C08009432401BE4F60806E694144012E4F67891
:101C1800ABF6800BE4F53D754001F562756401E5AE
:101C28007DB40314E4F57DE56CB4010C853E3D7587
:091C38004001856362756401221C
:1021C20078A2E6601478A606E6C394FA400BE4F619
:1021D20078A2F678A7F6757E0178B1E6600C05085C
:0D21E200E508C394FA4006E4F622E4F5088F
:0121EF0022CD
:1022A70078B2E6B4010E0509E509D394964008E42F
:0722B700F509F622E4F50928
:0122BE0022FD
:10221C00E5656025E565B4010EE4F565853E3D7523
:10222C004001856362800FE565B4020DE4F565F548
:0A223C003D754001F5627564012252
:10028000E4F56DF56E78A3E6601178A906E6C394EF
:10029000194008E4F6750CFF78A3F6E54D700302EB
:1002A000058EE4F54D78A3760178A9F678B7760146
:1002B000E50B702A050AE50AC394964021750B01E7
:1002C00075430175450175464C7547417548318543
:1002D0006249853F4A78A4E6F54B08E6F54CE54FC0
:1002E000B4F005754301805AE54F540FFF64076071
:1002F00013E55378A466600302058EE55408666032
:100300000302058EE54F640F600FE54FC4540FFEE6
:10031000650C700302058E8E0CEF12126B033F0109
:10032000033F02035703039B0403B105042C070595
:100330001A0803CF0A054C0D04000F0000058E7546
:10034000430275450175464C7547417548318562D4
:1003500049853F4A020564E550D394034008E550BF
:10036000F4600302058EE551D39407400302058E25
:1003700085503D754001E53D04600814700FE4F5BB
:10038000628006853E3D8563627564012285513F2A
:10039000AF3F121B01853D3E0204FD855063E563BE
:1003A000D39402400375630285636275640102049D
:1003B000FDE551D39408400302058EE55130E0037A
:1003C00002058E85516B756A01757E0102051FE578
:1003D00050D39403400302058EE550700302058E4E
:1003E000E551D39408400302058EE550240AF53DFB
:1003F000F53E754001753F07AF3F121B010204FD3A
:10040000E550D3940A500302058EE53D70030205C2
:100410008E6550700302058E85503D85503E7540B7
:1004200001757E01753F077F07021B0178B1E66405
:10043000016003020501F6E550655165526553659B
:10044000546020753DFF7540017543027545087580
:100450004604E4F547F54878ACE6F54908E6F54A80
:100460000205647B007A007950121E4D8E6D8F6EEE
:1004700078ACE6FDFE08E6FC7A002400FFEA3EFECA
:10048000EF656E7003EE656D601B753DFF75400195
:10049000754302754508754604E4F547F5488D49EE
:1004A0008C4A02056478AC12226E8F5678ACE65402
:1004B0000FFF1222738F5778AD12226E8F5878ADCE
:1004C000E6540FFF1222738F597543017545087565
:1004D0004603E4F547F54878ACE6FFF54908E6FE43
:1004E000F54A78A4E6F54B08E6F54C18A60708A6E9
:1004F00006E478ACF608F6753DFD754001757E01A1
:1005000022754302754508754604E4F547F54878B9
:10051000ACE6F54908E6F54A804AE550B4010775AE
:100520003DFB75400122E5506402706278B17601AE
:1005300078ACA65108A652754302854F4575460210
:10054000F547F54885514985524A8018E550701E97
:1005500075430275450D75464C754741754831F533
:1005600049856B4A78A4E6F54B08E6F54C22E55040
:10057000B4011B75430275450D857C46E4F547754E
:0E0580004819754910754A18754B57754C434C
:01058E00224A
:061E4D008B6F8A708971A1
:101E5300E4F572F573FDAB6FAA70A9718D8275837A
:101E6300001211B3FEEE6272E4FCE57230E713E593
:101E73007325E0FFE572336410F572EF6421F573A7
:101E8300800BE57325E0F573E57233F5720CBC083E
:091E9300D90DBD04C1AE72AF739C
:011E9C002223
:101B0100E4FEE53DD3940A4042E4EE75F003A424DB
:101B110010F8E6FDEE75F003A42425F8A605EE7590
:101B2100F003A42411F8E6FDEE75F003A42426F8D1
:101B3100A605EE75F003A42412F8E6FDEE75F00398
:101B4100A42427F8A6050EBE07C022EF75F003A452
:101B5100240DF8E6F525EF75F003A4240EF8E6F55B
:0C1B610026EF75F003A4240FF8E6F5272A
:011B6D002255
:05226E00E6C4540FFF5F
:10227300EFD3940F400353070FEFC3940A5005EFB6
:0B2283002430FF2274F62F2441FF22BC
:1010BB00E57E70030211B2E4F57E53A87F75C7AAD3
:1010CB0075C755439F0175C7AA75C75543A50175CC
:1010DB00AF2275A702F5A675AEFF75C7AA75C755E2
:1010EB0043A40175AF2175A702F5A6853EAE75C762
:1010FB00AA75C75543A40175AF2175A70275A60143
:10110B00853FAE75C7AA75C75543A40175AF217549
:10111B00A70275A602856BAE75C7AA75C75543A402
:10112B000175AF2175A70275A60378A7E6F5AE7515
:10113B00C7AA75C75543A40175AF2175A70275A63C
:10114B000478A4E6F5AE75C7AA75C75543A4017517
:10115B00AF2175A70275A60578A5E6F5AE75C7AAEA
:10116B0075C75543A40175AF2175A70275A60678FF
:10117B00A1E6F5AE75C7AA75C75543A40175AF2196
:10118B0075A70275A6078563AE75C7AA75C75543C4
:10119B00A40175C7AA75C75553A5FE75C7AA75C710
:0811AB0055539FFE43A880226A
:07000300EF90020093FF22C1
:10218F000574E574C3947D4003E4F574E574C39559
:10219F00775004D2878002C287E574C395755004C7
:1021AF00D2858002C285E574C395765003D286220C
:0221BF00C286D6
:0121C10022FB
:101A2300E56B606BE56AB4010BE4F56AF566F5678F
:101A3300F568F5690566E566C394324024E4F56606
:101A43000567E567943C4019E4F5670568E5689424
:101A53003C400EE4F5680569E56994184003E4F534
:101A630069E5667013E567700FE568700BE56970EB
:101A730007756501756C0122E5667013E567700FE4
:101A8300E568700BE569B56B06756502E4F56C22D4
:1019AD0030841AE478B9F608F678B306E6C39432B3
:1019BD00402DE4F60806E6940A40248018E478B336
:1019CD00F608F678B906E6C394324013E4F6080635
:1019DD00E6940A400AE4F678B8760378B67601788C
:1019ED00B7E6B40109E4F678BBF608F608F678BB5D
:1019FD0006E6C39432401CE4F60806E6943C401318
:101A0D00E4F60806E6943C400AE4F678B8760378E6
:061A1D00B6760102193447
:1019340078B8E624FE602E1460432402706A78B6F8
:10194400E6B40106E4F618F6D28178B506E6D39437
:10195400054055E4F678B8F653B5CF53B6CF43A057
:101964003075F85022E478B6F618F6C28178B8F6E5
:10197400F5F853B5CF43B630C2A5C2A42278B6E673
:10198400B40112E4F618F6C281F5F853B5CF43B6A4
:1019940030C2A5C2A478B506E6D39405400AE4F69D
:0919A40078B8760178B6760122CC
:1018B400022052E493A3F8E493A34003F68001F2D8
:1018C40008DFF48029E493A3F85407240CC8C33335
:1018D400C4540F4420C8834004F456800146F6DF04
:1018E400E4800B0102040810204080901DA9E47ECE
:1018F400019360BCA3FF543F30E509541FFEE493F9
:10190400A360010ECF54C025E060A840B8E493A3BF
:10191400FAE493A3F8E493A3C8C582C8CAC583CAEA
:10192400F0A3C8C582C8CAC583CADFE9DEE780BEA2
:011DFC0000E6
:1011B300BB010CE58229F582E5833AF583E02250F1
:1011C30006E92582F8E622BBFE06E92582F8E2223B
:0D11D300E58229F582E5833AF583E4932255
:1011E000BC000BBE0029EF8DF084FFADF022E4CCF3
:1011F000F875F008EF2FFFEE33FEEC33FCEE9DECBC
:10120000984005FCEE9DFE0FD5F0E9E4CEFD22ED01
:10121000F8F5F0EE8420D21CFEADF075F008EF2F4B
:10122000FFED33FD4007985006D5F0F222C398FD3C
:051230000FD5F0EA22D9
:10123500C2D5EC30E709B2D5E4C39DFDE49CFCEED4
:1012450030E715B2D5E4C39FFFE49EFE1211E0C35B
:10125500E49DFDE49CFC80031211E030D507C3E456
:061265009FFFE49EFE2243
:10126B00D083D082F8E4937012740193700DA3A312
:10127B0093F8740193F5828883E473740293686026
:06128B00EFA3A3A380DF26
:101EEC00AC78AD79AE7AAF7B7810EC4D4E4F700478
:101EFC007CA57DA5C3EC13FCED13FDEE13FEEF13D7
:101F0C00FF5010EC64CCFCED644CFDEE644EFEEF27
:101F1C0064CEFFD8DF8C788D798E7A8F7BEE547FF0
:0D1F2C00FE228E788F7974A5F57AF57B2260
:00000001FF
