:020000040800F2
:10000000300E002001010008090100080B01000862
:100010000D0100080F010008110100080000000098
:1000200000000000000000000000000013010008B4
:100030001501000800000000170100081901000860
:100040001B0100081B0100081B0100081B01000820
:100050001B0100081B0100081B0100081B01000810
:100060001B0100081B0100081B0100081B01000800
:100070001B0100081B0100081B0100081B010008F0
:100080001B0100081B0100081B0100081B010008E0
:100090001B0100081B0100081B0100081B010008D0
:1000A0001B0100081B0100081B0100081B010008C0
:1000B0001B0100081B0100081B0100081B010008B0
:1000C0001B0100081B0100081B0100081B010008A0
:1000D0001B0100081B0100081B0100081B01000890
:1000E0001B0100081B0100081B010008DFF80CD0F1
:1000F00000F02AF80048004795450108300E00201E
:100100000648804706480047FEE7FEE7FEE7FEE7B1
:10011000FEE7FEE7FEE7FEE7FEE7FEE71144010823
:10012000ED0000080649074A0868504343F23902C7
:10013000104408604008704701490860704700009B
:10014000780000206D4EC641064C074D06E0E06881
:1001500040F0010394E8070098471034AC42F6D30E
:10016000FFF7C8FFC4450108E445010830B5002386
:10017000474D03EB430428552C446170A2705B1C6F
:10018000DBB21E2BF5D30023424D03EB430428556D
:100190002C446170A2705B1CDBB2282BF5D30023CA
:1001A0003D4D03EB430428552C446170A2705B1C49
:1001B000DBB2182BF5D30023384D03EB430428554D
:1001C0002C446170A2705B1CDBB20A2BF5D30023B8
:1001D000334D03EB430428552C446170A2705B1C23
:1001E000DBB21E2BF5D300232E4D03EB4304285521
:1001F0002C446170A2705B1CDBB2182BF5D300237A
:10020000294D03EB430428552C446170A2705B1CFC
:10021000DBB2242BF5D30023244D03EB43042C4401
:10022000A071E17122725B1CDBB2152BF5D30023A8
:1002300003EB43042C4404F8450F6170A2705B1C6F
:10024000DBB21B2BF4D3002303EB43042C4404F850
:10025000960F6170A2705B1CDBB2042BF4D30023F9
:1002600003EB43042C4404F8A20F6170A2705B1CE2
:10027000DBB21E2BF4D3002303EB43042C4404F81D
:10028000FC0F6170A2705B1CDBB2032BF4D330BD9A
:100290007C000020D60000204E010020CD0600206A
:1002A00096010020F001002038020020A402002066
:1002B0000548C178012906D10021C17000221146EC
:1002C0001046FFF753BF70473500002010B500F00F
:1002D00099FB4FF48034204600F0DEFB00F026FC52
:1002E000012801D000F08EFB4FF48011204600F071
:1002F00009FC012000F000FC022000F00DFC0020B1
:1003000000F0C0FB002000F0EDFB4FF4806000F037
:10031000DFFBBDE8104000F0ADBB00002DE9F00FA1
:100320000020DFF8C4C1714E9CF800A0BAF1000FA4
:1003300047D03546DFF8B891012700210324FA237E
:100340006C4A2D784FF00C08BAF1050F39D2DFE86E
:100350000AF0AB03396EA600022D15D002253570C8
:1003600089F80080B0FBF4F504FB150575B1B0FB0E
:10037000F4F504FB1505012D0FD0B0FBF4F504FBDB
:100380001505022D10D015E0317017E000EB400587
:10039000535515446970A9700CE000EB40055155A8
:1003A00015446B70A97005E000EB400553551544EA
:1003B0006B70AB70401CC0B21028D3D3F7708CF8B0
:1003C000001071E0032D14D0347089F80080B0FB68
:1003D000F4F504FB150575B1B0FBF4F504FB150548
:1003E000012D0FD0B0FBF4F504FB1505022D10D044
:1003F00015E0317017E000EB400553551544697066
:10040000A9700CE000EB4005515515446B70A970C4
:1004100005E000EB4005535515446B70AB70401C74
:10042000C0B21028D3D3F7708CF800103CE0012D37
:1004300014D0377089F80080B0FBF4F504FB150583
:1004400075B1B0FBF4F504FB1505012D0FD0B0FB21
:10045000F4F504FB1505022D10D018E031701AE0F8
:1004600000EB4005535515446970A9700FE000EB8F
:100470004005515515446970AB7008E000EB40052C
:100480004FF0960802F8058015446B70AB70401C65
:10049000C0B21028D0D3F7708CF8001004E004200C
:1004A0003070F7708CF800103078052818D2DFE82B
:1004B00000F003070B0F1300BDE8F00FFFF7F8BEC5
:1004C000BDE8F00F00F0EABDBDE8F00F04F016B88B
:1004D000BDE8F00F0CF04EB8BDE8F00F00F038BAF0
:1004E000BDE8F00F7047000001000020350000203B
:1004F00004000020EB0600202DE9F0410022CC781A
:1005000004F00F03E40601D58C7823430C784FF0F8
:100510000F0714F0FF0F4FF0010C1CD005680CFA08
:1005200002F40E882640A64211D1960007FA06F87A
:1005300025EA080503FA06F848EA0505CE78282ECC
:1005400002D0482E02D002E0446100E00461521C57
:10055000082AE4D305600A88FF2A1ED945680022CC
:1005600002F108060CFA06F40E882640A64210D1C5
:10057000960007FA06F825EA080503FA06F848EA9D
:100580000505CE78282E00D14461CE78482E00D1C2
:100590000461521C082AE3D34560BDE8F0810000E5
:1005A00038B501211C2000F01FFA3820ADF80000FA
:1005B00048248DF80340154D69462846FFF79CFFF7
:1005C000A915ADF800108DF8034003248DF8024002
:1005D00069462846FFF790FF6814ADF8000014251F
:1005E0008DF803508DF8024069460948FFF784FFF3
:1005F0004FF47040ADF800008DF803508DF80240C4
:1006000069460448FFF778FF38BD00000008014044
:1006100000100140000C01400246002092680A428E
:1006200000D00120704701617047704710B54FF44A
:1006300080711048FFF7F0FF0F49012228B10878B8
:10064000031F042B06D24A7010E00878401C087083
:100650008A7010BDA0F10802052A02D2022048705B
:1006600004E00D38052801D20320487000200870EE
:10067000887010BD00080140000000202DE9F84FEF
:10068000002700F06BFAA54CA54D4FF4807620783A
:1006900068B9ADF8006014208DF8030003208DF8D0
:1006A00002009F4869461438FFF726FF2E60DFF8E6
:1006B00074C2DFF874824FF4004908F104011CF899
:1006C000013B002218060ED4C8F8009000BF00BFFE
:1006D00000BF00BF00BFC1F800900020401CC0B2A6
:1006E0000328FBD308E0C8F800900020401CC0B2EB
:1006F0000628FBD3C1F800900320401EC0B2FCD2F4
:100700005806030E521CD2B2082ADBD37F1CBFB29C
:10071000A82FD4D3DFF814C200274FF480491CF867
:10072000013B002218060ED4C8F8009000BF00BF9D
:1007300000BF00BF00BFC1F800900020401CC0B245
:100740000328FBD308E0C8F800900020401CC0B28A
:100750000628FBD3C1F800900320401EC0B2FCD293
:100760005806030E521CD2B2082ADBD37F1CBFB23C
:100770009C2FD4D3DFF8B4C10CF19C0C00274FF4AC
:1007800000591CF8013B002218060ED4C8F800904E
:1007900000BF00BF00BF00BF00BFC1F80090002035
:1007A000401CC0B20328FBD308E0C8F8009000202A
:1007B000401CC0B20628FBD3C1F800900320401EA5
:1007C000C0B2FCD25806030E521CD2B2082ADBD3A8
:1007D0007F1CBFB2BD2FD4D394F800B0BBF1000F83
:1007E00031D1DFF840C10CF1A80C0027DFF830A1AF
:1007F000AAF1040A1CF8013B002218060DD4CAF81D
:10080000006000BF00BF00BF00BF00BF2E6000201F
:10081000401CC0B20328FBD307E0CAF800600020E8
:10082000401CC0B20628FBD32E600320401EC0B27D
:10083000FCD25806030E521CD2B2082ADDD37F1C0C
:10084000BFB2962FD6D33A4D00244FF4805715F8F7
:10085000013B002218060DD4C8F8007000BF00BF8D
:1008600000BF00BF00BF0F600020401CC0B20328C3
:10087000FBD307E0C8F800700020401CC0B2062877
:10088000FBD30F600320401EC0B2FCD25806030EFB
:10089000521CD2B2082ADDD3641CA4B2692CD6D370
:1008A000234C6F340023234D14F8012B0021100634
:1008B0000ED4C5F8109000BF00BF00BF00BF00BF3E
:1008C000C5F814900020401CC0B20328FBD308E0F8
:1008D000C5F810900020401CC0B20628FBD3C5F814
:1008E00014900320401EC0B2FCD25006020E491CD8
:1008F000C9B20829DBD35B1C9BB21E2BD4D3BBF13E
:10090000000F09D1ADF8006048208DF803000448BD
:1009100069461438FFF7F0FDBDE8F88F02000020AB
:100920001408014002050020100C0140A90300201A
:10093000400600200010014010B5FFF7C7FCFFF78C
:100940002FFE13F0A3FDBDE81040FFF76EBE0000C0
:1009500070B51C4E0025A6F13104F078012811D0A5
:10096000607E401CC0B260761E280AD36576207F68
:10097000B0B101281DD0002211461046FFF7F6FB4A
:10098000357070BDF5706576257700221146FF2021
:10099000FFF7ECFBBDE8704040210B48FFF743BE7A
:1009A0000022FF211046FFF7E1FB207F401C20774B
:1009B00070BD0021FF220846FFF7D8FB207F401CB6
:1009C000207770BD3500002000080140054A00294D
:1009D00003D0D1690143D1617047D1698143D161AD
:1009E0007047000000100240054A002903D09169B9
:1009F00001439161704791698143916170470000A3
:100A0000001002400C48016841F00101016041689A
:100A10000A4A114041600168094A114001600168B9
:100A200021F480210160416821F4FE0141604FF40E
:100A30001F01816070470000001002400000FFF8B5
:100A4000FFFFF6FE034600205909094A01290AD092
:100A500002290AD0516A03F01F02012393400B427E
:100A600000D0012070471168F5E7116AF3E7000034
:100A7000001002400248406800F00C00704700007F
:100A800000100240034A516821F0F0010143516017
:100A900070470000001002400C490A6822F48032BE
:100AA0000A600A6822F480220A60B0F5803F07D00D
:100AB000B0F5802F03D1086840F4A020086070478B
:100AC000086840F480300860704700000010024061
:100AD000034A516821F4E06101435160704700000E
:100AE00000100240034A516821F4605141EAC000FD
:100AF00050607047001002400149086670470000CE
:100B000000004242034B5A6822F47C12084310430F
:100B10005860704700100240034A516821F00301F9
:100B200001435160704700000010024018B50020DA
:100B300000904FF4A0643120FFF784FF0099491C16
:100B400000910099A14201D00028F4D03120FFF794
:100B500079FF08B1012018BD002018BD2DE9F04330
:100B60000020FE4C032204F2132900EB40010B1974
:100B70005D78B5FBF2F509F80150655C4944B5FBB9
:100B8000F2F54D709B78B3FBF2F38B70401CC0B252
:100B90001E28EAD31E20DFF8C883C0F1270101EB2D
:100BA000410118F80130B3FBF2F400EB400309F8FF
:100BB000034041444B444C78B4FBF2F45C708978B8
:100BC000B1FBF2F19970401CC0B22828E5D328206F
:100BD000DFF88CC30CF15A0CA0F1280101EB4101A4
:100BE0001CF80130B3FBF2F400EB400309F80340BA
:100BF00061444B444C78B4FBF2F45C708978B1FBEF
:100C0000F2F19970401CC0B23428E5D30020D34ED5
:100C10005A3606F25527C0F1170101EB41039C1922
:100C20006178B1FBF2F500EB40017D54F35C39448F
:100C3000B3FBF2F34B70A378B3FBF2F38B70401C61
:100C4000C0B21828E7D31820A0F10E0101EB410330
:100C500018F80310B1FBF2F400EB40017C5443445C
:100C600039445C78B4FBF2F44C709B78B3FBF2F33C
:100C70008B70401CC0B21F28E6D31F20C0F1340186
:100C800001EB41031CF80310B1FBF2F400EB40014F
:100C90007C54634439445C78B4FBF2F44C709B7828
:100CA000B3FBF2F38B70401CC0B22928E6D3292095
:100CB000AA4D483DA0F1290101EB4103E95CB1FBDC
:100CC000F2F400EB40017C542B4439445C78B4FBD3
:100CD000F2F44C709B78B3FBF2F38B70401CC0B203
:100CE0003828E7D33820C0F13E0101EB41031CF85E
:100CF0000310B1FBF2F400EB40017C54634439442F
:100D00005C78B4FBF2F44C709B78B3FBF2F38B701D
:100D1000401CC0B23F28E6D30020904EA23606F217
:100D2000CA27C0F1230101EB41039C196178B1FB93
:100D3000F2F500EB40017D54F35C3944B3FBF2F370
:100D40004B70A378B3FBF2F38B70401CC0B2242825
:100D5000E7D32420A0F1130101EB410318F803109D
:100D6000B1FBF2F400EB40017C54434439445C781D
:100D7000B4FBF2F44C709B78B3FBF2F38B70401C25
:100D8000C0B22E28E6D32E20C0F14D0101EB410365
:100D90001CF80310B1FBF2F400EB40017C546344F7
:100DA00039445C78B4FBF2F44C709B78B3FBF2F3FB
:100DB0008B70401CC0B23828E6D30020694DA5F2E4
:100DC0000634082868D0112866D01A2864D000EBB1
:100DD00040010B1913F8456FB6FBF2F66E545E78BE
:100DE0002944B6FBF2F64E709B78B3FBF2F38B709E
:100DF000401CC0B21B28E4D31B20A0F11B0101EB57
:100E00004101214411F8963FB3FBF2F3C3F1FF0611
:100E100000EB4003EE544E782B44B6FBF2F6C6F1DD
:100E2000FF065E708978B1FBF2F1C1F1FF019970A4
:100E3000401CC0B21D28E0D31D20A0F11D0101EB14
:100E4000410121448B795E0800EB4003EE54CE79DA
:100E50002B44B6FBF2F65E70097AB1FBF2F19970A1
:100E6000401CC0B23228E8D3002014F89C6F3D49E2
:100E70006378A778FF259C3C963106B3FBB1F7B1A8
:100E80000D704D708D70CD70B3FBF2FCCCF1FF0C8A
:100E900081F804C04D7127E000EB40010B1913F8F5
:100EA000456FB6FBF2F676006E545E782944B6FBC9
:100EB000F2F64E709B78B3FBF2F38B7098E7B6FBBB
:100EC000F2FCCCF1FF0C81F800C0B3FBF2FCCCF1DA
:100ED000FF0C81F801C0B7FBF2FCCCF1FF0C81F8EC
:100EE00002C0CD700D714D71401CC0B20228C4D338
:100EF000022000EB40031D1915F8966FB6FBF2F6C1
:100F0000C6F1FF06CE546E780B44B6FBF2F6C6F17E
:100F1000FF065E70AD78B5FBF2F5C5F1FF059D707B
:100F2000401CC0B20428E4D30420031F03EB430396
:100F3000234413F8A25FB5FBF2F600EB40054E55D3
:100F40005E780D44B6FBF2F66E709B78B3FBF2F35D
:100F5000AB70401CC0B22228E7D305E09601002008
:100F60007C000020AA0500202220A0F1220303EB30
:100F70004303234413F8FC5FB5FBF2F5C5F1FF060C
:100F800000EB40054E555E780D44B6FBF2F6C6F117
:100F9000FF066E709B78B3FBF2F3C3F1FF03AB70F7
:100FA000401CC0B22528E0D30E4B99F80100187000
:100FB00099F80000587099F802009870012000EB31
:100FC000400119F801205A5401EB090219445478E0
:100FD0004C7092788A70401CC0B20A28EFD3BDE8EA
:100FE000F0830000AF060020AFF300800CB50022B4
:100FF000019200922748016841F4803101604FF46A
:10100000A063016801F4003100910199491C01912C
:10101000009911B901999942F3D10168890302D568
:101020000121009100E000920099012930D11A4974
:101030000A6842F010020A600A6822F003020A609D
:101040000A6842F002020A604168416041684160FA
:10105000416841F480614160416821F47C11416044
:10106000416841F4E8114160016841F0807101601C
:1010700001688901FCD5416821F0030141604168A4
:1010800041F0020141604168C1F381010229FAD1B6
:101090000CBD0000001002400020024030B4264C7D
:1010A0000023A4F13102E07801281AD0108C401CF2
:1010B00080B21084012101281CD0B0F5E67F1CD03D
:1010C000A0F51065CE3D08D0A0F55065113D17D0B4
:1010D000A0F570650A3D17D018E002209076D17611
:1010E00014E0E37013849376002230BC114610465E
:1010F000FFF73CB89376D17608E09176D17605E09B
:1011000003209076D17601E01384E170907E40B1A7
:10111000012809D002280AD003280BD130BC02F0E4
:1011200097BE30BC00F00AB830BC00F077B830BCD5
:1011300001F0DEBE30BC7047350000202DE9F041E3
:10114000344C0025E07E012806D0607E022811D2B2
:10115000401C6076BDE8F081E5760022114610461D
:10116000FFF704F865766574A574E57465702574F9
:101170002577EFE765762748277F4178427C837C97
:10118000C67C491C007CC9B217B1012F3AD124E0BA
:10119000DFF884C000EB40004FF019081CF8007025
:1011A000B7FBF8F7277584449CF80100B0FBF8F012
:1011B00060759CF802C0BCFBF8FC84F816C03A4489
:1011C00062741844A07406EB0C00E0746170192975
:1011D00018D365700120207714E0277DD21B62743C
:1011E000627D9A1AA274A27DB21AE2746170192902
:1011F00008D365702577401CC0B22074022801D93D
:1012000002202077E27CA17C607CBDE8F041FEF703
:10121000ADBF000004000020EB0600202DE9F04FD8
:10122000A1B0FE48C07E012844D0FC48FC4C417E61
:10123000C678491C01F0FF0A711C90F81CB0C9B2B5
:10124000209190F8069009F10101C9B21F9190F820
:10125000058008F10101C9B21E9190F804C00CF19B
:101260000101C9B21D91C779791CC9B21C91057AD7
:10127000691CC9B21B91437A591CC9B21A910BF16E
:101280000101C9B21991017C4A1CD2B218920278AC
:1012900001EB41010819BBF1090F81F01286DFE86B
:1012A0001BF06900570384067509840675098406D6
:1012B0007509650CD94C0025E576002211461046CB
:1012C000FEF754FF657625776570D5493031607833
:1012D0000D54401CC0B260701E28F8D36570D04910
:1012E0008E3160780D54401CC0B260700A28F8D36B
:1012F0006570CB49763160780D54401CC0B2607087
:101300001828F8D36570C6494E3160780D54401CDA
:10131000C0B260702828F8D36570C14998316078F0
:101320000D54401CC0B260701E28F8D36570BC49D3
:10133000B63160780D54401CC0B260701828F8D3E4
:101340006570B749CE3160780D54401CC0B26070F2
:101350002428F8D3A5716571E570E5712572657271
:101360002571A572E5722573A5736573257621B085
:10137000BDE8F08FDFF8A48288F819A0BAF1050F54
:10138000F5D3002788F8197001251E2E33D2DFF817
:1013900090921E2609F13009B8F81E00FEF7CCFE27
:1013A000B8F81E001D30A8F81E00FEF7BBFEC0B244
:1013B000B0FBF6F106FB110088F8020019F80000F6
:1013C0000128E9D098F8020009F80050810888F84F
:1013D000101001EB4101934B00EB4000665C1E5482
:1013E000214418444E7846708978817098F803003B
:1013F000401C88F8030098F806004FF00A0B0A28F2
:1014000033D2DFF81C925E4609F18E09B8F81E004F
:10141000FEF792FEB8F81E001D30A8F81E00FEF779
:1014200081FEC0B2B0FBF6F106FB110088F80200A5
:1014300019F800000128E9D098F8020009F80050D6
:10144000810888F8101001EB4101774E00EB400055
:10145000635C3354214430444B7843708978817005
:1014600098F80600401C88F8060098F805004FF030
:101470001809182830D26A4E7636B8F81E00FEF7E2
:101480005BFEB8F81E001D30A8F81E00FEF74AFEED
:10149000C0B2B0FBF9F109FB110088F80200305C22
:1014A0000128EAD098F802003554810888F8101015
:1014B00001EB4102DFF874C100EB4001A65C0CF8BF
:1014C00001601019614442784A708078887098F8F9
:1014D0000500401C88F8050098F80400282830D240
:1014E0004F4E4FF0280A4E36B8F81E00FEF724FE85
:1014F000B8F81E001D30A8F81E00FEF713FEC0B29B
:10150000B0FBFAF10AFB110088F80200305C0128F8
:10151000EAD098F802003554810888F8101001EBE1
:101520004101434E00EB4000635C3354214430449E
:101530004B7843708978817098F80400401C88F8D3
:10154000040098F807001E2830D2354E4FF01E0ACE
:101550009836B8F81E00FEF7EFFDB8F81E001D30F3
:10156000A8F81E00FEF7DEFDC0B2B0FBFAF10AFBE0
:10157000110088F80200305C0128EAD098F80200D7
:101580003554810888F8101001EB4101294E00EB19
:101590004002635CB3540819911943784B7080780A
:1015A000887098F80700401C88F8070098F8080031
:1015B00018282ED21A4EB636B8F81E00FEF7BCFD1B
:1015C000B8F81E001D30A8F81E00FEF7ABFDC0B233
:1015D000B0FBF9F109FB110088F80200305C01282A
:1015E000EAD098F802003554810888F8101001EB11
:1015F0004102114E00EB4001A35C735410193144B9
:1016000042784A708078887098F80800401C88F802
:10161000080098F80900242840D20FE004000020B8
:10162000EB0600207C000020CD0600204E010020AB
:10163000D600002096010020F0010020FE4E4FF061
:10164000240AB8F81E00FEF777FDB8F81E001D301A
:10165000A8F81E00FEF766FDC0B2B0FBFAF10AFB67
:10166000110088F80200305C0128EAD098F80200E6
:101670003554810888F8101001EB4101EF4E00EB62
:101680004000635C3354214430444B784370897884
:10169000817098F80900401C88F8090098F80A0041
:1016A0004FF0080A4FF00C0C4FF0040E0C287CD2BF
:1016B000401CC0B288F80A00E14E0D2847D2DFE88E
:1016C00000F046070C13181B22292E31383F440026
:1016D000377075700221B17039E00321317086F8DE
:1016E00001E00521B17032E00621317007217170EF
:1016F0002DE086F802A02AE00921317086F801B0B9
:101700000B21B17023E086F800C00D2171700E210D
:10171000B1701CE00F2131701021717017E01121A0
:10172000B17014E012213170132171701421B17065
:101730000DE015213170162171701721B17006E08E
:1017400086F800901921717001E01A21B170401ED5
:10175000C21700EB9270C0F3870088F8100000EB0E
:101760004002A05C88F811002244517888F81210D9
:10177000927888F813203378DFF8C89203EB43039C
:101780004B4403F8450F59709A70737803EB430389
:101790004B4403F8450F59709A70B37803EB430339
:1017A0004B4403F8450F59709A7098F80B000728BE
:1017B0005AD2401CC1B288F80B10A148C01C08299D
:1017C00033D2DFE801F032040A10171E252C07700F
:1017D000072141700E21817027E0057080F801A07B
:1017E0000F21817021E00221017009214170102137
:1017F00081701AE00321017080F801B0112181701D
:1018000013E080F800E00B214170122181700CE0A0
:101810000521017080F801C01321817005E00621C7
:1018200001700D214170142181700178854A01EB0E
:1018300041011144637A8B71A37ACB71E37A0B7205
:101840004178237B01EB410111448B71637BCB71A8
:10185000A37B0B728078E17B00EB40001044817128
:10186000217CC171617C017298F80C20062A21D27A
:1018700088F8017002EB4200DFF8C8A1235C204425
:1018800002EB8209467890F802C098F8010009EB53
:10189000000101EB4101514401F8A23F4E7081F873
:1018A00002C0401CC0B288F801000528EDD3521CCC
:1018B00088F80C2098F80E0003280ED2614A00EB3D
:1018C00040010A44635C02F8FC3F21444B785370AA
:1018D00089789170401C88F80E0088F80170227891
:1018E0006378A478574E98F8010000EB400131442A
:1018F00001F8962F4B708C70401CC0B288F8010024
:101900000428F0D398F804002828FFF430AD98F8A4
:101910001C00401C88F81C004948801D05700221ED
:10192000417003218170C01C80F800E005214170E6
:10193000062181700A300170C01F80F800E088F82D
:101940000F5088F80A7088F80B7088F80C700EE554
:10195000DFF8EC90A9F1220989F819A0BAF10A0F71
:10196000F5D34FF0000E89F819E0374F97F81BC0F8
:1019700089F811C097F81C8089F8128097F81DA08B
:1019800089F813A0092089F8020099F80200431E83
:1019900003EB430500EB40017E5D7E54E8193944BA
:1019A00045784D7080788870D8B289F80200002898
:1019B000EBD187F800C087F8018087F802A0234E9A
:1019C00096F8457089F8117096F846C089F812C0EB
:1019D00096F8478089F81380172089F8020099F853
:1019E0000200431E03EB430500EB400116F805A07F
:1019F00006F801A0A819314445784D7080788870A8
:101A0000D8B289F802000028E9D1377086F801C001
:101A100086F802800E4991F8577089F8117091F894
:101A200058C089F812C091F8598089F813804FF096
:101A30001D0B89F802B00DE0B90700203802002024
:101A400026000020A4020020CD0600204E01002028
:101A50007C00002099F80200431E03EB430500EBD5
:101A600040004E5D0E540D4408446E784670AD78CB
:101A70008570D8B289F802000028DCD10F7081F897
:101A800001C081F80280FE4D95F8576089F8116019
:101A900095F8587089F8127095F859C089F813C0F4
:101AA00089F802B099F80200431E03EB430800EBEB
:101AB000400115F808A005F801A008EB050029442D
:101AC00090F8018081F8018080788870D8B289F818
:101AD00002000028E6D12E706F7085F802C0E94E32
:101AE00096F8457089F8117096F846C089F812C0CA
:101AF00096F8478089F81380172089F8020099F832
:101B00000200431E03EB430500EB400116F805A05D
:101B100006F801A0A819314445784D708078887086
:101B2000D8B289F802000028E9D1377086F801C0E0
:101B300086F80280D44E96F8697089F8117096F88C
:101B40006AC089F812C096F86B8089F81380232048
:101B500089F8020099F80200431E03EB430500EBED
:101B6000400116F805A006F801A0A81931444578EF
:101B70004D7080788870D8B289F802000028E9D1C9
:101B8000377086F801C086F80280C04E96F87570EE
:101B900089F8117096F876C089F812C096F87780A7
:101BA00089F81380272089F8020099F80200431E63
:101BB00003EB430500EB400116F805A006F801A071
:101BC000A819314445784D7080788870D8B289F86A
:101BD00002000028E9D1377086F801C086F802803B
:101BE00099F81800401CC0B289F8180003287DD36A
:101BF00089F818E089F801E0A648A54D007817900B
:101C000000EB4000011914F800C08E784F7899F865
:101C1000018008EBC80B5B460BF1070B0BEB4B008D
:101C200003F1080B28440BEB4B01294490F845A025
:101C300081F845A090F846A081F846A090F847A00A
:101C400081F847A003F1050B0BEB4B01294491F8F8
:101C500045A080F845A091F846A080F846A091F8EC
:101C600047A080F847A003F1060B0BEB4B0028447C
:101C700091F845A080F845A091F846A080F846A0CC
:101C800091F847A080F847A003F1020B0BEB4B0043
:101C9000284410F845AF81F845A090F801A081F8DC
:101CA00046A090F802A081F847A003F1040B0BEBCB
:101CB0004B01294490F800A081F845A090F801A0BC
:101CC00081F846A090F802A081F847A003F1030B29
:101CD0000BEB4B01294490F800A081F845A090F847
:101CE00001A081F846A090F802A000E034E181F85C
:101CF00047A080F800C04770867003F1010B0BEB22
:101D00004B00411901F845CF4F708E7008EBC800A9
:101D100000EB4000411901F845CF4F708E7008F17B
:101D2000010808F0FF0189F801100329FFF46FAFE3
:101D300099F80A00401CC0B289F80A0004280AD3A6
:101D400089F80AE017985349401CC0B208709042C5
:101D500001D381F800E0F24689F801E04FF0060B6C
:101D6000CC468CF802B09CF80130C3EBC3089CF859
:101D7000026008EB0601481E00EB4000284401EB1E
:101D80004101294487798F71C779CF71007A087230
:101D9000761EF0B28CF802000028E8D13D4EF61C09
:101DA000307800EB4001C3EBC30000EB4000284457
:101DB000675C877121444F78C771897801725B1C19
:101DC000D8B28CF801000328CBD39CF80B00401C40
:101DD000C0B28CF80B00072813D38CF80BA08CF83A
:101DE00001A09CF80100315C491CC9B231549142F8
:101DF00001D306F800A0401CC0B28CF801000328F3
:101E0000EFD305208CF801008CF802A09CF801802B
:101E100008EB88079CF80230F918481F00EB4000D7
:101E2000284401EB4101294410F8A26F01F8A26F88
:101E300046784E70807888705B1CD8B28CF80200AF
:101E40000528E7D3A8F1010808F0FF008CF801008D
:101E50000028D9D18CF802A0DFF838B00BF10D0BB7
:101E60009BF8008008EB4800235C20444678877884
:101E70009CF8021001EB4100284400F8A23F0BE05F
:101E800096010020F001002038020020D60000203A
:101E9000A40200202C00002046708770491CC8B2A4
:101EA0008CF802000528E3D308F1010808F0FF00D0
:101EB0008BF80000904201D38BF800A002208CF830
:101EC00001009CF801000346401E064600EB40005E
:101ED000411903EB4300284411F8FC7F00F8FC7F14
:101EE0004B78437089788170F0B28CF8010000283B
:101EF000E7D1FE4B197801EB4100265C05F8FC6F39
:101F0000204446786E708078A870FC3D491CC8B2A9
:101F10001870904201D383F800A09CF80F6006EB84
:101F20004600235C2044447887789CF8011001EB3C
:101F30004100284400F8963F44708770491CC8B29D
:101F40008CF801000428F0D3761CF0B28CF80F0056
:101F5000904201D38CF80FA099F81700401CC0B232
:101F600089F817005028FFF4F2AC89F817E01998A7
:101F700089F81C0089F806E089F805E089F803E093
:101F800089F807E089F808E089F809E089F804E0B1
:101F900089F80AE089F80BE089F80CE089F80EE08E
:101FA00089F80DE089F810E0D1E4DFF840B3ABF137
:101FB0002E0B8BF819A0BAF1140FF5D3DA464FF0B7
:101FC000000E8AF819E0B9F1050F3ED2F3468AF8FF
:101FD00002B090F802A0CDF858A090F801A0CDF87A
:101FE00054A014F801A0CDF850A0DFF800A3DFF84A
:101FF00000E3AAF12E0ADDF850B09AF802A0CDF85D
:102000004CA00AEB8A0ACA440AEB4A0A0EF80AB044
:10201000F244DDF854B08AF801B0DDF858B08AF81F
:1020200002B0DDF84CA0DFF8C4B20AF1010AABF14E
:102030002E0B0AF0FF0A8BF802A0BAF1020FD4D3DC
:10204000D946DDF87CA089F806A0B8F1060F44D285
:10205000DFF898A24FF00009AAF12E0A8AF8029040
:1020600090F80290CDF8489090F80190CDF8449007
:10207000DFF880B214F80190CDF84090DFF86C9250
:10208000DDF840A0A9F12E0999F80290CDF83C9016
:1020900009EB490908EB490909EB49090BF809A0C3
:1020A000D944DDF844A089F801A0DDF848A089F8FA
:1020B00002A0DDF83C90DFF834A209F10109AAF191
:1020C0002E0A09F0FF098AF80290B9F1040FD5D35E
:1020D000D046DDF8789088F80590DFF810E2062EFB
:1020E000AEF12E0E2BD24FF000088EF802809EF833
:1020F000029009EB490806EB4808B8F11D0F12D20F
:10210000DFF8F4A108EB480814F801B00AF808B0A9
:10211000DFF8E4B190F801A0D84488F801A090F865
:1021200002A088F802A009F1010909F0FF088EF861
:102130000280B8F1050FDAD3209E8EF80360BCF15F
:10214000080F30D2694E4FF000082E3E86F802800C
:1021500086780E9646780D96DFF8A0B114F801A0A7
:10216000624E2E3E96F802800CEBC80606EB460641
:102170000BF806A05E44DDF8349086F80190DDF897
:10218000389086F8029008F1010808F0FF06DFF8A1
:102190005C81A8F12E0888F80260052EE0D3C446C1
:1021A0001D9E8CF80460062F2ED2DFF840C1002659
:1021B000ACF12E0C8CF80260DFF844A190F802B06C
:1021C00090F8018014F80190484E2E3E96F802C017
:1021D0000CEB4C0607EB460606EB46060AF80690A3
:1021E000564486F8018086F802B00CF1010C0CF020
:1021F000FF06DFF8F8C0ACF12E0C8CF80260052E5B
:10220000E2D366461C9FF771DFF8E090062DA9F136
:102210002E0922D2002689F80260DFF8E8C090F883
:1022200002A090F801B014F8018099F8027007EB51
:10223000470605EB460606EB46060CF806806644A4
:1022400086F801B086F802A07F1CFEB289F8026011
:10225000042EEAD31B9D89F80850062B21D20025B5
:1022600089F80250284F90F8028090F801A014F8E5
:1022700001C099F8026006EB460503EB450505EB46
:10228000450507F805C03D4485F801A085F80280A2
:10229000761CF5B289F80250062DEAD31A9B89F80C
:1022A00009304FF0000B89F801B08378174F407860
:1022B000615C99F8016006EBC60A54460AF1070A08
:1022C0000AEB4A0504F1080A3D440AEB4A0CBC44F7
:1022D00095F845808CF8458095F846808CF84680C6
:1022E00095F847808CF8478012E00000320000200B
:1022F000CD0600204E0100207C000020D6000020EA
:1023000096010020F001002038020020A4020020E5
:1023100004F1050A0AEB4A0CBC449CF8458085F898
:1023200045809CF8468085F846809CF8478085F873
:10233000478004F1060A0AEB4A053D449CF84580B3
:1023400085F845809CF8468085F846809CF8478053
:1023500085F8478004F1020A0AEB4A053D4415F866
:10236000458F8CF8458095F801808CF8468095F86B
:1023700002808CF8478004F1040A0AEB4A0CBC4442
:1023800095F800808CF8458095F801808CF846809F
:1023900095F802808CF8478004F1030A0AEB4A0C96
:1023A000BC4495F800808CF8458095F801808CF845
:1023B000468095F802808CF8478029706870AB7071
:1023C000641C04EB44043C4404F8451F6070A37093
:1023D00006EBC60404EB44043C4404F8451F60705B
:1023E000A370761CF4B289F80140032CFFF461AFAE
:1023F00089F801B04FF0060E89F802E099F8016003
:10240000C6EBC60A99F802C00AEB0C056C1E04EB79
:1024100044043C4405EB45053D4494F8068085F8AA
:10242000068094F8078085F80780247A2C72ACF136
:10243000010C0CF0FF0489F80240002CE2D1C6EB3D
:10244000C60404EB44043C44A171E0712372761C81
:10245000F4B289F80140032CCED3052489F8014059
:10246000CE46F0468EF802B098F801A00AEB8A0931
:1024700098F8026009EB06056C1F04EB44043C4429
:1024800005EB45053D4494F8A2C085F8A2C094F838
:10249000A3C085F8A3C094F8A44085F8A440761C96
:1024A000F4B288F80240052CE2D3AAF1010A0AF03E
:1024B000FF0488F80140002CD3D18EF802B09EF8BA
:1024C000024004EB44053D4405F8A21F6870AB7060
:1024D000641CE4B28EF80240052CF0D302248EF87E
:1024E00001409EF801402646641EA44604EB4404C5
:1024F000E51906EB46043C4415F8FC8F04F8FC8F04
:102500006E786670AD78A5700CF0FF048EF801400F
:10251000002CE6D107F8FC1F7870BB70FC3F9EF8DA
:10252000014004EB44053D4405F8961F6870AB700C
:10253000641CE4B28EF80140042CF0D39EF8040031
:102540000828FFF431AD19988EF81C0018988EF801
:102550001000904201D38EF810B08EF806B08EF8BD
:1025600005B08EF803B08EF807B08EF808B08EF87C
:1025700009B08EF804B08EF80AB08EF80BB08EF861
:102580000CB08EF80EB08EF80DB00DE5DFF838B552
:102590008BF819A0BAF1140FF7D3DA464FF0000EFA
:1025A0008AF819E0B9F1050F42D2D646DDF87C90E1
:1025B0008EF80690CDF830904FF000098EF802901A
:1025C00090F80290CDF82C9090F80190CDF82890DA
:1025D000DFF8F8B414F80190CDF82490DFF8E8940F
:1025E000DDF830E0DDF824A099F80290CDF82090D5
:1025F00009EB8909A9EB0E0909F1050909EB49095C
:102600000BF809A0D944DDF828A089F801A0DDF86D
:102610002CA089F802A0DDF82090DFF8ACA409F125
:10262000010909F0FF098AF80290B9F1020FD5D328
:10263000B8F1060F3FD2DFF89084DDF878B088F863
:1026400005B04FF0000988F8029090F80280CDF8AC
:102650001C8090F80180CDF81880DFF874A414F87D
:102660000180CDF81480DFF86084DDF8149098F8CC
:102670000280CDF8108008EB4808CBEB480808F141
:10268000060808EB48080AF80890D044DDF81890CE
:1026900088F80190DDF81C9088F80290DDF8108031
:1026A000DFF8249408F1010808F0FF0889F8028097
:1026B000B8F1040FD7D3062E30D2DFF80C94DDF832
:1026C000808089F80380002689F80260FE4E96F823
:1026D000029009EB490608EB460ABAF11D0F13D226
:1026E000C8EB4606B61DDFF8ECB306EB460614F859
:1026F00001A00BF806A05E4490F801A086F801A0A6
:1027000090F802A086F802A0DFF8BCA309F1010945
:1027100009F0FF068AF80260052ED7D3BCF1080F36
:102720002DD2E94EDDF874A086F804A04FF0000C1D
:1027300086F802C08678039646780296DFF898936A
:1027400014F801B0E04E96F802C0CAEBCC06083689
:1027500006EB460609F806B04E44DDF8088086F818
:102760000180DDF80C8086F802800CF1010C0CF081
:10277000FF06DFF854C38CF80260052EE2D3DFF8C1
:102780004893062F26D2DDF870A089F807A000260E
:1027900089F802608678019690F801B014F80180FB
:1027A00099F80270DFF834C307EB4706CAEB460618
:1027B000B61D06EB46060CF80680664486F801B0A6
:1027C000DDF804C086F802C07F1CFEB289F8026002
:1027D000052EE5D3062D23D2DDF86C8089F808801C
:1027E000002589F80250BE4F90F802A090F801B081
:1027F00014F801C099F8026006EB4605C8EB4505E0
:10280000AD1D05EB450507F805C03D4485F801B051
:1028100085F802A0761CF5B289F80250042DE9D3A0
:10282000062B21D2DDF868C089F809C0002389F899
:102830000230AC4E90F8028090F801A0675C99F8E5
:10284000025005EB4503CCEB43039B1D03EB430315
:10285000F754334483F801A083F802806D1CEBB277
:1028600089F80230062BEAD34FF0000B89F801B04B
:1028700083789D4F4078615C99F801C00CEBCC08DF
:10288000464608F1030808EB480406F102083C44F8
:1028900008EB48053D4494F845A085F845A094F818
:1028A000468085F8468094F8478085F8478006F191
:1028B000010808EB48053D4494F845A085F845A07B
:1028C00094F8468085F8468094F8478085F84780DC
:1028D0000CEBCC0505EB45053D4494F8458085F8A7
:1028E000458094F8468085F8468094F8478085F8BE
:1028F000478006F1060808EB480506F105083D4447
:1029000008EB4808B84415F845AF88F845A095F895
:1029100001A088F846A095F802A088F847A006F123
:10292000040808EB4808B84495F800A088F845A0CA
:1029300095F801A088F846A095F802A088F847A06D
:1029400095F8008084F8458095F8018084F84680E9
:1029500095F8028084F8478006F1080808EB4804DF
:1029600006F107083C4408EB48063E4414F845AF1E
:1029700086F845A094F8018086F8468094F8028095
:1029800086F8478026782E7066786E70A678AE70CE
:1029900021706070A3700CF1010C0CF0FF0489F839
:1029A0000140032CFFF468AFC84689F801B088F8ED
:1029B00002B098F801E0CEEBCE0698F802C006EB24
:1029C0000C056C1C04EB44043C4405EB45053D44FC
:1029D00094F806A085F806A094F807A085F807A04B
:1029E000247A2C720CF1010C0CF0FF0488F80240E0
:1029F000062CE2D3B61D06EB46043C44A171E071FF
:102A000023720EF1010E0EF0FF0488F80140032C32
:102A1000CDD388F801B088F802B098F801A00AEB8D
:102A20008A0998F8026009EB06056C1D04EB440462
:102A30003C4405EB45053D4494F8A2C085F8A2C08E
:102A400094F8A3C085F8A3C094F8A44085F8A440E6
:102A5000761CF4B288F80240052CE2D30AF1010A90
:102A60000AF0FF0488F80140052CD4D388F802B09E
:102A700098F8025005F1190404EB44043C4404F8AE
:102A8000A21F6070A3706D1CECB288F80240052C88
:102A9000EED388F801B098F801402646641CA4469D
:102AA00004EB4404E51906EB46043C4415F8FC9F8E
:102AB00004F8FC9F6E786670AD78A5700CF0FF048A
:102AC00088F80140022C11E004000020CD0600200F
:102AD0004E0100207C000020D6000020960100203E
:102AE000F001002038020020A4020020D3D387F890
:102AF000021187F8030187F8043188F801B098F8CB
:102B0000014004EB44053D4405F8961F6870AB7026
:102B1000641CE4B288F80140042CF0D398F8040057
:102B20000828FFF432AD199888F81C00189888F826
:102B30001000904201D388F810B088F806B088F8E9
:102B400005B088F803B088F807B088F808B088F8AE
:102B500009B088F804B088F80AB088F80BB088F893
:102B60000CB088F80EB088F80DB00EE5D74C84F89C
:102B700019A0BAF10A0FF8D300216176B9F1050F57
:102B800014D2A170DFF848A3A27802EB8200484477
:102B900000EB40000AF80010504441708170521C54
:102BA000D0B2A0700228EFD31F98A071B8F1060F21
:102BB00015D2A170DFF81C93A27802EB420008EB5B
:102BC000400000EB400009F800104844417081705B
:102BD000521CD0B2A0700428EED31E986071062E4D
:102BE00017D2A170A27802EB420006EB40001D282C
:102BF00008D2DFF8E48200EB400008F800104044FF
:102C000041708170521CD0B2A0700528EAD3209880
:102C1000E0702646BCF1080F11D2B170AF4CB0780D
:102C20000CEBC00202EB4202A1542244517091709D
:102C3000401CC0B2B0700528F1D31D983071062F2A
:102C400015D2B170DFF898C2B07800EB400207EB04
:102C5000420202EB42020CF8021062445170917081
:102C6000401CC0B2B0700528EED31C98F071062D40
:102C700013D2B1709B4CB07800EB400205EB4202DE
:102C800002EB4202A154224451709170401CC0B228
:102C9000B0700428EFD31B983072062B13D2B1709A
:102CA000914CB07800EB400203EB420202EB42028F
:102CB000A154224451709170401CC0B2B0700628DB
:102CC000EFD31A9870727170884F747804EBC40354
:102CD000D81D00EB400003F10802384402EB420229
:102CE0003A4410F8455F02F8455F4578557085789D
:102CF00095705A1D02EB42023A4412F8455F057086
:102D00005578457095788570981D00EB40003844E3
:102D1000157800F8455F5578457095788570981C52
:102D200000EB4000384410F8455F15704578557049
:102D3000857895701A1D02EB42023A44057802F834
:102D4000455F4578557085789570DA1C02EB420234
:102D50003A44057802F8455F457855708578957056
:102D60000170417081705B1C03EB4300384400F834
:102D7000451F4170817004EBC40000EB40003844F3
:102D800000F8451F41708170641CE0B27070032828
:102D90009BD371704FF0060C86F802C07378C3EBBA
:102DA000C308B47808EB0402501E00EB400038441E
:102DB00002EB42023A4485799571C579D571007A62
:102DC0001072641EE0B2B0700028EAD1C3EBC300F9
:102DD00000EB400038448171C17101725B1CD8B2B4
:102DE00070700328D8D305207070B17096F801C0B8
:102DF0000CEB8C05B378EA18501F00EB4000384408
:102E000002EB42023A4410F8A24F02F8A24F447873
:102E10005470807890705B1CD8B2B0700528E9D3EC
:102E2000ACF1010C0CF0FF0070700028DDD1B17026
:102E3000B07800EB40023A4402F8A21F5170917042
:102E4000401CC0B2B0700528F2D3022070707078B8
:102E50000346401E00EB40023A4403EB43033B446D
:102E600012F8FC4F03F8FC4F54785C7092789A701B
:102E7000C0B270700028EAD107F8FC1F7970B970F1
:102E8000FC3F707800EB40023A4402F8961F517004
:102E90009170401CC0B270700428F2D330790828B9
:102EA000FFF463AE19983077B1717171F170F171FF
:102EB000317271723171B172F1723173B1737173B8
:102EC00053E60248FF2101774FE60000040000208E
:102ED000CD0600204E0100207C000020D6000020FE
:102EE00096010020F001002038020020A4020020FA
:102EF0002DE9F04FADB0FE4CE07E01287ED0237E60
:102F000020462C93417E827A2792521CD2B22B9279
:102F1000C27A2692521CD2B22A92027B2492521C6E
:102F2000D2B22992827B2592521CD0B2259A289047
:102F300002EB4205EF4A491C05EB020C04F12200AA
:102F4000249AC71CC9B202EB820A052B7ED3617694
:102F500008297CD34FF0000884F819804FF0090E3F
:102F600084F802E0E44BA1780A46491E01EB4105D2
:102F700002EB42025E5D9E541D441A446E78567008
:102F8000AD789570C9B2A1700029ECD183F80080AA
:102F900083F8018083F802804FF0170984F80290CB
:102FA000D64AA1784B1E03EB430501EB4101565D68
:102FB0005654154411446E784E70AD788D70D9B268
:102FC000A1700029EDD182F8008082F8018082F89A
:102FD00002804FF01D0B84F802B0C94AA1784B1E45
:102FE00003EB430501EB4101565D56541544114472
:102FF0006E784E70AD788D70D9B200E087E0A17028
:103000000029EBD182F8008082F8018082F80280EA
:103010002721A170BB4AA1784B1E03EB430501EBAE
:103020004101565D5654154411446E784E70AD788A
:103030008D70D9B2A1700029EDD182F8008082F89C
:10304000018082F8028084F802B001E083E170E040
:10305000AD4AA1784B1E03EB430501EB4101565DE0
:103060005654154411446E784E70AD788D70D9B2B7
:10307000A1700029EDD182F8008082F8018082F8E9
:10308000028084F80290A14AA1784B1E03EB43050D
:1030900001EB4101565D5654154411446E784E7053
:1030A000AD788D70D9B2A1700029EDD182F8008081
:1030B00082F8018082F802802321A170944AA178CD
:1030C0004B1E03EB430501EB4101565D565415447D
:1030D00011446E784E70AD788D70D9B2A170002910
:1030E000EDD182F8008082F8018082F80280279971
:1030F0000C297DD22B99A1720D2965D2DFE801F050
:10310000641C232A30353C43494D545B6100002543
:10311000E576002211461046FDF728F865762577FA
:103120002574A571A572E57225736573A573E575A0
:1031300025762DB0BDE8F08F80F800800121417028
:103140000221817040E003210170042141700521BA
:10315000817039E00621017007214170817033E0F0
:1031600008210170417081702EE080F800E00A2192
:1031700041700B21817027E00C2101700D214170FD
:103180000E21817020E00F210170102141708170AB
:103190001AE011218170417016E012210170132193
:1031A0004170142181700FE01521017016214170CA
:1031B00080F8029008E01821017019214170817097
:1031C00002E01A218170417001784A4A01EB410105
:1031D000114481F8458081F8468081F84780417824
:1031E00001EB4101114481F8458081F8468000E0FF
:1031F0000BE081F84780807800EB4000104480F8B5
:10320000458080F8468080F847802698072858D265
:103210002A98E072082835D2DFE800F034040B1257
:103220001920272E87F80080072078700E20B870AC
:1032300028E001203870082078700F20B87021E055
:103240000220387087F801E01020B8701AE00320DF
:1032500038700A2078701120B87013E0042038709C
:103260000B2078701220B8700CE0052038700C200C
:1032700078701320B87005E0062038700D20787043
:103280001420B87038781B4900EB4000084480F8DF
:10329000068080F8078080F80880787800EB40008E
:1032A000084480F8068080F8078080F80880B878A5
:1032B00000EB4000084480F8068080F8078080F822
:1032C00008802498062828D284F80180094A617869
:1032D0000AEB010000EB4000104480F8A28080F867
:1032E000A38080F8A480491CC8B26070052811E052
:1032F00004000020A4020020CD0600204E01002082
:103300007C000020D600002096010020F001002063
:1033100038020020DBD3299820732598032807D290
:103320008CF8FC808CF8FD808CF8FE802898A073C7
:1033300084F80180FE4A607800EB4001114481F876
:10334000968081F8978081F89880401CC0B26070A8
:103350000428F0D3EDE6F74A517608297ED391464A
:10336000002489F81940042189F80210DFF8C88385
:103370008E1F99F8021006EB410202EB420301EBAB
:10338000410218F8035008F81250434408EB420277
:103390005D7855709B789370491EC9B289F8021008
:1033A0000029E6D199F81010E44B01EB410223917A
:1033B000995C88F8001013445A7888F801209B78AB
:1033C00088F8023099F80240032505EB440505EB27
:1033D0004506012505EB440505EB450518F806B043
:1033E00008F805B04644454496F801B085F801B0A8
:1033F000B678AE70641CE4B289F80240042CE1D3C4
:10340000239CCE4E641C04EB44052294745D88F822
:103410001B402E44757888F81C50B67888F81D60DB
:103420004FF00B0889F80280DFF808836FF001097C
:1034300098F8028009EB480909EB490BDFF8009383
:10344000CDF884B008EB480E19F80BB009F81EB09F
:10345000DDF884B0CB44CDF880B000E0FBE309EBAD
:103460004E099BF801B089F801B0DDF880B09BF8F7
:1034700002B089F802B0DFF8BC92A8F1010808F0A8
:10348000FF0889F80280B8F1000FCDD1DFF8B082D3
:1034900088F8001088F8012088F80230DFF894825C
:1034A0004FF0030998F8028009EB480909EB490B32
:1034B000DFF88C92CDF87CB019F80BE04FF0010BDF
:1034C0000BEB480B0BEB4B0BCDF878B009F80BE08E
:1034D000DDF87CB0CB44CDF874B09BF801E0DDF8AA
:1034E00078B0D94489F801E0DDF874B09BF802B0F7
:1034F00089F802B0DFF83C9208F1010808F0FF08F3
:1035000089F80280B8F10B0FC8D3DFF8348288F84D
:10351000454088F8465088F847604FF00E0889F813
:103520000280DFF810826FF0010998F8028009EB41
:10353000480909EB490BDFF80C92CDF870B008EBA5
:10354000480E19F80BB009F81EB0DDF870B0CB4486
:10355000CDF86CB009EB4E099BF801B089F801B0C9
:10356000DDF86CB09BF802B089F802B0DFF8C491C6
:10357000A8F1010808F0FF0889F80280B8F1000FEF
:10358000CFD1DFF8C08188F8001088F8012088F8D2
:103590000230DFF8A0814FF0030998F8028009EBB0
:1035A000480909EB490BDFF89C91CDF868B019F890
:1035B0000BE04FF0010B0BEB480B0BEB4B0BCDF87B
:1035C00064B009F80BE0DDF868B0CB44CDF860B02A
:1035D0009BF801E0DDF864B0D94489F801E0DDF83A
:1035E00060B09BF802B089F802B0DFF8489108F1AA
:1035F000010808F0FF0889F80280B8F10E0FC8D35F
:10360000DFF8408188F8574088F8585088F85960AA
:103610004FF0130889F80280DFF82CB1DFF814812D
:103620006FF0010998F8028009EB480909EB490994
:10363000CDF85C901BF809E008EB4809CDF85890EC
:103640000BF819E0DDF85C90D944CDF8549099F866
:1036500001E0DDF858900BEB490989F801E0DDF84D
:1036600054E09EF802E089F802E0DFF8C890A8F183
:10367000010808F0FF0889F80280B8F1000FCDD1E9
:103680008BF800108BF801208BF80230DFF8A48053
:103690004FF0030998F8028009EB480909EB490B40
:1036A000DFF8A490CDF850B019F80BE04FF0010B03
:1036B0000BEB480B0BEB4B0BCDF84CB009F80BE0C8
:1036C000DDF850B0CB44CDF848B09BF801E0DDF810
:1036D0004CB0D94489F801E0DDF848B09BF802B05D
:1036E00089F802B0DFF84C9008F1010808F0FF08F3
:1036F00089F80280B8F1130FC8D3DFF84C8088F83E
:10370000754088F8765088F877604FF00E0889F891
:103710000280DFF838B0DFF81C806FF0010998F8FC
:10372000028009EB480909EB4909CDF844900FE004
:10373000A402002004000020CD060020EB0600209B
:103740004E0100207C000020D600002096010020C1
:103750001BF809E008EB4809CDF840900BF819E098
:10376000DDF84490D944CDF83C9099F801E0DDF8BB
:1037700040900BEB490989F801E0DDF83CE09EF848
:1037800002E089F802E0DFF8B096A8F1010808F03D
:10379000FF0889F80280B8F1000FBCD18BF8001047
:1037A0008BF801208BF80230DFF88C864FF003098C
:1037B00098F8028009EB480909EB490BDFF87C9681
:1037C000CDF838B019F80BE04FF0010B0BEB480BBC
:1037D0000BEB4B0BCDF834B009F80BE0DDF838B04B
:1037E000CB44CDF830B09BF801E0DDF834B0D944DB
:1037F00089F801E0DDF830B09BF802B089F802B03A
:10380000DFF8349608F1010808F0FF0889F8028013
:10381000B8F10E0FC8D3DFF8248688F8574088F82F
:10382000585088F859604FF00B0889F80280DFF88B
:1038300008866FF0010998F8028009EB480909EB46
:10384000490BDFF8FC95CDF82CB008EB480E19F8C1
:103850000BB009F81EB0DDF82CB0CB44CDF828B081
:1038600009EB4E099BF801B089F801B0DDF828B0EA
:103870009BF802B089F802B0DFF8BC95A8F1010806
:1038800008F0FF0889F80280B8F1000FCFD1DFF807
:10389000B08588F8001088F8012088F80230DFF839
:1038A00098854FF0030998F8028009EB480909EB65
:1038B000490BDFF88C95CDF824B019F80BE04FF0E8
:1038C000010B0BEB480B0BEB4B0BCDF820B009F8C1
:1038D0000BE0DDF824B0CB44CDF81CB09BF801E040
:1038E000DDF820B0D94489F801E0DDF81CB09BF880
:1038F00002B089F802B0DFF8409508F1010808F03D
:10390000FF0889F80280B8F10B0FC8D3DFF83085C3
:1039100088F8454088F8465088F847604FF011080D
:1039200089F80280DFF81CB5DFF80C856FF001091B
:1039300098F8028009EB480909EB4909CDF818907D
:103940001BF809E008EB4809CDF814900BF819E0D2
:10395000DDF81890D944CDF8109099F801E0DDF821
:1039600014900BEB490989F801E0DDF810E09EF8AE
:1039700002E089F802E0DFF8C094A8F1010808F03D
:10398000FF0889F80280B8F1000FCDD18BF8001044
:103990008BF801208BF80230DFF89C844FF003098C
:1039A00098F8028009EB480909EB490BDFF8949479
:1039B000CDF80CB019F80BE04FF0010B0BEB480BF6
:1039C0000BEB4B0BCDF808B009F80BE0DDF80CB0B1
:1039D000CB44CDF804B09BF801E0DDF808B0D94441
:1039E00089F801E0DDF804B09BF802B089F802B074
:1039F000DFF8449408F1010808F0FF0889F8028014
:103A0000B8F1110FC8D3DFF83C8488F8694088F812
:103A10006A5088F86B60DFF8208409F12809DDF826
:103A20009CB098F80080CDF8008099F80080BBF138
:103A30000C0F78D2DFF800B4DDF8AC908BF80A9068
:103A4000B9F10D0F14D2DFE809F08D0714212C35E0
:103A5000424F5A616F7C87004FF0000980F8009058
:103A60004FF0010980F801904FF0020980F80290B0
:103A700078E04FF0030980F800904FF0040980F8D7
:103A800001904FF0050980F802906BE04FF00609B5
:103A900080F800904FF0070980F8019080F80290BC
:103AA00060E04FF0080980F8009080F8019080F8FD
:103AB000029057E04FF0090980F800904FF00A0992
:103AC00080F801904FF00B0980F802904AE04FF027
:103AD0000C0980F800904FF00D0980F801904FF02C
:103AE0000E0980F802903DE04FF00F0980F8009039
:103AF0004FF0100980F8019080F8029032E04FF00A
:103B0000110980F8029080F801902BE04FF0120923
:103B100080F800904FF0130980F801904FF01409DD
:103B200080F802901EE051E04FF0150980F80090F7
:103B30004FF0160980F801904FF0170980F80290B5
:103B400010E04FF0180980F800904FF0190980F844
:103B5000019080F8029005E04FF01A0980F8029079
:103B600080F80190B448DFF8E0E2223008EB480921
:103B700000781EF8098000EB400BB448584480F8E8
:103B8000458009EB0E0B9BF8019080F846909BF85E
:103B900002B080F847B0A8482230407800EB400ED1
:103BA000AA48704480F8458080F8469080F847B075
:103BB000A1482230807800EB400EA448704480F881
:103BC000458080F8469080F847B010E09A484FF062
:103BD000000B80F80AB008F1010808F0FF0089F82E
:103BE0000000DDF80080404501D389F800B0DFF81F
:103BF0004882DDF8989008F12B08B9F1070F98F882
:103C000000007CD2DFF83092DDF8A88089F80B80C4
:103C1000B8F1080F60D2DFE808F05F04111F2C39FB
:103C200046534FF0000887F800804FF0070887F8E8
:103C300001804FF00E0887F802804DE04FF0010838
:103C400087F800804FF0080887F801804FF00F08D0
:103C500087F8028040E0D7E04FF0020887F8008044
:103C60004FF0090887F801804FF0100887F80280AC
:103C700032E04FF0030887F800804FF00A0887F819
:103C800001804FF0110887F8028025E04FF004080A
:103C900087F800804FF00B0887F801804FF012087A
:103CA00087F8028018E04FF0050887F800804FF091
:103CB0000C0887F801804FF0130887F802800BE0AA
:103CC0004FF0060887F800804FF00D0887F8018054
:103CD0004FF0140887F8028097F80080DFF868B189
:103CE000DFF868E100EB400908EB4808F0441BF8F6
:103CF000090088F80600CB449BF8019000E01AE028
:103D000088F807909BF802B088F808B097F801800F
:103D100008EB4808F04488F8060088F8079088F80F
:103D200008B0BF7807EB47077744B87187F807906A
:103D300087F808B00EE0DFF80091002789F80B70D3
:103D4000401CC0B288F80000DDF80090484501D35F
:103D500088F800702498DFF8E09006281AD2002036
:103D600089F80100394F99F801000AEB000808EBC7
:103D70004808B84488F8A21088F8A32088F8A4302E
:103D8000401CC0B289F801000528ECD3299889F8B5
:103D90000C0002E0002089F80C002598032809D2C5
:103DA0008CF8FC108CF8FD208CF8FE30289889F8EF
:103DB0000E0002E0002089F80E00002289F80120A0
:103DC000224B99F8010000EB4001194401F8964F8D
:103DD0004D708E70401CC0B289F801000428F0D3E9
:103DE00099F80600401CC0B289F8060006280BD3DB
:103DF00089F806202298C0B289F810000099491E5F
:103E0000884201DB89F810200B48C17D491CC9B2EA
:103E1000C1756429FFF48DA90021C1752C9A521C2B
:103E2000D2B20276052AF5D38172C1720173417351
:103E300081732DB0BDE8F08F0400002096010020B2
:103E4000F001002038020020EB060020A402002030
:103E50002DE9F05FFE4DFF4E1927E87E0024012872
:103E60001AD02B4695F81CB093F81990187D597DFF
:103E70009A7D93F8118093F812C009F10109DB7C57
:103E800009F0FF0A06F13009BBF1050F1DD2DFE88A
:103E90000BF01E53849BFD00EC7600221146104669
:103EA000FCF764F96C766C702C742C773078B0FB6E
:103EB000F7F028757078B0FBF7F06875B078B0FB54
:103EC000F7F0A8756C74AC74EC74BDE8F09F85F8DD
:103ED00019A0BAF1080FF8D36C764044C0B26874E8
:103EE0006144C9B2A9741A44D2B2EA74FCF73EF92B
:103EF0006878401CC0B268700A28E6D96C70287FC8
:103F0000401C2877EC75287C401CC0B228742978A6
:103F1000884200D32C74287C00EB4000315CB1FB5C
:103F2000F7F1297530444178B1FBF7F16975807874
:103F3000B0FBF7F0A875C8E7C0EB0010C0B268741A
:103F4000C1EB0111C9B2A974C2EB0212D2B2EA7478
:103F5000FCF70CF9E87D401CC0B2E8752828B4D9FC
:103F6000EC75287F401C2877287C401CC0B2287440
:103F70002978884200D32C74287C00EB4000315C07
:103F8000B1FBF7F1297530444178B1FBF7F1697560
:103F90008078B0FBF7F0A87597E7287C00EB40012C
:103FA000705C68748A195178A9749278EA74FCF785
:103FB000DDF8E87D401CC0B2E875502885D9EC7565
:103FC000287F401C287780E785F819A0BAF1060FF2
:103FD000B1D36C76A8EB0000C0B26874ACEB010101
:103FE000C9B2A9749A1AD2B2EA74FCF7BFF8687819
:103FF000401CC0B268700F289DD96C70287F401C8F
:104000002877EC75687809F80040401CC0B26870E9
:104010001E28F7D36C708F498E3168780C54401C81
:10402000C0B268700A28F8D36C708A497631687813
:104030000C54401CC0B268701828F8D36C708549C5
:104040004E3168780C54401CC0B268702828F8D3F0
:104050006C708049983168780C54401CC0B268700C
:104060001E28F8D36C707B49B63168780C54401C1C
:10407000C0B268701828F8D36C707649CE31687871
:104080000C54401CC0B26870242800E00DE0F6D348
:10409000AC716C71EC70EC712C726C722C71AC7236
:1040A000EC722C73AC736C730FE785F819A0BAF13E
:1040B000050F88D36C76E87801264FF01E081E287D
:1040C0001ED2E88BFCF738F8E88B1D30E883FCF74C
:1040D00029F8C0B2B0FBF8F108FB1100A87019F87C
:1040E00000000128EDD0A87809F800605A4900EBDB
:1040F00040000C54084444708470E878401CE87018
:10410000A8794FF00A090A2822D2DFF848A10AF15B
:104110008E0AE88BFCF710F8E88B1D30E883FCF77B
:1041200001F8C0B2B0FBF9F109FB1100A8701AF850
:1041300000000128EDD0A8780AF80060474900EB9C
:1041400040000C54084444708470A879401CA87145
:1041500068794FF0180A182822D2DFF8F8B00BF16E
:10416000760BE88BFBF7E8FFE88B1D30E883FBF765
:10417000D9FFC0B2B0FBFAF10AFB1100A8701BF81E
:1041800000000128EDD0A8780BF80060344900EB5E
:1041900040000C540844447084706879401C687175
:1041A0002879282823D2DFF8ACB00BF14E0BE88B2E
:1041B000FBF7C2FFE88B1D30E883FBF7B3FFC1B20A
:1041C0002820B1FBF0F200FB1210A8701BF80000D1
:1041D0000128ECD0A8780BF80060224900EB4000E1
:1041E0000C540844447084702879401C2871E87984
:1041F0001E2822D2DFF85CB00BF1980BE88BFBF79E
:104200009BFFE88B1D30E883FBF78CFFC0B2B0FB4F
:10421000F8F108FB1100A8701BF800000128EDD090
:10422000A8780BF80060104900EB40000C540844DB
:1042300044708470E879401CE871287A182831D2DB
:10424000DFF8108008F1B608E88BFBF775FF0DE08A
:1042500004000020EB0600207C000020CD0600209A
:104260004E010020D600002096010020E88B1D3072
:10427000E883FBF757FFC0B2B0FBFAF10AFB11006D
:10428000A87018F800000128DED0A87808F80060AF
:10429000954900EB40000C54084444708470287A1F
:1042A000401C2872687A242822D2DFF840824FF01E
:1042B000240BE88BFBF740FFE88B1D30E883FBF70E
:1042C00031FFC0B2B0FBFBF10BFB1100A87018F876
:1042D00000000128EDD0A87808F80060844900EBC0
:1042E00040000C54084444708470687A401C687222
:1042F000A87A04237F494FF0030C4FF005084FF0D4
:10430000070B0C2866D2401CC2B2AA727A480D2A4A
:1043100045D2DFE802F044070C12171A21282D308D
:10432000373E4200047046700222827037E080F807
:1043300000C0437080F8028031E00622027080F8ED
:1043400001B02CE00822827029E00922027080F876
:1043500001900B22827022E00C2202700D2242702A
:104360000E2282701BE00F2202701022427016E0B3
:104370001122827013E01222027013224270142262
:1043800082700CE015220270162242701722827091
:1043900005E080F800A0477001E01A2282706C747A
:1043A000AC74EC74027802EB42020A4402F8454F06
:1043B00054709470427802EB42020A4402F8454F6E
:1043C00054709470807800EB4000084400F8454F2A
:1043D00044708470E87A07284ED2401CC2B2EA7258
:1043E0004548C01C082A32D2DFE802F031040A1026
:1043F000171E242B047080F801B00E22827026E074
:104400000670082242700F22827020E002220270A1
:10441000092242701022827019E080F800C080F8F2
:1044200001901122827012E003700B22427012225E
:1044300082700CE080F800800C224270132282709F
:1044400005E0062202700D2242701422827002786A
:1044500002EB42020A449471D4711472427802EB66
:1044600042020A449471D4711472807800EB4000C7
:1044700008448471C47104722B7B062B12D26C70B9
:1044800003EB83066A78B01800EB4000084400F89C
:10449000A24F44708470521CD0B268700528F1D3CA
:1044A0005B1C2B73A87B032808D200EB40020A4454
:1044B00002F8FC4F54709470401CA8736C706878BC
:1044C00000EB40020A4402F8964F54709470401C6E
:1044D000C0B268700428F2D328792828FFF42BADE5
:1044E000287F401C2877F0E4F0010020B907002065
:1044F00038020020A402002026000020F0B42C4D39
:1045000000242C49E8782C4E01281ED03088401C0D
:1045100080B230800122294B01281FD0B0F5CD6F29
:104520001FD0B0F5486F1FD0A0F56067883F08D056
:10453000A0F59057753F1BD0A0F5C853643B1BD026
:104540001CE0032008701A7018E0EC7034800C70C6
:10455000F0BC002211461046FBF708BE0C701A7022
:104560000CE00A701A7009E0022008701A7005E069
:10457000042008701A7001E03480EA700878052879
:1045800013D2DFE800F00306090C0F00F0BC01F0C5
:104590004BBEF0BC00F014B8F0BC04F021BAF0BC83
:1045A00005F094BDF0BC07F0FFBBF0BC7047000005
:1045B000350000201E000020240000201F000020E5
:1045C0002DE9F04F8BB0FE48FE4EFF4D01780024E0
:1045D000DFF8F8A301297DD03078401CC0B23070DC
:1045E000052878D300203070F948FB4E0127017868
:1045F000F848DFF8E8B3FA4C0078DFF8E8834FF0CA
:104600001409002968D0012967D01E282ED23088CD
:10461000FBF792FD30881D303080FBF783FDC1B27F
:104620001E20B1FBF0F200FB1210EF490870EF49B9
:10463000085C0128EBD0EC4800780F54EC4909786D
:10464000B0FBF1F201FB1201297001EB4101E94BD2
:1046500000EB4000625C1A54214418444A784270CE
:1046600089788170DB480178491C0170E248007844
:104670000A282ED23088FBF75FFD30881D3030804D
:10468000FBF750FDC1B20A20B1FBF0F200FB1210A3
:10469000D5490870D949085C0128EBD0D248007888
:1046A0000F54D3490978B0FBF1F201FB12012970D4
:1046B00001EB4101D24B00EB4000625C1A542144F3
:1046C00018444A78427089788170CB480178491C37
:1046D000017003E019E1D4E1D6E1B0E3C948007804
:1046E00018282ED23088FBF727FD30881D30308007
:1046F000FBF718FDC1B21820B1FBF0F200FB12105D
:10470000B9490870C049085C0128EBD0B648007868
:104710000F54B7490978B0FBF1F201FB120129707F
:1047200001EB4101B94B00EB4000625C1A5421449B
:1047300018444A78427089788170B2490878401CE0
:104740000870B348007828282ED23088FBF7F4FC94
:1047500030881D303080FBF7E5FCC1B22820B1FB6A
:10476000F0F200FB1210A0490870AA49085C012869
:10477000EBD09D4800780F549D490978B0FBF1F2C9
:1047800001FB1201297001EB4101A34B00EB40003A
:10479000625C1A54214418444A78427089788170C6
:1047A0009B480178491C01709C4800781E282ED235
:1047B0003088FBF7C1FC30881D303080FBF7B2FC3D
:1047C000C1B21E20B1FBF0F200FB12108649087046
:1047D0009349085C0128EBD0834800780F54844942
:1047E0000978B0FBF1F201FB1201297001EB4101E4
:1047F0008C4B00EB4000625C1A54214418444A7808
:1048000042708978817085480178491C017086481A
:10481000007818282ED23088FBF78EFC30881D30A7
:104820003080FBF77FFCC1B21820B1FBF0F200FB37
:1048300012106D4908707D49085C0128EBD06A4868
:1048400000780F546A490978B0FBF1F201FB1201BC
:10485000297001EB4101764B00EB4000625C1A5479
:10486000214418444A784270897881706E480178F2
:10487000491C01706F48007824282ED23088FBF73D
:104880005BFC30881D303080FBF74CFCC1B224202B
:10489000B1FBF0F200FB1210534908706649085C46
:1048A0000128EBD0504800780F5451490978B0FBEB
:1048B000F1F201FB1201297001EB41015F4E00EBA7
:1048C0004000625C3254214430444A784270897816
:1048D000817058480178491C0170594908780C28A2
:1048E0006CD2401CC0B208700D2868D2DFE810F00E
:1048F0006700080B110B1B0B240B2C0B360B400B0A
:10490000490B4F0B580B620B6B0B047000221146C6
:104910001046FBF72BFC0320287034702C480470E1
:104920008AF8004031499AF800000C54401CC0B28B
:104930008AF800001E28F6D38AF800402F499AF81A
:1049400000000C54401CC0B28AF800000A28F6D3BC
:104950008AF800402C499AF800000C54401CC0B260
:104960008AF800001828F6D38AF8004029499AF8F6
:1049700000000C54401CC0B28AF800002828F6D36E
:104980008AF8004026499AF800000C54401CC0B236
:104990008AF800001E28F6D38AF8004023499AF8C6
:1049A00000000C54401CC0B28AF800001828F6D34E
:1049B0008AF8004020499AF8000043E0FDE3FDE357
:1049C0001F0000201D000020140000200500002012
:1049D00020000020070000202200002026000020E8
:1049E000EB060020A4020020060000201B07002088
:1049F000040000207C0000200A000020790700202D
:104A0000CD06002009000020610700204E01002093
:104A10000800002039070020D60000200B000020ED
:104A200083070020960100200C000020A107002031
:104A3000F00100200D000020B907002038020020FE
:104A40000E0000200C54401CC0B28AF8000024283C
:104A5000B1D3FB480470FB480470FB480470FB486A
:104A60000470FB480470FB480470FB480470FB486A
:104A70000470FB480470FB480470FB480470FB485A
:104A800004700BB0BDE8F08F1E2828D23088FBF7E9
:104A900053FB30881D303080FBF744FBC1B21E2031
:104AA000B1FBF0F200FB1210F1490870F149085C0B
:104AB0000128EBD0EE4800780F542978EE4B01EB3B
:104AC000410100EB4000625C1A54214418444A78CA
:104AD000427089788170DC480178491C0170D8489F
:104AE00000780A2828D23088FBF726FB30881D3052
:104AF0003080FBF717FBC1B20A20B1FBF0F200FBDC
:104B00001210DB490870DD49085C0128EBD0D84859
:104B100000780F542978DA4B01EB410100EB40009B
:104B2000625C1A54214418444A7842708978817032
:104B3000C3480178491C0170C2480078182828D25F
:104B40003088FBF7F9FA30881D303080FBF7EAFA3D
:104B5000C1B21820B1FBF0F200FB1210C44908707A
:104B6000C849085C0128EBD0C14800780F54297867
:104B7000C54B01EB410100EB4000625C1A5421443B
:104B800018444A78427089788170AE480178491C8F
:104B90000170B1480078282828D23088FBF7CCFA79
:104BA00030881D303080FBF7BDFAC1B22820B1FB40
:104BB000F0F200FB1210AE490870B449085C0128FD
:104BC000EBD0AB4800780F542978B14B01EB410191
:104BD00000EB4000625C1A54214418444A78427049
:104BE000897881709C480178491C01709748007849
:104BF0001E2828D23088FBF79FFA30881D3030807D
:104C0000FBF790FAC1B21E20B1FBF0F200FB1210CC
:104C1000974908709F49085C0128EBD094480078B8
:104C20000F5429789C4B01EB410100EB4000625C82
:104C30001A54214418444A78427089788170834913
:104C40000878401C08708248007818282AD23088DA
:104C5000FBF772FA30881D303080FBF763FAC1B27F
:104C60001820B1FBF0F200FB1210814908708B494B
:104C7000085C0128EBD07E4800780F542978DFF8D3
:104C800020C201EB410100EB4000625C0CF8002007
:104C9000214460444A784270897881706C49087870
:104CA000401C08706B480078242828D23088FBF715
:104CB00043FA30881D303080FBF734FAC1B224202B
:104CC000B1FBF0F200FB1210694908707549085CED
:104CD0000128EBD0664800780F542978724B01EB1D
:104CE000410100EB4000625C1A54214418444A78A8
:104CF00042708978817057480178491C0170574982
:104D000008780C287ED2401CC0B208700D2862D2F0
:104D1000DFE800F06107101A21252F3940444D5774
:104D20005E0000208BF800008BF8017002208BF8E9
:104D3000020050E003208BF8000004208BF80100F3
:104D400005208BF8020046E006208BF800000720C3
:104D50008BF801003FE008208BF802003BE00920BF
:104D60008BF800000A208BF801000B208BF8020062
:104D700031E00C208BF800000D208BF801000E2094
:104D80008BF8020027E00F208BF8000010208BF832
:104D9000010020E011208BF802001CE012208BF8AB
:104DA000000013208BF801008BF8029013E015200F
:104DB0008BF8000016208BF8010017208BF80200FA
:104DC00009E018208BF8000019208BF8010002E0A0
:104DD0001A208BF802002878344A00EB4001605C0E
:104DE00010700A19324B51781970324B92781A7040
:104DF0009BF8003003EB4303434403F8450F59701D
:104E00009A7000E011E09BF8013003EB4303434448
:104E100003F8450F59709A709BF8023003EB430377
:104E2000434403F8450F59709A700D4908780728D4
:104E30006FD2401CC0B2087008287AD23CE0B9E2B8
:104E40000A00002009000020070000200B000020BD
:104E50000C0000200D000020080000200E000020A3
:104E60000F00002010000020120000201100002080
:104E7000060000201B0700207C000020790700208E
:104E8000CD060020610700204E01002039070020D8
:104E9000D60000208307002096010020A1070020F3
:104EA000F0010020B9070020380200201500002082
:104EB0001600002017000020DFE800F03B040C1370
:104EC0001B232C34FE4800210170072141700E2164
:104ED00081702EE0FA480770082141700F2181701F
:104EE00027E0F748022101700921417010218170EB
:104EF0001FE0F348032101700A21417011218170E4
:104F000017E0EF48042101700B21417012218170DC
:104F10000FE031E0EA48052101700C2141701321B6
:104F2000817006E0E648062101700D21417080F88D
:104F30000290E34A2878117800EB400301EB41012D
:104F40004144E05C887103EB040B9BF80130CB71AA
:104F50009BF802B081F808B0517801EB410141445F
:104F60008871CB7181F808B0917801EB410141441F
:104F70008871CB7181F808B0D24890F800C0BCF1BC
:104F8000060F26D200218AF8001028780CEB8C023C
:104F900000EB4000011991F802B049780A91205CB9
:104FA00009909AF80010099B501800EB400040440B
:104FB00000F8A23F0A9B437080F802B0491CC8B2B7
:104FC0008AF800000528ECD3BE480CF1010C80F8EB
:104FD00000C0DFF8F4B29BF80000032815D22A784D
:104FE00000EB400102EB4203414414F803C001F816
:104FF000FCCF23445B784B70521C02EB42022244EC
:1050000092788A70401C8BF800004FF0000B8AF8F1
:1050100000B0287800EB40000119225C8B784D78B5
:105020009AF8000000EB4001414401F8962F4D70C2
:105030008B70401CC0B28AF800000428F0D3A3484B
:1050400000782828FFF41DADA1490878401C08709D
:10505000A04C84F800B0A04DDFF88082DFF880A279
:105060003088FBF769F830881D303080FBF75AF83C
:10507000C0B2B0FBF9F109FB1101207829540AF8FC
:10508000007008F800B0401CC0B220700A28E7D3B6
:1050900084F800B0934DDFF85082DFF850A23088DA
:1050A000FBF74AF830881D303080FBF73BF8C0B280
:1050B000B0FBF9F109FB1101207829540AF80070BE
:1050C00008F800B0401CC0B220701828E7D384F85C
:1050D00000B0874DDFF81C82DFF81CA23088FBF798
:1050E0002BF830881D303080FBF71CF8C0B2B0FBC5
:1050F000F9F109FB1101207829540AF8007008F829
:1051000000B0401CC0B220701E28E7D384F800B065
:105110007A4DDFF8EC81DFF8ECA13088FBF70CF872
:1051200030881D303080FAF7FDFFC0B2B0FBF9F1D6
:1051300009FB1101207829540AF8007008F800B022
:10514000401CC0B220702828E7D384F800B06E4D10
:10515000DFF8B881DFF8B8A13088FAF7EDFF3088C2
:105160001D303080FAF7DEFFC0B2B0FBF9F109FB69
:105170001101207829540AF8007008F800B0401C8A
:10518000C0B220701E28E7D384F800B0614DDFF86C
:105190008881DFF888A13088FAF7CEFF30881D308B
:1051A0003080FAF7BFFFC0B2B0FBF9F109FB110183
:1051B000207829540AF8007001E0F6E3F6E308F8D5
:1051C00000B0401CC0B220701828E4D384F800B0AE
:1051D000534DDFF85081DFF850A13088FAF7ACFF6B
:1051E00030881D303080FAF79DFFC0B2B0FBF9F176
:1051F00009FB1101207829540AF8007008F800B062
:10520000401CC0B220702428E7D384F800B0DFF837
:105210001C81474DDFF81CA13088FAF78DFF3088DC
:105220001D303080FAF77EFFC0B2B0FBF9F109FB08
:105230001103414920780B5440490F5408F800B03D
:105240003088FAF779FF30881D303080FAF76AFF2E
:10525000C0B2B0FBF9F109FB1101207829540AF81A
:105260000070374901F800B03088FAF765FF3088E0
:105270001D303080FAF756FFC0B2B0FBF9F109FBE0
:105280001103304920780B542F490F542F4901F84E
:1052900000B0401CC0B220700328BDD384F800B019
:1052A0002B4DDFF8B080DFF8B0A03088FAF744FF6C
:1052B00030881D303080FAF735FFC0B24EE0000074
:1052C000290000201000002012000020080000200B
:1052D00020000020060000206B090020A908002003
:1052E000E707002075090020B3080020F10700201F
:1052F0008D090020CB08002009080020AB09002000
:10530000E908002027080020D30900201109002007
:105310004F080020F10900202F0900206D0800200F
:10532000090A0020470900208508002058000020B5
:105330006B0000204B000020680000204800002087
:105340005B00002075000020550000206500002053
:105350006E0000205E0000204E000020B0FBF9F13E
:1053600009FB1101207829540AF8007008F800B0F0
:10537000401CC0B22070062897D33088FAF7DCFEB4
:1053800030881D303080FAF7CDFEC0B2B0FBF9F1A5
:1053900009FB1100FE490870FE480770FE4880F8BE
:1053A00000B0FE4880F800B0FD4880F800B00BB0B7
:1053B000BDE8F08FFB4900200870DFF8ECB3F94836
:1053C00000781BF8001000297ED001297DD0F74B12
:1053D00000EB400100225A5419444A708A700BF8BD
:1053E0000020F0490878401CC0B208700A28E6D3B3
:1053F00000200870DFF8B8B3EA4800781BF8001006
:1054000000297DD001297CD0EA4B00EB400100222D
:105410005A5419444A708A700BF80020E149087800
:10542000401CC0B208701828E6D3DE480021017085
:10543000DFF884B3DB4800781BF8001000297DD02A
:1054400001297CD0DD4B00EB400100225A540B4473
:105450005A709A700BF80020D2490878401CC0B2EC
:1054600008701E28E6D300200870DFF854B3CD483A
:1054700000781BF8001000297ED001297DD0D14B87
:1054800000EB400100225A5419444A708A700BF80C
:105490000020C4490878401CC0B208702828E6D310
:1054A00000200870DFF820B3BE4800781BF8001019
:1054B00000297DD001297CD0C44B00EB40010022A3
:1054C0005A5419444A7001E0EAE1FEE18A700BF88F
:1054D0000020B4490878401CC0B208701E28E3D3ED
:1054E00000200870DFF8E8B2AE4800781BF8001022
:1054F00000297CD001297BD0002200EB400101E093
:1055000006E21AE2B34B5A5419444A708A700BF8F7
:105510000020A4490878401CC0B208701828E3D3C2
:1055200000200870DFF8B0B29E4800781BF8001029
:1055300000297DD001297CD0002201E020E236E262
:10554000A64B00EB40015A5419444A708A700BF87C
:10555000002094490878401CC0B208702428E3D386
:105560009048002101708F489D490078095C08919E
:1055700000297DD0012901E03CE250E279D00022EF
:105580008AF8002000EBC00C9AF800300CEB030105
:1055900001EB4101414401F8452F4A708A705B1CC0
:1055A000D9B28AF800100929EED38D490A5401E0D6
:1055B00058E26CE27B490878401CC0B208700328AE
:1055C000D1D3784800210170764886490078095C7B
:1055D000059100297ED001297DD000228AF8002083
:1055E000C0EBC00C9AF800300CEB030101E071E253
:1055F00085E201EB410141448A71CA710A725B1C68
:10560000D9B28AF800100729ECD376490A546549C3
:105610000878401CC0B208700328D5D30020087059
:10562000604871490078095C039100297ED001E04F
:1056300088E29CE201297AD000228AF8002000EB5F
:10564000800C9AF800300CEB030101EB410141445E
:1056500001F8A22F4A708A705B1CD9B28AF8001038
:105660000529EED360490A544E490878401C01E0F0
:10567000A0E217E3C0B208700628D1D3002008705A
:10568000DFF868B1474800781BF8001000297BD08C
:1056900001297AD000EB40014144002201F8FC2F9F
:1056A0004A708A700BF800203E490878401CC0B24E
:1056B00008700328E6D3374F97F800C0BCF1000FFD
:1056C00064D0BCF1010F62D000228AF800209AF861
:1056D000000001E00AE330E300EB4001414401F83F
:1056E000962F4A708A70401CC0B28AF800000428C5
:1056F000EDD33A7029490878401CC0B208703228AE
:105700007FF655AE00260E70394F3E702878394A24
:1057100000EB4001605C10700A19374B517819702A
:10572000364B92781A70FAF721FD01E029E350E335
:105730002878401CC0B22870052801D90220387092
:105740008AF800602E499AF800000E54401CC0B23E
:105750008AF800001E28F6D38AF8006029499AF8D2
:1057600000000E54401CC0B28AF800000A28F6D38C
:105770008AF8006024499AF800000E54401CC0B218
:105780008AF80000182841E047E357E379E396E3FD
:105790007400002054000020640000201B00002042
:1057A0001C00002006000020E7070020CD06002096
:1057B000F10700204E010020090800207C00002095
:1057C00027080020D60000204F0800209601002066
:1057D0006D080020F001002085080020380200201C
:1057E000480000204B0000204E0000205500002003
:1057F00020000020150000201600002017000020C7
:105800001B0700207907002061070020B3D38AF826
:105810000060FD499AF800000E54401CC0B28AF89E
:1058200000002828F6D38AF80060F8499AF80000AA
:105830000E54401CC0B28AF800001E28F6D38AF825
:105840000060F3499AF800000E54401CC0B28AF878
:1058500000001828F6D38AF80060EE499AF8000094
:105860000E54401CC0B28AF800002428F6D3EA483F
:105870000670EA480670EA480670EA480670EA4888
:105880000670EA480670EA480670EA480670EA4878
:105890000670EA480670EA480670EA48067086E52F
:1058A0002978E94B01EB410200EB400114F802C0FA
:1058B00003F801C02244194492F801C081F801C0E4
:1058C00092788A700BF800708BE5E04B195C491CEC
:1058D000C9B21954DE4A125C9142F5D9002119541B
:1058E0003088FAF729FC30881D303080FAF71AFC2E
:1058F000C0B2B0FBF9F109FB1101D648D44A14310A
:10590000007811541BF80010491C0BF8001068E5D2
:105910002978D14B01EB410200EB400114F802C0A1
:1059200003F801C02244194492F801C081F801C073
:1059300092788A700BF8007070E5C84B195C491CAE
:10594000C9B21954C64A125C9142F5D900211954C2
:105950003088FAF7F1FB30881D303080FAF7E2FB2F
:10596000C0B2B0FBF9F109FB1101BA48BC4A1431CD
:10597000007811541BF80010491C0BF800104DE57D
:105980002978B84B01EB410200EB400114F802C04A
:1059900003F801C02244194492F801C081F801C003
:1059A00092788A700BF8007056E53FE3B0E2AE4B98
:1059B000195C491CC9B21954AC4A125C9142F3D922
:1059C000002119543088FAF7B7FB30881D30308039
:1059D000FAF7A8FBC0B2B0FBF9F109FB11019D4831
:1059E000A24A1431007811541BF80010491C0BF81E
:1059F000001031E529789E4B01EB410200EB40019C
:105A000014F802C003F801C02244194492F801C0FE
:105A100081F801C092788A700BF8007039E5954BD7
:105A2000195C491CC9B21954934A125C9142F5D9C8
:105A3000002119543088FAF77FFB30881D30308000
:105A4000FAF770FBC0B2B0FBF9F109FB1101814814
:105A5000894A1431007811541BF80010491C0BF8C6
:105A6000001016E52978854B01EB410200EB40015F
:105A700014F802C003F801C02244194492F801C08E
:105A800081F801C092788A700BF8007021E57C4B98
:105A9000195C491CC9B219547A4A125C9142F5D971
:105AA000002119543088FAF747FB30881D303080C8
:105AB000FAF738FBC0B2B0FBF9F109FB11026548F7
:105AC0007049143200780A541BF80010491C0BF876
:105AD0000010FEE429786C4B01EB410200EB400121
