:020000040800F2
:10000000280E002001010008090100080B0100086A
:100010000D0100080F010008110100080000000098
:1000200000000000000000000000000013010008B4
:100030001501000800000000170100081901000860
:100040001B0100081B0100081B0100081B01000820
:100050001B0100081B0100081B0100081B01000810
:100060001B0100081B0100081B0100081B01000800
:100070001B0100081B0100081B0100081B010008F0
:100080001B0100081B0100081B0100081B010008E0
:100090001B0100081B0100081B0100081B010008D0
:1000A0001B0100081B0100081B0100081B010008C0
:1000B0001B0100081B0100081B0100081B010008B0
:1000C0001B0100081B0100081B0100081B010008A0
:1000D0001B0100081B0100081B0100081B01000890
:1000E0001B0100081B0100081B010008DFF80CD0F1
:1000F00000F02AF800480047654A0108280E002051
:100100000648804706480047FEE7FEE7FEE7FEE7B1
:10011000FEE7FEE7FEE7FEE7FEE7FEE7E14801084F
:10012000ED0000080649074A0868504343F23902C7
:10013000104408604008704701490860704700009B
:10014000780000206D4EC641064C074D06E0E06881
:1001500040F0010394E8070098471034AC42F6D30E
:10016000FFF7C8FF944A0108B44A010830B50023DC
:10017000474D03EB430428552C446170A2705B1C6F
:10018000DBB21E2BF5D30023424D03EB430428556D
:100190002C446170A2705B1CDBB2282BF5D30023CA
:1001A0003D4D03EB430428552C446170A2705B1C49
:1001B000DBB2182BF5D30023384D03EB430428554D
:1001C0002C446170A2705B1CDBB20A2BF5D30023B8
:1001D000334D03EB430428552C446170A2705B1C23
:1001E000DBB21E2BF5D300232E4D03EB4304285521
:1001F0002C446170A2705B1CDBB2182BF5D300237A
:10020000294D03EB430428552C446170A2705B1CFC
:10021000DBB2242BF5D30023244D03EB43042855F4
:100220002C446170A2705B1CDBB2152BF5D300234C
:1002300003EB43042C4404F83F0F6170A2705B1C75
:10024000DBB21B2BF4D3002303EB43042C4404F850
:10025000900F6170A2705B1CDBB2042BF4D30023FF
:1002600003EB43042C4404F89C0F6170A2705B1CE8
:10027000DBB21E2BF4D3002303EB43042C4404F81D
:10028000F60F6170A2705B1CDBB2032BF4D330BDA0
:100290007C000020D60000204E010020C106002076
:1002A00096010020F001002038020020A402002066
:1002B0000548C178012906D10021C17000221146EC
:1002C0001046FFF753BF70473500002010B500F00F
:1002D00099FB4FF48034204600F0DEFB00F026FC52
:1002E000012801D000F08EFB4FF48011204600F071
:1002F00009FC012000F000FC022000F00DFC0020B1
:1003000000F0C0FB002000F0EDFB4FF4806000F037
:10031000DFFBBDE8104000F0ADBB00002DE9F00FA1
:100320000020DFF8C4C1714E9CF800A0BAF1000FA4
:1003300047D03546DFF8B891012700210324FA237E
:100340006C4A2D784FF00C08BAF1050F39D2DFE86E
:100350000AF0AB03396EA600022D15D002253570C8
:1003600089F80080B0FBF4F504FB150575B1B0FB0E
:10037000F4F504FB1505012D0FD0B0FBF4F504FBDB
:100380001505022D10D015E0317017E000EB400587
:10039000535515446970A9700CE000EB40055155A8
:1003A00015446B70A97005E000EB400553551544EA
:1003B0006B70AB70401CC0B21028D3D3F7708CF8B0
:1003C000001071E0032D14D0347089F80080B0FB68
:1003D000F4F504FB150575B1B0FBF4F504FB150548
:1003E000012D0FD0B0FBF4F504FB1505022D10D044
:1003F00015E0317017E000EB400553551544697066
:10040000A9700CE000EB4005515515446B70A970C4
:1004100005E000EB4005535515446B70AB70401C74
:10042000C0B21028D3D3F7708CF800103CE0012D37
:1004300014D0377089F80080B0FBF4F504FB150583
:1004400075B1B0FBF4F504FB1505012D0FD0B0FB21
:10045000F4F504FB1505022D10D018E031701AE0F8
:1004600000EB4005535515446970A9700FE000EB8F
:100470004005515515446970AB7008E000EB40052C
:100480004FF0960802F8058015446B70AB70401C65
:10049000C0B21028D0D3F7708CF8001004E004200C
:1004A0003070F7708CF800103078052818D2DFE82B
:1004B00000F003070B0F1300BDE8F00FFFF7F8BEC5
:1004C000BDE8F00F00F0BEBDBDE8F00F03F0F6BFD1
:1004D000BDE8F00F0CF0EAB8BDE8F00F00F038BA54
:1004E000BDE8F00F7047000001000020350000203B
:1004F00004000020DF0600202DE9F0410022CC7826
:1005000004F00F03E40601D58C7823430C784FF0F8
:100510000F0714F0FF0F4FF0010C1CD005680CFA08
:1005200002F40E882640A64211D1960007FA06F87A
:1005300025EA080503FA06F848EA0505CE78282ECC
:1005400002D0482E02D002E0446100E00461521C57
:10055000082AE4D305600A88FF2A1ED945680022CC
:1005600002F108060CFA06F40E882640A64210D1C5
:10057000960007FA06F825EA080503FA06F848EA9D
:100580000505CE78282E00D14461CE78482E00D1C2
:100590000461521C082AE3D34560BDE8F0810000E5
:1005A00038B501211C2000F01FFA3820ADF80000FA
:1005B00048248DF80340154D69462846FFF79CFFF7
:1005C000A915ADF800108DF8034003248DF8024002
:1005D00069462846FFF790FF6814ADF8000014251F
:1005E0008DF803508DF8024069460948FFF784FFF3
:1005F0004FF47040ADF800008DF803508DF80240C4
:1006000069460448FFF778FF38BD00000008014044
:1006100000100140000C01400246002092680A428E
:1006200000D00120704701617047704710B54FF44A
:1006300080711048FFF7F0FF0F49012228B10878B8
:10064000031F042B06D24A7010E00878401C087083
:100650008A7010BDA0F10802052A02D2022048705B
:1006600004E00D38052801D20320487000200870EE
:10067000887010BD00080140000000202DE9F84FEF
:10068000002700F06BFAA54CA54D4FF4807620783A
:1006900068B9ADF8006014208DF8030003208DF8D0
:1006A00002009F4869461438FFF726FF2E60DFF8E6
:1006B00074C2DFF874824FF4004908F104011CF899
:1006C000013B002218060ED4C8F8009000BF00BFFE
:1006D00000BF00BF00BFC1F800900020401CC0B2A6
:1006E0000328FBD308E0C8F800900020401CC0B2EB
:1006F0000628FBD3C1F800900320401EC0B2FCD2F4
:100700005806030E521CD2B2082ADBD37F1CBFB29C
:10071000A82FD4D3DFF814C200274FF480491CF867
:10072000013B002218060ED4C8F8009000BF00BF9D
:1007300000BF00BF00BFC1F800900020401CC0B245
:100740000328FBD308E0C8F800900020401CC0B28A
:100750000628FBD3C1F800900320401EC0B2FCD293
:100760005806030E521CD2B2082ADBD37F1CBFB23C
:100770009C2FD4D3DFF8B4C10CF19C0C00274FF4AC
:1007800000591CF8013B002218060ED4C8F800904E
:1007900000BF00BF00BF00BF00BFC1F80090002035
:1007A000401CC0B20328FBD308E0C8F8009000202A
:1007B000401CC0B20628FBD3C1F800900320401EA5
:1007C000C0B2FCD25806030E521CD2B2082ADBD3A8
:1007D0007F1CBFB2BD2FD4D394F800B0BBF1000F83
:1007E00031D1DFF840C10CF1A80C0027DFF830A1AF
:1007F000AAF1040A1CF8013B002218060DD4CAF81D
:10080000006000BF00BF00BF00BF00BF2E6000201F
:10081000401CC0B20328FBD307E0CAF800600020E8
:10082000401CC0B20628FBD32E600320401EC0B27D
:10083000FCD25806030E521CD2B2082ADDD37F1C0C
:10084000BFB2962FD6D33A4D00244FF4805715F8F7
:10085000013B002218060DD4C8F8007000BF00BF8D
:1008600000BF00BF00BF0F600020401CC0B20328C3
:10087000FBD307E0C8F800700020401CC0B2062877
:10088000FBD30F600320401EC0B2FCD25806030EFB
:10089000521CD2B2082ADDD3641CA4B2692CD6D370
:1008A000234C69340023234D14F8012B002110063A
:1008B0000ED4C5F8109000BF00BF00BF00BF00BF3E
:1008C000C5F814900020401CC0B20328FBD308E0F8
:1008D000C5F810900020401CC0B20628FBD3C5F814
:1008E00014900320401EC0B2FCD25006020E491CD8
:1008F000C9B20829DBD35B1C9BB21E2BD4D3BBF13E
:10090000000F09D1ADF8006048208DF803000448BD
:1009100069461438FFF7F0FDBDE8F88F02000020AB
:1009200014080140FC040020100C0140A303002027
:100930003A0600200010014010B5FFF7C7FCFFF792
:100940002FFE14F00BF8BDE81040FFF76EBE00005C
:1009500070B51C4E0025A6F13104F078012811D0A5
:10096000607E401CC0B260761E280AD36576207F68
:10097000B0B101281DD0002211461046FFF7F6FB4A
:10098000357070BDF5706576257700221146FF2021
:10099000FFF7ECFBBDE8704040210B48FFF743BE7A
:1009A0000022FF211046FFF7E1FB207F401C20774B
:1009B00070BD0021FF220846FFF7D8FB207F401CB6
:1009C000207770BD3500002000080140054A00294D
:1009D00003D0D1690143D1617047D1698143D161AD
:1009E0007047000000100240054A002903D09169B9
:1009F00001439161704791698143916170470000A3
:100A0000001002400C48016841F00101016041689A
:100A10000A4A114041600168094A114001600168B9
:100A200021F480210160416821F4FE0141604FF40E
:100A30001F01816070470000001002400000FFF8B5
:100A4000FFFFF6FE034600205909094A01290AD092
:100A500002290AD0516A03F01F02012393400B427E
:100A600000D0012070471168F5E7116AF3E7000034
:100A7000001002400248406800F00C00704700007F
:100A800000100240034A516821F0F0010143516017
:100A900070470000001002400C490A6822F48032BE
:100AA0000A600A6822F480220A60B0F5803F07D00D
:100AB000B0F5802F03D1086840F4A020086070478B
:100AC000086840F480300860704700000010024061
:100AD000034A516821F4E06101435160704700000E
:100AE00000100240034A516821F4605141EAC000FD
:100AF00050607047001002400149086670470000CE
:100B000000004242034B5A6822F47C12084310430F
:100B10005860704700100240034A516821F00301F9
:100B200001435160704700000010024018B50020DA
:100B300000904FF4A0643120FFF784FF0099491C16
:100B400000910099A14201D00028F4D03120FFF794
:100B500079FF08B1012018BD002018BD2DE9F04330
:100B60000020FE4C032204F20D2900EB40010B197A
:100B70005D78B5FBF2F509F80150655C4944B5FBB9
:100B8000F2F54D709B78B3FBF2F38B70401CC0B252
:100B90001E28EAD31E20DFF8C883C0F1270101EB2D
:100BA000410318F80310B1FBF2F400EB400109F81F
:100BB0000140434449445C78B4FBF2F44C709B78A8
:100BC000B3FBF2F38B70401CC0B22828E5D3282079
:100BD000DFF88CC30CF15A0CA0F1280101EB4103A2
:100BE0001CF80310B1FBF2F400EB400109F80140DE
:100BF000634449445C78B4FBF2F44C709B78B3FBDB
:100C0000F2F38B70401CC0B23428E5D30020D34EE1
:100C10005A3606F24F27C0F1170101EB41039C1928
:100C20006178B1FBF2F500EB40017D54F35C39448F
:100C3000B3FBF2F34B70A378B3FBF2F38B70401C61
:100C4000C0B21828E7D31820A0F10E0101EB410330
:100C500018F80310B1FBF2F400EB40017C5443445C
:100C600039445C78B4FBF2F44C709B78B3FBF2F33C
:100C70008B70401CC0B21F28E6D31F20C0F1340186
:100C800001EB41031CF80310B1FBF2F400EB40014F
:100C90007C54634439445C78B4FBF2F44C709B7828
:100CA000B3FBF2F38B70401CC0B22928E6D3292095
:100CB000AA4D483DA0F1290101EB4103E95CB1FBDC
:100CC000F2F400EB40017C542B4439445C78B4FBD3
:100CD000F2F44C709B78B3FBF2F38B70401CC0B203
:100CE0003828E7D33820C0F13E0101EB41011CF860
:100CF0000130B3FBF2F400EB4003FC5461443B448D
:100D00004C78B4FBF2F45C708978B1FBF2F1997025
:100D1000401CC0B23F28E6D30020904EA23606F514
:100D20003177C0F1230101EB41039C196178B1FBDC
:100D3000F2F500EB40017D54F35C3944B3FBF2F370
:100D40004B70A378B3FBF2F38B70401CC0B2242825
:100D5000E7D32420A0F1130101EB410118F8013081
:100D6000B3FBF2F400EB4003FC5441443B444C78A9
:100D7000B4FBF2F45C708978B1FBF2F19970401C1D
:100D8000C0B22E28E6D32E20C0F14D0101EB410365
:100D90001CF80310B1FBF2F400EB40017C546344F7
:100DA00039445C78B4FBF2F44C709B78B3FBF2F3FB
:100DB0008B70401CC0B23828E6D30020694DA5F5E1
:100DC000407408287ED011287CD01A287AD000EBF5
:100DD00040010B1913F83F6FB6FBF2F66E545E78C4
:100DE0002944B6FBF2F64E709B78B3FBF2F38B709E
:100DF000401CC0B21B28E4D31B20A0F11B0101EB57
:100E00004101214411F8903FB3FBF2F3C3F1FF0617
:100E100000EB4003EE544E782B44B6FBF2F6C6F1DD
:100E2000FF065E708978B1FBF2F1C1F1FF019970A4
:100E3000401CC0B21D28E0D31D20A0F11D0101EB14
:100E40004103E15C4E0800EB40016E542344294409
:100E50005E78B6FBF2F64E709B78B3FBF2F38B70C4
:100E6000401CC0B23228E8D300203E4B9633811C90
:100E700001EB4101214411F8905FB5FBF2F5C5F19A
:100E8000FF0600EB40055E554E781D44B6FBF2F6BA
:100E9000C6F1FF066E708978B1FBF2F1C1F1FF0176
:100EA000A970401CC0B20228E1D30220811E01EBD0
:100EB0004101214411F89C5FB5FBF2F600EB4005BF
:100EC0005E5500E050E04E781D44B6FBF2F66E70C1
:100ED0008978B1FBF2F1A970401CC0B22028E5D39B
:100EE0002020A0F1200101EB4101214411F8F65F1F
:100EF000B5FBF2F5C5F1FF0600EB40055E554E78F7
:100F00001D44B6FBF2F6C6F1FF066E708978B1FBA0
:100F1000F2F1C1F1FF01A970401CC0B22328E0D357
:100F2000104B99F80100FF33187099F800005870C1
:100F300099F802009870012000EB400119F8012097
:100F40005A5401EB0902194454784C7092788A7013
:100F5000401CC0B20A28EFD3BDE8F0839601002000
:100F60007C000020A405002000EB40010B1913F8C1
:100F70003F6FB6FBF2F676006E545E782944B6FBFE
:100F8000F2F64E709B78B3FBF2F38B7030E700F013
:100F900001B800000CB500220192009227480168B8
:100FA00041F4803101604FF4A063016801F4003125
:100FB00000910199491C0191009911B90199994237
:100FC000F3D10168890302D50121009100E000926C
:100FD0000099012930D11A490A6842F010020A60CA
:100FE0000A6822F003020A600A6842F002020A60FC
:100FF0004168416041684160416841F480614160FD
:10100000416821F47C114160416841F4E81141607C
:10101000016841F08071016001688901FCD5416877
:1010200021F003014160416841F0020141604168E3
:10103000C1F381010229FAD10CBD00000010024069
:101040000020024030B4264C0023A4F13102E078A5
:1010500001281AD0108C401C80B210840121012874
:101060001CD0B0F5E67F1CD0A0F51065CE3D08D0B1
:10107000A0F55065113D17D0A0F570650A3D17D059
:1010800018E002209076D17614E0E3701384937612
:10109000002230BC11461046FFF768B89376D1762F
:1010A00008E09176D17605E003209076D17601E0D4
:1010B0001384E170907E40B1012809D002280AD043
:1010C00003280BD130BC02F0A3BE30BC00F00AB83C
:1010D00030BC00F077B830BC01F0D8BE30BC7047EF
:1010E000350000202DE9F041344C0025E07E012838
:1010F00006D0607E022811D2401C6076BDE8F081E7
:10110000E576002211461046FFF730F865766574E3
:10111000A574E574657025742577EFE76576274833
:10112000277F4178427C837CC67C491C007CC9B205
:1011300017B1012F3AD124E0DFF884C000EB400062
:101140004FF019081CF80070B7FBF8F727758444B6
:101150009CF80100B0FBF8F060759CF802C0BCFB85
:10116000F8FC84F816C03A4462741844A07406EB84
:101170000C00E0746170192918D365700120207784
:1011800014E0277DD21B6274627D9A1AA274A27D3C
:10119000B21AE2746170192908D365702577401C72
:1011A000C0B22074022801D902202077E27CA17C01
:1011B000607CBDE8F041FEF7D9BF000004000020CC
:1011C000DF0600202DE9F04FA1B0FE48C07E0128C7
:1011D00044D0FC48FC4C427EC678521C02F0FF0A08
:1011E000721C90F81CB0D2B2209290F8069009F1CF
:1011F0000102D2B21F9290F8058008F10102D2B22A
:101200001E9290F804C00CF10102D2B21D92C7796F
:101210007A1CD2B21C92057A6A1CD2B21B92437A13
:101220005A1CD2B21A920BF10102D2B21992017C6D
:101230004A1CD2B21892027801EB41010819BBF1A5
:10124000090F81F00D86DFE81BF06900500374067A
:1012500056097406560974065609420CD94C0025E5
:10126000E576002211461046FEF780FF6576257769
:101270006570D549303160780D54401CC0B2607043
:101280001E28F8D36570D0498E3160780D54401C0B
:10129000C0B260700A28F8D36570CB4976316078A7
:1012A0000D54401CC0B260701828F8D36570C64950
:1012B0004E3160780D54401CC0B260702828F8D3BD
:1012C0006570C149983160780D54401CC0B260709F
:1012D0001E28F8D36570BC49B63160780D54401CA7
:1012E000C0B260701828F8D36570B749CE31607805
:1012F0000D54401CC0B260702428F8D3A5716571EC
:10130000E570E571257265722571A572E572257328
:10131000A5736573257621B0BDE8F08FDFF8A49240
:1013200089F819A0BAF1050FF5D3002789F81970CB
:1013300001254FF01E0B1E2E33D2DFF88C825E4645
:1013400008F13008B9F81E00FEF7F6FEB9F81E00E5
:101350001D30A9F81E00FEF7E5FEC0B2B0FBF6F1A5
:1013600006FB110089F8020018F800000128E9D0F6
:1013700099F8020008F80050810889F8101001EB74
:101380004101924E00EB4000635C335421443044F1
:101390004B7843708978817099F80300401C89F874
:1013A000030099F806004E460A282ED2DFF818A24C
:1013B0004FF00A080AF18E0AF08BFEF7BDFEF08BA3
:1013C0001D30F083FEF7AEFEC0B2B0FBF8F108FBB3
:1013D0001100B0701AF800000128EDD0B0780AF8BA
:1013E00000508108317401EB4101DFF8E4C100EBEA
:1013F0004000635C0CF80030214460444B7843703B
:1014000089788170B079401CB07170794FF01808FC
:1014100018282CD2DFF8B09109F17609F08BFEF78D
:101420008BFEF08B1D30F083FEF77CFEC0B2B0FB6C
:10143000F8F108FB1100B07019F800000128EDD098
:10144000B07809F800508108317401EB4101DFF8F0
:1014500084C100EB4000635C0CF800302144604420
:101460004B784370897881707079401C7071307945
:1014700028282CD2DFF850914FF0280A09F14E09A4
:10148000F08BFEF759FEF08B1D30F083FEF74AFE1D
:10149000C0B2B0FBFAF10AFB1100B07019F80000FD
:1014A0000128EDD0B07809F800508108317401EBC3
:1014B0004101494B00EB4000625C1A54214418443E
:1014C0004A784270897881703079401C3071F079A7
:1014D0001E282BD2DFF8F090DA4609F19809F08B3C
:1014E000FEF72AFEF08B1D30F083FEF71BFEC0B224
:1014F000B0FBFAF10AFB1100B07019F800000128E6
:10150000EDD0B07809F800508108317401EB410149
:10151000324B00EB4000625C1A54214418444A7874
:10152000427089788170F079401CF071307A182807
:101530002AD2DFF8949009F1B609F08BFEF7FCFD92
:10154000F08B1D30F083FEF7EDFDC0B2B0FBF8F17B
:1015500008FB1100B07019F800000128EDD0B07838
:1015600009F800508108317401EB41011C4B00EB7C
:101570004000625C1A54214418444A7842708978C9
:101580008170307A401C3072707A242840D2DFF8A3
:1015900038904FF0240A09F1CE09F08BFEF7CCFD0C
:1015A000F08B1D30F083FEF7BDFDC0B2B0FBFAF149
:1015B0000AFB1100B07019F800000128EDD0B078D6
:1015C00010E0000004000020DF0600207C00002066
:1015D000C10600204E010020D60000209601002008
:1015E000F001002009F800508108317401EB41013D
:1015F000DFF85CC500EB4000635C0CF80030214470
:1016000060444B78437089788170707A401C7072A6
:10161000B07A4FF00C094FF00D0A4FF0040E0C2871
:101620007DD2401CC0B2B072DFF828C50D285ED252
:10163000DFE800F05D070F181F232D353C404A54AA
:101640005A008CF800708CF8015002218CF80210BE
:101650004DE003218CF800108CF801E005218CF896
:10166000021044E006218CF8001007218CF80110CC
:101670003DE008218CF8021039E009218CF80010B7
:101680000A218CF801100B218CF802102FE08CF845
:1016900000908CF801A00E218CF8021027E00F2199
:1016A0008CF8001010218CF8011020E011218CF82A
:1016B00002101CE012218CF8001013218CF801108C
:1016C00014218CF8021012E015218CF8001016215C
:1016D0008CF8011017218CF8021008E08CF80080BB
:1016E00019218CF8011002E01A218CF80210401E1A
:1016F000C11700EB9170C0F38700307400EB40011C
:10170000605C70740A195178B1749278F2749CF824
:101710000030DFF8448403EB4303434400E015E06A
:1017200003F83F0F59709A709CF8013003EB4303A4
:10173000434403F83F0F59709A709CF8023003EB52
:101740004303434403F83F0F59709A70F07A072817
:1017500065D2401CC1B2F172FE48C01C082933D2C8
:10176000DFE801F032040A10171E252C077007214C
:1017700041700E21817027E00570082141700F2112
:10178000817021E0022101700921417010218170D6
:101790001AE0032101700A2141701121817013E0C8
:1017A00080F800E00B214170122181700CE00521CE
:1017B000017080F801901321817005E0062101700D
:1017C00080F801A014218170017894F809C001EB20
:1017D0004102E14901F802C00A4494F80AC082F8C3
:1017E00001C094F80BC082F802C0427894F80CC093
:1017F00002EB420201F802C00A4494F80DC082F8DC
:1018000001C094F80EC082F802C08078E27B00EB41
:1018100040000A540844227C4270617C8170327B13
:10182000062A1FD2777002EB4200DFF82CA3235C5C
:10183000204402EB820990F801C090F80280707891
:1018400009EB000101EB4101514481F89C3081F822
:101850009DC081F89E80401CC0B270700528EED3F8
:10186000521C3273B07B03280DD2BB4A00EB4001FF
:101870000A44635C02F8F63F21444B785370897840
:101880009170401CB073777022786378A478DFF889
:10189000C8C2707800EB4001614401F8902F4B7092
:1018A0008C70401CC0B270700428F2D330792828A4
:1018B000FFF431AD307F401C3077A648801D0570A5
:1018C0000221417003218170C01C80F800E00521D5
:1018D0004170062181700A300170C01F80F800E05D
:1018E000F573B772F772377315E5DFF86892A9F1EF
:1018F000220989F819A0BAF10A0FF5D34FF0000EAA
:1019000089F819E0954F97F81BC089F811C097F82E
:101910001C8089F8128097F81DA089F813A009206F
:1019200089F8020099F80200431E03EB430500EB1F
:1019300040017E5D7E54E819394445784D708078C9
:101940008870D8B289F802000028EBD187F800C06F
:1019500087F8018087F802A0814E96F8457089F8D3
:10196000117096F846C089F812C096F8478089F839
:101970001380172089F8020099F80200431E03EB38
:10198000430500EB400116F805A006F801A0A819D0
:10199000314445784D7080788870D8B289F802005B
:1019A0000028E9D1377086F801C086F802806D4EB4
:1019B00096F8577089F8117096F858C089F812C0D7
:1019C00096F8598089F813801D2089F8020099F84B
:1019D0000200431E03EB430500EB400116F805A08F
:1019E00006F801A0A819314445784D7080788870B8
:1019F000D8B289F802000028E9D1377086F801C012
:101A000086F80280584E96F8577089F8117096F84B
:101A100058C089F812C096F8598089F813801D20A3
:101A200089F8020099F80200431E03EB430500EB1E
:101A3000400116F805A006F801A0A8193144457820
:101A40004D7080788870D8B289F802000028E9D1FA
:101A5000377086F801C086F80280444E96F84570CB
:101A600089F8117096F846C089F812C096F8478038
:101A700089F81380172089F8020099F80200431EA4
:101A800003EB430500EB400116F805A006F801A0A2
:101A9000A819314445784D7080788870D8B289F89B
:101AA00002000028E9D1377086F801C086F802806C
:101AB000274E96F8697089F8117096F86AC089F80F
:101AC00012C096F86B8089F81380232089F80200F1
:101AD00099F80200431E03EB430500EB400116F8A2
:101AE00005A006F801A0A819314445784D7080780A
:101AF0008870D8B289F802000028E9D1377086F8DA
:101B000001C086F802801A4E96F8757089F8117037
:101B100096F876C089F812C096F8778089F8138015
:101B2000272089F8020099F80200431E03EB4305C1
:101B300000EB400116F805A006F801A0A8193144F1
:101B400045784D7080788870D8B289F8020011E02D
:101B50003802002026000020A4020020C106002038
:101B60004E0100207C00002096010020F0010020A2
:101B7000D60000200028D6D1377086F801C086F83C
:101B8000028099F81800401CC0B289F81800032898
:101B90007DD389F818E089F801E0FF48FD4D007811
:101BA000179000EB4000011914F800C08E784F78B0
:101BB00099F8018008EBC80B5B460BF1070B0BEBA8
:101BC0004B0003F1080B28440BEB4B01294490F820
:101BD0003FA081F83FA090F840A081F840A090F885
:101BE00041A081F841A003F1050B0BEB4B01294407
:101BF00091F83FA080F83FA091F840A080F840A065
:101C000091F841A080F841A003F1060B0BEB4B00CB
:101C1000284491F83FA080F83FA091F840A080F8B8
:101C200040A091F841A080F841A003F1020B0BEB1A
:101C30004B00284410F83FAF81F83FA090F801A076
:101C400081F840A090F802A081F841A003F1040BB4
:101C50000BEB4B01294490F800A081F83FA090F8CD
:101C600001A081F840A090F802A081F841A003F102
:101C7000030B0BEB4B01294490F800A081F83FA027
:101C800090F801A081F840A090F802A000E027E1C0
:101C900081F841A080F800C04770867003F1010B05
:101CA0000BEB4B00411901F83FCF4F708E7008EBE2
:101CB000C80000EB4000411901F83FCF4F708E7013
:101CC00008F1010808F0FF0189F801100329FFF469
:101CD0006FAF99F80A00401CC0B289F80A000428C6
:101CE0000AD389F80AE01798AB49401CC0B20870C3
:101CF000904201D381F800E0F34689F801E0CC4638
:101D000006208CF802009CF80110C1EBC1089CF879
:101D1000023008EB0300461E06EB460600EB4000CF
:101D2000AF5D2F542E44284477784770B67886707C
:101D30005B1ED8B28CF802000028E8D1964FFF1C39
:101D4000387800EB4003C1EBC10000EB4000E65CDB
:101D50002E54234428445E7846709B788370491C37
:101D6000C8B28CF801000328CAD39CF80B00401CB1
:101D7000C0B28CF80B00072813D38CF80BB08CF88A
:101D800001B09CF80100395C491CC9B23954914238
:101D900001D307F800B0401CC0B28CF80100032842
:101DA000EFD305208CF801008CF802B09CF801807C
:101DB00008EB88079CF80230F918481F00EB400038
:101DC000284401EB4101294410F89C6F01F89C6FF5
:101DD00046784E70807888705B1CD8B28CF8020010
:101DE0000528E7D3A8F1010808F0FF008CF80100EE
:101DF0000028D9D18CF802B0DFF89CA10AF10D0AB5
:101E00009AF8008008EB4800235C204446788778E5
:101E10009CF8021001EB4100284400F89C3F4670FA
:101E20008770491CC8B28CF802000528F0D308F16D
:101E3000010808F0FF008AF80000904201D38AF8F8
:101E400000B002208CF801009CF801000346401EFF
:101E5000064600EB4000411903EB4300284411F80B
:101E6000F67F00F8F67F4B78437089788170F0B286
:101E70008CF801000028E7D1474B9B1D197801EB36
:101E80004100265C05F8F66F204446786E70807835
:101E9000A870F63D491CC8B21870904201D383F86F
:101EA00000B09CF80F6006EB4600235C20444478A9
:101EB00087789CF8011001EB4100284400F8903F1E
:101EC00044708770491CC8B28CF801000428F0D314
:101ED000761CF0B28CF80F00904201D38CF80FB052
:101EE00099F81700401CC0B289F817005028FFF479
:101EF000FBAC89F817E0199889F81C0089F806E00E
:101F000089F805E089F803E089F807E089F808E036
:101F100089F809E089F804E089F80AE089F80BE01B
:101F200089F80CE089F80EE089F80DE089F810E0F6
:101F3000DAE4DFF864B0ABF1280B8BF819A0BAF142
:101F4000140FF5D3DA464FF0000E8AF819E0B9F114
:101F5000050F42D2F3468AF802B090F802A0CDF8FD
:101F600058A090F801A0CDF854A014F801A0CDF825
:101F700050A0DFF824A0DDF850B0AAF1280A9AF8A2
:101F800002A0CDF84CA00AEB8A0ACA440AEB4A0A1E
:101F900004E00000A40200202C000020DFF820E56F
:101FA0000EF80AB0F244DDF854B08AF801B0DDF85A
:101FB00058B08AF802B0DDF84CA0DFF808B50AF195
:101FC000010A0AF0FF0A8BF802A0BAF1020FD0D37F
:101FD000D946DDF87CA089F806A0B8F1060F3ED2FC
:101FE000DFF8E0A44FF000098AF8029090F8029020
:101FF000CDF8489090F80190CDF84490DFF8C8B43F
:1020000014F80190CDF84090DFF8B894DDF840A0C6
:1020100099F80290CDF83C9009EB490908EB490981
:1020200009EB49090BF809A0D944DDF844A089F867
:1020300001A0DDF848A089F802A0DDF83C90DFF8A7
:1020400084A409F1010909F0FF098AF80290B9F1A5
:10205000040FD9D3D146DDF8788089F80580DFF800
:1020600064E4062E2BD24FF000088EF802809EF812
:10207000029009EB490806EB4808B8F11D0F12D28F
:10208000DFF848A408EB480814F801B00AF808B0D3
:10209000DFF838B490F801A0D84488F801A090F88F
:1020A00002A088F802A009F1010909F0FF088EF8E2
:1020B0000280B8F1050FDAD3209E8EF80360BCF1E0
:1020C000080F2CD2FF4E4FF0000886F80280867869
:1020D0000E9646780D96DFF8F8B314F801A0F94E85
:1020E00096F802800CEBC80606EB46060BF806A035
:1020F0005E44DDF8349086F80190DDF8389086F87B
:10210000029008F1010808F0FF06DFF8B88388F8AC
:102110000260052EE3D3C4461D9E8CF80460062F92
:1021200029D2E84E4FF0000C86F802C0DFF8A4A3D5
:1021300090F802B090F8018014F80190E14E96F802
:1021400002C00CEB4C0607EB460606EB46060AF807
:102150000690564486F8018086F802B00CF1010C16
:102160000CF0FF06DFF85CC38CF80260052EE5D3A7
:1021700067461C9EFE71DFF84C93062D22D2002686
:1021800089F80260DFF850C390F802A090F801B01F
:1021900014F8018099F8027007EB470605EB460634
:1021A00006EB46060CF80680664486F801B086F811
:1021B00002A07F1CFEB289F80260042EEAD31B9DA8
:1021C00089F80850062B21D2002589F80250C34F08
:1021D00090F8028090F801A014F801C099F802600C
:1021E00006EB460503EB450505EB450507F805C07D
:1021F0003D4485F801A085F80280761CF5B289F887
:102200000250062DEAD31A9B89F809304FF0000ED0
:1022100089F801E08378B24F4078615C99F80160F9
:1022200006EBC60A54460AF1070A0AEB4A0504F10E
:10223000080A3D440AEB4A0CBC4495F83F808CF8F0
:102240003F8095F840808CF8408095F841808CF86C
:10225000418004F1050A0AEB4A0CBC449CF83F801B
:1022600085F83F809CF8408085F840809CF841804C
:1022700085F8418004F1060A0AEB4A053D449CF8C2
:102280003F8085F83F809CF8408085F840809CF82E
:10229000418085F8418004F1020A0AEB4A053D4479
:1022A00015F83F8F8CF83F8095F801808CF84080BE
:1022B00095F802808CF8418004F1040A0AEB4A0C7C
:1022C000BC4495F800808CF83F8095F801808CF82C
:1022D000408095F802808CF8418004F1030A0AEBF3
:1022E0004A0CBC4495F800808CF83F8095F801803A
:1022F0008CF8408095F802808CF8418029706870D5
:10230000AB70641C04EB44043C4404F83F1F607051
:10231000A37006EBC60404EB44043C4404F83F1FDE
:102320006070A370761CF4B289F80140032CFFF4AE
:1023300075AF89F801E0062489F8024099F8015048
:10234000C5EBC50A99F802600AEB0604A4F1010C7A
:102350000CEB4C0C04EB440417F80C8007F80480D9
:10236000BC443C449CF8018084F801809CF802C085
:1023700084F802C0761EF4B289F80240002CE1D144
:10238000C5EBC50404EB440439553C446070A370AC
:102390006D1CECB289F80140032CCCD3052489F8DC
:1023A0000140F346CE46F0468EF802B098F801A000
:1023B0000AEB8A0998F8026009EB06056C1F04EB2A
:1023C00044043C4405EB45053D4494F89CC085F825
:1023D0009CC094F89DC085F89DC094F89E4085F8F7
:1023E0009E40761CF4B288F80240052CE2D3AAF194
:1023F000010A0AF0FF0488F80140002CD3D18EF8BE
:1024000002B09EF8024004EB44053D4405F89C1FD1
:102410006870AB70641CE4B28EF80240052CF0D3F7
:1024200002248EF801409EF801402646641EA44610
:1024300004EB4404E51906EB46043C4415F8F68F1A
:1024400004F8F68F6E786670AD78A5700CF0FF0416
:102450008EF80140002CE6D107F8F61F7870BB70AB
:10246000F63F9EF8014004EB44053D4405F8901FFB
:102470006870AB70641CE4B28EF80140042CF0D399
:102480009EF804000828FFF453AD19988EF81C003C
:1024900018988EF81000904201D38EF810B08EF884
:1024A00006B08EF805B08EF803B08EF807B08EF83F
:1024B00008B08EF809B08EF804B08EF80AB011E0BA
:1024C000C1060020040000204E0100207C000020F6
:1024D000D600002096010020F001002038020020E4
:1024E000A40200208EF80BB08EF80CB08EF80EB05F
:1024F0008EF80DB01CE5DFF828B58BF819A0BAF1FD
:10250000140FF7D3DA464FF0000E8AF819E0B9F14C
:10251000050F42D2D646DDF87C908EF80690CDF8B5
:1025200030904FF000098EF8029090F80290CDF8AC
:102530002C9090F80190CDF82890DFF8E8B414F8CA
:102540000190CDF82490DFF8D894DDF830E0DDF884
:1025500024A099F80290CDF8209009EB8909A9EB05
:102560000E0909F1050909EB49090BF809A0D9443D
:10257000DDF828A089F801A0DDF82CA089F802A0D8
:10258000DDF82090DFF898A409F1010909F0FF09AE
:102590008AF80290B9F1020FD5D3B8F1060F3FD2F5
:1025A000DFF87C84DDF878B088F805B04FF00009DA
:1025B00088F8029090F80280CDF81C8090F8018095
:1025C000CDF81880DFF860A414F80180CDF81480ED
:1025D000DFF84C84DDF8149098F80280CDF8108074
:1025E00008EB4808CBEB480808F1060808EB480858
:1025F0000AF80890D044DDF8189088F80190DDF8CA
:102600001C9088F80290DDF81080DFF8149408F12F
:10261000010808F0FF0889F80280B8F1040FD7D349
:10262000062E30D2FE4EDDF8808086F803804FF013
:10263000000986F80290FA4E96F8029009EB4906D6
:1026400008EB460ABAF11D0F13D2C8EB4606B61DB9
:10265000DFF8D8B306EB460614F801A00BF806A085
:102660005E4490F801A086F801A090F802A086F8D8
:1026700002A0DFF8ACA309F1010909F0FF068AF80E
:102680000260052ED7D3BCF1080F2DD2E44EDDF841
:1026900074A086F804A04FF0000C86F802C086787B
:1026A000039646780296DFF8889314F801B0DC4E62
:1026B00096F802C0CAEBCC06083606EB460609F8C7
:1026C00006B04E44DDF8088086F80180DDF80C8005
:1026D00086F802800CF1010C0CF0FF06DFF840C315
:1026E0008CF80260052EE2D3DFF83493062F26D251
:1026F000DDF870A089F807A0002689F802608678C6
:10270000019690F801B014F8018099F80270DFF892
:1027100024C307EB4706CAEB4606B61D06EB460682
:102720000CF80680664486F801B0DDF804C086F82F
:1027300002C07F1CFEB289F80260052EE5D3062D8B
:1027400023D2DDF86C8089F80880002589F80250D2
:10275000B94F90F802A090F801B014F801C099F8B0
:10276000026006EB4605C8EB4505AD1D05EB4505CA
:1027700007F805C03D4485F801B085F802A0761C35
:10278000F5B289F80250042DE9D3062B21D2DDF8E9
:1027900068C089F809C0002389F80230A74E90F874
:1027A000028090F801A0675C99F8025005EB4503A0
:1027B000CCEB43039B1D03EB4303F754334483F8F3
:1027C00001A083F802806D1CEBB289F80230062B61
:1027D000EAD34FF0000B89F801B08378984F407826
:1027E000615C99F801C00CEBCC08464608F103087F
:1027F00008EB480406F102083C4408EB4808B844DA
:1028000014F83F5F88F83F50657888F84050A57805
:1028100088F8415006F1010808EB4808B8442578CB
:1028200088F83F50657888F84050A57888F841507E
:102830000CEBCC0505EB45053D4494F8008085F88C
:102840003F8094F8018085F8408094F8028085F8F4
:10285000418006F1060808EB480506F105083D44ED
:1028600008EB4808B84415F83FAF88F83FA095F842
:1028700001A088F840A095F802A088F841A006F1D0
:10288000040808EB4808B84495F800A088F83FA071
:1028900095F801A088F840A095F802A088F841A01A
:1028A00095F8008084F8008095F8018084F8018014
:1028B00095F8028084F8028006F1080808EB4804C5
:1028C00006F107083C4408EB48063E4414F83FAFC5
:1028D00086F83FA094F8018086F8408094F8028042
:1028E00086F8418026782E7066786E70A678AE7075
:1028F00021706070A3700CF1010C0CF0FF0489F8DA
:102900000140032CFFF46DAFC84689F801B0D946E9
:1029100088F8029098F801B0CBEBCB0598F80260EC
:10292000AC1904F1010C0CEB4C0C04EB440417F84B
:102930000CA007F804A0BC443C449CF801A084F817
:1029400001A09CF802C084F802C0761CF4B288F89A
:102950000240062CE2D3AD1D05EB450439553C443D
:102960006070A3700BF1010B0BF0FF0488F80140BD
:10297000032CCDD3CB4688F8019088F802B098F8A4
:1029800001A00AEB8A0998F8026009EB06056C1DA4
:1029900004EB44043C4405EB45053D4494F89CC0DD
:1029A00085F89CC094F89DC085F89DC094F89E4021
:1029B00085F89E40761CF4B288F80240052CE2D3DC
:1029C0000AF1010A0AF0FF0488F80140052CD4D36B
:1029D00088F802B098F8025005F1190404EB440499
:1029E0003C4404F89C1F6070A3706D1CECB288F826
:1029F0000240052CEED388F801B098F80140264635
:102A0000641CA44604EB4404E51906EB46043C446C
:102A100015F8F69F04F8F69F6E786670AD7811E0B1
:102A200004000020C10600204E0100207C00002090
:102A3000D600002096010020F0010020380200207E
:102A4000A4020020A5700CF0FF0488F80140022CBD
:102A5000D3D307F8FC1F7870BB70FC3F88F801B037
:102A600098F8014004EB44053D4405F8901F687058
:102A7000AB70641CE4B288F80140042CF0D398F8E1
:102A800004000828FFF436AD199888F81C0018983F
:102A900088F81000904201D388F810B088F806B08A
:102AA00088F805B088F803B088F807B088F808B04F
:102AB00088F809B088F804B088F80AB088F80BB034
:102AC00088F80CB088F80EB088F80DB012E5E64C26
:102AD00084F819A0BAF10A0FF8D300216176B9F190
:102AE000050F14D2A170DFF884A3A27802EB820054
:102AF000484400EB40000AF80010504441708170D7
:102B0000521CD0B2A0700228EFD31F98A071B8F168
:102B1000060F15D2A170DFF85893A27802EB42009D
:102B200008EB400000EB400009F8001048444170F9
:102B30008170521CD0B2A0700428EED31E98607130
:102B4000062E17D2A170A27802EB420006EB4000DD
:102B50001D2808D2DFF81C8300EB400008F80010A5
:102B6000404441708170521CD0B2A0700528EAD355
:102B70002098E0702646BCF1080F11D2B170BE4C0F
:102B8000B0780CEBC00202EB4202A1542244517017
:102B90009170401CC0B2B0700528F1D31D983071FF
:102BA000062F15D2B170DFF8D4C2B07800EB400226
:102BB00007EB420202EB42020CF802106244517031
:102BC0009170401CC0B2B0700528EED31C98F07113
:102BD000062D13D2B170AA4CB07800EB400205EB81
:102BE000420202EB4202A154224451709170401CF7
:102BF000C0B2B0700428EFD31B983072062B13D2EA
:102C0000B170A04CB07800EB400203EB420202EB43
:102C10004202A154224451709170401CC0B2B07065
:102C20000628EFD31A9870727170974A757805EB81
:102C3000C504E01D00EB400004F10803104403EB61
:102C40004303134490F83FC083F83FC090F840C05E
:102C500083F840C090F841C083F841C0631D03EB86
:102C60004303134493F83FC080F83FC093F840C03B
:102C700080F840C093F841C080F841C0A01D00EB2F
:102C80004000104493F83FC080F83FC093F840C024
:102C900080F840C093F841C080F841C0A01C00EB10
:102CA0004000104410F83FCF83F83FC090F801C0B7
:102CB00083F840C090F802C083F841C0231D03EBA5
:102CC0004303134490F800C083F83FC090F801C05C
:102CD00083F840C090F802C083F841C0E31C03EBC6
:102CE0004303134490F800C083F83FC090F801C03C
:102CF00083F840C090F802C083F841C00170417071
:102D00008170641C04EB4400104400F83F1F4170C4
:102D1000817005EBC50000EB4000104400F83F1F38
:102D2000417081706D1CE8B270700328FFF47EAFB3
:102D300071704FF0060886F802807378C3EBC30CFD
:102D4000B4780CEB0400451E05EB450500EB400094
:102D5000575D1754154410446F784770AD788570EF
:102D6000641EE0B2B0700028EAD1C3EBC30000EBF0
:102D7000400011541044417081705B1CD8B27070D7
:102D80000328D8D305207070B17096F801C00CEB01
:102D90008C07B4783B19581F00EB4000104403EB3C
:102DA0004303134410F89C5F03F89C5F45785D7003
:102DB00080789870641CE0B2B0700528E9D3ACF15B
:102DC000010C0CF0FF0070700028DDD1B170B078FC
:102DD00000EB4003134403F89C1F59709970401C8A
:102DE000C0B2B0700528F2D302207070707804462B
:102DF000401E00EB4003134404EB4404144413F856
:102E0000F65F04F8F65F5D7865709B78A370C0B2DA
:102E100070700028EAD102F8F61F51709170F63AEE
:102E2000707800EB4003134403F8901F59709970B9
:102E3000401CC0B270700428F2D330790828FFF427
:102E400045AE19983077B1717171F170F1713172CD
:102E500071723171B172F1723173B173717335E6A0
:102E60000148FF21017731E604000020C10600205F
:102E70004E0100207C000020D6000020960100209A
:102E8000F001002038020020A40200202DE9F04FBC
:102E9000AFB0FE4CE07E01287ED0237E20462E93EC
:102EA000417E827A2992521CD2B22D92C27A289205
:102EB000521CD2B22C92027B2692521CD2B22B927E
:102EC000827B2792521CD0B2279A2A9002EB4205AD
:102ED000EF4A491C05EB020C04F12200269AC71C9C
:102EE000C9B202EB820A052B7ED3617608297CD316
:102EF0004FF0000884F819804FF0090E84F802E0C2
:102F0000E44BA1780A46491E01EB410502EB42025F
:102F10005E5D9E541D441A446E785670AD7895706F
:102F2000C9B2A1700029ECD183F8008083F8018038
:102F300083F802804FF0170984F80290D64AA178EE
:102F40004B1E03EB430501EB4101565D56541544FE
:102F500011446E784E70AD788D70D9B2A170002991
:102F6000EDD182F8008082F8018082F802804FF073
:102F70001D0B84F802B0C94AA1784B1E03EB430530
:102F800001EB4101565D5654154411446E784E7064
:102F9000AD788D70D9B200E087E0A1700029EBD147
:102FA00082F8008082F8018082F802802721A170D7
:102FB000BB4AA1784B1E03EB430501EB4101565D73
:102FC0005654154411446E784E70AD788D70D9B258
:102FD000A1700029EDD182F8008082F8018082F88A
:102FE000028084F802B001E083E170E0AD4AA1788C
:102FF0004B1E03EB430501EB4101565D565415444E
:1030000011446E784E70AD788D70D9B2A1700029E0
:10301000EDD182F8008082F8018082F8028084F885
:103020000290A14AA1784B1E03EB430501EB41013D
:10303000565D5654154411446E784E70AD788D70BF
:10304000D9B2A1700029EDD182F8008082F8018008
:1030500082F802802321A170944AA1784B1E03EBD1
:10306000430501EB4101565D5654154411446E78F9
:103070004E70AD788D70D9B2A1700029EDD182F873
:10308000008082F8018082F8028029990C297DD283
:103090002D99A1720D2965D2DFE801F0641C232A65
:1030A00030353C43494D545B61000025E5760022F4
:1030B00011461046FDF75AF8657625772574A571F7
:1030C000A572E57225736573A573E57525762FB036
:1030D000BDE8F08F80F800800121417002218170ED
:1030E00040E003210170042141700521817039E025
:1030F0000621017007214170817033E008210170C1
:10310000417081702EE080F800E00A2141700B21AF
:10311000817027E00C2101700D2141700E2181701A
:1031200020E00F2101701021417081701AE01121FF
:103130008170417016E01221017013214170142139
:1031400081700FE0152101701621417080F8029006
:1031500008E01821017019214170817002E01A21E4
:103160008170417001784A4A01EB4101114481F8B4
:103170003F8081F8408081F84180417801EB410136
:10318000114481F83F8081F8408000E00BE081F835
:103190004180807800EB4000104480F83F8080F848
:1031A000408080F841802898072858D22C98E072F7
:1031B000082835D2DFE800F034040B121920272E3E
:1031C00087F80080072078700E20B87028E0012072
:1031D0003870082078700F20B87021E00220387015
:1031E00087F801E01020B8701AE0032038700A2038
:1031F00078701120B87013E0042038700B207870BC
:103200001220B8700CE0052038700C207870132064
:10321000B87005E0062038700D2078701420B87062
:10322000387800EB40011A4800F80180014481F829
:10323000018081F80280797801EB410100F801807A
:10324000014481F8018081F80280B97801EB4101E5
:1032500000F80180084480F8018080F802802698F8
:10326000062828D284F80180094A61780AEB010017
:1032700000EB4000104480F89C8080F89D8080F82E
:103280009E80491CC8B26070052811E0040000202F
:10329000A4020020C10600204E0100207C00002076
:1032A000D600002096010020F00100203802002006
:1032B000DBD32B9820732798032807D28CF8F6804D
:1032C0008CF8F7808CF8F8802A98A07384F8018035
:1032D000FE4A607800EB4001114481F8908081F84B
:1032E000918081F89280401CC0B260700428F0D3B5
:1032F000EDE6F74A517608297ED39146002489F8F5
:103300001940042189F80210DFF8C8838E1F99F84C
:10331000021006EB410202EB420301EB410218F8F6
:10332000035008F81250434408EB42025D78557090
:103330009B789370491EC9B289F802100029E6D122
:1033400099F81010E44B01EB41022591995C88F843
:10335000001013445A7888F801209B7888F80230CE
:1033600099F80240032505EB440505EB45060125C8
:1033700005EB440505EB450518F806B008F805B05F
:103380004644454496F801B085F801B0B678AE7071
:10339000641CE4B289F80240042CE1D3259CCE4E93
:1033A000641C04EB44052494745D88F81B402E448F
:1033B000757888F81C50B67888F81D604FF00B08B7
:1033C00089F80280DFF814B3DFF804836FF0010995
:1033D00098F8028009EB480909EB4909CDF88C906F
:1033E0001BF809E008EB4809CDF888900BF819E0C4
:1033F000DDF88C90D94400E0F0E3CDF8849099F8A2
:1034000001E0DDF888900BEB490989F801E0DDF86F
:1034100084E09EF802E089F802E0DFF8B492A8F1B7
:10342000010808F0FF0889F80280B8F1000FCBD13D
:103430008BF800108BF801208BF80230DFF89082B7
:103440004FF0030998F8028009EB480909EB490B92
:10345000DFF88892CDF880B019F80BE04FF0010B3F
:103460000BEB480B0BEB4B0BCDF87CB009F80BE0EA
:10347000DDF880B0CB44CDF878B09BF801E0DDF802
:103480007CB0D94489F801E0DDF878B09BF802B04F
:1034900089F802B0DFF8389208F1010808F0FF0857
:1034A00089F80280B8F10B0FC8D3DFF8308288F8B2
:1034B000454088F8465088F847604FF00E0889F874
:1034C0000280DFF81CB2DFF808826FF0010998F87B
:1034D000028009EB480909EB4909CDF874901BF803
:1034E00009E008EB4809CDF870900BF819E0DDF819
:1034F0007490D944CDF86C9099F801E0DDF87090A3
:103500000BEB490989F801E0DDF86CE09EF802E078
:1035100089F802E0DFF8B891A8F1010808F0FF0887
:1035200089F80280B8F1000FCDD18BF800108BF82C
:1035300001208BF80230DFF898814FF0030998F8EA
:10354000028009EB480909EB490BDFF89491CDF8AB
:1035500068B019F80BE04FF0010B0BEB480B0BEBCD
:103560004B0BCDF864B009F80BE0DDF868B0CB4444
:10357000CDF860B09BF801E0DDF864B0D94489F87B
:1035800001E0DDF860B09BF802B089F802B0DFF826
:10359000409108F1010808F0FF0889F80280B8F1AD
:1035A0000E0FC8D3DFF8388188F8574088F8585094
:1035B00088F859604FF0130889F80280DFF810810D
:1035C0006FF0010998F8028009EB480909EB490BF3
:1035D000DFF81091CDF85CB008EB480E19F80BB08D
:1035E00009F81EB0DDF85CB0CB44CDF858B009EB5B
:1035F0004E099BF801B089F801B0DDF858B09BF88E
:1036000002B089F802B0DFF8C890A8F1010808F00C
:10361000FF0889F80280B8F1000FCFD1DFF8C4802D
:1036200088F8001088F8012088F80230DFF8A080C0
:103630004FF0030998F8028009EB480909EB490BA0
:10364000DFF8A090CDF854B019F80BE04FF0010B63
:103650000BEB480B0BEB4B0BCDF850B009F80BE024
:10366000DDF854B0CB44CDF84CB09BF801E0DDF868
:1036700050B0D94489F801E0DDF84CB09BF802B0B5
:1036800089F802B0DFF8489008F1010808F0FF0857
:1036900089F80280B8F1130FC8D3DFF8488088F8A2
:1036A000754088F8765088F877604FF00E0889F8F2
:1036B0000280DFF834B0DFF818806FF0010998F865
:1036C000028009EB480909EB49090FE0A402002038
:1036D00004000020C1060020DF0600204E0100206B
:1036E0007C000020D600002096010020CDF84890F4
:1036F0001BF809E008EB4809CDF844900BF819E0F5
:10370000DDF84890D944CDF8409099F801E0DDF813
:1037100044900BEB490989F801E0DDF840E09EF8A0
:1037200002E089F802E0DFF8D096A8F1010808F07D
:10373000FF0889F80280B8F1000FBCD18BF80010A7
:103740008BF801208BF80230DFF8AC864FF00309CC
:1037500098F8028009EB480909EB490BDFF89C96C1
:10376000CDF83CB019F80BE04FF0010B0BEB480B18
:103770000BEB4B0BCDF838B009F80BE0DDF83CB0A3
:10378000CB44CDF834B09BF801E0DDF838B0D94433
:1037900089F801E0DDF834B09BF802B089F802B096
:1037A000DFF8549608F1010808F0FF0889F8028054
:1037B000B8F10E0FC8D3DFF8448688F8574088F870
:1037C000585088F859604FF00B0889F80280DFF8EC
:1037D00030B6DFF824866FF0010998F8028009EB13
:1037E000480909EB4909CDF830901BF809E008EBCE
:1037F0004809CDF82C900BF819E0DDF83090D94449
:10380000CDF8289099F801E0DDF82C900BEB4909F0
:1038100089F801E0DDF828E09EF802E089F802E08E
:10382000DFF8D495A8F1010808F0FF0889F80280B4
:10383000B8F1000FCDD18BF800108BF801208BF878
:103840000230DFF8B4854FF0030998F8028009EBE5
:10385000480909EB490BDFF8A895CDF824B019F811
:103860000BE04FF0010B0BEB480B0BEB4B0BCDF8C8
:1038700020B009F80BE0DDF824B0CB44CDF81CB043
:103880009BF801E0DDF820B0D94489F801E0DDF8CB
:103890001CB09BF802B089F802B0DFF85C9508F123
:1038A000010808F0FF0889F80280B8F10B0FC8D3AF
:1038B000DFF84C8588F8454088F8465088F847601E
:1038C0004FF0110889F80280DFF82C856FF00109AC
:1038D00098F8028009EB480909EB490BDFF82495B9
:1038E000CDF818B008EB480E19F80BB009F81EB067
:1038F000DDF818B0CB44CDF814B009EB4E099BF8B5
:1039000001B089F801B0DDF814B09BF802B089F875
:1039100002B0DFF8E494A8F1010808F0FF0889F884
:103920000280B8F1000FCFD1DFF8D88488F80010FA
:1039300088F8012088F80230DFF8BC844FF00309D2
:1039400098F8028009EB480909EB490BDFF8B494B9
:10395000CDF810B019F80BE04FF0010B0BEB480B52
:103960000BEB4B0BCDF80CB009F80BE0DDF810B009
:10397000CB44CDF808B09BF801E0DDF80CB0D94499
:1039800089F801E0DDF808B09BF802B089F802B0D0
:10399000DFF8649408F1010808F0FF0889F8028054
:1039A000B8F1110FC8D3DFF85C8488F8694088F853
:1039B0006A5088F86B60DFF8408409F12809DDF867
:1039C000A4B098F80080CDF8048099F80080BBF18D
:1039D0000C0F78D2DFF820B4DDF8B4908BF80A90A1
:1039E000B9F10D0F14D2DFE809F08D0714212C3541
:1039F000424F5A616F7C87004FF0000980F80090B9
:103A00004FF0010980F801904FF0020980F8029010
:103A100078E04FF0030980F800904FF0040980F837
:103A200001904FF0050980F802906BE04FF0060915
:103A300080F800904FF0070980F8019080F802901C
:103A400060E04FF0080980F8009080F8019080F85D
:103A5000029057E04FF0090980F800904FF00A09F2
:103A600080F801904FF00B0980F802904AE04FF087
:103A70000C0980F800904FF00D0980F801904FF08C
:103A80000E0980F802903DE04FF00F0980F8009099
:103A90004FF0100980F8019080F8029032E04FF06A
:103AA000110980F8029080F801902BE04FF0120984
:103AB00080F800904FF0130980F801904FF014093E
:103AC00080F802901EE051E04FF0150980F8009058
:103AD0004FF0160980F801904FF0170980F8029016
:103AE00010E04FF0180980F800904FF0190980F8A5
:103AF000019080F8029005E04FF01A0980F80290DA
:103B000080F80190BC48DFF800E3223008EB480958
:103B100000781EF8098000EB400BBC48584480F840
:103B20003F8009EB0E0B9BF8019080F840909BF8CA
:103B300002B080F841B0B0482230407800EB400E2F
:103B4000B248704480F83F8080F8409080F841B0DF
:103B5000A9482230807800EB400EAC48704480F8D1
:103B60003F8080F8409080F841B010E0A2484FF0CC
:103B7000000B80F80AB008F1010808F0FF0089F88E
:103B80000000DDF80480404501D389F800B0DFF87B
:103B90006882DDF8A09008F12B08B9F1070F98F8BA
:103BA00000007DD2DFF85092DDF8B08089F80B80FC
:103BB000B8F1080F60D2DFE808F05F04121F2C395B
:103BC00046534FF0000887F800804FF0070887F849
:103BD00001804FF00E0887F802804DE0F4E04FF0CE
:103BE000010887F800804FF0080887F801804FF03F
:103BF0000F0887F802803FE04FF0020887F8008046
:103C00004FF0090887F801804FF0100887F802800C
:103C100032E04FF0030887F800804FF00A0887F879
:103C200001804FF0110887F8028025E04FF004086A
:103C300087F800804FF00B0887F801804FF01208DA
:103C400087F8028018E04FF0050887F800804FF0F1
:103C50000C0887F801804FF0130887F802800BE00A
:103C60004FF0060887F800804FF00D0887F80180B4
:103C70004FF0140887F8028000EB400B5E48DFF835
:103C800088912530007819F80B8000EB40075F48D9
:103C900000F80780CB4407EB000E9BF8019000E092
:103CA00029E0CDF800908EF801909BF802708EF814
:103CB0000270DFF8449109F1250999F8019009EBA8
:103CC000490B00F80B808344DDF800908BF80190DD
:103CD0008BF80270DFF8209109F1250999F802901C
:103CE00009EB490B00F80B805844DDF8009080F890
:103CF000019087700EE0DFF80091002789F80B70C3
:103D0000401CC0B288F80000DDF80490484501D39B
:103D100088F800702698DFF8E09006281AD2002074
:103D200089F80100394F99F801000AEB000808EB07
:103D30004808B84488F89C1088F89D2088F89E3080
:103D4000401CC0B289F801000528ECD32B9889F8F3
:103D50000C0002E0002089F80C002798032809D203
:103D60008CF8F6108CF8F7208CF8F8302A9889F83F
:103D70000E0002E0002089F80E00002389F80130CF
:103D8000224A99F8010000EB4001114401F8904FDC
:103D90004D708E70401CC0B289F801000428F0D329
:103DA00099F80600401CC0B289F8060006280BD31B
:103DB00089F806302498C0B289F810000199491E8C
:103DC000884201DB89F810300B48C17D491CC9B21B
:103DD000C1756429FFF47BA90021C1752E9A521C7C
:103DE000D2B20276052AF5D38172C1720173417392
:103DF00081732FB0BDE8F08F0400002096010020F1
:103E0000F001002038020020DF060020A40200207C
:103E10002DE9F05FFE4DFF4E1927E87E00240128B2
:103E20001AD02B4695F81CB093F81990187D597D3F
:103E30009A7D93F8118093F812C009F10109DB7C97
:103E400009F0FF0A06F13009BBF1050F1DD2DFE8CA
:103E50000BF01E53849BFD00EC76002211461046A9
:103E6000FCF784F96C766C702C742C773078B0FB8E
:103E7000F7F028757078B0FBF7F06875B078B0FB94
:103E8000F7F0A8756C74AC74EC74BDE8F09F85F81D
:103E900019A0BAF1080FF8D36C764044C0B2687428
:103EA0006144C9B2A9741A44D2B2EA74FCF75EF94B
:103EB0006878401CC0B268700A28E6D96C70287F08
:103EC000401C2877EC75287C401CC0B228742978E7
:103ED000884200D32C74287C00EB4000315CB1FB9D
:103EE000F7F1297530444178B1FBF7F169758078B5
:103EF000B0FBF7F0A875C8E7C0EB0010C0B268745B
:103F0000C1EB0111C9B2A974C2EB0212D2B2EA74B8
:103F1000FCF72CF9E87D401CC0B2E8752828B4D91C
:103F2000EC75287F401C2877287C401CC0B2287480
:103F30002978884200D32C74287C00EB4000315C47
:103F4000B1FBF7F1297530444178B1FBF7F16975A0
:103F50008078B0FBF7F0A87597E7287C00EB40016C
:103F6000705C68748A195178A9749278EA74FCF7C5
:103F7000FDF8E87D401CC0B2E875502885D9EC7585
:103F8000287F401C287780E785F819A0BAF1060F32
:103F9000B1D36C76A8EB0000C0B26874ACEB010141
:103FA000C9B2A9749A1AD2B2EA74FCF7DFF8687839
:103FB000401CC0B268700F289DD96C70287F401CCF
:103FC0002877EC75687809F80040401CC0B268702A
:103FD0001E28F7D36C708F498E3168780C54401CC2
:103FE000C0B268700A28F8D36C708A497631687854
:103FF0000C54401CC0B268701828F8D36C70854906
:104000004E3168780C54401CC0B268702828F8D330
:104010006C708049983168780C54401CC0B268704C
:104020001E28F8D36C707B49B63168780C54401C5C
:10403000C0B268701828F8D36C707649CE316878B1
:104040000C54401CC0B26870242800E00DE0F6D388
:10405000AC716C71EC70EC712C726C722C71AC7276
:10406000EC722C73AC736C730FE785F819A0BAF17E
:10407000050F88D36C76E87801264FF01E081E28BD
:104080001ED2E88BFCF758F8E88B1D30E883FCF76C
:1040900049F8C0B2B0FBF8F108FB1100A87019F89C
:1040A00000000128EDD0A87809F800605A4900EB1B
:1040B00040000C54084444708470E878401CE87058
:1040C000A8794FF00A090A2822D2DFF848A10AF19C
:1040D0008E0AE88BFCF730F8E88B1D30E883FCF79C
:1040E00021F8C0B2B0FBF9F109FB1100A8701AF871
:1040F00000000128EDD0A8780AF80060474900EBDD
:1041000040000C54084444708470A879401CA87185
:1041100068794FF0180A182822D2DFF8F8B00BF1AE
:10412000760BE88BFCF708F8E88B1D30E883FBF78B
:10413000F9FFC0B2B0FBFAF10AFB1100A8701BF83E
:1041400000000128EDD0A8780BF80060344900EB9E
:1041500040000C540844447084706879401C6871B5
:104160002879282823D2DFF8ACB00BF14E0BE88B6E
:10417000FBF7E2FFE88B1D30E883FBF7D3FFC1B20A
:104180002820B1FBF0F200FB1210A8701BF8000011
:104190000128ECD0A8780BF80060224900EB400021
:1041A0000C540844447084702879401C2871E879C4
:1041B0001E2822D2DFF85CB00BF1980BE88BFBF7DE
:1041C000BBFFE88B1D30E883FBF7ACFFC0B2B0FB50
:1041D000F8F108FB1100A8701BF800000128EDD0D1
:1041E000A8780BF80060104900EB40000C5408441C
:1041F00044708470E879401CE871287A182831D21C
:10420000DFF8108008F1B608E88BFBF795FF0DE0AA
:1042100004000020DF0600207C000020C1060020F2
:104220004E010020D600002096010020E88B1D30B2
:10423000E883FBF777FFC0B2B0FBFAF10AFB11008D
:10424000A87018F800000128DED0A87808F80060EF
:10425000954900EB40000C54084444708470287A5F
:10426000401C2872687A242822D2DFF840824FF05E
:10427000240BE88BFBF760FFE88B1D30E883FBF72E
:1042800051FFC0B2B0FBFBF10BFB1100A87018F896
:1042900000000128EDD0A87808F80060844900EB00
:1042A00040000C54084444708470687A401C687262
:1042B000A87A03237F494FF0050C4FF007084FF011
:1042C0000C0B0C2866D2401CC2B2AA727A480D2A86
:1042D00045D2DFE802F044070C12171A21282D30CE
:1042E000373E4200047046700222827037E003704D
:1042F0000422427080F802C031E00622027080F889
:1043000001802CE00822827029E00922027080F8E6
:1043100001900B22827022E080F800B00D224270E2
:104320000E2282701BE00F2202701022427016E0F3
:104330001122827013E012220270132242701422A2
:1043400082700CE0152202701622427017228270D1
:1043500005E080F800A0477001E01A2282706C74BA
:10436000AC74EC74027802EB42020A4402F83F4F4C
:1043700054709470427802EB42020A4402F83F4FB4
:1043800054709470807800EB4000084400F83F4F70
:1043900044708470E87A07284ED2401CC2B2EA7298
:1043A0004548C01C082A32D2DFE802F031040A1066
:1043B000171D242B047080F801800E22827026E0E5
:1043C0000670082242700F22827020E002220270E2
:1043D000092242701022827019E0037080F8019067
:1043E0001122827013E0042202700B22427012220A
:1043F00082700CE080F800C080F801B01322827057
:1044000005E0062202700D224270142282700278AA
:1044100002EB42028C540A4454709470427802EBCE
:1044200042028C540A4454709470807800EB40002F
:104430000C540844447084702B7B062B12D26C7091
:1044400003EB83066A78B01800EB4000084400F8DC
:104450009C4F44708470521CD0B268700528F1D310
:104460005B1C2B73A87B032808D200EB40020A4494
:1044700002F8F64F54709470401CA8736C70687802
:1044800000EB40020A4402F8904F54709470401CB4
:10449000C0B268700428F2D328792828FFF42BAD25
:1044A000287F401C2877F0E4F0010020AD070020B1
:1044B00038020020A402002026000020F0B42C4D79
:1044C00000242C49E8782C4E01281ED03088401C4E
:1044D00080B230800122294B01281FD0B0F5CD6F6A
:1044E0001FD0B0F5486F1FD0A0F56067883F08D097
:1044F000A0F59057753F1BD0A0F5C853643B1BD067
:104500001CE0032008701A7018E0EC7034800C7006
:10451000F0BC002211461046FBF728BE0C701A7042
:104520000CE00A701A7009E0022008701A7005E0A9
:10453000042008701A7001E03480EA7008780528B9
:1045400013D2DFE800F00306090C0F00F0BC01F005
:1045500051BEF0BC00F014B8F0BC04F0AFBAF0BC2F
:1045600005F032BEF0BC07F09DBCF0BC7047000007
:10457000350000201E000020240000201F00002025
:104580002DE9F04F89B0FE48FE4EFF4D0178002422
:10459000DFF8F8A301297DD03078401CC0B230701C
:1045A000052878D300203070F948FB4E01270178A8
:1045B000F848DFF8E8B3FA4C0078DFF8E8834FF00A
:1045C0001409002968D0012967D01E282ED230880E
:1045D000FBF7B2FD30881D303080FBF7A3FDC1B280
:1045E0001E20B1FBF0F200FB1210EF490870EF49FA
:1045F000085C0128EBD0EC4800780F54EC490978AE
:10460000B0FBF1F201FB1201297001EB4101E94B12
:1046100000EB4000625C1A54214418444A7842700E
:1046200089788170DB480178491C0170E248007884
:104630000A282ED23088FBF77FFD30881D3030806D
:10464000FBF770FDC1B20A20B1FBF0F200FB1210C3
:10465000D5490870D949085C0128EBD0D2480078C8
:104660000F54D3490978B0FBF1F201FB1201297014
:1046700001EB4101D24B00EB4000625C1A54214433
:1046800018444A78427089788170CB480178491C77
:10469000017003E019E1D4E1D6E1B0E3C948007844
:1046A00018282ED23088FBF747FD30881D30308027
:1046B000FBF738FDC1B21820B1FBF0F200FB12107D
:1046C000B9490870C049085C0128EBD0B6480078A9
:1046D0000F54B7490978B0FBF1F201FB12012970C0
:1046E00001EB4101B94B00EB4000625C1A542144DC
:1046F00018444A78427089788170B2480178491C20
:104700000170B348007828282ED23088FBF714FDBA
:1047100030881D303080FBF705FDC1B22820B1FB89
:10472000F0F200FB1210A0490870AA49085C0128A9
:10473000EBD09D4800780F549D490978B0FBF1F209
:1047400001FB1201297001EB4101A34B00EB40007A
:10475000625C1A54214418444A7842708978817006
:104760009B480178491C01709C4800781E282ED275
:104770003088FBF7E1FC30881D303080FBF7D2FC3D
:10478000C1B21E20B1FBF0F200FB12108649087086
:104790009349085C0128EBD0834800780F54844982
:1047A0000978B0FBF1F201FB1201297001EB410124
:1047B0008C4B00EB4000625C1A54214418444A7848
:1047C00042708978817085490878401C0870864855
:1047D000007818282ED23088FBF7AEFC30881D30C8
:1047E0003080FBF79FFCC1B21820B1FBF0F200FB58
:1047F00012106D4908707D49085C0128EBD06A48A9
:1048000000780F546A490978B0FBF1F201FB1201FC
:10481000297001EB4101764B00EB4000625C1A54B9
:10482000214418444A784270897881706E4908782A
:10483000401C08706F48007824282ED23088FBF77F
:104840007BFC30881D303080FBF76CFCC1B224202B
:10485000B1FBF0F200FB1210534908706649085C86
:104860000128EBD0504800780F5451490978B0FB2B
:10487000F1F201FB1201297001EB41015F4E00EBE7
:104880004000625C3254214430444A784270897856
:10489000817058480178491C0170594908780C28E2
:1048A0006CD2401CC0B208700D2868D2DFE810F04E
:1048B00067000B0B140B1E0B270B2F0B390B430B35
:1048C0004C0B520B5B0B650B6E0B047000221146F8
:1048D0001046FBF74BFC0320287034702C48047002
:1048E0008AF8004031499AF800000C54401CC0B2CC
:1048F0008AF800001E28F6D38AF800402F499AF85B
:1049000000000C54401CC0B28AF800000A28F6D3FC
:104910008AF800402C499AF800000C54401CC0B2A0
:104920008AF800001828F6D38AF8004029499AF836
:1049300000000C54401CC0B28AF800002828F6D3AE
:104940008AF8004026499AF800000C54401CC0B276
:104950008AF800001E28F6D38AF8004023499AF806
:1049600000000C54401CC0B28AF800001828F6D38E
:104970008AF8004020499AF8000043E0FDE3FDE397
:104980001F0000201D000020140000200500002052
:104990002000002007000020220000202600002028
:1049A000DF060020A4020020060000200F070020E0
:1049B000040000207C0000200A0000206D07002079
:1049C000C106002009000020550700204E010020EC
:1049D000080000202D070020D60000200B0000203A
:1049E00077070020960100200C000020950700208A
:1049F000F00100200D000020AD070020380200204B
:104A00000E0000200C54401CC0B28AF8000024287C
:104A1000B1D3FB480470FB480470FB480470FB48AA
:104A20000470FB480470FB480470FB480470FB48AA
:104A30000470FB480470FB480470FB480470FB489A
:104A4000047009B0BDE8F08F1E2828D23088FBF72B
:104A500073FB30881D303080FBF764FBC1B21E2031
:104A6000B1FBF0F200FB1210F1490870F149085C4B
:104A70000128EBD0EE4800780F542978EE4B01EB7B
:104A8000410100EB4000625C1A54214418444A780A
:104A9000427089788170DC480178491C0170D848DF
:104AA00000780A2828D23088FBF746FB30881D3072
:104AB0003080FBF737FBC1B20A20B1FBF0F200FBFC
:104AC0001210DB490870DD49085C0128EBD0D8489A
:104AD00000780F542978DA4B01EB410100EB4000DC
:104AE000625C1A54214418444A7842708978817073
:104AF000C3480178491C0170C2480078182828D2A0
:104B00003088FBF719FB30881D303080FBF70AFB3B
:104B1000C1B21820B1FBF0F200FB1210C4490870BA
:104B2000C849085C0128EBD0C14800780F542978A7
:104B3000C54B01EB410100EB4000625C1A5421447B
:104B400018444A78427089788170AE480178491CCF
:104B50000170B1480078282828D23088FBF7ECFA99
:104B600030881D303080FBF7DDFAC1B22820B1FB60
:104B7000F0F200FB1210AE490870B449085C01283D
:104B8000EBD0AB4800780F542978B14B01EB4101D1
:104B900000EB4000625C1A54214418444A78427089
:104BA000897881709C480178491C01709748007889
:104BB0001E2828D23088FBF7BFFA30881D3030809D
:104BC000FBF7B0FAC1B21E20B1FBF0F200FB1210ED
:104BD000974908709F49085C0128EBD094480078F9
:104BE0000F5429789C4B01EB410100EB4000625CC3
:104BF0001A54214418444A78427089788170834855
:104C00000178491C01708248007818282AD230881F
:104C1000FBF792FA30881D303080FBF783FAC1B27F
:104C20001820B1FBF0F200FB1210814908708B498B
:104C3000085C0128EBD07E4800780F542978DFF813
:104C400020C201EB410100EB4000625C0CF8002047
:104C5000214460444A784270897881706C490878B0
:104C6000401C08706B480078242828D23088FBF755
:104C700063FA30881D303080FBF754FAC1B224202B
:104C8000B1FBF0F200FB1210694908707549085C2D
:104C90000128EBD0664800780F542978724B01EB5D
:104CA000410100EB4000625C1A54214418444A78E8
:104CB00042708978817057480178491C01705749C2
:104CC00008780C287ED2401CC0B208700D2862D231
:104CD000DFE800F06107101A21252F3940444D57B5
:104CE0005E0000208BF800008BF8017002208BF82A
:104CF000020050E003208BF8000004208BF8010034
:104D000005208BF8020046E006208BF80000072003
:104D10008BF801003FE008208BF802003BE00920FF
:104D20008BF800000A208BF801000B208BF80200A2
:104D300031E00C208BF800000D208BF801000E20D4
:104D40008BF8020027E00F208BF8000010208BF872
:104D5000010020E011208BF802001CE012208BF8EB
:104D6000000013208BF801008BF8029013E015204F
:104D70008BF8000016208BF8010017208BF802003A
:104D800009E018208BF8000019208BF8010002E0E0
:104D90001A208BF802002878344A00EB4001605C4E
:104DA00010700A19324B51781970324B92781A7080
:104DB0009BF8003003EB4303434403F83F0F597063
:104DC0009A7000E011E09BF8013003EB4303434489
:104DD00003F83F0F59709A709BF8023003EB4303BE
:104DE000434403F83F0F59709A700D49087807281B
:104DF0006FD2401CC0B2087008287AD23CE0B9E2F9
:104E00000A00002009000020070000200B000020FD
:104E10000C0000200D000020080000200E000020E3
:104E20000F000020100000201200002011000020C0
:104E3000060000200F0700207C0000206D070020E6
:104E4000C1060020550700204E0100202D0700203C
:104E5000D60000207707002096010020950700204B
:104E6000F0010020AD0700203802002015000020CE
:104E70001600002017000020DFE800F03B040C13B0
:104E80001B232C34FE4800210170072141700E21A4
:104E900081702EE0FA480770082141700F2181705F
:104EA00027E0F7480221017009214170102181702B
:104EB0001FE0F348032101700A2141701121817024
:104EC00017E0EF48042101700B214170122181701D
:104ED0000FE033E0EA48052101700C2141701321F5
:104EE000817006E0E648062101700D21417080F8CE
:104EF0000290DFF88CC328789CF8002000EB40017A
:104F000002EB4203605C08F803000A19434451783D
:104F1000597092789A709CF8013003EB430308F8BB
:104F20000300434459709A709CF8023003EB43032A
:104F300008F8030003EB080041708270D148037841
:104F4000062B25D200218AF80010287803EB830C69
:104F500000EB400001198A78089291F801E0205C8A
:104F600007909AF80010079A0CEB010000EB400044
:104F7000404400F89C2F80F801E0089A8270491C98
:104F8000C8B28AF800000528EBD3BE485B1C03704A
:104F9000DFF8F4B29BF80000032815D22A7800EB62
:104FA000400102EB4203414414F803C001F8F6CF7C
:104FB00023445B784B70521C02EB420222449278ED
:104FC0008A70401C8BF800004FF0000B8AF800B08C
:104FD000287800EB40010819625C837845789AF8DC
:104FE000000000EB4001414401F8902F4D708B70A0
:104FF000401CC0B28AF800000428F0D3A34800780F
:105000002828FFF41EADA2490878401C0870A14D65
:1050100085F800B0DFF88082DFF880A2344620886F
:10502000FBF78AF820881D302080FBF77BF8C0B2A0
:10503000B0FBF9F109FB1102287808F80020984923
:105040000F540AF800B0401CC0B228700A28E6D3FA
:1050500085F800B0934EDFF85082DFF850A2208828
:10506000FBF76AF820881D302080FBF75BF8C0B2A0
:10507000B0FBF9F109FB1101287831540AF80070EE
:1050800008F800B0401CC0B228701828E7D385F893
:1050900000B0874EDFF81C82DFF81CA22088FBF7E7
:1050A0004BF820881D302080FBF73CF8C0B2B0FBE5
:1050B000F9F109FB1101287831540AF8007008F859
:1050C00000B0401CC0B228701E28E7D385F800B09D
:1050D0007A4EDFF8EC81DFF8ECA12088FBF72CF8A2
:1050E00020881D302080FBF71DF8C0B2B0FBF9F11D
:1050F00009FB1101287831540AF8007008F800B053
:10510000401CC0B228702828E7D385F800B06E4E46
:10511000DFF8B881DFF8B8A12088FBF70DF8208808
:105120001D302080FAF7FEFFC0B2B0FBF9F109FB99
:105130001101287831540AF8007008F800B0401CBA
:10514000C0B228701E28E7D385F800B0614EDFF8A2
:1051500088A1DFF888812088FAF7EEFF20881D30CB
:105160002080FAF7DFFFC0B2B0FBF9F109FB1101B3
:105170002878315408F8007001E0FBE3FBE30AF8FB
:1051800000B0401CC0B228701828E4D385F800B0E5
:10519000534EDFF85081DFF850A12088FAF7CCFF9A
:1051A00020881D302080FAF7BDFFC0B2B0FBF9F1B6
:1051B00009FB1101287831540AF8007008F800B092
:1051C000401CC0B228702428E7D385F800B0DFF86F
:1051D0001CA1DFF81C812088FAF7AEFF20881D3063
:1051E0002080FAF79FFFC0B2B0FBF9F109FB11066E
:1051F000404B28781E54404B1F540AF800B02088BA
:10520000FAF79AFF20881D302080FAF78BFFC0B292
:10521000B0FBF9F209FB1201287808F800103749B1
:105220000F54374B03F800B02088FAF785FF208829
:105230001D302080FAF776FFC0B2B0FBF9F209FB0F
:105240001206304B28781E542F4B1F542F4B03F857
:1052500000B0401CC0B228700328BCD385F800B051
:105260002B4EDFF8B080DFF8B0A02088FAF764FF9B
:1052700020881D302080FAF755FFC0B24EE00000B4
:10528000290000201000002012000020080000204B
:1052900020000020060000205F0900209D0800205B
:1052A000DB07002069090020A7080020E50700208F
:1052B00081090020BF080020FD0700209F09002071
:1052C000DD0800201B080020C70900200509002078
:1052D00043080020E5090020230900206108002080
:1052E000FD0900203B09002079080020580000201B
:1052F0006B00002068000020480000204B000020C8
:105300005B00002075000020550000206500002093
:105310006E0000205E0000204E000020B0FBF9F17E
:1053200009FB1101287831540AF8007008F800B020
:10533000401CC0B22870062897D32088FAF7FCFEDC
:1053400020881D302080FAF7EDFEC0B2B0FBF9F1E5
:1053500009FB1100FE490870FE480770FE4880F8FE
:1053600000B0FE4880F800B0FD4880F800B009B0F9
:10537000BDE8F08FFB4900200870DFF8ECB3F94876
:1053800000781BF8001000297ED001297DD0F74B52
:1053900000EB400100225A540B445A709A700BF8EB
:1053A0000020F0490878401CC0B208700A28E6D3F3
:1053B00000200870DFF8B8B3EA4800781BF8001046
:1053C00000297DD001297CD0EA4B00EB400100226E
:1053D0005A5419444A708A700BF80020E149087841
:1053E000401CC0B208701828E6D3DE4800210170C6
:1053F000DFF884B3DB4800781BF8001000297DD06B
:1054000001297CD0DD4B00EB400100225A540B44B3
:105410005A709A700BF80020D2490878401CC0B22C
:1054200008701E28E6D300200870DFF854B3CD487A
:1054300000781BF8001000297ED001297DD0D14BC7
:1054400000EB400100225A5419444A708A700BF84C
:105450000020C4490878401CC0B208702828E6D350
:1054600000200870DFF820B3BE4800781BF8001059
:1054700000297DD001297CD0C44B00EB40010022E3
:105480005A5419444A7001E0EDE101E28A700BF8C8
:105490000020B4490878401CC0B208701E28E3D32D
:1054A00000200870DFF8E8B2AE4800781BF8001062
:1054B00000297CD001297BD0002200EB400101E0D3
:1054C0000BE21FE2B34B5A540B445A709A700BF81C
:1054D0000020A4490878401CC0B208701828E3D303
:1054E00000200870DFF8B0B29E4800781BF800106A
:1054F00000297DD001297CD0002201E025E23BE299
:10550000A64B00EB40015A5419444A708A700BF8BC
:10551000002094490878401CC0B208702428E3D3C6
:105520009048002101708F489D490078095C0691E0
:1055300000297DD0012901E041E255E279D0002225
:105540008AF8002000EBC00C9AF800300CEB030145
:1055500001EB4101414401F83F2F4A708A705B1C06
:10556000D9B28AF800100929EED38D490A5401E016
:105570005DE271E27B490878401CC0B208700328E4
:10558000D1D3784800210170764886490078095CBB
:10559000049100297ED001297DD000228AF80020C4
:1055A000C0EBC00C9AF800300CEB030101E076E28E
:1055B0008AE201EB410108F8012041444A708A70F7
:1055C0005B1CD9B28AF800100729EBD375490A543D
:1055D00064490878401CC0B208700328D4D3002066
:1055E0000870604870490078095C0191002901E069
:1055F0008DE2A1E27ED001297DD000228AF8002030
:1056000000EB800C9AF800300CEB030101EB410138
:10561000414401F89C2F4A708A705B1CD9B28AF809
:1056200000100529EED360490A544E49087801E07C
:10563000A5E219E3401CC0B208700628D1D349483E
:1056400000210170DFF864B1464800781BF80010B3
:10565000002978D0012977D000EB40014144002295
:1056600001F8F62F4A708A700BF800203D4908783F
:10567000401CC0B208700328E6D3364F97F800C02C
:10568000BCF1000F61D0BCF1010F5FD000228AF89D
:10569000002001E00CE333E39AF8000000EB400146
:1056A000414401F8902F4A708A70401CC0B28AF8B9
:1056B00000000428EDD33A7028490878401CC0B295
:1056C000087032287FF653AE00260E70384F3E70B9
:1056D0002878384A00EB4001605C10700A19364B9C
:1056E00051781970354B92781A70FAF73FFD287887
:1056F000401C01E028E34FE3C0B22870052801D91F
:10570000022038708AF800602D499AF800000E5483
:10571000401CC0B28AF800001E28F6D38AF8006048
:1057200028499AF800000E54401CC0B28AF80000C4
:105730000A28F6D38AF8006023499AF800000E542C
:10574000401CC0B242E04BE35BE37DE39AE3000020
:105750007400002054000020640000201B00002082
:105760001C00002006000020DB070020C1060020EE
:10577000E50700204E010020FD0700207C000020EE
:105780001B080020D60000204308002096010020BE
:1057900061080020F0010020790800203802002074
:1057A000480000204B0000204E0000205500002043
:1057B0002000002015000020160000201700002007
:1057C0000F0700206D070020550700208AF8000011
:1057D0001828B2D38AF80060FC499AF800000E54E9
:1057E000401CC0B28AF800002828F6D38AF800606E
:1057F000F7499AF800000E54401CC0B28AF8000025
:105800001E28F6D38AF80060F2499AF800000E5478
:10581000401CC0B28AF800001828F6D38AF800604D
:10582000ED499AF800000E54401CC0B28AF80000FE
:105830002428F6D3E9480670E9480670E94806705E
:10584000E9480670E9480670E9480670E9480670BC
:10585000E9480670E9480670E9480670E9480670AC
:10586000E948067083E52978E84B01EB410200EB3B
:10587000400114F802C003F801C02244194492F810
:1058800001C081F801C092788A700BF8007088E539
:10589000DF4A115C491CC9B21154DFF878C31CF807
:1058A00000309942F3D9002111543088FAF744FCB2
:1058B00030881D303080FAF735FCC0B2B0FBF9F10A
:1058C00009FB1101D448D34A1431007811541BF854
:1058D0000010491C0BF8001063E52978CF4B01EB51
:1058E000410200EB400114F802C003F801C0224459
:1058F000194492F801C081F801C092788A700BF8BF
:1059000000706BE5C64B195C491CC9B21954C54AF5
:10591000125C9142F5D9002119543088FAF70CFC39
:1059200030881D303080FAF7FDFBC0B2B0FBF9F1D2
:1059300009FB1101B848BB4A1431007811541BF817
:105940000010491C0BF8001048E52978B64B01EB14
:10595000410200EB400114F802C003F801C02244E8
:10596000194492F801C081F801C092788A700BF84E
:10597000007051E53DE3AEE2AC4B195C491CC9B285
:105980001954AB4A125C9142F3D900211954308862
:10599000FAF7D2FB30881D303080FAF7C3FBC0B273
:1059A000B0FBF9F109FB11019B48A14A14310078C1
:1059B00011541BF80010491C0BF800102CE5297835
:1059C0009C4B01EB410200EB400114F802C003F8CC
:1059D00001C02244194492F801C081F801C09278B4
:1059E0008A700BF8007034E5934B195C491CC9B2FE
:1059F0001954924A125C9142F5D900211954308809
:105A0000FAF79AFB30881D303080FAF78BFBC0B272
:105A1000B0FBF9F109FB11017F48884A1431007885
:105A200011541BF80010491C0BF8001011E52978DF
:105A3000834B01EB410200EB400114F802C003F874
:105A400001C02244194492F801C081F801C0927843
:105A50008A700BF800701CE57A4B195C491CC9B2BE
:105A60001954794A125C9142F5D9002119543088B1
:105A7000FAF762FB30881D303080FAF753FBC0B272
:105A8000B0FBF9F109FB110163486F4A143100784A
:105A900011541BF80010491C0BF80010F9E4297888
:105AA0006A4B01EB410200EB400114F802C003F81D
:105AB00001C02244194492F801C081F801C09278D3
:105AC0008A700BF8007004E5614B195C491CC9B27F
:105AD0001954604A125C9142F5D90021195430885A
