:030000000217B52F
:0C17B500787FE4F6D8FD7581C60217FCB1
:03000B000201BC33
:1001BC00C0E0C0F0C083C082C0D075D000C000C009
:1001CC0001C002C003C004C005C006C007C28D1226
:1001DC001EEF12000ED007D006D005D004D003D0ED
:1001EC0002D001D000D0D0D082D083D0F0D0E03279
:101FAC001220DB120F6B1201FC30CFFDC2CF121CC2
:101FBC00DF12212A121A04121C3F121725121F229B
:0B1FCC00121F801218B912108580DE71
:101F220020A61678C60606E6D3944B4022E4F6189D
:101F3200E6701C76011876022278C5E6700B08E678
:101F4200D39400400478C47601E478C5F608F622FA
:101C3F00E53D1212351C66001C69011C6C021C71FB
:101C4F00031C760B1C790C1C7C0D1C7FFB1C82FD6E
:101C5F001C85FF00001C8802213C022106E4FF02C4
:101C6F001929E4FF0213EF02168D0215510215EF29
:101C7F00021B3A021B91021BE8753E01753D0122C2
:101B3A00E540B40117E4F54078A0F618F618F6F572
:101B4A0077F576F575787FF67891F622787FE6C391
:101B5A00940850020622E4787FF67891E620E0069F
:101B6A00789E76FF8004E4789EF6789106E6D39410
:101B7A00054006853E3D75400178A0E6F57718E6F2
:071B8A00F57618E6F575225F
:101B9100E540B40117E4F54078A0F618F618F6F51B
:101BA10077F576F575787FF67891F622787FE6C33A
:101BB100940850020622E4787FF67891E620E00648
:101BC100789F76FF8004E4789FF6789106E6D394B7
:101BD100054006853E3D75400178A0E6F57718E69B
:071BE100F57618E6F5752208
:101BE800E540B40117E4F54078A0F618F618F6F5C4
:101BF80077F576F575787FF67891F622787FE6C3E3
:101C0800940850020622E4787FF67891E620E006F0
:101C180078A076FF8004E478A0F6789106E6D3945D
:101C2800054006853E3D75400178A0E6F57718E643
:071C3800F57618E6F57522B0
:0F213C00E540B40109E4F540F577F576F5752235
:10210600E540B4010CE4F5408525778526768527DC
:02211600752230
:10211800E4F577F576F5757883766408766408765D
:0221280064222F
:1020C500E4F577F576F5757883F608F608F67891F0
:0620D500F608F608F622F1
:10192900E540B40106E4F540022118E52564646048
:1019390003BF0118788306E6FEB45D05E4F57780F8
:101949000BEEB46707757764E47883F6E52664647B
:101959006003BF0118788406E6FEB46705E4F576EE
:10196900800BEEB47707757664E47884F6E527642E
:10197900646003BF0117788506E6FFB47704E4F5D0
:0E1989007522EFB48507757564E47885F62243
:1013EF00E540B40106E4F5400220C5E525646460DC
:1013FF0005EF6401702F788306E6D394054026E449
:10140F00F67891E67010E577C39464500405778001
:10141F0014789106800FE577D394004004157780F8
:10142F0004E47891F6E52664646005EF6401702F9B
:10143F00788406E6D394064026E4F67892E6701098
:10144F00E576C39464500405768014789206800F75
:10145F00E576D39400400415768004E47892F6E59F
:10146F002764646005EF6401702C788506E6D394D9
:10147F00074023E4F67893E6700EE575C394645045
:10148F000305752278930622E575D3940040031562
:07149F007522E47893F622A8
:10168D00E540B4011DE4F5407896F6788AF608F643
:10169D00E5627006756201756401E4F577F576F51E
:1016AD007522788B06E618700106788AE6FE08E644
:1016BD00FF64014E7006789676018024BE0109BF45
:1016CD00CC06789676028018E4B5070AEEB40A06C1
:1016DD0078967603800ABE0D0DBF840A789676043F
:1016ED00789A7601800FBE110CBF9409E4788AF6C2
:1016FD0008F67540017896E61460101460101460B9
:10170D00101460102404700F02213C021E560212A8
:08171D005B021E891213282251
:101E5600789AE6B4010AE4F6788FF608F6022118B5
:101E6600C37890E6945618E6941350077F0112192A
:101E7600298007E4F577F576F575789006E618700B
:031E860001062230
:10125B00789AE6B4010CE4F61220C5E4788FF60810
:10126B00F622788FE6FC08E6FDC394DCEC9405507F
:10127B00087F011213EF02131FBC0505BDDC0280B2
:10128B0072788FE6FC08E6FDC394B8EC940B500221
:10129B008072BC0B0CBDB809E4787FF67889F680B8
:1012AB0073788FE6FE08E6FFC39494EE9411503DDD
:1012BB00787F06E69432405CE4F67889E6FD75F0BB
:1012CB0003A42425F8E6F577ED75F003A42426F89E
:1012DB00E6F5767889E675F003A42427F8E6F5752C
:1012EB00788906E6C39407402BE4F68027BE1108E5
:1012FB00BF9405122118801CC37890E6948818E6D9
:10130B00941350077F011219298009E478A0F6780D
:0D131B009EF608F6789006E618700106228E
:101E8900789AE6B4010AE4F6788FF608F602211882
:101E9900C37890E6946218E6941150077F011219ED
:101EA900298007E4F577F576F575789006E61870D8
:031EB900010622FD
:10132800789AE6B4010CE4F61220C5E4788FF60842
:10133800F622788FE6FC08E6FDC394E8EC940350A7
:10134800087F011213EF0213E6BC030DBDE80AE49F
:101358007883F67889F60213E6C37890E694DC1869
:10136800E69405503D788306E694C84071E4F67823
:1013780089E6FF75F003A42425F8E6F577EF75F004
:1013880003A42426F8E6F5767889E675F003A42404
:1013980027F8E6F575788906E6C394074040E4F631
:1013A800803C788306E6C3941E4033E4F67889E6E9
:1013B800FF75F003A42425F8E6F577EF75F003A48C
:1013C8002426F8E6F5767889E675F003A42427F84C
:1013D800E6F575788906E6C394074002E4F6789046
:0713E80006E6187001062261
:10155100E540B40119E4F5407896F6788AF608F684
:10156100E56260030215EE75620175640122788BF4
:1015710006E618700106788AE6FE08E6FF64014E69
:10158100700678967601802EBE0609BF68067896A9
:1015910076028022BE0D09BF520678967603801628
:1015A100BE0F09BF6E0678967604800ABE130DBF82
:1015B100920A78967604789A7601800FBE1B0CBF4A
:1015C1005809E4788AF608F67540017896E61460C1
:1015D100101460101460101460102404700F0221A4
:0E15E1003C021AD7020DE50207C4120C41228B
:101AD700789AE6B4012BE4F6F577F576F575788F05
:101AE700F608F67883F6E52575F03284789DF6E5F5
:101AF7002675F032847899F6E52775F0328418F662
:101B070022788306E6D394144028E4F6E5779525F2
:101B1700400CE57695264006E57595275014789D87
:101B2700E62577F5777899E62576F57618E625752B
:031B3700F575221F
:100DE500789AE6B4012BE4F67891F67883F6788064
:100DF500F6788FF608F6E52575F03284789DF6E5E8
:100E05002675F032847899F6E52775F0328418F660
:100E150022788FE6FE08E6FFC394C8EE94005039A9
:100E2500788306E694145003020F62E4F6E577959D
:100E350025400FE57695264009E57595274003027F
:100E45000F62789DE62577F5777899E62576F5762C
:100E550018E62575F575020F62EF64C84E700F78B8
:100E650083F6789BF67889F67886F6020F62788F96
:100E7500E6FE08E6FFC39498EE9408505C78830676
:100E8500E6940A5003020F62E4F6788606E6FD64EE
:100E95000170297889E6FC75F003A42425F8E6F5A8
:100EA50077EC75F003A42426F8E6F5767889E675DF
:100EB500F003A42427F8E6F575020F62EDD394320A
:100EC5005003020F62E47886F6788906E6940750A7
:100ED50003020F62E4F6020F62EF64987003EE649A
:100EE5000870457883F67889E6FF75F003A4242514
:100EF500F8E6F577EF75F003A42426F8E6F576789D
:100F050089E675F003A42427F8E6F575E57775F00D
:100F15003284789DF6E57675F032847899F6E57534
:100F250075F0328418F68035788306E6D39403404D
:100F35002CE4F6E575D39400500CE5779400500643
:100F4500E57694004017C3E577789D96F577C3E578
:100F550076789996F576C3E5751896F575789006C1
:060F6500E61870010622EF
:1007C400789AE6B4012BE4F6788FF608F67883F687
:1007D4007891F67880F6E52575F03284789DF6E513
:1007E4002675F032847899F6E52775F0328418F688
:1007F40022788FE6FE08E6FFC394F4EE9401505984
:10080400EF94C1EE9401400C8537778538768539AD
:10081400750209FD7C007D281211AAED4C600302CB
:1008240009FD7880E6FF75F003A42425F8E6F57742
:10083400EF75F003A42426F8E6F5767880E675F0E3
:1008440003A42427F8E6F575788006E6C3940750D8
:10085400030209FDE4F60209FD788FE6FC08E6FDD3
:10086400C394DCEC940550087F011219290209FD98
:10087400BC0527BDDC24E47891F67883F6E537756A
:10088400F03284789DF6E53875F032847899F6E58F
:100894003975F0328418F60209FDC37890E694D8CD
:1008A40018E6940E40030209BD7891E6B40A0040AC
:1008B400030209FD9008BFF82828730208DD020925
:1008C400460208DD0209460208DD0209460208DD87
:1008D4000209460208DD020995789DE6FF2577F5B1
:1008E400777899E6FD2576F57618E6FC2575F57595
:1008F400EF75F032A465777002E5F060030209FD3C
:10090400ED75F032A4FFE5766F7002E5F060030246
:1009140009FDEC75F032A465757002E5F060030220
:1009240009FD7891067894E6FE08E6FF121D701220
:100934001D2E7C007D141211FFED240578A0F60213
:1009440009FD789DE6FFC3E5779FF5777899E6FD85
:10095400C3E5769DF57618E6F9C3E57599F57578DE
:10096400A0E6FCEF8CF0A465777002E5F06003026A
:1009740009FDED8CF0A465767002E5F0707BE6FF6E
:10098400E98FF0A465757002E5F0706D78910680CA
:1009940068C3E577789D96F577C3E576789996F5FB
:1009A40076C3E5751896F575E577704DE57670496B
:1009B400E57570457891F68040C37890E694041804
:1009C400E694105034788306E69404402CE4F6E56B
:1009D40077D394004007E577789D96F577E576D34D
:1009E40094004007E577789996F577E575D39400F8
:1009F4004007E577789896F577789006E6187001C1
:020A04000622C8
:100C4100789AE66401702EF6F577F576F575E52567
:100C510075F03284789DF6E52675F032847899F640
:100C6100E52775F0328418F6E4788FF608F6788374
:100C7100F67880F622788FE6FE08E6FFC394B0EEA0
:100C810094045024788306E6941E5003020DDCE49C
:100C9100F6E5779528400FE5769529407EE575952F
:100CA1002A4003020DDC8073BE0510BF140DE478E9
:100CB10080F67891F67883F6020DDC788FE6FE08EF
:100CC100E6FFC39494EE94114003020D98788306D5
:100CD100E694035003020DDCE4F67891E6146058C3
:100CE100046003020DDC7880E6FD75F003A4242581
:100CF100F8E6FCE577C39C4022ED75F003A42426B9
:100D0100F8E6FDE576C39D40127880E675F003A410
:100D11002427F8E6FDE575C39D5017789DE62577F4
:100D2100F5777899E62576F57618E62575F5750255
:100D31000DDC789106020DDC788406E4F577F57612
:100D4100F575E6D3940A5003020DDCE4F67891F6CA
:100D5100F577F576F575788006E694074002E4F6B6
:100D61007880E6FD75F003A42425F8E675F0328459
:100D7100789DF6ED75F003A42426F8E675F032842B
:100D81007899F67880E675F003A42427F8E675F0E3
:100D910032847898F68044C3EF94B0EE941D500CE1
:100DA10078A0A63718A63818A639802F788FB61DD7
:100DB1000F08B6B00B853777853876853975801B76
:100DC100E577D3940040021577E576D3940040028D
:100DD1001576E575D3940040021575789006E618EE
:040DE1007001062275
:1015EF00E540B40119E4F5407896F6788AF608F6E6
:1015FF00E562600302168C75620175640122788BB7
:10160F0006E618700106788AE6FE08E6FF64014ECA
:10161F00700678967601802EBE0A09BF640678960A
:10162F0076028022BE1409BFE606789676038016EE
:10163F00BE1609BF440678967604800ABE190DBF00
:10164F00CD0A78967604789A7601800FBE1F0CBF6C
:10165F004009E4788AF608F67540017896E614603A
:10166F00101460101460101460102404700F022105
:0E167F003C02007E020A060214A612057D221D
:10007E00789AE6B40124E4F6F577F576F575788F7F
:10008E00F608F67880F67883F6789BF67889F67817
:10009E0091F6788676067882F622788FE6FE08E666
:1000AE00FFC394DCEE940540030201447883067985
:1000BE0083E778869650030201B3E47883F678914D
:1000CE00E614604C0460030201B37889E6FD75F016
:1000DE0003A42425F8E6FCF577ED75F003A4242699
:1000EE00F8E6FDF5767889E675F003A42427F8E6A0
:1000FE00FBF575EC75F03284789DF6ED75F0328473
:10010E007899F6EB75F0328418F67891060201B301
:10011E00E577D394005077E57694005071E57594A9
:10012E000040028069E47891F6788906E6C3940768
:10013E004073E4F6806FBE052CBFDC29E47883F6AD
:10014E00757764757664757564E57775F0328478C5
:10015E009DF6E57675F032847899F6E57575F03290
:10016E008418F68040C37890E694D018E694075031
:10017E0034788306E69409402CE4F6E577D39400B0
:10018E00500CE57694005006E57594004017C3E5D3
:10019E0077789D96F577C3E576789996F576C3E5EB
:0E01AE00751896F575789006E6187001062211
:100A0600789AE664017030F6F577F576F575788FA5
:100A1600F608F67880F67891F67883F6E52575F08F
:100A26003284789DF6E52675F032847899F6E527C6
:100A360075F0328418F622788FE6FE08E6FFC39436
:100A4600D0EE94074003020B20788306E69402500A
:100A560003020C38E4F67891E66063146003020C36
:100A660038E577D39400500CE57694005006E5758A
:100A760094004003020C21E47891F6788006E6D3D0
:100A86009405400276067880E6FD75F003A42425D9
:100A9600F8E675F03284789DF6ED75F003A4242609
:100AA600F8E675F032847899F67880E675F003A456
:100AB6002427F8E675F032847898F6020C387880A8
:100AC600E6FD75F003A42425F8E6FCE577C39C4013
:100AD60023ED75F003A42426F8E6FDE576C39D40D4
:100AE600137880E6FD75F003A42427F8E6FCE57587
:100AF600C39C5017789DE62577F5777899E6257695
:100B0600F57618E62575F575020C38EDC3940640A2
:100B160003020C38789106020C38BE0721BFD01E9E
:100B2600E47883F67891F6E53775F03284789DF6A9
:100B3600E53875F032847899F6E539020BFBC3780F
:100B460090E694C418E694094003020BD178830614
:100B5600E6941E5003020C38E4F67891E614604AD7
:100B6600046003020C38789DE675F032A4F57778B8
:100B760099E675F032A4F57618E675F032A4F575A7
:100B86007891067894E6FE08E6FF121D7078957453
:100B96001126F618E436F6121D2E7C007D1412116D
:100BA600FFED240578A0F6020C3878A0E6FF789DC4
:100BB600E68FF0A4F5777899E68FF0A4F57618E637
:100BC6008FF0A4F575E47891F68067788FB6092DD5
:100BD60008B6C429E47883F685377785387685396B
:100BE60075E57775F03284789DF6E57675F0328492
:100BF6007899F6E57575F0328418F68035788306AF
:100C0600E6D39407402CE4F6E577D39400500CE540
:100C16007694005006E57594004017C3E577789DF5
:100C260096F577C3E576789996F576C3E5751896C1
:0B0C3600F575789006E61870010622A4
:1014A600789AE664017034F685377785387685391B
:1014B60075E57775F03284789DF6E57675F03284B9
:1014C6007899F6E57575F0328418F6E4788FF608A3
:1014D600F67880F67891F67883F622788FE6FE081D
:1014E600E6FFC394E8EE9403503C788306E6941E28
:1014F6004050E4F6788006E694074002E4F67880E9
:10150600E6FD75F003A42425F8E6F577ED75F003FE
:10151600A42426F8E6F5767880E675F003A4242759
:10152600F8E6F575801CBE0308BFE8051221188091
:1015360011C37890E694B818E6940B50057F011213
:0B1546001929789006E61870010622B3
:10057D00789AE664017033F6F577F576F575E5252D
:10058D0075F03284789DF6E52675F032847899F60B
:10059D00E52775F0328418F6E4788FF608F678833F
:1005AD00F67891F67880F60220C5788FE6FC08E69D
:1005BD00FDC394E8EC940350057F010207B8BC031A
:1005CD0016BDE813E47880F6852577852676852790
:1005DD00757883F60207BB788FE6FE08E6FFC394B5
:1005ED00B8EE940B5040788306E6943C5003020716
:1005FD00BBE4F6788006E694074002E4F67880E6E0
:10060D00FD75F003A42425F8E6F577ED75F003A448
:10061D002426F8E6F5767880E675F003A42427F80D
:10062D00E6F5750207BBEF64B87003EE640B704C12
:10063D007889F6F577F576F575E6FF75F003A42460
:10064D0025F8E675F03284789DF6EF75F003A42455
:10065D0026F8E675F032847899F67889E675F00318
:10066D00A42427F8E675F032847898F6E47891F6AC
:10067D007883F6787FF6789BF60207BB788FE6FED7
:10068D0008E6FFC39494EE941140030207A8787F07
:10069D0006E6940550030207BBE4F67891E6146074
:1006AD00580460030207327889E6FD75F003A4242F
:1006BD0025F8E6C313FCE577C39C4026ED75F003E2
:1006CD00A42426F8E6C313FDE576C39D401478896E
:1006DD00E675F003A42427F8E6C313FDE575C39D65
:1006ED00503D789DE62577F5777899E62576F57670
:1006FD0018E62575F5750207BB7889E6FD75F003DB
:10070D00A42425F8E6F577ED75F003A42426F8E684
:10071D00F5767889E675F003A42427F8E6F5757863
:10072D0091060207BBE577D39400500CE576940053
:10073D005006E57594004019C3E577789D96F577D9
:10074D00C3E576789996F576C3E5751896F57580B7
:10075D005DE47891F6788906E6C394074002E4F6E5
:10076D007889E6FD75F003A42425F8E675F032844A
:10077D00789DF6ED75F003A42426F8E675F0328425
:10078D007899F67889E675F003A42427F8E675F0D4
:10079D0032847898F6E47891F68013C3EF9494EE52
:1007AD0094117F01500512192980031213EF7890CF
:0707BD0006E6187001062298
:1020DB0053A87F121DC51220941220541220F11206
:0620EB00202C43A8802216
:101DC5007F107E2775C7AA75C755439780E596206E
:101DD500E70BEF4E6007EF1F70F31E80F0D3EF9413
:101DE50000EE9400401675C7AA75C755759602751D
:101DF500C7AA75C7555397DF757C012275C7AA75A4
:081E0500C7555396FCE4F57C7F
:011E0D0022B2
:1020940053B5F053B6F053A0F053B11B53B21B53D6
:0920A400801B43B54053B6BF2276
:10205400758902438E08758A38758C38D2A94388ED
:1020640010E4F5C875C9A075CAEF75CBD8D2CA22D9
:1020F10043B10853B2F775E80375E121E4F5E275E0
:05210100F20ED2EE22F7
:10202C0053B5CF53B6CF43A03075F85043C480534B
:10203C00C4BF53C4F875C6FF75C5CB43C40843FE73
:08204C000143FF01439C012246
:0A1FD700085A01030206040C080971
:10000E00E562606878C306E6D394144002E4F6789D
:10001E00C3E6C3940F503378C1E6FF245AF8E6FEC8
:10002E001392A0EE5402C31324FF92A1745A2FF818
:10003E00E6FF54041313543F24FF92A2EF54081307
:10004E001313541F24FF92A38008C2A0C2A1C2A200
:10005E00C2A378C00679C0E7D378C296400EE47882
:0D006E00C0F60806E6D394074002E4F6222F
:101F8000E56464017025F564E5627009C2A0C2A130
:101F9000C2A2C2A322E478C1F6E56224FE60030473
:0C1FA000800578C276372278C27678225D
:10172500E4FF121D7BEFD394FC5006EFC3940150E8
:1017350006C282E4F57D2278BBE6FE7019EFD394EC
:101745008C4008EE7005D282757D01EFC394805000
:1017550005C282E4F57DEFC394015010757D02EE5C
:10176500700878BB760178BF7601C28278BBE664E3
:1017750001703C78BFE6B40109E4F678BCF608F6DA
:1017850008F678BC06E6C394324024E4F60806E67B
:10179500943C401BE4F60806E6943C4012E4F6EF60
:0F17A5009405500408760122E478BBF6757D03A5
:0117B4002212
:101D7B00E4FFF56D79FFFEFDFCD2EE30EFFDAEC357
:101D8B00EFD394004014E56D9E50028E6DE9D39E07
:101D9B004002A906EE2DFDE43CFC0FBF0BDBE56D0D
:101DAB0029FFE433FEC3ED9FFDEC9EFCEDAE047802
:091DBB0003CEC313CE13D8F9FFC7
:011DC40022FC
:0401FC00E4F54422C0
:03007B00021E0E54
:101E0E00C0E0C0F0C083C082C0D075D000C000C09A
:101E1E0001C002C003C004C005C006C00730F805EB
:101E2E00C2F8121EBC30F905C2F9754400D007D0B5
:101E3E0006D005D004D003D002D001D000D0D0D02F
:081E4E0082D083D0F0D0E03215
:101EBC00AF9AE555700BEF64FD7027755501F54130
:101ECC0022E555B4011CBFFE0475550222E541C341
:101EDC009406400475550322AE41054174B12EF8A9
:021EEC00A60747
:011EEE0022D1
:101CDF00E5557003F54222E555B4010F0542E54283
:101CEF00D394644039E4F542F55522E555B4030B1E
:101CFF007F0678B1E4F608DFFC8020E555640270BA
:101D0F001D754D01FF74B12FF8E6FE744F2FF8A625
:0E1D1F000674B12FF8E4F60FBF06EAE4F5559E
:011D2D002293
:101A0400E4F56DE5436062E543640170337FFC12E5
:101A1400214B7F4C12214B7F4112214B7F311221EC
:101A24004BE4F56D7456256DF8E6FF12214B056DF8
:101A3400E56DC3940440ED7FFE12214B75430222F1
:101A4400E543640270237FFD12214BE4F56D744578
:101A5400256DF8E6FF12214B056DE56DC394084032
:091A6400ED7FFE12214BE4F54375
:011A6D002256
:0A214B00E54470FC8F9A75440122F0
:101FE100180D6400006400000064006464000000D7
:101FF10064640064006464646464010900010CFFAA
:100F6B007F0612000378A1EFF664AA603B753E0181
:100F7B00753F07756B06756301E478A4F608F67583
:100F8B00563075573075583075593078A2F618763B
:100F9B00AA78A7F6757E01753D0175400175620152
:100FAB00756401AF3F021997E4FF1200038F3EE512
:100FBB003E6012D394034006E53E940B4007E53E9A
:100FCB00D3940D4006753E01757E01853E3D7540FF
:100FDB00017F011200038F3FE53FD3940740067555
:100FEB003F07757E01AF3F1219977F021200038FE7
:100FFB006BE56BD394085005E56B30E006756B061B
:10100B00757E01756A01756C017F071200038F6392
:10101B00E563D394024006756301757E01856362B7
:10102B0075640178A2E6FF700678A776558008EF05
:10103B00B4550978A776AA757E018019EFB4AA1565
:10104B00E478A4F608F678A7F678A2F6757E017513
:10105B003DFD75400178A41220748F5678A4E65498
:10106B000FFF1220798F5778A51220748F5878A50F
:0A107B00E6540FFF1220798F59226E
:10212A00121841121A6E122002121F521220AD0208
:02213A00028021
:1018410078C4E6FF6071EF6401705578A97601787C
:10185100AE760178C4F6754001E53D701A853E3DCE
:10186100856362756401E53F7006753F07757E010A
:10187100AF3F1219978024754001053FE53FD3948E
:10188100074015753F01053EE53ED39402400375BF
:101891003E01853E3D757E01757E01AF3F02199780
:1018A10078C4E6B40211E4F6E53D600BE4F53D755C
:0818B1004001F562756401229B
:101A6E00E57D6003B4010AE478ACF608F678A9F6D1
:101A7E0022E57D6402703878A9E66401702678AE9E
:101A8E00E6B40107E4F678ACF608F678AC06E6C3E1
:101A9E009432401BE4F60806E694144012E4F678FD
:101AAE00A9F6800BE4F53D754001F562756401E51C
:101ABE007DB40314E4F57DE56CB4010C853E3D75F3
:091ACE0040018563627564012288
:101F520078A2E6601478A606E6C394FA400BE4F68B
:101F620078A2F678A7F6757E0178AFE6600C0508D0
:0D1F7200E508C394FA4006E4F622E4F50801
:011F7F00223F
:1020AD0078B0E6B4010E0509E509D394964008E42D
:0720BD00F509F622E4F50924
:0120C40022F9
:10200200E5656025E565B4010EE4F565853E3D753F
:102012004001856362800FE565B4020DE4F565F564
:0A2022003D754001F562756401226E
:10028000E4F56DF56EE50B702A050AE50AC39432B4
:100290004021750B0175430175450175464C754745
:1002A00041754831856249853F4A78A4E6F54B0897
:1002B000E6F54C78A3E6601178A806E6C3941940E9
:1002C00008E4F6750CFF78A3F6E54D700302057C93
:1002D000E4F54D78A3760178A8F6E50B700DE54FAF
:1002E000B4F008750B017543018063E54F540FFFAF
:1002F0006407601C78A4E6FE700408E66012E5530B
:100300006E600302057CE55478A566600302057CF7
:10031000E54F640F600FE54FC4540FFE650C70038A
:1003200002057C8E0CEF121235034B01034B0203C6
:10033000630303A70403BD05043807052C0803DB8A
:100340000A055E0D040C0F0000057C75430275451F
:100350000175464C754741754831856249853F4A6C
:10036000020573E550D394034008E550F46003029E
:10037000057CE551D39407400302057C85503D750B
:100380004001E53D04600814700FE4F562800685C5
:100390003E3D8563627564012285513FAF3F12196E
:1003A00097853D3E02050F855063E563D394024077
:1003B0000375630285636275640102050FE551D31D
:1003C0009408400302057CE55130E00302057C857A
:1003D000516B756A01757E01020531E550D39403B6
:1003E000400302057CE550700302057CE551D3947F
:1003F00008400302057CE550240AF53DF53E7540B2
:1004000001753F07AF3F12199702050FE550D394CE
:100410000A500302057CE53D700302057C655070BF
:100420000302057C85503D85503E754001757E0177
:10043000753F077F0702199778AFE66401600302F2
:100440000513F6E550655165526553655460207596
:100450003DFF754001754302754508754604E4F596
:1004600047F54878AAE6F54908E6F54A0205737BA0
:10047000007A007950121C8F8E6D8F6E78AAE6FD7F
:10048000FE08E6FC7A002400FFEA3EFEEF656E708F
:1004900003EE656D6021753DFF7540017543027582
:1004A0004508754604E4F547F5488D498C4A78A41B
:1004B000E6F54B08E6F54C78AA1220748F5678AA18
:1004C000E6540FFF1220798F5778AB1220748F58A3
:1004D00078ABE6540FFF1220798F597543017545AB
:1004E00008754603E4F547F54878AAE6FFF549089C
:1004F000E6FEF54A78A4E6F54B08E6F54C18A607A3
:1005000008A606E478AAF608F6753DFD7540017563
:100510007E0122754302754508754604E4F547F5EA
:100520004878AAE6F54908E6F54A8047E550B4015F
:1005300007753DFB75400122E5506402703E78AFBF
:10054000760178AAA65108A652754302854F4575D3
:100550004602F547F54885514985524A801575434D
:100560000275450D75464C754741754831857C4986
:0C057000754A0178A4E6F54B08E6F54C4E
:01057C00225C
:061C8F008B6F8A70897161
:101C9500E4F572F573FDAB6FAA70A9718D8275833A
:101CA5000012117DFEEE6272E4FCE57230E713E589
:101CB5007325E0FFE572336410F572EF6421F57367
:101CC500800BE57325E0F573E57233F5720CBC08FE
:091CD500D90DBD04C1AE72AF735C
:011CDE0022E3
:10199700E4FEE53DD3940A4042E4EE75F003A42447
:1019A70010F8E6FDEE75F003A42425F8A605EE75FC
:1019B700F003A42411F8E6FDEE75F003A42426F83D
:1019C700A605EE75F003A42412F8E6FDEE75F00304
:1019D700A42427F8A6050EBE07C022EF75F003A4BE
:1019E700240DF8E6F525EF75F003A4240EF8E6F5C7
:0C19F70026EF75F003A4240FF8E6F52796
:011A030022C0
:05207400E6C4540FFF5B
:10207900EFD3940F400353070FEFC3940A5005EFB2
:0B2089002430FF2274F62F2441FF22B8
:10108500E57E700302117CE4F57E53A87F75C7AA3F
:1010950075C755439F0175C7AA75C75543A5017502
:1010A500AF2275A702F5A675AEFF75C7AA75C75518
:1010B50043A40175AF2175A702F5A6853EAE75C798
:1010C500AA75C75543A40175AF2175A70275A60179
:1010D500853FAE75C7AA75C75543A40175AF217580
:1010E500A70275A602856BAE75C7AA75C75543A439
:1010F5000175AF2175A70275A60378A7E6F5AE754C
:10110500C7AA75C75543A40175AF2175A70275A672
:101115000478A4E6F5AE75C7AA75C75543A401754D
:10112500AF2175A70275A60578A5E6F5AE75C7AA20
:1011350075C75543A40175AF2175A70275A6067835
:10114500A1E6F5AE75C7AA75C75543A40175AF21CC
:1011550075A70275A6078563AE75C7AA75C75543FA
:10116500A40175C7AA75C75553A5FE75C7AA75C746
:0811750055539FFE43A88022A0
:07000300EF90020093FF22C1
:101EEF000574E574C3947D4003E4F574E574C395FC
:101EFF00775004D2878002C287E574C3957550046A
:101F0F00D2858002C285E574C395765003D28622AE
:021F1F00C28678
:011F2100229D
:1018B900E56B606BE56AB4010BE4F56AF566F567FB
:1018C900F568F5690566E566C394324024E4F56672
:1018D9000567E567943C4019E4F5670568E5689490
:1018E9003C400EE4F5680569E56994184003E4F5A0
:1018F90069E5667013E567700FE568700BE5697057
:1019090007756501756C0122E5667013E567700F4F
:10191900E568700BE569B56B06756502E4F56C223F
:1017C100021FACE493A3F8E493A34003F68001F273
:1017D10008DFF48029E493A3F85407240CC8C33329
:1017E100C4540F4420C8834004F456800146F6DFF8
:1017F100E4800B0102040810204080901FD7E47E92
:10180100019360BCA3FF543F30E509541FFEE493EC
:10181100A360010ECF54C025E060A840B8E493A3B3
:10182100FAE493A3F8E493A3C8C582C8CAC583CADE
:10183100F0A3C8C582C8CAC583CADFE9DEE780BE96
:0120010000DE
:10117D00BB010CE58229F582E5833AF583E0225027
:10118D0006E92582F8E622BBFE06E92582F8E22271
:0D119D00E58229F582E5833AF583E493228B
:1011AA00BC000BBE0029EF8DF084FFADF022E4CC29
:1011BA00F875F008EF2FFFEE33FEEC33FCEE9DECF2
:1011CA00984005FCEE9DFE0FD5F0E9E4CEFD22ED38
:1011DA00F8F5F0EE8420D21CFEADF075F008EF2F82
:1011EA00FFED33FD4007985006D5F0F222C398FD73
:0511FA000FD5F0EA2210
:1011FF00C2D5EC30E709B2D5E4C39DFDE49CFCEE0B
:10120F0030E715B2D5E4C39FFFE49EFE1211AAC3C7
:10121F00E49DFDE49CFC80031211AA30D507C3E4C2
:06122F009FFFE49EFE2279
:10123500D083D082F8E4937012740193700DA3A348
:1012450093F8740193F5828883E47374029368605C
:06125500EFA3A3A380DF5C
:101D2E00AC78AD79AE7AAF7B7810EC4D4E4F700437
:101D3E007CA57DA5C3EC13FCED13FDEE13FEEF1396
:101D4E00FF5010EC64CCFCED644CFDEE644EFEEFE7
:101D5E0064CEFFD8DF8C788D798E7A8F7BEE547FB0
:0D1D6E00FE228E788F7974A5F57AF57B2220
:00000001FF
