S11300100928911503119015961D123D8F1D8F3CD3
S123002010118315911111110D008E1D881D3D0BC6158C1D0B0B8D15010B89158E3B8E3825
S1230040010BC115380B8115883B0E003F0B84152928801D841BD00B0412033429283028CF
S1230060863C32280F3032280F3C380B81150E00392806353E280A0B94154C2806364328BA
S1230080140B94154C28863648281E0B94154C28941D931D123C5828123458289319FA0B08
S12300A0131203305828123892381416951558285928123567280630652896190A0B1612F6
S12300C003306728961D12396728961D6728682812317D2892307D288E3C8F3C86389819A8
S12300E0320B181203308228981D97191516171203308228923C8F3C7D28863C8E38981DA7
S1090100971D822832283D
S10507FE1528B8
S30500001230B8
S903FFFFFE
